{"contracts/USDR.sol":{"USDR":{"abi":[{"anonymous":false,"inputs":[{"indexed":true,"internalType":"address","name":"owner","type":"address"},{"indexed":true,"internalType":"address","name":"spender","type":"address"},{"indexed":false,"internalType":"uint256","name":"value","type":"uint256"}],"name":"Approval","type":"event"},{"anonymous":false,"inputs":[{"indexed":true,"internalType":"address","name":"feeCollector","type":"address"},{"indexed":true,"internalType":"uint256","name":"fee","type":"uint256"},{"indexed":true,"internalType":"bytes32","name":"actionId","type":"bytes32"}],"name":"BurnFee","type":"event"},{"anonymous":false,"inputs":[{"indexed":true,"internalType":"address","name":"recipient","type":"address"},{"indexed":true,"internalType":"uint256","name":"amount","type":"uint256"},{"indexed":true,"internalType":"bytes32","name":"transferId","type":"bytes32"},{"indexed":false,"internalType":"uint256","name":"mintUnlockTime","type":"uint256"},{"indexed":false,"internalType":"uint256","name":"commitUnlockTime","type":"uint256"},{"indexed":false,"internalType":"address","name":"limitedMinter","type":"address"}],"name":"Commit","type":"event"},{"anonymous":false,"inputs":[{"indexed":false,"internalType":"uint8","name":"version","type":"uint8"}],"name":"Initialized","type":"event"},{"anonymous":false,"inputs":[{"indexed":true,"internalType":"address","name":"feeCollector","type":"address"},{"indexed":true,"internalType":"uint256","name":"fee","type":"uint256"},{"indexed":true,"internalType":"bytes32","name":"transferId","type":"bytes32"}],"name":"MintFee","type":"event"},{"anonymous":false,"inputs":[{"indexed":true,"internalType":"address","name":"recipient","type":"address"},{"indexed":true,"internalType":"uint256","name":"amount","type":"uint256"},{"indexed":true,"internalType":"bytes32","name":"transferId","type":"bytes32"}],"name":"MintVetoed","type":"event"},{"anonymous":false,"inputs":[{"indexed":false,"internalType":"address","name":"account","type":"address"}],"name":"Paused","type":"event"},{"anonymous":false,"inputs":[{"indexed":true,"internalType":"address","name":"recipient","type":"address"},{"indexed":true,"internalType":"uint256","name":"amount","type":"uint256"},{"indexed":true,"internalType":"bytes32","name":"actionId","type":"bytes32"}],"name":"ReceivedBurn","type":"event"},{"anonymous":false,"inputs":[{"indexed":true,"internalType":"address","name":"recipient","type":"address"},{"indexed":true,"internalType":"uint256","name":"amount","type":"uint256"},{"indexed":true,"internalType":"bytes32","name":"transferId","type":"bytes32"}],"name":"ReceivedMint","type":"event"},{"anonymous":false,"inputs":[{"indexed":true,"internalType":"bytes32","name":"role","type":"bytes32"},{"indexed":true,"internalType":"bytes32","name":"previousAdminRole","type":"bytes32"},{"indexed":true,"internalType":"bytes32","name":"newAdminRole","type":"bytes32"}],"name":"RoleAdminChanged","type":"event"},{"anonymous":false,"inputs":[{"indexed":true,"internalType":"bytes32","name":"role","type":"bytes32"},{"indexed":true,"internalType":"address","name":"account","type":"address"},{"indexed":true,"internalType":"address","name":"sender","type":"address"}],"name":"RoleGranted","type":"event"},{"anonymous":false,"inputs":[{"indexed":true,"internalType":"bytes32","name":"role","type":"bytes32"},{"indexed":true,"internalType":"address","name":"account","type":"address"},{"indexed":true,"internalType":"address","name":"sender","type":"address"}],"name":"RoleRevoked","type":"event"},{"anonymous":false,"inputs":[{"indexed":true,"internalType":"address","name":"from","type":"address"},{"indexed":true,"internalType":"address","name":"to","type":"address"},{"indexed":false,"internalType":"uint256","name":"value","type":"uint256"}],"name":"Transfer","type":"event"},{"anonymous":false,"inputs":[{"indexed":false,"internalType":"address","name":"account","type":"address"}],"name":"Unpaused","type":"event"},{"inputs":[],"name":"BASIS_RATE","outputs":[{"internalType":"uint256","name":"","type":"uint256"}],"stateMutability":"view","type":"function"},{"inputs":[],"name":"BURNER_ROLE","outputs":[{"internalType":"bytes32","name":"","type":"bytes32"}],"stateMutability":"view","type":"function"},{"inputs":[],"name":"DEFAULT_ADMIN_ROLE","outputs":[{"internalType":"bytes32","name":"","type":"bytes32"}],"stateMutability":"view","type":"function"},{"inputs":[],"name":"FEE_CONTROLLER","outputs":[{"internalType":"bytes32","name":"","type":"bytes32"}],"stateMutability":"view","type":"function"},{"inputs":[],"name":"FREEZER_ROLE","outputs":[{"internalType":"bytes32","name":"","type":"bytes32"}],"stateMutability":"view","type":"function"},{"inputs":[],"name":"FROZEN_USER","outputs":[{"internalType":"bytes32","name":"","type":"bytes32"}],"stateMutability":"view","type":"function"},{"inputs":[],"name":"LIMITED_MINTER","outputs":[{"internalType":"bytes32","name":"","type":"bytes32"}],"stateMutability":"view","type":"function"},{"inputs":[],"name":"MINTER_ROLE","outputs":[{"internalType":"bytes32","name":"","type":"bytes32"}],"stateMutability":"view","type":"function"},{"inputs":[],"name":"PAUSER_ROLE","outputs":[{"internalType":"bytes32","name":"","type":"bytes32"}],"stateMutability":"view","type":"function"},{"inputs":[],"name":"WHITELIST_USER","outputs":[{"internalType":"bytes32","name":"","type":"bytes32"}],"stateMutability":"view","type":"function"},{"inputs":[{"internalType":"address","name":"owner","type":"address"},{"internalType":"address","name":"spender","type":"address"}],"name":"allowance","outputs":[{"internalType":"uint256","name":"","type":"uint256"}],"stateMutability":"view","type":"function"},{"inputs":[{"internalType":"address","name":"spender","type":"address"},{"internalType":"uint256","name":"amount","type":"uint256"}],"name":"approve","outputs":[{"internalType":"bool","name":"","type":"bool"}],"stateMutability":"nonpayable","type":"function"},{"inputs":[{"internalType":"address","name":"account","type":"address"}],"name":"balanceOf","outputs":[{"internalType":"uint256","name":"","type":"uint256"}],"stateMutability":"view","type":"function"},{"inputs":[{"internalType":"address","name":"target","type":"address"},{"internalType":"uint256","name":"amount","type":"uint256"},{"internalType":"bytes32","name":"actionId","type":"bytes32"}],"name":"bankBurn","outputs":[],"stateMutability":"nonpayable","type":"function"},{"inputs":[{"internalType":"uint256","name":"amount","type":"uint256"}],"name":"burn","outputs":[],"stateMutability":"nonpayable","type":"function"},{"inputs":[{"internalType":"address","name":"account","type":"address"},{"internalType":"uint256","name":"amount","type":"uint256"}],"name":"burnFrom","outputs":[],"stateMutability":"nonpayable","type":"function"},{"inputs":[],"name":"commitCooldown","outputs":[{"internalType":"uint256","name":"","type":"uint256"}],"stateMutability":"view","type":"function"},{"inputs":[{"internalType":"address","name":"recipient","type":"address"},{"internalType":"uint256","name":"amount","type":"uint256"},{"internalType":"bytes32","name":"transferId","type":"bytes32"}],"name":"commitMint","outputs":[],"stateMutability":"nonpayable","type":"function"},{"inputs":[{"internalType":"address","name":"","type":"address"}],"name":"commitUnlock","outputs":[{"internalType":"uint256","name":"","type":"uint256"}],"stateMutability":"view","type":"function"},{"inputs":[],"name":"cooldownMultiplier","outputs":[{"internalType":"uint256","name":"","type":"uint256"}],"stateMutability":"view","type":"function"},{"inputs":[],"name":"currentFeeCollector","outputs":[{"internalType":"address","name":"","type":"address"}],"stateMutability":"view","type":"function"},{"inputs":[],"name":"decimals","outputs":[{"internalType":"uint8","name":"","type":"uint8"}],"stateMutability":"view","type":"function"},{"inputs":[{"internalType":"address","name":"spender","type":"address"},{"internalType":"uint256","name":"subtractedValue","type":"uint256"}],"name":"decreaseAllowance","outputs":[{"internalType":"bool","name":"","type":"bool"}],"stateMutability":"nonpayable","type":"function"},{"inputs":[],"name":"freeBurning","outputs":[{"internalType":"bool","name":"","type":"bool"}],"stateMutability":"view","type":"function"},{"inputs":[],"name":"freeMinting","outputs":[{"internalType":"bool","name":"","type":"bool"}],"stateMutability":"view","type":"function"},{"inputs":[{"internalType":"address","name":"recipient","type":"address"},{"internalType":"uint256","name":"amount","type":"uint256"},{"internalType":"bytes32","name":"transferId","type":"bytes32"}],"name":"getMintHash","outputs":[{"internalType":"bytes32","name":"mintHash","type":"bytes32"}],"stateMutability":"pure","type":"function"},{"inputs":[{"internalType":"bytes32","name":"role","type":"bytes32"}],"name":"getRoleAdmin","outputs":[{"internalType":"bytes32","name":"","type":"bytes32"}],"stateMutability":"view","type":"function"},{"inputs":[{"internalType":"bytes32","name":"role","type":"bytes32"},{"internalType":"uint256","name":"index","type":"uint256"}],"name":"getRoleMember","outputs":[{"internalType":"address","name":"","type":"address"}],"stateMutability":"view","type":"function"},{"inputs":[{"internalType":"bytes32","name":"role","type":"bytes32"}],"name":"getRoleMemberCount","outputs":[{"internalType":"uint256","name":"","type":"uint256"}],"stateMutability":"view","type":"function"},{"inputs":[{"internalType":"bytes32","name":"role","type":"bytes32"},{"internalType":"address","name":"account","type":"address"}],"name":"grantRole","outputs":[],"stateMutability":"nonpayable","type":"function"},{"inputs":[{"internalType":"bytes32","name":"role","type":"bytes32"},{"internalType":"address","name":"account","type":"address"}],"name":"hasRole","outputs":[{"internalType":"bool","name":"","type":"bool"}],"stateMutability":"view","type":"function"},{"inputs":[{"internalType":"address","name":"spender","type":"address"},{"internalType":"uint256","name":"addedValue","type":"uint256"}],"name":"increaseAllowance","outputs":[{"internalType":"bool","name":"","type":"bool"}],"stateMutability":"nonpayable","type":"function"},{"inputs":[],"name":"initialize","outputs":[],"stateMutability":"nonpayable","type":"function"},{"inputs":[{"internalType":"address","name":"recipient","type":"address"},{"internalType":"uint256","name":"amount","type":"uint256"},{"internalType":"bytes32","name":"transferId","type":"bytes32"}],"name":"limitedMint","outputs":[],"stateMutability":"nonpayable","type":"function"},{"inputs":[{"internalType":"address","name":"recipient","type":"address"},{"internalType":"uint256","name":"amount","type":"uint256"},{"internalType":"bytes32","name":"transferId","type":"bytes32"}],"name":"mint","outputs":[],"stateMutability":"nonpayable","type":"function"},{"inputs":[{"internalType":"bytes32","name":"","type":"bytes32"}],"name":"mintUnlock","outputs":[{"internalType":"uint256","name":"","type":"uint256"}],"stateMutability":"view","type":"function"},{"inputs":[],"name":"name","outputs":[{"internalType":"string","name":"","type":"string"}],"stateMutability":"view","type":"function"},{"inputs":[],"name":"pause","outputs":[],"stateMutability":"nonpayable","type":"function"},{"inputs":[],"name":"paused","outputs":[{"internalType":"bool","name":"","type":"bool"}],"stateMutability":"view","type":"function"},{"inputs":[{"internalType":"bytes32","name":"role","type":"bytes32"},{"internalType":"address","name":"account","type":"address"}],"name":"renounceRole","outputs":[],"stateMutability":"nonpayable","type":"function"},{"inputs":[{"internalType":"bytes32","name":"role","type":"bytes32"},{"internalType":"address","name":"account","type":"address"}],"name":"revokeRole","outputs":[],"stateMutability":"nonpayable","type":"function"},{"inputs":[{"internalType":"bool","name":"newFreeBurning","type":"bool"},{"internalType":"bool","name":"newFreeMinting","type":"bool"},{"internalType":"uint256","name":"newCommitCooldown","type":"uint256"},{"internalType":"uint256","name":"newCooldownMultiplier","type":"uint256"}],"name":"setControls","outputs":[],"stateMutability":"nonpayable","type":"function"},{"inputs":[{"internalType":"address","name":"feeCollector","type":"address"}],"name":"setFeeCollector","outputs":[],"stateMutability":"nonpayable","type":"function"},{"inputs":[{"internalType":"bytes4","name":"interfaceId","type":"bytes4"}],"name":"supportsInterface","outputs":[{"internalType":"bool","name":"","type":"bool"}],"stateMutability":"view","type":"function"},{"inputs":[],"name":"symbol","outputs":[{"internalType":"string","name":"","type":"string"}],"stateMutability":"view","type":"function"},{"inputs":[],"name":"totalSupply","outputs":[{"internalType":"uint256","name":"","type":"uint256"}],"stateMutability":"view","type":"function"},{"inputs":[{"internalType":"address","name":"to","type":"address"},{"internalType":"uint256","name":"amount","type":"uint256"}],"name":"transfer","outputs":[{"internalType":"bool","name":"","type":"bool"}],"stateMutability":"nonpayable","type":"function"},{"inputs":[{"internalType":"address","name":"from","type":"address"},{"internalType":"address","name":"to","type":"address"},{"internalType":"uint256","name":"amount","type":"uint256"}],"name":"transferFrom","outputs":[{"internalType":"bool","name":"","type":"bool"}],"stateMutability":"nonpayable","type":"function"},{"inputs":[],"name":"unpause","outputs":[],"stateMutability":"nonpayable","type":"function"},{"inputs":[{"internalType":"uint256","name":"newRate","type":"uint256"}],"name":"updateVariableRate","outputs":[],"stateMutability":"nonpayable","type":"function"},{"inputs":[],"name":"variableRate","outputs":[{"internalType":"uint256","name":"","type":"uint256"}],"stateMutability":"view","type":"function"},{"inputs":[{"internalType":"address","name":"recipient","type":"address"},{"internalType":"uint256","name":"amount","type":"uint256"},{"internalType":"bytes32","name":"transferId","type":"bytes32"}],"name":"vetoMint","outputs":[],"stateMutability":"nonpayable","type":"function"}],"evm":{"bytecode":{"linkReferences":{},"object":"608060405234801561001057600080fd5b50617a1980620000216000396000f3fe608060405234801561001057600080fd5b506004361061030c5760003560e01c806379cc67901161019d578063aac41dac116100e9578063d547741f116100a2578063dd62ed3e1161007c578063dd62ed3e14610957578063e63ab1e914610987578063f34b3079146109a5578063fc5c69ba146109c35761030c565b8063d547741f146108ff578063d911e39b1461091b578063dc59e8c7146109395761030c565b8063aac41dac1461083f578063afe45f871461085b578063bd254d4c14610879578063ca15c87314610895578063cc5907e1146108c5578063d5391393146108e15761030c565b806395d89b4111610156578063a457c2d711610130578063a457c2d7146107a5578063a5835670146107d5578063a9059cbb146107f3578063a9eebdb1146108235761030c565b806395d89b411461074d578063a217fddf1461076b578063a42dce80146107895761030c565b806379cc67901461069f5780638129fc1c146106bb5780638456cb59146106c5578063866006a6146106cf5780639010d07c146106ed57806391d148541461071d5761030c565b80633606ef3c1161025c57806354edc8f5116102155780635c975abb116101ef5780635c975abb146106175780636c6b65de146106355780636cea83721461065157806370a082311461066f5761030c565b806354edc8f5146105995780635502f287146105c9578063571cc1aa146105e75761030c565b80633606ef3c146104db57806336568abe1461050b57806339509351146105275780633f4ba83a1461055757806342966c68146105615780634670bb6c1461057d5761030c565b806323b872dd116102c9578063282c51f3116102a3578063282c51f3146104655780632f2ff15d146104835780632fe94def1461049f578063313ce567146104bd5761030c565b806323b872dd146103e7578063248a9ca31461041757806324e0d460146104475761030c565b806301ffc9a71461031157806306a85f0f1461034157806306fdde031461035f578063095ea7b31461037d57806318160ddd146103ad5780631e458bee146103cb575b600080fd5b61032b600480360381019061032691906161c6565b6109e1565b604051610338919061620e565b60405180910390f35b610349610a5b565b6040516103569190616242565b60405180910390f35b610367610a7f565b60405161037491906162f6565b60405180910390f35b610397600480360381019061039291906163ac565b610b11565b6040516103a4919061620e565b60405180910390f35b6103b5610b34565b6040516103c291906163fb565b60405180910390f35b6103e560048036038101906103e09190616442565b610b3e565b005b61040160048036038101906103fc9190616495565b611387565b60405161040e919061620e565b60405180910390f35b610431600480360381019061042c91906164e8565b6113b6565b60405161043e9190616242565b60405180910390f35b61044f6113d6565b60405161045c91906163fb565b60405180910390f35b61046d6113dd565b60405161047a9190616242565b60405180910390f35b61049d60048036038101906104989190616515565b611401565b005b6104a7611422565b6040516104b49190616242565b60405180910390f35b6104c5611446565b6040516104d29190616571565b60405180910390f35b6104f560048036038101906104f0919061658c565b61144f565b60405161050291906163fb565b60405180910390f35b61052560048036038101906105209190616515565b611468565b005b610541600480360381019061053c91906163ac565b6118ad565b60405161054e919061620e565b60405180910390f35b61055f6118e4565b005b61057b600480360381019061057691906165b9565b61199d565b005b61059760048036038101906105929190616442565b611a26565b005b6105b360048036038101906105ae91906164e8565b612192565b6040516105c091906163fb565b60405180910390f35b6105d16121ab565b6040516105de9190616242565b60405180910390f35b61060160048036038101906105fc9190616442565b6121cf565b60405161060e9190616242565b60405180910390f35b61061f612269565b60405161062c919061620e565b60405180910390f35b61064f600480360381019061064a9190616442565b612280565b005b61065961258a565b60405161066691906163fb565b60405180910390f35b6106896004803603810190610684919061658c565b612591565b60405161069691906163fb565b60405180910390f35b6106b960048036038101906106b491906163ac565b6125da565b005b6106c3612663565b005b6106cd612cc4565b005b6106d7612d7d565b6040516106e491906163fb565b60405180910390f35b610707600480360381019061070291906165e6565b612d85565b6040516107149190616635565b60405180910390f35b61073760048036038101906107329190616515565b612db5565b604051610744919061620e565b60405180910390f35b610755612e20565b60405161076291906162f6565b60405180910390f35b610773612eb2565b6040516107809190616242565b60405180910390f35b6107a3600480360381019061079e919061658c565b612eb9565b005b6107bf60048036038101906107ba91906163ac565b612fad565b6040516107cc919061620e565b60405180910390f35b6107dd613024565b6040516107ea919061620e565b60405180910390f35b61080d600480360381019061080891906163ac565b613038565b60405161081a919061620e565b60405180910390f35b61083d60048036038101906108389190616442565b61305b565b005b61085960048036038101906108549190616442565b61354a565b005b610863613dc8565b6040516108709190616635565b60405180910390f35b610893600480360381019061088e91906165b9565b613def565b005b6108af60048036038101906108aa91906164e8565b6140a1565b6040516108bc91906163fb565b60405180910390f35b6108df60048036038101906108da919061667c565b6140c6565b005b6108e96142ac565b6040516108f69190616242565b60405180910390f35b61091960048036038101906109149190616515565b6142d0565b005b61092361451e565b60405161093091906163fb565b60405180910390f35b610941614525565b60405161094e9190616242565b60405180910390f35b610971600480360381019061096c91906166e3565b614549565b60405161097e91906163fb565b60405180910390f35b61098f6145d0565b60405161099c9190616242565b60405180910390f35b6109ad6145f4565b6040516109ba9190616242565b60405180910390f35b6109cb614618565b6040516109d8919061620e565b60405180910390f35b60007f5a05180f000000000000000000000000000000000000000000000000000000007bffffffffffffffffffffffffffffffffffffffffffffffffffffffff1916827bffffffffffffffffffffffffffffffffffffffffffffffffffffffff19161480610a545750610a538261462c565b5b9050919050565b7f92de27771f92d6942691d73358b3a4673e4880de8356f8f2cf452be87e02d36381565b606060368054610a8e90616752565b80601f0160208091040260200160405190810160405280929190818152602001828054610aba90616752565b8015610b075780601f10610adc57610100808354040283529160200191610b07565b820191906000526020600020905b815481529060010190602001808311610aea57829003601f168201915b5050505050905090565b600080610b1c6146a6565b9050610b298185856146ae565b600191505092915050565b6000603554905090565b7f9f2df0fed2c77648de5860a4cc508cd0818c85b8b8a1ab4ceeef8d981c8956a6610b6881614879565b83610b957ffa690ebe8614d334661b6d0ed5adc472d493cc3c2dab844a0320c9543dd11d0860001b61488d565b610bc17fb39ef8ead78df65c33f9b2ea315a7fee441dc5136c61ce77f537a2f8858445a360001b61488d565b610bed7fca62c6eb42840d4cbde97647689ae2cf9097f809e2d506459b7de1085bd8f56960001b61488d565b610c197fb02ba62969fae017dcdfc16eb38fe7d93ca96c7a69b1b3a71260583584b1a30b60001b61488d565b610c437faee674c6ada01c6d4ee4067d160ffdacc9cc9aba7ca34516f8c9ff75fdc8d72382612db5565b610c82576040517f08c379a0000000000000000000000000000000000000000000000000000000008152600401610c79906167d0565b60405180910390fd5b610cae7fabfb0fef4655e8d90307725e1adaafc3b889e683c47cc14e4dec7ed90e872cae60001b61488d565b610cda7f3ff8571bafe64987c8c7ba35efe0fe175c057a3cd33f231fd8d546d88f22c9f760001b61488d565b610d067f3d7eaa20a41718ea7a1a38d96a5edcb94ec9550fc9f36287d4a645645294ed8a60001b61488d565b610d327f39daf4b1879efdaaed66966bbb325a94cff2f275f1a651f010a3036dae6a0edc60001b61488d565b610d5e7f136054fdbf446b6683617f55cb60a99562c9f12075ff1289a5e184ca3c41635f60001b61488d565b6000610d8c7fcbe64a36cbbb94257dbf8dfa7314ada006b4f3c6f5b70bfb83f237df00553ad960001b61488d565b610db87fb97903a505eb3833da46d8933e8834eb080bf5c827dd94413e7b2a0cd201750560001b61488d565b6001151561016060149054906101000a900460ff16151514610e6857610e007f34053e39d06b7deb30b2f88a36dabca8efb6bef7639157936e532ce63b53d33f60001b61488d565b610e2c7f4835ccbb5f360bd1228e76a821b5f652a34f94c3cd76f40bd9e9083e94a11ab160001b61488d565b610e587ff458ddc5c79071831546ce79365f97b6ada1bdf36890f476df0b5d54fcc99b3c60001b61488d565b610e6185614890565b9050610e95565b610e947f3d14b3c1fd466a0b4df792fd13b3d2325bc4014d578bb71ba25d04c066f659b360001b61488d565b5b610ec17fa69370391f6756a69e1136789a11dcea5986f200abeafe7a6b6a3f26a2ffab9e60001b61488d565b610eed7fd4e61448faf4de87730b0992e973fafaa2a42aa7f518d202108589905ab7bd8460001b61488d565b60008186610efb919061681f565b9050610f297fdee9f665ea556aae2a490dcccb2df0010dafe5a6cb0d24710a055e8d2ddd113660001b61488d565b610f557f8c6978c9e429a5e471cee7682b8536c6e2649310f7db010be1528a612bfdbdbb60001b61488d565b84818873ffffffffffffffffffffffffffffffffffffffff167fb279743e0218314d88b387012a6b7e94ff79b811c536ab5e40d6527ea265ff2c60405160405180910390a4610fc67f2764614cb530286e52f1681f77de71e9ee857c7ce3613c87aa9988ce3e15c35660001b61488d565b610ff27f6fb93dd3f52719247d5f0ca6f4998ce7c416f4ec529f1a94230cc828486fca8760001b61488d565b848261016060009054906101000a900473ffffffffffffffffffffffffffffffffffffffff1673ffffffffffffffffffffffffffffffffffffffff167f1f8174bdbec9563f21f6aa0ab97118362e35fd5b104b486a0fa2d754cad41e5160405160405180910390a46110867fa155134fbce001c520bb0624d7be917dcddcfb0730d2da7a797d979bad0c22af60001b61488d565b6110b27fb8ed859bcc0a042eba102ebbf667ac551607e38efa2c9fa7506198339943400460001b61488d565b6000821115611171576110e77f7fb6d4871eafa5b4d7271fb576b07bb1289185e1c0ea967cdab522426851c06d60001b61488d565b6111137f6469520a54d6ebb41d8690db59c67f178ba8011bfbda8a3e22e37c89d9ccc9dc60001b61488d565b61113f7fa7095765ba90177fb0b108d3e461879fae49ff110a1529202ed847ecb3e2bbe260001b61488d565b61116c61016060009054906101000a900473ffffffffffffffffffffffffffffffffffffffff1683614a3d565b61119e565b61119d7f206b827928c8aad244c648db4f74345dd4fc16c4fd2f8193bbd767a52f2e3ee860001b61488d565b5b6111ca7ff5e42a414a946a5df2529cbf6762485aa151f39ee2764eb3d01e1196b50e19e560001b61488d565b6111f67f7b0e270b41553f84fcb871b367400e96cc3c916e3988f76988ef446a7a57150160001b61488d565b6000611203888888614b95565b90506112317ff1310d59d919ab2d9962e39d47feb441b622487e4a06dbf115a1a50bc5961fe360001b61488d565b61125d7f6fc19a9e27048ad2ce346ac195877098183591554ccb5fcaba56d1a99b1edb9260001b61488d565b6000610163600083815260200190815260200160002054146112ee576112a57fcd7fa6a710e8cb080d90b3ed078e36cf6622a2ef2419e8134328d1e9e8cae9b460001b61488d565b6112d17fa99755ff7433f9833c6d6ed349beffe75c7b8471acad4d4a495dab50fdf6e05960001b61488d565b61016360008281526020019081526020016000206000905561131b565b61131a7ff2cdf0eae7bb65bf48078f43afdeb65fccd1cc8ca6c0d340e2edd92aafe955b560001b61488d565b5b6113477f4c3796d77addcb6356045b12d70f100e679e37a8aefa218f92ff8b143ca1008d60001b61488d565b6113737f7b8d56d7dd5c1dbc1c1a1a48bd2da8878bfc26423cfe87711a7d69801437f55060001b61488d565b61137d8883614a3d565b5050505050505050565b6000806113926146a6565b905061139f858285614c4f565b6113aa858585614cdb565b60019150509392505050565b600060fb6000838152602001908152602001600020600101549050919050565b61015f5481565b7f3c11d16cbaffd01df69ce1c404f6340ee057498f5f00246190ea54220576a84881565b61140a826113b6565b61141381614879565b61141d8383614f56565b505050565b7f8a639721758084b2ff869ed05cee658aab46e6bdc69bca1b006bae9f55613c5981565b60006012905090565b6101646020528060005260406000206000915090505481565b6114947faa78ec23e7fd72554b00cd9354fc66716b3cbf229d1a0df88647b8e6956b3a8060001b61488d565b6114c07fd1aedcc8bf487d158d0b8667b8d58c30de308b1d25ba52484e95fdcba4bcf37360001b61488d565b6114ec7fb53a13bb7f3a4b1c58c1d596b738a1d5b6a0cafbef7ae0efa2963c6f7bda4d0560001b61488d565b7f5edc4fd0544f0b4b53f14f295fb04bbd6fdbc1bea1fd8edf5851b385aee145d582141561165e576115407f386b3eb3cb1308872c86c536a6efedfcd196103e9206f1191a3e09c60545304860001b61488d565b61156c7f8bb40603f3edb0993510541d9a703f2970d093fb913e2f6b871be51e9d4eba6260001b61488d565b6115987f3c73e88b207a718c8ee71908d20222d150f5ef870905e0e08b3ca3179fa0caee60001b61488d565b6115c47f124f84c84fcdccd93fd02c60355fa461e3db34004d77e6be9826dd912316dba360001b61488d565b6115ee7f92de27771f92d6942691d73358b3a4673e4880de8356f8f2cf452be87e02d36333612db5565b61162d576040517f08c379a00000000000000000000000000000000000000000000000000000000081526004016116249061689f565b60405180910390fd5b6116597f3cc0200ca0b3ff79de57f0ae9492890df5bcf6a4741a350d48c2bcbc3668280060001b61488d565b61168b565b61168a7fc7242e5fbe8429dd0b3f7062b4272a796895876b279f85417394a08dc4db30f660001b61488d565b5b6116b77f5a44631aea99fb92ab549f66e8d77787a204f89b0bf36d583bb608f55e1a376460001b61488d565b6116e37f6df2e957017e89c3451ec4159e747214ef5295d442536deb4519b7fc51c69de460001b61488d565b6000801b82141561181a5761171a7fe2b669eecd9a21e6cf3b3833e5652997717ea03c5403f4229401d103812b01e360001b61488d565b6117467faaf804cfae91c47695008fe055345dd3d0c8096ef2eb3803d75f089c72234eca60001b61488d565b6117727f38416d666fce07dd3c384a50314d59ec8f86d221c92aa2ec49827eb86a50252560001b61488d565b61179e7f947d12310345dfe57ea00df1c69126458cabc849b4452c44f43b9a80a6b5643160001b61488d565b60016117a9836140a1565b116117e9576040517f08c379a00000000000000000000000000000000000000000000000000000000081526004016117e09061690b565b60405180910390fd5b6118157f39d48ad2c62afca801810c06f3e445b2b1e901097236e7b07ab9711c90a49f4a60001b61488d565b611847565b6118467fc05ac92b95eceadbee1362c777b82c9ef080ba15e17b7394ba4bdeef17dda2ef60001b61488d565b5b6118737faf3530a0bd774e0fe6662b3f993897823b2a722c9e2eff1ee16c78912f64b11460001b61488d565b61189f7f89b7f9e1f082bb98b41098b85641a2eac5a4e112c93d73e914914371331f5be160001b61488d565b6118a98282614f8b565b5050565b6000806118b86146a6565b90506118d98185856118ca8589614549565b6118d4919061692b565b6146ae565b600191505092915050565b7f65d7a28e3265b37a6474929f336521b332c1681b933f6cb9f3376673440d862a61190e81614879565b61193a7fd0f8c4f942ca3287fc0ea6cfac5d13c1e114902618641de42554b9355b77376360001b61488d565b6119667f8e0470a74979981c52b12a50bdddd739e277a571546e8cb3146acea9a9ec26d660001b61488d565b6119927f5a9e6da8c1efb11e59f66bf7921ec9f97502ef54ca03d0d8d93f1a7b20316b2860001b61488d565b61199a61500e565b50565b6119c97fb633349fa14e068502783171eec474a008b3190f627b313df946d64bfa316a0d60001b61488d565b6119f57f9411e54d0eade8d3875c7c890e5ee303c94232705c27226299af4dd520cfcb7460001b61488d565b611a217f9b8cdfe7387b5fbb19ee64325689f1a32874b6ce6ad58de3fc3119739ff383b960001b61488d565b600080fd5b7f4b8072d94804aa443f85286056c4cb9fda8b35e0a826d9959c80aa89382b0f26611a5081614879565b83611a7d7ffa690ebe8614d334661b6d0ed5adc472d493cc3c2dab844a0320c9543dd11d0860001b61488d565b611aa97fb39ef8ead78df65c33f9b2ea315a7fee441dc5136c61ce77f537a2f8858445a360001b61488d565b611ad57fca62c6eb42840d4cbde97647689ae2cf9097f809e2d506459b7de1085bd8f56960001b61488d565b611b017fb02ba62969fae017dcdfc16eb38fe7d93ca96c7a69b1b3a71260583584b1a30b60001b61488d565b611b2b7faee674c6ada01c6d4ee4067d160ffdacc9cc9aba7ca34516f8c9ff75fdc8d72382612db5565b611b6a576040517f08c379a0000000000000000000000000000000000000000000000000000000008152600401611b61906167d0565b60405180910390fd5b611b967fabfb0fef4655e8d90307725e1adaafc3b889e683c47cc14e4dec7ed90e872cae60001b61488d565b611bc27f3ff8571bafe64987c8c7ba35efe0fe175c057a3cd33f231fd8d546d88f22c9f760001b61488d565b611bee7fcc9b887923a9994a275ccc4098e553a8e81fe687af90bacacda8103cf62bae1360001b61488d565b611c1a7f4d98f2d54b5a788a7d82cadfe4d858540db54b188abf24ef1437f650dd1ac31c60001b61488d565b611c467fa09a713c17c748f5c41b9cc2a1b7b322faa2f15a4d3fbfdb76cf56157165139e60001b61488d565b611c727f9dfd5045af1f28e20cf507c6ddd820b3697fd6ea0811bbc3c0646d58f005a24b60001b61488d565b4261016460003373ffffffffffffffffffffffffffffffffffffffff1673ffffffffffffffffffffffffffffffffffffffff16815260200190815260200160002054111580611d015750600061016460003373ffffffffffffffffffffffffffffffffffffffff1673ffffffffffffffffffffffffffffffffffffffff16815260200190815260200160002054145b611d40576040517f08c379a0000000000000000000000000000000000000000000000000000000008152600401611d37906169cd565b60405180910390fd5b611d6c7f7e4317af18e86d9e905b93e50da95cb636ac759f2c3c74998815bdf32169925560001b61488d565b611d987fc7e3737b3b80147917063f3a307158a6cad54820d35cdf6855ed1f838dca770a60001b61488d565b611dc47f71d5cd3d11f00285613ccef12eaa3483c9b4dfff2fd9b035f1b2f6cfff7b8c7760001b61488d565b6000611dd1868686614b95565b9050611dff7f54a38df8516ff942b907dbe635bcdbe896f89fe4e05856f6f1f58cbb739f34b460001b61488d565b611e2b7fb7bc756f4a0b0ecafd0e361301ccc6d3e4b3c65e3b6cb3bfc27c9b9601f7649060001b61488d565b611e577f718837dbb9f3ee61b3c6dd482c532aadf2739c791736d9ec6112bc7b88af679660001b61488d565b600061016360008381526020019081526020016000205414611eae576040517f08c379a0000000000000000000000000000000000000000000000000000000008152600401611ea590616a39565b60405180910390fd5b611eda7f4326f2bdf49dd44f6d6e5bf3b449d8ad401dd169916ad296126d9326d706714460001b61488d565b611f067fac27c803a8186966a4a3179b7f9b4a8f3e42491437de462a5c66fef212ffd19c60001b61488d565b611f327f708335250f308194451dcbe85b91d847c64a8c1f0731ed1f8fb54d4e408a50e260001b61488d565b6000670de0b6b3a764000086611f489190616a88565b61016154611f569190616ab9565b42611f61919061692b565b9050611f8f7f0405190d7c163718ab959c9b7db83d57704ac01f40e195afbf4f1cbc0047565760001b61488d565b611fbb7f359908b02035544cc4c92639ee68c165f6a0dbe09558b113bb28136740dac3dc60001b61488d565b806101636000848152602001908152602001600020819055506120007f64245efb44169a589ead1d4f4278e33983feafd36c7953a95175c5a2acdc96da60001b61488d565b61202c7f0fe94d2d87154dd54d26aae5d32f6b635e5327c312a58d16a178fbbb4bcab5a060001b61488d565b6000610162544261203d919061692b565b905061206b7f98af8c43051748cdabf5c210accdc83db2f77378bd0c7d6f18957b4f4259957360001b61488d565b6120977feb6bb2181d62c435c264b97de5b6f3261876d6991cda6ae6e13f848ecee7705560001b61488d565b8061016460003373ffffffffffffffffffffffffffffffffffffffff1673ffffffffffffffffffffffffffffffffffffffff168152602001908152602001600020819055506121087fe7f988420512b47f168b6bcd8e911beb359460b1df4dbc0fec0de366feb4154660001b61488d565b6121347f08f3b509e6cce129d4fe6f96bab4f87140e4e5fea615afb760a987b6e610ac5c60001b61488d565b85878973ffffffffffffffffffffffffffffffffffffffff167fb744a5eb3cafe36dae33c716833d91c7acd6bfa94ce3c0f4cc6ec42de387552385853360405161218093929190616b13565b60405180910390a45050505050505050565b6101636020528060005260406000206000915090505481565b7f5edc4fd0544f0b4b53f14f295fb04bbd6fdbc1bea1fd8edf5851b385aee145d581565b60006121fd7f1e640629ba62b2169d3f4f024dc72043db171338746c1c935617aab2ea25cad260001b61488d565b6122297f5281e1ad773972cdedb7e834f61465f4c284540a82f983105f57ebd2375ac8ac60001b61488d565b6122557f7feb00c42a793e27b3b18556b280111cba2b63af7530e6185842edd5b1f820a960001b61488d565b612260848484614b95565b90509392505050565b6000609760009054906101000a900460ff16905090565b7f92de27771f92d6942691d73358b3a4673e4880de8356f8f2cf452be87e02d3636122aa81614879565b6122d67f86a09fd57fd1e399bdc81037c31fe9c0f9e7bd6e2f52c3b4e29dfedb2ad0a1c260001b61488d565b6123027fbc0af1eb8f7e01e100db1f50d626117bdb49876bd7560cc625152ffe55fb2de360001b61488d565b61232e7f110ddcfa043b118a807409cfcf6ceb5f44f284116fe3afb0a113e7a97c0e1f7860001b61488d565b600061233b858585614b95565b90506123697f9e4e8a7e85b868593ef734688dccb702eeccecc5177f79a1cd845991b65ec14360001b61488d565b6123957f152c0327f6fa188f5722ed0c8d0c548619775756af95a9328ce208d39075831b60001b61488d565b600061016360008381526020019081526020016000205490506123da7fd61472d843a940c7ad53c756a6a45e4efbe91968e8759c12786955d059f7b62c60001b61488d565b6124067f2913fdad9f2c699c78e111540ce721dffb494c3998723c22340be625b004cb8160001b61488d565b6124327f6cf11f31467ddf00169fec8a4490a51d280e6c6749b6044002867199c7524bf360001b61488d565b60008111612475576040517f08c379a000000000000000000000000000000000000000000000000000000000815260040161246c90616b96565b60405180910390fd5b6124a17f4f0738df7ce35544e2c8ed3febc0a41ef3220b2c342a9c9c611ee263c428188060001b61488d565b6124cd7f0f0a4f1c1811453b243f7fee33bf53d129a87955ce24515333810e6965d762ac60001b61488d565b6101636000838152602001908152602001600020600090556125117f306dd5f891d2b53b5ba43b1830b30755ccad0004731f91f1b3402b97e0e663ce60001b61488d565b61253d7ff0f9d1fc60501d8a7e94eab06dac3a207dea700fc74bfef52945ebf4c9b37c8f60001b61488d565b83858773ffffffffffffffffffffffffffffffffffffffff167fcc16942b6232b79202fa3d65654a598a75b1a3e812d4179dc04a7a32c097ceba60405160405180910390a4505050505050565b6101615481565b6000603360008373ffffffffffffffffffffffffffffffffffffffff1673ffffffffffffffffffffffffffffffffffffffff168152602001908152602001600020549050919050565b6126067f4316ee760e6cd4f9dceb37667d7e82787dd3ef0f38b17176258fbd594ccc15ea60001b61488d565b6126327ffb250f9cecc2d265493ec413735621dfef95f601f4053f8b4219a406437b35ef60001b61488d565b61265e7fb95bd5c42e2732c49575ff61ca971ca80f4ee13861328bb4a38fc8aa1efb1e8360001b61488d565b600080fd5b60008060019054906101000a900460ff161590508080156126945750600160008054906101000a900460ff1660ff16105b806126c157506126a330615071565b1580156126c05750600160008054906101000a900460ff1660ff16145b5b612700576040517f08c379a00000000000000000000000000000000000000000000000000000000081526004016126f790616c28565b60405180910390fd5b60016000806101000a81548160ff021916908360ff160217905550801561273d576001600060016101000a81548160ff0219169083151502179055505b6127697fe9c7aefa2dd10e52e2ee61436715f6842c4c3939ec2b096639f8f122a695640a60001b61488d565b6127957f02e9922808c7a84d7d92c09df102d841f15982e8398d7b66e9decd05887f8f0460001b61488d565b6127c17f19d8767f8af476f61c3e2bdf99297623762e04048b731d75fe8272d8181b782260001b61488d565b6128356040518060400160405280600b81526020017f55534420526563656970740000000000000000000000000000000000000000008152506040518060400160405280600481526020017f5553445200000000000000000000000000000000000000000000000000000000815250615094565b6128617fe3e62510a0c071761b3340cfcd5fce3308d51b5d7c0e6388a6cb4697ab3f0ff760001b61488d565b61288d7fba945d6b1e81960d643331bffb65059dfc13530094931aa82e4d40104f12cba160001b61488d565b6128956150f1565b6128c17ffc64ce7be066c2f9a374d03d81264daf13f639444b76b47201f0243f7739321960001b61488d565b6128ed7f9245fcabfae0a1ab6f107cb8c65b947871b2b251cd971576f9de55624712b1cf60001b61488d565b6128f5615142565b6129217fa4ec86a0b8f6719c1b76d019c0512d0ef50ddcb02d375862bdafc8775f5617f860001b61488d565b61294d7f3a1ed387d0bc9c98ba4f195d0f8acb23f7ca8b22bb5a74a578e8c0d26892523b60001b61488d565b61295561519b565b6129817f7fa03edf73683bfa820e31930384b7137e2caf262f5194ae238530bac4b8fdbd60001b61488d565b6129ad7f71279905659d8942a9687c8c7b18f2c8357780b24f196b8b14aff84697c32bf160001b61488d565b6129ba6000801b336151ec565b6129e67f61005f9d7c68c38dbe71acd2754d0173638a5a8b31c5e9e28cce93b6cefaa6b060001b61488d565b612a127f8d79f76fef506bc18eca9ec8f5369a7899fd9cc627857b0d3f0891d987c7d11d60001b61488d565b612a5c7f5edc4fd0544f0b4b53f14f295fb04bbd6fdbc1bea1fd8edf5851b385aee145d57f92de27771f92d6942691d73358b3a4673e4880de8356f8f2cf452be87e02d3636151fa565b612a887f30004d1e7ade5505b0daf5e1ede06b3025554c34bc1c5b5ba6eafb25e0420ffb60001b61488d565b612ab47f31007a899218d8fde6fec52a5f05718061eeb6d7cb9e8ea2584fd2d2ff5ab5f660001b61488d565b620f424061015f81905550612aeb7f11e8813a6039b15e1166c188877bbc56cc9bec69147d02d7509d2549ae88f07860001b61488d565b612b177fcf0dda5f48e2cad0784f572d386675e1007c9e31cd3095e3dbc228116832f26b60001b61488d565b600161016060146101000a81548160ff021916908315150217905550612b5f7f63571c3f3e60de601e043834ad414726ac3eb457bf59b912161be5f4daf0c37460001b61488d565b612b8b7f33e739433416f17d2cf94b61b9f05118557ae1e140ba20b93815e85dd446289160001b61488d565b600161016060156101000a81548160ff021916908315150217905550612bd37fca39cd04bf763477e084c7a42b946b46d8a7e483c8145bf0e84549b1cbd3802160001b61488d565b612bff7fff2f92f7706d02d97b0a88220a538b971da52b72602ebcc4c1614246f4c76fca60001b61488d565b600961016181905550612c337e3af0880fb20139b57a9799b4f326d46eafd95e2e88d1ca704ea3d3af871a8060001b61488d565b612c5f7f0145e8393026b69a97629d46eb97d413511d1f283654b5f215b68f7c49041b6560001b61488d565b60b4610162819055508015612cc15760008060016101000a81548160ff0219169083151502179055507f7f26b83ff96e1f2b6a682f133852f6798a09c465da95921460cefb38474024986001604051612cb89190616c8d565b60405180910390a15b50565b7f65d7a28e3265b37a6474929f336521b332c1681b933f6cb9f3376673440d862a612cee81614879565b612d1a7f4f4a49e3e7bf72a1cec89b118e3dfe4e64de4a9bc4f7971e4199ba6a1120965e60001b61488d565b612d467fe8cf25d09eb5ad6f714f89696ab47773211aa3863fdac65c8e56fa7298741cb560001b61488d565b612d727fb7522bf3643e1c1ba55e769d2d4ecd2227e1c5a48ecf44e9644d85514fe6929a60001b61488d565b612d7a615256565b50565b633b9aca0081565b6000612dad8261012d60008681526020019081526020016000206152b990919063ffffffff16565b905092915050565b600060fb600084815260200190815260200160002060000160008373ffffffffffffffffffffffffffffffffffffffff1673ffffffffffffffffffffffffffffffffffffffff16815260200190815260200160002060009054906101000a900460ff16905092915050565b606060378054612e2f90616752565b80601f0160208091040260200160405190810160405280929190818152602001828054612e5b90616752565b8015612ea85780601f10612e7d57610100808354040283529160200191612ea8565b820191906000526020600020905b815481529060010190602001808311612e8b57829003601f168201915b5050505050905090565b6000801b81565b7f8a639721758084b2ff869ed05cee658aab46e6bdc69bca1b006bae9f55613c59612ee381614879565b612f0f7f1c96ce78cd73dd676b83ebd423215cf1ee7a844cca8b8d8bb696e9c37092742260001b61488d565b612f3b7ffb2ee8c815b2215c6353874b6ada4f1d3b91c1cbcbbea646116da9ac1396237560001b61488d565b612f677f6151b939c9834b7721c2a43aa22c23fd0a95fb7c8b62c2825298e9dc5c1f1b3e60001b61488d565b8161016060006101000a81548173ffffffffffffffffffffffffffffffffffffffff021916908373ffffffffffffffffffffffffffffffffffffffff1602179055505050565b600080612fb86146a6565b90506000612fc68286614549565b90508381101561300b576040517f08c379a000000000000000000000000000000000000000000000000000000000815260040161300290616d1a565b60405180910390fd5b61301882868684036146ae565b60019250505092915050565b61016060149054906101000a900460ff1681565b6000806130436146a6565b9050613050818585614cdb565b600191505092915050565b7f3c11d16cbaffd01df69ce1c404f6340ee057498f5f00246190ea54220576a84861308581614879565b6130b17fa24e8cc7164c4724f7063c7764e96b374ccf92d5656bd8bc890b2671e54a847560001b61488d565b6130dd7ff3927e1336cb6f8c6327ebc72055c52b81b685e6c7a9b6c9f58ac23db130500d60001b61488d565b6131097f64b4fd1041555b2d2d85bbf2ca76ac08036ee914fa697c4536fa5cf666d94e9a60001b61488d565b60006131377f54ecec610a77a580e23da8fcf52750f4ca735dda57739fbcc936a7bfb549b4e060001b61488d565b6131637f8def3bbde2eaf41e6c193eb7913ea26ba7598b37105e263547261d6d08f82f8660001b61488d565b6001151561016060159054906101000a900460ff16151514613213576131ab7f04873a102134994e2ed3efb0d7808e06256850fc7ccfbe1756a7fd0360a25e6a60001b61488d565b6131d77f9d4cdb61d87870b30eaeca4db675f5f4202a48e376eb5c67c81de0349e71427860001b61488d565b6132037f5c34f007ad93dfedcf7e917e20669349f74295d48fcef9b3d91b9a6d4806e2d960001b61488d565b61320c84614890565b9050613240565b61323f7fec3e249d1e79ccddd41fbea8faebf159ad954e9c6934ac95ffa4165fe57cd80a60001b61488d565b5b61326c7fbf0b68ffbf6833420f4ae55cdb27b163a35bba641f2367e53e0ac6a705fa6d0760001b61488d565b6132987f50c5670d11574cc24827f15f7dc07a763122b782472339ad8aedaf792c3ee27860001b61488d565b6000811115613357576132cd7f61a4a6ee297cb744410e3eb76b84fddbd002f9b2567a637871f6cfd895ee2eb760001b61488d565b6132f97fe35eaf841ec94a2a045bdfdb4bf59191b45bfb2a95e449396308606be5be9a2060001b61488d565b6133257f2ccdac0a742921ad13c709ba2b0c7b9caf504f0950f68c8728c48d5f2fbb22d460001b61488d565b61335261016060009054906101000a900473ffffffffffffffffffffffffffffffffffffffff1682614a3d565b613384565b6133837f1c9ac2b0a5f5085629f9a0589ee9b0ad6976c6cf458d5c34578f8f27ef199d0f60001b61488d565b5b6133b07fbfe9aa05743ad7a3c8e9d904db1098eb154b6d9e96b5d35ff52fffbb866e294960001b61488d565b6133dc7fd73c3a2d5b778947bd881f994e5f3269ebc3f5ee1af0b7b0fa0f723d7ca8072c60001b61488d565b82848673ffffffffffffffffffffffffffffffffffffffff167f06a5cc13c9f93b7a2af752bb0bda4958deb252b326ded3266f786ca78456002560405160405180910390a461344d7f7152e3387f47c0623a3f1d7d7fff98540800a28fc1fce866a4a08ecc213cc37f60001b61488d565b6134797f970d7d29b5f8455e34caeb3e243984ff93041167a3df5e600f3d29457d13c73d60001b61488d565b828161016060009054906101000a900473ffffffffffffffffffffffffffffffffffffffff1673ffffffffffffffffffffffffffffffffffffffff167fb90103c5976493d20060202415867ddf1081e70322c45b6f19bfdbe384b14f5160405160405180910390a461350d7fd83edd669511901d54fc8df5c077165ea23c6c612c05cdb1688614112158b94c60001b61488d565b6135397f8238213cdb270975ebd51af7c4f9c81ad310b1f6ad13313dec4a65072ad9c7b760001b61488d565b61354385856152d3565b5050505050565b7f4b8072d94804aa443f85286056c4cb9fda8b35e0a826d9959c80aa89382b0f2661357481614879565b836135a17ffa690ebe8614d334661b6d0ed5adc472d493cc3c2dab844a0320c9543dd11d0860001b61488d565b6135cd7fb39ef8ead78df65c33f9b2ea315a7fee441dc5136c61ce77f537a2f8858445a360001b61488d565b6135f97fca62c6eb42840d4cbde97647689ae2cf9097f809e2d506459b7de1085bd8f56960001b61488d565b6136257fb02ba62969fae017dcdfc16eb38fe7d93ca96c7a69b1b3a71260583584b1a30b60001b61488d565b61364f7faee674c6ada01c6d4ee4067d160ffdacc9cc9aba7ca34516f8c9ff75fdc8d72382612db5565b61368e576040517f08c379a0000000000000000000000000000000000000000000000000000000008152600401613685906167d0565b60405180910390fd5b6136ba7fabfb0fef4655e8d90307725e1adaafc3b889e683c47cc14e4dec7ed90e872cae60001b61488d565b6136e67f3ff8571bafe64987c8c7ba35efe0fe175c057a3cd33f231fd8d546d88f22c9f760001b61488d565b6137127f5765e2cac1ca209c539f776862f07d473b09c70700a472ec894ae186708cd20660001b61488d565b61373e7fe5f30ff521cc73d83957fa717a0cc7791f84e1f3f9ce0d6aba8f751d01020c6960001b61488d565b61376a7f1b38798a84db68b230dbb1bb213c1b2afa1764b9f5079bb871ca72def55eac6d60001b61488d565b6000613777868686614b95565b90506137a57f32fc64bff4a78c4b1e1cd3f39035fd680d93ac03104752c23d1f4ff73f0fb1ec60001b61488d565b6137d17ff6262387aec3fb6a138f02764a1ce2996c31985c1ad8eb316f66e4597250c6f760001b61488d565b6137fd7fb95af2f52f8099a2b37141b4b92b5819d59f6479674e803bd5fb26597fed309c60001b61488d565b426101636000838152602001908152602001600020541115613854576040517f08c379a000000000000000000000000000000000000000000000000000000000815260040161384b90616d86565b60405180910390fd5b6138807f9d36f69df956916b338995d2d9da4bb6071fe4346138d020b12dff628d39e24060001b61488d565b6138ac7f353d481a41dada661f4e09b4ef73d91be4cc2ff77e79524f88a8027081b9b6bb60001b61488d565b6138d87fc7b128ab6d444eeed6a64ac0a052d4c97a72d78ebc00599ab7c141e5ee7c267a60001b61488d565b60006139067fa68c5f71fac1542459fddfcbf1606e36b10877504ebad0ffc3531ee706d5e53160001b61488d565b6139327ff060c20d645d8345a4218ce99d45d797586d91a79ecddce4efa74d6c96aae3a460001b61488d565b6001151561016060149054906101000a900460ff161515146139e25761397a7f916473cb88d744162df60df2f420c8d807ca7202327e856bcb0b5fe653806bb860001b61488d565b6139a67f8a9b5a9143517542f8b0d8570cee20d88dfdcda9667cabd5a1160ce5eb3cd2b060001b61488d565b6139d27f9ed509bb705035ec19917e7f86e609aa8bb5f74e6b3f545af616caa29711899e60001b61488d565b6139db86614890565b9050613a0f565b613a0e7fa96b33596e68954d7ecd142297a1d984699b4a4ee34542441250c3a14884864360001b61488d565b5b613a3b7fbc8c569ec93dc518f362efde42516cc053692971399f351ee52cadbed25f622160001b61488d565b613a677fb21cf3daebf189356fe4aceaf36aafa1372d601e4bff356d41c00d5823d769ac60001b61488d565b60008187613a75919061681f565b9050613aa37f0dc75d909d8b5336de09e920d30a4fe964fce0134237117d951817755cf37d8260001b61488d565b613acf7f52ef8f6f5ead7a2a35baa70eeb62fd51cd3e37479a2b4688fef20511e646a01a60001b61488d565b85818973ffffffffffffffffffffffffffffffffffffffff167fb279743e0218314d88b387012a6b7e94ff79b811c536ab5e40d6527ea265ff2c60405160405180910390a4613b407fa7e126dfd26c807a3b60d31f7c472429d3fef99f98e1046f224ad5e12cbc0e4560001b61488d565b613b6c7f623914c1d94f6af7dd20679cd34ef17e72a3fb590bc6d4fd737dd0c48842a88460001b61488d565b858261016060009054906101000a900473ffffffffffffffffffffffffffffffffffffffff1673ffffffffffffffffffffffffffffffffffffffff167f1f8174bdbec9563f21f6aa0ab97118362e35fd5b104b486a0fa2d754cad41e5160405160405180910390a4613c007f8636780a95389489871af1a44e1085a9bf5ff72d29e44c659421d308753724e660001b61488d565b613c2c7fe35bf6962504231771040068dbc886504a09d3951b4839fa1e548fcc67cbe2e760001b61488d565b6000821115613ceb57613c617f321f8e24cab7294250a92a17fe9c32d2b5e2d988004b9f29ab3050dec30238d560001b61488d565b613c8d7f8ec605381a67600ce191810b4d4a35b284a5e566bd95b88790acbc55cfc992f560001b61488d565b613cb97f96014709a1e444c3d371ef12dc75a97aeeba810326428dcc8810ff3cad5794f560001b61488d565b613ce661016060009054906101000a900473ffffffffffffffffffffffffffffffffffffffff1683614a3d565b613d18565b613d177f1448cf36a111443bb6e936d29a2675fbeceb410f23cbaed4eb031e1047fc57d560001b61488d565b5b613d447fca61b16df0e9c79bf06121d776ab4d61c8de799a1ed10c8b6a248989a7b2596e60001b61488d565b613d707fe37b3ef58a65326e173d6d928a6f29f81b3a00c4d230098d27934ec4ff04843a60001b61488d565b613d7a8882614a3d565b613da67f1d4b5c5d28c597e61931b031e2d8d8cda9a4037ff64930ba277bba1f6e28240660001b61488d565b6101636000848152602001908152602001600020600090555050505050505050565b61016060009054906101000a900473ffffffffffffffffffffffffffffffffffffffff1681565b7f8a639721758084b2ff869ed05cee658aab46e6bdc69bca1b006bae9f55613c59613e1981614879565b613e457f28ac6f1a048d1b0054a73106be0434029f2aa63931f69700005e48b81d3b1cd660001b61488d565b613e717f1c3cc1dcc3c0df2c23491238a07d4b3f18cbc67df8b38681a800b6dfbe8538a460001b61488d565b613e9d7f6436a5f73672f73f68b2c3e388a32f0485440a84bd1fbe9396908f57f7ebdcfa60001b61488d565b613ec97f87639db2d70b2ba4cd6683ca429f231701c6c06b362463972d4075adfc92a98660001b61488d565b6000620f424083613eda9190616da6565b14613f1a576040517f08c379a0000000000000000000000000000000000000000000000000000000008152600401613f1190616e49565b60405180910390fd5b613f467f5670445e181d50595be4b0ec1579363250e21b602a2c78540861656ba6ea7b8a60001b61488d565b613f727fcd6cfbcf56ceacfc6edf1ec8be1b464b01e8f26986e45a085b1fc37f3492d4b560001b61488d565b613f9e7f6d4a62348ce0636001fbc4faf23c474de9b159d6cf45371f72d64b975ff2e0e760001b61488d565b613fca7f3f45dab95bef2dbd478007de7ba66aaa1c69745605c47c2627dc19e24d8f8d6260001b61488d565b6305f5e100821115614011576040517f08c379a000000000000000000000000000000000000000000000000000000000815260040161400890616eb5565b60405180910390fd5b61403d7f89053300f6140d178e8c989c3adf05bd14306d272993e937084fdd3812dea79e60001b61488d565b6140697f39c61f52ce770e25e03a052bdd7e0e8a1dd9fd8e876e850ca207db1d80824d4360001b61488d565b6140957f5f73aa25d4fdcf9fa0d4688db4d9d2d8537479ceea5f3aa2566d0fa40e83d7d560001b61488d565b8161015f819055505050565b60006140bf61012d60008481526020019081526020016000206154a3565b9050919050565b6000801b6140d381614879565b6140ff7f45d0d2904e62cada2f2fd9f2f01be76278c215ddbe3a6c436dfac144082b8a5260001b61488d565b61412b7fd3465456328caea971a4d149328adc93e8eec0d3b5cee23866a739668b81d6dd60001b61488d565b6141577f1af96e17f3bd60d836d765cdd864329dd17260492b20cd51c0516beb3e30c04960001b61488d565b8461016060156101000a81548160ff02191690831515021790555061419e7f2afdaf575c6aa079df5169383703fe3b60d3baf692c2953acb89de2de5462ba760001b61488d565b6141ca7f3f4ceee0d7a816928cfcc0a13dda26cfeadc4285fcc162bac8f289140bce8e9260001b61488d565b8361016060146101000a81548160ff0219169083151502179055506142117f5983c4bf4fdd38a1b92a53b2c46a2f4c04d4ce693a6a44b62234c3b1ffbda16760001b61488d565b61423d7f695f28a3be37e5983f7a04fe41fe99064e74f9acaef706107d768f53e80290ae60001b61488d565b82610162819055506142717f5acf5d682fc14561edc92a2c5b5a00fbcfcccb99fe515d88ea5205ce8aede75760001b61488d565b61429d7fa65688f38e02d99856d63b0eb6fbcd740885c18f59bb68f1696c5f3b16dbdd2a60001b61488d565b81610161819055505050505050565b7f9f2df0fed2c77648de5860a4cc508cd0818c85b8b8a1ab4ceeef8d981c8956a681565b6142fc7f71797e9064882abd9668f445f6f2f53618dc806e88a843d92fc9cc2ad47574b960001b61488d565b6143287fb8209c50c451987c8975181af614cb3ee6eb22019c6a352b32068f2c9ea8962760001b61488d565b6143547f39649e90badd0d0fad171ce3baf3035a5c67c0e56ad7bf0cfbcc29fbe3f5f50d60001b61488d565b6000801b82141561448b5761438b7f0a3b231bca37cb34779659123f43b9ca60f3372905f05572ceea49203a203d5b60001b61488d565b6143b77f1315669db18cefaf71b33223dbb1bfdb1736a970432f378f5d8430db5a6c370960001b61488d565b6143e37f8bc99f2c183851842a8586ef8b5f707ea39a72626ce6a69f66ec42e79a2ff56260001b61488d565b61440f7fd0e3088661030138ec3e0cfed580a3fd987875a44e71560437d16f9bafc2629e60001b61488d565b600161441a836140a1565b1161445a576040517f08c379a00000000000000000000000000000000000000000000000000000000081526004016144519061690b565b60405180910390fd5b6144867f827ebf6de529ffa742a48b0c242d578f9884177c535c4ae081ce351bf16ec46760001b61488d565b6144b8565b6144b77feef60c6519884f13e3e94ee32e24abad17c17fae5628d73556de17909f501b6860001b61488d565b5b6144e47fef21bca17bc6e5713a769fdcc37dbd66ebb5f0593d442dcce95124897ba1095760001b61488d565b6145107f4ddb2cdf64e9e33969098ae9352415568b0d9afbc296bdb7eedccb37e4a2770a60001b61488d565b61451a82826154b8565b5050565b6101625481565b7f4b8072d94804aa443f85286056c4cb9fda8b35e0a826d9959c80aa89382b0f2681565b6000603460008473ffffffffffffffffffffffffffffffffffffffff1673ffffffffffffffffffffffffffffffffffffffff16815260200190815260200160002060008373ffffffffffffffffffffffffffffffffffffffff1673ffffffffffffffffffffffffffffffffffffffff16815260200190815260200160002054905092915050565b7f65d7a28e3265b37a6474929f336521b332c1681b933f6cb9f3376673440d862a81565b7faee674c6ada01c6d4ee4067d160ffdacc9cc9aba7ca34516f8c9ff75fdc8d72381565b61016060159054906101000a900460ff1681565b60007f7965db0b000000000000000000000000000000000000000000000000000000007bffffffffffffffffffffffffffffffffffffffffffffffffffffffff1916827bffffffffffffffffffffffffffffffffffffffffffffffffffffffff1916148061469f575061469e826154d9565b5b9050919050565b600033905090565b600073ffffffffffffffffffffffffffffffffffffffff168373ffffffffffffffffffffffffffffffffffffffff16141561471e576040517f08c379a000000000000000000000000000000000000000000000000000000000815260040161471590616f47565b60405180910390fd5b600073ffffffffffffffffffffffffffffffffffffffff168273ffffffffffffffffffffffffffffffffffffffff16141561478e576040517f08c379a000000000000000000000000000000000000000000000000000000000815260040161478590616fd9565b60405180910390fd5b80603460008573ffffffffffffffffffffffffffffffffffffffff1673ffffffffffffffffffffffffffffffffffffffff16815260200190815260200160002060008473ffffffffffffffffffffffffffffffffffffffff1673ffffffffffffffffffffffffffffffffffffffff168152602001908152602001600020819055508173ffffffffffffffffffffffffffffffffffffffff168373ffffffffffffffffffffffffffffffffffffffff167f8c5be1e5ebec7d5bd14f71427d1e84f3dd0314c0f7b2291e5b200ac8c7c3b9258360405161486c91906163fb565b60405180910390a3505050565b61488a816148856146a6565b615543565b50565b50565b60006148be7fa97ac07676f439b1136390b545b82c36d62c3bd3ec227670002217c7265bea8a60001b61488d565b6148ea7f31494113b28d1d6b3e2982b56eea1e4c0cfe1f0d6cd904b35ce983075ea4b3da60001b61488d565b6149167fc9e8bd2c1d13f8d4fac9809880fa846f0aed7eda217eee695b6ab0e2b004b64060001b61488d565b6149427f81ef0b1852e9e0b4a5188f289c16027dd1e50196b1e7d560be7a5288adbf2ac260001b61488d565b6000633b9aca00836149549190616da6565b14614994576040517f08c379a000000000000000000000000000000000000000000000000000000000815260040161498b90617045565b60405180910390fd5b6149c07f918811f5e3ba3ae9bde0c964fac1add37e5efcecf4ebe6248d976913748db43660001b61488d565b6149ec7f68c68693ebde930dcae15727f324355225662e8c9f933489be3cd703a8ed221a60001b61488d565b614a187f85b8ef22e627669f15a9268362005e4cc641d4f5bb5756e094fa770f2a28fa9560001b61488d565b61015f54633b9aca0083614a2c9190616a88565b614a369190616ab9565b9050919050565b600073ffffffffffffffffffffffffffffffffffffffff168273ffffffffffffffffffffffffffffffffffffffff161415614aad576040517f08c379a0000000000000000000000000000000000000000000000000000000008152600401614aa4906170b1565b60405180910390fd5b614ab9600083836155c8565b8060356000828254614acb919061692b565b9250508190555080603360008473ffffffffffffffffffffffffffffffffffffffff1673ffffffffffffffffffffffffffffffffffffffff168152602001908152602001600020600082825401925050819055508173ffffffffffffffffffffffffffffffffffffffff16600073ffffffffffffffffffffffffffffffffffffffff167fddf252ad1be2c89b69c2b068fc378daa952ba7f163c4a11628f55a4df523b3ef83604051614b7d91906163fb565b60405180910390a3614b9160008383615898565b5050565b6000614bc37f8af4aa09a3b33a66baa1b3367180f5b134f3f49ca4a22655f7a6018bb219528b60001b61488d565b614bef7f427ffce12713ae75861c750e8ff3f03cc68a150537f27bcf565913c483958ffd60001b61488d565b614c1b7fe28b97e09572736656de1307d65e76ef7f07e9b9e79b76e70aab12c1d6ef362060001b61488d565b838383604051602001614c309392919061715b565b6040516020818303038152906040528051906020012090509392505050565b6000614c5b8484614549565b90507fffffffffffffffffffffffffffffffffffffffffffffffffffffffffffffffff8114614cd55781811015614cc7576040517f08c379a0000000000000000000000000000000000000000000000000000000008152600401614cbe906171e4565b60405180910390fd5b614cd484848484036146ae565b5b50505050565b600073ffffffffffffffffffffffffffffffffffffffff168373ffffffffffffffffffffffffffffffffffffffff161415614d4b576040517f08c379a0000000000000000000000000000000000000000000000000000000008152600401614d4290617276565b60405180910390fd5b600073ffffffffffffffffffffffffffffffffffffffff168273ffffffffffffffffffffffffffffffffffffffff161415614dbb576040517f08c379a0000000000000000000000000000000000000000000000000000000008152600401614db290617308565b60405180910390fd5b614dc68383836155c8565b6000603360008573ffffffffffffffffffffffffffffffffffffffff1673ffffffffffffffffffffffffffffffffffffffff16815260200190815260200160002054905081811015614e4d576040517f08c379a0000000000000000000000000000000000000000000000000000000008152600401614e449061739a565b60405180910390fd5b818103603360008673ffffffffffffffffffffffffffffffffffffffff1673ffffffffffffffffffffffffffffffffffffffff1681526020019081526020016000208190555081603360008573ffffffffffffffffffffffffffffffffffffffff1673ffffffffffffffffffffffffffffffffffffffff168152602001908152602001600020600082825401925050819055508273ffffffffffffffffffffffffffffffffffffffff168473ffffffffffffffffffffffffffffffffffffffff167fddf252ad1be2c89b69c2b068fc378daa952ba7f163c4a11628f55a4df523b3ef84604051614f3d91906163fb565b60405180910390a3614f50848484615898565b50505050565b614f60828261589d565b614f868161012d600085815260200190815260200160002061597e90919063ffffffff16565b505050565b614f936146a6565b73ffffffffffffffffffffffffffffffffffffffff168173ffffffffffffffffffffffffffffffffffffffff1614615000576040517f08c379a0000000000000000000000000000000000000000000000000000000008152600401614ff79061742c565b60405180910390fd5b61500a82826159ae565b5050565b6150166159e3565b6000609760006101000a81548160ff0219169083151502179055507f5db9ee0a495bf2e6ff9c91a7834c1ba4fdd244a5e8aa4e537bd38aeae4b073aa61505a6146a6565b6040516150679190616635565b60405180910390a1565b6000808273ffffffffffffffffffffffffffffffffffffffff163b119050919050565b600060019054906101000a900460ff166150e3576040517f08c379a00000000000000000000000000000000000000000000000000000000081526004016150da906174be565b60405180910390fd5b6150ed8282615a2c565b5050565b600060019054906101000a900460ff16615140576040517f08c379a0000000000000000000000000000000000000000000000000000000008152600401615137906174be565b60405180910390fd5b565b600060019054906101000a900460ff16615191576040517f08c379a0000000000000000000000000000000000000000000000000000000008152600401615188906174be565b60405180910390fd5b615199615aad565b565b600060019054906101000a900460ff166151ea576040517f08c379a00000000000000000000000000000000000000000000000000000000081526004016151e1906174be565b60405180910390fd5b565b6151f68282614f56565b5050565b6000615205836113b6565b90508160fb6000858152602001908152602001600020600101819055508181847fbd79b86ffe0ab8e8776151514217cd7cacd52c909f66475c3af44e129f0b00ff60405160405180910390a4505050565b61525e615b19565b6001609760006101000a81548160ff0219169083151502179055507f62e78cea01bee320cd4e420270b5ea74000d11b0c9f74754ebdbfc544b05a2586152a26146a6565b6040516152af9190616635565b60405180910390a1565b60006152c88360000183615b63565b60001c905092915050565b600073ffffffffffffffffffffffffffffffffffffffff168273ffffffffffffffffffffffffffffffffffffffff161415615343576040517f08c379a000000000000000000000000000000000000000000000000000000000815260040161533a90617550565b60405180910390fd5b61534f826000836155c8565b6000603360008473ffffffffffffffffffffffffffffffffffffffff1673ffffffffffffffffffffffffffffffffffffffff168152602001908152602001600020549050818110156153d6576040517f08c379a00000000000000000000000000000000000000000000000000000000081526004016153cd906175e2565b60405180910390fd5b818103603360008573ffffffffffffffffffffffffffffffffffffffff1673ffffffffffffffffffffffffffffffffffffffff1681526020019081526020016000208190555081603560008282540392505081905550600073ffffffffffffffffffffffffffffffffffffffff168373ffffffffffffffffffffffffffffffffffffffff167fddf252ad1be2c89b69c2b068fc378daa952ba7f163c4a11628f55a4df523b3ef8460405161548a91906163fb565b60405180910390a361549e83600084615898565b505050565b60006154b182600001615b8e565b9050919050565b6154c1826113b6565b6154ca81614879565b6154d483836159ae565b505050565b60007f01ffc9a7000000000000000000000000000000000000000000000000000000007bffffffffffffffffffffffffffffffffffffffffffffffffffffffff1916827bffffffffffffffffffffffffffffffffffffffffffffffffffffffff1916149050919050565b61554d8282612db5565b6155c45761555a81615b9f565b6155688360001c6020615bcc565b6040516020016155799291906176d6565b6040516020818303038152906040526040517f08c379a00000000000000000000000000000000000000000000000000000000081526004016155bb91906162f6565b60405180910390fd5b5050565b6155d0615b19565b6155fc7fd0519ad5d0bff7797ce1e87b6d247c3e5c7c7b32521df3583f47b7c40d816e8660001b61488d565b6156287fb335c0e4e73bfb0367ee1cdad1aafbdeaed892437b995c5c3aa411ca4a74874560001b61488d565b6156547fe61b9b52a668159ce2d245f157d55d44889fa3c4dac9b613a30db5578149a30660001b61488d565b6156807ff2ca89065388d9fe23f14399ec16b5f40aa195b00d0d57559d45a4e87530625360001b61488d565b6156aa7f5edc4fd0544f0b4b53f14f295fb04bbd6fdbc1bea1fd8edf5851b385aee145d584612db5565b156156ea576040517f08c379a00000000000000000000000000000000000000000000000000000000081526004016156e19061775c565b60405180910390fd5b6157167fc402bd3ba97c85402c89e518ca4371150e83c1f71462957fe4957ee6341806e160001b61488d565b6157427f8c948f66e0f82243a520edca97115babe4b485477340e8422680471a1fb4655260001b61488d565b61576e7f5a671a9ef25518ed1613bb63e01a8dc285c4c647f65a735a71aa01610f37f6a160001b61488d565b61579a7f746c3a94488161d33c650b28e50191834a8b8c8a53221beaee06da9f0ddeb9ba60001b61488d565b6157c47f5edc4fd0544f0b4b53f14f295fb04bbd6fdbc1bea1fd8edf5851b385aee145d583612db5565b15615804576040517f08c379a00000000000000000000000000000000000000000000000000000000081526004016157fb906177c8565b60405180910390fd5b6158307fd2e585e1c87e9368cdae49350099776679dc88a63f6b790786df7479caa06c6860001b61488d565b61585c7f7e44539e092f0dc8f5f9842ff980d170c82cc9234b4ec38d503dfdeeb2c69d2660001b61488d565b6158887f1ebec47941351c12226cbbe9f58afb3858122cbe58db7cc44a311f1044964bb160001b61488d565b615893838383615e08565b505050565b505050565b6158a78282612db5565b61597a57600160fb600084815260200190815260200160002060000160008373ffffffffffffffffffffffffffffffffffffffff1673ffffffffffffffffffffffffffffffffffffffff16815260200190815260200160002060006101000a81548160ff02191690831515021790555061591f6146a6565b73ffffffffffffffffffffffffffffffffffffffff168173ffffffffffffffffffffffffffffffffffffffff16837f2f8788117e7eff1d82e926ec794901d17c78024a50270940304540a733656f0d60405160405180910390a45b5050565b60006159a6836000018373ffffffffffffffffffffffffffffffffffffffff1660001b615e0d565b905092915050565b6159b88282615e7d565b6159de8161012d6000858152602001908152602001600020615f5f90919063ffffffff16565b505050565b6159eb612269565b615a2a576040517f08c379a0000000000000000000000000000000000000000000000000000000008152600401615a2190617834565b60405180910390fd5b565b600060019054906101000a900460ff16615a7b576040517f08c379a0000000000000000000000000000000000000000000000000000000008152600401615a72906174be565b60405180910390fd5b8160369080519060200190615a919291906160c6565b508060379080519060200190615aa89291906160c6565b505050565b600060019054906101000a900460ff16615afc576040517f08c379a0000000000000000000000000000000000000000000000000000000008152600401615af3906174be565b60405180910390fd5b6000609760006101000a81548160ff021916908315150217905550565b615b21612269565b15615b61576040517f08c379a0000000000000000000000000000000000000000000000000000000008152600401615b58906178a0565b60405180910390fd5b565b6000826000018281548110615b7b57615b7a6178c0565b5b9060005260206000200154905092915050565b600081600001805490509050919050565b6060615bc58273ffffffffffffffffffffffffffffffffffffffff16601460ff16615bcc565b9050919050565b606060006002836002615bdf9190616ab9565b615be9919061692b565b67ffffffffffffffff811115615c0257615c016178ef565b5b6040519080825280601f01601f191660200182016040528015615c345781602001600182028036833780820191505090505b5090507f300000000000000000000000000000000000000000000000000000000000000081600081518110615c6c57615c6b6178c0565b5b60200101907effffffffffffffffffffffffffffffffffffffffffffffffffffffffffffff1916908160001a9053507f780000000000000000000000000000000000000000000000000000000000000081600181518110615cd057615ccf6178c0565b5b60200101907effffffffffffffffffffffffffffffffffffffffffffffffffffffffffffff1916908160001a90535060006001846002615d109190616ab9565b615d1a919061692b565b90505b6001811115615dba577f3031323334353637383961626364656600000000000000000000000000000000600f861660108110615d5c57615d5b6178c0565b5b1a60f81b828281518110615d7357615d726178c0565b5b60200101907effffffffffffffffffffffffffffffffffffffffffffffffffffffffffffff1916908160001a905350600485901c945080615db39061791e565b9050615d1d565b5060008414615dfe576040517f08c379a0000000000000000000000000000000000000000000000000000000008152600401615df590617994565b60405180910390fd5b8091505092915050565b505050565b6000615e198383615f8f565b615e72578260000182908060018154018082558091505060019003906000526020600020016000909190919091505582600001805490508360010160008481526020019081526020016000208190555060019050615e77565b600090505b92915050565b615e878282612db5565b15615f5b57600060fb600084815260200190815260200160002060000160008373ffffffffffffffffffffffffffffffffffffffff1673ffffffffffffffffffffffffffffffffffffffff16815260200190815260200160002060006101000a81548160ff021916908315150217905550615f006146a6565b73ffffffffffffffffffffffffffffffffffffffff168173ffffffffffffffffffffffffffffffffffffffff16837ff6391f5c32d9c69d2a47ea670b442974b53935d1edc7fd64eb21e047a839171b60405160405180910390a45b5050565b6000615f87836000018373ffffffffffffffffffffffffffffffffffffffff1660001b615fb2565b905092915050565b600080836001016000848152602001908152602001600020541415905092915050565b600080836001016000848152602001908152602001600020549050600081146160ba576000600182615fe4919061681f565b9050600060018660000180549050615ffc919061681f565b905081811461606b57600086600001828154811061601d5761601c6178c0565b5b9060005260206000200154905080876000018481548110616041576160406178c0565b5b90600052602060002001819055508387600101600083815260200190815260200160002081905550505b8560000180548061607f5761607e6179b4565b5b6001900381819060005260206000200160009055905585600101600086815260200190815260200160002060009055600193505050506160c0565b60009150505b92915050565b8280546160d290616752565b90600052602060002090601f0160209004810192826160f4576000855561613b565b82601f1061610d57805160ff191683800117855561613b565b8280016001018555821561613b579182015b8281111561613a57825182559160200191906001019061611f565b5b509050616148919061614c565b5090565b5b8082111561616557600081600090555060010161614d565b5090565b600080fd5b60007fffffffff0000000000000000000000000000000000000000000000000000000082169050919050565b6161a38161616e565b81146161ae57600080fd5b50565b6000813590506161c08161619a565b92915050565b6000602082840312156161dc576161db616169565b5b60006161ea848285016161b1565b91505092915050565b60008115159050919050565b616208816161f3565b82525050565b600060208201905061622360008301846161ff565b92915050565b6000819050919050565b61623c81616229565b82525050565b60006020820190506162576000830184616233565b92915050565b600081519050919050565b600082825260208201905092915050565b60005b8381101561629757808201518184015260208101905061627c565b838111156162a6576000848401525b50505050565b6000601f19601f8301169050919050565b60006162c88261625d565b6162d28185616268565b93506162e2818560208601616279565b6162eb816162ac565b840191505092915050565b6000602082019050818103600083015261631081846162bd565b905092915050565b600073ffffffffffffffffffffffffffffffffffffffff82169050919050565b600061634382616318565b9050919050565b61635381616338565b811461635e57600080fd5b50565b6000813590506163708161634a565b92915050565b6000819050919050565b61638981616376565b811461639457600080fd5b50565b6000813590506163a681616380565b92915050565b600080604083850312156163c3576163c2616169565b5b60006163d185828601616361565b92505060206163e285828601616397565b9150509250929050565b6163f581616376565b82525050565b600060208201905061641060008301846163ec565b92915050565b61641f81616229565b811461642a57600080fd5b50565b60008135905061643c81616416565b92915050565b60008060006060848603121561645b5761645a616169565b5b600061646986828701616361565b935050602061647a86828701616397565b925050604061648b8682870161642d565b9150509250925092565b6000806000606084860312156164ae576164ad616169565b5b60006164bc86828701616361565b93505060206164cd86828701616361565b92505060406164de86828701616397565b9150509250925092565b6000602082840312156164fe576164fd616169565b5b600061650c8482850161642d565b91505092915050565b6000806040838503121561652c5761652b616169565b5b600061653a8582860161642d565b925050602061654b85828601616361565b9150509250929050565b600060ff82169050919050565b61656b81616555565b82525050565b60006020820190506165866000830184616562565b92915050565b6000602082840312156165a2576165a1616169565b5b60006165b084828501616361565b91505092915050565b6000602082840312156165cf576165ce616169565b5b60006165dd84828501616397565b91505092915050565b600080604083850312156165fd576165fc616169565b5b600061660b8582860161642d565b925050602061661c85828601616397565b9150509250929050565b61662f81616338565b82525050565b600060208201905061664a6000830184616626565b92915050565b616659816161f3565b811461666457600080fd5b50565b60008135905061667681616650565b92915050565b6000806000806080858703121561669657616695616169565b5b60006166a487828801616667565b94505060206166b587828801616667565b93505060406166c687828801616397565b92505060606166d787828801616397565b91505092959194509250565b600080604083850312156166fa576166f9616169565b5b600061670885828601616361565b925050602061671985828601616361565b9150509250929050565b7f4e487b7100000000000000000000000000000000000000000000000000000000600052602260045260246000fd5b6000600282049050600182168061676a57607f821691505b6020821081141561677e5761677d616723565b5b50919050565b7f2157686974656c69737400000000000000000000000000000000000000000000600082015250565b60006167ba600a83616268565b91506167c582616784565b602082019050919050565b600060208201905081810360008301526167e9816167ad565b9050919050565b7f4e487b7100000000000000000000000000000000000000000000000000000000600052601160045260246000fd5b600061682a82616376565b915061683583616376565b925082821015616848576168476167f0565b5b828203905092915050565b7f4f6e6c7920726f6c652061646d696e2063616e207265766f6b65000000000000600082015250565b6000616889601a83616268565b915061689482616853565b602082019050919050565b600060208201905081810360008301526168b88161687c565b9050919050565b7f436f6e7472616374207265717569726573206f6e652061646d696e0000000000600082015250565b60006168f5601b83616268565b9150616900826168bf565b602082019050919050565b60006020820190508181036000830152616924816168e8565b9050919050565b600061693682616376565b915061694183616376565b9250827fffffffffffffffffffffffffffffffffffffffffffffffffffffffffffffffff03821115616976576169756167f0565b5b828201905092915050565b7f436f6d6d69746d656e7420636f6f6c646f776e00000000000000000000000000600082015250565b60006169b7601383616268565b91506169c282616981565b602082019050919050565b600060208201905081810360008301526169e6816169aa565b9050919050565b7f5472616e73616374696f6e20616c726561647920717565756564000000000000600082015250565b6000616a23601a83616268565b9150616a2e826169ed565b602082019050919050565b60006020820190508181036000830152616a5281616a16565b9050919050565b7f4e487b7100000000000000000000000000000000000000000000000000000000600052601260045260246000fd5b6000616a9382616376565b9150616a9e83616376565b925082616aae57616aad616a59565b5b828204905092915050565b6000616ac482616376565b9150616acf83616376565b9250817fffffffffffffffffffffffffffffffffffffffffffffffffffffffffffffffff0483118215151615616b0857616b076167f0565b5b828202905092915050565b6000606082019050616b2860008301866163ec565b616b3560208301856163ec565b616b426040830184616626565b949350505050565b7f21436f6d6d69746d656e74000000000000000000000000000000000000000000600082015250565b6000616b80600b83616268565b9150616b8b82616b4a565b602082019050919050565b60006020820190508181036000830152616baf81616b73565b9050919050565b7f496e697469616c697a61626c653a20636f6e747261637420697320616c72656160008201527f647920696e697469616c697a6564000000000000000000000000000000000000602082015250565b6000616c12602e83616268565b9150616c1d82616bb6565b604082019050919050565b60006020820190508181036000830152616c4181616c05565b9050919050565b6000819050919050565b6000819050919050565b6000616c77616c72616c6d84616c48565b616c52565b616555565b9050919050565b616c8781616c5c565b82525050565b6000602082019050616ca26000830184616c7e565b92915050565b7f45524332303a2064656372656173656420616c6c6f77616e63652062656c6f7760008201527f207a65726f000000000000000000000000000000000000000000000000000000602082015250565b6000616d04602583616268565b9150616d0f82616ca8565b604082019050919050565b60006020820190508181036000830152616d3381616cf7565b9050919050565b7f436f6f6c646f776e20686173206e6f742079657420656c617073656400000000600082015250565b6000616d70601c83616268565b9150616d7b82616d3a565b602082019050919050565b60006020820190508181036000830152616d9f81616d63565b9050919050565b6000616db182616376565b9150616dbc83616376565b925082616dcc57616dcb616a59565b5b828206905092915050565b7f5661726961626c652072617465206d75737420626520696e20696e6372656d6560008201527f6e7473206f6620302e3125210000000000000000000000000000000000000000602082015250565b6000616e33602c83616268565b9150616e3e82616dd7565b604082019050919050565b60006020820190508181036000830152616e6281616e26565b9050919050565b7f4e6577205261746520546f6f204c617267650000000000000000000000000000600082015250565b6000616e9f601283616268565b9150616eaa82616e69565b602082019050919050565b60006020820190508181036000830152616ece81616e92565b9050919050565b7f45524332303a20617070726f76652066726f6d20746865207a65726f2061646460008201527f7265737300000000000000000000000000000000000000000000000000000000602082015250565b6000616f31602483616268565b9150616f3c82616ed5565b604082019050919050565b60006020820190508181036000830152616f6081616f24565b9050919050565b7f45524332303a20617070726f766520746f20746865207a65726f20616464726560008201527f7373000000000000000000000000000000000000000000000000000000000000602082015250565b6000616fc3602283616268565b9150616fce82616f67565b604082019050919050565b60006020820190508181036000830152616ff281616fb6565b9050919050565b7f21507265636973696f6e00000000000000000000000000000000000000000000600082015250565b600061702f600a83616268565b915061703a82616ff9565b602082019050919050565b6000602082019050818103600083015261705e81617022565b9050919050565b7f45524332303a206d696e7420746f20746865207a65726f206164647265737300600082015250565b600061709b601f83616268565b91506170a682617065565b602082019050919050565b600060208201905081810360008301526170ca8161708e565b9050919050565b60008160601b9050919050565b60006170e9826170d1565b9050919050565b60006170fb826170de565b9050919050565b61711361710e82616338565b6170f0565b82525050565b6000819050919050565b61713461712f82616376565b617119565b82525050565b6000819050919050565b61715561715082616229565b61713a565b82525050565b60006171678286617102565b6014820191506171778285617123565b6020820191506171878284617144565b602082019150819050949350505050565b7f45524332303a20696e73756666696369656e7420616c6c6f77616e6365000000600082015250565b60006171ce601d83616268565b91506171d982617198565b602082019050919050565b600060208201905081810360008301526171fd816171c1565b9050919050565b7f45524332303a207472616e736665722066726f6d20746865207a65726f20616460008201527f6472657373000000000000000000000000000000000000000000000000000000602082015250565b6000617260602583616268565b915061726b82617204565b604082019050919050565b6000602082019050818103600083015261728f81617253565b9050919050565b7f45524332303a207472616e7366657220746f20746865207a65726f206164647260008201527f6573730000000000000000000000000000000000000000000000000000000000602082015250565b60006172f2602383616268565b91506172fd82617296565b604082019050919050565b60006020820190508181036000830152617321816172e5565b9050919050565b7f45524332303a207472616e7366657220616d6f756e742065786365656473206260008201527f616c616e63650000000000000000000000000000000000000000000000000000602082015250565b6000617384602683616268565b915061738f82617328565b604082019050919050565b600060208201905081810360008301526173b381617377565b9050919050565b7f416363657373436f6e74726f6c3a2063616e206f6e6c792072656e6f756e636560008201527f20726f6c657320666f722073656c660000000000000000000000000000000000602082015250565b6000617416602f83616268565b9150617421826173ba565b604082019050919050565b6000602082019050818103600083015261744581617409565b9050919050565b7f496e697469616c697a61626c653a20636f6e7472616374206973206e6f74206960008201527f6e697469616c697a696e67000000000000000000000000000000000000000000602082015250565b60006174a8602b83616268565b91506174b38261744c565b604082019050919050565b600060208201905081810360008301526174d78161749b565b9050919050565b7f45524332303a206275726e2066726f6d20746865207a65726f2061646472657360008201527f7300000000000000000000000000000000000000000000000000000000000000602082015250565b600061753a602183616268565b9150617545826174de565b604082019050919050565b600060208201905081810360008301526175698161752d565b9050919050565b7f45524332303a206275726e20616d6f756e7420657863656564732062616c616e60008201527f6365000000000000000000000000000000000000000000000000000000000000602082015250565b60006175cc602283616268565b91506175d782617570565b604082019050919050565b600060208201905081810360008301526175fb816175bf565b9050919050565b600081905092915050565b7f416363657373436f6e74726f6c3a206163636f756e7420000000000000000000600082015250565b6000617643601783617602565b915061764e8261760d565b601782019050919050565b60006176648261625d565b61766e8185617602565b935061767e818560208601616279565b80840191505092915050565b7f206973206d697373696e6720726f6c6520000000000000000000000000000000600082015250565b60006176c0601183617602565b91506176cb8261768a565b601182019050919050565b60006176e182617636565b91506176ed8285617659565b91506176f8826176b3565b91506177048284617659565b91508190509392505050565b7f53656e6465722069732063757272656e746c792066726f7a656e2e0000000000600082015250565b6000617746601b83616268565b915061775182617710565b602082019050919050565b6000602082019050818103600083015261777581617739565b9050919050565b7f526563697069656e742069732063757272656e746c792066726f7a656e2e0000600082015250565b60006177b2601e83616268565b91506177bd8261777c565b602082019050919050565b600060208201905081810360008301526177e1816177a5565b9050919050565b7f5061757361626c653a206e6f7420706175736564000000000000000000000000600082015250565b600061781e601483616268565b9150617829826177e8565b602082019050919050565b6000602082019050818103600083015261784d81617811565b9050919050565b7f5061757361626c653a2070617573656400000000000000000000000000000000600082015250565b600061788a601083616268565b915061789582617854565b602082019050919050565b600060208201905081810360008301526178b98161787d565b9050919050565b7f4e487b7100000000000000000000000000000000000000000000000000000000600052603260045260246000fd5b7f4e487b7100000000000000000000000000000000000000000000000000000000600052604160045260246000fd5b600061792982616376565b9150600082141561793d5761793c6167f0565b5b600182039050919050565b7f537472696e67733a20686578206c656e67746820696e73756666696369656e74600082015250565b600061797e602083616268565b915061798982617948565b602082019050919050565b600060208201905081810360008301526179ad81617971565b9050919050565b7f4e487b7100000000000000000000000000000000000000000000000000000000600052603160045260246000fdfea264697066735822122006259bb1486d9ae9c646d3040b4da62b965f10f03adc911048b038dbd40faa7264736f6c634300080b0033","opcodes":"PUSH1 0x80 PUSH1 0x40 MSTORE CALLVALUE DUP1 ISZERO PUSH2 0x10 JUMPI PUSH1 0x0 DUP1 REVERT JUMPDEST POP PUSH2 0x7A19 DUP1 PUSH3 0x21 PUSH1 0x0 CODECOPY PUSH1 0x0 RETURN INVALID PUSH1 0x80 PUSH1 0x40 MSTORE CALLVALUE DUP1 ISZERO PUSH2 0x10 JUMPI PUSH1 0x0 DUP1 REVERT JUMPDEST POP PUSH1 0x4 CALLDATASIZE LT PUSH2 0x30C JUMPI PUSH1 0x0 CALLDATALOAD PUSH1 0xE0 SHR DUP1 PUSH4 0x79CC6790 GT PUSH2 0x19D JUMPI DUP1 PUSH4 0xAAC41DAC GT PUSH2 0xE9 JUMPI DUP1 PUSH4 0xD547741F GT PUSH2 0xA2 JUMPI DUP1 PUSH4 0xDD62ED3E GT PUSH2 0x7C JUMPI DUP1 PUSH4 0xDD62ED3E EQ PUSH2 0x957 JUMPI DUP1 PUSH4 0xE63AB1E9 EQ PUSH2 0x987 JUMPI DUP1 PUSH4 0xF34B3079 EQ PUSH2 0x9A5 JUMPI DUP1 PUSH4 0xFC5C69BA EQ PUSH2 0x9C3 JUMPI PUSH2 0x30C JUMP JUMPDEST DUP1 PUSH4 0xD547741F EQ PUSH2 0x8FF JUMPI DUP1 PUSH4 0xD911E39B EQ PUSH2 0x91B JUMPI DUP1 PUSH4 0xDC59E8C7 EQ PUSH2 0x939 JUMPI PUSH2 0x30C JUMP JUMPDEST DUP1 PUSH4 0xAAC41DAC EQ PUSH2 0x83F JUMPI DUP1 PUSH4 0xAFE45F87 EQ PUSH2 0x85B JUMPI DUP1 PUSH4 0xBD254D4C EQ PUSH2 0x879 JUMPI DUP1 PUSH4 0xCA15C873 EQ PUSH2 0x895 JUMPI DUP1 PUSH4 0xCC5907E1 EQ PUSH2 0x8C5 JUMPI DUP1 PUSH4 0xD5391393 EQ PUSH2 0x8E1 JUMPI PUSH2 0x30C JUMP JUMPDEST DUP1 PUSH4 0x95D89B41 GT PUSH2 0x156 JUMPI DUP1 PUSH4 0xA457C2D7 GT PUSH2 0x130 JUMPI DUP1 PUSH4 0xA457C2D7 EQ PUSH2 0x7A5 JUMPI DUP1 PUSH4 0xA5835670 EQ PUSH2 0x7D5 JUMPI DUP1 PUSH4 0xA9059CBB EQ PUSH2 0x7F3 JUMPI DUP1 PUSH4 0xA9EEBDB1 EQ PUSH2 0x823 JUMPI PUSH2 0x30C JUMP JUMPDEST DUP1 PUSH4 0x95D89B41 EQ PUSH2 0x74D JUMPI DUP1 PUSH4 0xA217FDDF EQ PUSH2 0x76B JUMPI DUP1 PUSH4 0xA42DCE80 EQ PUSH2 0x789 JUMPI PUSH2 0x30C JUMP JUMPDEST DUP1 PUSH4 0x79CC6790 EQ PUSH2 0x69F JUMPI DUP1 PUSH4 0x8129FC1C EQ PUSH2 0x6BB JUMPI DUP1 PUSH4 0x8456CB59 EQ PUSH2 0x6C5 JUMPI DUP1 PUSH4 0x866006A6 EQ PUSH2 0x6CF JUMPI DUP1 PUSH4 0x9010D07C EQ PUSH2 0x6ED JUMPI DUP1 PUSH4 0x91D14854 EQ PUSH2 0x71D JUMPI PUSH2 0x30C JUMP JUMPDEST DUP1 PUSH4 0x3606EF3C GT PUSH2 0x25C JUMPI DUP1 PUSH4 0x54EDC8F5 GT PUSH2 0x215 JUMPI DUP1 PUSH4 0x5C975ABB GT PUSH2 0x1EF JUMPI DUP1 PUSH4 0x5C975ABB EQ PUSH2 0x617 JUMPI DUP1 PUSH4 0x6C6B65DE EQ PUSH2 0x635 JUMPI DUP1 PUSH4 0x6CEA8372 EQ PUSH2 0x651 JUMPI DUP1 PUSH4 0x70A08231 EQ PUSH2 0x66F JUMPI PUSH2 0x30C JUMP JUMPDEST DUP1 PUSH4 0x54EDC8F5 EQ PUSH2 0x599 JUMPI DUP1 PUSH4 0x5502F287 EQ PUSH2 0x5C9 JUMPI DUP1 PUSH4 0x571CC1AA EQ PUSH2 0x5E7 JUMPI PUSH2 0x30C JUMP JUMPDEST DUP1 PUSH4 0x3606EF3C EQ PUSH2 0x4DB JUMPI DUP1 PUSH4 0x36568ABE EQ PUSH2 0x50B JUMPI DUP1 PUSH4 0x39509351 EQ PUSH2 0x527 JUMPI DUP1 PUSH4 0x3F4BA83A EQ PUSH2 0x557 JUMPI DUP1 PUSH4 0x42966C68 EQ PUSH2 0x561 JUMPI DUP1 PUSH4 0x4670BB6C EQ PUSH2 0x57D JUMPI PUSH2 0x30C JUMP JUMPDEST DUP1 PUSH4 0x23B872DD GT PUSH2 0x2C9 JUMPI DUP1 PUSH4 0x282C51F3 GT PUSH2 0x2A3 JUMPI DUP1 PUSH4 0x282C51F3 EQ PUSH2 0x465 JUMPI DUP1 PUSH4 0x2F2FF15D EQ PUSH2 0x483 JUMPI DUP1 PUSH4 0x2FE94DEF EQ PUSH2 0x49F JUMPI DUP1 PUSH4 0x313CE567 EQ PUSH2 0x4BD JUMPI PUSH2 0x30C JUMP JUMPDEST DUP1 PUSH4 0x23B872DD EQ PUSH2 0x3E7 JUMPI DUP1 PUSH4 0x248A9CA3 EQ PUSH2 0x417 JUMPI DUP1 PUSH4 0x24E0D460 EQ PUSH2 0x447 JUMPI PUSH2 0x30C JUMP JUMPDEST DUP1 PUSH4 0x1FFC9A7 EQ PUSH2 0x311 JUMPI DUP1 PUSH4 0x6A85F0F EQ PUSH2 0x341 JUMPI DUP1 PUSH4 0x6FDDE03 EQ PUSH2 0x35F JUMPI DUP1 PUSH4 0x95EA7B3 EQ PUSH2 0x37D JUMPI DUP1 PUSH4 0x18160DDD EQ PUSH2 0x3AD JUMPI DUP1 PUSH4 0x1E458BEE EQ PUSH2 0x3CB JUMPI JUMPDEST PUSH1 0x0 DUP1 REVERT JUMPDEST PUSH2 0x32B PUSH1 0x4 DUP1 CALLDATASIZE SUB DUP2 ADD SWAP1 PUSH2 0x326 SWAP2 SWAP1 PUSH2 0x61C6 JUMP JUMPDEST PUSH2 0x9E1 JUMP JUMPDEST PUSH1 0x40 MLOAD PUSH2 0x338 SWAP2 SWAP1 PUSH2 0x620E JUMP JUMPDEST PUSH1 0x40 MLOAD DUP1 SWAP2 SUB SWAP1 RETURN JUMPDEST PUSH2 0x349 PUSH2 0xA5B JUMP JUMPDEST PUSH1 0x40 MLOAD PUSH2 0x356 SWAP2 SWAP1 PUSH2 0x6242 JUMP JUMPDEST PUSH1 0x40 MLOAD DUP1 SWAP2 SUB SWAP1 RETURN JUMPDEST PUSH2 0x367 PUSH2 0xA7F JUMP JUMPDEST PUSH1 0x40 MLOAD PUSH2 0x374 SWAP2 SWAP1 PUSH2 0x62F6 JUMP JUMPDEST PUSH1 0x40 MLOAD DUP1 SWAP2 SUB SWAP1 RETURN JUMPDEST PUSH2 0x397 PUSH1 0x4 DUP1 CALLDATASIZE SUB DUP2 ADD SWAP1 PUSH2 0x392 SWAP2 SWAP1 PUSH2 0x63AC JUMP JUMPDEST PUSH2 0xB11 JUMP JUMPDEST PUSH1 0x40 MLOAD PUSH2 0x3A4 SWAP2 SWAP1 PUSH2 0x620E JUMP JUMPDEST PUSH1 0x40 MLOAD DUP1 SWAP2 SUB SWAP1 RETURN JUMPDEST PUSH2 0x3B5 PUSH2 0xB34 JUMP JUMPDEST PUSH1 0x40 MLOAD PUSH2 0x3C2 SWAP2 SWAP1 PUSH2 0x63FB JUMP JUMPDEST PUSH1 0x40 MLOAD DUP1 SWAP2 SUB SWAP1 RETURN JUMPDEST PUSH2 0x3E5 PUSH1 0x4 DUP1 CALLDATASIZE SUB DUP2 ADD SWAP1 PUSH2 0x3E0 SWAP2 SWAP1 PUSH2 0x6442 JUMP JUMPDEST PUSH2 0xB3E JUMP JUMPDEST STOP JUMPDEST PUSH2 0x401 PUSH1 0x4 DUP1 CALLDATASIZE SUB DUP2 ADD SWAP1 PUSH2 0x3FC SWAP2 SWAP1 PUSH2 0x6495 JUMP JUMPDEST PUSH2 0x1387 JUMP JUMPDEST PUSH1 0x40 MLOAD PUSH2 0x40E SWAP2 SWAP1 PUSH2 0x620E JUMP JUMPDEST PUSH1 0x40 MLOAD DUP1 SWAP2 SUB SWAP1 RETURN JUMPDEST PUSH2 0x431 PUSH1 0x4 DUP1 CALLDATASIZE SUB DUP2 ADD SWAP1 PUSH2 0x42C SWAP2 SWAP1 PUSH2 0x64E8 JUMP JUMPDEST PUSH2 0x13B6 JUMP JUMPDEST PUSH1 0x40 MLOAD PUSH2 0x43E SWAP2 SWAP1 PUSH2 0x6242 JUMP JUMPDEST PUSH1 0x40 MLOAD DUP1 SWAP2 SUB SWAP1 RETURN JUMPDEST PUSH2 0x44F PUSH2 0x13D6 JUMP JUMPDEST PUSH1 0x40 MLOAD PUSH2 0x45C SWAP2 SWAP1 PUSH2 0x63FB JUMP JUMPDEST PUSH1 0x40 MLOAD DUP1 SWAP2 SUB SWAP1 RETURN JUMPDEST PUSH2 0x46D PUSH2 0x13DD JUMP JUMPDEST PUSH1 0x40 MLOAD PUSH2 0x47A SWAP2 SWAP1 PUSH2 0x6242 JUMP JUMPDEST PUSH1 0x40 MLOAD DUP1 SWAP2 SUB SWAP1 RETURN JUMPDEST PUSH2 0x49D PUSH1 0x4 DUP1 CALLDATASIZE SUB DUP2 ADD SWAP1 PUSH2 0x498 SWAP2 SWAP1 PUSH2 0x6515 JUMP JUMPDEST PUSH2 0x1401 JUMP JUMPDEST STOP JUMPDEST PUSH2 0x4A7 PUSH2 0x1422 JUMP JUMPDEST PUSH1 0x40 MLOAD PUSH2 0x4B4 SWAP2 SWAP1 PUSH2 0x6242 JUMP JUMPDEST PUSH1 0x40 MLOAD DUP1 SWAP2 SUB SWAP1 RETURN JUMPDEST PUSH2 0x4C5 PUSH2 0x1446 JUMP JUMPDEST PUSH1 0x40 MLOAD PUSH2 0x4D2 SWAP2 SWAP1 PUSH2 0x6571 JUMP JUMPDEST PUSH1 0x40 MLOAD DUP1 SWAP2 SUB SWAP1 RETURN JUMPDEST PUSH2 0x4F5 PUSH1 0x4 DUP1 CALLDATASIZE SUB DUP2 ADD SWAP1 PUSH2 0x4F0 SWAP2 SWAP1 PUSH2 0x658C JUMP JUMPDEST PUSH2 0x144F JUMP JUMPDEST PUSH1 0x40 MLOAD PUSH2 0x502 SWAP2 SWAP1 PUSH2 0x63FB JUMP JUMPDEST PUSH1 0x40 MLOAD DUP1 SWAP2 SUB SWAP1 RETURN JUMPDEST PUSH2 0x525 PUSH1 0x4 DUP1 CALLDATASIZE SUB DUP2 ADD SWAP1 PUSH2 0x520 SWAP2 SWAP1 PUSH2 0x6515 JUMP JUMPDEST PUSH2 0x1468 JUMP JUMPDEST STOP JUMPDEST PUSH2 0x541 PUSH1 0x4 DUP1 CALLDATASIZE SUB DUP2 ADD SWAP1 PUSH2 0x53C SWAP2 SWAP1 PUSH2 0x63AC JUMP JUMPDEST PUSH2 0x18AD JUMP JUMPDEST PUSH1 0x40 MLOAD PUSH2 0x54E SWAP2 SWAP1 PUSH2 0x620E JUMP JUMPDEST PUSH1 0x40 MLOAD DUP1 SWAP2 SUB SWAP1 RETURN JUMPDEST PUSH2 0x55F PUSH2 0x18E4 JUMP JUMPDEST STOP JUMPDEST PUSH2 0x57B PUSH1 0x4 DUP1 CALLDATASIZE SUB DUP2 ADD SWAP1 PUSH2 0x576 SWAP2 SWAP1 PUSH2 0x65B9 JUMP JUMPDEST PUSH2 0x199D JUMP JUMPDEST STOP JUMPDEST PUSH2 0x597 PUSH1 0x4 DUP1 CALLDATASIZE SUB DUP2 ADD SWAP1 PUSH2 0x592 SWAP2 SWAP1 PUSH2 0x6442 JUMP JUMPDEST PUSH2 0x1A26 JUMP JUMPDEST STOP JUMPDEST PUSH2 0x5B3 PUSH1 0x4 DUP1 CALLDATASIZE SUB DUP2 ADD SWAP1 PUSH2 0x5AE SWAP2 SWAP1 PUSH2 0x64E8 JUMP JUMPDEST PUSH2 0x2192 JUMP JUMPDEST PUSH1 0x40 MLOAD PUSH2 0x5C0 SWAP2 SWAP1 PUSH2 0x63FB JUMP JUMPDEST PUSH1 0x40 MLOAD DUP1 SWAP2 SUB SWAP1 RETURN JUMPDEST PUSH2 0x5D1 PUSH2 0x21AB JUMP JUMPDEST PUSH1 0x40 MLOAD PUSH2 0x5DE SWAP2 SWAP1 PUSH2 0x6242 JUMP JUMPDEST PUSH1 0x40 MLOAD DUP1 SWAP2 SUB SWAP1 RETURN JUMPDEST PUSH2 0x601 PUSH1 0x4 DUP1 CALLDATASIZE SUB DUP2 ADD SWAP1 PUSH2 0x5FC SWAP2 SWAP1 PUSH2 0x6442 JUMP JUMPDEST PUSH2 0x21CF JUMP JUMPDEST PUSH1 0x40 MLOAD PUSH2 0x60E SWAP2 SWAP1 PUSH2 0x6242 JUMP JUMPDEST PUSH1 0x40 MLOAD DUP1 SWAP2 SUB SWAP1 RETURN JUMPDEST PUSH2 0x61F PUSH2 0x2269 JUMP JUMPDEST PUSH1 0x40 MLOAD PUSH2 0x62C SWAP2 SWAP1 PUSH2 0x620E JUMP JUMPDEST PUSH1 0x40 MLOAD DUP1 SWAP2 SUB SWAP1 RETURN JUMPDEST PUSH2 0x64F PUSH1 0x4 DUP1 CALLDATASIZE SUB DUP2 ADD SWAP1 PUSH2 0x64A SWAP2 SWAP1 PUSH2 0x6442 JUMP JUMPDEST PUSH2 0x2280 JUMP JUMPDEST STOP JUMPDEST PUSH2 0x659 PUSH2 0x258A JUMP JUMPDEST PUSH1 0x40 MLOAD PUSH2 0x666 SWAP2 SWAP1 PUSH2 0x63FB JUMP JUMPDEST PUSH1 0x40 MLOAD DUP1 SWAP2 SUB SWAP1 RETURN JUMPDEST PUSH2 0x689 PUSH1 0x4 DUP1 CALLDATASIZE SUB DUP2 ADD SWAP1 PUSH2 0x684 SWAP2 SWAP1 PUSH2 0x658C JUMP JUMPDEST PUSH2 0x2591 JUMP JUMPDEST PUSH1 0x40 MLOAD PUSH2 0x696 SWAP2 SWAP1 PUSH2 0x63FB JUMP JUMPDEST PUSH1 0x40 MLOAD DUP1 SWAP2 SUB SWAP1 RETURN JUMPDEST PUSH2 0x6B9 PUSH1 0x4 DUP1 CALLDATASIZE SUB DUP2 ADD SWAP1 PUSH2 0x6B4 SWAP2 SWAP1 PUSH2 0x63AC JUMP JUMPDEST PUSH2 0x25DA JUMP JUMPDEST STOP JUMPDEST PUSH2 0x6C3 PUSH2 0x2663 JUMP JUMPDEST STOP JUMPDEST PUSH2 0x6CD PUSH2 0x2CC4 JUMP JUMPDEST STOP JUMPDEST PUSH2 0x6D7 PUSH2 0x2D7D JUMP JUMPDEST PUSH1 0x40 MLOAD PUSH2 0x6E4 SWAP2 SWAP1 PUSH2 0x63FB JUMP JUMPDEST PUSH1 0x40 MLOAD DUP1 SWAP2 SUB SWAP1 RETURN JUMPDEST PUSH2 0x707 PUSH1 0x4 DUP1 CALLDATASIZE SUB DUP2 ADD SWAP1 PUSH2 0x702 SWAP2 SWAP1 PUSH2 0x65E6 JUMP JUMPDEST PUSH2 0x2D85 JUMP JUMPDEST PUSH1 0x40 MLOAD PUSH2 0x714 SWAP2 SWAP1 PUSH2 0x6635 JUMP JUMPDEST PUSH1 0x40 MLOAD DUP1 SWAP2 SUB SWAP1 RETURN JUMPDEST PUSH2 0x737 PUSH1 0x4 DUP1 CALLDATASIZE SUB DUP2 ADD SWAP1 PUSH2 0x732 SWAP2 SWAP1 PUSH2 0x6515 JUMP JUMPDEST PUSH2 0x2DB5 JUMP JUMPDEST PUSH1 0x40 MLOAD PUSH2 0x744 SWAP2 SWAP1 PUSH2 0x620E JUMP JUMPDEST PUSH1 0x40 MLOAD DUP1 SWAP2 SUB SWAP1 RETURN JUMPDEST PUSH2 0x755 PUSH2 0x2E20 JUMP JUMPDEST PUSH1 0x40 MLOAD PUSH2 0x762 SWAP2 SWAP1 PUSH2 0x62F6 JUMP JUMPDEST PUSH1 0x40 MLOAD DUP1 SWAP2 SUB SWAP1 RETURN JUMPDEST PUSH2 0x773 PUSH2 0x2EB2 JUMP JUMPDEST PUSH1 0x40 MLOAD PUSH2 0x780 SWAP2 SWAP1 PUSH2 0x6242 JUMP JUMPDEST PUSH1 0x40 MLOAD DUP1 SWAP2 SUB SWAP1 RETURN JUMPDEST PUSH2 0x7A3 PUSH1 0x4 DUP1 CALLDATASIZE SUB DUP2 ADD SWAP1 PUSH2 0x79E SWAP2 SWAP1 PUSH2 0x658C JUMP JUMPDEST PUSH2 0x2EB9 JUMP JUMPDEST STOP JUMPDEST PUSH2 0x7BF PUSH1 0x4 DUP1 CALLDATASIZE SUB DUP2 ADD SWAP1 PUSH2 0x7BA SWAP2 SWAP1 PUSH2 0x63AC JUMP JUMPDEST PUSH2 0x2FAD JUMP JUMPDEST PUSH1 0x40 MLOAD PUSH2 0x7CC SWAP2 SWAP1 PUSH2 0x620E JUMP JUMPDEST PUSH1 0x40 MLOAD DUP1 SWAP2 SUB SWAP1 RETURN JUMPDEST PUSH2 0x7DD PUSH2 0x3024 JUMP JUMPDEST PUSH1 0x40 MLOAD PUSH2 0x7EA SWAP2 SWAP1 PUSH2 0x620E JUMP JUMPDEST PUSH1 0x40 MLOAD DUP1 SWAP2 SUB SWAP1 RETURN JUMPDEST PUSH2 0x80D PUSH1 0x4 DUP1 CALLDATASIZE SUB DUP2 ADD SWAP1 PUSH2 0x808 SWAP2 SWAP1 PUSH2 0x63AC JUMP JUMPDEST PUSH2 0x3038 JUMP JUMPDEST PUSH1 0x40 MLOAD PUSH2 0x81A SWAP2 SWAP1 PUSH2 0x620E JUMP JUMPDEST PUSH1 0x40 MLOAD DUP1 SWAP2 SUB SWAP1 RETURN JUMPDEST PUSH2 0x83D PUSH1 0x4 DUP1 CALLDATASIZE SUB DUP2 ADD SWAP1 PUSH2 0x838 SWAP2 SWAP1 PUSH2 0x6442 JUMP JUMPDEST PUSH2 0x305B JUMP JUMPDEST STOP JUMPDEST PUSH2 0x859 PUSH1 0x4 DUP1 CALLDATASIZE SUB DUP2 ADD SWAP1 PUSH2 0x854 SWAP2 SWAP1 PUSH2 0x6442 JUMP JUMPDEST PUSH2 0x354A JUMP JUMPDEST STOP JUMPDEST PUSH2 0x863 PUSH2 0x3DC8 JUMP JUMPDEST PUSH1 0x40 MLOAD PUSH2 0x870 SWAP2 SWAP1 PUSH2 0x6635 JUMP JUMPDEST PUSH1 0x40 MLOAD DUP1 SWAP2 SUB SWAP1 RETURN JUMPDEST PUSH2 0x893 PUSH1 0x4 DUP1 CALLDATASIZE SUB DUP2 ADD SWAP1 PUSH2 0x88E SWAP2 SWAP1 PUSH2 0x65B9 JUMP JUMPDEST PUSH2 0x3DEF JUMP JUMPDEST STOP JUMPDEST PUSH2 0x8AF PUSH1 0x4 DUP1 CALLDATASIZE SUB DUP2 ADD SWAP1 PUSH2 0x8AA SWAP2 SWAP1 PUSH2 0x64E8 JUMP JUMPDEST PUSH2 0x40A1 JUMP JUMPDEST PUSH1 0x40 MLOAD PUSH2 0x8BC SWAP2 SWAP1 PUSH2 0x63FB JUMP JUMPDEST PUSH1 0x40 MLOAD DUP1 SWAP2 SUB SWAP1 RETURN JUMPDEST PUSH2 0x8DF PUSH1 0x4 DUP1 CALLDATASIZE SUB DUP2 ADD SWAP1 PUSH2 0x8DA SWAP2 SWAP1 PUSH2 0x667C JUMP JUMPDEST PUSH2 0x40C6 JUMP JUMPDEST STOP JUMPDEST PUSH2 0x8E9 PUSH2 0x42AC JUMP JUMPDEST PUSH1 0x40 MLOAD PUSH2 0x8F6 SWAP2 SWAP1 PUSH2 0x6242 JUMP JUMPDEST PUSH1 0x40 MLOAD DUP1 SWAP2 SUB SWAP1 RETURN JUMPDEST PUSH2 0x919 PUSH1 0x4 DUP1 CALLDATASIZE SUB DUP2 ADD SWAP1 PUSH2 0x914 SWAP2 SWAP1 PUSH2 0x6515 JUMP JUMPDEST PUSH2 0x42D0 JUMP JUMPDEST STOP JUMPDEST PUSH2 0x923 PUSH2 0x451E JUMP JUMPDEST PUSH1 0x40 MLOAD PUSH2 0x930 SWAP2 SWAP1 PUSH2 0x63FB JUMP JUMPDEST PUSH1 0x40 MLOAD DUP1 SWAP2 SUB SWAP1 RETURN JUMPDEST PUSH2 0x941 PUSH2 0x4525 JUMP JUMPDEST PUSH1 0x40 MLOAD PUSH2 0x94E SWAP2 SWAP1 PUSH2 0x6242 JUMP JUMPDEST PUSH1 0x40 MLOAD DUP1 SWAP2 SUB SWAP1 RETURN JUMPDEST PUSH2 0x971 PUSH1 0x4 DUP1 CALLDATASIZE SUB DUP2 ADD SWAP1 PUSH2 0x96C SWAP2 SWAP1 PUSH2 0x66E3 JUMP JUMPDEST PUSH2 0x4549 JUMP JUMPDEST PUSH1 0x40 MLOAD PUSH2 0x97E SWAP2 SWAP1 PUSH2 0x63FB JUMP JUMPDEST PUSH1 0x40 MLOAD DUP1 SWAP2 SUB SWAP1 RETURN JUMPDEST PUSH2 0x98F PUSH2 0x45D0 JUMP JUMPDEST PUSH1 0x40 MLOAD PUSH2 0x99C SWAP2 SWAP1 PUSH2 0x6242 JUMP JUMPDEST PUSH1 0x40 MLOAD DUP1 SWAP2 SUB SWAP1 RETURN JUMPDEST PUSH2 0x9AD PUSH2 0x45F4 JUMP JUMPDEST PUSH1 0x40 MLOAD PUSH2 0x9BA SWAP2 SWAP1 PUSH2 0x6242 JUMP JUMPDEST PUSH1 0x40 MLOAD DUP1 SWAP2 SUB SWAP1 RETURN JUMPDEST PUSH2 0x9CB PUSH2 0x4618 JUMP JUMPDEST PUSH1 0x40 MLOAD PUSH2 0x9D8 SWAP2 SWAP1 PUSH2 0x620E JUMP JUMPDEST PUSH1 0x40 MLOAD DUP1 SWAP2 SUB SWAP1 RETURN JUMPDEST PUSH1 0x0 PUSH32 0x5A05180F00000000000000000000000000000000000000000000000000000000 PUSH28 0xFFFFFFFFFFFFFFFFFFFFFFFFFFFFFFFFFFFFFFFFFFFFFFFFFFFFFFFF NOT AND DUP3 PUSH28 0xFFFFFFFFFFFFFFFFFFFFFFFFFFFFFFFFFFFFFFFFFFFFFFFFFFFFFFFF NOT AND EQ DUP1 PUSH2 0xA54 JUMPI POP PUSH2 0xA53 DUP3 PUSH2 0x462C JUMP JUMPDEST JUMPDEST SWAP1 POP SWAP2 SWAP1 POP JUMP JUMPDEST PUSH32 0x92DE27771F92D6942691D73358B3A4673E4880DE8356F8F2CF452BE87E02D363 DUP2 JUMP JUMPDEST PUSH1 0x60 PUSH1 0x36 DUP1 SLOAD PUSH2 0xA8E SWAP1 PUSH2 0x6752 JUMP JUMPDEST DUP1 PUSH1 0x1F ADD PUSH1 0x20 DUP1 SWAP2 DIV MUL PUSH1 0x20 ADD PUSH1 0x40 MLOAD SWAP1 DUP2 ADD PUSH1 0x40 MSTORE DUP1 SWAP3 SWAP2 SWAP1 DUP2 DUP2 MSTORE PUSH1 0x20 ADD DUP3 DUP1 SLOAD PUSH2 0xABA SWAP1 PUSH2 0x6752 JUMP JUMPDEST DUP1 ISZERO PUSH2 0xB07 JUMPI DUP1 PUSH1 0x1F LT PUSH2 0xADC JUMPI PUSH2 0x100 DUP1 DUP4 SLOAD DIV MUL DUP4 MSTORE SWAP2 PUSH1 0x20 ADD SWAP2 PUSH2 0xB07 JUMP JUMPDEST DUP3 ADD SWAP2 SWAP1 PUSH1 0x0 MSTORE PUSH1 0x20 PUSH1 0x0 KECCAK256 SWAP1 JUMPDEST DUP2 SLOAD DUP2 MSTORE SWAP1 PUSH1 0x1 ADD SWAP1 PUSH1 0x20 ADD DUP1 DUP4 GT PUSH2 0xAEA JUMPI DUP3 SWAP1 SUB PUSH1 0x1F AND DUP3 ADD SWAP2 JUMPDEST POP POP POP POP POP SWAP1 POP SWAP1 JUMP JUMPDEST PUSH1 0x0 DUP1 PUSH2 0xB1C PUSH2 0x46A6 JUMP JUMPDEST SWAP1 POP PUSH2 0xB29 DUP2 DUP6 DUP6 PUSH2 0x46AE JUMP JUMPDEST PUSH1 0x1 SWAP2 POP POP SWAP3 SWAP2 POP POP JUMP JUMPDEST PUSH1 0x0 PUSH1 0x35 SLOAD SWAP1 POP SWAP1 JUMP JUMPDEST PUSH32 0x9F2DF0FED2C77648DE5860A4CC508CD0818C85B8B8A1AB4CEEEF8D981C8956A6 PUSH2 0xB68 DUP2 PUSH2 0x4879 JUMP JUMPDEST DUP4 PUSH2 0xB95 PUSH32 0xFA690EBE8614D334661B6D0ED5ADC472D493CC3C2DAB844A0320C9543DD11D08 PUSH1 0x0 SHL PUSH2 0x488D JUMP JUMPDEST PUSH2 0xBC1 PUSH32 0xB39EF8EAD78DF65C33F9B2EA315A7FEE441DC5136C61CE77F537A2F8858445A3 PUSH1 0x0 SHL PUSH2 0x488D JUMP JUMPDEST PUSH2 0xBED PUSH32 0xCA62C6EB42840D4CBDE97647689AE2CF9097F809E2D506459B7DE1085BD8F569 PUSH1 0x0 SHL PUSH2 0x488D JUMP JUMPDEST PUSH2 0xC19 PUSH32 0xB02BA62969FAE017DCDFC16EB38FE7D93CA96C7A69B1B3A71260583584B1A30B PUSH1 0x0 SHL PUSH2 0x488D JUMP JUMPDEST PUSH2 0xC43 PUSH32 0xAEE674C6ADA01C6D4EE4067D160FFDACC9CC9ABA7CA34516F8C9FF75FDC8D723 DUP3 PUSH2 0x2DB5 JUMP JUMPDEST PUSH2 0xC82 JUMPI PUSH1 0x40 MLOAD PUSH32 0x8C379A000000000000000000000000000000000000000000000000000000000 DUP2 MSTORE PUSH1 0x4 ADD PUSH2 0xC79 SWAP1 PUSH2 0x67D0 JUMP JUMPDEST PUSH1 0x40 MLOAD DUP1 SWAP2 SUB SWAP1 REVERT JUMPDEST PUSH2 0xCAE PUSH32 0xABFB0FEF4655E8D90307725E1ADAAFC3B889E683C47CC14E4DEC7ED90E872CAE PUSH1 0x0 SHL PUSH2 0x488D JUMP JUMPDEST PUSH2 0xCDA PUSH32 0x3FF8571BAFE64987C8C7BA35EFE0FE175C057A3CD33F231FD8D546D88F22C9F7 PUSH1 0x0 SHL PUSH2 0x488D JUMP JUMPDEST PUSH2 0xD06 PUSH32 0x3D7EAA20A41718EA7A1A38D96A5EDCB94EC9550FC9F36287D4A645645294ED8A PUSH1 0x0 SHL PUSH2 0x488D JUMP JUMPDEST PUSH2 0xD32 PUSH32 0x39DAF4B1879EFDAAED66966BBB325A94CFF2F275F1A651F010A3036DAE6A0EDC PUSH1 0x0 SHL PUSH2 0x488D JUMP JUMPDEST PUSH2 0xD5E PUSH32 0x136054FDBF446B6683617F55CB60A99562C9F12075FF1289A5E184CA3C41635F PUSH1 0x0 SHL PUSH2 0x488D JUMP JUMPDEST PUSH1 0x0 PUSH2 0xD8C PUSH32 0xCBE64A36CBBB94257DBF8DFA7314ADA006B4F3C6F5B70BFB83F237DF00553AD9 PUSH1 0x0 SHL PUSH2 0x488D JUMP JUMPDEST PUSH2 0xDB8 PUSH32 0xB97903A505EB3833DA46D8933E8834EB080BF5C827DD94413E7B2A0CD2017505 PUSH1 0x0 SHL PUSH2 0x488D JUMP JUMPDEST PUSH1 0x1 ISZERO ISZERO PUSH2 0x160 PUSH1 0x14 SWAP1 SLOAD SWAP1 PUSH2 0x100 EXP SWAP1 DIV PUSH1 0xFF AND ISZERO ISZERO EQ PUSH2 0xE68 JUMPI PUSH2 0xE00 PUSH32 0x34053E39D06B7DEB30B2F88A36DABCA8EFB6BEF7639157936E532CE63B53D33F PUSH1 0x0 SHL PUSH2 0x488D JUMP JUMPDEST PUSH2 0xE2C PUSH32 0x4835CCBB5F360BD1228E76A821B5F652A34F94C3CD76F40BD9E9083E94A11AB1 PUSH1 0x0 SHL PUSH2 0x488D JUMP JUMPDEST PUSH2 0xE58 PUSH32 0xF458DDC5C79071831546CE79365F97B6ADA1BDF36890F476DF0B5D54FCC99B3C PUSH1 0x0 SHL PUSH2 0x488D JUMP JUMPDEST PUSH2 0xE61 DUP6 PUSH2 0x4890 JUMP JUMPDEST SWAP1 POP PUSH2 0xE95 JUMP JUMPDEST PUSH2 0xE94 PUSH32 0x3D14B3C1FD466A0B4DF792FD13B3D2325BC4014D578BB71BA25D04C066F659B3 PUSH1 0x0 SHL PUSH2 0x488D JUMP JUMPDEST JUMPDEST PUSH2 0xEC1 PUSH32 0xA69370391F6756A69E1136789A11DCEA5986F200ABEAFE7A6B6A3F26A2FFAB9E PUSH1 0x0 SHL PUSH2 0x488D JUMP JUMPDEST PUSH2 0xEED PUSH32 0xD4E61448FAF4DE87730B0992E973FAFAA2A42AA7F518D202108589905AB7BD84 PUSH1 0x0 SHL PUSH2 0x488D JUMP JUMPDEST PUSH1 0x0 DUP2 DUP7 PUSH2 0xEFB SWAP2 SWAP1 PUSH2 0x681F JUMP JUMPDEST SWAP1 POP PUSH2 0xF29 PUSH32 0xDEE9F665EA556AAE2A490DCCCB2DF0010DAFE5A6CB0D24710A055E8D2DDD1136 PUSH1 0x0 SHL PUSH2 0x488D JUMP JUMPDEST PUSH2 0xF55 PUSH32 0x8C6978C9E429A5E471CEE7682B8536C6E2649310F7DB010BE1528A612BFDBDBB PUSH1 0x0 SHL PUSH2 0x488D JUMP JUMPDEST DUP5 DUP2 DUP9 PUSH20 0xFFFFFFFFFFFFFFFFFFFFFFFFFFFFFFFFFFFFFFFF AND PUSH32 0xB279743E0218314D88B387012A6B7E94FF79B811C536AB5E40D6527EA265FF2C PUSH1 0x40 MLOAD PUSH1 0x40 MLOAD DUP1 SWAP2 SUB SWAP1 LOG4 PUSH2 0xFC6 PUSH32 0x2764614CB530286E52F1681F77DE71E9EE857C7CE3613C87AA9988CE3E15C356 PUSH1 0x0 SHL PUSH2 0x488D JUMP JUMPDEST PUSH2 0xFF2 PUSH32 0x6FB93DD3F52719247D5F0CA6F4998CE7C416F4EC529F1A94230CC828486FCA87 PUSH1 0x0 SHL PUSH2 0x488D JUMP JUMPDEST DUP5 DUP3 PUSH2 0x160 PUSH1 0x0 SWAP1 SLOAD SWAP1 PUSH2 0x100 EXP SWAP1 DIV PUSH20 0xFFFFFFFFFFFFFFFFFFFFFFFFFFFFFFFFFFFFFFFF AND PUSH20 0xFFFFFFFFFFFFFFFFFFFFFFFFFFFFFFFFFFFFFFFF AND PUSH32 0x1F8174BDBEC9563F21F6AA0AB97118362E35FD5B104B486A0FA2D754CAD41E51 PUSH1 0x40 MLOAD PUSH1 0x40 MLOAD DUP1 SWAP2 SUB SWAP1 LOG4 PUSH2 0x1086 PUSH32 0xA155134FBCE001C520BB0624D7BE917DCDDCFB0730D2DA7A797D979BAD0C22AF PUSH1 0x0 SHL PUSH2 0x488D JUMP JUMPDEST PUSH2 0x10B2 PUSH32 0xB8ED859BCC0A042EBA102EBBF667AC551607E38EFA2C9FA75061983399434004 PUSH1 0x0 SHL PUSH2 0x488D JUMP JUMPDEST PUSH1 0x0 DUP3 GT ISZERO PUSH2 0x1171 JUMPI PUSH2 0x10E7 PUSH32 0x7FB6D4871EAFA5B4D7271FB576B07BB1289185E1C0EA967CDAB522426851C06D PUSH1 0x0 SHL PUSH2 0x488D JUMP JUMPDEST PUSH2 0x1113 PUSH32 0x6469520A54D6EBB41D8690DB59C67F178BA8011BFBDA8A3E22E37C89D9CCC9DC PUSH1 0x0 SHL PUSH2 0x488D JUMP JUMPDEST PUSH2 0x113F PUSH32 0xA7095765BA90177FB0B108D3E461879FAE49FF110A1529202ED847ECB3E2BBE2 PUSH1 0x0 SHL PUSH2 0x488D JUMP JUMPDEST PUSH2 0x116C PUSH2 0x160 PUSH1 0x0 SWAP1 SLOAD SWAP1 PUSH2 0x100 EXP SWAP1 DIV PUSH20 0xFFFFFFFFFFFFFFFFFFFFFFFFFFFFFFFFFFFFFFFF AND DUP4 PUSH2 0x4A3D JUMP JUMPDEST PUSH2 0x119E JUMP JUMPDEST PUSH2 0x119D PUSH32 0x206B827928C8AAD244C648DB4F74345DD4FC16C4FD2F8193BBD767A52F2E3EE8 PUSH1 0x0 SHL PUSH2 0x488D JUMP JUMPDEST JUMPDEST PUSH2 0x11CA PUSH32 0xF5E42A414A946A5DF2529CBF6762485AA151F39EE2764EB3D01E1196B50E19E5 PUSH1 0x0 SHL PUSH2 0x488D JUMP JUMPDEST PUSH2 0x11F6 PUSH32 0x7B0E270B41553F84FCB871B367400E96CC3C916E3988F76988EF446A7A571501 PUSH1 0x0 SHL PUSH2 0x488D JUMP JUMPDEST PUSH1 0x0 PUSH2 0x1203 DUP9 DUP9 DUP9 PUSH2 0x4B95 JUMP JUMPDEST SWAP1 POP PUSH2 0x1231 PUSH32 0xF1310D59D919AB2D9962E39D47FEB441B622487E4A06DBF115A1A50BC5961FE3 PUSH1 0x0 SHL PUSH2 0x488D JUMP JUMPDEST PUSH2 0x125D PUSH32 0x6FC19A9E27048AD2CE346AC195877098183591554CCB5FCABA56D1A99B1EDB92 PUSH1 0x0 SHL PUSH2 0x488D JUMP JUMPDEST PUSH1 0x0 PUSH2 0x163 PUSH1 0x0 DUP4 DUP2 MSTORE PUSH1 0x20 ADD SWAP1 DUP2 MSTORE PUSH1 0x20 ADD PUSH1 0x0 KECCAK256 SLOAD EQ PUSH2 0x12EE JUMPI PUSH2 0x12A5 PUSH32 0xCD7FA6A710E8CB080D90B3ED078E36CF6622A2EF2419E8134328D1E9E8CAE9B4 PUSH1 0x0 SHL PUSH2 0x488D JUMP JUMPDEST PUSH2 0x12D1 PUSH32 0xA99755FF7433F9833C6D6ED349BEFFE75C7B8471ACAD4D4A495DAB50FDF6E059 PUSH1 0x0 SHL PUSH2 0x488D JUMP JUMPDEST PUSH2 0x163 PUSH1 0x0 DUP3 DUP2 MSTORE PUSH1 0x20 ADD SWAP1 DUP2 MSTORE PUSH1 0x20 ADD PUSH1 0x0 KECCAK256 PUSH1 0x0 SWAP1 SSTORE PUSH2 0x131B JUMP JUMPDEST PUSH2 0x131A PUSH32 0xF2CDF0EAE7BB65BF48078F43AFDEB65FCCD1CC8CA6C0D340E2EDD92AAFE955B5 PUSH1 0x0 SHL PUSH2 0x488D JUMP JUMPDEST JUMPDEST PUSH2 0x1347 PUSH32 0x4C3796D77ADDCB6356045B12D70F100E679E37A8AEFA218F92FF8B143CA1008D PUSH1 0x0 SHL PUSH2 0x488D JUMP JUMPDEST PUSH2 0x1373 PUSH32 0x7B8D56D7DD5C1DBC1C1A1A48BD2DA8878BFC26423CFE87711A7D69801437F550 PUSH1 0x0 SHL PUSH2 0x488D JUMP JUMPDEST PUSH2 0x137D DUP9 DUP4 PUSH2 0x4A3D JUMP JUMPDEST POP POP POP POP POP POP POP POP JUMP JUMPDEST PUSH1 0x0 DUP1 PUSH2 0x1392 PUSH2 0x46A6 JUMP JUMPDEST SWAP1 POP PUSH2 0x139F DUP6 DUP3 DUP6 PUSH2 0x4C4F JUMP JUMPDEST PUSH2 0x13AA DUP6 DUP6 DUP6 PUSH2 0x4CDB JUMP JUMPDEST PUSH1 0x1 SWAP2 POP POP SWAP4 SWAP3 POP POP POP JUMP JUMPDEST PUSH1 0x0 PUSH1 0xFB PUSH1 0x0 DUP4 DUP2 MSTORE PUSH1 0x20 ADD SWAP1 DUP2 MSTORE PUSH1 0x20 ADD PUSH1 0x0 KECCAK256 PUSH1 0x1 ADD SLOAD SWAP1 POP SWAP2 SWAP1 POP JUMP JUMPDEST PUSH2 0x15F SLOAD DUP2 JUMP JUMPDEST PUSH32 0x3C11D16CBAFFD01DF69CE1C404F6340EE057498F5F00246190EA54220576A848 DUP2 JUMP JUMPDEST PUSH2 0x140A DUP3 PUSH2 0x13B6 JUMP JUMPDEST PUSH2 0x1413 DUP2 PUSH2 0x4879 JUMP JUMPDEST PUSH2 0x141D DUP4 DUP4 PUSH2 0x4F56 JUMP JUMPDEST POP POP POP JUMP JUMPDEST PUSH32 0x8A639721758084B2FF869ED05CEE658AAB46E6BDC69BCA1B006BAE9F55613C59 DUP2 JUMP JUMPDEST PUSH1 0x0 PUSH1 0x12 SWAP1 POP SWAP1 JUMP JUMPDEST PUSH2 0x164 PUSH1 0x20 MSTORE DUP1 PUSH1 0x0 MSTORE PUSH1 0x40 PUSH1 0x0 KECCAK256 PUSH1 0x0 SWAP2 POP SWAP1 POP SLOAD DUP2 JUMP JUMPDEST PUSH2 0x1494 PUSH32 0xAA78EC23E7FD72554B00CD9354FC66716B3CBF229D1A0DF88647B8E6956B3A80 PUSH1 0x0 SHL PUSH2 0x488D JUMP JUMPDEST PUSH2 0x14C0 PUSH32 0xD1AEDCC8BF487D158D0B8667B8D58C30DE308B1D25BA52484E95FDCBA4BCF373 PUSH1 0x0 SHL PUSH2 0x488D JUMP JUMPDEST PUSH2 0x14EC PUSH32 0xB53A13BB7F3A4B1C58C1D596B738A1D5B6A0CAFBEF7AE0EFA2963C6F7BDA4D05 PUSH1 0x0 SHL PUSH2 0x488D JUMP JUMPDEST PUSH32 0x5EDC4FD0544F0B4B53F14F295FB04BBD6FDBC1BEA1FD8EDF5851B385AEE145D5 DUP3 EQ ISZERO PUSH2 0x165E JUMPI PUSH2 0x1540 PUSH32 0x386B3EB3CB1308872C86C536A6EFEDFCD196103E9206F1191A3E09C605453048 PUSH1 0x0 SHL PUSH2 0x488D JUMP JUMPDEST PUSH2 0x156C PUSH32 0x8BB40603F3EDB0993510541D9A703F2970D093FB913E2F6B871BE51E9D4EBA62 PUSH1 0x0 SHL PUSH2 0x488D JUMP JUMPDEST PUSH2 0x1598 PUSH32 0x3C73E88B207A718C8EE71908D20222D150F5EF870905E0E08B3CA3179FA0CAEE PUSH1 0x0 SHL PUSH2 0x488D JUMP JUMPDEST PUSH2 0x15C4 PUSH32 0x124F84C84FCDCCD93FD02C60355FA461E3DB34004D77E6BE9826DD912316DBA3 PUSH1 0x0 SHL PUSH2 0x488D JUMP JUMPDEST PUSH2 0x15EE PUSH32 0x92DE27771F92D6942691D73358B3A4673E4880DE8356F8F2CF452BE87E02D363 CALLER PUSH2 0x2DB5 JUMP JUMPDEST PUSH2 0x162D JUMPI PUSH1 0x40 MLOAD PUSH32 0x8C379A000000000000000000000000000000000000000000000000000000000 DUP2 MSTORE PUSH1 0x4 ADD PUSH2 0x1624 SWAP1 PUSH2 0x689F JUMP JUMPDEST PUSH1 0x40 MLOAD DUP1 SWAP2 SUB SWAP1 REVERT JUMPDEST PUSH2 0x1659 PUSH32 0x3CC0200CA0B3FF79DE57F0AE9492890DF5BCF6A4741A350D48C2BCBC36682800 PUSH1 0x0 SHL PUSH2 0x488D JUMP JUMPDEST PUSH2 0x168B JUMP JUMPDEST PUSH2 0x168A PUSH32 0xC7242E5FBE8429DD0B3F7062B4272A796895876B279F85417394A08DC4DB30F6 PUSH1 0x0 SHL PUSH2 0x488D JUMP JUMPDEST JUMPDEST PUSH2 0x16B7 PUSH32 0x5A44631AEA99FB92AB549F66E8D77787A204F89B0BF36D583BB608F55E1A3764 PUSH1 0x0 SHL PUSH2 0x488D JUMP JUMPDEST PUSH2 0x16E3 PUSH32 0x6DF2E957017E89C3451EC4159E747214EF5295D442536DEB4519B7FC51C69DE4 PUSH1 0x0 SHL PUSH2 0x488D JUMP JUMPDEST PUSH1 0x0 DUP1 SHL DUP3 EQ ISZERO PUSH2 0x181A JUMPI PUSH2 0x171A PUSH32 0xE2B669EECD9A21E6CF3B3833E5652997717EA03C5403F4229401D103812B01E3 PUSH1 0x0 SHL PUSH2 0x488D JUMP JUMPDEST PUSH2 0x1746 PUSH32 0xAAF804CFAE91C47695008FE055345DD3D0C8096EF2EB3803D75F089C72234ECA PUSH1 0x0 SHL PUSH2 0x488D JUMP JUMPDEST PUSH2 0x1772 PUSH32 0x38416D666FCE07DD3C384A50314D59EC8F86D221C92AA2EC49827EB86A502525 PUSH1 0x0 SHL PUSH2 0x488D JUMP JUMPDEST PUSH2 0x179E PUSH32 0x947D12310345DFE57EA00DF1C69126458CABC849B4452C44F43B9A80A6B56431 PUSH1 0x0 SHL PUSH2 0x488D JUMP JUMPDEST PUSH1 0x1 PUSH2 0x17A9 DUP4 PUSH2 0x40A1 JUMP JUMPDEST GT PUSH2 0x17E9 JUMPI PUSH1 0x40 MLOAD PUSH32 0x8C379A000000000000000000000000000000000000000000000000000000000 DUP2 MSTORE PUSH1 0x4 ADD PUSH2 0x17E0 SWAP1 PUSH2 0x690B JUMP JUMPDEST PUSH1 0x40 MLOAD DUP1 SWAP2 SUB SWAP1 REVERT JUMPDEST PUSH2 0x1815 PUSH32 0x39D48AD2C62AFCA801810C06F3E445B2B1E901097236E7B07AB9711C90A49F4A PUSH1 0x0 SHL PUSH2 0x488D JUMP JUMPDEST PUSH2 0x1847 JUMP JUMPDEST PUSH2 0x1846 PUSH32 0xC05AC92B95ECEADBEE1362C777B82C9EF080BA15E17B7394BA4BDEEF17DDA2EF PUSH1 0x0 SHL PUSH2 0x488D JUMP JUMPDEST JUMPDEST PUSH2 0x1873 PUSH32 0xAF3530A0BD774E0FE6662B3F993897823B2A722C9E2EFF1EE16C78912F64B114 PUSH1 0x0 SHL PUSH2 0x488D JUMP JUMPDEST PUSH2 0x189F PUSH32 0x89B7F9E1F082BB98B41098B85641A2EAC5A4E112C93D73E914914371331F5BE1 PUSH1 0x0 SHL PUSH2 0x488D JUMP JUMPDEST PUSH2 0x18A9 DUP3 DUP3 PUSH2 0x4F8B JUMP JUMPDEST POP POP JUMP JUMPDEST PUSH1 0x0 DUP1 PUSH2 0x18B8 PUSH2 0x46A6 JUMP JUMPDEST SWAP1 POP PUSH2 0x18D9 DUP2 DUP6 DUP6 PUSH2 0x18CA DUP6 DUP10 PUSH2 0x4549 JUMP JUMPDEST PUSH2 0x18D4 SWAP2 SWAP1 PUSH2 0x692B JUMP JUMPDEST PUSH2 0x46AE JUMP JUMPDEST PUSH1 0x1 SWAP2 POP POP SWAP3 SWAP2 POP POP JUMP JUMPDEST PUSH32 0x65D7A28E3265B37A6474929F336521B332C1681B933F6CB9F3376673440D862A PUSH2 0x190E DUP2 PUSH2 0x4879 JUMP JUMPDEST PUSH2 0x193A PUSH32 0xD0F8C4F942CA3287FC0EA6CFAC5D13C1E114902618641DE42554B9355B773763 PUSH1 0x0 SHL PUSH2 0x488D JUMP JUMPDEST PUSH2 0x1966 PUSH32 0x8E0470A74979981C52B12A50BDDDD739E277A571546E8CB3146ACEA9A9EC26D6 PUSH1 0x0 SHL PUSH2 0x488D JUMP JUMPDEST PUSH2 0x1992 PUSH32 0x5A9E6DA8C1EFB11E59F66BF7921EC9F97502EF54CA03D0D8D93F1A7B20316B28 PUSH1 0x0 SHL PUSH2 0x488D JUMP JUMPDEST PUSH2 0x199A PUSH2 0x500E JUMP JUMPDEST POP JUMP JUMPDEST PUSH2 0x19C9 PUSH32 0xB633349FA14E068502783171EEC474A008B3190F627B313DF946D64BFA316A0D PUSH1 0x0 SHL PUSH2 0x488D JUMP JUMPDEST PUSH2 0x19F5 PUSH32 0x9411E54D0EADE8D3875C7C890E5EE303C94232705C27226299AF4DD520CFCB74 PUSH1 0x0 SHL PUSH2 0x488D JUMP JUMPDEST PUSH2 0x1A21 PUSH32 0x9B8CDFE7387B5FBB19EE64325689F1A32874B6CE6AD58DE3FC3119739FF383B9 PUSH1 0x0 SHL PUSH2 0x488D JUMP JUMPDEST PUSH1 0x0 DUP1 REVERT JUMPDEST PUSH32 0x4B8072D94804AA443F85286056C4CB9FDA8B35E0A826D9959C80AA89382B0F26 PUSH2 0x1A50 DUP2 PUSH2 0x4879 JUMP JUMPDEST DUP4 PUSH2 0x1A7D PUSH32 0xFA690EBE8614D334661B6D0ED5ADC472D493CC3C2DAB844A0320C9543DD11D08 PUSH1 0x0 SHL PUSH2 0x488D JUMP JUMPDEST PUSH2 0x1AA9 PUSH32 0xB39EF8EAD78DF65C33F9B2EA315A7FEE441DC5136C61CE77F537A2F8858445A3 PUSH1 0x0 SHL PUSH2 0x488D JUMP JUMPDEST PUSH2 0x1AD5 PUSH32 0xCA62C6EB42840D4CBDE97647689AE2CF9097F809E2D506459B7DE1085BD8F569 PUSH1 0x0 SHL PUSH2 0x488D JUMP JUMPDEST PUSH2 0x1B01 PUSH32 0xB02BA62969FAE017DCDFC16EB38FE7D93CA96C7A69B1B3A71260583584B1A30B PUSH1 0x0 SHL PUSH2 0x488D JUMP JUMPDEST PUSH2 0x1B2B PUSH32 0xAEE674C6ADA01C6D4EE4067D160FFDACC9CC9ABA7CA34516F8C9FF75FDC8D723 DUP3 PUSH2 0x2DB5 JUMP JUMPDEST PUSH2 0x1B6A JUMPI PUSH1 0x40 MLOAD PUSH32 0x8C379A000000000000000000000000000000000000000000000000000000000 DUP2 MSTORE PUSH1 0x4 ADD PUSH2 0x1B61 SWAP1 PUSH2 0x67D0 JUMP JUMPDEST PUSH1 0x40 MLOAD DUP1 SWAP2 SUB SWAP1 REVERT JUMPDEST PUSH2 0x1B96 PUSH32 0xABFB0FEF4655E8D90307725E1ADAAFC3B889E683C47CC14E4DEC7ED90E872CAE PUSH1 0x0 SHL PUSH2 0x488D JUMP JUMPDEST PUSH2 0x1BC2 PUSH32 0x3FF8571BAFE64987C8C7BA35EFE0FE175C057A3CD33F231FD8D546D88F22C9F7 PUSH1 0x0 SHL PUSH2 0x488D JUMP JUMPDEST PUSH2 0x1BEE PUSH32 0xCC9B887923A9994A275CCC4098E553A8E81FE687AF90BACACDA8103CF62BAE13 PUSH1 0x0 SHL PUSH2 0x488D JUMP JUMPDEST PUSH2 0x1C1A PUSH32 0x4D98F2D54B5A788A7D82CADFE4D858540DB54B188ABF24EF1437F650DD1AC31C PUSH1 0x0 SHL PUSH2 0x488D JUMP JUMPDEST PUSH2 0x1C46 PUSH32 0xA09A713C17C748F5C41B9CC2A1B7B322FAA2F15A4D3FBFDB76CF56157165139E PUSH1 0x0 SHL PUSH2 0x488D JUMP JUMPDEST PUSH2 0x1C72 PUSH32 0x9DFD5045AF1F28E20CF507C6DDD820B3697FD6EA0811BBC3C0646D58F005A24B PUSH1 0x0 SHL PUSH2 0x488D JUMP JUMPDEST TIMESTAMP PUSH2 0x164 PUSH1 0x0 CALLER PUSH20 0xFFFFFFFFFFFFFFFFFFFFFFFFFFFFFFFFFFFFFFFF AND PUSH20 0xFFFFFFFFFFFFFFFFFFFFFFFFFFFFFFFFFFFFFFFF AND DUP2 MSTORE PUSH1 0x20 ADD SWAP1 DUP2 MSTORE PUSH1 0x20 ADD PUSH1 0x0 KECCAK256 SLOAD GT ISZERO DUP1 PUSH2 0x1D01 JUMPI POP PUSH1 0x0 PUSH2 0x164 PUSH1 0x0 CALLER PUSH20 0xFFFFFFFFFFFFFFFFFFFFFFFFFFFFFFFFFFFFFFFF AND PUSH20 0xFFFFFFFFFFFFFFFFFFFFFFFFFFFFFFFFFFFFFFFF AND DUP2 MSTORE PUSH1 0x20 ADD SWAP1 DUP2 MSTORE PUSH1 0x20 ADD PUSH1 0x0 KECCAK256 SLOAD EQ JUMPDEST PUSH2 0x1D40 JUMPI PUSH1 0x40 MLOAD PUSH32 0x8C379A000000000000000000000000000000000000000000000000000000000 DUP2 MSTORE PUSH1 0x4 ADD PUSH2 0x1D37 SWAP1 PUSH2 0x69CD JUMP JUMPDEST PUSH1 0x40 MLOAD DUP1 SWAP2 SUB SWAP1 REVERT JUMPDEST PUSH2 0x1D6C PUSH32 0x7E4317AF18E86D9E905B93E50DA95CB636AC759F2C3C74998815BDF321699255 PUSH1 0x0 SHL PUSH2 0x488D JUMP JUMPDEST PUSH2 0x1D98 PUSH32 0xC7E3737B3B80147917063F3A307158A6CAD54820D35CDF6855ED1F838DCA770A PUSH1 0x0 SHL PUSH2 0x488D JUMP JUMPDEST PUSH2 0x1DC4 PUSH32 0x71D5CD3D11F00285613CCEF12EAA3483C9B4DFFF2FD9B035F1B2F6CFFF7B8C77 PUSH1 0x0 SHL PUSH2 0x488D JUMP JUMPDEST PUSH1 0x0 PUSH2 0x1DD1 DUP7 DUP7 DUP7 PUSH2 0x4B95 JUMP JUMPDEST SWAP1 POP PUSH2 0x1DFF PUSH32 0x54A38DF8516FF942B907DBE635BCDBE896F89FE4E05856F6F1F58CBB739F34B4 PUSH1 0x0 SHL PUSH2 0x488D JUMP JUMPDEST PUSH2 0x1E2B PUSH32 0xB7BC756F4A0B0ECAFD0E361301CCC6D3E4B3C65E3B6CB3BFC27C9B9601F76490 PUSH1 0x0 SHL PUSH2 0x488D JUMP JUMPDEST PUSH2 0x1E57 PUSH32 0x718837DBB9F3EE61B3C6DD482C532AADF2739C791736D9EC6112BC7B88AF6796 PUSH1 0x0 SHL PUSH2 0x488D JUMP JUMPDEST PUSH1 0x0 PUSH2 0x163 PUSH1 0x0 DUP4 DUP2 MSTORE PUSH1 0x20 ADD SWAP1 DUP2 MSTORE PUSH1 0x20 ADD PUSH1 0x0 KECCAK256 SLOAD EQ PUSH2 0x1EAE JUMPI PUSH1 0x40 MLOAD PUSH32 0x8C379A000000000000000000000000000000000000000000000000000000000 DUP2 MSTORE PUSH1 0x4 ADD PUSH2 0x1EA5 SWAP1 PUSH2 0x6A39 JUMP JUMPDEST PUSH1 0x40 MLOAD DUP1 SWAP2 SUB SWAP1 REVERT JUMPDEST PUSH2 0x1EDA PUSH32 0x4326F2BDF49DD44F6D6E5BF3B449D8AD401DD169916AD296126D9326D7067144 PUSH1 0x0 SHL PUSH2 0x488D JUMP JUMPDEST PUSH2 0x1F06 PUSH32 0xAC27C803A8186966A4A3179B7F9B4A8F3E42491437DE462A5C66FEF212FFD19C PUSH1 0x0 SHL PUSH2 0x488D JUMP JUMPDEST PUSH2 0x1F32 PUSH32 0x708335250F308194451DCBE85B91D847C64A8C1F0731ED1F8FB54D4E408A50E2 PUSH1 0x0 SHL PUSH2 0x488D JUMP JUMPDEST PUSH1 0x0 PUSH8 0xDE0B6B3A7640000 DUP7 PUSH2 0x1F48 SWAP2 SWAP1 PUSH2 0x6A88 JUMP JUMPDEST PUSH2 0x161 SLOAD PUSH2 0x1F56 SWAP2 SWAP1 PUSH2 0x6AB9 JUMP JUMPDEST TIMESTAMP PUSH2 0x1F61 SWAP2 SWAP1 PUSH2 0x692B JUMP JUMPDEST SWAP1 POP PUSH2 0x1F8F PUSH32 0x405190D7C163718AB959C9B7DB83D57704AC01F40E195AFBF4F1CBC00475657 PUSH1 0x0 SHL PUSH2 0x488D JUMP JUMPDEST PUSH2 0x1FBB PUSH32 0x359908B02035544CC4C92639EE68C165F6A0DBE09558B113BB28136740DAC3DC PUSH1 0x0 SHL PUSH2 0x488D JUMP JUMPDEST DUP1 PUSH2 0x163 PUSH1 0x0 DUP5 DUP2 MSTORE PUSH1 0x20 ADD SWAP1 DUP2 MSTORE PUSH1 0x20 ADD PUSH1 0x0 KECCAK256 DUP2 SWAP1 SSTORE POP PUSH2 0x2000 PUSH32 0x64245EFB44169A589EAD1D4F4278E33983FEAFD36C7953A95175C5A2ACDC96DA PUSH1 0x0 SHL PUSH2 0x488D JUMP JUMPDEST PUSH2 0x202C PUSH32 0xFE94D2D87154DD54D26AAE5D32F6B635E5327C312A58D16A178FBBB4BCAB5A0 PUSH1 0x0 SHL PUSH2 0x488D JUMP JUMPDEST PUSH1 0x0 PUSH2 0x162 SLOAD TIMESTAMP PUSH2 0x203D SWAP2 SWAP1 PUSH2 0x692B JUMP JUMPDEST SWAP1 POP PUSH2 0x206B PUSH32 0x98AF8C43051748CDABF5C210ACCDC83DB2F77378BD0C7D6F18957B4F42599573 PUSH1 0x0 SHL PUSH2 0x488D JUMP JUMPDEST PUSH2 0x2097 PUSH32 0xEB6BB2181D62C435C264B97DE5B6F3261876D6991CDA6AE6E13F848ECEE77055 PUSH1 0x0 SHL PUSH2 0x488D JUMP JUMPDEST DUP1 PUSH2 0x164 PUSH1 0x0 CALLER PUSH20 0xFFFFFFFFFFFFFFFFFFFFFFFFFFFFFFFFFFFFFFFF AND PUSH20 0xFFFFFFFFFFFFFFFFFFFFFFFFFFFFFFFFFFFFFFFF AND DUP2 MSTORE PUSH1 0x20 ADD SWAP1 DUP2 MSTORE PUSH1 0x20 ADD PUSH1 0x0 KECCAK256 DUP2 SWAP1 SSTORE POP PUSH2 0x2108 PUSH32 0xE7F988420512B47F168B6BCD8E911BEB359460B1DF4DBC0FEC0DE366FEB41546 PUSH1 0x0 SHL PUSH2 0x488D JUMP JUMPDEST PUSH2 0x2134 PUSH32 0x8F3B509E6CCE129D4FE6F96BAB4F87140E4E5FEA615AFB760A987B6E610AC5C PUSH1 0x0 SHL PUSH2 0x488D JUMP JUMPDEST DUP6 DUP8 DUP10 PUSH20 0xFFFFFFFFFFFFFFFFFFFFFFFFFFFFFFFFFFFFFFFF AND PUSH32 0xB744A5EB3CAFE36DAE33C716833D91C7ACD6BFA94CE3C0F4CC6EC42DE3875523 DUP6 DUP6 CALLER PUSH1 0x40 MLOAD PUSH2 0x2180 SWAP4 SWAP3 SWAP2 SWAP1 PUSH2 0x6B13 JUMP JUMPDEST PUSH1 0x40 MLOAD DUP1 SWAP2 SUB SWAP1 LOG4 POP POP POP POP POP POP POP POP JUMP JUMPDEST PUSH2 0x163 PUSH1 0x20 MSTORE DUP1 PUSH1 0x0 MSTORE PUSH1 0x40 PUSH1 0x0 KECCAK256 PUSH1 0x0 SWAP2 POP SWAP1 POP SLOAD DUP2 JUMP JUMPDEST PUSH32 0x5EDC4FD0544F0B4B53F14F295FB04BBD6FDBC1BEA1FD8EDF5851B385AEE145D5 DUP2 JUMP JUMPDEST PUSH1 0x0 PUSH2 0x21FD PUSH32 0x1E640629BA62B2169D3F4F024DC72043DB171338746C1C935617AAB2EA25CAD2 PUSH1 0x0 SHL PUSH2 0x488D JUMP JUMPDEST PUSH2 0x2229 PUSH32 0x5281E1AD773972CDEDB7E834F61465F4C284540A82F983105F57EBD2375AC8AC PUSH1 0x0 SHL PUSH2 0x488D JUMP JUMPDEST PUSH2 0x2255 PUSH32 0x7FEB00C42A793E27B3B18556B280111CBA2B63AF7530E6185842EDD5B1F820A9 PUSH1 0x0 SHL PUSH2 0x488D JUMP JUMPDEST PUSH2 0x2260 DUP5 DUP5 DUP5 PUSH2 0x4B95 JUMP JUMPDEST SWAP1 POP SWAP4 SWAP3 POP POP POP JUMP JUMPDEST PUSH1 0x0 PUSH1 0x97 PUSH1 0x0 SWAP1 SLOAD SWAP1 PUSH2 0x100 EXP SWAP1 DIV PUSH1 0xFF AND SWAP1 POP SWAP1 JUMP JUMPDEST PUSH32 0x92DE27771F92D6942691D73358B3A4673E4880DE8356F8F2CF452BE87E02D363 PUSH2 0x22AA DUP2 PUSH2 0x4879 JUMP JUMPDEST PUSH2 0x22D6 PUSH32 0x86A09FD57FD1E399BDC81037C31FE9C0F9E7BD6E2F52C3B4E29DFEDB2AD0A1C2 PUSH1 0x0 SHL PUSH2 0x488D JUMP JUMPDEST PUSH2 0x2302 PUSH32 0xBC0AF1EB8F7E01E100DB1F50D626117BDB49876BD7560CC625152FFE55FB2DE3 PUSH1 0x0 SHL PUSH2 0x488D JUMP JUMPDEST PUSH2 0x232E PUSH32 0x110DDCFA043B118A807409CFCF6CEB5F44F284116FE3AFB0A113E7A97C0E1F78 PUSH1 0x0 SHL PUSH2 0x488D JUMP JUMPDEST PUSH1 0x0 PUSH2 0x233B DUP6 DUP6 DUP6 PUSH2 0x4B95 JUMP JUMPDEST SWAP1 POP PUSH2 0x2369 PUSH32 0x9E4E8A7E85B868593EF734688DCCB702EECCECC5177F79A1CD845991B65EC143 PUSH1 0x0 SHL PUSH2 0x488D JUMP JUMPDEST PUSH2 0x2395 PUSH32 0x152C0327F6FA188F5722ED0C8D0C548619775756AF95A9328CE208D39075831B PUSH1 0x0 SHL PUSH2 0x488D JUMP JUMPDEST PUSH1 0x0 PUSH2 0x163 PUSH1 0x0 DUP4 DUP2 MSTORE PUSH1 0x20 ADD SWAP1 DUP2 MSTORE PUSH1 0x20 ADD PUSH1 0x0 KECCAK256 SLOAD SWAP1 POP PUSH2 0x23DA PUSH32 0xD61472D843A940C7AD53C756A6A45E4EFBE91968E8759C12786955D059F7B62C PUSH1 0x0 SHL PUSH2 0x488D JUMP JUMPDEST PUSH2 0x2406 PUSH32 0x2913FDAD9F2C699C78E111540CE721DFFB494C3998723C22340BE625B004CB81 PUSH1 0x0 SHL PUSH2 0x488D JUMP JUMPDEST PUSH2 0x2432 PUSH32 0x6CF11F31467DDF00169FEC8A4490A51D280E6C6749B6044002867199C7524BF3 PUSH1 0x0 SHL PUSH2 0x488D JUMP JUMPDEST PUSH1 0x0 DUP2 GT PUSH2 0x2475 JUMPI PUSH1 0x40 MLOAD PUSH32 0x8C379A000000000000000000000000000000000000000000000000000000000 DUP2 MSTORE PUSH1 0x4 ADD PUSH2 0x246C SWAP1 PUSH2 0x6B96 JUMP JUMPDEST PUSH1 0x40 MLOAD DUP1 SWAP2 SUB SWAP1 REVERT JUMPDEST PUSH2 0x24A1 PUSH32 0x4F0738DF7CE35544E2C8ED3FEBC0A41EF3220B2C342A9C9C611EE263C4281880 PUSH1 0x0 SHL PUSH2 0x488D JUMP JUMPDEST PUSH2 0x24CD PUSH32 0xF0A4F1C1811453B243F7FEE33BF53D129A87955CE24515333810E6965D762AC PUSH1 0x0 SHL PUSH2 0x488D JUMP JUMPDEST PUSH2 0x163 PUSH1 0x0 DUP4 DUP2 MSTORE PUSH1 0x20 ADD SWAP1 DUP2 MSTORE PUSH1 0x20 ADD PUSH1 0x0 KECCAK256 PUSH1 0x0 SWAP1 SSTORE PUSH2 0x2511 PUSH32 0x306DD5F891D2B53B5BA43B1830B30755CCAD0004731F91F1B3402B97E0E663CE PUSH1 0x0 SHL PUSH2 0x488D JUMP JUMPDEST PUSH2 0x253D PUSH32 0xF0F9D1FC60501D8A7E94EAB06DAC3A207DEA700FC74BFEF52945EBF4C9B37C8F PUSH1 0x0 SHL PUSH2 0x488D JUMP JUMPDEST DUP4 DUP6 DUP8 PUSH20 0xFFFFFFFFFFFFFFFFFFFFFFFFFFFFFFFFFFFFFFFF AND PUSH32 0xCC16942B6232B79202FA3D65654A598A75B1A3E812D4179DC04A7A32C097CEBA PUSH1 0x40 MLOAD PUSH1 0x40 MLOAD DUP1 SWAP2 SUB SWAP1 LOG4 POP POP POP POP POP POP JUMP JUMPDEST PUSH2 0x161 SLOAD DUP2 JUMP JUMPDEST PUSH1 0x0 PUSH1 0x33 PUSH1 0x0 DUP4 PUSH20 0xFFFFFFFFFFFFFFFFFFFFFFFFFFFFFFFFFFFFFFFF AND PUSH20 0xFFFFFFFFFFFFFFFFFFFFFFFFFFFFFFFFFFFFFFFF AND DUP2 MSTORE PUSH1 0x20 ADD SWAP1 DUP2 MSTORE PUSH1 0x20 ADD PUSH1 0x0 KECCAK256 SLOAD SWAP1 POP SWAP2 SWAP1 POP JUMP JUMPDEST PUSH2 0x2606 PUSH32 0x4316EE760E6CD4F9DCEB37667D7E82787DD3EF0F38B17176258FBD594CCC15EA PUSH1 0x0 SHL PUSH2 0x488D JUMP JUMPDEST PUSH2 0x2632 PUSH32 0xFB250F9CECC2D265493EC413735621DFEF95F601F4053F8B4219A406437B35EF PUSH1 0x0 SHL PUSH2 0x488D JUMP JUMPDEST PUSH2 0x265E PUSH32 0xB95BD5C42E2732C49575FF61CA971CA80F4EE13861328BB4A38FC8AA1EFB1E83 PUSH1 0x0 SHL PUSH2 0x488D JUMP JUMPDEST PUSH1 0x0 DUP1 REVERT JUMPDEST PUSH1 0x0 DUP1 PUSH1 0x1 SWAP1 SLOAD SWAP1 PUSH2 0x100 EXP SWAP1 DIV PUSH1 0xFF AND ISZERO SWAP1 POP DUP1 DUP1 ISZERO PUSH2 0x2694 JUMPI POP PUSH1 0x1 PUSH1 0x0 DUP1 SLOAD SWAP1 PUSH2 0x100 EXP SWAP1 DIV PUSH1 0xFF AND PUSH1 0xFF AND LT JUMPDEST DUP1 PUSH2 0x26C1 JUMPI POP PUSH2 0x26A3 ADDRESS PUSH2 0x5071 JUMP JUMPDEST ISZERO DUP1 ISZERO PUSH2 0x26C0 JUMPI POP PUSH1 0x1 PUSH1 0x0 DUP1 SLOAD SWAP1 PUSH2 0x100 EXP SWAP1 DIV PUSH1 0xFF AND PUSH1 0xFF AND EQ JUMPDEST JUMPDEST PUSH2 0x2700 JUMPI PUSH1 0x40 MLOAD PUSH32 0x8C379A000000000000000000000000000000000000000000000000000000000 DUP2 MSTORE PUSH1 0x4 ADD PUSH2 0x26F7 SWAP1 PUSH2 0x6C28 JUMP JUMPDEST PUSH1 0x40 MLOAD DUP1 SWAP2 SUB SWAP1 REVERT JUMPDEST PUSH1 0x1 PUSH1 0x0 DUP1 PUSH2 0x100 EXP DUP2 SLOAD DUP2 PUSH1 0xFF MUL NOT AND SWAP1 DUP4 PUSH1 0xFF AND MUL OR SWAP1 SSTORE POP DUP1 ISZERO PUSH2 0x273D JUMPI PUSH1 0x1 PUSH1 0x0 PUSH1 0x1 PUSH2 0x100 EXP DUP2 SLOAD DUP2 PUSH1 0xFF MUL NOT AND SWAP1 DUP4 ISZERO ISZERO MUL OR SWAP1 SSTORE POP JUMPDEST PUSH2 0x2769 PUSH32 0xE9C7AEFA2DD10E52E2EE61436715F6842C4C3939EC2B096639F8F122A695640A PUSH1 0x0 SHL PUSH2 0x488D JUMP JUMPDEST PUSH2 0x2795 PUSH32 0x2E9922808C7A84D7D92C09DF102D841F15982E8398D7B66E9DECD05887F8F04 PUSH1 0x0 SHL PUSH2 0x488D JUMP JUMPDEST PUSH2 0x27C1 PUSH32 0x19D8767F8AF476F61C3E2BDF99297623762E04048B731D75FE8272D8181B7822 PUSH1 0x0 SHL PUSH2 0x488D JUMP JUMPDEST PUSH2 0x2835 PUSH1 0x40 MLOAD DUP1 PUSH1 0x40 ADD PUSH1 0x40 MSTORE DUP1 PUSH1 0xB DUP2 MSTORE PUSH1 0x20 ADD PUSH32 0x5553442052656365697074000000000000000000000000000000000000000000 DUP2 MSTORE POP PUSH1 0x40 MLOAD DUP1 PUSH1 0x40 ADD PUSH1 0x40 MSTORE DUP1 PUSH1 0x4 DUP2 MSTORE PUSH1 0x20 ADD PUSH32 0x5553445200000000000000000000000000000000000000000000000000000000 DUP2 MSTORE POP PUSH2 0x5094 JUMP JUMPDEST PUSH2 0x2861 PUSH32 0xE3E62510A0C071761B3340CFCD5FCE3308D51B5D7C0E6388A6CB4697AB3F0FF7 PUSH1 0x0 SHL PUSH2 0x488D JUMP JUMPDEST PUSH2 0x288D PUSH32 0xBA945D6B1E81960D643331BFFB65059DFC13530094931AA82E4D40104F12CBA1 PUSH1 0x0 SHL PUSH2 0x488D JUMP JUMPDEST PUSH2 0x2895 PUSH2 0x50F1 JUMP JUMPDEST PUSH2 0x28C1 PUSH32 0xFC64CE7BE066C2F9A374D03D81264DAF13F639444B76B47201F0243F77393219 PUSH1 0x0 SHL PUSH2 0x488D JUMP JUMPDEST PUSH2 0x28ED PUSH32 0x9245FCABFAE0A1AB6F107CB8C65B947871B2B251CD971576F9DE55624712B1CF PUSH1 0x0 SHL PUSH2 0x488D JUMP JUMPDEST PUSH2 0x28F5 PUSH2 0x5142 JUMP JUMPDEST PUSH2 0x2921 PUSH32 0xA4EC86A0B8F6719C1B76D019C0512D0EF50DDCB02D375862BDAFC8775F5617F8 PUSH1 0x0 SHL PUSH2 0x488D JUMP JUMPDEST PUSH2 0x294D PUSH32 0x3A1ED387D0BC9C98BA4F195D0F8ACB23F7CA8B22BB5A74A578E8C0D26892523B PUSH1 0x0 SHL PUSH2 0x488D JUMP JUMPDEST PUSH2 0x2955 PUSH2 0x519B JUMP JUMPDEST PUSH2 0x2981 PUSH32 0x7FA03EDF73683BFA820E31930384B7137E2CAF262F5194AE238530BAC4B8FDBD PUSH1 0x0 SHL PUSH2 0x488D JUMP JUMPDEST PUSH2 0x29AD PUSH32 0x71279905659D8942A9687C8C7B18F2C8357780B24F196B8B14AFF84697C32BF1 PUSH1 0x0 SHL PUSH2 0x488D JUMP JUMPDEST PUSH2 0x29BA PUSH1 0x0 DUP1 SHL CALLER PUSH2 0x51EC JUMP JUMPDEST PUSH2 0x29E6 PUSH32 0x61005F9D7C68C38DBE71ACD2754D0173638A5A8B31C5E9E28CCE93B6CEFAA6B0 PUSH1 0x0 SHL PUSH2 0x488D JUMP JUMPDEST PUSH2 0x2A12 PUSH32 0x8D79F76FEF506BC18ECA9EC8F5369A7899FD9CC627857B0D3F0891D987C7D11D PUSH1 0x0 SHL PUSH2 0x488D JUMP JUMPDEST PUSH2 0x2A5C PUSH32 0x5EDC4FD0544F0B4B53F14F295FB04BBD6FDBC1BEA1FD8EDF5851B385AEE145D5 PUSH32 0x92DE27771F92D6942691D73358B3A4673E4880DE8356F8F2CF452BE87E02D363 PUSH2 0x51FA JUMP JUMPDEST PUSH2 0x2A88 PUSH32 0x30004D1E7ADE5505B0DAF5E1EDE06B3025554C34BC1C5B5BA6EAFB25E0420FFB PUSH1 0x0 SHL PUSH2 0x488D JUMP JUMPDEST PUSH2 0x2AB4 PUSH32 0x31007A899218D8FDE6FEC52A5F05718061EEB6D7CB9E8EA2584FD2D2FF5AB5F6 PUSH1 0x0 SHL PUSH2 0x488D JUMP JUMPDEST PUSH3 0xF4240 PUSH2 0x15F DUP2 SWAP1 SSTORE POP PUSH2 0x2AEB PUSH32 0x11E8813A6039B15E1166C188877BBC56CC9BEC69147D02D7509D2549AE88F078 PUSH1 0x0 SHL PUSH2 0x488D JUMP JUMPDEST PUSH2 0x2B17 PUSH32 0xCF0DDA5F48E2CAD0784F572D386675E1007C9E31CD3095E3DBC228116832F26B PUSH1 0x0 SHL PUSH2 0x488D JUMP JUMPDEST PUSH1 0x1 PUSH2 0x160 PUSH1 0x14 PUSH2 0x100 EXP DUP2 SLOAD DUP2 PUSH1 0xFF MUL NOT AND SWAP1 DUP4 ISZERO ISZERO MUL OR SWAP1 SSTORE POP PUSH2 0x2B5F PUSH32 0x63571C3F3E60DE601E043834AD414726AC3EB457BF59B912161BE5F4DAF0C374 PUSH1 0x0 SHL PUSH2 0x488D JUMP JUMPDEST PUSH2 0x2B8B PUSH32 0x33E739433416F17D2CF94B61B9F05118557AE1E140BA20B93815E85DD4462891 PUSH1 0x0 SHL PUSH2 0x488D JUMP JUMPDEST PUSH1 0x1 PUSH2 0x160 PUSH1 0x15 PUSH2 0x100 EXP DUP2 SLOAD DUP2 PUSH1 0xFF MUL NOT AND SWAP1 DUP4 ISZERO ISZERO MUL OR SWAP1 SSTORE POP PUSH2 0x2BD3 PUSH32 0xCA39CD04BF763477E084C7A42B946B46D8A7E483C8145BF0E84549B1CBD38021 PUSH1 0x0 SHL PUSH2 0x488D JUMP JUMPDEST PUSH2 0x2BFF PUSH32 0xFF2F92F7706D02D97B0A88220A538B971DA52B72602EBCC4C1614246F4C76FCA PUSH1 0x0 SHL PUSH2 0x488D JUMP JUMPDEST PUSH1 0x9 PUSH2 0x161 DUP2 SWAP1 SSTORE POP PUSH2 0x2C33 PUSH31 0x3AF0880FB20139B57A9799B4F326D46EAFD95E2E88D1CA704EA3D3AF871A80 PUSH1 0x0 SHL PUSH2 0x488D JUMP JUMPDEST PUSH2 0x2C5F PUSH32 0x145E8393026B69A97629D46EB97D413511D1F283654B5F215B68F7C49041B65 PUSH1 0x0 SHL PUSH2 0x488D JUMP JUMPDEST PUSH1 0xB4 PUSH2 0x162 DUP2 SWAP1 SSTORE POP DUP1 ISZERO PUSH2 0x2CC1 JUMPI PUSH1 0x0 DUP1 PUSH1 0x1 PUSH2 0x100 EXP DUP2 SLOAD DUP2 PUSH1 0xFF MUL NOT AND SWAP1 DUP4 ISZERO ISZERO MUL OR SWAP1 SSTORE POP PUSH32 0x7F26B83FF96E1F2B6A682F133852F6798A09C465DA95921460CEFB3847402498 PUSH1 0x1 PUSH1 0x40 MLOAD PUSH2 0x2CB8 SWAP2 SWAP1 PUSH2 0x6C8D JUMP JUMPDEST PUSH1 0x40 MLOAD DUP1 SWAP2 SUB SWAP1 LOG1 JUMPDEST POP JUMP JUMPDEST PUSH32 0x65D7A28E3265B37A6474929F336521B332C1681B933F6CB9F3376673440D862A PUSH2 0x2CEE DUP2 PUSH2 0x4879 JUMP JUMPDEST PUSH2 0x2D1A PUSH32 0x4F4A49E3E7BF72A1CEC89B118E3DFE4E64DE4A9BC4F7971E4199BA6A1120965E PUSH1 0x0 SHL PUSH2 0x488D JUMP JUMPDEST PUSH2 0x2D46 PUSH32 0xE8CF25D09EB5AD6F714F89696AB47773211AA3863FDAC65C8E56FA7298741CB5 PUSH1 0x0 SHL PUSH2 0x488D JUMP JUMPDEST PUSH2 0x2D72 PUSH32 0xB7522BF3643E1C1BA55E769D2D4ECD2227E1C5A48ECF44E9644D85514FE6929A PUSH1 0x0 SHL PUSH2 0x488D JUMP JUMPDEST PUSH2 0x2D7A PUSH2 0x5256 JUMP JUMPDEST POP JUMP JUMPDEST PUSH4 0x3B9ACA00 DUP2 JUMP JUMPDEST PUSH1 0x0 PUSH2 0x2DAD DUP3 PUSH2 0x12D PUSH1 0x0 DUP7 DUP2 MSTORE PUSH1 0x20 ADD SWAP1 DUP2 MSTORE PUSH1 0x20 ADD PUSH1 0x0 KECCAK256 PUSH2 0x52B9 SWAP1 SWAP2 SWAP1 PUSH4 0xFFFFFFFF AND JUMP JUMPDEST SWAP1 POP SWAP3 SWAP2 POP POP JUMP JUMPDEST PUSH1 0x0 PUSH1 0xFB PUSH1 0x0 DUP5 DUP2 MSTORE PUSH1 0x20 ADD SWAP1 DUP2 MSTORE PUSH1 0x20 ADD PUSH1 0x0 KECCAK256 PUSH1 0x0 ADD PUSH1 0x0 DUP4 PUSH20 0xFFFFFFFFFFFFFFFFFFFFFFFFFFFFFFFFFFFFFFFF AND PUSH20 0xFFFFFFFFFFFFFFFFFFFFFFFFFFFFFFFFFFFFFFFF AND DUP2 MSTORE PUSH1 0x20 ADD SWAP1 DUP2 MSTORE PUSH1 0x20 ADD PUSH1 0x0 KECCAK256 PUSH1 0x0 SWAP1 SLOAD SWAP1 PUSH2 0x100 EXP SWAP1 DIV PUSH1 0xFF AND SWAP1 POP SWAP3 SWAP2 POP POP JUMP JUMPDEST PUSH1 0x60 PUSH1 0x37 DUP1 SLOAD PUSH2 0x2E2F SWAP1 PUSH2 0x6752 JUMP JUMPDEST DUP1 PUSH1 0x1F ADD PUSH1 0x20 DUP1 SWAP2 DIV MUL PUSH1 0x20 ADD PUSH1 0x40 MLOAD SWAP1 DUP2 ADD PUSH1 0x40 MSTORE DUP1 SWAP3 SWAP2 SWAP1 DUP2 DUP2 MSTORE PUSH1 0x20 ADD DUP3 DUP1 SLOAD PUSH2 0x2E5B SWAP1 PUSH2 0x6752 JUMP JUMPDEST DUP1 ISZERO PUSH2 0x2EA8 JUMPI DUP1 PUSH1 0x1F LT PUSH2 0x2E7D JUMPI PUSH2 0x100 DUP1 DUP4 SLOAD DIV MUL DUP4 MSTORE SWAP2 PUSH1 0x20 ADD SWAP2 PUSH2 0x2EA8 JUMP JUMPDEST DUP3 ADD SWAP2 SWAP1 PUSH1 0x0 MSTORE PUSH1 0x20 PUSH1 0x0 KECCAK256 SWAP1 JUMPDEST DUP2 SLOAD DUP2 MSTORE SWAP1 PUSH1 0x1 ADD SWAP1 PUSH1 0x20 ADD DUP1 DUP4 GT PUSH2 0x2E8B JUMPI DUP3 SWAP1 SUB PUSH1 0x1F AND DUP3 ADD SWAP2 JUMPDEST POP POP POP POP POP SWAP1 POP SWAP1 JUMP JUMPDEST PUSH1 0x0 DUP1 SHL DUP2 JUMP JUMPDEST PUSH32 0x8A639721758084B2FF869ED05CEE658AAB46E6BDC69BCA1B006BAE9F55613C59 PUSH2 0x2EE3 DUP2 PUSH2 0x4879 JUMP JUMPDEST PUSH2 0x2F0F PUSH32 0x1C96CE78CD73DD676B83EBD423215CF1EE7A844CCA8B8D8BB696E9C370927422 PUSH1 0x0 SHL PUSH2 0x488D JUMP JUMPDEST PUSH2 0x2F3B PUSH32 0xFB2EE8C815B2215C6353874B6ADA4F1D3B91C1CBCBBEA646116DA9AC13962375 PUSH1 0x0 SHL PUSH2 0x488D JUMP JUMPDEST PUSH2 0x2F67 PUSH32 0x6151B939C9834B7721C2A43AA22C23FD0A95FB7C8B62C2825298E9DC5C1F1B3E PUSH1 0x0 SHL PUSH2 0x488D JUMP JUMPDEST DUP2 PUSH2 0x160 PUSH1 0x0 PUSH2 0x100 EXP DUP2 SLOAD DUP2 PUSH20 0xFFFFFFFFFFFFFFFFFFFFFFFFFFFFFFFFFFFFFFFF MUL NOT AND SWAP1 DUP4 PUSH20 0xFFFFFFFFFFFFFFFFFFFFFFFFFFFFFFFFFFFFFFFF AND MUL OR SWAP1 SSTORE POP POP POP JUMP JUMPDEST PUSH1 0x0 DUP1 PUSH2 0x2FB8 PUSH2 0x46A6 JUMP JUMPDEST SWAP1 POP PUSH1 0x0 PUSH2 0x2FC6 DUP3 DUP7 PUSH2 0x4549 JUMP JUMPDEST SWAP1 POP DUP4 DUP2 LT ISZERO PUSH2 0x300B JUMPI PUSH1 0x40 MLOAD PUSH32 0x8C379A000000000000000000000000000000000000000000000000000000000 DUP2 MSTORE PUSH1 0x4 ADD PUSH2 0x3002 SWAP1 PUSH2 0x6D1A JUMP JUMPDEST PUSH1 0x40 MLOAD DUP1 SWAP2 SUB SWAP1 REVERT JUMPDEST PUSH2 0x3018 DUP3 DUP7 DUP7 DUP5 SUB PUSH2 0x46AE JUMP JUMPDEST PUSH1 0x1 SWAP3 POP POP POP SWAP3 SWAP2 POP POP JUMP JUMPDEST PUSH2 0x160 PUSH1 0x14 SWAP1 SLOAD SWAP1 PUSH2 0x100 EXP SWAP1 DIV PUSH1 0xFF AND DUP2 JUMP JUMPDEST PUSH1 0x0 DUP1 PUSH2 0x3043 PUSH2 0x46A6 JUMP JUMPDEST SWAP1 POP PUSH2 0x3050 DUP2 DUP6 DUP6 PUSH2 0x4CDB JUMP JUMPDEST PUSH1 0x1 SWAP2 POP POP SWAP3 SWAP2 POP POP JUMP JUMPDEST PUSH32 0x3C11D16CBAFFD01DF69CE1C404F6340EE057498F5F00246190EA54220576A848 PUSH2 0x3085 DUP2 PUSH2 0x4879 JUMP JUMPDEST PUSH2 0x30B1 PUSH32 0xA24E8CC7164C4724F7063C7764E96B374CCF92D5656BD8BC890B2671E54A8475 PUSH1 0x0 SHL PUSH2 0x488D JUMP JUMPDEST PUSH2 0x30DD PUSH32 0xF3927E1336CB6F8C6327EBC72055C52B81B685E6C7A9B6C9F58AC23DB130500D PUSH1 0x0 SHL PUSH2 0x488D JUMP JUMPDEST PUSH2 0x3109 PUSH32 0x64B4FD1041555B2D2D85BBF2CA76AC08036EE914FA697C4536FA5CF666D94E9A PUSH1 0x0 SHL PUSH2 0x488D JUMP JUMPDEST PUSH1 0x0 PUSH2 0x3137 PUSH32 0x54ECEC610A77A580E23DA8FCF52750F4CA735DDA57739FBCC936A7BFB549B4E0 PUSH1 0x0 SHL PUSH2 0x488D JUMP JUMPDEST PUSH2 0x3163 PUSH32 0x8DEF3BBDE2EAF41E6C193EB7913EA26BA7598B37105E263547261D6D08F82F86 PUSH1 0x0 SHL PUSH2 0x488D JUMP JUMPDEST PUSH1 0x1 ISZERO ISZERO PUSH2 0x160 PUSH1 0x15 SWAP1 SLOAD SWAP1 PUSH2 0x100 EXP SWAP1 DIV PUSH1 0xFF AND ISZERO ISZERO EQ PUSH2 0x3213 JUMPI PUSH2 0x31AB PUSH32 0x4873A102134994E2ED3EFB0D7808E06256850FC7CCFBE1756A7FD0360A25E6A PUSH1 0x0 SHL PUSH2 0x488D JUMP JUMPDEST PUSH2 0x31D7 PUSH32 0x9D4CDB61D87870B30EAECA4DB675F5F4202A48E376EB5C67C81DE0349E714278 PUSH1 0x0 SHL PUSH2 0x488D JUMP JUMPDEST PUSH2 0x3203 PUSH32 0x5C34F007AD93DFEDCF7E917E20669349F74295D48FCEF9B3D91B9A6D4806E2D9 PUSH1 0x0 SHL PUSH2 0x488D JUMP JUMPDEST PUSH2 0x320C DUP5 PUSH2 0x4890 JUMP JUMPDEST SWAP1 POP PUSH2 0x3240 JUMP JUMPDEST PUSH2 0x323F PUSH32 0xEC3E249D1E79CCDDD41FBEA8FAEBF159AD954E9C6934AC95FFA4165FE57CD80A PUSH1 0x0 SHL PUSH2 0x488D JUMP JUMPDEST JUMPDEST PUSH2 0x326C PUSH32 0xBF0B68FFBF6833420F4AE55CDB27B163A35BBA641F2367E53E0AC6A705FA6D07 PUSH1 0x0 SHL PUSH2 0x488D JUMP JUMPDEST PUSH2 0x3298 PUSH32 0x50C5670D11574CC24827F15F7DC07A763122B782472339AD8AEDAF792C3EE278 PUSH1 0x0 SHL PUSH2 0x488D JUMP JUMPDEST PUSH1 0x0 DUP2 GT ISZERO PUSH2 0x3357 JUMPI PUSH2 0x32CD PUSH32 0x61A4A6EE297CB744410E3EB76B84FDDBD002F9B2567A637871F6CFD895EE2EB7 PUSH1 0x0 SHL PUSH2 0x488D JUMP JUMPDEST PUSH2 0x32F9 PUSH32 0xE35EAF841EC94A2A045BDFDB4BF59191B45BFB2A95E449396308606BE5BE9A20 PUSH1 0x0 SHL PUSH2 0x488D JUMP JUMPDEST PUSH2 0x3325 PUSH32 0x2CCDAC0A742921AD13C709BA2B0C7B9CAF504F0950F68C8728C48D5F2FBB22D4 PUSH1 0x0 SHL PUSH2 0x488D JUMP JUMPDEST PUSH2 0x3352 PUSH2 0x160 PUSH1 0x0 SWAP1 SLOAD SWAP1 PUSH2 0x100 EXP SWAP1 DIV PUSH20 0xFFFFFFFFFFFFFFFFFFFFFFFFFFFFFFFFFFFFFFFF AND DUP3 PUSH2 0x4A3D JUMP JUMPDEST PUSH2 0x3384 JUMP JUMPDEST PUSH2 0x3383 PUSH32 0x1C9AC2B0A5F5085629F9A0589EE9B0AD6976C6CF458D5C34578F8F27EF199D0F PUSH1 0x0 SHL PUSH2 0x488D JUMP JUMPDEST JUMPDEST PUSH2 0x33B0 PUSH32 0xBFE9AA05743AD7A3C8E9D904DB1098EB154B6D9E96B5D35FF52FFFBB866E2949 PUSH1 0x0 SHL PUSH2 0x488D JUMP JUMPDEST PUSH2 0x33DC PUSH32 0xD73C3A2D5B778947BD881F994E5F3269EBC3F5EE1AF0B7B0FA0F723D7CA8072C PUSH1 0x0 SHL PUSH2 0x488D JUMP JUMPDEST DUP3 DUP5 DUP7 PUSH20 0xFFFFFFFFFFFFFFFFFFFFFFFFFFFFFFFFFFFFFFFF AND PUSH32 0x6A5CC13C9F93B7A2AF752BB0BDA4958DEB252B326DED3266F786CA784560025 PUSH1 0x40 MLOAD PUSH1 0x40 MLOAD DUP1 SWAP2 SUB SWAP1 LOG4 PUSH2 0x344D PUSH32 0x7152E3387F47C0623A3F1D7D7FFF98540800A28FC1FCE866A4A08ECC213CC37F PUSH1 0x0 SHL PUSH2 0x488D JUMP JUMPDEST PUSH2 0x3479 PUSH32 0x970D7D29B5F8455E34CAEB3E243984FF93041167A3DF5E600F3D29457D13C73D PUSH1 0x0 SHL PUSH2 0x488D JUMP JUMPDEST DUP3 DUP2 PUSH2 0x160 PUSH1 0x0 SWAP1 SLOAD SWAP1 PUSH2 0x100 EXP SWAP1 DIV PUSH20 0xFFFFFFFFFFFFFFFFFFFFFFFFFFFFFFFFFFFFFFFF AND PUSH20 0xFFFFFFFFFFFFFFFFFFFFFFFFFFFFFFFFFFFFFFFF AND PUSH32 0xB90103C5976493D20060202415867DDF1081E70322C45B6F19BFDBE384B14F51 PUSH1 0x40 MLOAD PUSH1 0x40 MLOAD DUP1 SWAP2 SUB SWAP1 LOG4 PUSH2 0x350D PUSH32 0xD83EDD669511901D54FC8DF5C077165EA23C6C612C05CDB1688614112158B94C PUSH1 0x0 SHL PUSH2 0x488D JUMP JUMPDEST PUSH2 0x3539 PUSH32 0x8238213CDB270975EBD51AF7C4F9C81AD310B1F6AD13313DEC4A65072AD9C7B7 PUSH1 0x0 SHL PUSH2 0x488D JUMP JUMPDEST PUSH2 0x3543 DUP6 DUP6 PUSH2 0x52D3 JUMP JUMPDEST POP POP POP POP POP JUMP JUMPDEST PUSH32 0x4B8072D94804AA443F85286056C4CB9FDA8B35E0A826D9959C80AA89382B0F26 PUSH2 0x3574 DUP2 PUSH2 0x4879 JUMP JUMPDEST DUP4 PUSH2 0x35A1 PUSH32 0xFA690EBE8614D334661B6D0ED5ADC472D493CC3C2DAB844A0320C9543DD11D08 PUSH1 0x0 SHL PUSH2 0x488D JUMP JUMPDEST PUSH2 0x35CD PUSH32 0xB39EF8EAD78DF65C33F9B2EA315A7FEE441DC5136C61CE77F537A2F8858445A3 PUSH1 0x0 SHL PUSH2 0x488D JUMP JUMPDEST PUSH2 0x35F9 PUSH32 0xCA62C6EB42840D4CBDE97647689AE2CF9097F809E2D506459B7DE1085BD8F569 PUSH1 0x0 SHL PUSH2 0x488D JUMP JUMPDEST PUSH2 0x3625 PUSH32 0xB02BA62969FAE017DCDFC16EB38FE7D93CA96C7A69B1B3A71260583584B1A30B PUSH1 0x0 SHL PUSH2 0x488D JUMP JUMPDEST PUSH2 0x364F PUSH32 0xAEE674C6ADA01C6D4EE4067D160FFDACC9CC9ABA7CA34516F8C9FF75FDC8D723 DUP3 PUSH2 0x2DB5 JUMP JUMPDEST PUSH2 0x368E JUMPI PUSH1 0x40 MLOAD PUSH32 0x8C379A000000000000000000000000000000000000000000000000000000000 DUP2 MSTORE PUSH1 0x4 ADD PUSH2 0x3685 SWAP1 PUSH2 0x67D0 JUMP JUMPDEST PUSH1 0x40 MLOAD DUP1 SWAP2 SUB SWAP1 REVERT JUMPDEST PUSH2 0x36BA PUSH32 0xABFB0FEF4655E8D90307725E1ADAAFC3B889E683C47CC14E4DEC7ED90E872CAE PUSH1 0x0 SHL PUSH2 0x488D JUMP JUMPDEST PUSH2 0x36E6 PUSH32 0x3FF8571BAFE64987C8C7BA35EFE0FE175C057A3CD33F231FD8D546D88F22C9F7 PUSH1 0x0 SHL PUSH2 0x488D JUMP JUMPDEST PUSH2 0x3712 PUSH32 0x5765E2CAC1CA209C539F776862F07D473B09C70700A472EC894AE186708CD206 PUSH1 0x0 SHL PUSH2 0x488D JUMP JUMPDEST PUSH2 0x373E PUSH32 0xE5F30FF521CC73D83957FA717A0CC7791F84E1F3F9CE0D6ABA8F751D01020C69 PUSH1 0x0 SHL PUSH2 0x488D JUMP JUMPDEST PUSH2 0x376A PUSH32 0x1B38798A84DB68B230DBB1BB213C1B2AFA1764B9F5079BB871CA72DEF55EAC6D PUSH1 0x0 SHL PUSH2 0x488D JUMP JUMPDEST PUSH1 0x0 PUSH2 0x3777 DUP7 DUP7 DUP7 PUSH2 0x4B95 JUMP JUMPDEST SWAP1 POP PUSH2 0x37A5 PUSH32 0x32FC64BFF4A78C4B1E1CD3F39035FD680D93AC03104752C23D1F4FF73F0FB1EC PUSH1 0x0 SHL PUSH2 0x488D JUMP JUMPDEST PUSH2 0x37D1 PUSH32 0xF6262387AEC3FB6A138F02764A1CE2996C31985C1AD8EB316F66E4597250C6F7 PUSH1 0x0 SHL PUSH2 0x488D JUMP JUMPDEST PUSH2 0x37FD PUSH32 0xB95AF2F52F8099A2B37141B4B92B5819D59F6479674E803BD5FB26597FED309C PUSH1 0x0 SHL PUSH2 0x488D JUMP JUMPDEST TIMESTAMP PUSH2 0x163 PUSH1 0x0 DUP4 DUP2 MSTORE PUSH1 0x20 ADD SWAP1 DUP2 MSTORE PUSH1 0x20 ADD PUSH1 0x0 KECCAK256 SLOAD GT ISZERO PUSH2 0x3854 JUMPI PUSH1 0x40 MLOAD PUSH32 0x8C379A000000000000000000000000000000000000000000000000000000000 DUP2 MSTORE PUSH1 0x4 ADD PUSH2 0x384B SWAP1 PUSH2 0x6D86 JUMP JUMPDEST PUSH1 0x40 MLOAD DUP1 SWAP2 SUB SWAP1 REVERT JUMPDEST PUSH2 0x3880 PUSH32 0x9D36F69DF956916B338995D2D9DA4BB6071FE4346138D020B12DFF628D39E240 PUSH1 0x0 SHL PUSH2 0x488D JUMP JUMPDEST PUSH2 0x38AC PUSH32 0x353D481A41DADA661F4E09B4EF73D91BE4CC2FF77E79524F88A8027081B9B6BB PUSH1 0x0 SHL PUSH2 0x488D JUMP JUMPDEST PUSH2 0x38D8 PUSH32 0xC7B128AB6D444EEED6A64AC0A052D4C97A72D78EBC00599AB7C141E5EE7C267A PUSH1 0x0 SHL PUSH2 0x488D JUMP JUMPDEST PUSH1 0x0 PUSH2 0x3906 PUSH32 0xA68C5F71FAC1542459FDDFCBF1606E36B10877504EBAD0FFC3531EE706D5E531 PUSH1 0x0 SHL PUSH2 0x488D JUMP JUMPDEST PUSH2 0x3932 PUSH32 0xF060C20D645D8345A4218CE99D45D797586D91A79ECDDCE4EFA74D6C96AAE3A4 PUSH1 0x0 SHL PUSH2 0x488D JUMP JUMPDEST PUSH1 0x1 ISZERO ISZERO PUSH2 0x160 PUSH1 0x14 SWAP1 SLOAD SWAP1 PUSH2 0x100 EXP SWAP1 DIV PUSH1 0xFF AND ISZERO ISZERO EQ PUSH2 0x39E2 JUMPI PUSH2 0x397A PUSH32 0x916473CB88D744162DF60DF2F420C8D807CA7202327E856BCB0B5FE653806BB8 PUSH1 0x0 SHL PUSH2 0x488D JUMP JUMPDEST PUSH2 0x39A6 PUSH32 0x8A9B5A9143517542F8B0D8570CEE20D88DFDCDA9667CABD5A1160CE5EB3CD2B0 PUSH1 0x0 SHL PUSH2 0x488D JUMP JUMPDEST PUSH2 0x39D2 PUSH32 0x9ED509BB705035EC19917E7F86E609AA8BB5F74E6B3F545AF616CAA29711899E PUSH1 0x0 SHL PUSH2 0x488D JUMP JUMPDEST PUSH2 0x39DB DUP7 PUSH2 0x4890 JUMP JUMPDEST SWAP1 POP PUSH2 0x3A0F JUMP JUMPDEST PUSH2 0x3A0E PUSH32 0xA96B33596E68954D7ECD142297A1D984699B4A4EE34542441250C3A148848643 PUSH1 0x0 SHL PUSH2 0x488D JUMP JUMPDEST JUMPDEST PUSH2 0x3A3B PUSH32 0xBC8C569EC93DC518F362EFDE42516CC053692971399F351EE52CADBED25F6221 PUSH1 0x0 SHL PUSH2 0x488D JUMP JUMPDEST PUSH2 0x3A67 PUSH32 0xB21CF3DAEBF189356FE4ACEAF36AAFA1372D601E4BFF356D41C00D5823D769AC PUSH1 0x0 SHL PUSH2 0x488D JUMP JUMPDEST PUSH1 0x0 DUP2 DUP8 PUSH2 0x3A75 SWAP2 SWAP1 PUSH2 0x681F JUMP JUMPDEST SWAP1 POP PUSH2 0x3AA3 PUSH32 0xDC75D909D8B5336DE09E920D30A4FE964FCE0134237117D951817755CF37D82 PUSH1 0x0 SHL PUSH2 0x488D JUMP JUMPDEST PUSH2 0x3ACF PUSH32 0x52EF8F6F5EAD7A2A35BAA70EEB62FD51CD3E37479A2B4688FEF20511E646A01A PUSH1 0x0 SHL PUSH2 0x488D JUMP JUMPDEST DUP6 DUP2 DUP10 PUSH20 0xFFFFFFFFFFFFFFFFFFFFFFFFFFFFFFFFFFFFFFFF AND PUSH32 0xB279743E0218314D88B387012A6B7E94FF79B811C536AB5E40D6527EA265FF2C PUSH1 0x40 MLOAD PUSH1 0x40 MLOAD DUP1 SWAP2 SUB SWAP1 LOG4 PUSH2 0x3B40 PUSH32 0xA7E126DFD26C807A3B60D31F7C472429D3FEF99F98E1046F224AD5E12CBC0E45 PUSH1 0x0 SHL PUSH2 0x488D JUMP JUMPDEST PUSH2 0x3B6C PUSH32 0x623914C1D94F6AF7DD20679CD34EF17E72A3FB590BC6D4FD737DD0C48842A884 PUSH1 0x0 SHL PUSH2 0x488D JUMP JUMPDEST DUP6 DUP3 PUSH2 0x160 PUSH1 0x0 SWAP1 SLOAD SWAP1 PUSH2 0x100 EXP SWAP1 DIV PUSH20 0xFFFFFFFFFFFFFFFFFFFFFFFFFFFFFFFFFFFFFFFF AND PUSH20 0xFFFFFFFFFFFFFFFFFFFFFFFFFFFFFFFFFFFFFFFF AND PUSH32 0x1F8174BDBEC9563F21F6AA0AB97118362E35FD5B104B486A0FA2D754CAD41E51 PUSH1 0x40 MLOAD PUSH1 0x40 MLOAD DUP1 SWAP2 SUB SWAP1 LOG4 PUSH2 0x3C00 PUSH32 0x8636780A95389489871AF1A44E1085A9BF5FF72D29E44C659421D308753724E6 PUSH1 0x0 SHL PUSH2 0x488D JUMP JUMPDEST PUSH2 0x3C2C PUSH32 0xE35BF6962504231771040068DBC886504A09D3951B4839FA1E548FCC67CBE2E7 PUSH1 0x0 SHL PUSH2 0x488D JUMP JUMPDEST PUSH1 0x0 DUP3 GT ISZERO PUSH2 0x3CEB JUMPI PUSH2 0x3C61 PUSH32 0x321F8E24CAB7294250A92A17FE9C32D2B5E2D988004B9F29AB3050DEC30238D5 PUSH1 0x0 SHL PUSH2 0x488D JUMP JUMPDEST PUSH2 0x3C8D PUSH32 0x8EC605381A67600CE191810B4D4A35B284A5E566BD95B88790ACBC55CFC992F5 PUSH1 0x0 SHL PUSH2 0x488D JUMP JUMPDEST PUSH2 0x3CB9 PUSH32 0x96014709A1E444C3D371EF12DC75A97AEEBA810326428DCC8810FF3CAD5794F5 PUSH1 0x0 SHL PUSH2 0x488D JUMP JUMPDEST PUSH2 0x3CE6 PUSH2 0x160 PUSH1 0x0 SWAP1 SLOAD SWAP1 PUSH2 0x100 EXP SWAP1 DIV PUSH20 0xFFFFFFFFFFFFFFFFFFFFFFFFFFFFFFFFFFFFFFFF AND DUP4 PUSH2 0x4A3D JUMP JUMPDEST PUSH2 0x3D18 JUMP JUMPDEST PUSH2 0x3D17 PUSH32 0x1448CF36A111443BB6E936D29A2675FBECEB410F23CBAED4EB031E1047FC57D5 PUSH1 0x0 SHL PUSH2 0x488D JUMP JUMPDEST JUMPDEST PUSH2 0x3D44 PUSH32 0xCA61B16DF0E9C79BF06121D776AB4D61C8DE799A1ED10C8B6A248989A7B2596E PUSH1 0x0 SHL PUSH2 0x488D JUMP JUMPDEST PUSH2 0x3D70 PUSH32 0xE37B3EF58A65326E173D6D928A6F29F81B3A00C4D230098D27934EC4FF04843A PUSH1 0x0 SHL PUSH2 0x488D JUMP JUMPDEST PUSH2 0x3D7A DUP9 DUP3 PUSH2 0x4A3D JUMP JUMPDEST PUSH2 0x3DA6 PUSH32 0x1D4B5C5D28C597E61931B031E2D8D8CDA9A4037FF64930BA277BBA1F6E282406 PUSH1 0x0 SHL PUSH2 0x488D JUMP JUMPDEST PUSH2 0x163 PUSH1 0x0 DUP5 DUP2 MSTORE PUSH1 0x20 ADD SWAP1 DUP2 MSTORE PUSH1 0x20 ADD PUSH1 0x0 KECCAK256 PUSH1 0x0 SWAP1 SSTORE POP POP POP POP POP POP POP POP JUMP JUMPDEST PUSH2 0x160 PUSH1 0x0 SWAP1 SLOAD SWAP1 PUSH2 0x100 EXP SWAP1 DIV PUSH20 0xFFFFFFFFFFFFFFFFFFFFFFFFFFFFFFFFFFFFFFFF AND DUP2 JUMP JUMPDEST PUSH32 0x8A639721758084B2FF869ED05CEE658AAB46E6BDC69BCA1B006BAE9F55613C59 PUSH2 0x3E19 DUP2 PUSH2 0x4879 JUMP JUMPDEST PUSH2 0x3E45 PUSH32 0x28AC6F1A048D1B0054A73106BE0434029F2AA63931F69700005E48B81D3B1CD6 PUSH1 0x0 SHL PUSH2 0x488D JUMP JUMPDEST PUSH2 0x3E71 PUSH32 0x1C3CC1DCC3C0DF2C23491238A07D4B3F18CBC67DF8B38681A800B6DFBE8538A4 PUSH1 0x0 SHL PUSH2 0x488D JUMP JUMPDEST PUSH2 0x3E9D PUSH32 0x6436A5F73672F73F68B2C3E388A32F0485440A84BD1FBE9396908F57F7EBDCFA PUSH1 0x0 SHL PUSH2 0x488D JUMP JUMPDEST PUSH2 0x3EC9 PUSH32 0x87639DB2D70B2BA4CD6683CA429F231701C6C06B362463972D4075ADFC92A986 PUSH1 0x0 SHL PUSH2 0x488D JUMP JUMPDEST PUSH1 0x0 PUSH3 0xF4240 DUP4 PUSH2 0x3EDA SWAP2 SWAP1 PUSH2 0x6DA6 JUMP JUMPDEST EQ PUSH2 0x3F1A JUMPI PUSH1 0x40 MLOAD PUSH32 0x8C379A000000000000000000000000000000000000000000000000000000000 DUP2 MSTORE PUSH1 0x4 ADD PUSH2 0x3F11 SWAP1 PUSH2 0x6E49 JUMP JUMPDEST PUSH1 0x40 MLOAD DUP1 SWAP2 SUB SWAP1 REVERT JUMPDEST PUSH2 0x3F46 PUSH32 0x5670445E181D50595BE4B0EC1579363250E21B602A2C78540861656BA6EA7B8A PUSH1 0x0 SHL PUSH2 0x488D JUMP JUMPDEST PUSH2 0x3F72 PUSH32 0xCD6CFBCF56CEACFC6EDF1EC8BE1B464B01E8F26986E45A085B1FC37F3492D4B5 PUSH1 0x0 SHL PUSH2 0x488D JUMP JUMPDEST PUSH2 0x3F9E PUSH32 0x6D4A62348CE0636001FBC4FAF23C474DE9B159D6CF45371F72D64B975FF2E0E7 PUSH1 0x0 SHL PUSH2 0x488D JUMP JUMPDEST PUSH2 0x3FCA PUSH32 0x3F45DAB95BEF2DBD478007DE7BA66AAA1C69745605C47C2627DC19E24D8F8D62 PUSH1 0x0 SHL PUSH2 0x488D JUMP JUMPDEST PUSH4 0x5F5E100 DUP3 GT ISZERO PUSH2 0x4011 JUMPI PUSH1 0x40 MLOAD PUSH32 0x8C379A000000000000000000000000000000000000000000000000000000000 DUP2 MSTORE PUSH1 0x4 ADD PUSH2 0x4008 SWAP1 PUSH2 0x6EB5 JUMP JUMPDEST PUSH1 0x40 MLOAD DUP1 SWAP2 SUB SWAP1 REVERT JUMPDEST PUSH2 0x403D PUSH32 0x89053300F6140D178E8C989C3ADF05BD14306D272993E937084FDD3812DEA79E PUSH1 0x0 SHL PUSH2 0x488D JUMP JUMPDEST PUSH2 0x4069 PUSH32 0x39C61F52CE770E25E03A052BDD7E0E8A1DD9FD8E876E850CA207DB1D80824D43 PUSH1 0x0 SHL PUSH2 0x488D JUMP JUMPDEST PUSH2 0x4095 PUSH32 0x5F73AA25D4FDCF9FA0D4688DB4D9D2D8537479CEEA5F3AA2566D0FA40E83D7D5 PUSH1 0x0 SHL PUSH2 0x488D JUMP JUMPDEST DUP2 PUSH2 0x15F DUP2 SWAP1 SSTORE POP POP POP JUMP JUMPDEST PUSH1 0x0 PUSH2 0x40BF PUSH2 0x12D PUSH1 0x0 DUP5 DUP2 MSTORE PUSH1 0x20 ADD SWAP1 DUP2 MSTORE PUSH1 0x20 ADD PUSH1 0x0 KECCAK256 PUSH2 0x54A3 JUMP JUMPDEST SWAP1 POP SWAP2 SWAP1 POP JUMP JUMPDEST PUSH1 0x0 DUP1 SHL PUSH2 0x40D3 DUP2 PUSH2 0x4879 JUMP JUMPDEST PUSH2 0x40FF PUSH32 0x45D0D2904E62CADA2F2FD9F2F01BE76278C215DDBE3A6C436DFAC144082B8A52 PUSH1 0x0 SHL PUSH2 0x488D JUMP JUMPDEST PUSH2 0x412B PUSH32 0xD3465456328CAEA971A4D149328ADC93E8EEC0D3B5CEE23866A739668B81D6DD PUSH1 0x0 SHL PUSH2 0x488D JUMP JUMPDEST PUSH2 0x4157 PUSH32 0x1AF96E17F3BD60D836D765CDD864329DD17260492B20CD51C0516BEB3E30C049 PUSH1 0x0 SHL PUSH2 0x488D JUMP JUMPDEST DUP5 PUSH2 0x160 PUSH1 0x15 PUSH2 0x100 EXP DUP2 SLOAD DUP2 PUSH1 0xFF MUL NOT AND SWAP1 DUP4 ISZERO ISZERO MUL OR SWAP1 SSTORE POP PUSH2 0x419E PUSH32 0x2AFDAF575C6AA079DF5169383703FE3B60D3BAF692C2953ACB89DE2DE5462BA7 PUSH1 0x0 SHL PUSH2 0x488D JUMP JUMPDEST PUSH2 0x41CA PUSH32 0x3F4CEEE0D7A816928CFCC0A13DDA26CFEADC4285FCC162BAC8F289140BCE8E92 PUSH1 0x0 SHL PUSH2 0x488D JUMP JUMPDEST DUP4 PUSH2 0x160 PUSH1 0x14 PUSH2 0x100 EXP DUP2 SLOAD DUP2 PUSH1 0xFF MUL NOT AND SWAP1 DUP4 ISZERO ISZERO MUL OR SWAP1 SSTORE POP PUSH2 0x4211 PUSH32 0x5983C4BF4FDD38A1B92A53B2C46A2F4C04D4CE693A6A44B62234C3B1FFBDA167 PUSH1 0x0 SHL PUSH2 0x488D JUMP JUMPDEST PUSH2 0x423D PUSH32 0x695F28A3BE37E5983F7A04FE41FE99064E74F9ACAEF706107D768F53E80290AE PUSH1 0x0 SHL PUSH2 0x488D JUMP JUMPDEST DUP3 PUSH2 0x162 DUP2 SWAP1 SSTORE POP PUSH2 0x4271 PUSH32 0x5ACF5D682FC14561EDC92A2C5B5A00FBCFCCCB99FE515D88EA5205CE8AEDE757 PUSH1 0x0 SHL PUSH2 0x488D JUMP JUMPDEST PUSH2 0x429D PUSH32 0xA65688F38E02D99856D63B0EB6FBCD740885C18F59BB68F1696C5F3B16DBDD2A PUSH1 0x0 SHL PUSH2 0x488D JUMP JUMPDEST DUP2 PUSH2 0x161 DUP2 SWAP1 SSTORE POP POP POP POP POP POP JUMP JUMPDEST PUSH32 0x9F2DF0FED2C77648DE5860A4CC508CD0818C85B8B8A1AB4CEEEF8D981C8956A6 DUP2 JUMP JUMPDEST PUSH2 0x42FC PUSH32 0x71797E9064882ABD9668F445F6F2F53618DC806E88A843D92FC9CC2AD47574B9 PUSH1 0x0 SHL PUSH2 0x488D JUMP JUMPDEST PUSH2 0x4328 PUSH32 0xB8209C50C451987C8975181AF614CB3EE6EB22019C6A352B32068F2C9EA89627 PUSH1 0x0 SHL PUSH2 0x488D JUMP JUMPDEST PUSH2 0x4354 PUSH32 0x39649E90BADD0D0FAD171CE3BAF3035A5C67C0E56AD7BF0CFBCC29FBE3F5F50D PUSH1 0x0 SHL PUSH2 0x488D JUMP JUMPDEST PUSH1 0x0 DUP1 SHL DUP3 EQ ISZERO PUSH2 0x448B JUMPI PUSH2 0x438B PUSH32 0xA3B231BCA37CB34779659123F43B9CA60F3372905F05572CEEA49203A203D5B PUSH1 0x0 SHL PUSH2 0x488D JUMP JUMPDEST PUSH2 0x43B7 PUSH32 0x1315669DB18CEFAF71B33223DBB1BFDB1736A970432F378F5D8430DB5A6C3709 PUSH1 0x0 SHL PUSH2 0x488D JUMP JUMPDEST PUSH2 0x43E3 PUSH32 0x8BC99F2C183851842A8586EF8B5F707EA39A72626CE6A69F66EC42E79A2FF562 PUSH1 0x0 SHL PUSH2 0x488D JUMP JUMPDEST PUSH2 0x440F PUSH32 0xD0E3088661030138EC3E0CFED580A3FD987875A44E71560437D16F9BAFC2629E PUSH1 0x0 SHL PUSH2 0x488D JUMP JUMPDEST PUSH1 0x1 PUSH2 0x441A DUP4 PUSH2 0x40A1 JUMP JUMPDEST GT PUSH2 0x445A JUMPI PUSH1 0x40 MLOAD PUSH32 0x8C379A000000000000000000000000000000000000000000000000000000000 DUP2 MSTORE PUSH1 0x4 ADD PUSH2 0x4451 SWAP1 PUSH2 0x690B JUMP JUMPDEST PUSH1 0x40 MLOAD DUP1 SWAP2 SUB SWAP1 REVERT JUMPDEST PUSH2 0x4486 PUSH32 0x827EBF6DE529FFA742A48B0C242D578F9884177C535C4AE081CE351BF16EC467 PUSH1 0x0 SHL PUSH2 0x488D JUMP JUMPDEST PUSH2 0x44B8 JUMP JUMPDEST PUSH2 0x44B7 PUSH32 0xEEF60C6519884F13E3E94EE32E24ABAD17C17FAE5628D73556DE17909F501B68 PUSH1 0x0 SHL PUSH2 0x488D JUMP JUMPDEST JUMPDEST PUSH2 0x44E4 PUSH32 0xEF21BCA17BC6E5713A769FDCC37DBD66EBB5F0593D442DCCE95124897BA10957 PUSH1 0x0 SHL PUSH2 0x488D JUMP JUMPDEST PUSH2 0x4510 PUSH32 0x4DDB2CDF64E9E33969098AE9352415568B0D9AFBC296BDB7EEDCCB37E4A2770A PUSH1 0x0 SHL PUSH2 0x488D JUMP JUMPDEST PUSH2 0x451A DUP3 DUP3 PUSH2 0x54B8 JUMP JUMPDEST POP POP JUMP JUMPDEST PUSH2 0x162 SLOAD DUP2 JUMP JUMPDEST PUSH32 0x4B8072D94804AA443F85286056C4CB9FDA8B35E0A826D9959C80AA89382B0F26 DUP2 JUMP JUMPDEST PUSH1 0x0 PUSH1 0x34 PUSH1 0x0 DUP5 PUSH20 0xFFFFFFFFFFFFFFFFFFFFFFFFFFFFFFFFFFFFFFFF AND PUSH20 0xFFFFFFFFFFFFFFFFFFFFFFFFFFFFFFFFFFFFFFFF AND DUP2 MSTORE PUSH1 0x20 ADD SWAP1 DUP2 MSTORE PUSH1 0x20 ADD PUSH1 0x0 KECCAK256 PUSH1 0x0 DUP4 PUSH20 0xFFFFFFFFFFFFFFFFFFFFFFFFFFFFFFFFFFFFFFFF AND PUSH20 0xFFFFFFFFFFFFFFFFFFFFFFFFFFFFFFFFFFFFFFFF AND DUP2 MSTORE PUSH1 0x20 ADD SWAP1 DUP2 MSTORE PUSH1 0x20 ADD PUSH1 0x0 KECCAK256 SLOAD SWAP1 POP SWAP3 SWAP2 POP POP JUMP JUMPDEST PUSH32 0x65D7A28E3265B37A6474929F336521B332C1681B933F6CB9F3376673440D862A DUP2 JUMP JUMPDEST PUSH32 0xAEE674C6ADA01C6D4EE4067D160FFDACC9CC9ABA7CA34516F8C9FF75FDC8D723 DUP2 JUMP JUMPDEST PUSH2 0x160 PUSH1 0x15 SWAP1 SLOAD SWAP1 PUSH2 0x100 EXP SWAP1 DIV PUSH1 0xFF AND DUP2 JUMP JUMPDEST PUSH1 0x0 PUSH32 0x7965DB0B00000000000000000000000000000000000000000000000000000000 PUSH28 0xFFFFFFFFFFFFFFFFFFFFFFFFFFFFFFFFFFFFFFFFFFFFFFFFFFFFFFFF NOT AND DUP3 PUSH28 0xFFFFFFFFFFFFFFFFFFFFFFFFFFFFFFFFFFFFFFFFFFFFFFFFFFFFFFFF NOT AND EQ DUP1 PUSH2 0x469F JUMPI POP PUSH2 0x469E DUP3 PUSH2 0x54D9 JUMP JUMPDEST JUMPDEST SWAP1 POP SWAP2 SWAP1 POP JUMP JUMPDEST PUSH1 0x0 CALLER SWAP1 POP SWAP1 JUMP JUMPDEST PUSH1 0x0 PUSH20 0xFFFFFFFFFFFFFFFFFFFFFFFFFFFFFFFFFFFFFFFF AND DUP4 PUSH20 0xFFFFFFFFFFFFFFFFFFFFFFFFFFFFFFFFFFFFFFFF AND EQ ISZERO PUSH2 0x471E JUMPI PUSH1 0x40 MLOAD PUSH32 0x8C379A000000000000000000000000000000000000000000000000000000000 DUP2 MSTORE PUSH1 0x4 ADD PUSH2 0x4715 SWAP1 PUSH2 0x6F47 JUMP JUMPDEST PUSH1 0x40 MLOAD DUP1 SWAP2 SUB SWAP1 REVERT JUMPDEST PUSH1 0x0 PUSH20 0xFFFFFFFFFFFFFFFFFFFFFFFFFFFFFFFFFFFFFFFF AND DUP3 PUSH20 0xFFFFFFFFFFFFFFFFFFFFFFFFFFFFFFFFFFFFFFFF AND EQ ISZERO PUSH2 0x478E JUMPI PUSH1 0x40 MLOAD PUSH32 0x8C379A000000000000000000000000000000000000000000000000000000000 DUP2 MSTORE PUSH1 0x4 ADD PUSH2 0x4785 SWAP1 PUSH2 0x6FD9 JUMP JUMPDEST PUSH1 0x40 MLOAD DUP1 SWAP2 SUB SWAP1 REVERT JUMPDEST DUP1 PUSH1 0x34 PUSH1 0x0 DUP6 PUSH20 0xFFFFFFFFFFFFFFFFFFFFFFFFFFFFFFFFFFFFFFFF AND PUSH20 0xFFFFFFFFFFFFFFFFFFFFFFFFFFFFFFFFFFFFFFFF AND DUP2 MSTORE PUSH1 0x20 ADD SWAP1 DUP2 MSTORE PUSH1 0x20 ADD PUSH1 0x0 KECCAK256 PUSH1 0x0 DUP5 PUSH20 0xFFFFFFFFFFFFFFFFFFFFFFFFFFFFFFFFFFFFFFFF AND PUSH20 0xFFFFFFFFFFFFFFFFFFFFFFFFFFFFFFFFFFFFFFFF AND DUP2 MSTORE PUSH1 0x20 ADD SWAP1 DUP2 MSTORE PUSH1 0x20 ADD PUSH1 0x0 KECCAK256 DUP2 SWAP1 SSTORE POP DUP2 PUSH20 0xFFFFFFFFFFFFFFFFFFFFFFFFFFFFFFFFFFFFFFFF AND DUP4 PUSH20 0xFFFFFFFFFFFFFFFFFFFFFFFFFFFFFFFFFFFFFFFF AND PUSH32 0x8C5BE1E5EBEC7D5BD14F71427D1E84F3DD0314C0F7B2291E5B200AC8C7C3B925 DUP4 PUSH1 0x40 MLOAD PUSH2 0x486C SWAP2 SWAP1 PUSH2 0x63FB JUMP JUMPDEST PUSH1 0x40 MLOAD DUP1 SWAP2 SUB SWAP1 LOG3 POP POP POP JUMP JUMPDEST PUSH2 0x488A DUP2 PUSH2 0x4885 PUSH2 0x46A6 JUMP JUMPDEST PUSH2 0x5543 JUMP JUMPDEST POP JUMP JUMPDEST POP JUMP JUMPDEST PUSH1 0x0 PUSH2 0x48BE PUSH32 0xA97AC07676F439B1136390B545B82C36D62C3BD3EC227670002217C7265BEA8A PUSH1 0x0 SHL PUSH2 0x488D JUMP JUMPDEST PUSH2 0x48EA PUSH32 0x31494113B28D1D6B3E2982B56EEA1E4C0CFE1F0D6CD904B35CE983075EA4B3DA PUSH1 0x0 SHL PUSH2 0x488D JUMP JUMPDEST PUSH2 0x4916 PUSH32 0xC9E8BD2C1D13F8D4FAC9809880FA846F0AED7EDA217EEE695B6AB0E2B004B640 PUSH1 0x0 SHL PUSH2 0x488D JUMP JUMPDEST PUSH2 0x4942 PUSH32 0x81EF0B1852E9E0B4A5188F289C16027DD1E50196B1E7D560BE7A5288ADBF2AC2 PUSH1 0x0 SHL PUSH2 0x488D JUMP JUMPDEST PUSH1 0x0 PUSH4 0x3B9ACA00 DUP4 PUSH2 0x4954 SWAP2 SWAP1 PUSH2 0x6DA6 JUMP JUMPDEST EQ PUSH2 0x4994 JUMPI PUSH1 0x40 MLOAD PUSH32 0x8C379A000000000000000000000000000000000000000000000000000000000 DUP2 MSTORE PUSH1 0x4 ADD PUSH2 0x498B SWAP1 PUSH2 0x7045 JUMP JUMPDEST PUSH1 0x40 MLOAD DUP1 SWAP2 SUB SWAP1 REVERT JUMPDEST PUSH2 0x49C0 PUSH32 0x918811F5E3BA3AE9BDE0C964FAC1ADD37E5EFCECF4EBE6248D976913748DB436 PUSH1 0x0 SHL PUSH2 0x488D JUMP JUMPDEST PUSH2 0x49EC PUSH32 0x68C68693EBDE930DCAE15727F324355225662E8C9F933489BE3CD703A8ED221A PUSH1 0x0 SHL PUSH2 0x488D JUMP JUMPDEST PUSH2 0x4A18 PUSH32 0x85B8EF22E627669F15A9268362005E4CC641D4F5BB5756E094FA770F2A28FA95 PUSH1 0x0 SHL PUSH2 0x488D JUMP JUMPDEST PUSH2 0x15F SLOAD PUSH4 0x3B9ACA00 DUP4 PUSH2 0x4A2C SWAP2 SWAP1 PUSH2 0x6A88 JUMP JUMPDEST PUSH2 0x4A36 SWAP2 SWAP1 PUSH2 0x6AB9 JUMP JUMPDEST SWAP1 POP SWAP2 SWAP1 POP JUMP JUMPDEST PUSH1 0x0 PUSH20 0xFFFFFFFFFFFFFFFFFFFFFFFFFFFFFFFFFFFFFFFF AND DUP3 PUSH20 0xFFFFFFFFFFFFFFFFFFFFFFFFFFFFFFFFFFFFFFFF AND EQ ISZERO PUSH2 0x4AAD JUMPI PUSH1 0x40 MLOAD PUSH32 0x8C379A000000000000000000000000000000000000000000000000000000000 DUP2 MSTORE PUSH1 0x4 ADD PUSH2 0x4AA4 SWAP1 PUSH2 0x70B1 JUMP JUMPDEST PUSH1 0x40 MLOAD DUP1 SWAP2 SUB SWAP1 REVERT JUMPDEST PUSH2 0x4AB9 PUSH1 0x0 DUP4 DUP4 PUSH2 0x55C8 JUMP JUMPDEST DUP1 PUSH1 0x35 PUSH1 0x0 DUP3 DUP3 SLOAD PUSH2 0x4ACB SWAP2 SWAP1 PUSH2 0x692B JUMP JUMPDEST SWAP3 POP POP DUP2 SWAP1 SSTORE POP DUP1 PUSH1 0x33 PUSH1 0x0 DUP5 PUSH20 0xFFFFFFFFFFFFFFFFFFFFFFFFFFFFFFFFFFFFFFFF AND PUSH20 0xFFFFFFFFFFFFFFFFFFFFFFFFFFFFFFFFFFFFFFFF AND DUP2 MSTORE PUSH1 0x20 ADD SWAP1 DUP2 MSTORE PUSH1 0x20 ADD PUSH1 0x0 KECCAK256 PUSH1 0x0 DUP3 DUP3 SLOAD ADD SWAP3 POP POP DUP2 SWAP1 SSTORE POP DUP2 PUSH20 0xFFFFFFFFFFFFFFFFFFFFFFFFFFFFFFFFFFFFFFFF AND PUSH1 0x0 PUSH20 0xFFFFFFFFFFFFFFFFFFFFFFFFFFFFFFFFFFFFFFFF AND PUSH32 0xDDF252AD1BE2C89B69C2B068FC378DAA952BA7F163C4A11628F55A4DF523B3EF DUP4 PUSH1 0x40 MLOAD PUSH2 0x4B7D SWAP2 SWAP1 PUSH2 0x63FB JUMP JUMPDEST PUSH1 0x40 MLOAD DUP1 SWAP2 SUB SWAP1 LOG3 PUSH2 0x4B91 PUSH1 0x0 DUP4 DUP4 PUSH2 0x5898 JUMP JUMPDEST POP POP JUMP JUMPDEST PUSH1 0x0 PUSH2 0x4BC3 PUSH32 0x8AF4AA09A3B33A66BAA1B3367180F5B134F3F49CA4A22655F7A6018BB219528B PUSH1 0x0 SHL PUSH2 0x488D JUMP JUMPDEST PUSH2 0x4BEF PUSH32 0x427FFCE12713AE75861C750E8FF3F03CC68A150537F27BCF565913C483958FFD PUSH1 0x0 SHL PUSH2 0x488D JUMP JUMPDEST PUSH2 0x4C1B PUSH32 0xE28B97E09572736656DE1307D65E76EF7F07E9B9E79B76E70AAB12C1D6EF3620 PUSH1 0x0 SHL PUSH2 0x488D JUMP JUMPDEST DUP4 DUP4 DUP4 PUSH1 0x40 MLOAD PUSH1 0x20 ADD PUSH2 0x4C30 SWAP4 SWAP3 SWAP2 SWAP1 PUSH2 0x715B JUMP JUMPDEST PUSH1 0x40 MLOAD PUSH1 0x20 DUP2 DUP4 SUB SUB DUP2 MSTORE SWAP1 PUSH1 0x40 MSTORE DUP1 MLOAD SWAP1 PUSH1 0x20 ADD KECCAK256 SWAP1 POP SWAP4 SWAP3 POP POP POP JUMP JUMPDEST PUSH1 0x0 PUSH2 0x4C5B DUP5 DUP5 PUSH2 0x4549 JUMP JUMPDEST SWAP1 POP PUSH32 0xFFFFFFFFFFFFFFFFFFFFFFFFFFFFFFFFFFFFFFFFFFFFFFFFFFFFFFFFFFFFFFFF DUP2 EQ PUSH2 0x4CD5 JUMPI DUP2 DUP2 LT ISZERO PUSH2 0x4CC7 JUMPI PUSH1 0x40 MLOAD PUSH32 0x8C379A000000000000000000000000000000000000000000000000000000000 DUP2 MSTORE PUSH1 0x4 ADD PUSH2 0x4CBE SWAP1 PUSH2 0x71E4 JUMP JUMPDEST PUSH1 0x40 MLOAD DUP1 SWAP2 SUB SWAP1 REVERT JUMPDEST PUSH2 0x4CD4 DUP5 DUP5 DUP5 DUP5 SUB PUSH2 0x46AE JUMP JUMPDEST JUMPDEST POP POP POP POP JUMP JUMPDEST PUSH1 0x0 PUSH20 0xFFFFFFFFFFFFFFFFFFFFFFFFFFFFFFFFFFFFFFFF AND DUP4 PUSH20 0xFFFFFFFFFFFFFFFFFFFFFFFFFFFFFFFFFFFFFFFF AND EQ ISZERO PUSH2 0x4D4B JUMPI PUSH1 0x40 MLOAD PUSH32 0x8C379A000000000000000000000000000000000000000000000000000000000 DUP2 MSTORE PUSH1 0x4 ADD PUSH2 0x4D42 SWAP1 PUSH2 0x7276 JUMP JUMPDEST PUSH1 0x40 MLOAD DUP1 SWAP2 SUB SWAP1 REVERT JUMPDEST PUSH1 0x0 PUSH20 0xFFFFFFFFFFFFFFFFFFFFFFFFFFFFFFFFFFFFFFFF AND DUP3 PUSH20 0xFFFFFFFFFFFFFFFFFFFFFFFFFFFFFFFFFFFFFFFF AND EQ ISZERO PUSH2 0x4DBB JUMPI PUSH1 0x40 MLOAD PUSH32 0x8C379A000000000000000000000000000000000000000000000000000000000 DUP2 MSTORE PUSH1 0x4 ADD PUSH2 0x4DB2 SWAP1 PUSH2 0x7308 JUMP JUMPDEST PUSH1 0x40 MLOAD DUP1 SWAP2 SUB SWAP1 REVERT JUMPDEST PUSH2 0x4DC6 DUP4 DUP4 DUP4 PUSH2 0x55C8 JUMP JUMPDEST PUSH1 0x0 PUSH1 0x33 PUSH1 0x0 DUP6 PUSH20 0xFFFFFFFFFFFFFFFFFFFFFFFFFFFFFFFFFFFFFFFF AND PUSH20 0xFFFFFFFFFFFFFFFFFFFFFFFFFFFFFFFFFFFFFFFF AND DUP2 MSTORE PUSH1 0x20 ADD SWAP1 DUP2 MSTORE PUSH1 0x20 ADD PUSH1 0x0 KECCAK256 SLOAD SWAP1 POP DUP2 DUP2 LT ISZERO PUSH2 0x4E4D JUMPI PUSH1 0x40 MLOAD PUSH32 0x8C379A000000000000000000000000000000000000000000000000000000000 DUP2 MSTORE PUSH1 0x4 ADD PUSH2 0x4E44 SWAP1 PUSH2 0x739A JUMP JUMPDEST PUSH1 0x40 MLOAD DUP1 SWAP2 SUB SWAP1 REVERT JUMPDEST DUP2 DUP2 SUB PUSH1 0x33 PUSH1 0x0 DUP7 PUSH20 0xFFFFFFFFFFFFFFFFFFFFFFFFFFFFFFFFFFFFFFFF AND PUSH20 0xFFFFFFFFFFFFFFFFFFFFFFFFFFFFFFFFFFFFFFFF AND DUP2 MSTORE PUSH1 0x20 ADD SWAP1 DUP2 MSTORE PUSH1 0x20 ADD PUSH1 0x0 KECCAK256 DUP2 SWAP1 SSTORE POP DUP2 PUSH1 0x33 PUSH1 0x0 DUP6 PUSH20 0xFFFFFFFFFFFFFFFFFFFFFFFFFFFFFFFFFFFFFFFF AND PUSH20 0xFFFFFFFFFFFFFFFFFFFFFFFFFFFFFFFFFFFFFFFF AND DUP2 MSTORE PUSH1 0x20 ADD SWAP1 DUP2 MSTORE PUSH1 0x20 ADD PUSH1 0x0 KECCAK256 PUSH1 0x0 DUP3 DUP3 SLOAD ADD SWAP3 POP POP DUP2 SWAP1 SSTORE POP DUP3 PUSH20 0xFFFFFFFFFFFFFFFFFFFFFFFFFFFFFFFFFFFFFFFF AND DUP5 PUSH20 0xFFFFFFFFFFFFFFFFFFFFFFFFFFFFFFFFFFFFFFFF AND PUSH32 0xDDF252AD1BE2C89B69C2B068FC378DAA952BA7F163C4A11628F55A4DF523B3EF DUP5 PUSH1 0x40 MLOAD PUSH2 0x4F3D SWAP2 SWAP1 PUSH2 0x63FB JUMP JUMPDEST PUSH1 0x40 MLOAD DUP1 SWAP2 SUB SWAP1 LOG3 PUSH2 0x4F50 DUP5 DUP5 DUP5 PUSH2 0x5898 JUMP JUMPDEST POP POP POP POP JUMP JUMPDEST PUSH2 0x4F60 DUP3 DUP3 PUSH2 0x589D JUMP JUMPDEST PUSH2 0x4F86 DUP2 PUSH2 0x12D PUSH1 0x0 DUP6 DUP2 MSTORE PUSH1 0x20 ADD SWAP1 DUP2 MSTORE PUSH1 0x20 ADD PUSH1 0x0 KECCAK256 PUSH2 0x597E SWAP1 SWAP2 SWAP1 PUSH4 0xFFFFFFFF AND JUMP JUMPDEST POP POP POP JUMP JUMPDEST PUSH2 0x4F93 PUSH2 0x46A6 JUMP JUMPDEST PUSH20 0xFFFFFFFFFFFFFFFFFFFFFFFFFFFFFFFFFFFFFFFF AND DUP2 PUSH20 0xFFFFFFFFFFFFFFFFFFFFFFFFFFFFFFFFFFFFFFFF AND EQ PUSH2 0x5000 JUMPI PUSH1 0x40 MLOAD PUSH32 0x8C379A000000000000000000000000000000000000000000000000000000000 DUP2 MSTORE PUSH1 0x4 ADD PUSH2 0x4FF7 SWAP1 PUSH2 0x742C JUMP JUMPDEST PUSH1 0x40 MLOAD DUP1 SWAP2 SUB SWAP1 REVERT JUMPDEST PUSH2 0x500A DUP3 DUP3 PUSH2 0x59AE JUMP JUMPDEST POP POP JUMP JUMPDEST PUSH2 0x5016 PUSH2 0x59E3 JUMP JUMPDEST PUSH1 0x0 PUSH1 0x97 PUSH1 0x0 PUSH2 0x100 EXP DUP2 SLOAD DUP2 PUSH1 0xFF MUL NOT AND SWAP1 DUP4 ISZERO ISZERO MUL OR SWAP1 SSTORE POP PUSH32 0x5DB9EE0A495BF2E6FF9C91A7834C1BA4FDD244A5E8AA4E537BD38AEAE4B073AA PUSH2 0x505A PUSH2 0x46A6 JUMP JUMPDEST PUSH1 0x40 MLOAD PUSH2 0x5067 SWAP2 SWAP1 PUSH2 0x6635 JUMP JUMPDEST PUSH1 0x40 MLOAD DUP1 SWAP2 SUB SWAP1 LOG1 JUMP JUMPDEST PUSH1 0x0 DUP1 DUP3 PUSH20 0xFFFFFFFFFFFFFFFFFFFFFFFFFFFFFFFFFFFFFFFF AND EXTCODESIZE GT SWAP1 POP SWAP2 SWAP1 POP JUMP JUMPDEST PUSH1 0x0 PUSH1 0x1 SWAP1 SLOAD SWAP1 PUSH2 0x100 EXP SWAP1 DIV PUSH1 0xFF AND PUSH2 0x50E3 JUMPI PUSH1 0x40 MLOAD PUSH32 0x8C379A000000000000000000000000000000000000000000000000000000000 DUP2 MSTORE PUSH1 0x4 ADD PUSH2 0x50DA SWAP1 PUSH2 0x74BE JUMP JUMPDEST PUSH1 0x40 MLOAD DUP1 SWAP2 SUB SWAP1 REVERT JUMPDEST PUSH2 0x50ED DUP3 DUP3 PUSH2 0x5A2C JUMP JUMPDEST POP POP JUMP JUMPDEST PUSH1 0x0 PUSH1 0x1 SWAP1 SLOAD SWAP1 PUSH2 0x100 EXP SWAP1 DIV PUSH1 0xFF AND PUSH2 0x5140 JUMPI PUSH1 0x40 MLOAD PUSH32 0x8C379A000000000000000000000000000000000000000000000000000000000 DUP2 MSTORE PUSH1 0x4 ADD PUSH2 0x5137 SWAP1 PUSH2 0x74BE JUMP JUMPDEST PUSH1 0x40 MLOAD DUP1 SWAP2 SUB SWAP1 REVERT JUMPDEST JUMP JUMPDEST PUSH1 0x0 PUSH1 0x1 SWAP1 SLOAD SWAP1 PUSH2 0x100 EXP SWAP1 DIV PUSH1 0xFF AND PUSH2 0x5191 JUMPI PUSH1 0x40 MLOAD PUSH32 0x8C379A000000000000000000000000000000000000000000000000000000000 DUP2 MSTORE PUSH1 0x4 ADD PUSH2 0x5188 SWAP1 PUSH2 0x74BE JUMP JUMPDEST PUSH1 0x40 MLOAD DUP1 SWAP2 SUB SWAP1 REVERT JUMPDEST PUSH2 0x5199 PUSH2 0x5AAD JUMP JUMPDEST JUMP JUMPDEST PUSH1 0x0 PUSH1 0x1 SWAP1 SLOAD SWAP1 PUSH2 0x100 EXP SWAP1 DIV PUSH1 0xFF AND PUSH2 0x51EA JUMPI PUSH1 0x40 MLOAD PUSH32 0x8C379A000000000000000000000000000000000000000000000000000000000 DUP2 MSTORE PUSH1 0x4 ADD PUSH2 0x51E1 SWAP1 PUSH2 0x74BE JUMP JUMPDEST PUSH1 0x40 MLOAD DUP1 SWAP2 SUB SWAP1 REVERT JUMPDEST JUMP JUMPDEST PUSH2 0x51F6 DUP3 DUP3 PUSH2 0x4F56 JUMP JUMPDEST POP POP JUMP JUMPDEST PUSH1 0x0 PUSH2 0x5205 DUP4 PUSH2 0x13B6 JUMP JUMPDEST SWAP1 POP DUP2 PUSH1 0xFB PUSH1 0x0 DUP6 DUP2 MSTORE PUSH1 0x20 ADD SWAP1 DUP2 MSTORE PUSH1 0x20 ADD PUSH1 0x0 KECCAK256 PUSH1 0x1 ADD DUP2 SWAP1 SSTORE POP DUP2 DUP2 DUP5 PUSH32 0xBD79B86FFE0AB8E8776151514217CD7CACD52C909F66475C3AF44E129F0B00FF PUSH1 0x40 MLOAD PUSH1 0x40 MLOAD DUP1 SWAP2 SUB SWAP1 LOG4 POP POP POP JUMP JUMPDEST PUSH2 0x525E PUSH2 0x5B19 JUMP JUMPDEST PUSH1 0x1 PUSH1 0x97 PUSH1 0x0 PUSH2 0x100 EXP DUP2 SLOAD DUP2 PUSH1 0xFF MUL NOT AND SWAP1 DUP4 ISZERO ISZERO MUL OR SWAP1 SSTORE POP PUSH32 0x62E78CEA01BEE320CD4E420270B5EA74000D11B0C9F74754EBDBFC544B05A258 PUSH2 0x52A2 PUSH2 0x46A6 JUMP JUMPDEST PUSH1 0x40 MLOAD PUSH2 0x52AF SWAP2 SWAP1 PUSH2 0x6635 JUMP JUMPDEST PUSH1 0x40 MLOAD DUP1 SWAP2 SUB SWAP1 LOG1 JUMP JUMPDEST PUSH1 0x0 PUSH2 0x52C8 DUP4 PUSH1 0x0 ADD DUP4 PUSH2 0x5B63 JUMP JUMPDEST PUSH1 0x0 SHR SWAP1 POP SWAP3 SWAP2 POP POP JUMP JUMPDEST PUSH1 0x0 PUSH20 0xFFFFFFFFFFFFFFFFFFFFFFFFFFFFFFFFFFFFFFFF AND DUP3 PUSH20 0xFFFFFFFFFFFFFFFFFFFFFFFFFFFFFFFFFFFFFFFF AND EQ ISZERO PUSH2 0x5343 JUMPI PUSH1 0x40 MLOAD PUSH32 0x8C379A000000000000000000000000000000000000000000000000000000000 DUP2 MSTORE PUSH1 0x4 ADD PUSH2 0x533A SWAP1 PUSH2 0x7550 JUMP JUMPDEST PUSH1 0x40 MLOAD DUP1 SWAP2 SUB SWAP1 REVERT JUMPDEST PUSH2 0x534F DUP3 PUSH1 0x0 DUP4 PUSH2 0x55C8 JUMP JUMPDEST PUSH1 0x0 PUSH1 0x33 PUSH1 0x0 DUP5 PUSH20 0xFFFFFFFFFFFFFFFFFFFFFFFFFFFFFFFFFFFFFFFF AND PUSH20 0xFFFFFFFFFFFFFFFFFFFFFFFFFFFFFFFFFFFFFFFF AND DUP2 MSTORE PUSH1 0x20 ADD SWAP1 DUP2 MSTORE PUSH1 0x20 ADD PUSH1 0x0 KECCAK256 SLOAD SWAP1 POP DUP2 DUP2 LT ISZERO PUSH2 0x53D6 JUMPI PUSH1 0x40 MLOAD PUSH32 0x8C379A000000000000000000000000000000000000000000000000000000000 DUP2 MSTORE PUSH1 0x4 ADD PUSH2 0x53CD SWAP1 PUSH2 0x75E2 JUMP JUMPDEST PUSH1 0x40 MLOAD DUP1 SWAP2 SUB SWAP1 REVERT JUMPDEST DUP2 DUP2 SUB PUSH1 0x33 PUSH1 0x0 DUP6 PUSH20 0xFFFFFFFFFFFFFFFFFFFFFFFFFFFFFFFFFFFFFFFF AND PUSH20 0xFFFFFFFFFFFFFFFFFFFFFFFFFFFFFFFFFFFFFFFF AND DUP2 MSTORE PUSH1 0x20 ADD SWAP1 DUP2 MSTORE PUSH1 0x20 ADD PUSH1 0x0 KECCAK256 DUP2 SWAP1 SSTORE POP DUP2 PUSH1 0x35 PUSH1 0x0 DUP3 DUP3 SLOAD SUB SWAP3 POP POP DUP2 SWAP1 SSTORE POP PUSH1 0x0 PUSH20 0xFFFFFFFFFFFFFFFFFFFFFFFFFFFFFFFFFFFFFFFF AND DUP4 PUSH20 0xFFFFFFFFFFFFFFFFFFFFFFFFFFFFFFFFFFFFFFFF AND PUSH32 0xDDF252AD1BE2C89B69C2B068FC378DAA952BA7F163C4A11628F55A4DF523B3EF DUP5 PUSH1 0x40 MLOAD PUSH2 0x548A SWAP2 SWAP1 PUSH2 0x63FB JUMP JUMPDEST PUSH1 0x40 MLOAD DUP1 SWAP2 SUB SWAP1 LOG3 PUSH2 0x549E DUP4 PUSH1 0x0 DUP5 PUSH2 0x5898 JUMP JUMPDEST POP POP POP JUMP JUMPDEST PUSH1 0x0 PUSH2 0x54B1 DUP3 PUSH1 0x0 ADD PUSH2 0x5B8E JUMP JUMPDEST SWAP1 POP SWAP2 SWAP1 POP JUMP JUMPDEST PUSH2 0x54C1 DUP3 PUSH2 0x13B6 JUMP JUMPDEST PUSH2 0x54CA DUP2 PUSH2 0x4879 JUMP JUMPDEST PUSH2 0x54D4 DUP4 DUP4 PUSH2 0x59AE JUMP JUMPDEST POP POP POP JUMP JUMPDEST PUSH1 0x0 PUSH32 0x1FFC9A700000000000000000000000000000000000000000000000000000000 PUSH28 0xFFFFFFFFFFFFFFFFFFFFFFFFFFFFFFFFFFFFFFFFFFFFFFFFFFFFFFFF NOT AND DUP3 PUSH28 0xFFFFFFFFFFFFFFFFFFFFFFFFFFFFFFFFFFFFFFFFFFFFFFFFFFFFFFFF NOT AND EQ SWAP1 POP SWAP2 SWAP1 POP JUMP JUMPDEST PUSH2 0x554D DUP3 DUP3 PUSH2 0x2DB5 JUMP JUMPDEST PUSH2 0x55C4 JUMPI PUSH2 0x555A DUP2 PUSH2 0x5B9F JUMP JUMPDEST PUSH2 0x5568 DUP4 PUSH1 0x0 SHR PUSH1 0x20 PUSH2 0x5BCC JUMP JUMPDEST PUSH1 0x40 MLOAD PUSH1 0x20 ADD PUSH2 0x5579 SWAP3 SWAP2 SWAP1 PUSH2 0x76D6 JUMP JUMPDEST PUSH1 0x40 MLOAD PUSH1 0x20 DUP2 DUP4 SUB SUB DUP2 MSTORE SWAP1 PUSH1 0x40 MSTORE PUSH1 0x40 MLOAD PUSH32 0x8C379A000000000000000000000000000000000000000000000000000000000 DUP2 MSTORE PUSH1 0x4 ADD PUSH2 0x55BB SWAP2 SWAP1 PUSH2 0x62F6 JUMP JUMPDEST PUSH1 0x40 MLOAD DUP1 SWAP2 SUB SWAP1 REVERT JUMPDEST POP POP JUMP JUMPDEST PUSH2 0x55D0 PUSH2 0x5B19 JUMP JUMPDEST PUSH2 0x55FC PUSH32 0xD0519AD5D0BFF7797CE1E87B6D247C3E5C7C7B32521DF3583F47B7C40D816E86 PUSH1 0x0 SHL PUSH2 0x488D JUMP JUMPDEST PUSH2 0x5628 PUSH32 0xB335C0E4E73BFB0367EE1CDAD1AAFBDEAED892437B995C5C3AA411CA4A748745 PUSH1 0x0 SHL PUSH2 0x488D JUMP JUMPDEST PUSH2 0x5654 PUSH32 0xE61B9B52A668159CE2D245F157D55D44889FA3C4DAC9B613A30DB5578149A306 PUSH1 0x0 SHL PUSH2 0x488D JUMP JUMPDEST PUSH2 0x5680 PUSH32 0xF2CA89065388D9FE23F14399EC16B5F40AA195B00D0D57559D45A4E875306253 PUSH1 0x0 SHL PUSH2 0x488D JUMP JUMPDEST PUSH2 0x56AA PUSH32 0x5EDC4FD0544F0B4B53F14F295FB04BBD6FDBC1BEA1FD8EDF5851B385AEE145D5 DUP5 PUSH2 0x2DB5 JUMP JUMPDEST ISZERO PUSH2 0x56EA JUMPI PUSH1 0x40 MLOAD PUSH32 0x8C379A000000000000000000000000000000000000000000000000000000000 DUP2 MSTORE PUSH1 0x4 ADD PUSH2 0x56E1 SWAP1 PUSH2 0x775C JUMP JUMPDEST PUSH1 0x40 MLOAD DUP1 SWAP2 SUB SWAP1 REVERT JUMPDEST PUSH2 0x5716 PUSH32 0xC402BD3BA97C85402C89E518CA4371150E83C1F71462957FE4957EE6341806E1 PUSH1 0x0 SHL PUSH2 0x488D JUMP JUMPDEST PUSH2 0x5742 PUSH32 0x8C948F66E0F82243A520EDCA97115BABE4B485477340E8422680471A1FB46552 PUSH1 0x0 SHL PUSH2 0x488D JUMP JUMPDEST PUSH2 0x576E PUSH32 0x5A671A9EF25518ED1613BB63E01A8DC285C4C647F65A735A71AA01610F37F6A1 PUSH1 0x0 SHL PUSH2 0x488D JUMP JUMPDEST PUSH2 0x579A PUSH32 0x746C3A94488161D33C650B28E50191834A8B8C8A53221BEAEE06DA9F0DDEB9BA PUSH1 0x0 SHL PUSH2 0x488D JUMP JUMPDEST PUSH2 0x57C4 PUSH32 0x5EDC4FD0544F0B4B53F14F295FB04BBD6FDBC1BEA1FD8EDF5851B385AEE145D5 DUP4 PUSH2 0x2DB5 JUMP JUMPDEST ISZERO PUSH2 0x5804 JUMPI PUSH1 0x40 MLOAD PUSH32 0x8C379A000000000000000000000000000000000000000000000000000000000 DUP2 MSTORE PUSH1 0x4 ADD PUSH2 0x57FB SWAP1 PUSH2 0x77C8 JUMP JUMPDEST PUSH1 0x40 MLOAD DUP1 SWAP2 SUB SWAP1 REVERT JUMPDEST PUSH2 0x5830 PUSH32 0xD2E585E1C87E9368CDAE49350099776679DC88A63F6B790786DF7479CAA06C68 PUSH1 0x0 SHL PUSH2 0x488D JUMP JUMPDEST PUSH2 0x585C PUSH32 0x7E44539E092F0DC8F5F9842FF980D170C82CC9234B4EC38D503DFDEEB2C69D26 PUSH1 0x0 SHL PUSH2 0x488D JUMP JUMPDEST PUSH2 0x5888 PUSH32 0x1EBEC47941351C12226CBBE9F58AFB3858122CBE58DB7CC44A311F1044964BB1 PUSH1 0x0 SHL PUSH2 0x488D JUMP JUMPDEST PUSH2 0x5893 DUP4 DUP4 DUP4 PUSH2 0x5E08 JUMP JUMPDEST POP POP POP JUMP JUMPDEST POP POP POP JUMP JUMPDEST PUSH2 0x58A7 DUP3 DUP3 PUSH2 0x2DB5 JUMP JUMPDEST PUSH2 0x597A JUMPI PUSH1 0x1 PUSH1 0xFB PUSH1 0x0 DUP5 DUP2 MSTORE PUSH1 0x20 ADD SWAP1 DUP2 MSTORE PUSH1 0x20 ADD PUSH1 0x0 KECCAK256 PUSH1 0x0 ADD PUSH1 0x0 DUP4 PUSH20 0xFFFFFFFFFFFFFFFFFFFFFFFFFFFFFFFFFFFFFFFF AND PUSH20 0xFFFFFFFFFFFFFFFFFFFFFFFFFFFFFFFFFFFFFFFF AND DUP2 MSTORE PUSH1 0x20 ADD SWAP1 DUP2 MSTORE PUSH1 0x20 ADD PUSH1 0x0 KECCAK256 PUSH1 0x0 PUSH2 0x100 EXP DUP2 SLOAD DUP2 PUSH1 0xFF MUL NOT AND SWAP1 DUP4 ISZERO ISZERO MUL OR SWAP1 SSTORE POP PUSH2 0x591F PUSH2 0x46A6 JUMP JUMPDEST PUSH20 0xFFFFFFFFFFFFFFFFFFFFFFFFFFFFFFFFFFFFFFFF AND DUP2 PUSH20 0xFFFFFFFFFFFFFFFFFFFFFFFFFFFFFFFFFFFFFFFF AND DUP4 PUSH32 0x2F8788117E7EFF1D82E926EC794901D17C78024A50270940304540A733656F0D PUSH1 0x40 MLOAD PUSH1 0x40 MLOAD DUP1 SWAP2 SUB SWAP1 LOG4 JUMPDEST POP POP JUMP JUMPDEST PUSH1 0x0 PUSH2 0x59A6 DUP4 PUSH1 0x0 ADD DUP4 PUSH20 0xFFFFFFFFFFFFFFFFFFFFFFFFFFFFFFFFFFFFFFFF AND PUSH1 0x0 SHL PUSH2 0x5E0D JUMP JUMPDEST SWAP1 POP SWAP3 SWAP2 POP POP JUMP JUMPDEST PUSH2 0x59B8 DUP3 DUP3 PUSH2 0x5E7D JUMP JUMPDEST PUSH2 0x59DE DUP2 PUSH2 0x12D PUSH1 0x0 DUP6 DUP2 MSTORE PUSH1 0x20 ADD SWAP1 DUP2 MSTORE PUSH1 0x20 ADD PUSH1 0x0 KECCAK256 PUSH2 0x5F5F SWAP1 SWAP2 SWAP1 PUSH4 0xFFFFFFFF AND JUMP JUMPDEST POP POP POP JUMP JUMPDEST PUSH2 0x59EB PUSH2 0x2269 JUMP JUMPDEST PUSH2 0x5A2A JUMPI PUSH1 0x40 MLOAD PUSH32 0x8C379A000000000000000000000000000000000000000000000000000000000 DUP2 MSTORE PUSH1 0x4 ADD PUSH2 0x5A21 SWAP1 PUSH2 0x7834 JUMP JUMPDEST PUSH1 0x40 MLOAD DUP1 SWAP2 SUB SWAP1 REVERT JUMPDEST JUMP JUMPDEST PUSH1 0x0 PUSH1 0x1 SWAP1 SLOAD SWAP1 PUSH2 0x100 EXP SWAP1 DIV PUSH1 0xFF AND PUSH2 0x5A7B JUMPI PUSH1 0x40 MLOAD PUSH32 0x8C379A000000000000000000000000000000000000000000000000000000000 DUP2 MSTORE PUSH1 0x4 ADD PUSH2 0x5A72 SWAP1 PUSH2 0x74BE JUMP JUMPDEST PUSH1 0x40 MLOAD DUP1 SWAP2 SUB SWAP1 REVERT JUMPDEST DUP2 PUSH1 0x36 SWAP1 DUP1 MLOAD SWAP1 PUSH1 0x20 ADD SWAP1 PUSH2 0x5A91 SWAP3 SWAP2 SWAP1 PUSH2 0x60C6 JUMP JUMPDEST POP DUP1 PUSH1 0x37 SWAP1 DUP1 MLOAD SWAP1 PUSH1 0x20 ADD SWAP1 PUSH2 0x5AA8 SWAP3 SWAP2 SWAP1 PUSH2 0x60C6 JUMP JUMPDEST POP POP POP JUMP JUMPDEST PUSH1 0x0 PUSH1 0x1 SWAP1 SLOAD SWAP1 PUSH2 0x100 EXP SWAP1 DIV PUSH1 0xFF AND PUSH2 0x5AFC JUMPI PUSH1 0x40 MLOAD PUSH32 0x8C379A000000000000000000000000000000000000000000000000000000000 DUP2 MSTORE PUSH1 0x4 ADD PUSH2 0x5AF3 SWAP1 PUSH2 0x74BE JUMP JUMPDEST PUSH1 0x40 MLOAD DUP1 SWAP2 SUB SWAP1 REVERT JUMPDEST PUSH1 0x0 PUSH1 0x97 PUSH1 0x0 PUSH2 0x100 EXP DUP2 SLOAD DUP2 PUSH1 0xFF MUL NOT AND SWAP1 DUP4 ISZERO ISZERO MUL OR SWAP1 SSTORE POP JUMP JUMPDEST PUSH2 0x5B21 PUSH2 0x2269 JUMP JUMPDEST ISZERO PUSH2 0x5B61 JUMPI PUSH1 0x40 MLOAD PUSH32 0x8C379A000000000000000000000000000000000000000000000000000000000 DUP2 MSTORE PUSH1 0x4 ADD PUSH2 0x5B58 SWAP1 PUSH2 0x78A0 JUMP JUMPDEST PUSH1 0x40 MLOAD DUP1 SWAP2 SUB SWAP1 REVERT JUMPDEST JUMP JUMPDEST PUSH1 0x0 DUP3 PUSH1 0x0 ADD DUP3 DUP2 SLOAD DUP2 LT PUSH2 0x5B7B JUMPI PUSH2 0x5B7A PUSH2 0x78C0 JUMP JUMPDEST JUMPDEST SWAP1 PUSH1 0x0 MSTORE PUSH1 0x20 PUSH1 0x0 KECCAK256 ADD SLOAD SWAP1 POP SWAP3 SWAP2 POP POP JUMP JUMPDEST PUSH1 0x0 DUP2 PUSH1 0x0 ADD DUP1 SLOAD SWAP1 POP SWAP1 POP SWAP2 SWAP1 POP JUMP JUMPDEST PUSH1 0x60 PUSH2 0x5BC5 DUP3 PUSH20 0xFFFFFFFFFFFFFFFFFFFFFFFFFFFFFFFFFFFFFFFF AND PUSH1 0x14 PUSH1 0xFF AND PUSH2 0x5BCC JUMP JUMPDEST SWAP1 POP SWAP2 SWAP1 POP JUMP JUMPDEST PUSH1 0x60 PUSH1 0x0 PUSH1 0x2 DUP4 PUSH1 0x2 PUSH2 0x5BDF SWAP2 SWAP1 PUSH2 0x6AB9 JUMP JUMPDEST PUSH2 0x5BE9 SWAP2 SWAP1 PUSH2 0x692B JUMP JUMPDEST PUSH8 0xFFFFFFFFFFFFFFFF DUP2 GT ISZERO PUSH2 0x5C02 JUMPI PUSH2 0x5C01 PUSH2 0x78EF JUMP JUMPDEST JUMPDEST PUSH1 0x40 MLOAD SWAP1 DUP1 DUP3 MSTORE DUP1 PUSH1 0x1F ADD PUSH1 0x1F NOT AND PUSH1 0x20 ADD DUP3 ADD PUSH1 0x40 MSTORE DUP1 ISZERO PUSH2 0x5C34 JUMPI DUP2 PUSH1 0x20 ADD PUSH1 0x1 DUP3 MUL DUP1 CALLDATASIZE DUP4 CALLDATACOPY DUP1 DUP3 ADD SWAP2 POP POP SWAP1 POP JUMPDEST POP SWAP1 POP PUSH32 0x3000000000000000000000000000000000000000000000000000000000000000 DUP2 PUSH1 0x0 DUP2 MLOAD DUP2 LT PUSH2 0x5C6C JUMPI PUSH2 0x5C6B PUSH2 0x78C0 JUMP JUMPDEST JUMPDEST PUSH1 0x20 ADD ADD SWAP1 PUSH31 0xFFFFFFFFFFFFFFFFFFFFFFFFFFFFFFFFFFFFFFFFFFFFFFFFFFFFFFFFFFFFFF NOT AND SWAP1 DUP2 PUSH1 0x0 BYTE SWAP1 MSTORE8 POP PUSH32 0x7800000000000000000000000000000000000000000000000000000000000000 DUP2 PUSH1 0x1 DUP2 MLOAD DUP2 LT PUSH2 0x5CD0 JUMPI PUSH2 0x5CCF PUSH2 0x78C0 JUMP JUMPDEST JUMPDEST PUSH1 0x20 ADD ADD SWAP1 PUSH31 0xFFFFFFFFFFFFFFFFFFFFFFFFFFFFFFFFFFFFFFFFFFFFFFFFFFFFFFFFFFFFFF NOT AND SWAP1 DUP2 PUSH1 0x0 BYTE SWAP1 MSTORE8 POP PUSH1 0x0 PUSH1 0x1 DUP5 PUSH1 0x2 PUSH2 0x5D10 SWAP2 SWAP1 PUSH2 0x6AB9 JUMP JUMPDEST PUSH2 0x5D1A SWAP2 SWAP1 PUSH2 0x692B JUMP JUMPDEST SWAP1 POP JUMPDEST PUSH1 0x1 DUP2 GT ISZERO PUSH2 0x5DBA JUMPI PUSH32 0x3031323334353637383961626364656600000000000000000000000000000000 PUSH1 0xF DUP7 AND PUSH1 0x10 DUP2 LT PUSH2 0x5D5C JUMPI PUSH2 0x5D5B PUSH2 0x78C0 JUMP JUMPDEST JUMPDEST BYTE PUSH1 0xF8 SHL DUP3 DUP3 DUP2 MLOAD DUP2 LT PUSH2 0x5D73 JUMPI PUSH2 0x5D72 PUSH2 0x78C0 JUMP JUMPDEST JUMPDEST PUSH1 0x20 ADD ADD SWAP1 PUSH31 0xFFFFFFFFFFFFFFFFFFFFFFFFFFFFFFFFFFFFFFFFFFFFFFFFFFFFFFFFFFFFFF NOT AND SWAP1 DUP2 PUSH1 0x0 BYTE SWAP1 MSTORE8 POP PUSH1 0x4 DUP6 SWAP1 SHR SWAP5 POP DUP1 PUSH2 0x5DB3 SWAP1 PUSH2 0x791E JUMP JUMPDEST SWAP1 POP PUSH2 0x5D1D JUMP JUMPDEST POP PUSH1 0x0 DUP5 EQ PUSH2 0x5DFE JUMPI PUSH1 0x40 MLOAD PUSH32 0x8C379A000000000000000000000000000000000000000000000000000000000 DUP2 MSTORE PUSH1 0x4 ADD PUSH2 0x5DF5 SWAP1 PUSH2 0x7994 JUMP JUMPDEST PUSH1 0x40 MLOAD DUP1 SWAP2 SUB SWAP1 REVERT JUMPDEST DUP1 SWAP2 POP POP SWAP3 SWAP2 POP POP JUMP JUMPDEST POP POP POP JUMP JUMPDEST PUSH1 0x0 PUSH2 0x5E19 DUP4 DUP4 PUSH2 0x5F8F JUMP JUMPDEST PUSH2 0x5E72 JUMPI DUP3 PUSH1 0x0 ADD DUP3 SWAP1 DUP1 PUSH1 0x1 DUP2 SLOAD ADD DUP1 DUP3 SSTORE DUP1 SWAP2 POP POP PUSH1 0x1 SWAP1 SUB SWAP1 PUSH1 0x0 MSTORE PUSH1 0x20 PUSH1 0x0 KECCAK256 ADD PUSH1 0x0 SWAP1 SWAP2 SWAP1 SWAP2 SWAP1 SWAP2 POP SSTORE DUP3 PUSH1 0x0 ADD DUP1 SLOAD SWAP1 POP DUP4 PUSH1 0x1 ADD PUSH1 0x0 DUP5 DUP2 MSTORE PUSH1 0x20 ADD SWAP1 DUP2 MSTORE PUSH1 0x20 ADD PUSH1 0x0 KECCAK256 DUP2 SWAP1 SSTORE POP PUSH1 0x1 SWAP1 POP PUSH2 0x5E77 JUMP JUMPDEST PUSH1 0x0 SWAP1 POP JUMPDEST SWAP3 SWAP2 POP POP JUMP JUMPDEST PUSH2 0x5E87 DUP3 DUP3 PUSH2 0x2DB5 JUMP JUMPDEST ISZERO PUSH2 0x5F5B JUMPI PUSH1 0x0 PUSH1 0xFB PUSH1 0x0 DUP5 DUP2 MSTORE PUSH1 0x20 ADD SWAP1 DUP2 MSTORE PUSH1 0x20 ADD PUSH1 0x0 KECCAK256 PUSH1 0x0 ADD PUSH1 0x0 DUP4 PUSH20 0xFFFFFFFFFFFFFFFFFFFFFFFFFFFFFFFFFFFFFFFF AND PUSH20 0xFFFFFFFFFFFFFFFFFFFFFFFFFFFFFFFFFFFFFFFF AND DUP2 MSTORE PUSH1 0x20 ADD SWAP1 DUP2 MSTORE PUSH1 0x20 ADD PUSH1 0x0 KECCAK256 PUSH1 0x0 PUSH2 0x100 EXP DUP2 SLOAD DUP2 PUSH1 0xFF MUL NOT AND SWAP1 DUP4 ISZERO ISZERO MUL OR SWAP1 SSTORE POP PUSH2 0x5F00 PUSH2 0x46A6 JUMP JUMPDEST PUSH20 0xFFFFFFFFFFFFFFFFFFFFFFFFFFFFFFFFFFFFFFFF AND DUP2 PUSH20 0xFFFFFFFFFFFFFFFFFFFFFFFFFFFFFFFFFFFFFFFF AND DUP4 PUSH32 0xF6391F5C32D9C69D2A47EA670B442974B53935D1EDC7FD64EB21E047A839171B PUSH1 0x40 MLOAD PUSH1 0x40 MLOAD DUP1 SWAP2 SUB SWAP1 LOG4 JUMPDEST POP POP JUMP JUMPDEST PUSH1 0x0 PUSH2 0x5F87 DUP4 PUSH1 0x0 ADD DUP4 PUSH20 0xFFFFFFFFFFFFFFFFFFFFFFFFFFFFFFFFFFFFFFFF AND PUSH1 0x0 SHL PUSH2 0x5FB2 JUMP JUMPDEST SWAP1 POP SWAP3 SWAP2 POP POP JUMP JUMPDEST PUSH1 0x0 DUP1 DUP4 PUSH1 0x1 ADD PUSH1 0x0 DUP5 DUP2 MSTORE PUSH1 0x20 ADD SWAP1 DUP2 MSTORE PUSH1 0x20 ADD PUSH1 0x0 KECCAK256 SLOAD EQ ISZERO SWAP1 POP SWAP3 SWAP2 POP POP JUMP JUMPDEST PUSH1 0x0 DUP1 DUP4 PUSH1 0x1 ADD PUSH1 0x0 DUP5 DUP2 MSTORE PUSH1 0x20 ADD SWAP1 DUP2 MSTORE PUSH1 0x20 ADD PUSH1 0x0 KECCAK256 SLOAD SWAP1 POP PUSH1 0x0 DUP2 EQ PUSH2 0x60BA JUMPI PUSH1 0x0 PUSH1 0x1 DUP3 PUSH2 0x5FE4 SWAP2 SWAP1 PUSH2 0x681F JUMP JUMPDEST SWAP1 POP PUSH1 0x0 PUSH1 0x1 DUP7 PUSH1 0x0 ADD DUP1 SLOAD SWAP1 POP PUSH2 0x5FFC SWAP2 SWAP1 PUSH2 0x681F JUMP JUMPDEST SWAP1 POP DUP2 DUP2 EQ PUSH2 0x606B JUMPI PUSH1 0x0 DUP7 PUSH1 0x0 ADD DUP3 DUP2 SLOAD DUP2 LT PUSH2 0x601D JUMPI PUSH2 0x601C PUSH2 0x78C0 JUMP JUMPDEST JUMPDEST SWAP1 PUSH1 0x0 MSTORE PUSH1 0x20 PUSH1 0x0 KECCAK256 ADD SLOAD SWAP1 POP DUP1 DUP8 PUSH1 0x0 ADD DUP5 DUP2 SLOAD DUP2 LT PUSH2 0x6041 JUMPI PUSH2 0x6040 PUSH2 0x78C0 JUMP JUMPDEST JUMPDEST SWAP1 PUSH1 0x0 MSTORE PUSH1 0x20 PUSH1 0x0 KECCAK256 ADD DUP2 SWAP1 SSTORE POP DUP4 DUP8 PUSH1 0x1 ADD PUSH1 0x0 DUP4 DUP2 MSTORE PUSH1 0x20 ADD SWAP1 DUP2 MSTORE PUSH1 0x20 ADD PUSH1 0x0 KECCAK256 DUP2 SWAP1 SSTORE POP POP JUMPDEST DUP6 PUSH1 0x0 ADD DUP1 SLOAD DUP1 PUSH2 0x607F JUMPI PUSH2 0x607E PUSH2 0x79B4 JUMP JUMPDEST JUMPDEST PUSH1 0x1 SWAP1 SUB DUP2 DUP2 SWAP1 PUSH1 0x0 MSTORE PUSH1 0x20 PUSH1 0x0 KECCAK256 ADD PUSH1 0x0 SWAP1 SSTORE SWAP1 SSTORE DUP6 PUSH1 0x1 ADD PUSH1 0x0 DUP7 DUP2 MSTORE PUSH1 0x20 ADD SWAP1 DUP2 MSTORE PUSH1 0x20 ADD PUSH1 0x0 KECCAK256 PUSH1 0x0 SWAP1 SSTORE PUSH1 0x1 SWAP4 POP POP POP POP PUSH2 0x60C0 JUMP JUMPDEST PUSH1 0x0 SWAP2 POP POP JUMPDEST SWAP3 SWAP2 POP POP JUMP JUMPDEST DUP3 DUP1 SLOAD PUSH2 0x60D2 SWAP1 PUSH2 0x6752 JUMP JUMPDEST SWAP1 PUSH1 0x0 MSTORE PUSH1 0x20 PUSH1 0x0 KECCAK256 SWAP1 PUSH1 0x1F ADD PUSH1 0x20 SWAP1 DIV DUP2 ADD SWAP3 DUP3 PUSH2 0x60F4 JUMPI PUSH1 0x0 DUP6 SSTORE PUSH2 0x613B JUMP JUMPDEST DUP3 PUSH1 0x1F LT PUSH2 0x610D JUMPI DUP1 MLOAD PUSH1 0xFF NOT AND DUP4 DUP1 ADD OR DUP6 SSTORE PUSH2 0x613B JUMP JUMPDEST DUP3 DUP1 ADD PUSH1 0x1 ADD DUP6 SSTORE DUP3 ISZERO PUSH2 0x613B JUMPI SWAP2 DUP3 ADD JUMPDEST DUP3 DUP2 GT ISZERO PUSH2 0x613A JUMPI DUP3 MLOAD DUP3 SSTORE SWAP2 PUSH1 0x20 ADD SWAP2 SWAP1 PUSH1 0x1 ADD SWAP1 PUSH2 0x611F JUMP JUMPDEST JUMPDEST POP SWAP1 POP PUSH2 0x6148 SWAP2 SWAP1 PUSH2 0x614C JUMP JUMPDEST POP SWAP1 JUMP JUMPDEST JUMPDEST DUP1 DUP3 GT ISZERO PUSH2 0x6165 JUMPI PUSH1 0x0 DUP2 PUSH1 0x0 SWAP1 SSTORE POP PUSH1 0x1 ADD PUSH2 0x614D JUMP JUMPDEST POP SWAP1 JUMP JUMPDEST PUSH1 0x0 DUP1 REVERT JUMPDEST PUSH1 0x0 PUSH32 0xFFFFFFFF00000000000000000000000000000000000000000000000000000000 DUP3 AND SWAP1 POP SWAP2 SWAP1 POP JUMP JUMPDEST PUSH2 0x61A3 DUP2 PUSH2 0x616E JUMP JUMPDEST DUP2 EQ PUSH2 0x61AE JUMPI PUSH1 0x0 DUP1 REVERT JUMPDEST POP JUMP JUMPDEST PUSH1 0x0 DUP2 CALLDATALOAD SWAP1 POP PUSH2 0x61C0 DUP2 PUSH2 0x619A JUMP JUMPDEST SWAP3 SWAP2 POP POP JUMP JUMPDEST PUSH1 0x0 PUSH1 0x20 DUP3 DUP5 SUB SLT ISZERO PUSH2 0x61DC JUMPI PUSH2 0x61DB PUSH2 0x6169 JUMP JUMPDEST JUMPDEST PUSH1 0x0 PUSH2 0x61EA DUP5 DUP3 DUP6 ADD PUSH2 0x61B1 JUMP JUMPDEST SWAP2 POP POP SWAP3 SWAP2 POP POP JUMP JUMPDEST PUSH1 0x0 DUP2 ISZERO ISZERO SWAP1 POP SWAP2 SWAP1 POP JUMP JUMPDEST PUSH2 0x6208 DUP2 PUSH2 0x61F3 JUMP JUMPDEST DUP3 MSTORE POP POP JUMP JUMPDEST PUSH1 0x0 PUSH1 0x20 DUP3 ADD SWAP1 POP PUSH2 0x6223 PUSH1 0x0 DUP4 ADD DUP5 PUSH2 0x61FF JUMP JUMPDEST SWAP3 SWAP2 POP POP JUMP JUMPDEST PUSH1 0x0 DUP2 SWAP1 POP SWAP2 SWAP1 POP JUMP JUMPDEST PUSH2 0x623C DUP2 PUSH2 0x6229 JUMP JUMPDEST DUP3 MSTORE POP POP JUMP JUMPDEST PUSH1 0x0 PUSH1 0x20 DUP3 ADD SWAP1 POP PUSH2 0x6257 PUSH1 0x0 DUP4 ADD DUP5 PUSH2 0x6233 JUMP JUMPDEST SWAP3 SWAP2 POP POP JUMP JUMPDEST PUSH1 0x0 DUP2 MLOAD SWAP1 POP SWAP2 SWAP1 POP JUMP JUMPDEST PUSH1 0x0 DUP3 DUP3 MSTORE PUSH1 0x20 DUP3 ADD SWAP1 POP SWAP3 SWAP2 POP POP JUMP JUMPDEST PUSH1 0x0 JUMPDEST DUP4 DUP2 LT ISZERO PUSH2 0x6297 JUMPI DUP1 DUP3 ADD MLOAD DUP2 DUP5 ADD MSTORE PUSH1 0x20 DUP2 ADD SWAP1 POP PUSH2 0x627C JUMP JUMPDEST DUP4 DUP2 GT ISZERO PUSH2 0x62A6 JUMPI PUSH1 0x0 DUP5 DUP5 ADD MSTORE JUMPDEST POP POP POP POP JUMP JUMPDEST PUSH1 0x0 PUSH1 0x1F NOT PUSH1 0x1F DUP4 ADD AND SWAP1 POP SWAP2 SWAP1 POP JUMP JUMPDEST PUSH1 0x0 PUSH2 0x62C8 DUP3 PUSH2 0x625D JUMP JUMPDEST PUSH2 0x62D2 DUP2 DUP6 PUSH2 0x6268 JUMP JUMPDEST SWAP4 POP PUSH2 0x62E2 DUP2 DUP6 PUSH1 0x20 DUP7 ADD PUSH2 0x6279 JUMP JUMPDEST PUSH2 0x62EB DUP2 PUSH2 0x62AC JUMP JUMPDEST DUP5 ADD SWAP2 POP POP SWAP3 SWAP2 POP POP JUMP JUMPDEST PUSH1 0x0 PUSH1 0x20 DUP3 ADD SWAP1 POP DUP2 DUP2 SUB PUSH1 0x0 DUP4 ADD MSTORE PUSH2 0x6310 DUP2 DUP5 PUSH2 0x62BD JUMP JUMPDEST SWAP1 POP SWAP3 SWAP2 POP POP JUMP JUMPDEST PUSH1 0x0 PUSH20 0xFFFFFFFFFFFFFFFFFFFFFFFFFFFFFFFFFFFFFFFF DUP3 AND SWAP1 POP SWAP2 SWAP1 POP JUMP JUMPDEST PUSH1 0x0 PUSH2 0x6343 DUP3 PUSH2 0x6318 JUMP JUMPDEST SWAP1 POP SWAP2 SWAP1 POP JUMP JUMPDEST PUSH2 0x6353 DUP2 PUSH2 0x6338 JUMP JUMPDEST DUP2 EQ PUSH2 0x635E JUMPI PUSH1 0x0 DUP1 REVERT JUMPDEST POP JUMP JUMPDEST PUSH1 0x0 DUP2 CALLDATALOAD SWAP1 POP PUSH2 0x6370 DUP2 PUSH2 0x634A JUMP JUMPDEST SWAP3 SWAP2 POP POP JUMP JUMPDEST PUSH1 0x0 DUP2 SWAP1 POP SWAP2 SWAP1 POP JUMP JUMPDEST PUSH2 0x6389 DUP2 PUSH2 0x6376 JUMP JUMPDEST DUP2 EQ PUSH2 0x6394 JUMPI PUSH1 0x0 DUP1 REVERT JUMPDEST POP JUMP JUMPDEST PUSH1 0x0 DUP2 CALLDATALOAD SWAP1 POP PUSH2 0x63A6 DUP2 PUSH2 0x6380 JUMP JUMPDEST SWAP3 SWAP2 POP POP JUMP JUMPDEST PUSH1 0x0 DUP1 PUSH1 0x40 DUP4 DUP6 SUB SLT ISZERO PUSH2 0x63C3 JUMPI PUSH2 0x63C2 PUSH2 0x6169 JUMP JUMPDEST JUMPDEST PUSH1 0x0 PUSH2 0x63D1 DUP6 DUP3 DUP7 ADD PUSH2 0x6361 JUMP JUMPDEST SWAP3 POP POP PUSH1 0x20 PUSH2 0x63E2 DUP6 DUP3 DUP7 ADD PUSH2 0x6397 JUMP JUMPDEST SWAP2 POP POP SWAP3 POP SWAP3 SWAP1 POP JUMP JUMPDEST PUSH2 0x63F5 DUP2 PUSH2 0x6376 JUMP JUMPDEST DUP3 MSTORE POP POP JUMP JUMPDEST PUSH1 0x0 PUSH1 0x20 DUP3 ADD SWAP1 POP PUSH2 0x6410 PUSH1 0x0 DUP4 ADD DUP5 PUSH2 0x63EC JUMP JUMPDEST SWAP3 SWAP2 POP POP JUMP JUMPDEST PUSH2 0x641F DUP2 PUSH2 0x6229 JUMP JUMPDEST DUP2 EQ PUSH2 0x642A JUMPI PUSH1 0x0 DUP1 REVERT JUMPDEST POP JUMP JUMPDEST PUSH1 0x0 DUP2 CALLDATALOAD SWAP1 POP PUSH2 0x643C DUP2 PUSH2 0x6416 JUMP JUMPDEST SWAP3 SWAP2 POP POP JUMP JUMPDEST PUSH1 0x0 DUP1 PUSH1 0x0 PUSH1 0x60 DUP5 DUP7 SUB SLT ISZERO PUSH2 0x645B JUMPI PUSH2 0x645A PUSH2 0x6169 JUMP JUMPDEST JUMPDEST PUSH1 0x0 PUSH2 0x6469 DUP7 DUP3 DUP8 ADD PUSH2 0x6361 JUMP JUMPDEST SWAP4 POP POP PUSH1 0x20 PUSH2 0x647A DUP7 DUP3 DUP8 ADD PUSH2 0x6397 JUMP JUMPDEST SWAP3 POP POP PUSH1 0x40 PUSH2 0x648B DUP7 DUP3 DUP8 ADD PUSH2 0x642D JUMP JUMPDEST SWAP2 POP POP SWAP3 POP SWAP3 POP SWAP3 JUMP JUMPDEST PUSH1 0x0 DUP1 PUSH1 0x0 PUSH1 0x60 DUP5 DUP7 SUB SLT ISZERO PUSH2 0x64AE JUMPI PUSH2 0x64AD PUSH2 0x6169 JUMP JUMPDEST JUMPDEST PUSH1 0x0 PUSH2 0x64BC DUP7 DUP3 DUP8 ADD PUSH2 0x6361 JUMP JUMPDEST SWAP4 POP POP PUSH1 0x20 PUSH2 0x64CD DUP7 DUP3 DUP8 ADD PUSH2 0x6361 JUMP JUMPDEST SWAP3 POP POP PUSH1 0x40 PUSH2 0x64DE DUP7 DUP3 DUP8 ADD PUSH2 0x6397 JUMP JUMPDEST SWAP2 POP POP SWAP3 POP SWAP3 POP SWAP3 JUMP JUMPDEST PUSH1 0x0 PUSH1 0x20 DUP3 DUP5 SUB SLT ISZERO PUSH2 0x64FE JUMPI PUSH2 0x64FD PUSH2 0x6169 JUMP JUMPDEST JUMPDEST PUSH1 0x0 PUSH2 0x650C DUP5 DUP3 DUP6 ADD PUSH2 0x642D JUMP JUMPDEST SWAP2 POP POP SWAP3 SWAP2 POP POP JUMP JUMPDEST PUSH1 0x0 DUP1 PUSH1 0x40 DUP4 DUP6 SUB SLT ISZERO PUSH2 0x652C JUMPI PUSH2 0x652B PUSH2 0x6169 JUMP JUMPDEST JUMPDEST PUSH1 0x0 PUSH2 0x653A DUP6 DUP3 DUP7 ADD PUSH2 0x642D JUMP JUMPDEST SWAP3 POP POP PUSH1 0x20 PUSH2 0x654B DUP6 DUP3 DUP7 ADD PUSH2 0x6361 JUMP JUMPDEST SWAP2 POP POP SWAP3 POP SWAP3 SWAP1 POP JUMP JUMPDEST PUSH1 0x0 PUSH1 0xFF DUP3 AND SWAP1 POP SWAP2 SWAP1 POP JUMP JUMPDEST PUSH2 0x656B DUP2 PUSH2 0x6555 JUMP JUMPDEST DUP3 MSTORE POP POP JUMP JUMPDEST PUSH1 0x0 PUSH1 0x20 DUP3 ADD SWAP1 POP PUSH2 0x6586 PUSH1 0x0 DUP4 ADD DUP5 PUSH2 0x6562 JUMP JUMPDEST SWAP3 SWAP2 POP POP JUMP JUMPDEST PUSH1 0x0 PUSH1 0x20 DUP3 DUP5 SUB SLT ISZERO PUSH2 0x65A2 JUMPI PUSH2 0x65A1 PUSH2 0x6169 JUMP JUMPDEST JUMPDEST PUSH1 0x0 PUSH2 0x65B0 DUP5 DUP3 DUP6 ADD PUSH2 0x6361 JUMP JUMPDEST SWAP2 POP POP SWAP3 SWAP2 POP POP JUMP JUMPDEST PUSH1 0x0 PUSH1 0x20 DUP3 DUP5 SUB SLT ISZERO PUSH2 0x65CF JUMPI PUSH2 0x65CE PUSH2 0x6169 JUMP JUMPDEST JUMPDEST PUSH1 0x0 PUSH2 0x65DD DUP5 DUP3 DUP6 ADD PUSH2 0x6397 JUMP JUMPDEST SWAP2 POP POP SWAP3 SWAP2 POP POP JUMP JUMPDEST PUSH1 0x0 DUP1 PUSH1 0x40 DUP4 DUP6 SUB SLT ISZERO PUSH2 0x65FD JUMPI PUSH2 0x65FC PUSH2 0x6169 JUMP JUMPDEST JUMPDEST PUSH1 0x0 PUSH2 0x660B DUP6 DUP3 DUP7 ADD PUSH2 0x642D JUMP JUMPDEST SWAP3 POP POP PUSH1 0x20 PUSH2 0x661C DUP6 DUP3 DUP7 ADD PUSH2 0x6397 JUMP JUMPDEST SWAP2 POP POP SWAP3 POP SWAP3 SWAP1 POP JUMP JUMPDEST PUSH2 0x662F DUP2 PUSH2 0x6338 JUMP JUMPDEST DUP3 MSTORE POP POP JUMP JUMPDEST PUSH1 0x0 PUSH1 0x20 DUP3 ADD SWAP1 POP PUSH2 0x664A PUSH1 0x0 DUP4 ADD DUP5 PUSH2 0x6626 JUMP JUMPDEST SWAP3 SWAP2 POP POP JUMP JUMPDEST PUSH2 0x6659 DUP2 PUSH2 0x61F3 JUMP JUMPDEST DUP2 EQ PUSH2 0x6664 JUMPI PUSH1 0x0 DUP1 REVERT JUMPDEST POP JUMP JUMPDEST PUSH1 0x0 DUP2 CALLDATALOAD SWAP1 POP PUSH2 0x6676 DUP2 PUSH2 0x6650 JUMP JUMPDEST SWAP3 SWAP2 POP POP JUMP JUMPDEST PUSH1 0x0 DUP1 PUSH1 0x0 DUP1 PUSH1 0x80 DUP6 DUP8 SUB SLT ISZERO PUSH2 0x6696 JUMPI PUSH2 0x6695 PUSH2 0x6169 JUMP JUMPDEST JUMPDEST PUSH1 0x0 PUSH2 0x66A4 DUP8 DUP3 DUP9 ADD PUSH2 0x6667 JUMP JUMPDEST SWAP5 POP POP PUSH1 0x20 PUSH2 0x66B5 DUP8 DUP3 DUP9 ADD PUSH2 0x6667 JUMP JUMPDEST SWAP4 POP POP PUSH1 0x40 PUSH2 0x66C6 DUP8 DUP3 DUP9 ADD PUSH2 0x6397 JUMP JUMPDEST SWAP3 POP POP PUSH1 0x60 PUSH2 0x66D7 DUP8 DUP3 DUP9 ADD PUSH2 0x6397 JUMP JUMPDEST SWAP2 POP POP SWAP3 SWAP6 SWAP2 SWAP5 POP SWAP3 POP JUMP JUMPDEST PUSH1 0x0 DUP1 PUSH1 0x40 DUP4 DUP6 SUB SLT ISZERO PUSH2 0x66FA JUMPI PUSH2 0x66F9 PUSH2 0x6169 JUMP JUMPDEST JUMPDEST PUSH1 0x0 PUSH2 0x6708 DUP6 DUP3 DUP7 ADD PUSH2 0x6361 JUMP JUMPDEST SWAP3 POP POP PUSH1 0x20 PUSH2 0x6719 DUP6 DUP3 DUP7 ADD PUSH2 0x6361 JUMP JUMPDEST SWAP2 POP POP SWAP3 POP SWAP3 SWAP1 POP JUMP JUMPDEST PUSH32 0x4E487B7100000000000000000000000000000000000000000000000000000000 PUSH1 0x0 MSTORE PUSH1 0x22 PUSH1 0x4 MSTORE PUSH1 0x24 PUSH1 0x0 REVERT JUMPDEST PUSH1 0x0 PUSH1 0x2 DUP3 DIV SWAP1 POP PUSH1 0x1 DUP3 AND DUP1 PUSH2 0x676A JUMPI PUSH1 0x7F DUP3 AND SWAP2 POP JUMPDEST PUSH1 0x20 DUP3 LT DUP2 EQ ISZERO PUSH2 0x677E JUMPI PUSH2 0x677D PUSH2 0x6723 JUMP JUMPDEST JUMPDEST POP SWAP2 SWAP1 POP JUMP JUMPDEST PUSH32 0x2157686974656C69737400000000000000000000000000000000000000000000 PUSH1 0x0 DUP3 ADD MSTORE POP JUMP JUMPDEST PUSH1 0x0 PUSH2 0x67BA PUSH1 0xA DUP4 PUSH2 0x6268 JUMP JUMPDEST SWAP2 POP PUSH2 0x67C5 DUP3 PUSH2 0x6784 JUMP JUMPDEST PUSH1 0x20 DUP3 ADD SWAP1 POP SWAP2 SWAP1 POP JUMP JUMPDEST PUSH1 0x0 PUSH1 0x20 DUP3 ADD SWAP1 POP DUP2 DUP2 SUB PUSH1 0x0 DUP4 ADD MSTORE PUSH2 0x67E9 DUP2 PUSH2 0x67AD JUMP JUMPDEST SWAP1 POP SWAP2 SWAP1 POP JUMP JUMPDEST PUSH32 0x4E487B7100000000000000000000000000000000000000000000000000000000 PUSH1 0x0 MSTORE PUSH1 0x11 PUSH1 0x4 MSTORE PUSH1 0x24 PUSH1 0x0 REVERT JUMPDEST PUSH1 0x0 PUSH2 0x682A DUP3 PUSH2 0x6376 JUMP JUMPDEST SWAP2 POP PUSH2 0x6835 DUP4 PUSH2 0x6376 JUMP JUMPDEST SWAP3 POP DUP3 DUP3 LT ISZERO PUSH2 0x6848 JUMPI PUSH2 0x6847 PUSH2 0x67F0 JUMP JUMPDEST JUMPDEST DUP3 DUP3 SUB SWAP1 POP SWAP3 SWAP2 POP POP JUMP JUMPDEST PUSH32 0x4F6E6C7920726F6C652061646D696E2063616E207265766F6B65000000000000 PUSH1 0x0 DUP3 ADD MSTORE POP JUMP JUMPDEST PUSH1 0x0 PUSH2 0x6889 PUSH1 0x1A DUP4 PUSH2 0x6268 JUMP JUMPDEST SWAP2 POP PUSH2 0x6894 DUP3 PUSH2 0x6853 JUMP JUMPDEST PUSH1 0x20 DUP3 ADD SWAP1 POP SWAP2 SWAP1 POP JUMP JUMPDEST PUSH1 0x0 PUSH1 0x20 DUP3 ADD SWAP1 POP DUP2 DUP2 SUB PUSH1 0x0 DUP4 ADD MSTORE PUSH2 0x68B8 DUP2 PUSH2 0x687C JUMP JUMPDEST SWAP1 POP SWAP2 SWAP1 POP JUMP JUMPDEST PUSH32 0x436F6E7472616374207265717569726573206F6E652061646D696E0000000000 PUSH1 0x0 DUP3 ADD MSTORE POP JUMP JUMPDEST PUSH1 0x0 PUSH2 0x68F5 PUSH1 0x1B DUP4 PUSH2 0x6268 JUMP JUMPDEST SWAP2 POP PUSH2 0x6900 DUP3 PUSH2 0x68BF JUMP JUMPDEST PUSH1 0x20 DUP3 ADD SWAP1 POP SWAP2 SWAP1 POP JUMP JUMPDEST PUSH1 0x0 PUSH1 0x20 DUP3 ADD SWAP1 POP DUP2 DUP2 SUB PUSH1 0x0 DUP4 ADD MSTORE PUSH2 0x6924 DUP2 PUSH2 0x68E8 JUMP JUMPDEST SWAP1 POP SWAP2 SWAP1 POP JUMP JUMPDEST PUSH1 0x0 PUSH2 0x6936 DUP3 PUSH2 0x6376 JUMP JUMPDEST SWAP2 POP PUSH2 0x6941 DUP4 PUSH2 0x6376 JUMP JUMPDEST SWAP3 POP DUP3 PUSH32 0xFFFFFFFFFFFFFFFFFFFFFFFFFFFFFFFFFFFFFFFFFFFFFFFFFFFFFFFFFFFFFFFF SUB DUP3 GT ISZERO PUSH2 0x6976 JUMPI PUSH2 0x6975 PUSH2 0x67F0 JUMP JUMPDEST JUMPDEST DUP3 DUP3 ADD SWAP1 POP SWAP3 SWAP2 POP POP JUMP JUMPDEST PUSH32 0x436F6D6D69746D656E7420636F6F6C646F776E00000000000000000000000000 PUSH1 0x0 DUP3 ADD MSTORE POP JUMP JUMPDEST PUSH1 0x0 PUSH2 0x69B7 PUSH1 0x13 DUP4 PUSH2 0x6268 JUMP JUMPDEST SWAP2 POP PUSH2 0x69C2 DUP3 PUSH2 0x6981 JUMP JUMPDEST PUSH1 0x20 DUP3 ADD SWAP1 POP SWAP2 SWAP1 POP JUMP JUMPDEST PUSH1 0x0 PUSH1 0x20 DUP3 ADD SWAP1 POP DUP2 DUP2 SUB PUSH1 0x0 DUP4 ADD MSTORE PUSH2 0x69E6 DUP2 PUSH2 0x69AA JUMP JUMPDEST SWAP1 POP SWAP2 SWAP1 POP JUMP JUMPDEST PUSH32 0x5472616E73616374696F6E20616C726561647920717565756564000000000000 PUSH1 0x0 DUP3 ADD MSTORE POP JUMP JUMPDEST PUSH1 0x0 PUSH2 0x6A23 PUSH1 0x1A DUP4 PUSH2 0x6268 JUMP JUMPDEST SWAP2 POP PUSH2 0x6A2E DUP3 PUSH2 0x69ED JUMP JUMPDEST PUSH1 0x20 DUP3 ADD SWAP1 POP SWAP2 SWAP1 POP JUMP JUMPDEST PUSH1 0x0 PUSH1 0x20 DUP3 ADD SWAP1 POP DUP2 DUP2 SUB PUSH1 0x0 DUP4 ADD MSTORE PUSH2 0x6A52 DUP2 PUSH2 0x6A16 JUMP JUMPDEST SWAP1 POP SWAP2 SWAP1 POP JUMP JUMPDEST PUSH32 0x4E487B7100000000000000000000000000000000000000000000000000000000 PUSH1 0x0 MSTORE PUSH1 0x12 PUSH1 0x4 MSTORE PUSH1 0x24 PUSH1 0x0 REVERT JUMPDEST PUSH1 0x0 PUSH2 0x6A93 DUP3 PUSH2 0x6376 JUMP JUMPDEST SWAP2 POP PUSH2 0x6A9E DUP4 PUSH2 0x6376 JUMP JUMPDEST SWAP3 POP DUP3 PUSH2 0x6AAE JUMPI PUSH2 0x6AAD PUSH2 0x6A59 JUMP JUMPDEST JUMPDEST DUP3 DUP3 DIV SWAP1 POP SWAP3 SWAP2 POP POP JUMP JUMPDEST PUSH1 0x0 PUSH2 0x6AC4 DUP3 PUSH2 0x6376 JUMP JUMPDEST SWAP2 POP PUSH2 0x6ACF DUP4 PUSH2 0x6376 JUMP JUMPDEST SWAP3 POP DUP2 PUSH32 0xFFFFFFFFFFFFFFFFFFFFFFFFFFFFFFFFFFFFFFFFFFFFFFFFFFFFFFFFFFFFFFFF DIV DUP4 GT DUP3 ISZERO ISZERO AND ISZERO PUSH2 0x6B08 JUMPI PUSH2 0x6B07 PUSH2 0x67F0 JUMP JUMPDEST JUMPDEST DUP3 DUP3 MUL SWAP1 POP SWAP3 SWAP2 POP POP JUMP JUMPDEST PUSH1 0x0 PUSH1 0x60 DUP3 ADD SWAP1 POP PUSH2 0x6B28 PUSH1 0x0 DUP4 ADD DUP7 PUSH2 0x63EC JUMP JUMPDEST PUSH2 0x6B35 PUSH1 0x20 DUP4 ADD DUP6 PUSH2 0x63EC JUMP JUMPDEST PUSH2 0x6B42 PUSH1 0x40 DUP4 ADD DUP5 PUSH2 0x6626 JUMP JUMPDEST SWAP5 SWAP4 POP POP POP POP JUMP JUMPDEST PUSH32 0x21436F6D6D69746D656E74000000000000000000000000000000000000000000 PUSH1 0x0 DUP3 ADD MSTORE POP JUMP JUMPDEST PUSH1 0x0 PUSH2 0x6B80 PUSH1 0xB DUP4 PUSH2 0x6268 JUMP JUMPDEST SWAP2 POP PUSH2 0x6B8B DUP3 PUSH2 0x6B4A JUMP JUMPDEST PUSH1 0x20 DUP3 ADD SWAP1 POP SWAP2 SWAP1 POP JUMP JUMPDEST PUSH1 0x0 PUSH1 0x20 DUP3 ADD SWAP1 POP DUP2 DUP2 SUB PUSH1 0x0 DUP4 ADD MSTORE PUSH2 0x6BAF DUP2 PUSH2 0x6B73 JUMP JUMPDEST SWAP1 POP SWAP2 SWAP1 POP JUMP JUMPDEST PUSH32 0x496E697469616C697A61626C653A20636F6E747261637420697320616C726561 PUSH1 0x0 DUP3 ADD MSTORE PUSH32 0x647920696E697469616C697A6564000000000000000000000000000000000000 PUSH1 0x20 DUP3 ADD MSTORE POP JUMP JUMPDEST PUSH1 0x0 PUSH2 0x6C12 PUSH1 0x2E DUP4 PUSH2 0x6268 JUMP JUMPDEST SWAP2 POP PUSH2 0x6C1D DUP3 PUSH2 0x6BB6 JUMP JUMPDEST PUSH1 0x40 DUP3 ADD SWAP1 POP SWAP2 SWAP1 POP JUMP JUMPDEST PUSH1 0x0 PUSH1 0x20 DUP3 ADD SWAP1 POP DUP2 DUP2 SUB PUSH1 0x0 DUP4 ADD MSTORE PUSH2 0x6C41 DUP2 PUSH2 0x6C05 JUMP JUMPDEST SWAP1 POP SWAP2 SWAP1 POP JUMP JUMPDEST PUSH1 0x0 DUP2 SWAP1 POP SWAP2 SWAP1 POP JUMP JUMPDEST PUSH1 0x0 DUP2 SWAP1 POP SWAP2 SWAP1 POP JUMP JUMPDEST PUSH1 0x0 PUSH2 0x6C77 PUSH2 0x6C72 PUSH2 0x6C6D DUP5 PUSH2 0x6C48 JUMP JUMPDEST PUSH2 0x6C52 JUMP JUMPDEST PUSH2 0x6555 JUMP JUMPDEST SWAP1 POP SWAP2 SWAP1 POP JUMP JUMPDEST PUSH2 0x6C87 DUP2 PUSH2 0x6C5C JUMP JUMPDEST DUP3 MSTORE POP POP JUMP JUMPDEST PUSH1 0x0 PUSH1 0x20 DUP3 ADD SWAP1 POP PUSH2 0x6CA2 PUSH1 0x0 DUP4 ADD DUP5 PUSH2 0x6C7E JUMP JUMPDEST SWAP3 SWAP2 POP POP JUMP JUMPDEST PUSH32 0x45524332303A2064656372656173656420616C6C6F77616E63652062656C6F77 PUSH1 0x0 DUP3 ADD MSTORE PUSH32 0x207A65726F000000000000000000000000000000000000000000000000000000 PUSH1 0x20 DUP3 ADD MSTORE POP JUMP JUMPDEST PUSH1 0x0 PUSH2 0x6D04 PUSH1 0x25 DUP4 PUSH2 0x6268 JUMP JUMPDEST SWAP2 POP PUSH2 0x6D0F DUP3 PUSH2 0x6CA8 JUMP JUMPDEST PUSH1 0x40 DUP3 ADD SWAP1 POP SWAP2 SWAP1 POP JUMP JUMPDEST PUSH1 0x0 PUSH1 0x20 DUP3 ADD SWAP1 POP DUP2 DUP2 SUB PUSH1 0x0 DUP4 ADD MSTORE PUSH2 0x6D33 DUP2 PUSH2 0x6CF7 JUMP JUMPDEST SWAP1 POP SWAP2 SWAP1 POP JUMP JUMPDEST PUSH32 0x436F6F6C646F776E20686173206E6F742079657420656C617073656400000000 PUSH1 0x0 DUP3 ADD MSTORE POP JUMP JUMPDEST PUSH1 0x0 PUSH2 0x6D70 PUSH1 0x1C DUP4 PUSH2 0x6268 JUMP JUMPDEST SWAP2 POP PUSH2 0x6D7B DUP3 PUSH2 0x6D3A JUMP JUMPDEST PUSH1 0x20 DUP3 ADD SWAP1 POP SWAP2 SWAP1 POP JUMP JUMPDEST PUSH1 0x0 PUSH1 0x20 DUP3 ADD SWAP1 POP DUP2 DUP2 SUB PUSH1 0x0 DUP4 ADD MSTORE PUSH2 0x6D9F DUP2 PUSH2 0x6D63 JUMP JUMPDEST SWAP1 POP SWAP2 SWAP1 POP JUMP JUMPDEST PUSH1 0x0 PUSH2 0x6DB1 DUP3 PUSH2 0x6376 JUMP JUMPDEST SWAP2 POP PUSH2 0x6DBC DUP4 PUSH2 0x6376 JUMP JUMPDEST SWAP3 POP DUP3 PUSH2 0x6DCC JUMPI PUSH2 0x6DCB PUSH2 0x6A59 JUMP JUMPDEST JUMPDEST DUP3 DUP3 MOD SWAP1 POP SWAP3 SWAP2 POP POP JUMP JUMPDEST PUSH32 0x5661726961626C652072617465206D75737420626520696E20696E6372656D65 PUSH1 0x0 DUP3 ADD MSTORE PUSH32 0x6E7473206F6620302E3125210000000000000000000000000000000000000000 PUSH1 0x20 DUP3 ADD MSTORE POP JUMP JUMPDEST PUSH1 0x0 PUSH2 0x6E33 PUSH1 0x2C DUP4 PUSH2 0x6268 JUMP JUMPDEST SWAP2 POP PUSH2 0x6E3E DUP3 PUSH2 0x6DD7 JUMP JUMPDEST PUSH1 0x40 DUP3 ADD SWAP1 POP SWAP2 SWAP1 POP JUMP JUMPDEST PUSH1 0x0 PUSH1 0x20 DUP3 ADD SWAP1 POP DUP2 DUP2 SUB PUSH1 0x0 DUP4 ADD MSTORE PUSH2 0x6E62 DUP2 PUSH2 0x6E26 JUMP JUMPDEST SWAP1 POP SWAP2 SWAP1 POP JUMP JUMPDEST PUSH32 0x4E6577205261746520546F6F204C617267650000000000000000000000000000 PUSH1 0x0 DUP3 ADD MSTORE POP JUMP JUMPDEST PUSH1 0x0 PUSH2 0x6E9F PUSH1 0x12 DUP4 PUSH2 0x6268 JUMP JUMPDEST SWAP2 POP PUSH2 0x6EAA DUP3 PUSH2 0x6E69 JUMP JUMPDEST PUSH1 0x20 DUP3 ADD SWAP1 POP SWAP2 SWAP1 POP JUMP JUMPDEST PUSH1 0x0 PUSH1 0x20 DUP3 ADD SWAP1 POP DUP2 DUP2 SUB PUSH1 0x0 DUP4 ADD MSTORE PUSH2 0x6ECE DUP2 PUSH2 0x6E92 JUMP JUMPDEST SWAP1 POP SWAP2 SWAP1 POP JUMP JUMPDEST PUSH32 0x45524332303A20617070726F76652066726F6D20746865207A65726F20616464 PUSH1 0x0 DUP3 ADD MSTORE PUSH32 0x7265737300000000000000000000000000000000000000000000000000000000 PUSH1 0x20 DUP3 ADD MSTORE POP JUMP JUMPDEST PUSH1 0x0 PUSH2 0x6F31 PUSH1 0x24 DUP4 PUSH2 0x6268 JUMP JUMPDEST SWAP2 POP PUSH2 0x6F3C DUP3 PUSH2 0x6ED5 JUMP JUMPDEST PUSH1 0x40 DUP3 ADD SWAP1 POP SWAP2 SWAP1 POP JUMP JUMPDEST PUSH1 0x0 PUSH1 0x20 DUP3 ADD SWAP1 POP DUP2 DUP2 SUB PUSH1 0x0 DUP4 ADD MSTORE PUSH2 0x6F60 DUP2 PUSH2 0x6F24 JUMP JUMPDEST SWAP1 POP SWAP2 SWAP1 POP JUMP JUMPDEST PUSH32 0x45524332303A20617070726F766520746F20746865207A65726F206164647265 PUSH1 0x0 DUP3 ADD MSTORE PUSH32 0x7373000000000000000000000000000000000000000000000000000000000000 PUSH1 0x20 DUP3 ADD MSTORE POP JUMP JUMPDEST PUSH1 0x0 PUSH2 0x6FC3 PUSH1 0x22 DUP4 PUSH2 0x6268 JUMP JUMPDEST SWAP2 POP PUSH2 0x6FCE DUP3 PUSH2 0x6F67 JUMP JUMPDEST PUSH1 0x40 DUP3 ADD SWAP1 POP SWAP2 SWAP1 POP JUMP JUMPDEST PUSH1 0x0 PUSH1 0x20 DUP3 ADD SWAP1 POP DUP2 DUP2 SUB PUSH1 0x0 DUP4 ADD MSTORE PUSH2 0x6FF2 DUP2 PUSH2 0x6FB6 JUMP JUMPDEST SWAP1 POP SWAP2 SWAP1 POP JUMP JUMPDEST PUSH32 0x21507265636973696F6E00000000000000000000000000000000000000000000 PUSH1 0x0 DUP3 ADD MSTORE POP JUMP JUMPDEST PUSH1 0x0 PUSH2 0x702F PUSH1 0xA DUP4 PUSH2 0x6268 JUMP JUMPDEST SWAP2 POP PUSH2 0x703A DUP3 PUSH2 0x6FF9 JUMP JUMPDEST PUSH1 0x20 DUP3 ADD SWAP1 POP SWAP2 SWAP1 POP JUMP JUMPDEST PUSH1 0x0 PUSH1 0x20 DUP3 ADD SWAP1 POP DUP2 DUP2 SUB PUSH1 0x0 DUP4 ADD MSTORE PUSH2 0x705E DUP2 PUSH2 0x7022 JUMP JUMPDEST SWAP1 POP SWAP2 SWAP1 POP JUMP JUMPDEST PUSH32 0x45524332303A206D696E7420746F20746865207A65726F206164647265737300 PUSH1 0x0 DUP3 ADD MSTORE POP JUMP JUMPDEST PUSH1 0x0 PUSH2 0x709B PUSH1 0x1F DUP4 PUSH2 0x6268 JUMP JUMPDEST SWAP2 POP PUSH2 0x70A6 DUP3 PUSH2 0x7065 JUMP JUMPDEST PUSH1 0x20 DUP3 ADD SWAP1 POP SWAP2 SWAP1 POP JUMP JUMPDEST PUSH1 0x0 PUSH1 0x20 DUP3 ADD SWAP1 POP DUP2 DUP2 SUB PUSH1 0x0 DUP4 ADD MSTORE PUSH2 0x70CA DUP2 PUSH2 0x708E JUMP JUMPDEST SWAP1 POP SWAP2 SWAP1 POP JUMP JUMPDEST PUSH1 0x0 DUP2 PUSH1 0x60 SHL SWAP1 POP SWAP2 SWAP1 POP JUMP JUMPDEST PUSH1 0x0 PUSH2 0x70E9 DUP3 PUSH2 0x70D1 JUMP JUMPDEST SWAP1 POP SWAP2 SWAP1 POP JUMP JUMPDEST PUSH1 0x0 PUSH2 0x70FB DUP3 PUSH2 0x70DE JUMP JUMPDEST SWAP1 POP SWAP2 SWAP1 POP JUMP JUMPDEST PUSH2 0x7113 PUSH2 0x710E DUP3 PUSH2 0x6338 JUMP JUMPDEST PUSH2 0x70F0 JUMP JUMPDEST DUP3 MSTORE POP POP JUMP JUMPDEST PUSH1 0x0 DUP2 SWAP1 POP SWAP2 SWAP1 POP JUMP JUMPDEST PUSH2 0x7134 PUSH2 0x712F DUP3 PUSH2 0x6376 JUMP JUMPDEST PUSH2 0x7119 JUMP JUMPDEST DUP3 MSTORE POP POP JUMP JUMPDEST PUSH1 0x0 DUP2 SWAP1 POP SWAP2 SWAP1 POP JUMP JUMPDEST PUSH2 0x7155 PUSH2 0x7150 DUP3 PUSH2 0x6229 JUMP JUMPDEST PUSH2 0x713A JUMP JUMPDEST DUP3 MSTORE POP POP JUMP JUMPDEST PUSH1 0x0 PUSH2 0x7167 DUP3 DUP7 PUSH2 0x7102 JUMP JUMPDEST PUSH1 0x14 DUP3 ADD SWAP2 POP PUSH2 0x7177 DUP3 DUP6 PUSH2 0x7123 JUMP JUMPDEST PUSH1 0x20 DUP3 ADD SWAP2 POP PUSH2 0x7187 DUP3 DUP5 PUSH2 0x7144 JUMP JUMPDEST PUSH1 0x20 DUP3 ADD SWAP2 POP DUP2 SWAP1 POP SWAP5 SWAP4 POP POP POP POP JUMP JUMPDEST PUSH32 0x45524332303A20696E73756666696369656E7420616C6C6F77616E6365000000 PUSH1 0x0 DUP3 ADD MSTORE POP JUMP JUMPDEST PUSH1 0x0 PUSH2 0x71CE PUSH1 0x1D DUP4 PUSH2 0x6268 JUMP JUMPDEST SWAP2 POP PUSH2 0x71D9 DUP3 PUSH2 0x7198 JUMP JUMPDEST PUSH1 0x20 DUP3 ADD SWAP1 POP SWAP2 SWAP1 POP JUMP JUMPDEST PUSH1 0x0 PUSH1 0x20 DUP3 ADD SWAP1 POP DUP2 DUP2 SUB PUSH1 0x0 DUP4 ADD MSTORE PUSH2 0x71FD DUP2 PUSH2 0x71C1 JUMP JUMPDEST SWAP1 POP SWAP2 SWAP1 POP JUMP JUMPDEST PUSH32 0x45524332303A207472616E736665722066726F6D20746865207A65726F206164 PUSH1 0x0 DUP3 ADD MSTORE PUSH32 0x6472657373000000000000000000000000000000000000000000000000000000 PUSH1 0x20 DUP3 ADD MSTORE POP JUMP JUMPDEST PUSH1 0x0 PUSH2 0x7260 PUSH1 0x25 DUP4 PUSH2 0x6268 JUMP JUMPDEST SWAP2 POP PUSH2 0x726B DUP3 PUSH2 0x7204 JUMP JUMPDEST PUSH1 0x40 DUP3 ADD SWAP1 POP SWAP2 SWAP1 POP JUMP JUMPDEST PUSH1 0x0 PUSH1 0x20 DUP3 ADD SWAP1 POP DUP2 DUP2 SUB PUSH1 0x0 DUP4 ADD MSTORE PUSH2 0x728F DUP2 PUSH2 0x7253 JUMP JUMPDEST SWAP1 POP SWAP2 SWAP1 POP JUMP JUMPDEST PUSH32 0x45524332303A207472616E7366657220746F20746865207A65726F2061646472 PUSH1 0x0 DUP3 ADD MSTORE PUSH32 0x6573730000000000000000000000000000000000000000000000000000000000 PUSH1 0x20 DUP3 ADD MSTORE POP JUMP JUMPDEST PUSH1 0x0 PUSH2 0x72F2 PUSH1 0x23 DUP4 PUSH2 0x6268 JUMP JUMPDEST SWAP2 POP PUSH2 0x72FD DUP3 PUSH2 0x7296 JUMP JUMPDEST PUSH1 0x40 DUP3 ADD SWAP1 POP SWAP2 SWAP1 POP JUMP JUMPDEST PUSH1 0x0 PUSH1 0x20 DUP3 ADD SWAP1 POP DUP2 DUP2 SUB PUSH1 0x0 DUP4 ADD MSTORE PUSH2 0x7321 DUP2 PUSH2 0x72E5 JUMP JUMPDEST SWAP1 POP SWAP2 SWAP1 POP JUMP JUMPDEST PUSH32 0x45524332303A207472616E7366657220616D6F756E7420657863656564732062 PUSH1 0x0 DUP3 ADD MSTORE PUSH32 0x616C616E63650000000000000000000000000000000000000000000000000000 PUSH1 0x20 DUP3 ADD MSTORE POP JUMP JUMPDEST PUSH1 0x0 PUSH2 0x7384 PUSH1 0x26 DUP4 PUSH2 0x6268 JUMP JUMPDEST SWAP2 POP PUSH2 0x738F DUP3 PUSH2 0x7328 JUMP JUMPDEST PUSH1 0x40 DUP3 ADD SWAP1 POP SWAP2 SWAP1 POP JUMP JUMPDEST PUSH1 0x0 PUSH1 0x20 DUP3 ADD SWAP1 POP DUP2 DUP2 SUB PUSH1 0x0 DUP4 ADD MSTORE PUSH2 0x73B3 DUP2 PUSH2 0x7377 JUMP JUMPDEST SWAP1 POP SWAP2 SWAP1 POP JUMP JUMPDEST PUSH32 0x416363657373436F6E74726F6C3A2063616E206F6E6C792072656E6F756E6365 PUSH1 0x0 DUP3 ADD MSTORE PUSH32 0x20726F6C657320666F722073656C660000000000000000000000000000000000 PUSH1 0x20 DUP3 ADD MSTORE POP JUMP JUMPDEST PUSH1 0x0 PUSH2 0x7416 PUSH1 0x2F DUP4 PUSH2 0x6268 JUMP JUMPDEST SWAP2 POP PUSH2 0x7421 DUP3 PUSH2 0x73BA JUMP JUMPDEST PUSH1 0x40 DUP3 ADD SWAP1 POP SWAP2 SWAP1 POP JUMP JUMPDEST PUSH1 0x0 PUSH1 0x20 DUP3 ADD SWAP1 POP DUP2 DUP2 SUB PUSH1 0x0 DUP4 ADD MSTORE PUSH2 0x7445 DUP2 PUSH2 0x7409 JUMP JUMPDEST SWAP1 POP SWAP2 SWAP1 POP JUMP JUMPDEST PUSH32 0x496E697469616C697A61626C653A20636F6E7472616374206973206E6F742069 PUSH1 0x0 DUP3 ADD MSTORE PUSH32 0x6E697469616C697A696E67000000000000000000000000000000000000000000 PUSH1 0x20 DUP3 ADD MSTORE POP JUMP JUMPDEST PUSH1 0x0 PUSH2 0x74A8 PUSH1 0x2B DUP4 PUSH2 0x6268 JUMP JUMPDEST SWAP2 POP PUSH2 0x74B3 DUP3 PUSH2 0x744C JUMP JUMPDEST PUSH1 0x40 DUP3 ADD SWAP1 POP SWAP2 SWAP1 POP JUMP JUMPDEST PUSH1 0x0 PUSH1 0x20 DUP3 ADD SWAP1 POP DUP2 DUP2 SUB PUSH1 0x0 DUP4 ADD MSTORE PUSH2 0x74D7 DUP2 PUSH2 0x749B JUMP JUMPDEST SWAP1 POP SWAP2 SWAP1 POP JUMP JUMPDEST PUSH32 0x45524332303A206275726E2066726F6D20746865207A65726F20616464726573 PUSH1 0x0 DUP3 ADD MSTORE PUSH32 0x7300000000000000000000000000000000000000000000000000000000000000 PUSH1 0x20 DUP3 ADD MSTORE POP JUMP JUMPDEST PUSH1 0x0 PUSH2 0x753A PUSH1 0x21 DUP4 PUSH2 0x6268 JUMP JUMPDEST SWAP2 POP PUSH2 0x7545 DUP3 PUSH2 0x74DE JUMP JUMPDEST PUSH1 0x40 DUP3 ADD SWAP1 POP SWAP2 SWAP1 POP JUMP JUMPDEST PUSH1 0x0 PUSH1 0x20 DUP3 ADD SWAP1 POP DUP2 DUP2 SUB PUSH1 0x0 DUP4 ADD MSTORE PUSH2 0x7569 DUP2 PUSH2 0x752D JUMP JUMPDEST SWAP1 POP SWAP2 SWAP1 POP JUMP JUMPDEST PUSH32 0x45524332303A206275726E20616D6F756E7420657863656564732062616C616E PUSH1 0x0 DUP3 ADD MSTORE PUSH32 0x6365000000000000000000000000000000000000000000000000000000000000 PUSH1 0x20 DUP3 ADD MSTORE POP JUMP JUMPDEST PUSH1 0x0 PUSH2 0x75CC PUSH1 0x22 DUP4 PUSH2 0x6268 JUMP JUMPDEST SWAP2 POP PUSH2 0x75D7 DUP3 PUSH2 0x7570 JUMP JUMPDEST PUSH1 0x40 DUP3 ADD SWAP1 POP SWAP2 SWAP1 POP JUMP JUMPDEST PUSH1 0x0 PUSH1 0x20 DUP3 ADD SWAP1 POP DUP2 DUP2 SUB PUSH1 0x0 DUP4 ADD MSTORE PUSH2 0x75FB DUP2 PUSH2 0x75BF JUMP JUMPDEST SWAP1 POP SWAP2 SWAP1 POP JUMP JUMPDEST PUSH1 0x0 DUP2 SWAP1 POP SWAP3 SWAP2 POP POP JUMP JUMPDEST PUSH32 0x416363657373436F6E74726F6C3A206163636F756E7420000000000000000000 PUSH1 0x0 DUP3 ADD MSTORE POP JUMP JUMPDEST PUSH1 0x0 PUSH2 0x7643 PUSH1 0x17 DUP4 PUSH2 0x7602 JUMP JUMPDEST SWAP2 POP PUSH2 0x764E DUP3 PUSH2 0x760D JUMP JUMPDEST PUSH1 0x17 DUP3 ADD SWAP1 POP SWAP2 SWAP1 POP JUMP JUMPDEST PUSH1 0x0 PUSH2 0x7664 DUP3 PUSH2 0x625D JUMP JUMPDEST PUSH2 0x766E DUP2 DUP6 PUSH2 0x7602 JUMP JUMPDEST SWAP4 POP PUSH2 0x767E DUP2 DUP6 PUSH1 0x20 DUP7 ADD PUSH2 0x6279 JUMP JUMPDEST DUP1 DUP5 ADD SWAP2 POP POP SWAP3 SWAP2 POP POP JUMP JUMPDEST PUSH32 0x206973206D697373696E6720726F6C6520000000000000000000000000000000 PUSH1 0x0 DUP3 ADD MSTORE POP JUMP JUMPDEST PUSH1 0x0 PUSH2 0x76C0 PUSH1 0x11 DUP4 PUSH2 0x7602 JUMP JUMPDEST SWAP2 POP PUSH2 0x76CB DUP3 PUSH2 0x768A JUMP JUMPDEST PUSH1 0x11 DUP3 ADD SWAP1 POP SWAP2 SWAP1 POP JUMP JUMPDEST PUSH1 0x0 PUSH2 0x76E1 DUP3 PUSH2 0x7636 JUMP JUMPDEST SWAP2 POP PUSH2 0x76ED DUP3 DUP6 PUSH2 0x7659 JUMP JUMPDEST SWAP2 POP PUSH2 0x76F8 DUP3 PUSH2 0x76B3 JUMP JUMPDEST SWAP2 POP PUSH2 0x7704 DUP3 DUP5 PUSH2 0x7659 JUMP JUMPDEST SWAP2 POP DUP2 SWAP1 POP SWAP4 SWAP3 POP POP POP JUMP JUMPDEST PUSH32 0x53656E6465722069732063757272656E746C792066726F7A656E2E0000000000 PUSH1 0x0 DUP3 ADD MSTORE POP JUMP JUMPDEST PUSH1 0x0 PUSH2 0x7746 PUSH1 0x1B DUP4 PUSH2 0x6268 JUMP JUMPDEST SWAP2 POP PUSH2 0x7751 DUP3 PUSH2 0x7710 JUMP JUMPDEST PUSH1 0x20 DUP3 ADD SWAP1 POP SWAP2 SWAP1 POP JUMP JUMPDEST PUSH1 0x0 PUSH1 0x20 DUP3 ADD SWAP1 POP DUP2 DUP2 SUB PUSH1 0x0 DUP4 ADD MSTORE PUSH2 0x7775 DUP2 PUSH2 0x7739 JUMP JUMPDEST SWAP1 POP SWAP2 SWAP1 POP JUMP JUMPDEST PUSH32 0x526563697069656E742069732063757272656E746C792066726F7A656E2E0000 PUSH1 0x0 DUP3 ADD MSTORE POP JUMP JUMPDEST PUSH1 0x0 PUSH2 0x77B2 PUSH1 0x1E DUP4 PUSH2 0x6268 JUMP JUMPDEST SWAP2 POP PUSH2 0x77BD DUP3 PUSH2 0x777C JUMP JUMPDEST PUSH1 0x20 DUP3 ADD SWAP1 POP SWAP2 SWAP1 POP JUMP JUMPDEST PUSH1 0x0 PUSH1 0x20 DUP3 ADD SWAP1 POP DUP2 DUP2 SUB PUSH1 0x0 DUP4 ADD MSTORE PUSH2 0x77E1 DUP2 PUSH2 0x77A5 JUMP JUMPDEST SWAP1 POP SWAP2 SWAP1 POP JUMP JUMPDEST PUSH32 0x5061757361626C653A206E6F7420706175736564000000000000000000000000 PUSH1 0x0 DUP3 ADD MSTORE POP JUMP JUMPDEST PUSH1 0x0 PUSH2 0x781E PUSH1 0x14 DUP4 PUSH2 0x6268 JUMP JUMPDEST SWAP2 POP PUSH2 0x7829 DUP3 PUSH2 0x77E8 JUMP JUMPDEST PUSH1 0x20 DUP3 ADD SWAP1 POP SWAP2 SWAP1 POP JUMP JUMPDEST PUSH1 0x0 PUSH1 0x20 DUP3 ADD SWAP1 POP DUP2 DUP2 SUB PUSH1 0x0 DUP4 ADD MSTORE PUSH2 0x784D DUP2 PUSH2 0x7811 JUMP JUMPDEST SWAP1 POP SWAP2 SWAP1 POP JUMP JUMPDEST PUSH32 0x5061757361626C653A2070617573656400000000000000000000000000000000 PUSH1 0x0 DUP3 ADD MSTORE POP JUMP JUMPDEST PUSH1 0x0 PUSH2 0x788A PUSH1 0x10 DUP4 PUSH2 0x6268 JUMP JUMPDEST SWAP2 POP PUSH2 0x7895 DUP3 PUSH2 0x7854 JUMP JUMPDEST PUSH1 0x20 DUP3 ADD SWAP1 POP SWAP2 SWAP1 POP JUMP JUMPDEST PUSH1 0x0 PUSH1 0x20 DUP3 ADD SWAP1 POP DUP2 DUP2 SUB PUSH1 0x0 DUP4 ADD MSTORE PUSH2 0x78B9 DUP2 PUSH2 0x787D JUMP JUMPDEST SWAP1 POP SWAP2 SWAP1 POP JUMP JUMPDEST PUSH32 0x4E487B7100000000000000000000000000000000000000000000000000000000 PUSH1 0x0 MSTORE PUSH1 0x32 PUSH1 0x4 MSTORE PUSH1 0x24 PUSH1 0x0 REVERT JUMPDEST PUSH32 0x4E487B7100000000000000000000000000000000000000000000000000000000 PUSH1 0x0 MSTORE PUSH1 0x41 PUSH1 0x4 MSTORE PUSH1 0x24 PUSH1 0x0 REVERT JUMPDEST PUSH1 0x0 PUSH2 0x7929 DUP3 PUSH2 0x6376 JUMP JUMPDEST SWAP2 POP PUSH1 0x0 DUP3 EQ ISZERO PUSH2 0x793D JUMPI PUSH2 0x793C PUSH2 0x67F0 JUMP JUMPDEST JUMPDEST PUSH1 0x1 DUP3 SUB SWAP1 POP SWAP2 SWAP1 POP JUMP JUMPDEST PUSH32 0x537472696E67733A20686578206C656E67746820696E73756666696369656E74 PUSH1 0x0 DUP3 ADD MSTORE POP JUMP JUMPDEST PUSH1 0x0 PUSH2 0x797E PUSH1 0x20 DUP4 PUSH2 0x6268 JUMP JUMPDEST SWAP2 POP PUSH2 0x7989 DUP3 PUSH2 0x7948 JUMP JUMPDEST PUSH1 0x20 DUP3 ADD SWAP1 POP SWAP2 SWAP1 POP JUMP JUMPDEST PUSH1 0x0 PUSH1 0x20 DUP3 ADD SWAP1 POP DUP2 DUP2 SUB PUSH1 0x0 DUP4 ADD MSTORE PUSH2 0x79AD DUP2 PUSH2 0x7971 JUMP JUMPDEST SWAP1 POP SWAP2 SWAP1 POP JUMP JUMPDEST PUSH32 0x4E487B7100000000000000000000000000000000000000000000000000000000 PUSH1 0x0 MSTORE PUSH1 0x31 PUSH1 0x4 MSTORE PUSH1 0x24 PUSH1 0x0 REVERT INVALID LOG2 PUSH5 0x6970667358 0x22 SLT KECCAK256 MOD 0x25 SWAP12 0xB1 BASEFEE PUSH14 0x9AE9C646D3040B4DA62B965F10F0 GASPRICE 0xDC SWAP2 LT BASEFEE 0xB0 CODESIZE 0xDB 0xD4 0xF 0xAA PUSH19 0x64736F6C634300080B00330000000000000000 "},"methodIdentifiers":{"BASIS_RATE()":"866006a6","BURNER_ROLE()":"282c51f3","DEFAULT_ADMIN_ROLE()":"a217fddf","FEE_CONTROLLER()":"2fe94def","FREEZER_ROLE()":"06a85f0f","FROZEN_USER()":"5502f287","LIMITED_MINTER()":"dc59e8c7","MINTER_ROLE()":"d5391393","PAUSER_ROLE()":"e63ab1e9","WHITELIST_USER()":"f34b3079","allowance(address,address)":"dd62ed3e","approve(address,uint256)":"095ea7b3","balanceOf(address)":"70a08231","bankBurn(address,uint256,bytes32)":"a9eebdb1","burn(uint256)":"42966c68","burnFrom(address,uint256)":"79cc6790","commitCooldown()":"d911e39b","commitMint(address,uint256,bytes32)":"4670bb6c","commitUnlock(address)":"3606ef3c","cooldownMultiplier()":"6cea8372","currentFeeCollector()":"afe45f87","decimals()":"313ce567","decreaseAllowance(address,uint256)":"a457c2d7","freeBurning()":"fc5c69ba","freeMinting()":"a5835670","getMintHash(address,uint256,bytes32)":"571cc1aa","getRoleAdmin(bytes32)":"248a9ca3","getRoleMember(bytes32,uint256)":"9010d07c","getRoleMemberCount(bytes32)":"ca15c873","grantRole(bytes32,address)":"2f2ff15d","hasRole(bytes32,address)":"91d14854","increaseAllowance(address,uint256)":"39509351","initialize()":"8129fc1c","limitedMint(address,uint256,bytes32)":"aac41dac","mint(address,uint256,bytes32)":"1e458bee","mintUnlock(bytes32)":"54edc8f5","name()":"06fdde03","pause()":"8456cb59","paused()":"5c975abb","renounceRole(bytes32,address)":"36568abe","revokeRole(bytes32,address)":"d547741f","setControls(bool,bool,uint256,uint256)":"cc5907e1","setFeeCollector(address)":"a42dce80","supportsInterface(bytes4)":"01ffc9a7","symbol()":"95d89b41","totalSupply()":"18160ddd","transfer(address,uint256)":"a9059cbb","transferFrom(address,address,uint256)":"23b872dd","unpause()":"3f4ba83a","updateVariableRate(uint256)":"bd254d4c","variableRate()":"24e0d460","vetoMint(address,uint256,bytes32)":"6c6b65de"}},"storageLayout":{"storage":[{"astId":585,"contract":"contracts/USDR.sol:USDR","label":"_initialized","offset":0,"slot":"0","type":"t_uint8"},{"astId":588,"contract":"contracts/USDR.sol:USDR","label":"_initializing","offset":1,"slot":"0","type":"t_bool"},{"astId":1978,"contract":"contracts/USDR.sol:USDR","label":"__gap","offset":0,"slot":"1","type":"t_array(t_uint256)50_storage"},{"astId":893,"contract":"contracts/USDR.sol:USDR","label":"_balances","offset":0,"slot":"51","type":"t_mapping(t_address,t_uint256)"},{"astId":899,"contract":"contracts/USDR.sol:USDR","label":"_allowances","offset":0,"slot":"52","type":"t_mapping(t_address,t_mapping(t_address,t_uint256))"},{"astId":901,"contract":"contracts/USDR.sol:USDR","label":"_totalSupply","offset":0,"slot":"53","type":"t_uint256"},{"astId":903,"contract":"contracts/USDR.sol:USDR","label":"_name","offset":0,"slot":"54","type":"t_string_storage"},{"astId":905,"contract":"contracts/USDR.sol:USDR","label":"_symbol","offset":0,"slot":"55","type":"t_string_storage"},{"astId":1485,"contract":"contracts/USDR.sol:USDR","label":"__gap","offset":0,"slot":"56","type":"t_array(t_uint256)45_storage"},{"astId":1627,"contract":"contracts/USDR.sol:USDR","label":"__gap","offset":0,"slot":"101","type":"t_array(t_uint256)50_storage"},{"astId":768,"contract":"contracts/USDR.sol:USDR","label":"_paused","offset":0,"slot":"151","type":"t_bool"},{"astId":873,"contract":"contracts/USDR.sol:USDR","label":"__gap","offset":0,"slot":"152","type":"t_array(t_uint256)49_storage"},{"astId":2197,"contract":"contracts/USDR.sol:USDR","label":"__gap","offset":0,"slot":"201","type":"t_array(t_uint256)50_storage"},{"astId":184,"contract":"contracts/USDR.sol:USDR","label":"_roles","offset":0,"slot":"251","type":"t_mapping(t_bytes32,t_struct(RoleData)179_storage)"},{"astId":479,"contract":"contracts/USDR.sol:USDR","label":"__gap","offset":0,"slot":"252","type":"t_array(t_uint256)49_storage"},{"astId":33,"contract":"contracts/USDR.sol:USDR","label":"_roleMembers","offset":0,"slot":"301","type":"t_mapping(t_bytes32,t_struct(AddressSet)3401_storage)"},{"astId":143,"contract":"contracts/USDR.sol:USDR","label":"__gap","offset":0,"slot":"302","type":"t_array(t_uint256)49_storage"},{"astId":3817,"contract":"contracts/USDR.sol:USDR","label":"variableRate","offset":0,"slot":"351","type":"t_uint256"},{"astId":3819,"contract":"contracts/USDR.sol:USDR","label":"currentFeeCollector","offset":0,"slot":"352","type":"t_address"},{"astId":3821,"contract":"contracts/USDR.sol:USDR","label":"freeMinting","offset":20,"slot":"352","type":"t_bool"},{"astId":3823,"contract":"contracts/USDR.sol:USDR","label":"freeBurning","offset":21,"slot":"352","type":"t_bool"},{"astId":3825,"contract":"contracts/USDR.sol:USDR","label":"cooldownMultiplier","offset":0,"slot":"353","type":"t_uint256"},{"astId":3827,"contract":"contracts/USDR.sol:USDR","label":"commitCooldown","offset":0,"slot":"354","type":"t_uint256"},{"astId":3831,"contract":"contracts/USDR.sol:USDR","label":"mintUnlock","offset":0,"slot":"355","type":"t_mapping(t_bytes32,t_uint256)"},{"astId":3835,"contract":"contracts/USDR.sol:USDR","label":"commitUnlock","offset":0,"slot":"356","type":"t_mapping(t_address,t_uint256)"}],"types":{"t_address":{"encoding":"inplace","label":"address","numberOfBytes":"20"},"t_array(t_bytes32)dyn_storage":{"base":"t_bytes32","encoding":"dynamic_array","label":"bytes32[]","numberOfBytes":"32"},"t_array(t_uint256)45_storage":{"base":"t_uint256","encoding":"inplace","label":"uint256[45]","numberOfBytes":"1440"},"t_array(t_uint256)49_storage":{"base":"t_uint256","encoding":"inplace","label":"uint256[49]","numberOfBytes":"1568"},"t_array(t_uint256)50_storage":{"base":"t_uint256","encoding":"inplace","label":"uint256[50]","numberOfBytes":"1600"},"t_bool":{"encoding":"inplace","label":"bool","numberOfBytes":"1"},"t_bytes32":{"encoding":"inplace","label":"bytes32","numberOfBytes":"32"},"t_mapping(t_address,t_bool)":{"encoding":"mapping","key":"t_address","label":"mapping(address => bool)","numberOfBytes":"32","value":"t_bool"},"t_mapping(t_address,t_mapping(t_address,t_uint256))":{"encoding":"mapping","key":"t_address","label":"mapping(address => mapping(address => uint256))","numberOfBytes":"32","value":"t_mapping(t_address,t_uint256)"},"t_mapping(t_address,t_uint256)":{"encoding":"mapping","key":"t_address","label":"mapping(address => uint256)","numberOfBytes":"32","value":"t_uint256"},"t_mapping(t_bytes32,t_struct(AddressSet)3401_storage)":{"encoding":"mapping","key":"t_bytes32","label":"mapping(bytes32 => struct EnumerableSetUpgradeable.AddressSet)","numberOfBytes":"32","value":"t_struct(AddressSet)3401_storage"},"t_mapping(t_bytes32,t_struct(RoleData)179_storage)":{"encoding":"mapping","key":"t_bytes32","label":"mapping(bytes32 => struct AccessControlUpgradeable.RoleData)","numberOfBytes":"32","value":"t_struct(RoleData)179_storage"},"t_mapping(t_bytes32,t_uint256)":{"encoding":"mapping","key":"t_bytes32","label":"mapping(bytes32 => uint256)","numberOfBytes":"32","value":"t_uint256"},"t_string_storage":{"encoding":"bytes","label":"string","numberOfBytes":"32"},"t_struct(AddressSet)3401_storage":{"encoding":"inplace","label":"struct EnumerableSetUpgradeable.AddressSet","members":[{"astId":3400,"contract":"contracts/USDR.sol:USDR","label":"_inner","offset":0,"slot":"0","type":"t_struct(Set)3086_storage"}],"numberOfBytes":"64"},"t_struct(RoleData)179_storage":{"encoding":"inplace","label":"struct AccessControlUpgradeable.RoleData","members":[{"astId":176,"contract":"contracts/USDR.sol:USDR","label":"members","offset":0,"slot":"0","type":"t_mapping(t_address,t_bool)"},{"astId":178,"contract":"contracts/USDR.sol:USDR","label":"adminRole","offset":0,"slot":"1","type":"t_bytes32"}],"numberOfBytes":"64"},"t_struct(Set)3086_storage":{"encoding":"inplace","label":"struct EnumerableSetUpgradeable.Set","members":[{"astId":3081,"contract":"contracts/USDR.sol:USDR","label":"_values","offset":0,"slot":"0","type":"t_array(t_bytes32)dyn_storage"},{"astId":3085,"contract":"contracts/USDR.sol:USDR","label":"_indexes","offset":0,"slot":"1","type":"t_mapping(t_bytes32,t_uint256)"}],"numberOfBytes":"64"},"t_uint256":{"encoding":"inplace","label":"uint256","numberOfBytes":"32"},"t_uint8":{"encoding":"inplace","label":"uint8","numberOfBytes":"1"}}}}}}