{
  "_format": "hh-sol-artifact-1",
  "contractName": "USDReceipt",
  "sourceName": "contracts/METL.sol",
  "abi": [
    {
      "anonymous": false,
      "inputs": [
        {
          "indexed": true,
          "internalType": "address",
          "name": "owner",
          "type": "address"
        },
        {
          "indexed": true,
          "internalType": "address",
          "name": "spender",
          "type": "address"
        },
        {
          "indexed": false,
          "internalType": "uint256",
          "name": "value",
          "type": "uint256"
        }
      ],
      "name": "Approval",
      "type": "event"
    },
    {
      "anonymous": false,
      "inputs": [
        {
          "indexed": false,
          "internalType": "address",
          "name": "account",
          "type": "address"
        }
      ],
      "name": "Paused",
      "type": "event"
    },
    {
      "anonymous": false,
      "inputs": [
        {
          "indexed": true,
          "internalType": "bytes32",
          "name": "role",
          "type": "bytes32"
        },
        {
          "indexed": true,
          "internalType": "bytes32",
          "name": "previousAdminRole",
          "type": "bytes32"
        },
        {
          "indexed": true,
          "internalType": "bytes32",
          "name": "newAdminRole",
          "type": "bytes32"
        }
      ],
      "name": "RoleAdminChanged",
      "type": "event"
    },
    {
      "anonymous": false,
      "inputs": [
        {
          "indexed": true,
          "internalType": "bytes32",
          "name": "role",
          "type": "bytes32"
        },
        {
          "indexed": true,
          "internalType": "address",
          "name": "account",
          "type": "address"
        },
        {
          "indexed": true,
          "internalType": "address",
          "name": "sender",
          "type": "address"
        }
      ],
      "name": "RoleGranted",
      "type": "event"
    },
    {
      "anonymous": false,
      "inputs": [
        {
          "indexed": true,
          "internalType": "bytes32",
          "name": "role",
          "type": "bytes32"
        },
        {
          "indexed": true,
          "internalType": "address",
          "name": "account",
          "type": "address"
        },
        {
          "indexed": true,
          "internalType": "address",
          "name": "sender",
          "type": "address"
        }
      ],
      "name": "RoleRevoked",
      "type": "event"
    },
    {
      "anonymous": false,
      "inputs": [
        {
          "indexed": true,
          "internalType": "address",
          "name": "from",
          "type": "address"
        },
        {
          "indexed": true,
          "internalType": "address",
          "name": "to",
          "type": "address"
        },
        {
          "indexed": false,
          "internalType": "uint256",
          "name": "value",
          "type": "uint256"
        }
      ],
      "name": "Transfer",
      "type": "event"
    },
    {
      "anonymous": false,
      "inputs": [
        {
          "indexed": false,
          "internalType": "address",
          "name": "account",
          "type": "address"
        }
      ],
      "name": "Unpaused",
      "type": "event"
    },
    {
      "inputs": [],
      "name": "BASIS_RATE",
      "outputs": [
        {
          "internalType": "uint256",
          "name": "",
          "type": "uint256"
        }
      ],
      "stateMutability": "view",
      "type": "function"
    },
    {
      "inputs": [],
      "name": "BURNER_ROLE",
      "outputs": [
        {
          "internalType": "bytes32",
          "name": "",
          "type": "bytes32"
        }
      ],
      "stateMutability": "view",
      "type": "function"
    },
    {
      "inputs": [],
      "name": "DEFAULT_ADMIN_ROLE",
      "outputs": [
        {
          "internalType": "bytes32",
          "name": "",
          "type": "bytes32"
        }
      ],
      "stateMutability": "view",
      "type": "function"
    },
    {
      "inputs": [],
      "name": "FREEZER_ROLE",
      "outputs": [
        {
          "internalType": "bytes32",
          "name": "",
          "type": "bytes32"
        }
      ],
      "stateMutability": "view",
      "type": "function"
    },
    {
      "inputs": [],
      "name": "FROZEN_USER",
      "outputs": [
        {
          "internalType": "bytes32",
          "name": "",
          "type": "bytes32"
        }
      ],
      "stateMutability": "view",
      "type": "function"
    },
    {
      "inputs": [],
      "name": "MINTER_ROLE",
      "outputs": [
        {
          "internalType": "bytes32",
          "name": "",
          "type": "bytes32"
        }
      ],
      "stateMutability": "view",
      "type": "function"
    },
    {
      "inputs": [],
      "name": "MULTISIG_ROLE",
      "outputs": [
        {
          "internalType": "bytes32",
          "name": "",
          "type": "bytes32"
        }
      ],
      "stateMutability": "view",
      "type": "function"
    },
    {
      "inputs": [],
      "name": "PAUSER_ROLE",
      "outputs": [
        {
          "internalType": "bytes32",
          "name": "",
          "type": "bytes32"
        }
      ],
      "stateMutability": "view",
      "type": "function"
    },
    {
      "inputs": [
        {
          "internalType": "address",
          "name": "newAddress",
          "type": "address"
        }
      ],
      "name": "addAdmin",
      "outputs": [],
      "stateMutability": "nonpayable",
      "type": "function"
    },
    {
      "inputs": [
        {
          "internalType": "address",
          "name": "newAddress",
          "type": "address"
        }
      ],
      "name": "addBurner",
      "outputs": [],
      "stateMutability": "nonpayable",
      "type": "function"
    },
    {
      "inputs": [
        {
          "internalType": "address",
          "name": "newAddress",
          "type": "address"
        }
      ],
      "name": "addFreezer",
      "outputs": [],
      "stateMutability": "nonpayable",
      "type": "function"
    },
    {
      "inputs": [
        {
          "internalType": "address",
          "name": "newAddress",
          "type": "address"
        }
      ],
      "name": "addMinter",
      "outputs": [],
      "stateMutability": "nonpayable",
      "type": "function"
    },
    {
      "inputs": [
        {
          "internalType": "address",
          "name": "newAddress",
          "type": "address"
        }
      ],
      "name": "addMultisig",
      "outputs": [],
      "stateMutability": "nonpayable",
      "type": "function"
    },
    {
      "inputs": [
        {
          "internalType": "address",
          "name": "newAddress",
          "type": "address"
        }
      ],
      "name": "addPauser",
      "outputs": [],
      "stateMutability": "nonpayable",
      "type": "function"
    },
    {
      "inputs": [
        {
          "internalType": "address",
          "name": "owner",
          "type": "address"
        },
        {
          "internalType": "address",
          "name": "spender",
          "type": "address"
        }
      ],
      "name": "allowance",
      "outputs": [
        {
          "internalType": "uint256",
          "name": "",
          "type": "uint256"
        }
      ],
      "stateMutability": "view",
      "type": "function"
    },
    {
      "inputs": [
        {
          "internalType": "address",
          "name": "spender",
          "type": "address"
        },
        {
          "internalType": "uint256",
          "name": "amount",
          "type": "uint256"
        }
      ],
      "name": "approve",
      "outputs": [
        {
          "internalType": "bool",
          "name": "",
          "type": "bool"
        }
      ],
      "stateMutability": "nonpayable",
      "type": "function"
    },
    {
      "inputs": [
        {
          "internalType": "address",
          "name": "account",
          "type": "address"
        }
      ],
      "name": "balanceOf",
      "outputs": [
        {
          "internalType": "uint256",
          "name": "",
          "type": "uint256"
        }
      ],
      "stateMutability": "view",
      "type": "function"
    },
    {
      "inputs": [
        {
          "internalType": "address",
          "name": "target",
          "type": "address"
        },
        {
          "internalType": "uint256",
          "name": "amount",
          "type": "uint256"
        }
      ],
      "name": "bankBurn",
      "outputs": [],
      "stateMutability": "nonpayable",
      "type": "function"
    },
    {
      "inputs": [
        {
          "internalType": "address",
          "name": "recipient",
          "type": "address"
        },
        {
          "internalType": "uint256",
          "name": "amount",
          "type": "uint256"
        }
      ],
      "name": "bankMint",
      "outputs": [],
      "stateMutability": "nonpayable",
      "type": "function"
    },
    {
      "inputs": [
        {
          "internalType": "uint256",
          "name": "amount",
          "type": "uint256"
        }
      ],
      "name": "burn",
      "outputs": [],
      "stateMutability": "nonpayable",
      "type": "function"
    },
    {
      "inputs": [
        {
          "internalType": "address",
          "name": "account",
          "type": "address"
        },
        {
          "internalType": "uint256",
          "name": "amount",
          "type": "uint256"
        }
      ],
      "name": "burnFrom",
      "outputs": [],
      "stateMutability": "nonpayable",
      "type": "function"
    },
    {
      "inputs": [],
      "name": "decimals",
      "outputs": [
        {
          "internalType": "uint8",
          "name": "",
          "type": "uint8"
        }
      ],
      "stateMutability": "view",
      "type": "function"
    },
    {
      "inputs": [
        {
          "internalType": "address",
          "name": "spender",
          "type": "address"
        },
        {
          "internalType": "uint256",
          "name": "subtractedValue",
          "type": "uint256"
        }
      ],
      "name": "decreaseAllowance",
      "outputs": [
        {
          "internalType": "bool",
          "name": "",
          "type": "bool"
        }
      ],
      "stateMutability": "nonpayable",
      "type": "function"
    },
    {
      "inputs": [
        {
          "internalType": "address",
          "name": "newAddress",
          "type": "address"
        }
      ],
      "name": "freezeUser",
      "outputs": [],
      "stateMutability": "nonpayable",
      "type": "function"
    },
    {
      "inputs": [
        {
          "internalType": "bytes32",
          "name": "role",
          "type": "bytes32"
        }
      ],
      "name": "getRoleAdmin",
      "outputs": [
        {
          "internalType": "bytes32",
          "name": "",
          "type": "bytes32"
        }
      ],
      "stateMutability": "view",
      "type": "function"
    },
    {
      "inputs": [
        {
          "internalType": "bytes32",
          "name": "role",
          "type": "bytes32"
        },
        {
          "internalType": "uint256",
          "name": "index",
          "type": "uint256"
        }
      ],
      "name": "getRoleMember",
      "outputs": [
        {
          "internalType": "address",
          "name": "",
          "type": "address"
        }
      ],
      "stateMutability": "view",
      "type": "function"
    },
    {
      "inputs": [
        {
          "internalType": "bytes32",
          "name": "role",
          "type": "bytes32"
        }
      ],
      "name": "getRoleMemberCount",
      "outputs": [
        {
          "internalType": "uint256",
          "name": "",
          "type": "uint256"
        }
      ],
      "stateMutability": "view",
      "type": "function"
    },
    {
      "inputs": [
        {
          "internalType": "bytes32",
          "name": "role",
          "type": "bytes32"
        },
        {
          "internalType": "address",
          "name": "account",
          "type": "address"
        }
      ],
      "name": "grantRole",
      "outputs": [],
      "stateMutability": "nonpayable",
      "type": "function"
    },
    {
      "inputs": [
        {
          "internalType": "bytes32",
          "name": "role",
          "type": "bytes32"
        },
        {
          "internalType": "address",
          "name": "account",
          "type": "address"
        }
      ],
      "name": "hasRole",
      "outputs": [
        {
          "internalType": "bool",
          "name": "",
          "type": "bool"
        }
      ],
      "stateMutability": "view",
      "type": "function"
    },
    {
      "inputs": [
        {
          "internalType": "address",
          "name": "spender",
          "type": "address"
        },
        {
          "internalType": "uint256",
          "name": "addedValue",
          "type": "uint256"
        }
      ],
      "name": "increaseAllowance",
      "outputs": [
        {
          "internalType": "bool",
          "name": "",
          "type": "bool"
        }
      ],
      "stateMutability": "nonpayable",
      "type": "function"
    },
    {
      "inputs": [],
      "name": "initialize",
      "outputs": [],
      "stateMutability": "nonpayable",
      "type": "function"
    },
    {
      "inputs": [],
      "name": "name",
      "outputs": [
        {
          "internalType": "string",
          "name": "",
          "type": "string"
        }
      ],
      "stateMutability": "view",
      "type": "function"
    },
    {
      "inputs": [],
      "name": "pause",
      "outputs": [],
      "stateMutability": "nonpayable",
      "type": "function"
    },
    {
      "inputs": [],
      "name": "paused",
      "outputs": [
        {
          "internalType": "bool",
          "name": "",
          "type": "bool"
        }
      ],
      "stateMutability": "view",
      "type": "function"
    },
    {
      "inputs": [
        {
          "internalType": "address",
          "name": "oldAddress",
          "type": "address"
        }
      ],
      "name": "removeAdmin",
      "outputs": [],
      "stateMutability": "nonpayable",
      "type": "function"
    },
    {
      "inputs": [
        {
          "internalType": "address",
          "name": "oldAddress",
          "type": "address"
        }
      ],
      "name": "removeBurner",
      "outputs": [],
      "stateMutability": "nonpayable",
      "type": "function"
    },
    {
      "inputs": [
        {
          "internalType": "address",
          "name": "oldAddress",
          "type": "address"
        }
      ],
      "name": "removeFreezer",
      "outputs": [],
      "stateMutability": "nonpayable",
      "type": "function"
    },
    {
      "inputs": [
        {
          "internalType": "address",
          "name": "oldAddress",
          "type": "address"
        }
      ],
      "name": "removeMinter",
      "outputs": [],
      "stateMutability": "nonpayable",
      "type": "function"
    },
    {
      "inputs": [
        {
          "internalType": "address",
          "name": "oldAddress",
          "type": "address"
        }
      ],
      "name": "removePauser",
      "outputs": [],
      "stateMutability": "nonpayable",
      "type": "function"
    },
    {
      "inputs": [
        {
          "internalType": "bytes32",
          "name": "role",
          "type": "bytes32"
        },
        {
          "internalType": "address",
          "name": "account",
          "type": "address"
        }
      ],
      "name": "renounceRole",
      "outputs": [],
      "stateMutability": "nonpayable",
      "type": "function"
    },
    {
      "inputs": [
        {
          "internalType": "address",
          "name": "oldAddress",
          "type": "address"
        }
      ],
      "name": "revokeMultisig",
      "outputs": [],
      "stateMutability": "nonpayable",
      "type": "function"
    },
    {
      "inputs": [
        {
          "internalType": "bytes32",
          "name": "role",
          "type": "bytes32"
        },
        {
          "internalType": "address",
          "name": "account",
          "type": "address"
        }
      ],
      "name": "revokeRole",
      "outputs": [],
      "stateMutability": "nonpayable",
      "type": "function"
    },
    {
      "inputs": [
        {
          "internalType": "bytes4",
          "name": "interfaceId",
          "type": "bytes4"
        }
      ],
      "name": "supportsInterface",
      "outputs": [
        {
          "internalType": "bool",
          "name": "",
          "type": "bool"
        }
      ],
      "stateMutability": "view",
      "type": "function"
    },
    {
      "inputs": [],
      "name": "symbol",
      "outputs": [
        {
          "internalType": "string",
          "name": "",
          "type": "string"
        }
      ],
      "stateMutability": "view",
      "type": "function"
    },
    {
      "inputs": [],
      "name": "totalSupply",
      "outputs": [
        {
          "internalType": "uint256",
          "name": "",
          "type": "uint256"
        }
      ],
      "stateMutability": "view",
      "type": "function"
    },
    {
      "inputs": [
        {
          "internalType": "address",
          "name": "recipient",
          "type": "address"
        },
        {
          "internalType": "uint256",
          "name": "amount",
          "type": "uint256"
        }
      ],
      "name": "transfer",
      "outputs": [
        {
          "internalType": "bool",
          "name": "",
          "type": "bool"
        }
      ],
      "stateMutability": "nonpayable",
      "type": "function"
    },
    {
      "inputs": [
        {
          "internalType": "address",
          "name": "sender",
          "type": "address"
        },
        {
          "internalType": "address",
          "name": "recipient",
          "type": "address"
        },
        {
          "internalType": "uint256",
          "name": "amount",
          "type": "uint256"
        }
      ],
      "name": "transferFrom",
      "outputs": [
        {
          "internalType": "bool",
          "name": "",
          "type": "bool"
        }
      ],
      "stateMutability": "nonpayable",
      "type": "function"
    },
    {
      "inputs": [
        {
          "internalType": "address",
          "name": "oldAddress",
          "type": "address"
        }
      ],
      "name": "unfreezeUser",
      "outputs": [],
      "stateMutability": "nonpayable",
      "type": "function"
    },
    {
      "inputs": [],
      "name": "unpause",
      "outputs": [],
      "stateMutability": "nonpayable",
      "type": "function"
    },
    {
      "inputs": [
        {
          "internalType": "uint256",
          "name": "newRate",
          "type": "uint256"
        }
      ],
      "name": "updateVariableRate",
      "outputs": [],
      "stateMutability": "nonpayable",
      "type": "function"
    },
    {
      "inputs": [],
      "name": "variableRate",
      "outputs": [
        {
          "internalType": "uint256",
          "name": "",
          "type": "uint256"
        }
      ],
      "stateMutability": "view",
      "type": "function"
    }
  ],
  "bytecode": "0x608060405234801561001057600080fd5b50614c42806100206000396000f3fe608060405234801561001057600080fd5b50600436106102f15760003560e01c80636476e3011161019d578063a217fddf116100e9578063d5391393116100a2578063e08ba51a1161007c578063e08ba51a146108ec578063e328400c14610908578063e63ab1e914610926578063f44637ba14610944576102f1565b8063d539139314610882578063d547741f146108a0578063dd62ed3e146108bc576102f1565b8063a217fddf1461079c578063a457c2d7146107ba578063a9059cbb146107ea578063bd254d4c1461081a578063ca15c87314610836578063cb4b73ab14610866576102f1565b806382dc1ec4116101565780639010d07c116101305780639010d07c1461070257806391d148541461073257806395d89b4114610762578063983b2d5614610780576102f1565b806382dc1ec4146106be5780638456cb59146106da578063866006a6146106e4576102f1565b80636476e301146106145780636b2c0f5514610630578063704802751461064c57806370a082311461066857806379cc6790146106985780638129fc1c146106b4576102f1565b8063282c51f31161025c57806336568abe1161021557806342966c68116101ef57806342966c68146105a0578063526606c9146105bc5780635502f287146105d85780635c975abb146105f6576102f1565b806336568abe1461054a57806339509351146105665780633f4ba83a14610596576102f1565b8063282c51f31461049e5780632a6b503d146104bc5780632acd2000146104d85780632f2ff15d146104f45780633092afd514610510578063313ce5671461052c576102f1565b80631785f53c116102ae5780631785f53c146103ca57806318160ddd146103e65780631c130dfb1461040457806323b872dd14610420578063248a9ca31461045057806324e0d46014610480576102f1565b806301ffc9a7146102f6578063028468581461032657806306a85f0f1461034257806306fdde0314610360578063082a97901461037e578063095ea7b31461039a575b600080fd5b610310600480360381019061030b9190613880565b610960565b60405161031d91906138c8565b60405180910390f35b610340600480360381019061033b9190613941565b6109da565b005b61034a610a1d565b6040516103579190613987565b60405180910390f35b610368610a41565b6040516103759190613a3b565b60405180910390f35b61039860048036038101906103939190613a93565b610ad3565b005b6103b460048036038101906103af9190613a93565b610b3f565b6040516103c191906138c8565b60405180910390f35b6103e460048036038101906103df9190613941565b610b5d565b005b6103ee610b83565b6040516103fb9190613ae2565b60405180910390f35b61041e60048036038101906104199190613941565b610b8d565b005b61043a60048036038101906104359190613afd565b610bd0565b60405161044791906138c8565b60405180910390f35b61046a60048036038101906104659190613b7c565b610cc8565b6040516104779190613987565b60405180910390f35b610488610ce8565b6040516104959190613ae2565b60405180910390f35b6104a6610cef565b6040516104b39190613987565b60405180910390f35b6104d660048036038101906104d19190613941565b610d13565b005b6104f260048036038101906104ed9190613941565b610d56565b005b61050e60048036038101906105099190613ba9565b610d99565b005b61052a60048036038101906105259190613941565b610dce565b005b610534610e11565b6040516105419190613c05565b60405180910390f35b610564600480360381019061055f9190613ba9565b610e1a565b005b610580600480360381019061057b9190613a93565b610f11565b60405161058d91906138c8565b60405180910390f35b61059e610fbd565b005b6105ba60048036038101906105b59190613c20565b610ffa565b005b6105d660048036038101906105d19190613941565b61100e565b005b6105e0611051565b6040516105ed9190613987565b60405180910390f35b6105fe611075565b60405161060b91906138c8565b60405180910390f35b61062e60048036038101906106299190613a93565b61108c565b005b61064a60048036038101906106459190613941565b611172565b005b61066660048036038101906106619190613941565b6111b5565b005b610682600480360381019061067d9190613941565b6111db565b60405161068f9190613ae2565b60405180910390f35b6106b260048036038101906106ad9190613a93565b611224565b005b6106bc61129f565b005b6106d860048036038101906106d39190613941565b611465565b005b6106e26114a8565b005b6106ec6114e5565b6040516106f99190613ae2565b60405180910390f35b61071c60048036038101906107179190613c4d565b6114eb565b6040516107299190613c9c565b60405180910390f35b61074c60048036038101906107479190613ba9565b61151b565b60405161075991906138c8565b60405180910390f35b61076a611586565b6040516107779190613a3b565b60405180910390f35b61079a60048036038101906107959190613941565b611618565b005b6107a461165b565b6040516107b19190613987565b60405180910390f35b6107d460048036038101906107cf9190613a93565b611662565b6040516107e191906138c8565b60405180910390f35b61080460048036038101906107ff9190613a93565b61174d565b60405161081191906138c8565b60405180910390f35b610834600480360381019061082f9190613c20565b61176b565b005b610850600480360381019061084b9190613b7c565b611813565b60405161085d9190613ae2565b60405180910390f35b610880600480360381019061087b9190613941565b611838565b005b61088a611898565b6040516108979190613987565b60405180910390f35b6108ba60048036038101906108b59190613ba9565b6118bc565b005b6108d660048036038101906108d19190613cb7565b611921565b6040516108e39190613ae2565b60405180910390f35b61090660048036038101906109019190613941565b6119a8565b005b610910611a08565b60405161091d9190613987565b60405180910390f35b61092e611a2c565b60405161093b9190613987565b60405180910390f35b61095e60048036038101906109599190613941565b611a50565b005b60007f5a05180f000000000000000000000000000000000000000000000000000000007bffffffffffffffffffffffffffffffffffffffffffffffffffffffff1916827bffffffffffffffffffffffffffffffffffffffffffffffffffffffff191614806109d357506109d282611a93565b5b9050919050565b6000801b6109ef816109ea611b0d565b611b15565b610a197f3c11d16cbaffd01df69ce1c404f6340ee057498f5f00246190ea54220576a848836118bc565b5050565b7f92de27771f92d6942691d73358b3a4673e4880de8356f8f2cf452be87e02d36381565b606060368054610a5090613d26565b80601f0160208091040260200160405190810160405280929190818152602001828054610a7c90613d26565b8015610ac95780601f10610a9e57610100808354040283529160200191610ac9565b820191906000526020600020905b815481529060010190602001808311610aac57829003601f168201915b5050505050905090565b7f3c11d16cbaffd01df69ce1c404f6340ee057498f5f00246190ea54220576a848610b0581610b00611b0d565b611b15565b600061271061015f54610b189190613db6565b83610b239190613de7565b9050610b2f3382611bb2565b610b398484611d13565b50505050565b6000610b53610b4c611b0d565b8484611eec565b6001905092915050565b6000801b610b7281610b6d611b0d565b611b15565b610b7f6000801b836118bc565b5050565b6000603554905090565b6000801b610ba281610b9d611b0d565b611b15565b610bcc7fa5a0b70b385ff7611cd3840916bd08b10829e5bf9e6637cf79dd9a427fc0e2ab83610d99565b5050565b6000610bdd8484846120b7565b6000603460008673ffffffffffffffffffffffffffffffffffffffff1673ffffffffffffffffffffffffffffffffffffffff1681526020019081526020016000206000610c28611b0d565b73ffffffffffffffffffffffffffffffffffffffff1673ffffffffffffffffffffffffffffffffffffffff16815260200190815260200160002054905082811015610ca8576040517f08c379a0000000000000000000000000000000000000000000000000000000008152600401610c9f90613eb3565b60405180910390fd5b610cbc85610cb4611b0d565b858403611eec565b60019150509392505050565b600060fb6000838152602001908152602001600020600101549050919050565b61015f5481565b7f3c11d16cbaffd01df69ce1c404f6340ee057498f5f00246190ea54220576a84881565b6000801b610d2881610d23611b0d565b611b15565b610d527fa5a0b70b385ff7611cd3840916bd08b10829e5bf9e6637cf79dd9a427fc0e2ab836118bc565b5050565b6000801b610d6b81610d66611b0d565b611b15565b610d957f92de27771f92d6942691d73358b3a4673e4880de8356f8f2cf452be87e02d363836118bc565b5050565b610da3828261233b565b610dc98161012d600085815260200190815260200160002061236490919063ffffffff16565b505050565b6000801b610de381610dde611b0d565b611b15565b610e0d7f9f2df0fed2c77648de5860a4cc508cd0818c85b8b8a1ab4ceeef8d981c8956a6836118bc565b5050565b60006012905090565b7f5edc4fd0544f0b4b53f14f295fb04bbd6fdbc1bea1fd8edf5851b385aee145d5821415610eac57610e6c7f92de27771f92d6942691d73358b3a4673e4880de8356f8f2cf452be87e02d3633361151b565b610eab576040517f08c379a0000000000000000000000000000000000000000000000000000000008152600401610ea290613f1f565b60405180910390fd5b5b6000801b821415610f03576001610ec283611813565b11610f02576040517f08c379a0000000000000000000000000000000000000000000000000000000008152600401610ef990613f8b565b60405180910390fd5b5b610f0d8282612394565b5050565b6000610fb3610f1e611b0d565b848460346000610f2c611b0d565b73ffffffffffffffffffffffffffffffffffffffff1673ffffffffffffffffffffffffffffffffffffffff16815260200190815260200160002060008873ffffffffffffffffffffffffffffffffffffffff1673ffffffffffffffffffffffffffffffffffffffff16815260200190815260200160002054610fae9190613fab565b611eec565b6001905092915050565b7f65d7a28e3265b37a6474929f336521b332c1681b933f6cb9f3376673440d862a610fef81610fea611b0d565b611b15565b610ff76123c9565b50565b61100b611005611b0d565b82611d13565b50565b6000801b6110238161101e611b0d565b611b15565b61104d7f92de27771f92d6942691d73358b3a4673e4880de8356f8f2cf452be87e02d36383610d99565b5050565b7f5edc4fd0544f0b4b53f14f295fb04bbd6fdbc1bea1fd8edf5851b385aee145d581565b6000609760009054906101000a900460ff16905090565b7f9f2df0fed2c77648de5860a4cc508cd0818c85b8b8a1ab4ceeef8d981c8956a66110be816110b9611b0d565b611b15565b6110e87fa5a0b70b385ff7611cd3840916bd08b10829e5bf9e6637cf79dd9a427fc0e2ab8461151b565b611127576040517f08c379a000000000000000000000000000000000000000000000000000000000815260040161111e9061404d565b60405180910390fd5b600061271061015f5461113a9190613db6565b836111459190613de7565b905060008184611155919061406d565b90506111613383611bb2565b61116b8582611bb2565b5050505050565b6000801b61118781611182611b0d565b611b15565b6111b17f65d7a28e3265b37a6474929f336521b332c1681b933f6cb9f3376673440d862a836118bc565b5050565b6000801b6111ca816111c5611b0d565b611b15565b6111d76000801b83610d99565b5050565b6000603360008373ffffffffffffffffffffffffffffffffffffffff1673ffffffffffffffffffffffffffffffffffffffff168152602001908152602001600020549050919050565b600061123783611232611b0d565b611921565b90508181101561127c576040517f08c379a000000000000000000000000000000000000000000000000000000000815260040161127390614113565b60405180910390fd5b61129083611288611b0d565b848403611eec565b61129a8383611d13565b505050565b600060019054906101000a900460ff16806112c5575060008054906101000a900460ff16155b611304576040517f08c379a00000000000000000000000000000000000000000000000000000000081526004016112fb906141a5565b60405180910390fd5b60008060019054906101000a900460ff161590508015611354576001600060016101000a81548160ff02191690831515021790555060016000806101000a81548160ff0219169083151502179055505b6113c86040518060400160405280600b81526020017f55534420526563656970740000000000000000000000000000000000000000008152506040518060400160405280600481526020017f555344520000000000000000000000000000000000000000000000000000000081525061246b565b6113d0612558565b6113d8612641565b6113e061272a565b6113ed6000801b3361281b565b6114377f5edc4fd0544f0b4b53f14f295fb04bbd6fdbc1bea1fd8edf5851b385aee145d57f92de27771f92d6942691d73358b3a4673e4880de8356f8f2cf452be87e02d363612850565b6101f461015f8190555080156114625760008060016101000a81548160ff0219169083151502179055505b50565b6000801b61147a81611475611b0d565b611b15565b6114a47f65d7a28e3265b37a6474929f336521b332c1681b933f6cb9f3376673440d862a83610d99565b5050565b7f65d7a28e3265b37a6474929f336521b332c1681b933f6cb9f3376673440d862a6114da816114d5611b0d565b611b15565b6114e26128ac565b50565b61271081565b60006115138261012d600086815260200190815260200160002061294f90919063ffffffff16565b905092915050565b600060fb600084815260200190815260200160002060000160008373ffffffffffffffffffffffffffffffffffffffff1673ffffffffffffffffffffffffffffffffffffffff16815260200190815260200160002060009054906101000a900460ff16905092915050565b60606037805461159590613d26565b80601f01602080910402602001604051908101604052809291908181526020018280546115c190613d26565b801561160e5780601f106115e35761010080835404028352916020019161160e565b820191906000526020600020905b8154815290600101906020018083116115f157829003601f168201915b5050505050905090565b6000801b61162d81611628611b0d565b611b15565b6116577f9f2df0fed2c77648de5860a4cc508cd0818c85b8b8a1ab4ceeef8d981c8956a683610d99565b5050565b6000801b81565b60008060346000611671611b0d565b73ffffffffffffffffffffffffffffffffffffffff1673ffffffffffffffffffffffffffffffffffffffff16815260200190815260200160002060008573ffffffffffffffffffffffffffffffffffffffff1673ffffffffffffffffffffffffffffffffffffffff1681526020019081526020016000205490508281101561172e576040517f08c379a000000000000000000000000000000000000000000000000000000000815260040161172590614237565b60405180910390fd5b611742611739611b0d565b85858403611eec565b600191505092915050565b600061176161175a611b0d565b84846120b7565b6001905092915050565b6000801b6117808161177b611b0d565b611b15565b61138882106117c4576040517f08c379a00000000000000000000000000000000000000000000000000000000081526004016117bb906142a3565b60405180910390fd5b60328211611807576040517f08c379a00000000000000000000000000000000000000000000000000000000081526004016117fe9061430f565b60405180910390fd5b8161015f819055505050565b600061183161012d6000848152602001908152602001600020612969565b9050919050565b7f92de27771f92d6942691d73358b3a4673e4880de8356f8f2cf452be87e02d36361186a81611865611b0d565b611b15565b6118947f5edc4fd0544f0b4b53f14f295fb04bbd6fdbc1bea1fd8edf5851b385aee145d5836118bc565b5050565b7f9f2df0fed2c77648de5860a4cc508cd0818c85b8b8a1ab4ceeef8d981c8956a681565b6000801b8214156119135760016118d283611813565b11611912576040517f08c379a000000000000000000000000000000000000000000000000000000000815260040161190990613f8b565b60405180910390fd5b5b61191d828261297e565b5050565b6000603460008473ffffffffffffffffffffffffffffffffffffffff1673ffffffffffffffffffffffffffffffffffffffff16815260200190815260200160002060008373ffffffffffffffffffffffffffffffffffffffff1673ffffffffffffffffffffffffffffffffffffffff16815260200190815260200160002054905092915050565b7f92de27771f92d6942691d73358b3a4673e4880de8356f8f2cf452be87e02d3636119da816119d5611b0d565b611b15565b611a047f5edc4fd0544f0b4b53f14f295fb04bbd6fdbc1bea1fd8edf5851b385aee145d583610d99565b5050565b7fa5a0b70b385ff7611cd3840916bd08b10829e5bf9e6637cf79dd9a427fc0e2ab81565b7f65d7a28e3265b37a6474929f336521b332c1681b933f6cb9f3376673440d862a81565b6000801b611a6581611a60611b0d565b611b15565b611a8f7f3c11d16cbaffd01df69ce1c404f6340ee057498f5f00246190ea54220576a84883610d99565b5050565b60007f7965db0b000000000000000000000000000000000000000000000000000000007bffffffffffffffffffffffffffffffffffffffffffffffffffffffff1916827bffffffffffffffffffffffffffffffffffffffffffffffffffffffff19161480611b065750611b05826129b3565b5b9050919050565b600033905090565b611b1f828261151b565b611bae57611b448173ffffffffffffffffffffffffffffffffffffffff166014612a1d565b611b528360001c6020612a1d565b604051602001611b63929190614403565b6040516020818303038152906040526040517f08c379a0000000000000000000000000000000000000000000000000000000008152600401611ba59190613a3b565b60405180910390fd5b5050565b600073ffffffffffffffffffffffffffffffffffffffff168273ffffffffffffffffffffffffffffffffffffffff161415611c22576040517f08c379a0000000000000000000000000000000000000000000000000000000008152600401611c1990614489565b60405180910390fd5b611c2e60008383612c59565b8060356000828254611c409190613fab565b9250508190555080603360008473ffffffffffffffffffffffffffffffffffffffff1673ffffffffffffffffffffffffffffffffffffffff1681526020019081526020016000206000828254611c969190613fab565b925050819055508173ffffffffffffffffffffffffffffffffffffffff16600073ffffffffffffffffffffffffffffffffffffffff167fddf252ad1be2c89b69c2b068fc378daa952ba7f163c4a11628f55a4df523b3ef83604051611cfb9190613ae2565b60405180910390a3611d0f60008383612d85565b5050565b600073ffffffffffffffffffffffffffffffffffffffff168273ffffffffffffffffffffffffffffffffffffffff161415611d83576040517f08c379a0000000000000000000000000000000000000000000000000000000008152600401611d7a9061451b565b60405180910390fd5b611d8f82600083612c59565b6000603360008473ffffffffffffffffffffffffffffffffffffffff1673ffffffffffffffffffffffffffffffffffffffff16815260200190815260200160002054905081811015611e16576040517f08c379a0000000000000000000000000000000000000000000000000000000008152600401611e0d906145ad565b60405180910390fd5b818103603360008573ffffffffffffffffffffffffffffffffffffffff1673ffffffffffffffffffffffffffffffffffffffff168152602001908152602001600020819055508160356000828254611e6e919061406d565b92505081905550600073ffffffffffffffffffffffffffffffffffffffff168373ffffffffffffffffffffffffffffffffffffffff167fddf252ad1be2c89b69c2b068fc378daa952ba7f163c4a11628f55a4df523b3ef84604051611ed39190613ae2565b60405180910390a3611ee783600084612d85565b505050565b600073ffffffffffffffffffffffffffffffffffffffff168373ffffffffffffffffffffffffffffffffffffffff161415611f5c576040517f08c379a0000000000000000000000000000000000000000000000000000000008152600401611f539061463f565b60405180910390fd5b600073ffffffffffffffffffffffffffffffffffffffff168273ffffffffffffffffffffffffffffffffffffffff161415611fcc576040517f08c379a0000000000000000000000000000000000000000000000000000000008152600401611fc3906146d1565b60405180910390fd5b80603460008573ffffffffffffffffffffffffffffffffffffffff1673ffffffffffffffffffffffffffffffffffffffff16815260200190815260200160002060008473ffffffffffffffffffffffffffffffffffffffff1673ffffffffffffffffffffffffffffffffffffffff168152602001908152602001600020819055508173ffffffffffffffffffffffffffffffffffffffff168373ffffffffffffffffffffffffffffffffffffffff167f8c5be1e5ebec7d5bd14f71427d1e84f3dd0314c0f7b2291e5b200ac8c7c3b925836040516120aa9190613ae2565b60405180910390a3505050565b600073ffffffffffffffffffffffffffffffffffffffff168373ffffffffffffffffffffffffffffffffffffffff161415612127576040517f08c379a000000000000000000000000000000000000000000000000000000000815260040161211e90614763565b60405180910390fd5b600073ffffffffffffffffffffffffffffffffffffffff168273ffffffffffffffffffffffffffffffffffffffff161415612197576040517f08c379a000000000000000000000000000000000000000000000000000000000815260040161218e906147f5565b60405180910390fd5b6121a2838383612c59565b6000603360008573ffffffffffffffffffffffffffffffffffffffff1673ffffffffffffffffffffffffffffffffffffffff16815260200190815260200160002054905081811015612229576040517f08c379a000000000000000000000000000000000000000000000000000000000815260040161222090614887565b60405180910390fd5b818103603360008673ffffffffffffffffffffffffffffffffffffffff1673ffffffffffffffffffffffffffffffffffffffff1681526020019081526020016000208190555081603360008573ffffffffffffffffffffffffffffffffffffffff1673ffffffffffffffffffffffffffffffffffffffff16815260200190815260200160002060008282546122be9190613fab565b925050819055508273ffffffffffffffffffffffffffffffffffffffff168473ffffffffffffffffffffffffffffffffffffffff167fddf252ad1be2c89b69c2b068fc378daa952ba7f163c4a11628f55a4df523b3ef846040516123229190613ae2565b60405180910390a3612335848484612d85565b50505050565b61234482610cc8565b61235581612350611b0d565b611b15565b61235f8383612d8a565b505050565b600061238c836000018373ffffffffffffffffffffffffffffffffffffffff1660001b612e6b565b905092915050565b61239e8282612edb565b6123c48161012d6000858152602001908152602001600020612f5e90919063ffffffff16565b505050565b6123d1611075565b612410576040517f08c379a0000000000000000000000000000000000000000000000000000000008152600401612407906148f3565b60405180910390fd5b6000609760006101000a81548160ff0219169083151502179055507f5db9ee0a495bf2e6ff9c91a7834c1ba4fdd244a5e8aa4e537bd38aeae4b073aa612454611b0d565b6040516124619190613c9c565b60405180910390a1565b600060019054906101000a900460ff1680612491575060008054906101000a900460ff16155b6124d0576040517f08c379a00000000000000000000000000000000000000000000000000000000081526004016124c7906141a5565b60405180910390fd5b60008060019054906101000a900460ff161590508015612520576001600060016101000a81548160ff02191690831515021790555060016000806101000a81548160ff0219169083151502179055505b612528612f8e565b6125328383613067565b80156125535760008060016101000a81548160ff0219169083151502179055505b505050565b600060019054906101000a900460ff168061257e575060008054906101000a900460ff16155b6125bd576040517f08c379a00000000000000000000000000000000000000000000000000000000081526004016125b4906141a5565b60405180910390fd5b60008060019054906101000a900460ff16159050801561260d576001600060016101000a81548160ff02191690831515021790555060016000806101000a81548160ff0219169083151502179055505b612615612f8e565b61261d613170565b801561263e5760008060016101000a81548160ff0219169083151502179055505b50565b600060019054906101000a900460ff1680612667575060008054906101000a900460ff16155b6126a6576040517f08c379a000000000000000000000000000000000000000000000000000000000815260040161269d906141a5565b60405180910390fd5b60008060019054906101000a900460ff1615905080156126f6576001600060016101000a81548160ff02191690831515021790555060016000806101000a81548160ff0219169083151502179055505b6126fe612f8e565b612706613249565b80156127275760008060016101000a81548160ff0219169083151502179055505b50565b600060019054906101000a900460ff1680612750575060008054906101000a900460ff16155b61278f576040517f08c379a0000000000000000000000000000000000000000000000000000000008152600401612786906141a5565b60405180910390fd5b60008060019054906101000a900460ff1615905080156127df576001600060016101000a81548160ff02191690831515021790555060016000806101000a81548160ff0219169083151502179055505b6127e7612f8e565b6127ef61333d565b6127f7613416565b80156128185760008060016101000a81548160ff0219169083151502179055505b50565b61282582826134ef565b61284b8161012d600085815260200190815260200160002061236490919063ffffffff16565b505050565b600061285b83610cc8565b90508160fb6000858152602001908152602001600020600101819055508181847fbd79b86ffe0ab8e8776151514217cd7cacd52c909f66475c3af44e129f0b00ff60405160405180910390a4505050565b6128b4611075565b156128f4576040517f08c379a00000000000000000000000000000000000000000000000000000000081526004016128eb9061495f565b60405180910390fd5b6001609760006101000a81548160ff0219169083151502179055507f62e78cea01bee320cd4e420270b5ea74000d11b0c9f74754ebdbfc544b05a258612938611b0d565b6040516129459190613c9c565b60405180910390a1565b600061295e83600001836134fd565b60001c905092915050565b600061297782600001613528565b9050919050565b6129888282613539565b6129ae8161012d6000858152602001908152602001600020612f5e90919063ffffffff16565b505050565b60007f01ffc9a7000000000000000000000000000000000000000000000000000000007bffffffffffffffffffffffffffffffffffffffffffffffffffffffff1916827bffffffffffffffffffffffffffffffffffffffffffffffffffffffff1916149050919050565b606060006002836002612a309190613de7565b612a3a9190613fab565b67ffffffffffffffff811115612a5357612a5261497f565b5b6040519080825280601f01601f191660200182016040528015612a855781602001600182028036833780820191505090505b5090507f300000000000000000000000000000000000000000000000000000000000000081600081518110612abd57612abc6149ae565b5b60200101907effffffffffffffffffffffffffffffffffffffffffffffffffffffffffffff1916908160001a9053507f780000000000000000000000000000000000000000000000000000000000000081600181518110612b2157612b206149ae565b5b60200101907effffffffffffffffffffffffffffffffffffffffffffffffffffffffffffff1916908160001a90535060006001846002612b619190613de7565b612b6b9190613fab565b90505b6001811115612c0b577f3031323334353637383961626364656600000000000000000000000000000000600f861660108110612bad57612bac6149ae565b5b1a60f81b828281518110612bc457612bc36149ae565b5b60200101907effffffffffffffffffffffffffffffffffffffffffffffffffffffffffffff1916908160001a905350600485901c945080612c04906149dd565b9050612b6e565b5060008414612c4f576040517f08c379a0000000000000000000000000000000000000000000000000000000008152600401612c4690614a53565b60405180910390fd5b8091505092915050565b612c61611075565b15612ca1576040517f08c379a0000000000000000000000000000000000000000000000000000000008152600401612c989061495f565b60405180910390fd5b612ccb7f5edc4fd0544f0b4b53f14f295fb04bbd6fdbc1bea1fd8edf5851b385aee145d58461151b565b15612d0b576040517f08c379a0000000000000000000000000000000000000000000000000000000008152600401612d0290614abf565b60405180910390fd5b612d357f5edc4fd0544f0b4b53f14f295fb04bbd6fdbc1bea1fd8edf5851b385aee145d58361151b565b15612d75576040517f08c379a0000000000000000000000000000000000000000000000000000000008152600401612d6c90614b2b565b60405180910390fd5b612d80838383613562565b505050565b505050565b612d94828261151b565b612e6757600160fb600084815260200190815260200160002060000160008373ffffffffffffffffffffffffffffffffffffffff1673ffffffffffffffffffffffffffffffffffffffff16815260200190815260200160002060006101000a81548160ff021916908315150217905550612e0c611b0d565b73ffffffffffffffffffffffffffffffffffffffff168173ffffffffffffffffffffffffffffffffffffffff16837f2f8788117e7eff1d82e926ec794901d17c78024a50270940304540a733656f0d60405160405180910390a45b5050565b6000612e778383613567565b612ed0578260000182908060018154018082558091505060019003906000526020600020016000909190919091505582600001805490508360010160008481526020019081526020016000208190555060019050612ed5565b600090505b92915050565b612ee3611b0d565b73ffffffffffffffffffffffffffffffffffffffff168173ffffffffffffffffffffffffffffffffffffffff1614612f50576040517f08c379a0000000000000000000000000000000000000000000000000000000008152600401612f4790614bbd565b60405180910390fd5b612f5a828261358a565b5050565b6000612f86836000018373ffffffffffffffffffffffffffffffffffffffff1660001b61366c565b905092915050565b600060019054906101000a900460ff1680612fb4575060008054906101000a900460ff16155b612ff3576040517f08c379a0000000000000000000000000000000000000000000000000000000008152600401612fea906141a5565b60405180910390fd5b60008060019054906101000a900460ff161590508015613043576001600060016101000a81548160ff02191690831515021790555060016000806101000a81548160ff0219169083151502179055505b80156130645760008060016101000a81548160ff0219169083151502179055505b50565b600060019054906101000a900460ff168061308d575060008054906101000a900460ff16155b6130cc576040517f08c379a00000000000000000000000000000000000000000000000000000000081526004016130c3906141a5565b60405180910390fd5b60008060019054906101000a900460ff16159050801561311c576001600060016101000a81548160ff02191690831515021790555060016000806101000a81548160ff0219169083151502179055505b8260369080519060200190613132929190613780565b508160379080519060200190613149929190613780565b50801561316b5760008060016101000a81548160ff0219169083151502179055505b505050565b600060019054906101000a900460ff1680613196575060008054906101000a900460ff16155b6131d5576040517f08c379a00000000000000000000000000000000000000000000000000000000081526004016131cc906141a5565b60405180910390fd5b60008060019054906101000a900460ff161590508015613225576001600060016101000a81548160ff02191690831515021790555060016000806101000a81548160ff0219169083151502179055505b80156132465760008060016101000a81548160ff0219169083151502179055505b50565b600060019054906101000a900460ff168061326f575060008054906101000a900460ff16155b6132ae576040517f08c379a00000000000000000000000000000000000000000000000000000000081526004016132a5906141a5565b60405180910390fd5b60008060019054906101000a900460ff1615905080156132fe576001600060016101000a81548160ff02191690831515021790555060016000806101000a81548160ff0219169083151502179055505b6000609760006101000a81548160ff021916908315150217905550801561333a5760008060016101000a81548160ff0219169083151502179055505b50565b600060019054906101000a900460ff1680613363575060008054906101000a900460ff16155b6133a2576040517f08c379a0000000000000000000000000000000000000000000000000000000008152600401613399906141a5565b60405180910390fd5b60008060019054906101000a900460ff1615905080156133f2576001600060016101000a81548160ff02191690831515021790555060016000806101000a81548160ff0219169083151502179055505b80156134135760008060016101000a81548160ff0219169083151502179055505b50565b600060019054906101000a900460ff168061343c575060008054906101000a900460ff16155b61347b576040517f08c379a0000000000000000000000000000000000000000000000000000000008152600401613472906141a5565b60405180910390fd5b60008060019054906101000a900460ff1615905080156134cb576001600060016101000a81548160ff02191690831515021790555060016000806101000a81548160ff0219169083151502179055505b80156134ec5760008060016101000a81548160ff0219169083151502179055505b50565b6134f98282612d8a565b5050565b6000826000018281548110613515576135146149ae565b5b9060005260206000200154905092915050565b600081600001805490509050919050565b61354282610cc8565b6135538161354e611b0d565b611b15565b61355d838361358a565b505050565b505050565b600080836001016000848152602001908152602001600020541415905092915050565b613594828261151b565b1561366857600060fb600084815260200190815260200160002060000160008373ffffffffffffffffffffffffffffffffffffffff1673ffffffffffffffffffffffffffffffffffffffff16815260200190815260200160002060006101000a81548160ff02191690831515021790555061360d611b0d565b73ffffffffffffffffffffffffffffffffffffffff168173ffffffffffffffffffffffffffffffffffffffff16837ff6391f5c32d9c69d2a47ea670b442974b53935d1edc7fd64eb21e047a839171b60405160405180910390a45b5050565b6000808360010160008481526020019081526020016000205490506000811461377457600060018261369e919061406d565b90506000600186600001805490506136b6919061406d565b90508181146137255760008660000182815481106136d7576136d66149ae565b5b90600052602060002001549050808760000184815481106136fb576136fa6149ae565b5b90600052602060002001819055508387600101600083815260200190815260200160002081905550505b8560000180548061373957613738614bdd565b5b60019003818190600052602060002001600090559055856001016000868152602001908152602001600020600090556001935050505061377a565b60009150505b92915050565b82805461378c90613d26565b90600052602060002090601f0160209004810192826137ae57600085556137f5565b82601f106137c757805160ff19168380011785556137f5565b828001600101855582156137f5579182015b828111156137f45782518255916020019190600101906137d9565b5b5090506138029190613806565b5090565b5b8082111561381f576000816000905550600101613807565b5090565b600080fd5b60007fffffffff0000000000000000000000000000000000000000000000000000000082169050919050565b61385d81613828565b811461386857600080fd5b50565b60008135905061387a81613854565b92915050565b60006020828403121561389657613895613823565b5b60006138a48482850161386b565b91505092915050565b60008115159050919050565b6138c2816138ad565b82525050565b60006020820190506138dd60008301846138b9565b92915050565b600073ffffffffffffffffffffffffffffffffffffffff82169050919050565b600061390e826138e3565b9050919050565b61391e81613903565b811461392957600080fd5b50565b60008135905061393b81613915565b92915050565b60006020828403121561395757613956613823565b5b60006139658482850161392c565b91505092915050565b6000819050919050565b6139818161396e565b82525050565b600060208201905061399c6000830184613978565b92915050565b600081519050919050565b600082825260208201905092915050565b60005b838110156139dc5780820151818401526020810190506139c1565b838111156139eb576000848401525b50505050565b6000601f19601f8301169050919050565b6000613a0d826139a2565b613a1781856139ad565b9350613a278185602086016139be565b613a30816139f1565b840191505092915050565b60006020820190508181036000830152613a558184613a02565b905092915050565b6000819050919050565b613a7081613a5d565b8114613a7b57600080fd5b50565b600081359050613a8d81613a67565b92915050565b60008060408385031215613aaa57613aa9613823565b5b6000613ab88582860161392c565b9250506020613ac985828601613a7e565b9150509250929050565b613adc81613a5d565b82525050565b6000602082019050613af76000830184613ad3565b92915050565b600080600060608486031215613b1657613b15613823565b5b6000613b248682870161392c565b9350506020613b358682870161392c565b9250506040613b4686828701613a7e565b9150509250925092565b613b598161396e565b8114613b6457600080fd5b50565b600081359050613b7681613b50565b92915050565b600060208284031215613b9257613b91613823565b5b6000613ba084828501613b67565b91505092915050565b60008060408385031215613bc057613bbf613823565b5b6000613bce85828601613b67565b9250506020613bdf8582860161392c565b9150509250929050565b600060ff82169050919050565b613bff81613be9565b82525050565b6000602082019050613c1a6000830184613bf6565b92915050565b600060208284031215613c3657613c35613823565b5b6000613c4484828501613a7e565b91505092915050565b60008060408385031215613c6457613c63613823565b5b6000613c7285828601613b67565b9250506020613c8385828601613a7e565b9150509250929050565b613c9681613903565b82525050565b6000602082019050613cb16000830184613c8d565b92915050565b60008060408385031215613cce57613ccd613823565b5b6000613cdc8582860161392c565b9250506020613ced8582860161392c565b9150509250929050565b7f4e487b7100000000000000000000000000000000000000000000000000000000600052602260045260246000fd5b60006002820490506001821680613d3e57607f821691505b60208210811415613d5257613d51613cf7565b5b50919050565b7f4e487b7100000000000000000000000000000000000000000000000000000000600052601260045260246000fd5b7f4e487b7100000000000000000000000000000000000000000000000000000000600052601160045260246000fd5b6000613dc182613a5d565b9150613dcc83613a5d565b925082613ddc57613ddb613d58565b5b828204905092915050565b6000613df282613a5d565b9150613dfd83613a5d565b9250817fffffffffffffffffffffffffffffffffffffffffffffffffffffffffffffffff0483118215151615613e3657613e35613d87565b5b828202905092915050565b7f45524332303a207472616e7366657220616d6f756e742065786365656473206160008201527f6c6c6f77616e6365000000000000000000000000000000000000000000000000602082015250565b6000613e9d6028836139ad565b9150613ea882613e41565b604082019050919050565b60006020820190508181036000830152613ecc81613e90565b9050919050565b7f4f6e6c7920726f6c652061646d696e2063616e207265766f6b652e0000000000600082015250565b6000613f09601b836139ad565b9150613f1482613ed3565b602082019050919050565b60006020820190508181036000830152613f3881613efc565b9050919050565b7f436f6e7472616374207265717569726573206f6e652061646d696e0000000000600082015250565b6000613f75601b836139ad565b9150613f8082613f3f565b602082019050919050565b60006020820190508181036000830152613fa481613f68565b9050919050565b6000613fb682613a5d565b9150613fc183613a5d565b9250827fffffffffffffffffffffffffffffffffffffffffffffffffffffffffffffffff03821115613ff657613ff5613d87565b5b828201905092915050565b7f526563697069656e74206d7573742062652077686974656c69737465642e0000600082015250565b6000614037601e836139ad565b915061404282614001565b602082019050919050565b600060208201905081810360008301526140668161402a565b9050919050565b600061407882613a5d565b915061408383613a5d565b92508282101561409657614095613d87565b5b828203905092915050565b7f45524332303a206275726e20616d6f756e74206578636565647320616c6c6f7760008201527f616e636500000000000000000000000000000000000000000000000000000000602082015250565b60006140fd6024836139ad565b9150614108826140a1565b604082019050919050565b6000602082019050818103600083015261412c816140f0565b9050919050565b7f496e697469616c697a61626c653a20636f6e747261637420697320616c72656160008201527f647920696e697469616c697a6564000000000000000000000000000000000000602082015250565b600061418f602e836139ad565b915061419a82614133565b604082019050919050565b600060208201905081810360008301526141be81614182565b9050919050565b7f45524332303a2064656372656173656420616c6c6f77616e63652062656c6f7760008201527f207a65726f000000000000000000000000000000000000000000000000000000602082015250565b60006142216025836139ad565b915061422c826141c5565b604082019050919050565b6000602082019050818103600083015261425081614214565b9050919050565b7f4e6577205261746520546f6f204c617267650000000000000000000000000000600082015250565b600061428d6012836139ad565b915061429882614257565b602082019050919050565b600060208201905081810360008301526142bc81614280565b9050919050565b7f4e6577205261746520546f6f20536d616c6c0000000000000000000000000000600082015250565b60006142f96012836139ad565b9150614304826142c3565b602082019050919050565b60006020820190508181036000830152614328816142ec565b9050919050565b600081905092915050565b7f416363657373436f6e74726f6c3a206163636f756e7420000000000000000000600082015250565b600061437060178361432f565b915061437b8261433a565b601782019050919050565b6000614391826139a2565b61439b818561432f565b93506143ab8185602086016139be565b80840191505092915050565b7f206973206d697373696e6720726f6c6520000000000000000000000000000000600082015250565b60006143ed60118361432f565b91506143f8826143b7565b601182019050919050565b600061440e82614363565b915061441a8285614386565b9150614425826143e0565b91506144318284614386565b91508190509392505050565b7f45524332303a206d696e7420746f20746865207a65726f206164647265737300600082015250565b6000614473601f836139ad565b915061447e8261443d565b602082019050919050565b600060208201905081810360008301526144a281614466565b9050919050565b7f45524332303a206275726e2066726f6d20746865207a65726f2061646472657360008201527f7300000000000000000000000000000000000000000000000000000000000000602082015250565b60006145056021836139ad565b9150614510826144a9565b604082019050919050565b60006020820190508181036000830152614534816144f8565b9050919050565b7f45524332303a206275726e20616d6f756e7420657863656564732062616c616e60008201527f6365000000000000000000000000000000000000000000000000000000000000602082015250565b60006145976022836139ad565b91506145a28261453b565b604082019050919050565b600060208201905081810360008301526145c68161458a565b9050919050565b7f45524332303a20617070726f76652066726f6d20746865207a65726f2061646460008201527f7265737300000000000000000000000000000000000000000000000000000000602082015250565b60006146296024836139ad565b9150614634826145cd565b604082019050919050565b600060208201905081810360008301526146588161461c565b9050919050565b7f45524332303a20617070726f766520746f20746865207a65726f20616464726560008201527f7373000000000000000000000000000000000000000000000000000000000000602082015250565b60006146bb6022836139ad565b91506146c68261465f565b604082019050919050565b600060208201905081810360008301526146ea816146ae565b9050919050565b7f45524332303a207472616e736665722066726f6d20746865207a65726f20616460008201527f6472657373000000000000000000000000000000000000000000000000000000602082015250565b600061474d6025836139ad565b9150614758826146f1565b604082019050919050565b6000602082019050818103600083015261477c81614740565b9050919050565b7f45524332303a207472616e7366657220746f20746865207a65726f206164647260008201527f6573730000000000000000000000000000000000000000000000000000000000602082015250565b60006147df6023836139ad565b91506147ea82614783565b604082019050919050565b6000602082019050818103600083015261480e816147d2565b9050919050565b7f45524332303a207472616e7366657220616d6f756e742065786365656473206260008201527f616c616e63650000000000000000000000000000000000000000000000000000602082015250565b60006148716026836139ad565b915061487c82614815565b604082019050919050565b600060208201905081810360008301526148a081614864565b9050919050565b7f5061757361626c653a206e6f7420706175736564000000000000000000000000600082015250565b60006148dd6014836139ad565b91506148e8826148a7565b602082019050919050565b6000602082019050818103600083015261490c816148d0565b9050919050565b7f5061757361626c653a2070617573656400000000000000000000000000000000600082015250565b60006149496010836139ad565b915061495482614913565b602082019050919050565b600060208201905081810360008301526149788161493c565b9050919050565b7f4e487b7100000000000000000000000000000000000000000000000000000000600052604160045260246000fd5b7f4e487b7100000000000000000000000000000000000000000000000000000000600052603260045260246000fd5b60006149e882613a5d565b915060008214156149fc576149fb613d87565b5b600182039050919050565b7f537472696e67733a20686578206c656e67746820696e73756666696369656e74600082015250565b6000614a3d6020836139ad565b9150614a4882614a07565b602082019050919050565b60006020820190508181036000830152614a6c81614a30565b9050919050565b7f53656e6465722069732063757272656e746c792066726f7a656e2e0000000000600082015250565b6000614aa9601b836139ad565b9150614ab482614a73565b602082019050919050565b60006020820190508181036000830152614ad881614a9c565b9050919050565b7f526563697069656e742069732063757272656e746c792066726f7a656e2e0000600082015250565b6000614b15601e836139ad565b9150614b2082614adf565b602082019050919050565b60006020820190508181036000830152614b4481614b08565b9050919050565b7f416363657373436f6e74726f6c3a2063616e206f6e6c792072656e6f756e636560008201527f20726f6c657320666f722073656c660000000000000000000000000000000000602082015250565b6000614ba7602f836139ad565b9150614bb282614b4b565b604082019050919050565b60006020820190508181036000830152614bd681614b9a565b9050919050565b7f4e487b7100000000000000000000000000000000000000000000000000000000600052603160045260246000fdfea26469706673582212208b809719f3dd38cac86bef8139b696b43cb946b6a4fa95387810ec565165566664736f6c634300080b0033",
  "linkReferences": {},
  "deployedLinkReferences": {}
}