{
  "_format": "hh-sol-artifact-1",
  "contractName": "USDReceipt",
  "sourceName": "contracts/METL.sol",
  "abi": [
    {
      "anonymous": false,
      "inputs": [
        {
          "indexed": true,
          "internalType": "address",
          "name": "owner",
          "type": "address"
        },
        {
          "indexed": true,
          "internalType": "address",
          "name": "spender",
          "type": "address"
        },
        {
          "indexed": false,
          "internalType": "uint256",
          "name": "value",
          "type": "uint256"
        }
      ],
      "name": "Approval",
      "type": "event"
    },
    {
      "anonymous": false,
      "inputs": [
        {
          "indexed": false,
          "internalType": "address",
          "name": "account",
          "type": "address"
        }
      ],
      "name": "Paused",
      "type": "event"
    },
    {
      "anonymous": false,
      "inputs": [
        {
          "indexed": true,
          "internalType": "bytes32",
          "name": "role",
          "type": "bytes32"
        },
        {
          "indexed": true,
          "internalType": "bytes32",
          "name": "previousAdminRole",
          "type": "bytes32"
        },
        {
          "indexed": true,
          "internalType": "bytes32",
          "name": "newAdminRole",
          "type": "bytes32"
        }
      ],
      "name": "RoleAdminChanged",
      "type": "event"
    },
    {
      "anonymous": false,
      "inputs": [
        {
          "indexed": true,
          "internalType": "bytes32",
          "name": "role",
          "type": "bytes32"
        },
        {
          "indexed": true,
          "internalType": "address",
          "name": "account",
          "type": "address"
        },
        {
          "indexed": true,
          "internalType": "address",
          "name": "sender",
          "type": "address"
        }
      ],
      "name": "RoleGranted",
      "type": "event"
    },
    {
      "anonymous": false,
      "inputs": [
        {
          "indexed": true,
          "internalType": "bytes32",
          "name": "role",
          "type": "bytes32"
        },
        {
          "indexed": true,
          "internalType": "address",
          "name": "account",
          "type": "address"
        },
        {
          "indexed": true,
          "internalType": "address",
          "name": "sender",
          "type": "address"
        }
      ],
      "name": "RoleRevoked",
      "type": "event"
    },
    {
      "anonymous": false,
      "inputs": [
        {
          "indexed": true,
          "internalType": "address",
          "name": "from",
          "type": "address"
        },
        {
          "indexed": true,
          "internalType": "address",
          "name": "to",
          "type": "address"
        },
        {
          "indexed": false,
          "internalType": "uint256",
          "name": "value",
          "type": "uint256"
        }
      ],
      "name": "Transfer",
      "type": "event"
    },
    {
      "anonymous": false,
      "inputs": [
        {
          "indexed": false,
          "internalType": "address",
          "name": "account",
          "type": "address"
        }
      ],
      "name": "Unpaused",
      "type": "event"
    },
    {
      "inputs": [],
      "name": "BASIS_RATE",
      "outputs": [
        {
          "internalType": "uint256",
          "name": "",
          "type": "uint256"
        }
      ],
      "stateMutability": "view",
      "type": "function"
    },
    {
      "inputs": [],
      "name": "BURNER_ROLE",
      "outputs": [
        {
          "internalType": "bytes32",
          "name": "",
          "type": "bytes32"
        }
      ],
      "stateMutability": "view",
      "type": "function"
    },
    {
      "inputs": [],
      "name": "DEFAULT_ADMIN_ROLE",
      "outputs": [
        {
          "internalType": "bytes32",
          "name": "",
          "type": "bytes32"
        }
      ],
      "stateMutability": "view",
      "type": "function"
    },
    {
      "inputs": [],
      "name": "FREEZER_ROLE",
      "outputs": [
        {
          "internalType": "bytes32",
          "name": "",
          "type": "bytes32"
        }
      ],
      "stateMutability": "view",
      "type": "function"
    },
    {
      "inputs": [],
      "name": "FROZEN_USER",
      "outputs": [
        {
          "internalType": "bytes32",
          "name": "",
          "type": "bytes32"
        }
      ],
      "stateMutability": "view",
      "type": "function"
    },
    {
      "inputs": [],
      "name": "MINTER_ROLE",
      "outputs": [
        {
          "internalType": "bytes32",
          "name": "",
          "type": "bytes32"
        }
      ],
      "stateMutability": "view",
      "type": "function"
    },
    {
      "inputs": [],
      "name": "MULTISIG_ROLE",
      "outputs": [
        {
          "internalType": "bytes32",
          "name": "",
          "type": "bytes32"
        }
      ],
      "stateMutability": "view",
      "type": "function"
    },
    {
      "inputs": [],
      "name": "PAUSER_ROLE",
      "outputs": [
        {
          "internalType": "bytes32",
          "name": "",
          "type": "bytes32"
        }
      ],
      "stateMutability": "view",
      "type": "function"
    },
    {
      "inputs": [
        {
          "internalType": "address",
          "name": "newAddress",
          "type": "address"
        }
      ],
      "name": "addAdmin",
      "outputs": [],
      "stateMutability": "nonpayable",
      "type": "function"
    },
    {
      "inputs": [
        {
          "internalType": "address",
          "name": "newAddress",
          "type": "address"
        }
      ],
      "name": "addBurner",
      "outputs": [],
      "stateMutability": "nonpayable",
      "type": "function"
    },
    {
      "inputs": [
        {
          "internalType": "address",
          "name": "newAddress",
          "type": "address"
        }
      ],
      "name": "addFreezer",
      "outputs": [],
      "stateMutability": "nonpayable",
      "type": "function"
    },
    {
      "inputs": [
        {
          "internalType": "address",
          "name": "newAddress",
          "type": "address"
        }
      ],
      "name": "addMinter",
      "outputs": [],
      "stateMutability": "nonpayable",
      "type": "function"
    },
    {
      "inputs": [
        {
          "internalType": "address",
          "name": "newAddress",
          "type": "address"
        }
      ],
      "name": "addMultisig",
      "outputs": [],
      "stateMutability": "nonpayable",
      "type": "function"
    },
    {
      "inputs": [
        {
          "internalType": "address",
          "name": "newAddress",
          "type": "address"
        }
      ],
      "name": "addPauser",
      "outputs": [],
      "stateMutability": "nonpayable",
      "type": "function"
    },
    {
      "inputs": [
        {
          "internalType": "address",
          "name": "owner",
          "type": "address"
        },
        {
          "internalType": "address",
          "name": "spender",
          "type": "address"
        }
      ],
      "name": "allowance",
      "outputs": [
        {
          "internalType": "uint256",
          "name": "",
          "type": "uint256"
        }
      ],
      "stateMutability": "view",
      "type": "function"
    },
    {
      "inputs": [
        {
          "internalType": "address",
          "name": "spender",
          "type": "address"
        },
        {
          "internalType": "uint256",
          "name": "amount",
          "type": "uint256"
        }
      ],
      "name": "approve",
      "outputs": [
        {
          "internalType": "bool",
          "name": "",
          "type": "bool"
        }
      ],
      "stateMutability": "nonpayable",
      "type": "function"
    },
    {
      "inputs": [
        {
          "internalType": "address",
          "name": "account",
          "type": "address"
        }
      ],
      "name": "balanceOf",
      "outputs": [
        {
          "internalType": "uint256",
          "name": "",
          "type": "uint256"
        }
      ],
      "stateMutability": "view",
      "type": "function"
    },
    {
      "inputs": [
        {
          "internalType": "address",
          "name": "target",
          "type": "address"
        },
        {
          "internalType": "uint256",
          "name": "amount",
          "type": "uint256"
        }
      ],
      "name": "bankBurn",
      "outputs": [],
      "stateMutability": "nonpayable",
      "type": "function"
    },
    {
      "inputs": [
        {
          "internalType": "address",
          "name": "recipient",
          "type": "address"
        },
        {
          "internalType": "uint256",
          "name": "amount",
          "type": "uint256"
        }
      ],
      "name": "bankMint",
      "outputs": [],
      "stateMutability": "nonpayable",
      "type": "function"
    },
    {
      "inputs": [
        {
          "internalType": "uint256",
          "name": "amount",
          "type": "uint256"
        }
      ],
      "name": "burn",
      "outputs": [],
      "stateMutability": "nonpayable",
      "type": "function"
    },
    {
      "inputs": [
        {
          "internalType": "address",
          "name": "account",
          "type": "address"
        },
        {
          "internalType": "uint256",
          "name": "amount",
          "type": "uint256"
        }
      ],
      "name": "burnFrom",
      "outputs": [],
      "stateMutability": "nonpayable",
      "type": "function"
    },
    {
      "inputs": [],
      "name": "decimals",
      "outputs": [
        {
          "internalType": "uint8",
          "name": "",
          "type": "uint8"
        }
      ],
      "stateMutability": "view",
      "type": "function"
    },
    {
      "inputs": [
        {
          "internalType": "address",
          "name": "spender",
          "type": "address"
        },
        {
          "internalType": "uint256",
          "name": "subtractedValue",
          "type": "uint256"
        }
      ],
      "name": "decreaseAllowance",
      "outputs": [
        {
          "internalType": "bool",
          "name": "",
          "type": "bool"
        }
      ],
      "stateMutability": "nonpayable",
      "type": "function"
    },
    {
      "inputs": [
        {
          "internalType": "address",
          "name": "newAddress",
          "type": "address"
        }
      ],
      "name": "freezeUser",
      "outputs": [],
      "stateMutability": "nonpayable",
      "type": "function"
    },
    {
      "inputs": [
        {
          "internalType": "bytes32",
          "name": "role",
          "type": "bytes32"
        }
      ],
      "name": "getRoleAdmin",
      "outputs": [
        {
          "internalType": "bytes32",
          "name": "",
          "type": "bytes32"
        }
      ],
      "stateMutability": "view",
      "type": "function"
    },
    {
      "inputs": [
        {
          "internalType": "bytes32",
          "name": "role",
          "type": "bytes32"
        },
        {
          "internalType": "uint256",
          "name": "index",
          "type": "uint256"
        }
      ],
      "name": "getRoleMember",
      "outputs": [
        {
          "internalType": "address",
          "name": "",
          "type": "address"
        }
      ],
      "stateMutability": "view",
      "type": "function"
    },
    {
      "inputs": [
        {
          "internalType": "bytes32",
          "name": "role",
          "type": "bytes32"
        }
      ],
      "name": "getRoleMemberCount",
      "outputs": [
        {
          "internalType": "uint256",
          "name": "",
          "type": "uint256"
        }
      ],
      "stateMutability": "view",
      "type": "function"
    },
    {
      "inputs": [
        {
          "internalType": "bytes32",
          "name": "role",
          "type": "bytes32"
        },
        {
          "internalType": "address",
          "name": "account",
          "type": "address"
        }
      ],
      "name": "grantRole",
      "outputs": [],
      "stateMutability": "nonpayable",
      "type": "function"
    },
    {
      "inputs": [
        {
          "internalType": "bytes32",
          "name": "role",
          "type": "bytes32"
        },
        {
          "internalType": "address",
          "name": "account",
          "type": "address"
        }
      ],
      "name": "hasRole",
      "outputs": [
        {
          "internalType": "bool",
          "name": "",
          "type": "bool"
        }
      ],
      "stateMutability": "view",
      "type": "function"
    },
    {
      "inputs": [
        {
          "internalType": "address",
          "name": "spender",
          "type": "address"
        },
        {
          "internalType": "uint256",
          "name": "addedValue",
          "type": "uint256"
        }
      ],
      "name": "increaseAllowance",
      "outputs": [
        {
          "internalType": "bool",
          "name": "",
          "type": "bool"
        }
      ],
      "stateMutability": "nonpayable",
      "type": "function"
    },
    {
      "inputs": [],
      "name": "initialize",
      "outputs": [],
      "stateMutability": "nonpayable",
      "type": "function"
    },
    {
      "inputs": [],
      "name": "name",
      "outputs": [
        {
          "internalType": "string",
          "name": "",
          "type": "string"
        }
      ],
      "stateMutability": "view",
      "type": "function"
    },
    {
      "inputs": [],
      "name": "pause",
      "outputs": [],
      "stateMutability": "nonpayable",
      "type": "function"
    },
    {
      "inputs": [],
      "name": "paused",
      "outputs": [
        {
          "internalType": "bool",
          "name": "",
          "type": "bool"
        }
      ],
      "stateMutability": "view",
      "type": "function"
    },
    {
      "inputs": [
        {
          "internalType": "address",
          "name": "oldAddress",
          "type": "address"
        }
      ],
      "name": "removeAdmin",
      "outputs": [],
      "stateMutability": "nonpayable",
      "type": "function"
    },
    {
      "inputs": [
        {
          "internalType": "address",
          "name": "oldAddress",
          "type": "address"
        }
      ],
      "name": "removeBurner",
      "outputs": [],
      "stateMutability": "nonpayable",
      "type": "function"
    },
    {
      "inputs": [
        {
          "internalType": "address",
          "name": "oldAddress",
          "type": "address"
        }
      ],
      "name": "removeFreezer",
      "outputs": [],
      "stateMutability": "nonpayable",
      "type": "function"
    },
    {
      "inputs": [
        {
          "internalType": "address",
          "name": "oldAddress",
          "type": "address"
        }
      ],
      "name": "removeMinter",
      "outputs": [],
      "stateMutability": "nonpayable",
      "type": "function"
    },
    {
      "inputs": [
        {
          "internalType": "address",
          "name": "oldAddress",
          "type": "address"
        }
      ],
      "name": "removePauser",
      "outputs": [],
      "stateMutability": "nonpayable",
      "type": "function"
    },
    {
      "inputs": [
        {
          "internalType": "bytes32",
          "name": "role",
          "type": "bytes32"
        },
        {
          "internalType": "address",
          "name": "account",
          "type": "address"
        }
      ],
      "name": "renounceRole",
      "outputs": [],
      "stateMutability": "nonpayable",
      "type": "function"
    },
    {
      "inputs": [
        {
          "internalType": "address",
          "name": "oldAddress",
          "type": "address"
        }
      ],
      "name": "revokeMultisig",
      "outputs": [],
      "stateMutability": "nonpayable",
      "type": "function"
    },
    {
      "inputs": [
        {
          "internalType": "bytes32",
          "name": "role",
          "type": "bytes32"
        },
        {
          "internalType": "address",
          "name": "account",
          "type": "address"
        }
      ],
      "name": "revokeRole",
      "outputs": [],
      "stateMutability": "nonpayable",
      "type": "function"
    },
    {
      "inputs": [
        {
          "internalType": "bytes4",
          "name": "interfaceId",
          "type": "bytes4"
        }
      ],
      "name": "supportsInterface",
      "outputs": [
        {
          "internalType": "bool",
          "name": "",
          "type": "bool"
        }
      ],
      "stateMutability": "view",
      "type": "function"
    },
    {
      "inputs": [],
      "name": "symbol",
      "outputs": [
        {
          "internalType": "string",
          "name": "",
          "type": "string"
        }
      ],
      "stateMutability": "view",
      "type": "function"
    },
    {
      "inputs": [],
      "name": "totalSupply",
      "outputs": [
        {
          "internalType": "uint256",
          "name": "",
          "type": "uint256"
        }
      ],
      "stateMutability": "view",
      "type": "function"
    },
    {
      "inputs": [
        {
          "internalType": "address",
          "name": "to",
          "type": "address"
        },
        {
          "internalType": "uint256",
          "name": "amount",
          "type": "uint256"
        }
      ],
      "name": "transfer",
      "outputs": [
        {
          "internalType": "bool",
          "name": "",
          "type": "bool"
        }
      ],
      "stateMutability": "nonpayable",
      "type": "function"
    },
    {
      "inputs": [
        {
          "internalType": "address",
          "name": "from",
          "type": "address"
        },
        {
          "internalType": "address",
          "name": "to",
          "type": "address"
        },
        {
          "internalType": "uint256",
          "name": "amount",
          "type": "uint256"
        }
      ],
      "name": "transferFrom",
      "outputs": [
        {
          "internalType": "bool",
          "name": "",
          "type": "bool"
        }
      ],
      "stateMutability": "nonpayable",
      "type": "function"
    },
    {
      "inputs": [
        {
          "internalType": "address",
          "name": "oldAddress",
          "type": "address"
        }
      ],
      "name": "unfreezeUser",
      "outputs": [],
      "stateMutability": "nonpayable",
      "type": "function"
    },
    {
      "inputs": [],
      "name": "unpause",
      "outputs": [],
      "stateMutability": "nonpayable",
      "type": "function"
    },
    {
      "inputs": [
        {
          "internalType": "uint256",
          "name": "newRate",
          "type": "uint256"
        }
      ],
      "name": "updateVariableRate",
      "outputs": [],
      "stateMutability": "nonpayable",
      "type": "function"
    },
    {
      "inputs": [],
      "name": "variableRate",
      "outputs": [
        {
          "internalType": "uint256",
          "name": "",
          "type": "uint256"
        }
      ],
      "stateMutability": "view",
      "type": "function"
    }
  ],
  "bytecode": "0x608060405234801561001057600080fd5b50614494806100206000396000f3fe608060405234801561001057600080fd5b50600436106102f15760003560e01c80636476e3011161019d578063a217fddf116100e9578063d5391393116100a2578063e08ba51a1161007c578063e08ba51a146108ec578063e328400c14610908578063e63ab1e914610926578063f44637ba14610944576102f1565b8063d539139314610882578063d547741f146108a0578063dd62ed3e146108bc576102f1565b8063a217fddf1461079c578063a457c2d7146107ba578063a9059cbb146107ea578063bd254d4c1461081a578063ca15c87314610836578063cb4b73ab14610866576102f1565b806382dc1ec4116101565780639010d07c116101305780639010d07c1461070257806391d148541461073257806395d89b4114610762578063983b2d5614610780576102f1565b806382dc1ec4146106be5780638456cb59146106da578063866006a6146106e4576102f1565b80636476e301146106145780636b2c0f5514610630578063704802751461064c57806370a082311461066857806379cc6790146106985780638129fc1c146106b4576102f1565b8063282c51f31161025c57806336568abe1161021557806342966c68116101ef57806342966c68146105a0578063526606c9146105bc5780635502f287146105d85780635c975abb146105f6576102f1565b806336568abe1461054a57806339509351146105665780633f4ba83a14610596576102f1565b8063282c51f31461049e5780632a6b503d146104bc5780632acd2000146104d85780632f2ff15d146104f45780633092afd514610510578063313ce5671461052c576102f1565b80631785f53c116102ae5780631785f53c146103ca57806318160ddd146103e65780631c130dfb1461040457806323b872dd14610420578063248a9ca31461045057806324e0d46014610480576102f1565b806301ffc9a7146102f6578063028468581461032657806306a85f0f1461034257806306fdde0314610360578063082a97901461037e578063095ea7b31461039a575b600080fd5b610310600480360381019061030b91906130f8565b610960565b60405161031d9190613140565b60405180910390f35b610340600480360381019061033b91906131b9565b6109da565b005b61034a610a1d565b60405161035791906131ff565b60405180910390f35b610368610a41565b60405161037591906132b3565b60405180910390f35b6103986004803603810190610393919061330b565b610ad3565b005b6103b460048036038101906103af919061330b565b610b3f565b6040516103c19190613140565b60405180910390f35b6103e460048036038101906103df91906131b9565b610b62565b005b6103ee610b88565b6040516103fb919061335a565b60405180910390f35b61041e600480360381019061041991906131b9565b610b92565b005b61043a60048036038101906104359190613375565b610bd5565b6040516104479190613140565b60405180910390f35b61046a600480360381019061046591906133f4565b610c04565b60405161047791906131ff565b60405180910390f35b610488610c24565b604051610495919061335a565b60405180910390f35b6104a6610c2b565b6040516104b391906131ff565b60405180910390f35b6104d660048036038101906104d191906131b9565b610c4f565b005b6104f260048036038101906104ed91906131b9565b610c92565b005b61050e60048036038101906105099190613421565b610cd5565b005b61052a600480360381019061052591906131b9565b610cfe565b005b610534610d41565b604051610541919061347d565b60405180910390f35b610564600480360381019061055f9190613421565b610d4a565b005b610580600480360381019061057b919061330b565b610e41565b60405161058d9190613140565b60405180910390f35b61059e610eeb565b005b6105ba60048036038101906105b59190613498565b610f28565b005b6105d660048036038101906105d191906131b9565b610f3c565b005b6105e0610f7f565b6040516105ed91906131ff565b60405180910390f35b6105fe610fa3565b60405161060b9190613140565b60405180910390f35b61062e6004803603810190610629919061330b565b610fba565b005b61064a600480360381019061064591906131b9565b6110a0565b005b610666600480360381019061066191906131b9565b6110e3565b005b610682600480360381019061067d91906131b9565b611109565b60405161068f919061335a565b60405180910390f35b6106b260048036038101906106ad919061330b565b611152565b005b6106bc611172565b005b6106d860048036038101906106d391906131b9565b611343565b005b6106e2611386565b005b6106ec6113c3565b6040516106f9919061335a565b60405180910390f35b61071c600480360381019061071791906134c5565b6113c9565b6040516107299190613514565b60405180910390f35b61074c60048036038101906107479190613421565b6113f9565b6040516107599190613140565b60405180910390f35b61076a611464565b60405161077791906132b3565b60405180910390f35b61079a600480360381019061079591906131b9565b6114f6565b005b6107a4611539565b6040516107b191906131ff565b60405180910390f35b6107d460048036038101906107cf919061330b565b611540565b6040516107e19190613140565b60405180910390f35b61080460048036038101906107ff919061330b565b61162a565b6040516108119190613140565b60405180910390f35b610834600480360381019061082f9190613498565b61164d565b005b610850600480360381019061084b91906133f4565b6116f5565b60405161085d919061335a565b60405180910390f35b610880600480360381019061087b91906131b9565b61171a565b005b61088a61177a565b60405161089791906131ff565b60405180910390f35b6108ba60048036038101906108b59190613421565b61179e565b005b6108d660048036038101906108d1919061352f565b611803565b6040516108e3919061335a565b60405180910390f35b610906600480360381019061090191906131b9565b61188a565b005b6109106118ea565b60405161091d91906131ff565b60405180910390f35b61092e61190e565b60405161093b91906131ff565b60405180910390f35b61095e600480360381019061095991906131b9565b611932565b005b60007f5a05180f000000000000000000000000000000000000000000000000000000007bffffffffffffffffffffffffffffffffffffffffffffffffffffffff1916827bffffffffffffffffffffffffffffffffffffffffffffffffffffffff191614806109d357506109d282611975565b5b9050919050565b6000801b6109ef816109ea6119ef565b6119f7565b610a197f3c11d16cbaffd01df69ce1c404f6340ee057498f5f00246190ea54220576a8488361179e565b5050565b7f92de27771f92d6942691d73358b3a4673e4880de8356f8f2cf452be87e02d36381565b606060368054610a509061359e565b80601f0160208091040260200160405190810160405280929190818152602001828054610a7c9061359e565b8015610ac95780601f10610a9e57610100808354040283529160200191610ac9565b820191906000526020600020905b815481529060010190602001808311610aac57829003601f168201915b5050505050905090565b7f3c11d16cbaffd01df69ce1c404f6340ee057498f5f00246190ea54220576a848610b0581610b006119ef565b6119f7565b600061271061015f54610b18919061362e565b83610b23919061365f565b9050610b2f3382611a94565b610b398484611bf5565b50505050565b600080610b4a6119ef565b9050610b57818585611dce565b600191505092915050565b6000801b610b7781610b726119ef565b6119f7565b610b846000801b8361179e565b5050565b6000603554905090565b6000801b610ba781610ba26119ef565b6119f7565b610bd17fa5a0b70b385ff7611cd3840916bd08b10829e5bf9e6637cf79dd9a427fc0e2ab83610cd5565b5050565b600080610be06119ef565b9050610bed858285611f99565b610bf8858585612025565b60019150509392505050565b600060fb6000838152602001908152602001600020600101549050919050565b61015f5481565b7f3c11d16cbaffd01df69ce1c404f6340ee057498f5f00246190ea54220576a84881565b6000801b610c6481610c5f6119ef565b6119f7565b610c8e7fa5a0b70b385ff7611cd3840916bd08b10829e5bf9e6637cf79dd9a427fc0e2ab8361179e565b5050565b6000801b610ca781610ca26119ef565b6119f7565b610cd17f92de27771f92d6942691d73358b3a4673e4880de8356f8f2cf452be87e02d3638361179e565b5050565b610cde82610c04565b610cef81610cea6119ef565b6119f7565b610cf983836122a9565b505050565b6000801b610d1381610d0e6119ef565b6119f7565b610d3d7f9f2df0fed2c77648de5860a4cc508cd0818c85b8b8a1ab4ceeef8d981c8956a68361179e565b5050565b60006012905090565b7f5edc4fd0544f0b4b53f14f295fb04bbd6fdbc1bea1fd8edf5851b385aee145d5821415610ddc57610d9c7f92de27771f92d6942691d73358b3a4673e4880de8356f8f2cf452be87e02d363336113f9565b610ddb576040517f08c379a0000000000000000000000000000000000000000000000000000000008152600401610dd290613705565b60405180910390fd5b5b6000801b821415610e33576001610df2836116f5565b11610e32576040517f08c379a0000000000000000000000000000000000000000000000000000000008152600401610e2990613771565b60405180910390fd5b5b610e3d82826122de565b5050565b600080610e4c6119ef565b9050610ee0818585603460008673ffffffffffffffffffffffffffffffffffffffff1673ffffffffffffffffffffffffffffffffffffffff16815260200190815260200160002060008973ffffffffffffffffffffffffffffffffffffffff1673ffffffffffffffffffffffffffffffffffffffff16815260200190815260200160002054610edb9190613791565b611dce565b600191505092915050565b7f65d7a28e3265b37a6474929f336521b332c1681b933f6cb9f3376673440d862a610f1d81610f186119ef565b6119f7565b610f25612361565b50565b610f39610f336119ef565b82611bf5565b50565b6000801b610f5181610f4c6119ef565b6119f7565b610f7b7f92de27771f92d6942691d73358b3a4673e4880de8356f8f2cf452be87e02d36383610cd5565b5050565b7f5edc4fd0544f0b4b53f14f295fb04bbd6fdbc1bea1fd8edf5851b385aee145d581565b6000609760009054906101000a900460ff16905090565b7f9f2df0fed2c77648de5860a4cc508cd0818c85b8b8a1ab4ceeef8d981c8956a6610fec81610fe76119ef565b6119f7565b6110167fa5a0b70b385ff7611cd3840916bd08b10829e5bf9e6637cf79dd9a427fc0e2ab846113f9565b611055576040517f08c379a000000000000000000000000000000000000000000000000000000000815260040161104c90613833565b60405180910390fd5b600061271061015f54611068919061362e565b83611073919061365f565b9050600081846110839190613853565b905061108f3383611a94565b6110998582611a94565b5050505050565b6000801b6110b5816110b06119ef565b6119f7565b6110df7f65d7a28e3265b37a6474929f336521b332c1681b933f6cb9f3376673440d862a8361179e565b5050565b6000801b6110f8816110f36119ef565b6119f7565b6111056000801b83610cd5565b5050565b6000603360008373ffffffffffffffffffffffffffffffffffffffff1673ffffffffffffffffffffffffffffffffffffffff168152602001908152602001600020549050919050565b6111648261115e6119ef565b83611f99565b61116e8282611bf5565b5050565b600060019054906101000a900460ff1661119a5760008054906101000a900460ff16156111a3565b6111a2612403565b5b6111e2576040517f08c379a00000000000000000000000000000000000000000000000000000000081526004016111d9906138f9565b60405180910390fd5b60008060019054906101000a900460ff161590508015611232576001600060016101000a81548160ff02191690831515021790555060016000806101000a81548160ff0219169083151502179055505b6112a66040518060400160405280600b81526020017f55534420526563656970740000000000000000000000000000000000000000008152506040518060400160405280600481526020017f5553445200000000000000000000000000000000000000000000000000000000815250612414565b6112ae612471565b6112b66124c2565b6112be61251b565b6112cb6000801b3361256c565b6113157f5edc4fd0544f0b4b53f14f295fb04bbd6fdbc1bea1fd8edf5851b385aee145d57f92de27771f92d6942691d73358b3a4673e4880de8356f8f2cf452be87e02d36361257a565b6101f461015f8190555080156113405760008060016101000a81548160ff0219169083151502179055505b50565b6000801b611358816113536119ef565b6119f7565b6113827f65d7a28e3265b37a6474929f336521b332c1681b933f6cb9f3376673440d862a83610cd5565b5050565b7f65d7a28e3265b37a6474929f336521b332c1681b933f6cb9f3376673440d862a6113b8816113b36119ef565b6119f7565b6113c06125d6565b50565b61271081565b60006113f18261012d600086815260200190815260200160002061267990919063ffffffff16565b905092915050565b600060fb600084815260200190815260200160002060000160008373ffffffffffffffffffffffffffffffffffffffff1673ffffffffffffffffffffffffffffffffffffffff16815260200190815260200160002060009054906101000a900460ff16905092915050565b6060603780546114739061359e565b80601f016020809104026020016040519081016040528092919081815260200182805461149f9061359e565b80156114ec5780601f106114c1576101008083540402835291602001916114ec565b820191906000526020600020905b8154815290600101906020018083116114cf57829003601f168201915b5050505050905090565b6000801b61150b816115066119ef565b6119f7565b6115357f9f2df0fed2c77648de5860a4cc508cd0818c85b8b8a1ab4ceeef8d981c8956a683610cd5565b5050565b6000801b81565b60008061154b6119ef565b90506000603460008373ffffffffffffffffffffffffffffffffffffffff1673ffffffffffffffffffffffffffffffffffffffff16815260200190815260200160002060008673ffffffffffffffffffffffffffffffffffffffff1673ffffffffffffffffffffffffffffffffffffffff16815260200190815260200160002054905083811015611611576040517f08c379a00000000000000000000000000000000000000000000000000000000081526004016116089061398b565b60405180910390fd5b61161e8286868403611dce565b60019250505092915050565b6000806116356119ef565b9050611642818585612025565b600191505092915050565b6000801b6116628161165d6119ef565b6119f7565b61138882106116a6576040517f08c379a000000000000000000000000000000000000000000000000000000000815260040161169d906139f7565b60405180910390fd5b603282116116e9576040517f08c379a00000000000000000000000000000000000000000000000000000000081526004016116e090613a63565b60405180910390fd5b8161015f819055505050565b600061171361012d6000848152602001908152602001600020612693565b9050919050565b7f92de27771f92d6942691d73358b3a4673e4880de8356f8f2cf452be87e02d36361174c816117476119ef565b6119f7565b6117767f5edc4fd0544f0b4b53f14f295fb04bbd6fdbc1bea1fd8edf5851b385aee145d58361179e565b5050565b7f9f2df0fed2c77648de5860a4cc508cd0818c85b8b8a1ab4ceeef8d981c8956a681565b6000801b8214156117f55760016117b4836116f5565b116117f4576040517f08c379a00000000000000000000000000000000000000000000000000000000081526004016117eb90613771565b60405180910390fd5b5b6117ff82826126a8565b5050565b6000603460008473ffffffffffffffffffffffffffffffffffffffff1673ffffffffffffffffffffffffffffffffffffffff16815260200190815260200160002060008373ffffffffffffffffffffffffffffffffffffffff1673ffffffffffffffffffffffffffffffffffffffff16815260200190815260200160002054905092915050565b7f92de27771f92d6942691d73358b3a4673e4880de8356f8f2cf452be87e02d3636118bc816118b76119ef565b6119f7565b6118e67f5edc4fd0544f0b4b53f14f295fb04bbd6fdbc1bea1fd8edf5851b385aee145d583610cd5565b5050565b7fa5a0b70b385ff7611cd3840916bd08b10829e5bf9e6637cf79dd9a427fc0e2ab81565b7f65d7a28e3265b37a6474929f336521b332c1681b933f6cb9f3376673440d862a81565b6000801b611947816119426119ef565b6119f7565b6119717f3c11d16cbaffd01df69ce1c404f6340ee057498f5f00246190ea54220576a84883610cd5565b5050565b60007f7965db0b000000000000000000000000000000000000000000000000000000007bffffffffffffffffffffffffffffffffffffffffffffffffffffffff1916827bffffffffffffffffffffffffffffffffffffffffffffffffffffffff191614806119e857506119e7826126d1565b5b9050919050565b600033905090565b611a0182826113f9565b611a9057611a268173ffffffffffffffffffffffffffffffffffffffff16601461273b565b611a348360001c602061273b565b604051602001611a45929190613b57565b6040516020818303038152906040526040517f08c379a0000000000000000000000000000000000000000000000000000000008152600401611a8791906132b3565b60405180910390fd5b5050565b600073ffffffffffffffffffffffffffffffffffffffff168273ffffffffffffffffffffffffffffffffffffffff161415611b04576040517f08c379a0000000000000000000000000000000000000000000000000000000008152600401611afb90613bdd565b60405180910390fd5b611b1060008383612977565b8060356000828254611b229190613791565b9250508190555080603360008473ffffffffffffffffffffffffffffffffffffffff1673ffffffffffffffffffffffffffffffffffffffff1681526020019081526020016000206000828254611b789190613791565b925050819055508173ffffffffffffffffffffffffffffffffffffffff16600073ffffffffffffffffffffffffffffffffffffffff167fddf252ad1be2c89b69c2b068fc378daa952ba7f163c4a11628f55a4df523b3ef83604051611bdd919061335a565b60405180910390a3611bf160008383612aa3565b5050565b600073ffffffffffffffffffffffffffffffffffffffff168273ffffffffffffffffffffffffffffffffffffffff161415611c65576040517f08c379a0000000000000000000000000000000000000000000000000000000008152600401611c5c90613c6f565b60405180910390fd5b611c7182600083612977565b6000603360008473ffffffffffffffffffffffffffffffffffffffff1673ffffffffffffffffffffffffffffffffffffffff16815260200190815260200160002054905081811015611cf8576040517f08c379a0000000000000000000000000000000000000000000000000000000008152600401611cef90613d01565b60405180910390fd5b818103603360008573ffffffffffffffffffffffffffffffffffffffff1673ffffffffffffffffffffffffffffffffffffffff168152602001908152602001600020819055508160356000828254611d509190613853565b92505081905550600073ffffffffffffffffffffffffffffffffffffffff168373ffffffffffffffffffffffffffffffffffffffff167fddf252ad1be2c89b69c2b068fc378daa952ba7f163c4a11628f55a4df523b3ef84604051611db5919061335a565b60405180910390a3611dc983600084612aa3565b505050565b600073ffffffffffffffffffffffffffffffffffffffff168373ffffffffffffffffffffffffffffffffffffffff161415611e3e576040517f08c379a0000000000000000000000000000000000000000000000000000000008152600401611e3590613d93565b60405180910390fd5b600073ffffffffffffffffffffffffffffffffffffffff168273ffffffffffffffffffffffffffffffffffffffff161415611eae576040517f08c379a0000000000000000000000000000000000000000000000000000000008152600401611ea590613e25565b60405180910390fd5b80603460008573ffffffffffffffffffffffffffffffffffffffff1673ffffffffffffffffffffffffffffffffffffffff16815260200190815260200160002060008473ffffffffffffffffffffffffffffffffffffffff1673ffffffffffffffffffffffffffffffffffffffff168152602001908152602001600020819055508173ffffffffffffffffffffffffffffffffffffffff168373ffffffffffffffffffffffffffffffffffffffff167f8c5be1e5ebec7d5bd14f71427d1e84f3dd0314c0f7b2291e5b200ac8c7c3b92583604051611f8c919061335a565b60405180910390a3505050565b6000611fa58484611803565b90507fffffffffffffffffffffffffffffffffffffffffffffffffffffffffffffffff811461201f5781811015612011576040517f08c379a000000000000000000000000000000000000000000000000000000000815260040161200890613e91565b60405180910390fd5b61201e8484848403611dce565b5b50505050565b600073ffffffffffffffffffffffffffffffffffffffff168373ffffffffffffffffffffffffffffffffffffffff161415612095576040517f08c379a000000000000000000000000000000000000000000000000000000000815260040161208c90613f23565b60405180910390fd5b600073ffffffffffffffffffffffffffffffffffffffff168273ffffffffffffffffffffffffffffffffffffffff161415612105576040517f08c379a00000000000000000000000000000000000000000000000000000000081526004016120fc90613fb5565b60405180910390fd5b612110838383612977565b6000603360008573ffffffffffffffffffffffffffffffffffffffff1673ffffffffffffffffffffffffffffffffffffffff16815260200190815260200160002054905081811015612197576040517f08c379a000000000000000000000000000000000000000000000000000000000815260040161218e90614047565b60405180910390fd5b818103603360008673ffffffffffffffffffffffffffffffffffffffff1673ffffffffffffffffffffffffffffffffffffffff1681526020019081526020016000208190555081603360008573ffffffffffffffffffffffffffffffffffffffff1673ffffffffffffffffffffffffffffffffffffffff168152602001908152602001600020600082825461222c9190613791565b925050819055508273ffffffffffffffffffffffffffffffffffffffff168473ffffffffffffffffffffffffffffffffffffffff167fddf252ad1be2c89b69c2b068fc378daa952ba7f163c4a11628f55a4df523b3ef84604051612290919061335a565b60405180910390a36122a3848484612aa3565b50505050565b6122b38282612aa8565b6122d98161012d6000858152602001908152602001600020612b8990919063ffffffff16565b505050565b6122e66119ef565b73ffffffffffffffffffffffffffffffffffffffff168173ffffffffffffffffffffffffffffffffffffffff1614612353576040517f08c379a000000000000000000000000000000000000000000000000000000000815260040161234a906140d9565b60405180910390fd5b61235d8282612bb9565b5050565b612369610fa3565b6123a8576040517f08c379a000000000000000000000000000000000000000000000000000000000815260040161239f90614145565b60405180910390fd5b6000609760006101000a81548160ff0219169083151502179055507f5db9ee0a495bf2e6ff9c91a7834c1ba4fdd244a5e8aa4e537bd38aeae4b073aa6123ec6119ef565b6040516123f99190613514565b60405180910390a1565b600061240e30612bee565b15905090565b600060019054906101000a900460ff16612463576040517f08c379a000000000000000000000000000000000000000000000000000000000815260040161245a906141d7565b60405180910390fd5b61246d8282612c11565b5050565b600060019054906101000a900460ff166124c0576040517f08c379a00000000000000000000000000000000000000000000000000000000081526004016124b7906141d7565b60405180910390fd5b565b600060019054906101000a900460ff16612511576040517f08c379a0000000000000000000000000000000000000000000000000000000008152600401612508906141d7565b60405180910390fd5b612519612c92565b565b600060019054906101000a900460ff1661256a576040517f08c379a0000000000000000000000000000000000000000000000000000000008152600401612561906141d7565b60405180910390fd5b565b61257682826122a9565b5050565b600061258583610c04565b90508160fb6000858152602001908152602001600020600101819055508181847fbd79b86ffe0ab8e8776151514217cd7cacd52c909f66475c3af44e129f0b00ff60405160405180910390a4505050565b6125de610fa3565b1561261e576040517f08c379a000000000000000000000000000000000000000000000000000000000815260040161261590614243565b60405180910390fd5b6001609760006101000a81548160ff0219169083151502179055507f62e78cea01bee320cd4e420270b5ea74000d11b0c9f74754ebdbfc544b05a2586126626119ef565b60405161266f9190613514565b60405180910390a1565b60006126888360000183612cfe565b60001c905092915050565b60006126a182600001612d29565b9050919050565b6126b182610c04565b6126c2816126bd6119ef565b6119f7565b6126cc8383612bb9565b505050565b60007f01ffc9a7000000000000000000000000000000000000000000000000000000007bffffffffffffffffffffffffffffffffffffffffffffffffffffffff1916827bffffffffffffffffffffffffffffffffffffffffffffffffffffffff1916149050919050565b60606000600283600261274e919061365f565b6127589190613791565b67ffffffffffffffff81111561277157612770614263565b5b6040519080825280601f01601f1916602001820160405280156127a35781602001600182028036833780820191505090505b5090507f3000000000000000000000000000000000000000000000000000000000000000816000815181106127db576127da614292565b5b60200101907effffffffffffffffffffffffffffffffffffffffffffffffffffffffffffff1916908160001a9053507f78000000000000000000000000000000000000000000000000000000000000008160018151811061283f5761283e614292565b5b60200101907effffffffffffffffffffffffffffffffffffffffffffffffffffffffffffff1916908160001a9053506000600184600261287f919061365f565b6128899190613791565b90505b6001811115612929577f3031323334353637383961626364656600000000000000000000000000000000600f8616601081106128cb576128ca614292565b5b1a60f81b8282815181106128e2576128e1614292565b5b60200101907effffffffffffffffffffffffffffffffffffffffffffffffffffffffffffff1916908160001a905350600485901c945080612922906142c1565b905061288c565b506000841461296d576040517f08c379a000000000000000000000000000000000000000000000000000000000815260040161296490614337565b60405180910390fd5b8091505092915050565b61297f610fa3565b156129bf576040517f08c379a00000000000000000000000000000000000000000000000000000000081526004016129b690614243565b60405180910390fd5b6129e97f5edc4fd0544f0b4b53f14f295fb04bbd6fdbc1bea1fd8edf5851b385aee145d5846113f9565b15612a29576040517f08c379a0000000000000000000000000000000000000000000000000000000008152600401612a20906143a3565b60405180910390fd5b612a537f5edc4fd0544f0b4b53f14f295fb04bbd6fdbc1bea1fd8edf5851b385aee145d5836113f9565b15612a93576040517f08c379a0000000000000000000000000000000000000000000000000000000008152600401612a8a9061440f565b60405180910390fd5b612a9e838383612d3a565b505050565b505050565b612ab282826113f9565b612b8557600160fb600084815260200190815260200160002060000160008373ffffffffffffffffffffffffffffffffffffffff1673ffffffffffffffffffffffffffffffffffffffff16815260200190815260200160002060006101000a81548160ff021916908315150217905550612b2a6119ef565b73ffffffffffffffffffffffffffffffffffffffff168173ffffffffffffffffffffffffffffffffffffffff16837f2f8788117e7eff1d82e926ec794901d17c78024a50270940304540a733656f0d60405160405180910390a45b5050565b6000612bb1836000018373ffffffffffffffffffffffffffffffffffffffff1660001b612d3f565b905092915050565b612bc38282612daf565b612be98161012d6000858152602001908152602001600020612e9190919063ffffffff16565b505050565b6000808273ffffffffffffffffffffffffffffffffffffffff163b119050919050565b600060019054906101000a900460ff16612c60576040517f08c379a0000000000000000000000000000000000000000000000000000000008152600401612c57906141d7565b60405180910390fd5b8160369080519060200190612c76929190612ff8565b508060379080519060200190612c8d929190612ff8565b505050565b600060019054906101000a900460ff16612ce1576040517f08c379a0000000000000000000000000000000000000000000000000000000008152600401612cd8906141d7565b60405180910390fd5b6000609760006101000a81548160ff021916908315150217905550565b6000826000018281548110612d1657612d15614292565b5b9060005260206000200154905092915050565b600081600001805490509050919050565b505050565b6000612d4b8383612ec1565b612da4578260000182908060018154018082558091505060019003906000526020600020016000909190919091505582600001805490508360010160008481526020019081526020016000208190555060019050612da9565b600090505b92915050565b612db982826113f9565b15612e8d57600060fb600084815260200190815260200160002060000160008373ffffffffffffffffffffffffffffffffffffffff1673ffffffffffffffffffffffffffffffffffffffff16815260200190815260200160002060006101000a81548160ff021916908315150217905550612e326119ef565b73ffffffffffffffffffffffffffffffffffffffff168173ffffffffffffffffffffffffffffffffffffffff16837ff6391f5c32d9c69d2a47ea670b442974b53935d1edc7fd64eb21e047a839171b60405160405180910390a45b5050565b6000612eb9836000018373ffffffffffffffffffffffffffffffffffffffff1660001b612ee4565b905092915050565b600080836001016000848152602001908152602001600020541415905092915050565b60008083600101600084815260200190815260200160002054905060008114612fec576000600182612f169190613853565b9050600060018660000180549050612f2e9190613853565b9050818114612f9d576000866000018281548110612f4f57612f4e614292565b5b9060005260206000200154905080876000018481548110612f7357612f72614292565b5b90600052602060002001819055508387600101600083815260200190815260200160002081905550505b85600001805480612fb157612fb061442f565b5b600190038181906000526020600020016000905590558560010160008681526020019081526020016000206000905560019350505050612ff2565b60009150505b92915050565b8280546130049061359e565b90600052602060002090601f016020900481019282613026576000855561306d565b82601f1061303f57805160ff191683800117855561306d565b8280016001018555821561306d579182015b8281111561306c578251825591602001919060010190613051565b5b50905061307a919061307e565b5090565b5b8082111561309757600081600090555060010161307f565b5090565b600080fd5b60007fffffffff0000000000000000000000000000000000000000000000000000000082169050919050565b6130d5816130a0565b81146130e057600080fd5b50565b6000813590506130f2816130cc565b92915050565b60006020828403121561310e5761310d61309b565b5b600061311c848285016130e3565b91505092915050565b60008115159050919050565b61313a81613125565b82525050565b60006020820190506131556000830184613131565b92915050565b600073ffffffffffffffffffffffffffffffffffffffff82169050919050565b60006131868261315b565b9050919050565b6131968161317b565b81146131a157600080fd5b50565b6000813590506131b38161318d565b92915050565b6000602082840312156131cf576131ce61309b565b5b60006131dd848285016131a4565b91505092915050565b6000819050919050565b6131f9816131e6565b82525050565b600060208201905061321460008301846131f0565b92915050565b600081519050919050565b600082825260208201905092915050565b60005b83811015613254578082015181840152602081019050613239565b83811115613263576000848401525b50505050565b6000601f19601f8301169050919050565b60006132858261321a565b61328f8185613225565b935061329f818560208601613236565b6132a881613269565b840191505092915050565b600060208201905081810360008301526132cd818461327a565b905092915050565b6000819050919050565b6132e8816132d5565b81146132f357600080fd5b50565b600081359050613305816132df565b92915050565b600080604083850312156133225761332161309b565b5b6000613330858286016131a4565b9250506020613341858286016132f6565b9150509250929050565b613354816132d5565b82525050565b600060208201905061336f600083018461334b565b92915050565b60008060006060848603121561338e5761338d61309b565b5b600061339c868287016131a4565b93505060206133ad868287016131a4565b92505060406133be868287016132f6565b9150509250925092565b6133d1816131e6565b81146133dc57600080fd5b50565b6000813590506133ee816133c8565b92915050565b60006020828403121561340a5761340961309b565b5b6000613418848285016133df565b91505092915050565b600080604083850312156134385761343761309b565b5b6000613446858286016133df565b9250506020613457858286016131a4565b9150509250929050565b600060ff82169050919050565b61347781613461565b82525050565b6000602082019050613492600083018461346e565b92915050565b6000602082840312156134ae576134ad61309b565b5b60006134bc848285016132f6565b91505092915050565b600080604083850312156134dc576134db61309b565b5b60006134ea858286016133df565b92505060206134fb858286016132f6565b9150509250929050565b61350e8161317b565b82525050565b60006020820190506135296000830184613505565b92915050565b600080604083850312156135465761354561309b565b5b6000613554858286016131a4565b9250506020613565858286016131a4565b9150509250929050565b7f4e487b7100000000000000000000000000000000000000000000000000000000600052602260045260246000fd5b600060028204905060018216806135b657607f821691505b602082108114156135ca576135c961356f565b5b50919050565b7f4e487b7100000000000000000000000000000000000000000000000000000000600052601260045260246000fd5b7f4e487b7100000000000000000000000000000000000000000000000000000000600052601160045260246000fd5b6000613639826132d5565b9150613644836132d5565b925082613654576136536135d0565b5b828204905092915050565b600061366a826132d5565b9150613675836132d5565b9250817fffffffffffffffffffffffffffffffffffffffffffffffffffffffffffffffff04831182151516156136ae576136ad6135ff565b5b828202905092915050565b7f4f6e6c7920726f6c652061646d696e2063616e207265766f6b652e0000000000600082015250565b60006136ef601b83613225565b91506136fa826136b9565b602082019050919050565b6000602082019050818103600083015261371e816136e2565b9050919050565b7f436f6e7472616374207265717569726573206f6e652061646d696e0000000000600082015250565b600061375b601b83613225565b915061376682613725565b602082019050919050565b6000602082019050818103600083015261378a8161374e565b9050919050565b600061379c826132d5565b91506137a7836132d5565b9250827fffffffffffffffffffffffffffffffffffffffffffffffffffffffffffffffff038211156137dc576137db6135ff565b5b828201905092915050565b7f526563697069656e74206d7573742062652077686974656c69737465642e0000600082015250565b600061381d601e83613225565b9150613828826137e7565b602082019050919050565b6000602082019050818103600083015261384c81613810565b9050919050565b600061385e826132d5565b9150613869836132d5565b92508282101561387c5761387b6135ff565b5b828203905092915050565b7f496e697469616c697a61626c653a20636f6e747261637420697320616c72656160008201527f647920696e697469616c697a6564000000000000000000000000000000000000602082015250565b60006138e3602e83613225565b91506138ee82613887565b604082019050919050565b60006020820190508181036000830152613912816138d6565b9050919050565b7f45524332303a2064656372656173656420616c6c6f77616e63652062656c6f7760008201527f207a65726f000000000000000000000000000000000000000000000000000000602082015250565b6000613975602583613225565b915061398082613919565b604082019050919050565b600060208201905081810360008301526139a481613968565b9050919050565b7f4e6577205261746520546f6f204c617267650000000000000000000000000000600082015250565b60006139e1601283613225565b91506139ec826139ab565b602082019050919050565b60006020820190508181036000830152613a10816139d4565b9050919050565b7f4e6577205261746520546f6f20536d616c6c0000000000000000000000000000600082015250565b6000613a4d601283613225565b9150613a5882613a17565b602082019050919050565b60006020820190508181036000830152613a7c81613a40565b9050919050565b600081905092915050565b7f416363657373436f6e74726f6c3a206163636f756e7420000000000000000000600082015250565b6000613ac4601783613a83565b9150613acf82613a8e565b601782019050919050565b6000613ae58261321a565b613aef8185613a83565b9350613aff818560208601613236565b80840191505092915050565b7f206973206d697373696e6720726f6c6520000000000000000000000000000000600082015250565b6000613b41601183613a83565b9150613b4c82613b0b565b601182019050919050565b6000613b6282613ab7565b9150613b6e8285613ada565b9150613b7982613b34565b9150613b858284613ada565b91508190509392505050565b7f45524332303a206d696e7420746f20746865207a65726f206164647265737300600082015250565b6000613bc7601f83613225565b9150613bd282613b91565b602082019050919050565b60006020820190508181036000830152613bf681613bba565b9050919050565b7f45524332303a206275726e2066726f6d20746865207a65726f2061646472657360008201527f7300000000000000000000000000000000000000000000000000000000000000602082015250565b6000613c59602183613225565b9150613c6482613bfd565b604082019050919050565b60006020820190508181036000830152613c8881613c4c565b9050919050565b7f45524332303a206275726e20616d6f756e7420657863656564732062616c616e60008201527f6365000000000000000000000000000000000000000000000000000000000000602082015250565b6000613ceb602283613225565b9150613cf682613c8f565b604082019050919050565b60006020820190508181036000830152613d1a81613cde565b9050919050565b7f45524332303a20617070726f76652066726f6d20746865207a65726f2061646460008201527f7265737300000000000000000000000000000000000000000000000000000000602082015250565b6000613d7d602483613225565b9150613d8882613d21565b604082019050919050565b60006020820190508181036000830152613dac81613d70565b9050919050565b7f45524332303a20617070726f766520746f20746865207a65726f20616464726560008201527f7373000000000000000000000000000000000000000000000000000000000000602082015250565b6000613e0f602283613225565b9150613e1a82613db3565b604082019050919050565b60006020820190508181036000830152613e3e81613e02565b9050919050565b7f45524332303a20696e73756666696369656e7420616c6c6f77616e6365000000600082015250565b6000613e7b601d83613225565b9150613e8682613e45565b602082019050919050565b60006020820190508181036000830152613eaa81613e6e565b9050919050565b7f45524332303a207472616e736665722066726f6d20746865207a65726f20616460008201527f6472657373000000000000000000000000000000000000000000000000000000602082015250565b6000613f0d602583613225565b9150613f1882613eb1565b604082019050919050565b60006020820190508181036000830152613f3c81613f00565b9050919050565b7f45524332303a207472616e7366657220746f20746865207a65726f206164647260008201527f6573730000000000000000000000000000000000000000000000000000000000602082015250565b6000613f9f602383613225565b9150613faa82613f43565b604082019050919050565b60006020820190508181036000830152613fce81613f92565b9050919050565b7f45524332303a207472616e7366657220616d6f756e742065786365656473206260008201527f616c616e63650000000000000000000000000000000000000000000000000000602082015250565b6000614031602683613225565b915061403c82613fd5565b604082019050919050565b6000602082019050818103600083015261406081614024565b9050919050565b7f416363657373436f6e74726f6c3a2063616e206f6e6c792072656e6f756e636560008201527f20726f6c657320666f722073656c660000000000000000000000000000000000602082015250565b60006140c3602f83613225565b91506140ce82614067565b604082019050919050565b600060208201905081810360008301526140f2816140b6565b9050919050565b7f5061757361626c653a206e6f7420706175736564000000000000000000000000600082015250565b600061412f601483613225565b915061413a826140f9565b602082019050919050565b6000602082019050818103600083015261415e81614122565b9050919050565b7f496e697469616c697a61626c653a20636f6e7472616374206973206e6f74206960008201527f6e697469616c697a696e67000000000000000000000000000000000000000000602082015250565b60006141c1602b83613225565b91506141cc82614165565b604082019050919050565b600060208201905081810360008301526141f0816141b4565b9050919050565b7f5061757361626c653a2070617573656400000000000000000000000000000000600082015250565b600061422d601083613225565b9150614238826141f7565b602082019050919050565b6000602082019050818103600083015261425c81614220565b9050919050565b7f4e487b7100000000000000000000000000000000000000000000000000000000600052604160045260246000fd5b7f4e487b7100000000000000000000000000000000000000000000000000000000600052603260045260246000fd5b60006142cc826132d5565b915060008214156142e0576142df6135ff565b5b600182039050919050565b7f537472696e67733a20686578206c656e67746820696e73756666696369656e74600082015250565b6000614321602083613225565b915061432c826142eb565b602082019050919050565b6000602082019050818103600083015261435081614314565b9050919050565b7f53656e6465722069732063757272656e746c792066726f7a656e2e0000000000600082015250565b600061438d601b83613225565b915061439882614357565b602082019050919050565b600060208201905081810360008301526143bc81614380565b9050919050565b7f526563697069656e742069732063757272656e746c792066726f7a656e2e0000600082015250565b60006143f9601e83613225565b9150614404826143c3565b602082019050919050565b60006020820190508181036000830152614428816143ec565b9050919050565b7f4e487b7100000000000000000000000000000000000000000000000000000000600052603160045260246000fdfea26469706673582212205fc3127df5c919ab6d1469ff0cb95a0e50d6d19fef464611aaf1ce8abafb2e7064736f6c634300080b0033",
  "linkReferences": {},
  "deployedLinkReferences": {}
}