{
  "_format": "hh-sol-artifact-1",
  "contractName": "METLv2",
  "sourceName": "contracts/METLv2Audited.sol",
  "abi": [
    {
      "anonymous": false,
      "inputs": [
        {
          "indexed": true,
          "internalType": "address",
          "name": "owner",
          "type": "address"
        },
        {
          "indexed": true,
          "internalType": "address",
          "name": "spender",
          "type": "address"
        },
        {
          "indexed": false,
          "internalType": "uint256",
          "name": "value",
          "type": "uint256"
        }
      ],
      "name": "Approval",
      "type": "event"
    },
    {
      "anonymous": false,
      "inputs": [
        {
          "indexed": false,
          "internalType": "address",
          "name": "account",
          "type": "address"
        }
      ],
      "name": "Paused",
      "type": "event"
    },
    {
      "anonymous": false,
      "inputs": [
        {
          "indexed": true,
          "internalType": "bytes32",
          "name": "role",
          "type": "bytes32"
        },
        {
          "indexed": true,
          "internalType": "bytes32",
          "name": "previousAdminRole",
          "type": "bytes32"
        },
        {
          "indexed": true,
          "internalType": "bytes32",
          "name": "newAdminRole",
          "type": "bytes32"
        }
      ],
      "name": "RoleAdminChanged",
      "type": "event"
    },
    {
      "anonymous": false,
      "inputs": [
        {
          "indexed": true,
          "internalType": "bytes32",
          "name": "role",
          "type": "bytes32"
        },
        {
          "indexed": true,
          "internalType": "address",
          "name": "account",
          "type": "address"
        },
        {
          "indexed": true,
          "internalType": "address",
          "name": "sender",
          "type": "address"
        }
      ],
      "name": "RoleGranted",
      "type": "event"
    },
    {
      "anonymous": false,
      "inputs": [
        {
          "indexed": true,
          "internalType": "bytes32",
          "name": "role",
          "type": "bytes32"
        },
        {
          "indexed": true,
          "internalType": "address",
          "name": "account",
          "type": "address"
        },
        {
          "indexed": true,
          "internalType": "address",
          "name": "sender",
          "type": "address"
        }
      ],
      "name": "RoleRevoked",
      "type": "event"
    },
    {
      "anonymous": false,
      "inputs": [
        {
          "indexed": true,
          "internalType": "address",
          "name": "from",
          "type": "address"
        },
        {
          "indexed": true,
          "internalType": "address",
          "name": "to",
          "type": "address"
        },
        {
          "indexed": false,
          "internalType": "uint256",
          "name": "value",
          "type": "uint256"
        }
      ],
      "name": "Transfer",
      "type": "event"
    },
    {
      "anonymous": false,
      "inputs": [
        {
          "indexed": false,
          "internalType": "address",
          "name": "account",
          "type": "address"
        }
      ],
      "name": "Unpaused",
      "type": "event"
    },
    {
      "inputs": [],
      "name": "BURNER_ROLE",
      "outputs": [
        {
          "internalType": "bytes32",
          "name": "",
          "type": "bytes32"
        }
      ],
      "stateMutability": "view",
      "type": "function"
    },
    {
      "inputs": [],
      "name": "DEFAULT_ADMIN_ROLE",
      "outputs": [
        {
          "internalType": "bytes32",
          "name": "",
          "type": "bytes32"
        }
      ],
      "stateMutability": "view",
      "type": "function"
    },
    {
      "inputs": [],
      "name": "FREEZER_ROLE",
      "outputs": [
        {
          "internalType": "bytes32",
          "name": "",
          "type": "bytes32"
        }
      ],
      "stateMutability": "view",
      "type": "function"
    },
    {
      "inputs": [],
      "name": "FROZEN_USER",
      "outputs": [
        {
          "internalType": "bytes32",
          "name": "",
          "type": "bytes32"
        }
      ],
      "stateMutability": "view",
      "type": "function"
    },
    {
      "inputs": [],
      "name": "MINTER_ROLE",
      "outputs": [
        {
          "internalType": "bytes32",
          "name": "",
          "type": "bytes32"
        }
      ],
      "stateMutability": "view",
      "type": "function"
    },
    {
      "inputs": [],
      "name": "MULTISIG_ROLE",
      "outputs": [
        {
          "internalType": "bytes32",
          "name": "",
          "type": "bytes32"
        }
      ],
      "stateMutability": "view",
      "type": "function"
    },
    {
      "inputs": [],
      "name": "PAUSER_ROLE",
      "outputs": [
        {
          "internalType": "bytes32",
          "name": "",
          "type": "bytes32"
        }
      ],
      "stateMutability": "view",
      "type": "function"
    },
    {
      "inputs": [
        {
          "internalType": "address",
          "name": "newAddress",
          "type": "address"
        }
      ],
      "name": "addAdmin",
      "outputs": [],
      "stateMutability": "nonpayable",
      "type": "function"
    },
    {
      "inputs": [
        {
          "internalType": "address",
          "name": "newAddress",
          "type": "address"
        }
      ],
      "name": "addBurner",
      "outputs": [],
      "stateMutability": "nonpayable",
      "type": "function"
    },
    {
      "inputs": [
        {
          "internalType": "address",
          "name": "newAddress",
          "type": "address"
        }
      ],
      "name": "addFreezer",
      "outputs": [],
      "stateMutability": "nonpayable",
      "type": "function"
    },
    {
      "inputs": [
        {
          "internalType": "address",
          "name": "newAddress",
          "type": "address"
        }
      ],
      "name": "addMinter",
      "outputs": [],
      "stateMutability": "nonpayable",
      "type": "function"
    },
    {
      "inputs": [
        {
          "internalType": "address",
          "name": "newAddress",
          "type": "address"
        }
      ],
      "name": "addMultisig",
      "outputs": [],
      "stateMutability": "nonpayable",
      "type": "function"
    },
    {
      "inputs": [
        {
          "internalType": "address",
          "name": "newAddress",
          "type": "address"
        }
      ],
      "name": "addPauser",
      "outputs": [],
      "stateMutability": "nonpayable",
      "type": "function"
    },
    {
      "inputs": [
        {
          "internalType": "address",
          "name": "owner",
          "type": "address"
        },
        {
          "internalType": "address",
          "name": "spender",
          "type": "address"
        }
      ],
      "name": "allowance",
      "outputs": [
        {
          "internalType": "uint256",
          "name": "",
          "type": "uint256"
        }
      ],
      "stateMutability": "view",
      "type": "function"
    },
    {
      "inputs": [
        {
          "internalType": "address",
          "name": "spender",
          "type": "address"
        },
        {
          "internalType": "uint256",
          "name": "amount",
          "type": "uint256"
        }
      ],
      "name": "approve",
      "outputs": [
        {
          "internalType": "bool",
          "name": "",
          "type": "bool"
        }
      ],
      "stateMutability": "nonpayable",
      "type": "function"
    },
    {
      "inputs": [
        {
          "internalType": "address",
          "name": "account",
          "type": "address"
        }
      ],
      "name": "balanceOf",
      "outputs": [
        {
          "internalType": "uint256",
          "name": "",
          "type": "uint256"
        }
      ],
      "stateMutability": "view",
      "type": "function"
    },
    {
      "inputs": [
        {
          "internalType": "address",
          "name": "target",
          "type": "address"
        },
        {
          "internalType": "uint256",
          "name": "amount",
          "type": "uint256"
        }
      ],
      "name": "bankBurn",
      "outputs": [],
      "stateMutability": "nonpayable",
      "type": "function"
    },
    {
      "inputs": [
        {
          "internalType": "address",
          "name": "recipient",
          "type": "address"
        },
        {
          "internalType": "uint256",
          "name": "amount",
          "type": "uint256"
        }
      ],
      "name": "bankMint",
      "outputs": [],
      "stateMutability": "nonpayable",
      "type": "function"
    },
    {
      "inputs": [
        {
          "internalType": "uint256",
          "name": "amount",
          "type": "uint256"
        }
      ],
      "name": "burn",
      "outputs": [],
      "stateMutability": "nonpayable",
      "type": "function"
    },
    {
      "inputs": [
        {
          "internalType": "address",
          "name": "account",
          "type": "address"
        },
        {
          "internalType": "uint256",
          "name": "amount",
          "type": "uint256"
        }
      ],
      "name": "burnFrom",
      "outputs": [],
      "stateMutability": "nonpayable",
      "type": "function"
    },
    {
      "inputs": [],
      "name": "decimals",
      "outputs": [
        {
          "internalType": "uint8",
          "name": "",
          "type": "uint8"
        }
      ],
      "stateMutability": "view",
      "type": "function"
    },
    {
      "inputs": [
        {
          "internalType": "address",
          "name": "spender",
          "type": "address"
        },
        {
          "internalType": "uint256",
          "name": "subtractedValue",
          "type": "uint256"
        }
      ],
      "name": "decreaseAllowance",
      "outputs": [
        {
          "internalType": "bool",
          "name": "",
          "type": "bool"
        }
      ],
      "stateMutability": "nonpayable",
      "type": "function"
    },
    {
      "inputs": [
        {
          "internalType": "address",
          "name": "newAddress",
          "type": "address"
        }
      ],
      "name": "freezeUser",
      "outputs": [],
      "stateMutability": "nonpayable",
      "type": "function"
    },
    {
      "inputs": [
        {
          "internalType": "bytes32",
          "name": "role",
          "type": "bytes32"
        }
      ],
      "name": "getRoleAdmin",
      "outputs": [
        {
          "internalType": "bytes32",
          "name": "",
          "type": "bytes32"
        }
      ],
      "stateMutability": "view",
      "type": "function"
    },
    {
      "inputs": [
        {
          "internalType": "bytes32",
          "name": "role",
          "type": "bytes32"
        },
        {
          "internalType": "uint256",
          "name": "index",
          "type": "uint256"
        }
      ],
      "name": "getRoleMember",
      "outputs": [
        {
          "internalType": "address",
          "name": "",
          "type": "address"
        }
      ],
      "stateMutability": "view",
      "type": "function"
    },
    {
      "inputs": [
        {
          "internalType": "bytes32",
          "name": "role",
          "type": "bytes32"
        }
      ],
      "name": "getRoleMemberCount",
      "outputs": [
        {
          "internalType": "uint256",
          "name": "",
          "type": "uint256"
        }
      ],
      "stateMutability": "view",
      "type": "function"
    },
    {
      "inputs": [
        {
          "internalType": "bytes32",
          "name": "role",
          "type": "bytes32"
        },
        {
          "internalType": "address",
          "name": "account",
          "type": "address"
        }
      ],
      "name": "grantRole",
      "outputs": [],
      "stateMutability": "nonpayable",
      "type": "function"
    },
    {
      "inputs": [
        {
          "internalType": "bytes32",
          "name": "role",
          "type": "bytes32"
        },
        {
          "internalType": "address",
          "name": "account",
          "type": "address"
        }
      ],
      "name": "hasRole",
      "outputs": [
        {
          "internalType": "bool",
          "name": "",
          "type": "bool"
        }
      ],
      "stateMutability": "view",
      "type": "function"
    },
    {
      "inputs": [
        {
          "internalType": "address",
          "name": "spender",
          "type": "address"
        },
        {
          "internalType": "uint256",
          "name": "addedValue",
          "type": "uint256"
        }
      ],
      "name": "increaseAllowance",
      "outputs": [
        {
          "internalType": "bool",
          "name": "",
          "type": "bool"
        }
      ],
      "stateMutability": "nonpayable",
      "type": "function"
    },
    {
      "inputs": [],
      "name": "initialize",
      "outputs": [],
      "stateMutability": "nonpayable",
      "type": "function"
    },
    {
      "inputs": [
        {
          "internalType": "address",
          "name": "recipient",
          "type": "address"
        },
        {
          "internalType": "uint256",
          "name": "amount",
          "type": "uint256"
        }
      ],
      "name": "mint",
      "outputs": [],
      "stateMutability": "nonpayable",
      "type": "function"
    },
    {
      "inputs": [],
      "name": "name",
      "outputs": [
        {
          "internalType": "string",
          "name": "",
          "type": "string"
        }
      ],
      "stateMutability": "view",
      "type": "function"
    },
    {
      "inputs": [],
      "name": "pause",
      "outputs": [],
      "stateMutability": "nonpayable",
      "type": "function"
    },
    {
      "inputs": [],
      "name": "paused",
      "outputs": [
        {
          "internalType": "bool",
          "name": "",
          "type": "bool"
        }
      ],
      "stateMutability": "view",
      "type": "function"
    },
    {
      "inputs": [
        {
          "internalType": "address",
          "name": "oldAddress",
          "type": "address"
        }
      ],
      "name": "removeAdmin",
      "outputs": [],
      "stateMutability": "nonpayable",
      "type": "function"
    },
    {
      "inputs": [
        {
          "internalType": "address",
          "name": "oldAddress",
          "type": "address"
        }
      ],
      "name": "removeBurner",
      "outputs": [],
      "stateMutability": "nonpayable",
      "type": "function"
    },
    {
      "inputs": [
        {
          "internalType": "address",
          "name": "oldAddress",
          "type": "address"
        }
      ],
      "name": "removeFreezer",
      "outputs": [],
      "stateMutability": "nonpayable",
      "type": "function"
    },
    {
      "inputs": [
        {
          "internalType": "address",
          "name": "oldAddress",
          "type": "address"
        }
      ],
      "name": "removeMinter",
      "outputs": [],
      "stateMutability": "nonpayable",
      "type": "function"
    },
    {
      "inputs": [
        {
          "internalType": "address",
          "name": "oldAddress",
          "type": "address"
        }
      ],
      "name": "removePauser",
      "outputs": [],
      "stateMutability": "nonpayable",
      "type": "function"
    },
    {
      "inputs": [
        {
          "internalType": "bytes32",
          "name": "role",
          "type": "bytes32"
        },
        {
          "internalType": "address",
          "name": "account",
          "type": "address"
        }
      ],
      "name": "renounceRole",
      "outputs": [],
      "stateMutability": "nonpayable",
      "type": "function"
    },
    {
      "inputs": [
        {
          "internalType": "address",
          "name": "oldAddress",
          "type": "address"
        }
      ],
      "name": "revokeMultisig",
      "outputs": [],
      "stateMutability": "nonpayable",
      "type": "function"
    },
    {
      "inputs": [
        {
          "internalType": "bytes32",
          "name": "role",
          "type": "bytes32"
        },
        {
          "internalType": "address",
          "name": "account",
          "type": "address"
        }
      ],
      "name": "revokeRole",
      "outputs": [],
      "stateMutability": "nonpayable",
      "type": "function"
    },
    {
      "inputs": [
        {
          "internalType": "bytes4",
          "name": "interfaceId",
          "type": "bytes4"
        }
      ],
      "name": "supportsInterface",
      "outputs": [
        {
          "internalType": "bool",
          "name": "",
          "type": "bool"
        }
      ],
      "stateMutability": "view",
      "type": "function"
    },
    {
      "inputs": [],
      "name": "symbol",
      "outputs": [
        {
          "internalType": "string",
          "name": "",
          "type": "string"
        }
      ],
      "stateMutability": "view",
      "type": "function"
    },
    {
      "inputs": [],
      "name": "totalSupply",
      "outputs": [
        {
          "internalType": "uint256",
          "name": "",
          "type": "uint256"
        }
      ],
      "stateMutability": "view",
      "type": "function"
    },
    {
      "inputs": [
        {
          "internalType": "address",
          "name": "recipient",
          "type": "address"
        },
        {
          "internalType": "uint256",
          "name": "amount",
          "type": "uint256"
        }
      ],
      "name": "transfer",
      "outputs": [
        {
          "internalType": "bool",
          "name": "",
          "type": "bool"
        }
      ],
      "stateMutability": "nonpayable",
      "type": "function"
    },
    {
      "inputs": [
        {
          "internalType": "address",
          "name": "sender",
          "type": "address"
        },
        {
          "internalType": "address",
          "name": "recipient",
          "type": "address"
        },
        {
          "internalType": "uint256",
          "name": "amount",
          "type": "uint256"
        }
      ],
      "name": "transferFrom",
      "outputs": [
        {
          "internalType": "bool",
          "name": "",
          "type": "bool"
        }
      ],
      "stateMutability": "nonpayable",
      "type": "function"
    },
    {
      "inputs": [
        {
          "internalType": "address",
          "name": "oldAddress",
          "type": "address"
        }
      ],
      "name": "unfreezeUser",
      "outputs": [],
      "stateMutability": "nonpayable",
      "type": "function"
    },
    {
      "inputs": [],
      "name": "unpause",
      "outputs": [],
      "stateMutability": "nonpayable",
      "type": "function"
    }
  ],
  "bytecode": "0x608060405234801561001057600080fd5b5061481d806100206000396000f3fe608060405234801561001057600080fd5b50600436106102bb5760003560e01c80635c975abb11610182578063983b2d56116100e9578063d5391393116100a2578063e08ba51a1161007c578063e08ba51a1461087a578063e328400c14610896578063e63ab1e9146108b4578063f44637ba146108d2576102bb565b8063d539139314610810578063d547741f1461082e578063dd62ed3e1461084a576102bb565b8063983b2d561461072a578063a217fddf14610746578063a457c2d714610764578063a9059cbb14610794578063ca15c873146107c4578063cb4b73ab146107f4576102bb565b80638129fc1c1161013b5780638129fc1c1461067c57806382dc1ec4146106865780638456cb59146106a25780639010d07c146106ac57806391d14854146106dc57806395d89b411461070c576102bb565b80635c975abb146105be5780636476e301146105dc5780636b2c0f55146105f8578063704802751461061457806370a082311461063057806379cc679014610660576102bb565b80632a6b503d1161022657806339509351116101df57806339509351146105125780633f4ba83a1461054257806340c10f191461054c57806342966c6814610568578063526606c9146105845780635502f287146105a0576102bb565b80632a6b503d146104685780632acd2000146104845780632f2ff15d146104a05780633092afd5146104bc578063313ce567146104d857806336568abe146104f6576102bb565b80631785f53c116102785780631785f53c1461039457806318160ddd146103b05780631c130dfb146103ce57806323b872dd146103ea578063248a9ca31461041a578063282c51f31461044a576102bb565b806301ffc9a7146102c057806302846858146102f057806306a85f0f1461030c57806306fdde031461032a578063082a979014610348578063095ea7b314610364575b600080fd5b6102da60048036038101906102d591906135ff565b6108ee565b6040516102e79190613647565b60405180910390f35b61030a600480360381019061030591906136c0565b610968565b005b6103146109ab565b6040516103219190613706565b60405180910390f35b6103326109cf565b60405161033f91906137ba565b60405180910390f35b610362600480360381019061035d9190613812565b610a61565b005b61037e60048036038101906103799190613812565b610aa2565b60405161038b9190613647565b60405180910390f35b6103ae60048036038101906103a991906136c0565b610ac0565b005b6103b8610ae6565b6040516103c59190613861565b60405180910390f35b6103e860048036038101906103e391906136c0565b610af0565b005b61040460048036038101906103ff919061387c565b610b33565b6040516104119190613647565b60405180910390f35b610434600480360381019061042f91906138fb565b610c2b565b6040516104419190613706565b60405180910390f35b610452610c4b565b60405161045f9190613706565b60405180910390f35b610482600480360381019061047d91906136c0565b610c6f565b005b61049e600480360381019061049991906136c0565b610cb2565b005b6104ba60048036038101906104b59190613928565b610cf5565b005b6104d660048036038101906104d191906136c0565b610d2a565b005b6104e0610d6d565b6040516104ed9190613984565b60405180910390f35b610510600480360381019061050b9190613928565b610d76565b005b61052c60048036038101906105279190613812565b610dab565b6040516105399190613647565b60405180910390f35b61054a610e57565b005b61056660048036038101906105619190613812565b610e94565b005b610582600480360381019061057d919061399f565b610ea2565b005b61059e600480360381019061059991906136c0565b610eb6565b005b6105a8610ef9565b6040516105b59190613706565b60405180910390f35b6105c6610f1d565b6040516105d39190613647565b60405180910390f35b6105f660048036038101906105f19190613812565b610f34565b005b610612600480360381019061060d91906136c0565b610fde565b005b61062e600480360381019061062991906136c0565b611021565b005b61064a600480360381019061064591906136c0565b611047565b6040516106579190613861565b60405180910390f35b61067a60048036038101906106759190613812565b611090565b005b61068461110b565b005b6106a0600480360381019061069b91906136c0565b6112c7565b005b6106aa61130a565b005b6106c660048036038101906106c191906139cc565b611347565b6040516106d39190613a1b565b60405180910390f35b6106f660048036038101906106f19190613928565b611377565b6040516107039190613647565b60405180910390f35b6107146113e2565b60405161072191906137ba565b60405180910390f35b610744600480360381019061073f91906136c0565b611474565b005b61074e6114b7565b60405161075b9190613706565b60405180910390f35b61077e60048036038101906107799190613812565b6114be565b60405161078b9190613647565b60405180910390f35b6107ae60048036038101906107a99190613812565b6115a9565b6040516107bb9190613647565b60405180910390f35b6107de60048036038101906107d991906138fb565b6115c7565b6040516107eb9190613861565b60405180910390f35b61080e600480360381019061080991906136c0565b6115ec565b005b61081861164c565b6040516108259190613706565b60405180910390f35b61084860048036038101906108439190613928565b611670565b005b610864600480360381019061085f9190613a36565b6116d5565b6040516108719190613861565b60405180910390f35b610894600480360381019061088f91906136c0565b61175c565b005b61089e6117bc565b6040516108ab9190613706565b60405180910390f35b6108bc6117e0565b6040516108c99190613706565b60405180910390f35b6108ec60048036038101906108e791906136c0565b611804565b005b60007f5a05180f000000000000000000000000000000000000000000000000000000007bffffffffffffffffffffffffffffffffffffffffffffffffffffffff1916827bffffffffffffffffffffffffffffffffffffffffffffffffffffffff19161480610961575061096082611847565b5b9050919050565b6000801b61097d816109786118c1565b6118c9565b6109a77f3c11d16cbaffd01df69ce1c404f6340ee057498f5f00246190ea54220576a84883611670565b5050565b7f92de27771f92d6942691d73358b3a4673e4880de8356f8f2cf452be87e02d36381565b6060603680546109de90613aa5565b80601f0160208091040260200160405190810160405280929190818152602001828054610a0a90613aa5565b8015610a575780601f10610a2c57610100808354040283529160200191610a57565b820191906000526020600020905b815481529060010190602001808311610a3a57829003601f168201915b5050505050905090565b7f3c11d16cbaffd01df69ce1c404f6340ee057498f5f00246190ea54220576a848610a9381610a8e6118c1565b6118c9565b610a9d8383611966565b505050565b6000610ab6610aaf6118c1565b8484611b3f565b6001905092915050565b6000801b610ad581610ad06118c1565b6118c9565b610ae26000801b83611670565b5050565b6000603554905090565b6000801b610b0581610b006118c1565b6118c9565b610b2f7fa5a0b70b385ff7611cd3840916bd08b10829e5bf9e6637cf79dd9a427fc0e2ab83610cf5565b5050565b6000610b40848484611d0a565b6000603460008673ffffffffffffffffffffffffffffffffffffffff1673ffffffffffffffffffffffffffffffffffffffff1681526020019081526020016000206000610b8b6118c1565b73ffffffffffffffffffffffffffffffffffffffff1673ffffffffffffffffffffffffffffffffffffffff16815260200190815260200160002054905082811015610c0b576040517f08c379a0000000000000000000000000000000000000000000000000000000008152600401610c0290613b49565b60405180910390fd5b610c1f85610c176118c1565b858403611b3f565b60019150509392505050565b600060fb6000838152602001908152602001600020600101549050919050565b7f3c11d16cbaffd01df69ce1c404f6340ee057498f5f00246190ea54220576a84881565b6000801b610c8481610c7f6118c1565b6118c9565b610cae7fa5a0b70b385ff7611cd3840916bd08b10829e5bf9e6637cf79dd9a427fc0e2ab83611670565b5050565b6000801b610cc781610cc26118c1565b6118c9565b610cf17f92de27771f92d6942691d73358b3a4673e4880de8356f8f2cf452be87e02d36383611670565b5050565b610cff8282611f8e565b610d258161012d6000858152602001908152602001600020611fb790919063ffffffff16565b505050565b6000801b610d3f81610d3a6118c1565b6118c9565b610d697f9f2df0fed2c77648de5860a4cc508cd0818c85b8b8a1ab4ceeef8d981c8956a683611670565b5050565b60006012905090565b610d808282611fe7565b610da68161012d600085815260200190815260200160002061206a90919063ffffffff16565b505050565b6000610e4d610db86118c1565b848460346000610dc66118c1565b73ffffffffffffffffffffffffffffffffffffffff1673ffffffffffffffffffffffffffffffffffffffff16815260200190815260200160002060008873ffffffffffffffffffffffffffffffffffffffff1673ffffffffffffffffffffffffffffffffffffffff16815260200190815260200160002054610e489190613b98565b611b3f565b6001905092915050565b7f65d7a28e3265b37a6474929f336521b332c1681b933f6cb9f3376673440d862a610e8981610e846118c1565b6118c9565b610e9161209a565b50565b610e9e828261213c565b5050565b610eb3610ead6118c1565b82611966565b50565b6000801b610ecb81610ec66118c1565b6118c9565b610ef57f92de27771f92d6942691d73358b3a4673e4880de8356f8f2cf452be87e02d36383610cf5565b5050565b7f5edc4fd0544f0b4b53f14f295fb04bbd6fdbc1bea1fd8edf5851b385aee145d581565b6000609760009054906101000a900460ff16905090565b7f9f2df0fed2c77648de5860a4cc508cd0818c85b8b8a1ab4ceeef8d981c8956a6610f6681610f616118c1565b6118c9565b610f907fa5a0b70b385ff7611cd3840916bd08b10829e5bf9e6637cf79dd9a427fc0e2ab84611377565b610fcf576040517f08c379a0000000000000000000000000000000000000000000000000000000008152600401610fc690613c3a565b60405180910390fd5b610fd9838361213c565b505050565b6000801b610ff381610fee6118c1565b6118c9565b61101d7f65d7a28e3265b37a6474929f336521b332c1681b933f6cb9f3376673440d862a83611670565b5050565b6000801b611036816110316118c1565b6118c9565b6110436000801b83610cf5565b5050565b6000603360008373ffffffffffffffffffffffffffffffffffffffff1673ffffffffffffffffffffffffffffffffffffffff168152602001908152602001600020549050919050565b60006110a38361109e6118c1565b6116d5565b9050818110156110e8576040517f08c379a00000000000000000000000000000000000000000000000000000000081526004016110df90613ccc565b60405180910390fd5b6110fc836110f46118c1565b848403611b3f565b6111068383611966565b505050565b600060019054906101000a900460ff1680611131575060008054906101000a900460ff16155b611170576040517f08c379a000000000000000000000000000000000000000000000000000000000815260040161116790613d5e565b60405180910390fd5b60008060019054906101000a900460ff1615905080156111c0576001600060016101000a81548160ff02191690831515021790555060016000806101000a81548160ff0219169083151502179055505b6112346040518060400160405280600981526020017f4d45544c20436f696e00000000000000000000000000000000000000000000008152506040518060400160405280600481526020017f4d45544c0000000000000000000000000000000000000000000000000000000081525061229d565b61123c61238a565b611244612473565b61124c61255c565b6112596000801b3361264d565b6112a37f5edc4fd0544f0b4b53f14f295fb04bbd6fdbc1bea1fd8edf5851b385aee145d57f92de27771f92d6942691d73358b3a4673e4880de8356f8f2cf452be87e02d363612682565b80156112c45760008060016101000a81548160ff0219169083151502179055505b50565b6000801b6112dc816112d76118c1565b6118c9565b6113067f65d7a28e3265b37a6474929f336521b332c1681b933f6cb9f3376673440d862a83610cf5565b5050565b7f65d7a28e3265b37a6474929f336521b332c1681b933f6cb9f3376673440d862a61133c816113376118c1565b6118c9565b6113446126de565b50565b600061136f8261012d600086815260200190815260200160002061278190919063ffffffff16565b905092915050565b600060fb600084815260200190815260200160002060000160008373ffffffffffffffffffffffffffffffffffffffff1673ffffffffffffffffffffffffffffffffffffffff16815260200190815260200160002060009054906101000a900460ff16905092915050565b6060603780546113f190613aa5565b80601f016020809104026020016040519081016040528092919081815260200182805461141d90613aa5565b801561146a5780601f1061143f5761010080835404028352916020019161146a565b820191906000526020600020905b81548152906001019060200180831161144d57829003601f168201915b5050505050905090565b6000801b611489816114846118c1565b6118c9565b6114b37f9f2df0fed2c77648de5860a4cc508cd0818c85b8b8a1ab4ceeef8d981c8956a683610cf5565b5050565b6000801b81565b600080603460006114cd6118c1565b73ffffffffffffffffffffffffffffffffffffffff1673ffffffffffffffffffffffffffffffffffffffff16815260200190815260200160002060008573ffffffffffffffffffffffffffffffffffffffff1673ffffffffffffffffffffffffffffffffffffffff1681526020019081526020016000205490508281101561158a576040517f08c379a000000000000000000000000000000000000000000000000000000000815260040161158190613df0565b60405180910390fd5b61159e6115956118c1565b85858403611b3f565b600191505092915050565b60006115bd6115b66118c1565b8484611d0a565b6001905092915050565b60006115e561012d600084815260200190815260200160002061279b565b9050919050565b7f92de27771f92d6942691d73358b3a4673e4880de8356f8f2cf452be87e02d36361161e816116196118c1565b6118c9565b6116487f5edc4fd0544f0b4b53f14f295fb04bbd6fdbc1bea1fd8edf5851b385aee145d583611670565b5050565b7f9f2df0fed2c77648de5860a4cc508cd0818c85b8b8a1ab4ceeef8d981c8956a681565b6000801b8214156116c7576001611686836115c7565b116116c6576040517f08c379a00000000000000000000000000000000000000000000000000000000081526004016116bd90613e5c565b60405180910390fd5b5b6116d182826127b0565b5050565b6000603460008473ffffffffffffffffffffffffffffffffffffffff1673ffffffffffffffffffffffffffffffffffffffff16815260200190815260200160002060008373ffffffffffffffffffffffffffffffffffffffff1673ffffffffffffffffffffffffffffffffffffffff16815260200190815260200160002054905092915050565b7f92de27771f92d6942691d73358b3a4673e4880de8356f8f2cf452be87e02d36361178e816117896118c1565b6118c9565b6117b87f5edc4fd0544f0b4b53f14f295fb04bbd6fdbc1bea1fd8edf5851b385aee145d583610cf5565b5050565b7fa5a0b70b385ff7611cd3840916bd08b10829e5bf9e6637cf79dd9a427fc0e2ab81565b7f65d7a28e3265b37a6474929f336521b332c1681b933f6cb9f3376673440d862a81565b6000801b611819816118146118c1565b6118c9565b6118437f3c11d16cbaffd01df69ce1c404f6340ee057498f5f00246190ea54220576a84883610cf5565b5050565b60007f7965db0b000000000000000000000000000000000000000000000000000000007bffffffffffffffffffffffffffffffffffffffffffffffffffffffff1916827bffffffffffffffffffffffffffffffffffffffffffffffffffffffff191614806118ba57506118b9826127e5565b5b9050919050565b600033905090565b6118d38282611377565b611962576118f88173ffffffffffffffffffffffffffffffffffffffff16601461284f565b6119068360001c602061284f565b604051602001611917929190613f50565b6040516020818303038152906040526040517f08c379a000000000000000000000000000000000000000000000000000000000815260040161195991906137ba565b60405180910390fd5b5050565b600073ffffffffffffffffffffffffffffffffffffffff168273ffffffffffffffffffffffffffffffffffffffff1614156119d6576040517f08c379a00000000000000000000000000000000000000000000000000000000081526004016119cd90613ffc565b60405180910390fd5b6119e282600083612a8b565b6000603360008473ffffffffffffffffffffffffffffffffffffffff1673ffffffffffffffffffffffffffffffffffffffff16815260200190815260200160002054905081811015611a69576040517f08c379a0000000000000000000000000000000000000000000000000000000008152600401611a609061408e565b60405180910390fd5b818103603360008573ffffffffffffffffffffffffffffffffffffffff1673ffffffffffffffffffffffffffffffffffffffff168152602001908152602001600020819055508160356000828254611ac191906140ae565b92505081905550600073ffffffffffffffffffffffffffffffffffffffff168373ffffffffffffffffffffffffffffffffffffffff167fddf252ad1be2c89b69c2b068fc378daa952ba7f163c4a11628f55a4df523b3ef84604051611b269190613861565b60405180910390a3611b3a83600084612bb7565b505050565b600073ffffffffffffffffffffffffffffffffffffffff168373ffffffffffffffffffffffffffffffffffffffff161415611baf576040517f08c379a0000000000000000000000000000000000000000000000000000000008152600401611ba690614154565b60405180910390fd5b600073ffffffffffffffffffffffffffffffffffffffff168273ffffffffffffffffffffffffffffffffffffffff161415611c1f576040517f08c379a0000000000000000000000000000000000000000000000000000000008152600401611c16906141e6565b60405180910390fd5b80603460008573ffffffffffffffffffffffffffffffffffffffff1673ffffffffffffffffffffffffffffffffffffffff16815260200190815260200160002060008473ffffffffffffffffffffffffffffffffffffffff1673ffffffffffffffffffffffffffffffffffffffff168152602001908152602001600020819055508173ffffffffffffffffffffffffffffffffffffffff168373ffffffffffffffffffffffffffffffffffffffff167f8c5be1e5ebec7d5bd14f71427d1e84f3dd0314c0f7b2291e5b200ac8c7c3b92583604051611cfd9190613861565b60405180910390a3505050565b600073ffffffffffffffffffffffffffffffffffffffff168373ffffffffffffffffffffffffffffffffffffffff161415611d7a576040517f08c379a0000000000000000000000000000000000000000000000000000000008152600401611d7190614278565b60405180910390fd5b600073ffffffffffffffffffffffffffffffffffffffff168273ffffffffffffffffffffffffffffffffffffffff161415611dea576040517f08c379a0000000000000000000000000000000000000000000000000000000008152600401611de19061430a565b60405180910390fd5b611df5838383612a8b565b6000603360008573ffffffffffffffffffffffffffffffffffffffff1673ffffffffffffffffffffffffffffffffffffffff16815260200190815260200160002054905081811015611e7c576040517f08c379a0000000000000000000000000000000000000000000000000000000008152600401611e739061439c565b60405180910390fd5b818103603360008673ffffffffffffffffffffffffffffffffffffffff1673ffffffffffffffffffffffffffffffffffffffff1681526020019081526020016000208190555081603360008573ffffffffffffffffffffffffffffffffffffffff1673ffffffffffffffffffffffffffffffffffffffff1681526020019081526020016000206000828254611f119190613b98565b925050819055508273ffffffffffffffffffffffffffffffffffffffff168473ffffffffffffffffffffffffffffffffffffffff167fddf252ad1be2c89b69c2b068fc378daa952ba7f163c4a11628f55a4df523b3ef84604051611f759190613861565b60405180910390a3611f88848484612bb7565b50505050565b611f9782610c2b565b611fa881611fa36118c1565b6118c9565b611fb28383612bbc565b505050565b6000611fdf836000018373ffffffffffffffffffffffffffffffffffffffff1660001b612c9d565b905092915050565b611fef6118c1565b73ffffffffffffffffffffffffffffffffffffffff168173ffffffffffffffffffffffffffffffffffffffff161461205c576040517f08c379a00000000000000000000000000000000000000000000000000000000081526004016120539061442e565b60405180910390fd5b6120668282612d0d565b5050565b6000612092836000018373ffffffffffffffffffffffffffffffffffffffff1660001b612def565b905092915050565b6120a2610f1d565b6120e1576040517f08c379a00000000000000000000000000000000000000000000000000000000081526004016120d89061449a565b60405180910390fd5b6000609760006101000a81548160ff0219169083151502179055507f5db9ee0a495bf2e6ff9c91a7834c1ba4fdd244a5e8aa4e537bd38aeae4b073aa6121256118c1565b6040516121329190613a1b565b60405180910390a1565b600073ffffffffffffffffffffffffffffffffffffffff168273ffffffffffffffffffffffffffffffffffffffff1614156121ac576040517f08c379a00000000000000000000000000000000000000000000000000000000081526004016121a390614506565b60405180910390fd5b6121b860008383612a8b565b80603560008282546121ca9190613b98565b9250508190555080603360008473ffffffffffffffffffffffffffffffffffffffff1673ffffffffffffffffffffffffffffffffffffffff16815260200190815260200160002060008282546122209190613b98565b925050819055508173ffffffffffffffffffffffffffffffffffffffff16600073ffffffffffffffffffffffffffffffffffffffff167fddf252ad1be2c89b69c2b068fc378daa952ba7f163c4a11628f55a4df523b3ef836040516122859190613861565b60405180910390a361229960008383612bb7565b5050565b600060019054906101000a900460ff16806122c3575060008054906101000a900460ff16155b612302576040517f08c379a00000000000000000000000000000000000000000000000000000000081526004016122f990613d5e565b60405180910390fd5b60008060019054906101000a900460ff161590508015612352576001600060016101000a81548160ff02191690831515021790555060016000806101000a81548160ff0219169083151502179055505b61235a612f03565b6123648383612fdc565b80156123855760008060016101000a81548160ff0219169083151502179055505b505050565b600060019054906101000a900460ff16806123b0575060008054906101000a900460ff16155b6123ef576040517f08c379a00000000000000000000000000000000000000000000000000000000081526004016123e690613d5e565b60405180910390fd5b60008060019054906101000a900460ff16159050801561243f576001600060016101000a81548160ff02191690831515021790555060016000806101000a81548160ff0219169083151502179055505b612447612f03565b61244f6130e5565b80156124705760008060016101000a81548160ff0219169083151502179055505b50565b600060019054906101000a900460ff1680612499575060008054906101000a900460ff16155b6124d8576040517f08c379a00000000000000000000000000000000000000000000000000000000081526004016124cf90613d5e565b60405180910390fd5b60008060019054906101000a900460ff161590508015612528576001600060016101000a81548160ff02191690831515021790555060016000806101000a81548160ff0219169083151502179055505b612530612f03565b6125386131be565b80156125595760008060016101000a81548160ff0219169083151502179055505b50565b600060019054906101000a900460ff1680612582575060008054906101000a900460ff16155b6125c1576040517f08c379a00000000000000000000000000000000000000000000000000000000081526004016125b890613d5e565b60405180910390fd5b60008060019054906101000a900460ff161590508015612611576001600060016101000a81548160ff02191690831515021790555060016000806101000a81548160ff0219169083151502179055505b612619612f03565b6126216132b2565b61262961338b565b801561264a5760008060016101000a81548160ff0219169083151502179055505b50565b6126578282613464565b61267d8161012d6000858152602001908152602001600020611fb790919063ffffffff16565b505050565b600061268d83610c2b565b90508160fb6000858152602001908152602001600020600101819055508181847fbd79b86ffe0ab8e8776151514217cd7cacd52c909f66475c3af44e129f0b00ff60405160405180910390a4505050565b6126e6610f1d565b15612726576040517f08c379a000000000000000000000000000000000000000000000000000000000815260040161271d90614572565b60405180910390fd5b6001609760006101000a81548160ff0219169083151502179055507f62e78cea01bee320cd4e420270b5ea74000d11b0c9f74754ebdbfc544b05a25861276a6118c1565b6040516127779190613a1b565b60405180910390a1565b60006127908360000183613472565b60001c905092915050565b60006127a98260000161349d565b9050919050565b6127ba82826134ae565b6127e08161012d600085815260200190815260200160002061206a90919063ffffffff16565b505050565b60007f01ffc9a7000000000000000000000000000000000000000000000000000000007bffffffffffffffffffffffffffffffffffffffffffffffffffffffff1916827bffffffffffffffffffffffffffffffffffffffffffffffffffffffff1916149050919050565b6060600060028360026128629190614592565b61286c9190613b98565b67ffffffffffffffff811115612885576128846145ec565b5b6040519080825280601f01601f1916602001820160405280156128b75781602001600182028036833780820191505090505b5090507f3000000000000000000000000000000000000000000000000000000000000000816000815181106128ef576128ee61461b565b5b60200101907effffffffffffffffffffffffffffffffffffffffffffffffffffffffffffff1916908160001a9053507f7800000000000000000000000000000000000000000000000000000000000000816001815181106129535761295261461b565b5b60200101907effffffffffffffffffffffffffffffffffffffffffffffffffffffffffffff1916908160001a905350600060018460026129939190614592565b61299d9190613b98565b90505b6001811115612a3d577f3031323334353637383961626364656600000000000000000000000000000000600f8616601081106129df576129de61461b565b5b1a60f81b8282815181106129f6576129f561461b565b5b60200101907effffffffffffffffffffffffffffffffffffffffffffffffffffffffffffff1916908160001a905350600485901c945080612a369061464a565b90506129a0565b5060008414612a81576040517f08c379a0000000000000000000000000000000000000000000000000000000008152600401612a78906146c0565b60405180910390fd5b8091505092915050565b612a93610f1d565b15612ad3576040517f08c379a0000000000000000000000000000000000000000000000000000000008152600401612aca90614572565b60405180910390fd5b612afd7f5edc4fd0544f0b4b53f14f295fb04bbd6fdbc1bea1fd8edf5851b385aee145d584611377565b15612b3d576040517f08c379a0000000000000000000000000000000000000000000000000000000008152600401612b349061472c565b60405180910390fd5b612b677f5edc4fd0544f0b4b53f14f295fb04bbd6fdbc1bea1fd8edf5851b385aee145d583611377565b15612ba7576040517f08c379a0000000000000000000000000000000000000000000000000000000008152600401612b9e90614798565b60405180910390fd5b612bb28383836134d7565b505050565b505050565b612bc68282611377565b612c9957600160fb600084815260200190815260200160002060000160008373ffffffffffffffffffffffffffffffffffffffff1673ffffffffffffffffffffffffffffffffffffffff16815260200190815260200160002060006101000a81548160ff021916908315150217905550612c3e6118c1565b73ffffffffffffffffffffffffffffffffffffffff168173ffffffffffffffffffffffffffffffffffffffff16837f2f8788117e7eff1d82e926ec794901d17c78024a50270940304540a733656f0d60405160405180910390a45b5050565b6000612ca983836134dc565b612d02578260000182908060018154018082558091505060019003906000526020600020016000909190919091505582600001805490508360010160008481526020019081526020016000208190555060019050612d07565b600090505b92915050565b612d178282611377565b15612deb57600060fb600084815260200190815260200160002060000160008373ffffffffffffffffffffffffffffffffffffffff1673ffffffffffffffffffffffffffffffffffffffff16815260200190815260200160002060006101000a81548160ff021916908315150217905550612d906118c1565b73ffffffffffffffffffffffffffffffffffffffff168173ffffffffffffffffffffffffffffffffffffffff16837ff6391f5c32d9c69d2a47ea670b442974b53935d1edc7fd64eb21e047a839171b60405160405180910390a45b5050565b60008083600101600084815260200190815260200160002054905060008114612ef7576000600182612e2191906140ae565b9050600060018660000180549050612e3991906140ae565b9050818114612ea8576000866000018281548110612e5a57612e5961461b565b5b9060005260206000200154905080876000018481548110612e7e57612e7d61461b565b5b90600052602060002001819055508387600101600083815260200190815260200160002081905550505b85600001805480612ebc57612ebb6147b8565b5b600190038181906000526020600020016000905590558560010160008681526020019081526020016000206000905560019350505050612efd565b60009150505b92915050565b600060019054906101000a900460ff1680612f29575060008054906101000a900460ff16155b612f68576040517f08c379a0000000000000000000000000000000000000000000000000000000008152600401612f5f90613d5e565b60405180910390fd5b60008060019054906101000a900460ff161590508015612fb8576001600060016101000a81548160ff02191690831515021790555060016000806101000a81548160ff0219169083151502179055505b8015612fd95760008060016101000a81548160ff0219169083151502179055505b50565b600060019054906101000a900460ff1680613002575060008054906101000a900460ff16155b613041576040517f08c379a000000000000000000000000000000000000000000000000000000000815260040161303890613d5e565b60405180910390fd5b60008060019054906101000a900460ff161590508015613091576001600060016101000a81548160ff02191690831515021790555060016000806101000a81548160ff0219169083151502179055505b82603690805190602001906130a79291906134ff565b5081603790805190602001906130be9291906134ff565b5080156130e05760008060016101000a81548160ff0219169083151502179055505b505050565b600060019054906101000a900460ff168061310b575060008054906101000a900460ff16155b61314a576040517f08c379a000000000000000000000000000000000000000000000000000000000815260040161314190613d5e565b60405180910390fd5b60008060019054906101000a900460ff16159050801561319a576001600060016101000a81548160ff02191690831515021790555060016000806101000a81548160ff0219169083151502179055505b80156131bb5760008060016101000a81548160ff0219169083151502179055505b50565b600060019054906101000a900460ff16806131e4575060008054906101000a900460ff16155b613223576040517f08c379a000000000000000000000000000000000000000000000000000000000815260040161321a90613d5e565b60405180910390fd5b60008060019054906101000a900460ff161590508015613273576001600060016101000a81548160ff02191690831515021790555060016000806101000a81548160ff0219169083151502179055505b6000609760006101000a81548160ff02191690831515021790555080156132af5760008060016101000a81548160ff0219169083151502179055505b50565b600060019054906101000a900460ff16806132d8575060008054906101000a900460ff16155b613317576040517f08c379a000000000000000000000000000000000000000000000000000000000815260040161330e90613d5e565b60405180910390fd5b60008060019054906101000a900460ff161590508015613367576001600060016101000a81548160ff02191690831515021790555060016000806101000a81548160ff0219169083151502179055505b80156133885760008060016101000a81548160ff0219169083151502179055505b50565b600060019054906101000a900460ff16806133b1575060008054906101000a900460ff16155b6133f0576040517f08c379a00000000000000000000000000000000000000000000000000000000081526004016133e790613d5e565b60405180910390fd5b60008060019054906101000a900460ff161590508015613440576001600060016101000a81548160ff02191690831515021790555060016000806101000a81548160ff0219169083151502179055505b80156134615760008060016101000a81548160ff0219169083151502179055505b50565b61346e8282612bbc565b5050565b600082600001828154811061348a5761348961461b565b5b9060005260206000200154905092915050565b600081600001805490509050919050565b6134b782610c2b565b6134c8816134c36118c1565b6118c9565b6134d28383612d0d565b505050565b505050565b600080836001016000848152602001908152602001600020541415905092915050565b82805461350b90613aa5565b90600052602060002090601f01602090048101928261352d5760008555613574565b82601f1061354657805160ff1916838001178555613574565b82800160010185558215613574579182015b82811115613573578251825591602001919060010190613558565b5b5090506135819190613585565b5090565b5b8082111561359e576000816000905550600101613586565b5090565b600080fd5b60007fffffffff0000000000000000000000000000000000000000000000000000000082169050919050565b6135dc816135a7565b81146135e757600080fd5b50565b6000813590506135f9816135d3565b92915050565b600060208284031215613615576136146135a2565b5b6000613623848285016135ea565b91505092915050565b60008115159050919050565b6136418161362c565b82525050565b600060208201905061365c6000830184613638565b92915050565b600073ffffffffffffffffffffffffffffffffffffffff82169050919050565b600061368d82613662565b9050919050565b61369d81613682565b81146136a857600080fd5b50565b6000813590506136ba81613694565b92915050565b6000602082840312156136d6576136d56135a2565b5b60006136e4848285016136ab565b91505092915050565b6000819050919050565b613700816136ed565b82525050565b600060208201905061371b60008301846136f7565b92915050565b600081519050919050565b600082825260208201905092915050565b60005b8381101561375b578082015181840152602081019050613740565b8381111561376a576000848401525b50505050565b6000601f19601f8301169050919050565b600061378c82613721565b613796818561372c565b93506137a681856020860161373d565b6137af81613770565b840191505092915050565b600060208201905081810360008301526137d48184613781565b905092915050565b6000819050919050565b6137ef816137dc565b81146137fa57600080fd5b50565b60008135905061380c816137e6565b92915050565b60008060408385031215613829576138286135a2565b5b6000613837858286016136ab565b9250506020613848858286016137fd565b9150509250929050565b61385b816137dc565b82525050565b60006020820190506138766000830184613852565b92915050565b600080600060608486031215613895576138946135a2565b5b60006138a3868287016136ab565b93505060206138b4868287016136ab565b92505060406138c5868287016137fd565b9150509250925092565b6138d8816136ed565b81146138e357600080fd5b50565b6000813590506138f5816138cf565b92915050565b600060208284031215613911576139106135a2565b5b600061391f848285016138e6565b91505092915050565b6000806040838503121561393f5761393e6135a2565b5b600061394d858286016138e6565b925050602061395e858286016136ab565b9150509250929050565b600060ff82169050919050565b61397e81613968565b82525050565b60006020820190506139996000830184613975565b92915050565b6000602082840312156139b5576139b46135a2565b5b60006139c3848285016137fd565b91505092915050565b600080604083850312156139e3576139e26135a2565b5b60006139f1858286016138e6565b9250506020613a02858286016137fd565b9150509250929050565b613a1581613682565b82525050565b6000602082019050613a306000830184613a0c565b92915050565b60008060408385031215613a4d57613a4c6135a2565b5b6000613a5b858286016136ab565b9250506020613a6c858286016136ab565b9150509250929050565b7f4e487b7100000000000000000000000000000000000000000000000000000000600052602260045260246000fd5b60006002820490506001821680613abd57607f821691505b60208210811415613ad157613ad0613a76565b5b50919050565b7f45524332303a207472616e7366657220616d6f756e742065786365656473206160008201527f6c6c6f77616e6365000000000000000000000000000000000000000000000000602082015250565b6000613b3360288361372c565b9150613b3e82613ad7565b604082019050919050565b60006020820190508181036000830152613b6281613b26565b9050919050565b7f4e487b7100000000000000000000000000000000000000000000000000000000600052601160045260246000fd5b6000613ba3826137dc565b9150613bae836137dc565b9250827fffffffffffffffffffffffffffffffffffffffffffffffffffffffffffffffff03821115613be357613be2613b69565b5b828201905092915050565b7f526563697069656e74206d7573742062652077686974656c69737465642e0000600082015250565b6000613c24601e8361372c565b9150613c2f82613bee565b602082019050919050565b60006020820190508181036000830152613c5381613c17565b9050919050565b7f45524332303a206275726e20616d6f756e74206578636565647320616c6c6f7760008201527f616e636500000000000000000000000000000000000000000000000000000000602082015250565b6000613cb660248361372c565b9150613cc182613c5a565b604082019050919050565b60006020820190508181036000830152613ce581613ca9565b9050919050565b7f496e697469616c697a61626c653a20636f6e747261637420697320616c72656160008201527f647920696e697469616c697a6564000000000000000000000000000000000000602082015250565b6000613d48602e8361372c565b9150613d5382613cec565b604082019050919050565b60006020820190508181036000830152613d7781613d3b565b9050919050565b7f45524332303a2064656372656173656420616c6c6f77616e63652062656c6f7760008201527f207a65726f000000000000000000000000000000000000000000000000000000602082015250565b6000613dda60258361372c565b9150613de582613d7e565b604082019050919050565b60006020820190508181036000830152613e0981613dcd565b9050919050565b7f436f6e7472616374207265717569726573206f6e652061646d696e0000000000600082015250565b6000613e46601b8361372c565b9150613e5182613e10565b602082019050919050565b60006020820190508181036000830152613e7581613e39565b9050919050565b600081905092915050565b7f416363657373436f6e74726f6c3a206163636f756e7420000000000000000000600082015250565b6000613ebd601783613e7c565b9150613ec882613e87565b601782019050919050565b6000613ede82613721565b613ee88185613e7c565b9350613ef881856020860161373d565b80840191505092915050565b7f206973206d697373696e6720726f6c6520000000000000000000000000000000600082015250565b6000613f3a601183613e7c565b9150613f4582613f04565b601182019050919050565b6000613f5b82613eb0565b9150613f678285613ed3565b9150613f7282613f2d565b9150613f7e8284613ed3565b91508190509392505050565b7f45524332303a206275726e2066726f6d20746865207a65726f2061646472657360008201527f7300000000000000000000000000000000000000000000000000000000000000602082015250565b6000613fe660218361372c565b9150613ff182613f8a565b604082019050919050565b6000602082019050818103600083015261401581613fd9565b9050919050565b7f45524332303a206275726e20616d6f756e7420657863656564732062616c616e60008201527f6365000000000000000000000000000000000000000000000000000000000000602082015250565b600061407860228361372c565b91506140838261401c565b604082019050919050565b600060208201905081810360008301526140a78161406b565b9050919050565b60006140b9826137dc565b91506140c4836137dc565b9250828210156140d7576140d6613b69565b5b828203905092915050565b7f45524332303a20617070726f76652066726f6d20746865207a65726f2061646460008201527f7265737300000000000000000000000000000000000000000000000000000000602082015250565b600061413e60248361372c565b9150614149826140e2565b604082019050919050565b6000602082019050818103600083015261416d81614131565b9050919050565b7f45524332303a20617070726f766520746f20746865207a65726f20616464726560008201527f7373000000000000000000000000000000000000000000000000000000000000602082015250565b60006141d060228361372c565b91506141db82614174565b604082019050919050565b600060208201905081810360008301526141ff816141c3565b9050919050565b7f45524332303a207472616e736665722066726f6d20746865207a65726f20616460008201527f6472657373000000000000000000000000000000000000000000000000000000602082015250565b600061426260258361372c565b915061426d82614206565b604082019050919050565b6000602082019050818103600083015261429181614255565b9050919050565b7f45524332303a207472616e7366657220746f20746865207a65726f206164647260008201527f6573730000000000000000000000000000000000000000000000000000000000602082015250565b60006142f460238361372c565b91506142ff82614298565b604082019050919050565b60006020820190508181036000830152614323816142e7565b9050919050565b7f45524332303a207472616e7366657220616d6f756e742065786365656473206260008201527f616c616e63650000000000000000000000000000000000000000000000000000602082015250565b600061438660268361372c565b91506143918261432a565b604082019050919050565b600060208201905081810360008301526143b581614379565b9050919050565b7f416363657373436f6e74726f6c3a2063616e206f6e6c792072656e6f756e636560008201527f20726f6c657320666f722073656c660000000000000000000000000000000000602082015250565b6000614418602f8361372c565b9150614423826143bc565b604082019050919050565b600060208201905081810360008301526144478161440b565b9050919050565b7f5061757361626c653a206e6f7420706175736564000000000000000000000000600082015250565b600061448460148361372c565b915061448f8261444e565b602082019050919050565b600060208201905081810360008301526144b381614477565b9050919050565b7f45524332303a206d696e7420746f20746865207a65726f206164647265737300600082015250565b60006144f0601f8361372c565b91506144fb826144ba565b602082019050919050565b6000602082019050818103600083015261451f816144e3565b9050919050565b7f5061757361626c653a2070617573656400000000000000000000000000000000600082015250565b600061455c60108361372c565b915061456782614526565b602082019050919050565b6000602082019050818103600083015261458b8161454f565b9050919050565b600061459d826137dc565b91506145a8836137dc565b9250817fffffffffffffffffffffffffffffffffffffffffffffffffffffffffffffffff04831182151516156145e1576145e0613b69565b5b828202905092915050565b7f4e487b7100000000000000000000000000000000000000000000000000000000600052604160045260246000fd5b7f4e487b7100000000000000000000000000000000000000000000000000000000600052603260045260246000fd5b6000614655826137dc565b9150600082141561466957614668613b69565b5b600182039050919050565b7f537472696e67733a20686578206c656e67746820696e73756666696369656e74600082015250565b60006146aa60208361372c565b91506146b582614674565b602082019050919050565b600060208201905081810360008301526146d98161469d565b9050919050565b7f53656e6465722069732063757272656e746c792066726f7a656e2e0000000000600082015250565b6000614716601b8361372c565b9150614721826146e0565b602082019050919050565b6000602082019050818103600083015261474581614709565b9050919050565b7f526563697069656e742069732063757272656e746c792066726f7a656e2e0000600082015250565b6000614782601e8361372c565b915061478d8261474c565b602082019050919050565b600060208201905081810360008301526147b181614775565b9050919050565b7f4e487b7100000000000000000000000000000000000000000000000000000000600052603160045260246000fdfea2646970667358221220252fd24a36bd866403129fc6a3bf359ec4f03efddfdd1c04db40baea8430b60d64736f6c634300080b0033",
  "linkReferences": {},
  "deployedLinkReferences": {}
}