{
  "_format": "hh-sol-artifact-1",
  "contractName": "METLv2",
  "sourceName": "contracts/METLv2Audited.sol",
  "abi": [
    {
      "anonymous": false,
      "inputs": [
        {
          "indexed": true,
          "internalType": "address",
          "name": "owner",
          "type": "address"
        },
        {
          "indexed": true,
          "internalType": "address",
          "name": "spender",
          "type": "address"
        },
        {
          "indexed": false,
          "internalType": "uint256",
          "name": "value",
          "type": "uint256"
        }
      ],
      "name": "Approval",
      "type": "event"
    },
    {
      "anonymous": false,
      "inputs": [
        {
          "indexed": false,
          "internalType": "address",
          "name": "account",
          "type": "address"
        }
      ],
      "name": "Paused",
      "type": "event"
    },
    {
      "anonymous": false,
      "inputs": [
        {
          "indexed": true,
          "internalType": "bytes32",
          "name": "role",
          "type": "bytes32"
        },
        {
          "indexed": true,
          "internalType": "bytes32",
          "name": "previousAdminRole",
          "type": "bytes32"
        },
        {
          "indexed": true,
          "internalType": "bytes32",
          "name": "newAdminRole",
          "type": "bytes32"
        }
      ],
      "name": "RoleAdminChanged",
      "type": "event"
    },
    {
      "anonymous": false,
      "inputs": [
        {
          "indexed": true,
          "internalType": "bytes32",
          "name": "role",
          "type": "bytes32"
        },
        {
          "indexed": true,
          "internalType": "address",
          "name": "account",
          "type": "address"
        },
        {
          "indexed": true,
          "internalType": "address",
          "name": "sender",
          "type": "address"
        }
      ],
      "name": "RoleGranted",
      "type": "event"
    },
    {
      "anonymous": false,
      "inputs": [
        {
          "indexed": true,
          "internalType": "bytes32",
          "name": "role",
          "type": "bytes32"
        },
        {
          "indexed": true,
          "internalType": "address",
          "name": "account",
          "type": "address"
        },
        {
          "indexed": true,
          "internalType": "address",
          "name": "sender",
          "type": "address"
        }
      ],
      "name": "RoleRevoked",
      "type": "event"
    },
    {
      "anonymous": false,
      "inputs": [
        {
          "indexed": true,
          "internalType": "address",
          "name": "from",
          "type": "address"
        },
        {
          "indexed": true,
          "internalType": "address",
          "name": "to",
          "type": "address"
        },
        {
          "indexed": false,
          "internalType": "uint256",
          "name": "value",
          "type": "uint256"
        }
      ],
      "name": "Transfer",
      "type": "event"
    },
    {
      "anonymous": false,
      "inputs": [
        {
          "indexed": false,
          "internalType": "address",
          "name": "account",
          "type": "address"
        }
      ],
      "name": "Unpaused",
      "type": "event"
    },
    {
      "inputs": [],
      "name": "BURNER_ROLE",
      "outputs": [
        {
          "internalType": "bytes32",
          "name": "",
          "type": "bytes32"
        }
      ],
      "stateMutability": "view",
      "type": "function"
    },
    {
      "inputs": [],
      "name": "DEFAULT_ADMIN_ROLE",
      "outputs": [
        {
          "internalType": "bytes32",
          "name": "",
          "type": "bytes32"
        }
      ],
      "stateMutability": "view",
      "type": "function"
    },
    {
      "inputs": [],
      "name": "FREEZER_ROLE",
      "outputs": [
        {
          "internalType": "bytes32",
          "name": "",
          "type": "bytes32"
        }
      ],
      "stateMutability": "view",
      "type": "function"
    },
    {
      "inputs": [],
      "name": "FROZEN_USER",
      "outputs": [
        {
          "internalType": "bytes32",
          "name": "",
          "type": "bytes32"
        }
      ],
      "stateMutability": "view",
      "type": "function"
    },
    {
      "inputs": [],
      "name": "MINTER_ROLE",
      "outputs": [
        {
          "internalType": "bytes32",
          "name": "",
          "type": "bytes32"
        }
      ],
      "stateMutability": "view",
      "type": "function"
    },
    {
      "inputs": [],
      "name": "MULTISIG_ROLE",
      "outputs": [
        {
          "internalType": "bytes32",
          "name": "",
          "type": "bytes32"
        }
      ],
      "stateMutability": "view",
      "type": "function"
    },
    {
      "inputs": [],
      "name": "PAUSER_ROLE",
      "outputs": [
        {
          "internalType": "bytes32",
          "name": "",
          "type": "bytes32"
        }
      ],
      "stateMutability": "view",
      "type": "function"
    },
    {
      "inputs": [
        {
          "internalType": "address",
          "name": "newAddress",
          "type": "address"
        }
      ],
      "name": "addAdmin",
      "outputs": [],
      "stateMutability": "nonpayable",
      "type": "function"
    },
    {
      "inputs": [
        {
          "internalType": "address",
          "name": "newAddress",
          "type": "address"
        }
      ],
      "name": "addBurner",
      "outputs": [],
      "stateMutability": "nonpayable",
      "type": "function"
    },
    {
      "inputs": [
        {
          "internalType": "address",
          "name": "newAddress",
          "type": "address"
        }
      ],
      "name": "addFreezer",
      "outputs": [],
      "stateMutability": "nonpayable",
      "type": "function"
    },
    {
      "inputs": [
        {
          "internalType": "address",
          "name": "newAddress",
          "type": "address"
        }
      ],
      "name": "addMinter",
      "outputs": [],
      "stateMutability": "nonpayable",
      "type": "function"
    },
    {
      "inputs": [
        {
          "internalType": "address",
          "name": "newAddress",
          "type": "address"
        }
      ],
      "name": "addMultisig",
      "outputs": [],
      "stateMutability": "nonpayable",
      "type": "function"
    },
    {
      "inputs": [
        {
          "internalType": "address",
          "name": "newAddress",
          "type": "address"
        }
      ],
      "name": "addPauser",
      "outputs": [],
      "stateMutability": "nonpayable",
      "type": "function"
    },
    {
      "inputs": [
        {
          "internalType": "address",
          "name": "owner",
          "type": "address"
        },
        {
          "internalType": "address",
          "name": "spender",
          "type": "address"
        }
      ],
      "name": "allowance",
      "outputs": [
        {
          "internalType": "uint256",
          "name": "",
          "type": "uint256"
        }
      ],
      "stateMutability": "view",
      "type": "function"
    },
    {
      "inputs": [
        {
          "internalType": "address",
          "name": "spender",
          "type": "address"
        },
        {
          "internalType": "uint256",
          "name": "amount",
          "type": "uint256"
        }
      ],
      "name": "approve",
      "outputs": [
        {
          "internalType": "bool",
          "name": "",
          "type": "bool"
        }
      ],
      "stateMutability": "nonpayable",
      "type": "function"
    },
    {
      "inputs": [
        {
          "internalType": "address",
          "name": "account",
          "type": "address"
        }
      ],
      "name": "balanceOf",
      "outputs": [
        {
          "internalType": "uint256",
          "name": "",
          "type": "uint256"
        }
      ],
      "stateMutability": "view",
      "type": "function"
    },
    {
      "inputs": [
        {
          "internalType": "address",
          "name": "target",
          "type": "address"
        },
        {
          "internalType": "uint256",
          "name": "amount",
          "type": "uint256"
        }
      ],
      "name": "bankBurn",
      "outputs": [],
      "stateMutability": "nonpayable",
      "type": "function"
    },
    {
      "inputs": [
        {
          "internalType": "address",
          "name": "recipient",
          "type": "address"
        },
        {
          "internalType": "uint256",
          "name": "amount",
          "type": "uint256"
        }
      ],
      "name": "bankMint",
      "outputs": [],
      "stateMutability": "nonpayable",
      "type": "function"
    },
    {
      "inputs": [
        {
          "internalType": "uint256",
          "name": "amount",
          "type": "uint256"
        }
      ],
      "name": "burn",
      "outputs": [],
      "stateMutability": "nonpayable",
      "type": "function"
    },
    {
      "inputs": [
        {
          "internalType": "address",
          "name": "account",
          "type": "address"
        },
        {
          "internalType": "uint256",
          "name": "amount",
          "type": "uint256"
        }
      ],
      "name": "burnFrom",
      "outputs": [],
      "stateMutability": "nonpayable",
      "type": "function"
    },
    {
      "inputs": [],
      "name": "decimals",
      "outputs": [
        {
          "internalType": "uint8",
          "name": "",
          "type": "uint8"
        }
      ],
      "stateMutability": "view",
      "type": "function"
    },
    {
      "inputs": [
        {
          "internalType": "address",
          "name": "spender",
          "type": "address"
        },
        {
          "internalType": "uint256",
          "name": "subtractedValue",
          "type": "uint256"
        }
      ],
      "name": "decreaseAllowance",
      "outputs": [
        {
          "internalType": "bool",
          "name": "",
          "type": "bool"
        }
      ],
      "stateMutability": "nonpayable",
      "type": "function"
    },
    {
      "inputs": [
        {
          "internalType": "address",
          "name": "newAddress",
          "type": "address"
        }
      ],
      "name": "freezeUser",
      "outputs": [],
      "stateMutability": "nonpayable",
      "type": "function"
    },
    {
      "inputs": [
        {
          "internalType": "bytes32",
          "name": "role",
          "type": "bytes32"
        }
      ],
      "name": "getRoleAdmin",
      "outputs": [
        {
          "internalType": "bytes32",
          "name": "",
          "type": "bytes32"
        }
      ],
      "stateMutability": "view",
      "type": "function"
    },
    {
      "inputs": [
        {
          "internalType": "bytes32",
          "name": "role",
          "type": "bytes32"
        },
        {
          "internalType": "uint256",
          "name": "index",
          "type": "uint256"
        }
      ],
      "name": "getRoleMember",
      "outputs": [
        {
          "internalType": "address",
          "name": "",
          "type": "address"
        }
      ],
      "stateMutability": "view",
      "type": "function"
    },
    {
      "inputs": [
        {
          "internalType": "bytes32",
          "name": "role",
          "type": "bytes32"
        }
      ],
      "name": "getRoleMemberCount",
      "outputs": [
        {
          "internalType": "uint256",
          "name": "",
          "type": "uint256"
        }
      ],
      "stateMutability": "view",
      "type": "function"
    },
    {
      "inputs": [
        {
          "internalType": "bytes32",
          "name": "role",
          "type": "bytes32"
        },
        {
          "internalType": "address",
          "name": "account",
          "type": "address"
        }
      ],
      "name": "grantRole",
      "outputs": [],
      "stateMutability": "nonpayable",
      "type": "function"
    },
    {
      "inputs": [
        {
          "internalType": "bytes32",
          "name": "role",
          "type": "bytes32"
        },
        {
          "internalType": "address",
          "name": "account",
          "type": "address"
        }
      ],
      "name": "hasRole",
      "outputs": [
        {
          "internalType": "bool",
          "name": "",
          "type": "bool"
        }
      ],
      "stateMutability": "view",
      "type": "function"
    },
    {
      "inputs": [
        {
          "internalType": "address",
          "name": "spender",
          "type": "address"
        },
        {
          "internalType": "uint256",
          "name": "addedValue",
          "type": "uint256"
        }
      ],
      "name": "increaseAllowance",
      "outputs": [
        {
          "internalType": "bool",
          "name": "",
          "type": "bool"
        }
      ],
      "stateMutability": "nonpayable",
      "type": "function"
    },
    {
      "inputs": [],
      "name": "initialize",
      "outputs": [],
      "stateMutability": "nonpayable",
      "type": "function"
    },
    {
      "inputs": [
        {
          "internalType": "address",
          "name": "recipient",
          "type": "address"
        },
        {
          "internalType": "uint256",
          "name": "amount",
          "type": "uint256"
        }
      ],
      "name": "mint",
      "outputs": [],
      "stateMutability": "nonpayable",
      "type": "function"
    },
    {
      "inputs": [],
      "name": "name",
      "outputs": [
        {
          "internalType": "string",
          "name": "",
          "type": "string"
        }
      ],
      "stateMutability": "view",
      "type": "function"
    },
    {
      "inputs": [],
      "name": "pause",
      "outputs": [],
      "stateMutability": "nonpayable",
      "type": "function"
    },
    {
      "inputs": [],
      "name": "paused",
      "outputs": [
        {
          "internalType": "bool",
          "name": "",
          "type": "bool"
        }
      ],
      "stateMutability": "view",
      "type": "function"
    },
    {
      "inputs": [
        {
          "internalType": "address",
          "name": "oldAddress",
          "type": "address"
        }
      ],
      "name": "removeAdmin",
      "outputs": [],
      "stateMutability": "nonpayable",
      "type": "function"
    },
    {
      "inputs": [
        {
          "internalType": "address",
          "name": "oldAddress",
          "type": "address"
        }
      ],
      "name": "removeBurner",
      "outputs": [],
      "stateMutability": "nonpayable",
      "type": "function"
    },
    {
      "inputs": [
        {
          "internalType": "address",
          "name": "oldAddress",
          "type": "address"
        }
      ],
      "name": "removeFreezer",
      "outputs": [],
      "stateMutability": "nonpayable",
      "type": "function"
    },
    {
      "inputs": [
        {
          "internalType": "address",
          "name": "oldAddress",
          "type": "address"
        }
      ],
      "name": "removeMinter",
      "outputs": [],
      "stateMutability": "nonpayable",
      "type": "function"
    },
    {
      "inputs": [
        {
          "internalType": "address",
          "name": "oldAddress",
          "type": "address"
        }
      ],
      "name": "removePauser",
      "outputs": [],
      "stateMutability": "nonpayable",
      "type": "function"
    },
    {
      "inputs": [
        {
          "internalType": "bytes32",
          "name": "role",
          "type": "bytes32"
        },
        {
          "internalType": "address",
          "name": "account",
          "type": "address"
        }
      ],
      "name": "renounceRole",
      "outputs": [],
      "stateMutability": "nonpayable",
      "type": "function"
    },
    {
      "inputs": [
        {
          "internalType": "address",
          "name": "oldAddress",
          "type": "address"
        }
      ],
      "name": "revokeMultisig",
      "outputs": [],
      "stateMutability": "nonpayable",
      "type": "function"
    },
    {
      "inputs": [
        {
          "internalType": "bytes32",
          "name": "role",
          "type": "bytes32"
        },
        {
          "internalType": "address",
          "name": "account",
          "type": "address"
        }
      ],
      "name": "revokeRole",
      "outputs": [],
      "stateMutability": "nonpayable",
      "type": "function"
    },
    {
      "inputs": [
        {
          "internalType": "bytes4",
          "name": "interfaceId",
          "type": "bytes4"
        }
      ],
      "name": "supportsInterface",
      "outputs": [
        {
          "internalType": "bool",
          "name": "",
          "type": "bool"
        }
      ],
      "stateMutability": "view",
      "type": "function"
    },
    {
      "inputs": [],
      "name": "symbol",
      "outputs": [
        {
          "internalType": "string",
          "name": "",
          "type": "string"
        }
      ],
      "stateMutability": "view",
      "type": "function"
    },
    {
      "inputs": [],
      "name": "totalSupply",
      "outputs": [
        {
          "internalType": "uint256",
          "name": "",
          "type": "uint256"
        }
      ],
      "stateMutability": "view",
      "type": "function"
    },
    {
      "inputs": [
        {
          "internalType": "address",
          "name": "to",
          "type": "address"
        },
        {
          "internalType": "uint256",
          "name": "amount",
          "type": "uint256"
        }
      ],
      "name": "transfer",
      "outputs": [
        {
          "internalType": "bool",
          "name": "",
          "type": "bool"
        }
      ],
      "stateMutability": "nonpayable",
      "type": "function"
    },
    {
      "inputs": [
        {
          "internalType": "address",
          "name": "from",
          "type": "address"
        },
        {
          "internalType": "address",
          "name": "to",
          "type": "address"
        },
        {
          "internalType": "uint256",
          "name": "amount",
          "type": "uint256"
        }
      ],
      "name": "transferFrom",
      "outputs": [
        {
          "internalType": "bool",
          "name": "",
          "type": "bool"
        }
      ],
      "stateMutability": "nonpayable",
      "type": "function"
    },
    {
      "inputs": [
        {
          "internalType": "address",
          "name": "oldAddress",
          "type": "address"
        }
      ],
      "name": "unfreezeUser",
      "outputs": [],
      "stateMutability": "nonpayable",
      "type": "function"
    },
    {
      "inputs": [],
      "name": "unpause",
      "outputs": [],
      "stateMutability": "nonpayable",
      "type": "function"
    }
  ],
  "bytecode": "0x608060405234801561001057600080fd5b5061406f806100206000396000f3fe608060405234801561001057600080fd5b50600436106102bb5760003560e01c80635c975abb11610182578063983b2d56116100e9578063d5391393116100a2578063e08ba51a1161007c578063e08ba51a1461087a578063e328400c14610896578063e63ab1e9146108b4578063f44637ba146108d2576102bb565b8063d539139314610810578063d547741f1461082e578063dd62ed3e1461084a576102bb565b8063983b2d561461072a578063a217fddf14610746578063a457c2d714610764578063a9059cbb14610794578063ca15c873146107c4578063cb4b73ab146107f4576102bb565b80638129fc1c1161013b5780638129fc1c1461067c57806382dc1ec4146106865780638456cb59146106a25780639010d07c146106ac57806391d14854146106dc57806395d89b411461070c576102bb565b80635c975abb146105be5780636476e301146105dc5780636b2c0f55146105f8578063704802751461061457806370a082311461063057806379cc679014610660576102bb565b80632a6b503d1161022657806339509351116101df57806339509351146105125780633f4ba83a1461054257806340c10f191461054c57806342966c6814610568578063526606c9146105845780635502f287146105a0576102bb565b80632a6b503d146104685780632acd2000146104845780632f2ff15d146104a05780633092afd5146104bc578063313ce567146104d857806336568abe146104f6576102bb565b80631785f53c116102785780631785f53c1461039457806318160ddd146103b05780631c130dfb146103ce57806323b872dd146103ea578063248a9ca31461041a578063282c51f31461044a576102bb565b806301ffc9a7146102c057806302846858146102f057806306a85f0f1461030c57806306fdde031461032a578063082a979014610348578063095ea7b314610364575b600080fd5b6102da60048036038101906102d59190612e77565b6108ee565b6040516102e79190612ebf565b60405180910390f35b61030a60048036038101906103059190612f38565b610968565b005b6103146109ab565b6040516103219190612f7e565b60405180910390f35b6103326109cf565b60405161033f9190613032565b60405180910390f35b610362600480360381019061035d919061308a565b610a61565b005b61037e6004803603810190610379919061308a565b610aa2565b60405161038b9190612ebf565b60405180910390f35b6103ae60048036038101906103a99190612f38565b610ac5565b005b6103b8610aeb565b6040516103c591906130d9565b60405180910390f35b6103e860048036038101906103e39190612f38565b610af5565b005b61040460048036038101906103ff91906130f4565b610b38565b6040516104119190612ebf565b60405180910390f35b610434600480360381019061042f9190613173565b610b67565b6040516104419190612f7e565b60405180910390f35b610452610b87565b60405161045f9190612f7e565b60405180910390f35b610482600480360381019061047d9190612f38565b610bab565b005b61049e60048036038101906104999190612f38565b610bee565b005b6104ba60048036038101906104b591906131a0565b610c31565b005b6104d660048036038101906104d19190612f38565b610c5a565b005b6104e0610c9d565b6040516104ed91906131fc565b60405180910390f35b610510600480360381019061050b91906131a0565b610ca6565b005b61052c6004803603810190610527919061308a565b610d29565b6040516105399190612ebf565b60405180910390f35b61054a610dd3565b005b6105666004803603810190610561919061308a565b610e10565b005b610582600480360381019061057d9190613217565b610e1e565b005b61059e60048036038101906105999190612f38565b610e32565b005b6105a8610e75565b6040516105b59190612f7e565b60405180910390f35b6105c6610e99565b6040516105d39190612ebf565b60405180910390f35b6105f660048036038101906105f1919061308a565b610eb0565b005b610612600480360381019061060d9190612f38565b610f5a565b005b61062e60048036038101906106299190612f38565b610f9d565b005b61064a60048036038101906106459190612f38565b610fc3565b60405161065791906130d9565b60405180910390f35b61067a6004803603810190610675919061308a565b61100c565b005b61068461102c565b005b6106a0600480360381019061069b9190612f38565b6111f3565b005b6106aa611236565b005b6106c660048036038101906106c19190613244565b611273565b6040516106d39190613293565b60405180910390f35b6106f660048036038101906106f191906131a0565b6112a3565b6040516107039190612ebf565b60405180910390f35b61071461130e565b6040516107219190613032565b60405180910390f35b610744600480360381019061073f9190612f38565b6113a0565b005b61074e6113e3565b60405161075b9190612f7e565b60405180910390f35b61077e6004803603810190610779919061308a565b6113ea565b60405161078b9190612ebf565b60405180910390f35b6107ae60048036038101906107a9919061308a565b6114d4565b6040516107bb9190612ebf565b60405180910390f35b6107de60048036038101906107d99190613173565b6114f7565b6040516107eb91906130d9565b60405180910390f35b61080e60048036038101906108099190612f38565b61151c565b005b61081861157c565b6040516108259190612f7e565b60405180910390f35b610848600480360381019061084391906131a0565b6115a0565b005b610864600480360381019061085f91906132ae565b611605565b60405161087191906130d9565b60405180910390f35b610894600480360381019061088f9190612f38565b61168c565b005b61089e6116ec565b6040516108ab9190612f7e565b60405180910390f35b6108bc611710565b6040516108c99190612f7e565b60405180910390f35b6108ec60048036038101906108e79190612f38565b611734565b005b60007f5a05180f000000000000000000000000000000000000000000000000000000007bffffffffffffffffffffffffffffffffffffffffffffffffffffffff1916827bffffffffffffffffffffffffffffffffffffffffffffffffffffffff19161480610961575061096082611777565b5b9050919050565b6000801b61097d816109786117f1565b6117f9565b6109a77f3c11d16cbaffd01df69ce1c404f6340ee057498f5f00246190ea54220576a848836115a0565b5050565b7f92de27771f92d6942691d73358b3a4673e4880de8356f8f2cf452be87e02d36381565b6060603680546109de9061331d565b80601f0160208091040260200160405190810160405280929190818152602001828054610a0a9061331d565b8015610a575780601f10610a2c57610100808354040283529160200191610a57565b820191906000526020600020905b815481529060010190602001808311610a3a57829003601f168201915b5050505050905090565b7f3c11d16cbaffd01df69ce1c404f6340ee057498f5f00246190ea54220576a848610a9381610a8e6117f1565b6117f9565b610a9d8383611896565b505050565b600080610aad6117f1565b9050610aba818585611a6f565b600191505092915050565b6000801b610ada81610ad56117f1565b6117f9565b610ae76000801b836115a0565b5050565b6000603554905090565b6000801b610b0a81610b056117f1565b6117f9565b610b347fa5a0b70b385ff7611cd3840916bd08b10829e5bf9e6637cf79dd9a427fc0e2ab83610c31565b5050565b600080610b436117f1565b9050610b50858285611c3a565b610b5b858585611cc6565b60019150509392505050565b600060fb6000838152602001908152602001600020600101549050919050565b7f3c11d16cbaffd01df69ce1c404f6340ee057498f5f00246190ea54220576a84881565b6000801b610bc081610bbb6117f1565b6117f9565b610bea7fa5a0b70b385ff7611cd3840916bd08b10829e5bf9e6637cf79dd9a427fc0e2ab836115a0565b5050565b6000801b610c0381610bfe6117f1565b6117f9565b610c2d7f92de27771f92d6942691d73358b3a4673e4880de8356f8f2cf452be87e02d363836115a0565b5050565b610c3a82610b67565b610c4b81610c466117f1565b6117f9565b610c558383611f4a565b505050565b6000801b610c6f81610c6a6117f1565b6117f9565b610c997f9f2df0fed2c77648de5860a4cc508cd0818c85b8b8a1ab4ceeef8d981c8956a6836115a0565b5050565b60006012905090565b610cae6117f1565b73ffffffffffffffffffffffffffffffffffffffff168173ffffffffffffffffffffffffffffffffffffffff1614610d1b576040517f08c379a0000000000000000000000000000000000000000000000000000000008152600401610d12906133c1565b60405180910390fd5b610d258282611f7f565b5050565b600080610d346117f1565b9050610dc8818585603460008673ffffffffffffffffffffffffffffffffffffffff1673ffffffffffffffffffffffffffffffffffffffff16815260200190815260200160002060008973ffffffffffffffffffffffffffffffffffffffff1673ffffffffffffffffffffffffffffffffffffffff16815260200190815260200160002054610dc39190613410565b611a6f565b600191505092915050565b7f65d7a28e3265b37a6474929f336521b332c1681b933f6cb9f3376673440d862a610e0581610e006117f1565b6117f9565b610e0d611fb4565b50565b610e1a8282612056565b5050565b610e2f610e296117f1565b82611896565b50565b6000801b610e4781610e426117f1565b6117f9565b610e717f92de27771f92d6942691d73358b3a4673e4880de8356f8f2cf452be87e02d36383610c31565b5050565b7f5edc4fd0544f0b4b53f14f295fb04bbd6fdbc1bea1fd8edf5851b385aee145d581565b6000609760009054906101000a900460ff16905090565b7f9f2df0fed2c77648de5860a4cc508cd0818c85b8b8a1ab4ceeef8d981c8956a6610ee281610edd6117f1565b6117f9565b610f0c7fa5a0b70b385ff7611cd3840916bd08b10829e5bf9e6637cf79dd9a427fc0e2ab846112a3565b610f4b576040517f08c379a0000000000000000000000000000000000000000000000000000000008152600401610f42906134b2565b60405180910390fd5b610f558383612056565b505050565b6000801b610f6f81610f6a6117f1565b6117f9565b610f997f65d7a28e3265b37a6474929f336521b332c1681b933f6cb9f3376673440d862a836115a0565b5050565b6000801b610fb281610fad6117f1565b6117f9565b610fbf6000801b83610c31565b5050565b6000603360008373ffffffffffffffffffffffffffffffffffffffff1673ffffffffffffffffffffffffffffffffffffffff168152602001908152602001600020549050919050565b61101e826110186117f1565b83611c3a565b6110288282611896565b5050565b600060019054906101000a900460ff166110545760008054906101000a900460ff161561105d565b61105c6121b7565b5b61109c576040517f08c379a000000000000000000000000000000000000000000000000000000000815260040161109390613544565b60405180910390fd5b60008060019054906101000a900460ff1615905080156110ec576001600060016101000a81548160ff02191690831515021790555060016000806101000a81548160ff0219169083151502179055505b6111606040518060400160405280600981526020017f4d45544c20436f696e00000000000000000000000000000000000000000000008152506040518060400160405280600481526020017f4d45544c000000000000000000000000000000000000000000000000000000008152506121c8565b611168612225565b611170612276565b6111786122cf565b6111856000801b33612320565b6111cf7f5edc4fd0544f0b4b53f14f295fb04bbd6fdbc1bea1fd8edf5851b385aee145d57f92de27771f92d6942691d73358b3a4673e4880de8356f8f2cf452be87e02d36361232e565b80156111f05760008060016101000a81548160ff0219169083151502179055505b50565b6000801b611208816112036117f1565b6117f9565b6112327f65d7a28e3265b37a6474929f336521b332c1681b933f6cb9f3376673440d862a83610c31565b5050565b7f65d7a28e3265b37a6474929f336521b332c1681b933f6cb9f3376673440d862a611268816112636117f1565b6117f9565b61127061238a565b50565b600061129b8261012d600086815260200190815260200160002061242d90919063ffffffff16565b905092915050565b600060fb600084815260200190815260200160002060000160008373ffffffffffffffffffffffffffffffffffffffff1673ffffffffffffffffffffffffffffffffffffffff16815260200190815260200160002060009054906101000a900460ff16905092915050565b60606037805461131d9061331d565b80601f01602080910402602001604051908101604052809291908181526020018280546113499061331d565b80156113965780601f1061136b57610100808354040283529160200191611396565b820191906000526020600020905b81548152906001019060200180831161137957829003601f168201915b5050505050905090565b6000801b6113b5816113b06117f1565b6117f9565b6113df7f9f2df0fed2c77648de5860a4cc508cd0818c85b8b8a1ab4ceeef8d981c8956a683610c31565b5050565b6000801b81565b6000806113f56117f1565b90506000603460008373ffffffffffffffffffffffffffffffffffffffff1673ffffffffffffffffffffffffffffffffffffffff16815260200190815260200160002060008673ffffffffffffffffffffffffffffffffffffffff1673ffffffffffffffffffffffffffffffffffffffff168152602001908152602001600020549050838110156114bb576040517f08c379a00000000000000000000000000000000000000000000000000000000081526004016114b2906135d6565b60405180910390fd5b6114c88286868403611a6f565b60019250505092915050565b6000806114df6117f1565b90506114ec818585611cc6565b600191505092915050565b600061151561012d6000848152602001908152602001600020612447565b9050919050565b7f92de27771f92d6942691d73358b3a4673e4880de8356f8f2cf452be87e02d36361154e816115496117f1565b6117f9565b6115787f5edc4fd0544f0b4b53f14f295fb04bbd6fdbc1bea1fd8edf5851b385aee145d5836115a0565b5050565b7f9f2df0fed2c77648de5860a4cc508cd0818c85b8b8a1ab4ceeef8d981c8956a681565b6000801b8214156115f75760016115b6836114f7565b116115f6576040517f08c379a00000000000000000000000000000000000000000000000000000000081526004016115ed90613642565b60405180910390fd5b5b611601828261245c565b5050565b6000603460008473ffffffffffffffffffffffffffffffffffffffff1673ffffffffffffffffffffffffffffffffffffffff16815260200190815260200160002060008373ffffffffffffffffffffffffffffffffffffffff1673ffffffffffffffffffffffffffffffffffffffff16815260200190815260200160002054905092915050565b7f92de27771f92d6942691d73358b3a4673e4880de8356f8f2cf452be87e02d3636116be816116b96117f1565b6117f9565b6116e87f5edc4fd0544f0b4b53f14f295fb04bbd6fdbc1bea1fd8edf5851b385aee145d583610c31565b5050565b7fa5a0b70b385ff7611cd3840916bd08b10829e5bf9e6637cf79dd9a427fc0e2ab81565b7f65d7a28e3265b37a6474929f336521b332c1681b933f6cb9f3376673440d862a81565b6000801b611749816117446117f1565b6117f9565b6117737f3c11d16cbaffd01df69ce1c404f6340ee057498f5f00246190ea54220576a84883610c31565b5050565b60007f7965db0b000000000000000000000000000000000000000000000000000000007bffffffffffffffffffffffffffffffffffffffffffffffffffffffff1916827bffffffffffffffffffffffffffffffffffffffffffffffffffffffff191614806117ea57506117e982612485565b5b9050919050565b600033905090565b61180382826112a3565b611892576118288173ffffffffffffffffffffffffffffffffffffffff1660146124ef565b6118368360001c60206124ef565b604051602001611847929190613736565b6040516020818303038152906040526040517f08c379a00000000000000000000000000000000000000000000000000000000081526004016118899190613032565b60405180910390fd5b5050565b600073ffffffffffffffffffffffffffffffffffffffff168273ffffffffffffffffffffffffffffffffffffffff161415611906576040517f08c379a00000000000000000000000000000000000000000000000000000000081526004016118fd906137e2565b60405180910390fd5b6119128260008361272b565b6000603360008473ffffffffffffffffffffffffffffffffffffffff1673ffffffffffffffffffffffffffffffffffffffff16815260200190815260200160002054905081811015611999576040517f08c379a000000000000000000000000000000000000000000000000000000000815260040161199090613874565b60405180910390fd5b818103603360008573ffffffffffffffffffffffffffffffffffffffff1673ffffffffffffffffffffffffffffffffffffffff1681526020019081526020016000208190555081603560008282546119f19190613894565b92505081905550600073ffffffffffffffffffffffffffffffffffffffff168373ffffffffffffffffffffffffffffffffffffffff167fddf252ad1be2c89b69c2b068fc378daa952ba7f163c4a11628f55a4df523b3ef84604051611a5691906130d9565b60405180910390a3611a6a83600084612857565b505050565b600073ffffffffffffffffffffffffffffffffffffffff168373ffffffffffffffffffffffffffffffffffffffff161415611adf576040517f08c379a0000000000000000000000000000000000000000000000000000000008152600401611ad69061393a565b60405180910390fd5b600073ffffffffffffffffffffffffffffffffffffffff168273ffffffffffffffffffffffffffffffffffffffff161415611b4f576040517f08c379a0000000000000000000000000000000000000000000000000000000008152600401611b46906139cc565b60405180910390fd5b80603460008573ffffffffffffffffffffffffffffffffffffffff1673ffffffffffffffffffffffffffffffffffffffff16815260200190815260200160002060008473ffffffffffffffffffffffffffffffffffffffff1673ffffffffffffffffffffffffffffffffffffffff168152602001908152602001600020819055508173ffffffffffffffffffffffffffffffffffffffff168373ffffffffffffffffffffffffffffffffffffffff167f8c5be1e5ebec7d5bd14f71427d1e84f3dd0314c0f7b2291e5b200ac8c7c3b92583604051611c2d91906130d9565b60405180910390a3505050565b6000611c468484611605565b90507fffffffffffffffffffffffffffffffffffffffffffffffffffffffffffffffff8114611cc05781811015611cb2576040517f08c379a0000000000000000000000000000000000000000000000000000000008152600401611ca990613a38565b60405180910390fd5b611cbf8484848403611a6f565b5b50505050565b600073ffffffffffffffffffffffffffffffffffffffff168373ffffffffffffffffffffffffffffffffffffffff161415611d36576040517f08c379a0000000000000000000000000000000000000000000000000000000008152600401611d2d90613aca565b60405180910390fd5b600073ffffffffffffffffffffffffffffffffffffffff168273ffffffffffffffffffffffffffffffffffffffff161415611da6576040517f08c379a0000000000000000000000000000000000000000000000000000000008152600401611d9d90613b5c565b60405180910390fd5b611db183838361272b565b6000603360008573ffffffffffffffffffffffffffffffffffffffff1673ffffffffffffffffffffffffffffffffffffffff16815260200190815260200160002054905081811015611e38576040517f08c379a0000000000000000000000000000000000000000000000000000000008152600401611e2f90613bee565b60405180910390fd5b818103603360008673ffffffffffffffffffffffffffffffffffffffff1673ffffffffffffffffffffffffffffffffffffffff1681526020019081526020016000208190555081603360008573ffffffffffffffffffffffffffffffffffffffff1673ffffffffffffffffffffffffffffffffffffffff1681526020019081526020016000206000828254611ecd9190613410565b925050819055508273ffffffffffffffffffffffffffffffffffffffff168473ffffffffffffffffffffffffffffffffffffffff167fddf252ad1be2c89b69c2b068fc378daa952ba7f163c4a11628f55a4df523b3ef84604051611f3191906130d9565b60405180910390a3611f44848484612857565b50505050565b611f54828261285c565b611f7a8161012d600085815260200190815260200160002061293d90919063ffffffff16565b505050565b611f89828261296d565b611faf8161012d6000858152602001908152602001600020612a4f90919063ffffffff16565b505050565b611fbc610e99565b611ffb576040517f08c379a0000000000000000000000000000000000000000000000000000000008152600401611ff290613c5a565b60405180910390fd5b6000609760006101000a81548160ff0219169083151502179055507f5db9ee0a495bf2e6ff9c91a7834c1ba4fdd244a5e8aa4e537bd38aeae4b073aa61203f6117f1565b60405161204c9190613293565b60405180910390a1565b600073ffffffffffffffffffffffffffffffffffffffff168273ffffffffffffffffffffffffffffffffffffffff1614156120c6576040517f08c379a00000000000000000000000000000000000000000000000000000000081526004016120bd90613cc6565b60405180910390fd5b6120d26000838361272b565b80603560008282546120e49190613410565b9250508190555080603360008473ffffffffffffffffffffffffffffffffffffffff1673ffffffffffffffffffffffffffffffffffffffff168152602001908152602001600020600082825461213a9190613410565b925050819055508173ffffffffffffffffffffffffffffffffffffffff16600073ffffffffffffffffffffffffffffffffffffffff167fddf252ad1be2c89b69c2b068fc378daa952ba7f163c4a11628f55a4df523b3ef8360405161219f91906130d9565b60405180910390a36121b360008383612857565b5050565b60006121c230612a7f565b15905090565b600060019054906101000a900460ff16612217576040517f08c379a000000000000000000000000000000000000000000000000000000000815260040161220e90613d58565b60405180910390fd5b6122218282612aa2565b5050565b600060019054906101000a900460ff16612274576040517f08c379a000000000000000000000000000000000000000000000000000000000815260040161226b90613d58565b60405180910390fd5b565b600060019054906101000a900460ff166122c5576040517f08c379a00000000000000000000000000000000000000000000000000000000081526004016122bc90613d58565b60405180910390fd5b6122cd612b23565b565b600060019054906101000a900460ff1661231e576040517f08c379a000000000000000000000000000000000000000000000000000000000815260040161231590613d58565b60405180910390fd5b565b61232a8282611f4a565b5050565b600061233983610b67565b90508160fb6000858152602001908152602001600020600101819055508181847fbd79b86ffe0ab8e8776151514217cd7cacd52c909f66475c3af44e129f0b00ff60405160405180910390a4505050565b612392610e99565b156123d2576040517f08c379a00000000000000000000000000000000000000000000000000000000081526004016123c990613dc4565b60405180910390fd5b6001609760006101000a81548160ff0219169083151502179055507f62e78cea01bee320cd4e420270b5ea74000d11b0c9f74754ebdbfc544b05a2586124166117f1565b6040516124239190613293565b60405180910390a1565b600061243c8360000183612b8f565b60001c905092915050565b600061245582600001612bba565b9050919050565b61246582610b67565b612476816124716117f1565b6117f9565b6124808383611f7f565b505050565b60007f01ffc9a7000000000000000000000000000000000000000000000000000000007bffffffffffffffffffffffffffffffffffffffffffffffffffffffff1916827bffffffffffffffffffffffffffffffffffffffffffffffffffffffff1916149050919050565b6060600060028360026125029190613de4565b61250c9190613410565b67ffffffffffffffff81111561252557612524613e3e565b5b6040519080825280601f01601f1916602001820160405280156125575781602001600182028036833780820191505090505b5090507f30000000000000000000000000000000000000000000000000000000000000008160008151811061258f5761258e613e6d565b5b60200101907effffffffffffffffffffffffffffffffffffffffffffffffffffffffffffff1916908160001a9053507f7800000000000000000000000000000000000000000000000000000000000000816001815181106125f3576125f2613e6d565b5b60200101907effffffffffffffffffffffffffffffffffffffffffffffffffffffffffffff1916908160001a905350600060018460026126339190613de4565b61263d9190613410565b90505b60018111156126dd577f3031323334353637383961626364656600000000000000000000000000000000600f86166010811061267f5761267e613e6d565b5b1a60f81b82828151811061269657612695613e6d565b5b60200101907effffffffffffffffffffffffffffffffffffffffffffffffffffffffffffff1916908160001a905350600485901c9450806126d690613e9c565b9050612640565b5060008414612721576040517f08c379a000000000000000000000000000000000000000000000000000000000815260040161271890613f12565b60405180910390fd5b8091505092915050565b612733610e99565b15612773576040517f08c379a000000000000000000000000000000000000000000000000000000000815260040161276a90613dc4565b60405180910390fd5b61279d7f5edc4fd0544f0b4b53f14f295fb04bbd6fdbc1bea1fd8edf5851b385aee145d5846112a3565b156127dd576040517f08c379a00000000000000000000000000000000000000000000000000000000081526004016127d490613f7e565b60405180910390fd5b6128077f5edc4fd0544f0b4b53f14f295fb04bbd6fdbc1bea1fd8edf5851b385aee145d5836112a3565b15612847576040517f08c379a000000000000000000000000000000000000000000000000000000000815260040161283e90613fea565b60405180910390fd5b612852838383612bcb565b505050565b505050565b61286682826112a3565b61293957600160fb600084815260200190815260200160002060000160008373ffffffffffffffffffffffffffffffffffffffff1673ffffffffffffffffffffffffffffffffffffffff16815260200190815260200160002060006101000a81548160ff0219169083151502179055506128de6117f1565b73ffffffffffffffffffffffffffffffffffffffff168173ffffffffffffffffffffffffffffffffffffffff16837f2f8788117e7eff1d82e926ec794901d17c78024a50270940304540a733656f0d60405160405180910390a45b5050565b6000612965836000018373ffffffffffffffffffffffffffffffffffffffff1660001b612bd0565b905092915050565b61297782826112a3565b15612a4b57600060fb600084815260200190815260200160002060000160008373ffffffffffffffffffffffffffffffffffffffff1673ffffffffffffffffffffffffffffffffffffffff16815260200190815260200160002060006101000a81548160ff0219169083151502179055506129f06117f1565b73ffffffffffffffffffffffffffffffffffffffff168173ffffffffffffffffffffffffffffffffffffffff16837ff6391f5c32d9c69d2a47ea670b442974b53935d1edc7fd64eb21e047a839171b60405160405180910390a45b5050565b6000612a77836000018373ffffffffffffffffffffffffffffffffffffffff1660001b612c40565b905092915050565b6000808273ffffffffffffffffffffffffffffffffffffffff163b119050919050565b600060019054906101000a900460ff16612af1576040517f08c379a0000000000000000000000000000000000000000000000000000000008152600401612ae890613d58565b60405180910390fd5b8160369080519060200190612b07929190612d77565b508060379080519060200190612b1e929190612d77565b505050565b600060019054906101000a900460ff16612b72576040517f08c379a0000000000000000000000000000000000000000000000000000000008152600401612b6990613d58565b60405180910390fd5b6000609760006101000a81548160ff021916908315150217905550565b6000826000018281548110612ba757612ba6613e6d565b5b9060005260206000200154905092915050565b600081600001805490509050919050565b505050565b6000612bdc8383612d54565b612c35578260000182908060018154018082558091505060019003906000526020600020016000909190919091505582600001805490508360010160008481526020019081526020016000208190555060019050612c3a565b600090505b92915050565b60008083600101600084815260200190815260200160002054905060008114612d48576000600182612c729190613894565b9050600060018660000180549050612c8a9190613894565b9050818114612cf9576000866000018281548110612cab57612caa613e6d565b5b9060005260206000200154905080876000018481548110612ccf57612cce613e6d565b5b90600052602060002001819055508387600101600083815260200190815260200160002081905550505b85600001805480612d0d57612d0c61400a565b5b600190038181906000526020600020016000905590558560010160008681526020019081526020016000206000905560019350505050612d4e565b60009150505b92915050565b600080836001016000848152602001908152602001600020541415905092915050565b828054612d839061331d565b90600052602060002090601f016020900481019282612da55760008555612dec565b82601f10612dbe57805160ff1916838001178555612dec565b82800160010185558215612dec579182015b82811115612deb578251825591602001919060010190612dd0565b5b509050612df99190612dfd565b5090565b5b80821115612e16576000816000905550600101612dfe565b5090565b600080fd5b60007fffffffff0000000000000000000000000000000000000000000000000000000082169050919050565b612e5481612e1f565b8114612e5f57600080fd5b50565b600081359050612e7181612e4b565b92915050565b600060208284031215612e8d57612e8c612e1a565b5b6000612e9b84828501612e62565b91505092915050565b60008115159050919050565b612eb981612ea4565b82525050565b6000602082019050612ed46000830184612eb0565b92915050565b600073ffffffffffffffffffffffffffffffffffffffff82169050919050565b6000612f0582612eda565b9050919050565b612f1581612efa565b8114612f2057600080fd5b50565b600081359050612f3281612f0c565b92915050565b600060208284031215612f4e57612f4d612e1a565b5b6000612f5c84828501612f23565b91505092915050565b6000819050919050565b612f7881612f65565b82525050565b6000602082019050612f936000830184612f6f565b92915050565b600081519050919050565b600082825260208201905092915050565b60005b83811015612fd3578082015181840152602081019050612fb8565b83811115612fe2576000848401525b50505050565b6000601f19601f8301169050919050565b600061300482612f99565b61300e8185612fa4565b935061301e818560208601612fb5565b61302781612fe8565b840191505092915050565b6000602082019050818103600083015261304c8184612ff9565b905092915050565b6000819050919050565b61306781613054565b811461307257600080fd5b50565b6000813590506130848161305e565b92915050565b600080604083850312156130a1576130a0612e1a565b5b60006130af85828601612f23565b92505060206130c085828601613075565b9150509250929050565b6130d381613054565b82525050565b60006020820190506130ee60008301846130ca565b92915050565b60008060006060848603121561310d5761310c612e1a565b5b600061311b86828701612f23565b935050602061312c86828701612f23565b925050604061313d86828701613075565b9150509250925092565b61315081612f65565b811461315b57600080fd5b50565b60008135905061316d81613147565b92915050565b60006020828403121561318957613188612e1a565b5b60006131978482850161315e565b91505092915050565b600080604083850312156131b7576131b6612e1a565b5b60006131c58582860161315e565b92505060206131d685828601612f23565b9150509250929050565b600060ff82169050919050565b6131f6816131e0565b82525050565b600060208201905061321160008301846131ed565b92915050565b60006020828403121561322d5761322c612e1a565b5b600061323b84828501613075565b91505092915050565b6000806040838503121561325b5761325a612e1a565b5b60006132698582860161315e565b925050602061327a85828601613075565b9150509250929050565b61328d81612efa565b82525050565b60006020820190506132a86000830184613284565b92915050565b600080604083850312156132c5576132c4612e1a565b5b60006132d385828601612f23565b92505060206132e485828601612f23565b9150509250929050565b7f4e487b7100000000000000000000000000000000000000000000000000000000600052602260045260246000fd5b6000600282049050600182168061333557607f821691505b60208210811415613349576133486132ee565b5b50919050565b7f416363657373436f6e74726f6c3a2063616e206f6e6c792072656e6f756e636560008201527f20726f6c657320666f722073656c660000000000000000000000000000000000602082015250565b60006133ab602f83612fa4565b91506133b68261334f565b604082019050919050565b600060208201905081810360008301526133da8161339e565b9050919050565b7f4e487b7100000000000000000000000000000000000000000000000000000000600052601160045260246000fd5b600061341b82613054565b915061342683613054565b9250827fffffffffffffffffffffffffffffffffffffffffffffffffffffffffffffffff0382111561345b5761345a6133e1565b5b828201905092915050565b7f526563697069656e74206d7573742062652077686974656c69737465642e0000600082015250565b600061349c601e83612fa4565b91506134a782613466565b602082019050919050565b600060208201905081810360008301526134cb8161348f565b9050919050565b7f496e697469616c697a61626c653a20636f6e747261637420697320616c72656160008201527f647920696e697469616c697a6564000000000000000000000000000000000000602082015250565b600061352e602e83612fa4565b9150613539826134d2565b604082019050919050565b6000602082019050818103600083015261355d81613521565b9050919050565b7f45524332303a2064656372656173656420616c6c6f77616e63652062656c6f7760008201527f207a65726f000000000000000000000000000000000000000000000000000000602082015250565b60006135c0602583612fa4565b91506135cb82613564565b604082019050919050565b600060208201905081810360008301526135ef816135b3565b9050919050565b7f436f6e7472616374207265717569726573206f6e652061646d696e0000000000600082015250565b600061362c601b83612fa4565b9150613637826135f6565b602082019050919050565b6000602082019050818103600083015261365b8161361f565b9050919050565b600081905092915050565b7f416363657373436f6e74726f6c3a206163636f756e7420000000000000000000600082015250565b60006136a3601783613662565b91506136ae8261366d565b601782019050919050565b60006136c482612f99565b6136ce8185613662565b93506136de818560208601612fb5565b80840191505092915050565b7f206973206d697373696e6720726f6c6520000000000000000000000000000000600082015250565b6000613720601183613662565b915061372b826136ea565b601182019050919050565b600061374182613696565b915061374d82856136b9565b915061375882613713565b915061376482846136b9565b91508190509392505050565b7f45524332303a206275726e2066726f6d20746865207a65726f2061646472657360008201527f7300000000000000000000000000000000000000000000000000000000000000602082015250565b60006137cc602183612fa4565b91506137d782613770565b604082019050919050565b600060208201905081810360008301526137fb816137bf565b9050919050565b7f45524332303a206275726e20616d6f756e7420657863656564732062616c616e60008201527f6365000000000000000000000000000000000000000000000000000000000000602082015250565b600061385e602283612fa4565b915061386982613802565b604082019050919050565b6000602082019050818103600083015261388d81613851565b9050919050565b600061389f82613054565b91506138aa83613054565b9250828210156138bd576138bc6133e1565b5b828203905092915050565b7f45524332303a20617070726f76652066726f6d20746865207a65726f2061646460008201527f7265737300000000000000000000000000000000000000000000000000000000602082015250565b6000613924602483612fa4565b915061392f826138c8565b604082019050919050565b6000602082019050818103600083015261395381613917565b9050919050565b7f45524332303a20617070726f766520746f20746865207a65726f20616464726560008201527f7373000000000000000000000000000000000000000000000000000000000000602082015250565b60006139b6602283612fa4565b91506139c18261395a565b604082019050919050565b600060208201905081810360008301526139e5816139a9565b9050919050565b7f45524332303a20696e73756666696369656e7420616c6c6f77616e6365000000600082015250565b6000613a22601d83612fa4565b9150613a2d826139ec565b602082019050919050565b60006020820190508181036000830152613a5181613a15565b9050919050565b7f45524332303a207472616e736665722066726f6d20746865207a65726f20616460008201527f6472657373000000000000000000000000000000000000000000000000000000602082015250565b6000613ab4602583612fa4565b9150613abf82613a58565b604082019050919050565b60006020820190508181036000830152613ae381613aa7565b9050919050565b7f45524332303a207472616e7366657220746f20746865207a65726f206164647260008201527f6573730000000000000000000000000000000000000000000000000000000000602082015250565b6000613b46602383612fa4565b9150613b5182613aea565b604082019050919050565b60006020820190508181036000830152613b7581613b39565b9050919050565b7f45524332303a207472616e7366657220616d6f756e742065786365656473206260008201527f616c616e63650000000000000000000000000000000000000000000000000000602082015250565b6000613bd8602683612fa4565b9150613be382613b7c565b604082019050919050565b60006020820190508181036000830152613c0781613bcb565b9050919050565b7f5061757361626c653a206e6f7420706175736564000000000000000000000000600082015250565b6000613c44601483612fa4565b9150613c4f82613c0e565b602082019050919050565b60006020820190508181036000830152613c7381613c37565b9050919050565b7f45524332303a206d696e7420746f20746865207a65726f206164647265737300600082015250565b6000613cb0601f83612fa4565b9150613cbb82613c7a565b602082019050919050565b60006020820190508181036000830152613cdf81613ca3565b9050919050565b7f496e697469616c697a61626c653a20636f6e7472616374206973206e6f74206960008201527f6e697469616c697a696e67000000000000000000000000000000000000000000602082015250565b6000613d42602b83612fa4565b9150613d4d82613ce6565b604082019050919050565b60006020820190508181036000830152613d7181613d35565b9050919050565b7f5061757361626c653a2070617573656400000000000000000000000000000000600082015250565b6000613dae601083612fa4565b9150613db982613d78565b602082019050919050565b60006020820190508181036000830152613ddd81613da1565b9050919050565b6000613def82613054565b9150613dfa83613054565b9250817fffffffffffffffffffffffffffffffffffffffffffffffffffffffffffffffff0483118215151615613e3357613e326133e1565b5b828202905092915050565b7f4e487b7100000000000000000000000000000000000000000000000000000000600052604160045260246000fd5b7f4e487b7100000000000000000000000000000000000000000000000000000000600052603260045260246000fd5b6000613ea782613054565b91506000821415613ebb57613eba6133e1565b5b600182039050919050565b7f537472696e67733a20686578206c656e67746820696e73756666696369656e74600082015250565b6000613efc602083612fa4565b9150613f0782613ec6565b602082019050919050565b60006020820190508181036000830152613f2b81613eef565b9050919050565b7f53656e6465722069732063757272656e746c792066726f7a656e2e0000000000600082015250565b6000613f68601b83612fa4565b9150613f7382613f32565b602082019050919050565b60006020820190508181036000830152613f9781613f5b565b9050919050565b7f526563697069656e742069732063757272656e746c792066726f7a656e2e0000600082015250565b6000613fd4601e83612fa4565b9150613fdf82613f9e565b602082019050919050565b6000602082019050818103600083015261400381613fc7565b9050919050565b7f4e487b7100000000000000000000000000000000000000000000000000000000600052603160045260246000fdfea2646970667358221220b34f8f3e23a2453223f8a90ef95a52b0ba4fd041a897d8eb4f0bf2836bec51b364736f6c634300080b0033",
  "linkReferences": {},
  "deployedLinkReferences": {}
}