{
  "_format": "hh-sol-artifact-1",
  "contractName": "USDReceipt",
  "sourceName": "contracts/METLV2.sol",
  "abi": [
    {
      "anonymous": false,
      "inputs": [
        {
          "indexed": true,
          "internalType": "address",
          "name": "owner",
          "type": "address"
        },
        {
          "indexed": true,
          "internalType": "address",
          "name": "spender",
          "type": "address"
        },
        {
          "indexed": false,
          "internalType": "uint256",
          "name": "value",
          "type": "uint256"
        }
      ],
      "name": "Approval",
      "type": "event"
    },
    {
      "anonymous": false,
      "inputs": [
        {
          "indexed": true,
          "internalType": "address",
          "name": "feeReceiver",
          "type": "address"
        },
        {
          "indexed": true,
          "internalType": "uint256",
          "name": "issueAmount",
          "type": "uint256"
        },
        {
          "indexed": true,
          "internalType": "uint256",
          "name": "fee",
          "type": "uint256"
        }
      ],
      "name": "Fee",
      "type": "event"
    },
    {
      "anonymous": false,
      "inputs": [
        {
          "indexed": false,
          "internalType": "address",
          "name": "account",
          "type": "address"
        }
      ],
      "name": "Paused",
      "type": "event"
    },
    {
      "anonymous": false,
      "inputs": [
        {
          "indexed": true,
          "internalType": "bytes32",
          "name": "role",
          "type": "bytes32"
        },
        {
          "indexed": true,
          "internalType": "bytes32",
          "name": "previousAdminRole",
          "type": "bytes32"
        },
        {
          "indexed": true,
          "internalType": "bytes32",
          "name": "newAdminRole",
          "type": "bytes32"
        }
      ],
      "name": "RoleAdminChanged",
      "type": "event"
    },
    {
      "anonymous": false,
      "inputs": [
        {
          "indexed": true,
          "internalType": "bytes32",
          "name": "role",
          "type": "bytes32"
        },
        {
          "indexed": true,
          "internalType": "address",
          "name": "account",
          "type": "address"
        },
        {
          "indexed": true,
          "internalType": "address",
          "name": "sender",
          "type": "address"
        }
      ],
      "name": "RoleGranted",
      "type": "event"
    },
    {
      "anonymous": false,
      "inputs": [
        {
          "indexed": true,
          "internalType": "bytes32",
          "name": "role",
          "type": "bytes32"
        },
        {
          "indexed": true,
          "internalType": "address",
          "name": "account",
          "type": "address"
        },
        {
          "indexed": true,
          "internalType": "address",
          "name": "sender",
          "type": "address"
        }
      ],
      "name": "RoleRevoked",
      "type": "event"
    },
    {
      "anonymous": false,
      "inputs": [
        {
          "indexed": true,
          "internalType": "address",
          "name": "from",
          "type": "address"
        },
        {
          "indexed": true,
          "internalType": "address",
          "name": "to",
          "type": "address"
        },
        {
          "indexed": false,
          "internalType": "uint256",
          "name": "value",
          "type": "uint256"
        }
      ],
      "name": "Transfer",
      "type": "event"
    },
    {
      "anonymous": false,
      "inputs": [
        {
          "indexed": false,
          "internalType": "address",
          "name": "account",
          "type": "address"
        }
      ],
      "name": "Unpaused",
      "type": "event"
    },
    {
      "inputs": [],
      "name": "BASIS_RATE",
      "outputs": [
        {
          "internalType": "uint256",
          "name": "",
          "type": "uint256"
        }
      ],
      "stateMutability": "view",
      "type": "function"
    },
    {
      "inputs": [],
      "name": "BURNER_ROLE",
      "outputs": [
        {
          "internalType": "bytes32",
          "name": "",
          "type": "bytes32"
        }
      ],
      "stateMutability": "view",
      "type": "function"
    },
    {
      "inputs": [],
      "name": "DEFAULT_ADMIN_ROLE",
      "outputs": [
        {
          "internalType": "bytes32",
          "name": "",
          "type": "bytes32"
        }
      ],
      "stateMutability": "view",
      "type": "function"
    },
    {
      "inputs": [],
      "name": "FREEZER_ROLE",
      "outputs": [
        {
          "internalType": "bytes32",
          "name": "",
          "type": "bytes32"
        }
      ],
      "stateMutability": "view",
      "type": "function"
    },
    {
      "inputs": [],
      "name": "FROZEN_USER",
      "outputs": [
        {
          "internalType": "bytes32",
          "name": "",
          "type": "bytes32"
        }
      ],
      "stateMutability": "view",
      "type": "function"
    },
    {
      "inputs": [],
      "name": "MINTER_ROLE",
      "outputs": [
        {
          "internalType": "bytes32",
          "name": "",
          "type": "bytes32"
        }
      ],
      "stateMutability": "view",
      "type": "function"
    },
    {
      "inputs": [],
      "name": "MULTISIG_ROLE",
      "outputs": [
        {
          "internalType": "bytes32",
          "name": "",
          "type": "bytes32"
        }
      ],
      "stateMutability": "view",
      "type": "function"
    },
    {
      "inputs": [],
      "name": "PAUSER_ROLE",
      "outputs": [
        {
          "internalType": "bytes32",
          "name": "",
          "type": "bytes32"
        }
      ],
      "stateMutability": "view",
      "type": "function"
    },
    {
      "inputs": [
        {
          "internalType": "address",
          "name": "newAddress",
          "type": "address"
        }
      ],
      "name": "addAdmin",
      "outputs": [],
      "stateMutability": "nonpayable",
      "type": "function"
    },
    {
      "inputs": [
        {
          "internalType": "address",
          "name": "newAddress",
          "type": "address"
        }
      ],
      "name": "addBurner",
      "outputs": [],
      "stateMutability": "nonpayable",
      "type": "function"
    },
    {
      "inputs": [
        {
          "internalType": "address",
          "name": "newAddress",
          "type": "address"
        }
      ],
      "name": "addFreezer",
      "outputs": [],
      "stateMutability": "nonpayable",
      "type": "function"
    },
    {
      "inputs": [
        {
          "internalType": "address",
          "name": "newAddress",
          "type": "address"
        }
      ],
      "name": "addMinter",
      "outputs": [],
      "stateMutability": "nonpayable",
      "type": "function"
    },
    {
      "inputs": [
        {
          "internalType": "address",
          "name": "newAddress",
          "type": "address"
        }
      ],
      "name": "addMultisig",
      "outputs": [],
      "stateMutability": "nonpayable",
      "type": "function"
    },
    {
      "inputs": [
        {
          "internalType": "address",
          "name": "newAddress",
          "type": "address"
        }
      ],
      "name": "addPauser",
      "outputs": [],
      "stateMutability": "nonpayable",
      "type": "function"
    },
    {
      "inputs": [
        {
          "internalType": "address",
          "name": "owner",
          "type": "address"
        },
        {
          "internalType": "address",
          "name": "spender",
          "type": "address"
        }
      ],
      "name": "allowance",
      "outputs": [
        {
          "internalType": "uint256",
          "name": "",
          "type": "uint256"
        }
      ],
      "stateMutability": "view",
      "type": "function"
    },
    {
      "inputs": [
        {
          "internalType": "address",
          "name": "spender",
          "type": "address"
        },
        {
          "internalType": "uint256",
          "name": "amount",
          "type": "uint256"
        }
      ],
      "name": "approve",
      "outputs": [
        {
          "internalType": "bool",
          "name": "",
          "type": "bool"
        }
      ],
      "stateMutability": "nonpayable",
      "type": "function"
    },
    {
      "inputs": [
        {
          "internalType": "address",
          "name": "account",
          "type": "address"
        }
      ],
      "name": "balanceOf",
      "outputs": [
        {
          "internalType": "uint256",
          "name": "",
          "type": "uint256"
        }
      ],
      "stateMutability": "view",
      "type": "function"
    },
    {
      "inputs": [
        {
          "internalType": "address",
          "name": "target",
          "type": "address"
        },
        {
          "internalType": "uint256",
          "name": "amount",
          "type": "uint256"
        }
      ],
      "name": "bankBurn",
      "outputs": [],
      "stateMutability": "nonpayable",
      "type": "function"
    },
    {
      "inputs": [
        {
          "internalType": "address",
          "name": "recipient",
          "type": "address"
        },
        {
          "internalType": "uint256",
          "name": "amount",
          "type": "uint256"
        }
      ],
      "name": "bankMint",
      "outputs": [],
      "stateMutability": "nonpayable",
      "type": "function"
    },
    {
      "inputs": [
        {
          "internalType": "uint256",
          "name": "amount",
          "type": "uint256"
        }
      ],
      "name": "burn",
      "outputs": [],
      "stateMutability": "nonpayable",
      "type": "function"
    },
    {
      "inputs": [
        {
          "internalType": "address",
          "name": "account",
          "type": "address"
        },
        {
          "internalType": "uint256",
          "name": "amount",
          "type": "uint256"
        }
      ],
      "name": "burnFrom",
      "outputs": [],
      "stateMutability": "nonpayable",
      "type": "function"
    },
    {
      "inputs": [],
      "name": "decimals",
      "outputs": [
        {
          "internalType": "uint8",
          "name": "",
          "type": "uint8"
        }
      ],
      "stateMutability": "view",
      "type": "function"
    },
    {
      "inputs": [
        {
          "internalType": "address",
          "name": "spender",
          "type": "address"
        },
        {
          "internalType": "uint256",
          "name": "subtractedValue",
          "type": "uint256"
        }
      ],
      "name": "decreaseAllowance",
      "outputs": [
        {
          "internalType": "bool",
          "name": "",
          "type": "bool"
        }
      ],
      "stateMutability": "nonpayable",
      "type": "function"
    },
    {
      "inputs": [
        {
          "internalType": "address",
          "name": "target",
          "type": "address"
        },
        {
          "internalType": "uint256",
          "name": "amount",
          "type": "uint256"
        }
      ],
      "name": "freeBankBurn",
      "outputs": [],
      "stateMutability": "nonpayable",
      "type": "function"
    },
    {
      "inputs": [
        {
          "internalType": "address",
          "name": "recipient",
          "type": "address"
        },
        {
          "internalType": "uint256",
          "name": "amount",
          "type": "uint256"
        }
      ],
      "name": "freeBankMint",
      "outputs": [],
      "stateMutability": "nonpayable",
      "type": "function"
    },
    {
      "inputs": [
        {
          "internalType": "address",
          "name": "newAddress",
          "type": "address"
        }
      ],
      "name": "freezeUser",
      "outputs": [],
      "stateMutability": "nonpayable",
      "type": "function"
    },
    {
      "inputs": [
        {
          "internalType": "bytes32",
          "name": "role",
          "type": "bytes32"
        }
      ],
      "name": "getRoleAdmin",
      "outputs": [
        {
          "internalType": "bytes32",
          "name": "",
          "type": "bytes32"
        }
      ],
      "stateMutability": "view",
      "type": "function"
    },
    {
      "inputs": [
        {
          "internalType": "bytes32",
          "name": "role",
          "type": "bytes32"
        },
        {
          "internalType": "uint256",
          "name": "index",
          "type": "uint256"
        }
      ],
      "name": "getRoleMember",
      "outputs": [
        {
          "internalType": "address",
          "name": "",
          "type": "address"
        }
      ],
      "stateMutability": "view",
      "type": "function"
    },
    {
      "inputs": [
        {
          "internalType": "bytes32",
          "name": "role",
          "type": "bytes32"
        }
      ],
      "name": "getRoleMemberCount",
      "outputs": [
        {
          "internalType": "uint256",
          "name": "",
          "type": "uint256"
        }
      ],
      "stateMutability": "view",
      "type": "function"
    },
    {
      "inputs": [
        {
          "internalType": "bytes32",
          "name": "role",
          "type": "bytes32"
        },
        {
          "internalType": "address",
          "name": "account",
          "type": "address"
        }
      ],
      "name": "grantRole",
      "outputs": [],
      "stateMutability": "nonpayable",
      "type": "function"
    },
    {
      "inputs": [
        {
          "internalType": "bytes32",
          "name": "role",
          "type": "bytes32"
        },
        {
          "internalType": "address",
          "name": "account",
          "type": "address"
        }
      ],
      "name": "hasRole",
      "outputs": [
        {
          "internalType": "bool",
          "name": "",
          "type": "bool"
        }
      ],
      "stateMutability": "view",
      "type": "function"
    },
    {
      "inputs": [
        {
          "internalType": "address",
          "name": "spender",
          "type": "address"
        },
        {
          "internalType": "uint256",
          "name": "addedValue",
          "type": "uint256"
        }
      ],
      "name": "increaseAllowance",
      "outputs": [
        {
          "internalType": "bool",
          "name": "",
          "type": "bool"
        }
      ],
      "stateMutability": "nonpayable",
      "type": "function"
    },
    {
      "inputs": [],
      "name": "initialize",
      "outputs": [],
      "stateMutability": "nonpayable",
      "type": "function"
    },
    {
      "inputs": [],
      "name": "name",
      "outputs": [
        {
          "internalType": "string",
          "name": "",
          "type": "string"
        }
      ],
      "stateMutability": "view",
      "type": "function"
    },
    {
      "inputs": [],
      "name": "pause",
      "outputs": [],
      "stateMutability": "nonpayable",
      "type": "function"
    },
    {
      "inputs": [],
      "name": "paused",
      "outputs": [
        {
          "internalType": "bool",
          "name": "",
          "type": "bool"
        }
      ],
      "stateMutability": "view",
      "type": "function"
    },
    {
      "inputs": [
        {
          "internalType": "address",
          "name": "oldAddress",
          "type": "address"
        }
      ],
      "name": "removeAdmin",
      "outputs": [],
      "stateMutability": "nonpayable",
      "type": "function"
    },
    {
      "inputs": [
        {
          "internalType": "address",
          "name": "oldAddress",
          "type": "address"
        }
      ],
      "name": "removeBurner",
      "outputs": [],
      "stateMutability": "nonpayable",
      "type": "function"
    },
    {
      "inputs": [
        {
          "internalType": "address",
          "name": "oldAddress",
          "type": "address"
        }
      ],
      "name": "removeFreezer",
      "outputs": [],
      "stateMutability": "nonpayable",
      "type": "function"
    },
    {
      "inputs": [
        {
          "internalType": "address",
          "name": "oldAddress",
          "type": "address"
        }
      ],
      "name": "removeMinter",
      "outputs": [],
      "stateMutability": "nonpayable",
      "type": "function"
    },
    {
      "inputs": [
        {
          "internalType": "address",
          "name": "oldAddress",
          "type": "address"
        }
      ],
      "name": "removePauser",
      "outputs": [],
      "stateMutability": "nonpayable",
      "type": "function"
    },
    {
      "inputs": [
        {
          "internalType": "bytes32",
          "name": "role",
          "type": "bytes32"
        },
        {
          "internalType": "address",
          "name": "account",
          "type": "address"
        }
      ],
      "name": "renounceRole",
      "outputs": [],
      "stateMutability": "nonpayable",
      "type": "function"
    },
    {
      "inputs": [
        {
          "internalType": "address",
          "name": "oldAddress",
          "type": "address"
        }
      ],
      "name": "revokeMultisig",
      "outputs": [],
      "stateMutability": "nonpayable",
      "type": "function"
    },
    {
      "inputs": [
        {
          "internalType": "bytes32",
          "name": "role",
          "type": "bytes32"
        },
        {
          "internalType": "address",
          "name": "account",
          "type": "address"
        }
      ],
      "name": "revokeRole",
      "outputs": [],
      "stateMutability": "nonpayable",
      "type": "function"
    },
    {
      "inputs": [
        {
          "internalType": "bytes4",
          "name": "interfaceId",
          "type": "bytes4"
        }
      ],
      "name": "supportsInterface",
      "outputs": [
        {
          "internalType": "bool",
          "name": "",
          "type": "bool"
        }
      ],
      "stateMutability": "view",
      "type": "function"
    },
    {
      "inputs": [],
      "name": "symbol",
      "outputs": [
        {
          "internalType": "string",
          "name": "",
          "type": "string"
        }
      ],
      "stateMutability": "view",
      "type": "function"
    },
    {
      "inputs": [],
      "name": "totalSupply",
      "outputs": [
        {
          "internalType": "uint256",
          "name": "",
          "type": "uint256"
        }
      ],
      "stateMutability": "view",
      "type": "function"
    },
    {
      "inputs": [
        {
          "internalType": "address",
          "name": "recipient",
          "type": "address"
        },
        {
          "internalType": "uint256",
          "name": "amount",
          "type": "uint256"
        }
      ],
      "name": "transfer",
      "outputs": [
        {
          "internalType": "bool",
          "name": "",
          "type": "bool"
        }
      ],
      "stateMutability": "nonpayable",
      "type": "function"
    },
    {
      "inputs": [
        {
          "internalType": "address",
          "name": "sender",
          "type": "address"
        },
        {
          "internalType": "address",
          "name": "recipient",
          "type": "address"
        },
        {
          "internalType": "uint256",
          "name": "amount",
          "type": "uint256"
        }
      ],
      "name": "transferFrom",
      "outputs": [
        {
          "internalType": "bool",
          "name": "",
          "type": "bool"
        }
      ],
      "stateMutability": "nonpayable",
      "type": "function"
    },
    {
      "inputs": [
        {
          "internalType": "address",
          "name": "oldAddress",
          "type": "address"
        }
      ],
      "name": "unfreezeUser",
      "outputs": [],
      "stateMutability": "nonpayable",
      "type": "function"
    },
    {
      "inputs": [],
      "name": "unpause",
      "outputs": [],
      "stateMutability": "nonpayable",
      "type": "function"
    },
    {
      "inputs": [
        {
          "internalType": "uint256",
          "name": "newRate",
          "type": "uint256"
        }
      ],
      "name": "updateVariableRate",
      "outputs": [],
      "stateMutability": "nonpayable",
      "type": "function"
    },
    {
      "inputs": [],
      "name": "variableRate",
      "outputs": [
        {
          "internalType": "uint256",
          "name": "",
          "type": "uint256"
        }
      ],
      "stateMutability": "view",
      "type": "function"
    }
  ],
  "bytecode": "0x608060405234801561001057600080fd5b50614df2806100206000396000f3fe608060405234801561001057600080fd5b50600436106103275760003560e01c80636b2c0f55116101b8578063a457c2d711610104578063dba277be116100a2578063e08ba51a1161007c578063e08ba51a1461095a578063e328400c14610976578063e63ab1e914610994578063f44637ba146109b257610327565b8063dba277be146108f2578063dd62ed3e1461090e578063dfb04c431461093e57610327565b8063ca15c873116100de578063ca15c8731461086c578063cb4b73ab1461089c578063d5391393146108b8578063d547741f146108d657610327565b8063a457c2d7146107f0578063a9059cbb14610820578063bd254d4c1461085057610327565b80638456cb591161017157806391d148541161014b57806391d148541461076857806395d89b4114610798578063983b2d56146107b6578063a217fddf146107d257610327565b80638456cb5914610710578063866006a61461071a5780639010d07c1461073857610327565b80636b2c0f5514610666578063704802751461068257806370a082311461069e57806379cc6790146106ce5780638129fc1c146106ea57806382dc1ec4146106f457610327565b80632a6b503d116102775780633950935111610230578063526606c91161020a578063526606c9146105f25780635502f2871461060e5780635c975abb1461062c5780636476e3011461064a57610327565b8063395093511461059c5780633f4ba83a146105cc57806342966c68146105d657610327565b80632a6b503d146104f25780632acd20001461050e5780632f2ff15d1461052a5780633092afd514610546578063313ce5671461056257806336568abe1461058057610327565b80631785f53c116102e457806323b872dd116102be57806323b872dd14610456578063248a9ca31461048657806324e0d460146104b6578063282c51f3146104d457610327565b80631785f53c1461040057806318160ddd1461041c5780631c130dfb1461043a57610327565b806301ffc9a71461032c578063028468581461035c57806306a85f0f1461037857806306fdde0314610396578063082a9790146103b4578063095ea7b3146103d0575b600080fd5b61034660048036038101906103419190613a30565b6109ce565b6040516103539190613a78565b60405180910390f35b61037660048036038101906103719190613af1565b610a48565b005b610380610a8b565b60405161038d9190613b37565b60405180910390f35b61039e610aaf565b6040516103ab9190613beb565b60405180910390f35b6103ce60048036038101906103c99190613c43565b610b41565b005b6103ea60048036038101906103e59190613c43565b610bb0565b6040516103f79190613a78565b60405180910390f35b61041a60048036038101906104159190613af1565b610bce565b005b610424610bf4565b6040516104319190613c92565b60405180910390f35b610454600480360381019061044f9190613af1565b610bfe565b005b610470600480360381019061046b9190613cad565b610c41565b60405161047d9190613a78565b60405180910390f35b6104a0600480360381019061049b9190613d2c565b610d39565b6040516104ad9190613b37565b60405180910390f35b6104be610d59565b6040516104cb9190613c92565b60405180910390f35b6104dc610d60565b6040516104e99190613b37565b60405180910390f35b61050c60048036038101906105079190613af1565b610d84565b005b61052860048036038101906105239190613af1565b610dc7565b005b610544600480360381019061053f9190613d59565b610e0a565b005b610560600480360381019061055b9190613af1565b610e3f565b005b61056a610e82565b6040516105779190613db5565b60405180910390f35b61059a60048036038101906105959190613d59565b610e8b565b005b6105b660048036038101906105b19190613c43565b610f82565b6040516105c39190613a78565b60405180910390f35b6105d461102e565b005b6105f060048036038101906105eb9190613dd0565b61106b565b005b61060c60048036038101906106079190613af1565b61107f565b005b6106166110c2565b6040516106239190613b37565b60405180910390f35b6106346110e6565b6040516106419190613a78565b60405180910390f35b610664600480360381019061065f9190613c43565b6110fd565b005b610680600480360381019061067b9190613af1565b61122b565b005b61069c60048036038101906106979190613af1565b61126e565b005b6106b860048036038101906106b39190613af1565b611294565b6040516106c59190613c92565b60405180910390f35b6106e860048036038101906106e39190613c43565b6112dd565b005b6106f2611358565b005b61070e60048036038101906107099190613af1565b611521565b005b610718611564565b005b6107226115a1565b60405161072f9190613c92565b60405180910390f35b610752600480360381019061074d9190613dfd565b6115aa565b60405161075f9190613e4c565b60405180910390f35b610782600480360381019061077d9190613d59565b6115da565b60405161078f9190613a78565b60405180910390f35b6107a0611645565b6040516107ad9190613beb565b60405180910390f35b6107d060048036038101906107cb9190613af1565b6116d7565b005b6107da61171a565b6040516107e79190613b37565b60405180910390f35b61080a60048036038101906108059190613c43565b611721565b6040516108179190613a78565b60405180910390f35b61083a60048036038101906108359190613c43565b61180c565b6040516108479190613a78565b60405180910390f35b61086a60048036038101906108659190613dd0565b61182a565b005b61088660048036038101906108819190613d2c565b6118d8565b6040516108939190613c92565b60405180910390f35b6108b660048036038101906108b19190613af1565b6118fd565b005b6108c061195d565b6040516108cd9190613b37565b60405180910390f35b6108f060048036038101906108eb9190613d59565b611981565b005b61090c60048036038101906109079190613c43565b6119e6565b005b61092860048036038101906109239190613e67565b611a27565b6040516109359190613c92565b60405180910390f35b61095860048036038101906109539190613c43565b611aae565b005b610974600480360381019061096f9190613af1565b611b58565b005b61097e611bb8565b60405161098b9190613b37565b60405180910390f35b61099c611bdc565b6040516109a99190613b37565b60405180910390f35b6109cc60048036038101906109c79190613af1565b611c00565b005b60007f5a05180f000000000000000000000000000000000000000000000000000000007bffffffffffffffffffffffffffffffffffffffffffffffffffffffff1916827bffffffffffffffffffffffffffffffffffffffffffffffffffffffff19161480610a415750610a4082611c43565b5b9050919050565b6000801b610a5d81610a58611cbd565b611cc5565b610a877f3c11d16cbaffd01df69ce1c404f6340ee057498f5f00246190ea54220576a84883611981565b5050565b7f92de27771f92d6942691d73358b3a4673e4880de8356f8f2cf452be87e02d36381565b606060368054610abe90613ed6565b80601f0160208091040260200160405190810160405280929190818152602001828054610aea90613ed6565b8015610b375780601f10610b0c57610100808354040283529160200191610b37565b820191906000526020600020905b815481529060010190602001808311610b1a57829003601f168201915b5050505050905090565b7f3c11d16cbaffd01df69ce1c404f6340ee057498f5f00246190ea54220576a848610b7381610b6e611cbd565b611cc5565b600064e8d4a5100061015f5484610b8a9190613f37565b610b949190613fc0565b9050610ba03382611d62565b610baa8484611ec3565b50505050565b6000610bc4610bbd611cbd565b848461209c565b6001905092915050565b6000801b610be381610bde611cbd565b611cc5565b610bf06000801b83611981565b5050565b6000603554905090565b6000801b610c1381610c0e611cbd565b611cc5565b610c3d7fa5a0b70b385ff7611cd3840916bd08b10829e5bf9e6637cf79dd9a427fc0e2ab83610e0a565b5050565b6000610c4e848484612267565b6000603460008673ffffffffffffffffffffffffffffffffffffffff1673ffffffffffffffffffffffffffffffffffffffff1681526020019081526020016000206000610c99611cbd565b73ffffffffffffffffffffffffffffffffffffffff1673ffffffffffffffffffffffffffffffffffffffff16815260200190815260200160002054905082811015610d19576040517f08c379a0000000000000000000000000000000000000000000000000000000008152600401610d1090614063565b60405180910390fd5b610d2d85610d25611cbd565b85840361209c565b60019150509392505050565b600060fb6000838152602001908152602001600020600101549050919050565b61015f5481565b7f3c11d16cbaffd01df69ce1c404f6340ee057498f5f00246190ea54220576a84881565b6000801b610d9981610d94611cbd565b611cc5565b610dc37fa5a0b70b385ff7611cd3840916bd08b10829e5bf9e6637cf79dd9a427fc0e2ab83611981565b5050565b6000801b610ddc81610dd7611cbd565b611cc5565b610e067f92de27771f92d6942691d73358b3a4673e4880de8356f8f2cf452be87e02d36383611981565b5050565b610e1482826124eb565b610e3a8161012d600085815260200190815260200160002061251490919063ffffffff16565b505050565b6000801b610e5481610e4f611cbd565b611cc5565b610e7e7f9f2df0fed2c77648de5860a4cc508cd0818c85b8b8a1ab4ceeef8d981c8956a683611981565b5050565b60006012905090565b7f5edc4fd0544f0b4b53f14f295fb04bbd6fdbc1bea1fd8edf5851b385aee145d5821415610f1d57610edd7f92de27771f92d6942691d73358b3a4673e4880de8356f8f2cf452be87e02d363336115da565b610f1c576040517f08c379a0000000000000000000000000000000000000000000000000000000008152600401610f13906140cf565b60405180910390fd5b5b6000801b821415610f74576001610f33836118d8565b11610f73576040517f08c379a0000000000000000000000000000000000000000000000000000000008152600401610f6a9061413b565b60405180910390fd5b5b610f7e8282612544565b5050565b6000611024610f8f611cbd565b848460346000610f9d611cbd565b73ffffffffffffffffffffffffffffffffffffffff1673ffffffffffffffffffffffffffffffffffffffff16815260200190815260200160002060008873ffffffffffffffffffffffffffffffffffffffff1673ffffffffffffffffffffffffffffffffffffffff1681526020019081526020016000205461101f919061415b565b61209c565b6001905092915050565b7f65d7a28e3265b37a6474929f336521b332c1681b933f6cb9f3376673440d862a6110608161105b611cbd565b611cc5565b611068612579565b50565b61107c611076611cbd565b82611ec3565b50565b6000801b6110948161108f611cbd565b611cc5565b6110be7f92de27771f92d6942691d73358b3a4673e4880de8356f8f2cf452be87e02d36383610e0a565b5050565b7f5edc4fd0544f0b4b53f14f295fb04bbd6fdbc1bea1fd8edf5851b385aee145d581565b6000609760009054906101000a900460ff16905090565b7f9f2df0fed2c77648de5860a4cc508cd0818c85b8b8a1ab4ceeef8d981c8956a661112f8161112a611cbd565b611cc5565b6111597fa5a0b70b385ff7611cd3840916bd08b10829e5bf9e6637cf79dd9a427fc0e2ab846115da565b611198576040517f08c379a000000000000000000000000000000000000000000000000000000000815260040161118f906141fd565b60405180910390fd5b600064e8d4a5100061015f54846111af9190613f37565b6111b99190613fc0565b9050600081846111c9919061421d565b905081813373ffffffffffffffffffffffffffffffffffffffff167fc1e1261fb62788fd4036ae7b01d7139f3523dac26e0c98f808154bfa20289fb160405160405180910390a461121a3383611d62565b6112248582611d62565b5050505050565b6000801b6112408161123b611cbd565b611cc5565b61126a7f65d7a28e3265b37a6474929f336521b332c1681b933f6cb9f3376673440d862a83611981565b5050565b6000801b6112838161127e611cbd565b611cc5565b6112906000801b83610e0a565b5050565b6000603360008373ffffffffffffffffffffffffffffffffffffffff1673ffffffffffffffffffffffffffffffffffffffff168152602001908152602001600020549050919050565b60006112f0836112eb611cbd565b611a27565b905081811015611335576040517f08c379a000000000000000000000000000000000000000000000000000000000815260040161132c906142c3565b60405180910390fd5b61134983611341611cbd565b84840361209c565b6113538383611ec3565b505050565b600060019054906101000a900460ff168061137e575060008054906101000a900460ff16155b6113bd576040517f08c379a00000000000000000000000000000000000000000000000000000000081526004016113b490614355565b60405180910390fd5b60008060019054906101000a900460ff16159050801561140d576001600060016101000a81548160ff02191690831515021790555060016000806101000a81548160ff0219169083151502179055505b6114816040518060400160405280600b81526020017f55534420526563656970740000000000000000000000000000000000000000008152506040518060400160405280600481526020017f555344520000000000000000000000000000000000000000000000000000000081525061261b565b611489612708565b6114916127f1565b6114996128da565b6114a66000801b336129cb565b6114f07f5edc4fd0544f0b4b53f14f295fb04bbd6fdbc1bea1fd8edf5851b385aee145d57f92de27771f92d6942691d73358b3a4673e4880de8356f8f2cf452be87e02d363612a00565b64037e11d60061015f81905550801561151e5760008060016101000a81548160ff0219169083151502179055505b50565b6000801b61153681611531611cbd565b611cc5565b6115607f65d7a28e3265b37a6474929f336521b332c1681b933f6cb9f3376673440d862a83610e0a565b5050565b7f65d7a28e3265b37a6474929f336521b332c1681b933f6cb9f3376673440d862a61159681611591611cbd565b611cc5565b61159e612a5c565b50565b64e8d4a5100081565b60006115d28261012d6000868152602001908152602001600020612aff90919063ffffffff16565b905092915050565b600060fb600084815260200190815260200160002060000160008373ffffffffffffffffffffffffffffffffffffffff1673ffffffffffffffffffffffffffffffffffffffff16815260200190815260200160002060009054906101000a900460ff16905092915050565b60606037805461165490613ed6565b80601f016020809104026020016040519081016040528092919081815260200182805461168090613ed6565b80156116cd5780601f106116a2576101008083540402835291602001916116cd565b820191906000526020600020905b8154815290600101906020018083116116b057829003601f168201915b5050505050905090565b6000801b6116ec816116e7611cbd565b611cc5565b6117167f9f2df0fed2c77648de5860a4cc508cd0818c85b8b8a1ab4ceeef8d981c8956a683610e0a565b5050565b6000801b81565b60008060346000611730611cbd565b73ffffffffffffffffffffffffffffffffffffffff1673ffffffffffffffffffffffffffffffffffffffff16815260200190815260200160002060008573ffffffffffffffffffffffffffffffffffffffff1673ffffffffffffffffffffffffffffffffffffffff168152602001908152602001600020549050828110156117ed576040517f08c379a00000000000000000000000000000000000000000000000000000000081526004016117e4906143e7565b60405180910390fd5b6118016117f8611cbd565b8585840361209c565b600191505092915050565b6000611820611819611cbd565b8484612267565b6001905092915050565b6000801b61183f8161183a611cbd565b611cc5565b64174876e8008210611886576040517f08c379a000000000000000000000000000000000000000000000000000000000815260040161187d90614453565b60405180910390fd5b63b2d05e0082116118cc576040517f08c379a00000000000000000000000000000000000000000000000000000000081526004016118c3906144bf565b60405180910390fd5b8161015f819055505050565b60006118f661012d6000848152602001908152602001600020612b19565b9050919050565b7f92de27771f92d6942691d73358b3a4673e4880de8356f8f2cf452be87e02d36361192f8161192a611cbd565b611cc5565b6119597f5edc4fd0544f0b4b53f14f295fb04bbd6fdbc1bea1fd8edf5851b385aee145d583611981565b5050565b7f9f2df0fed2c77648de5860a4cc508cd0818c85b8b8a1ab4ceeef8d981c8956a681565b6000801b8214156119d8576001611997836118d8565b116119d7576040517f08c379a00000000000000000000000000000000000000000000000000000000081526004016119ce9061413b565b60405180910390fd5b5b6119e28282612b2e565b5050565b7f3c11d16cbaffd01df69ce1c404f6340ee057498f5f00246190ea54220576a848611a1881611a13611cbd565b611cc5565b611a228383611ec3565b505050565b6000603460008473ffffffffffffffffffffffffffffffffffffffff1673ffffffffffffffffffffffffffffffffffffffff16815260200190815260200160002060008373ffffffffffffffffffffffffffffffffffffffff1673ffffffffffffffffffffffffffffffffffffffff16815260200190815260200160002054905092915050565b7f9f2df0fed2c77648de5860a4cc508cd0818c85b8b8a1ab4ceeef8d981c8956a6611ae081611adb611cbd565b611cc5565b611b0a7fa5a0b70b385ff7611cd3840916bd08b10829e5bf9e6637cf79dd9a427fc0e2ab846115da565b611b49576040517f08c379a0000000000000000000000000000000000000000000000000000000008152600401611b40906141fd565b60405180910390fd5b611b538383611d62565b505050565b7f92de27771f92d6942691d73358b3a4673e4880de8356f8f2cf452be87e02d363611b8a81611b85611cbd565b611cc5565b611bb47f5edc4fd0544f0b4b53f14f295fb04bbd6fdbc1bea1fd8edf5851b385aee145d583610e0a565b5050565b7fa5a0b70b385ff7611cd3840916bd08b10829e5bf9e6637cf79dd9a427fc0e2ab81565b7f65d7a28e3265b37a6474929f336521b332c1681b933f6cb9f3376673440d862a81565b6000801b611c1581611c10611cbd565b611cc5565b611c3f7f3c11d16cbaffd01df69ce1c404f6340ee057498f5f00246190ea54220576a84883610e0a565b5050565b60007f7965db0b000000000000000000000000000000000000000000000000000000007bffffffffffffffffffffffffffffffffffffffffffffffffffffffff1916827bffffffffffffffffffffffffffffffffffffffffffffffffffffffff19161480611cb65750611cb582612b63565b5b9050919050565b600033905090565b611ccf82826115da565b611d5e57611cf48173ffffffffffffffffffffffffffffffffffffffff166014612bcd565b611d028360001c6020612bcd565b604051602001611d139291906145b3565b6040516020818303038152906040526040517f08c379a0000000000000000000000000000000000000000000000000000000008152600401611d559190613beb565b60405180910390fd5b5050565b600073ffffffffffffffffffffffffffffffffffffffff168273ffffffffffffffffffffffffffffffffffffffff161415611dd2576040517f08c379a0000000000000000000000000000000000000000000000000000000008152600401611dc990614639565b60405180910390fd5b611dde60008383612e09565b8060356000828254611df0919061415b565b9250508190555080603360008473ffffffffffffffffffffffffffffffffffffffff1673ffffffffffffffffffffffffffffffffffffffff1681526020019081526020016000206000828254611e46919061415b565b925050819055508173ffffffffffffffffffffffffffffffffffffffff16600073ffffffffffffffffffffffffffffffffffffffff167fddf252ad1be2c89b69c2b068fc378daa952ba7f163c4a11628f55a4df523b3ef83604051611eab9190613c92565b60405180910390a3611ebf60008383612f35565b5050565b600073ffffffffffffffffffffffffffffffffffffffff168273ffffffffffffffffffffffffffffffffffffffff161415611f33576040517f08c379a0000000000000000000000000000000000000000000000000000000008152600401611f2a906146cb565b60405180910390fd5b611f3f82600083612e09565b6000603360008473ffffffffffffffffffffffffffffffffffffffff1673ffffffffffffffffffffffffffffffffffffffff16815260200190815260200160002054905081811015611fc6576040517f08c379a0000000000000000000000000000000000000000000000000000000008152600401611fbd9061475d565b60405180910390fd5b818103603360008573ffffffffffffffffffffffffffffffffffffffff1673ffffffffffffffffffffffffffffffffffffffff16815260200190815260200160002081905550816035600082825461201e919061421d565b92505081905550600073ffffffffffffffffffffffffffffffffffffffff168373ffffffffffffffffffffffffffffffffffffffff167fddf252ad1be2c89b69c2b068fc378daa952ba7f163c4a11628f55a4df523b3ef846040516120839190613c92565b60405180910390a361209783600084612f35565b505050565b600073ffffffffffffffffffffffffffffffffffffffff168373ffffffffffffffffffffffffffffffffffffffff16141561210c576040517f08c379a0000000000000000000000000000000000000000000000000000000008152600401612103906147ef565b60405180910390fd5b600073ffffffffffffffffffffffffffffffffffffffff168273ffffffffffffffffffffffffffffffffffffffff16141561217c576040517f08c379a000000000000000000000000000000000000000000000000000000000815260040161217390614881565b60405180910390fd5b80603460008573ffffffffffffffffffffffffffffffffffffffff1673ffffffffffffffffffffffffffffffffffffffff16815260200190815260200160002060008473ffffffffffffffffffffffffffffffffffffffff1673ffffffffffffffffffffffffffffffffffffffff168152602001908152602001600020819055508173ffffffffffffffffffffffffffffffffffffffff168373ffffffffffffffffffffffffffffffffffffffff167f8c5be1e5ebec7d5bd14f71427d1e84f3dd0314c0f7b2291e5b200ac8c7c3b9258360405161225a9190613c92565b60405180910390a3505050565b600073ffffffffffffffffffffffffffffffffffffffff168373ffffffffffffffffffffffffffffffffffffffff1614156122d7576040517f08c379a00000000000000000000000000000000000000000000000000000000081526004016122ce90614913565b60405180910390fd5b600073ffffffffffffffffffffffffffffffffffffffff168273ffffffffffffffffffffffffffffffffffffffff161415612347576040517f08c379a000000000000000000000000000000000000000000000000000000000815260040161233e906149a5565b60405180910390fd5b612352838383612e09565b6000603360008573ffffffffffffffffffffffffffffffffffffffff1673ffffffffffffffffffffffffffffffffffffffff168152602001908152602001600020549050818110156123d9576040517f08c379a00000000000000000000000000000000000000000000000000000000081526004016123d090614a37565b60405180910390fd5b818103603360008673ffffffffffffffffffffffffffffffffffffffff1673ffffffffffffffffffffffffffffffffffffffff1681526020019081526020016000208190555081603360008573ffffffffffffffffffffffffffffffffffffffff1673ffffffffffffffffffffffffffffffffffffffff168152602001908152602001600020600082825461246e919061415b565b925050819055508273ffffffffffffffffffffffffffffffffffffffff168473ffffffffffffffffffffffffffffffffffffffff167fddf252ad1be2c89b69c2b068fc378daa952ba7f163c4a11628f55a4df523b3ef846040516124d29190613c92565b60405180910390a36124e5848484612f35565b50505050565b6124f482610d39565b61250581612500611cbd565b611cc5565b61250f8383612f3a565b505050565b600061253c836000018373ffffffffffffffffffffffffffffffffffffffff1660001b61301b565b905092915050565b61254e828261308b565b6125748161012d600085815260200190815260200160002061310e90919063ffffffff16565b505050565b6125816110e6565b6125c0576040517f08c379a00000000000000000000000000000000000000000000000000000000081526004016125b790614aa3565b60405180910390fd5b6000609760006101000a81548160ff0219169083151502179055507f5db9ee0a495bf2e6ff9c91a7834c1ba4fdd244a5e8aa4e537bd38aeae4b073aa612604611cbd565b6040516126119190613e4c565b60405180910390a1565b600060019054906101000a900460ff1680612641575060008054906101000a900460ff16155b612680576040517f08c379a000000000000000000000000000000000000000000000000000000000815260040161267790614355565b60405180910390fd5b60008060019054906101000a900460ff1615905080156126d0576001600060016101000a81548160ff02191690831515021790555060016000806101000a81548160ff0219169083151502179055505b6126d861313e565b6126e28383613217565b80156127035760008060016101000a81548160ff0219169083151502179055505b505050565b600060019054906101000a900460ff168061272e575060008054906101000a900460ff16155b61276d576040517f08c379a000000000000000000000000000000000000000000000000000000000815260040161276490614355565b60405180910390fd5b60008060019054906101000a900460ff1615905080156127bd576001600060016101000a81548160ff02191690831515021790555060016000806101000a81548160ff0219169083151502179055505b6127c561313e565b6127cd613320565b80156127ee5760008060016101000a81548160ff0219169083151502179055505b50565b600060019054906101000a900460ff1680612817575060008054906101000a900460ff16155b612856576040517f08c379a000000000000000000000000000000000000000000000000000000000815260040161284d90614355565b60405180910390fd5b60008060019054906101000a900460ff1615905080156128a6576001600060016101000a81548160ff02191690831515021790555060016000806101000a81548160ff0219169083151502179055505b6128ae61313e565b6128b66133f9565b80156128d75760008060016101000a81548160ff0219169083151502179055505b50565b600060019054906101000a900460ff1680612900575060008054906101000a900460ff16155b61293f576040517f08c379a000000000000000000000000000000000000000000000000000000000815260040161293690614355565b60405180910390fd5b60008060019054906101000a900460ff16159050801561298f576001600060016101000a81548160ff02191690831515021790555060016000806101000a81548160ff0219169083151502179055505b61299761313e565b61299f6134ed565b6129a76135c6565b80156129c85760008060016101000a81548160ff0219169083151502179055505b50565b6129d5828261369f565b6129fb8161012d600085815260200190815260200160002061251490919063ffffffff16565b505050565b6000612a0b83610d39565b90508160fb6000858152602001908152602001600020600101819055508181847fbd79b86ffe0ab8e8776151514217cd7cacd52c909f66475c3af44e129f0b00ff60405160405180910390a4505050565b612a646110e6565b15612aa4576040517f08c379a0000000000000000000000000000000000000000000000000000000008152600401612a9b90614b0f565b60405180910390fd5b6001609760006101000a81548160ff0219169083151502179055507f62e78cea01bee320cd4e420270b5ea74000d11b0c9f74754ebdbfc544b05a258612ae8611cbd565b604051612af59190613e4c565b60405180910390a1565b6000612b0e83600001836136ad565b60001c905092915050565b6000612b27826000016136d8565b9050919050565b612b3882826136e9565b612b5e8161012d600085815260200190815260200160002061310e90919063ffffffff16565b505050565b60007f01ffc9a7000000000000000000000000000000000000000000000000000000007bffffffffffffffffffffffffffffffffffffffffffffffffffffffff1916827bffffffffffffffffffffffffffffffffffffffffffffffffffffffff1916149050919050565b606060006002836002612be09190613f37565b612bea919061415b565b67ffffffffffffffff811115612c0357612c02614b2f565b5b6040519080825280601f01601f191660200182016040528015612c355781602001600182028036833780820191505090505b5090507f300000000000000000000000000000000000000000000000000000000000000081600081518110612c6d57612c6c614b5e565b5b60200101907effffffffffffffffffffffffffffffffffffffffffffffffffffffffffffff1916908160001a9053507f780000000000000000000000000000000000000000000000000000000000000081600181518110612cd157612cd0614b5e565b5b60200101907effffffffffffffffffffffffffffffffffffffffffffffffffffffffffffff1916908160001a90535060006001846002612d119190613f37565b612d1b919061415b565b90505b6001811115612dbb577f3031323334353637383961626364656600000000000000000000000000000000600f861660108110612d5d57612d5c614b5e565b5b1a60f81b828281518110612d7457612d73614b5e565b5b60200101907effffffffffffffffffffffffffffffffffffffffffffffffffffffffffffff1916908160001a905350600485901c945080612db490614b8d565b9050612d1e565b5060008414612dff576040517f08c379a0000000000000000000000000000000000000000000000000000000008152600401612df690614c03565b60405180910390fd5b8091505092915050565b612e116110e6565b15612e51576040517f08c379a0000000000000000000000000000000000000000000000000000000008152600401612e4890614b0f565b60405180910390fd5b612e7b7f5edc4fd0544f0b4b53f14f295fb04bbd6fdbc1bea1fd8edf5851b385aee145d5846115da565b15612ebb576040517f08c379a0000000000000000000000000000000000000000000000000000000008152600401612eb290614c6f565b60405180910390fd5b612ee57f5edc4fd0544f0b4b53f14f295fb04bbd6fdbc1bea1fd8edf5851b385aee145d5836115da565b15612f25576040517f08c379a0000000000000000000000000000000000000000000000000000000008152600401612f1c90614cdb565b60405180910390fd5b612f30838383613712565b505050565b505050565b612f4482826115da565b61301757600160fb600084815260200190815260200160002060000160008373ffffffffffffffffffffffffffffffffffffffff1673ffffffffffffffffffffffffffffffffffffffff16815260200190815260200160002060006101000a81548160ff021916908315150217905550612fbc611cbd565b73ffffffffffffffffffffffffffffffffffffffff168173ffffffffffffffffffffffffffffffffffffffff16837f2f8788117e7eff1d82e926ec794901d17c78024a50270940304540a733656f0d60405160405180910390a45b5050565b60006130278383613717565b613080578260000182908060018154018082558091505060019003906000526020600020016000909190919091505582600001805490508360010160008481526020019081526020016000208190555060019050613085565b600090505b92915050565b613093611cbd565b73ffffffffffffffffffffffffffffffffffffffff168173ffffffffffffffffffffffffffffffffffffffff1614613100576040517f08c379a00000000000000000000000000000000000000000000000000000000081526004016130f790614d6d565b60405180910390fd5b61310a828261373a565b5050565b6000613136836000018373ffffffffffffffffffffffffffffffffffffffff1660001b61381c565b905092915050565b600060019054906101000a900460ff1680613164575060008054906101000a900460ff16155b6131a3576040517f08c379a000000000000000000000000000000000000000000000000000000000815260040161319a90614355565b60405180910390fd5b60008060019054906101000a900460ff1615905080156131f3576001600060016101000a81548160ff02191690831515021790555060016000806101000a81548160ff0219169083151502179055505b80156132145760008060016101000a81548160ff0219169083151502179055505b50565b600060019054906101000a900460ff168061323d575060008054906101000a900460ff16155b61327c576040517f08c379a000000000000000000000000000000000000000000000000000000000815260040161327390614355565b60405180910390fd5b60008060019054906101000a900460ff1615905080156132cc576001600060016101000a81548160ff02191690831515021790555060016000806101000a81548160ff0219169083151502179055505b82603690805190602001906132e2929190613930565b5081603790805190602001906132f9929190613930565b50801561331b5760008060016101000a81548160ff0219169083151502179055505b505050565b600060019054906101000a900460ff1680613346575060008054906101000a900460ff16155b613385576040517f08c379a000000000000000000000000000000000000000000000000000000000815260040161337c90614355565b60405180910390fd5b60008060019054906101000a900460ff1615905080156133d5576001600060016101000a81548160ff02191690831515021790555060016000806101000a81548160ff0219169083151502179055505b80156133f65760008060016101000a81548160ff0219169083151502179055505b50565b600060019054906101000a900460ff168061341f575060008054906101000a900460ff16155b61345e576040517f08c379a000000000000000000000000000000000000000000000000000000000815260040161345590614355565b60405180910390fd5b60008060019054906101000a900460ff1615905080156134ae576001600060016101000a81548160ff02191690831515021790555060016000806101000a81548160ff0219169083151502179055505b6000609760006101000a81548160ff02191690831515021790555080156134ea5760008060016101000a81548160ff0219169083151502179055505b50565b600060019054906101000a900460ff1680613513575060008054906101000a900460ff16155b613552576040517f08c379a000000000000000000000000000000000000000000000000000000000815260040161354990614355565b60405180910390fd5b60008060019054906101000a900460ff1615905080156135a2576001600060016101000a81548160ff02191690831515021790555060016000806101000a81548160ff0219169083151502179055505b80156135c35760008060016101000a81548160ff0219169083151502179055505b50565b600060019054906101000a900460ff16806135ec575060008054906101000a900460ff16155b61362b576040517f08c379a000000000000000000000000000000000000000000000000000000000815260040161362290614355565b60405180910390fd5b60008060019054906101000a900460ff16159050801561367b576001600060016101000a81548160ff02191690831515021790555060016000806101000a81548160ff0219169083151502179055505b801561369c5760008060016101000a81548160ff0219169083151502179055505b50565b6136a98282612f3a565b5050565b60008260000182815481106136c5576136c4614b5e565b5b9060005260206000200154905092915050565b600081600001805490509050919050565b6136f282610d39565b613703816136fe611cbd565b611cc5565b61370d838361373a565b505050565b505050565b600080836001016000848152602001908152602001600020541415905092915050565b61374482826115da565b1561381857600060fb600084815260200190815260200160002060000160008373ffffffffffffffffffffffffffffffffffffffff1673ffffffffffffffffffffffffffffffffffffffff16815260200190815260200160002060006101000a81548160ff0219169083151502179055506137bd611cbd565b73ffffffffffffffffffffffffffffffffffffffff168173ffffffffffffffffffffffffffffffffffffffff16837ff6391f5c32d9c69d2a47ea670b442974b53935d1edc7fd64eb21e047a839171b60405160405180910390a45b5050565b6000808360010160008481526020019081526020016000205490506000811461392457600060018261384e919061421d565b9050600060018660000180549050613866919061421d565b90508181146138d557600086600001828154811061388757613886614b5e565b5b90600052602060002001549050808760000184815481106138ab576138aa614b5e565b5b90600052602060002001819055508387600101600083815260200190815260200160002081905550505b856000018054806138e9576138e8614d8d565b5b60019003818190600052602060002001600090559055856001016000868152602001908152602001600020600090556001935050505061392a565b60009150505b92915050565b82805461393c90613ed6565b90600052602060002090601f01602090048101928261395e57600085556139a5565b82601f1061397757805160ff19168380011785556139a5565b828001600101855582156139a5579182015b828111156139a4578251825591602001919060010190613989565b5b5090506139b291906139b6565b5090565b5b808211156139cf5760008160009055506001016139b7565b5090565b600080fd5b60007fffffffff0000000000000000000000000000000000000000000000000000000082169050919050565b613a0d816139d8565b8114613a1857600080fd5b50565b600081359050613a2a81613a04565b92915050565b600060208284031215613a4657613a456139d3565b5b6000613a5484828501613a1b565b91505092915050565b60008115159050919050565b613a7281613a5d565b82525050565b6000602082019050613a8d6000830184613a69565b92915050565b600073ffffffffffffffffffffffffffffffffffffffff82169050919050565b6000613abe82613a93565b9050919050565b613ace81613ab3565b8114613ad957600080fd5b50565b600081359050613aeb81613ac5565b92915050565b600060208284031215613b0757613b066139d3565b5b6000613b1584828501613adc565b91505092915050565b6000819050919050565b613b3181613b1e565b82525050565b6000602082019050613b4c6000830184613b28565b92915050565b600081519050919050565b600082825260208201905092915050565b60005b83811015613b8c578082015181840152602081019050613b71565b83811115613b9b576000848401525b50505050565b6000601f19601f8301169050919050565b6000613bbd82613b52565b613bc78185613b5d565b9350613bd7818560208601613b6e565b613be081613ba1565b840191505092915050565b60006020820190508181036000830152613c058184613bb2565b905092915050565b6000819050919050565b613c2081613c0d565b8114613c2b57600080fd5b50565b600081359050613c3d81613c17565b92915050565b60008060408385031215613c5a57613c596139d3565b5b6000613c6885828601613adc565b9250506020613c7985828601613c2e565b9150509250929050565b613c8c81613c0d565b82525050565b6000602082019050613ca76000830184613c83565b92915050565b600080600060608486031215613cc657613cc56139d3565b5b6000613cd486828701613adc565b9350506020613ce586828701613adc565b9250506040613cf686828701613c2e565b9150509250925092565b613d0981613b1e565b8114613d1457600080fd5b50565b600081359050613d2681613d00565b92915050565b600060208284031215613d4257613d416139d3565b5b6000613d5084828501613d17565b91505092915050565b60008060408385031215613d7057613d6f6139d3565b5b6000613d7e85828601613d17565b9250506020613d8f85828601613adc565b9150509250929050565b600060ff82169050919050565b613daf81613d99565b82525050565b6000602082019050613dca6000830184613da6565b92915050565b600060208284031215613de657613de56139d3565b5b6000613df484828501613c2e565b91505092915050565b60008060408385031215613e1457613e136139d3565b5b6000613e2285828601613d17565b9250506020613e3385828601613c2e565b9150509250929050565b613e4681613ab3565b82525050565b6000602082019050613e616000830184613e3d565b92915050565b60008060408385031215613e7e57613e7d6139d3565b5b6000613e8c85828601613adc565b9250506020613e9d85828601613adc565b9150509250929050565b7f4e487b7100000000000000000000000000000000000000000000000000000000600052602260045260246000fd5b60006002820490506001821680613eee57607f821691505b60208210811415613f0257613f01613ea7565b5b50919050565b7f4e487b7100000000000000000000000000000000000000000000000000000000600052601160045260246000fd5b6000613f4282613c0d565b9150613f4d83613c0d565b9250817fffffffffffffffffffffffffffffffffffffffffffffffffffffffffffffffff0483118215151615613f8657613f85613f08565b5b828202905092915050565b7f4e487b7100000000000000000000000000000000000000000000000000000000600052601260045260246000fd5b6000613fcb82613c0d565b9150613fd683613c0d565b925082613fe657613fe5613f91565b5b828204905092915050565b7f45524332303a207472616e7366657220616d6f756e742065786365656473206160008201527f6c6c6f77616e6365000000000000000000000000000000000000000000000000602082015250565b600061404d602883613b5d565b915061405882613ff1565b604082019050919050565b6000602082019050818103600083015261407c81614040565b9050919050565b7f4f6e6c7920726f6c652061646d696e2063616e207265766f6b652e0000000000600082015250565b60006140b9601b83613b5d565b91506140c482614083565b602082019050919050565b600060208201905081810360008301526140e8816140ac565b9050919050565b7f436f6e7472616374207265717569726573206f6e652061646d696e0000000000600082015250565b6000614125601b83613b5d565b9150614130826140ef565b602082019050919050565b6000602082019050818103600083015261415481614118565b9050919050565b600061416682613c0d565b915061417183613c0d565b9250827fffffffffffffffffffffffffffffffffffffffffffffffffffffffffffffffff038211156141a6576141a5613f08565b5b828201905092915050565b7f526563697069656e74206d7573742062652077686974656c69737465642e0000600082015250565b60006141e7601e83613b5d565b91506141f2826141b1565b602082019050919050565b60006020820190508181036000830152614216816141da565b9050919050565b600061422882613c0d565b915061423383613c0d565b92508282101561424657614245613f08565b5b828203905092915050565b7f45524332303a206275726e20616d6f756e74206578636565647320616c6c6f7760008201527f616e636500000000000000000000000000000000000000000000000000000000602082015250565b60006142ad602483613b5d565b91506142b882614251565b604082019050919050565b600060208201905081810360008301526142dc816142a0565b9050919050565b7f496e697469616c697a61626c653a20636f6e747261637420697320616c72656160008201527f647920696e697469616c697a6564000000000000000000000000000000000000602082015250565b600061433f602e83613b5d565b915061434a826142e3565b604082019050919050565b6000602082019050818103600083015261436e81614332565b9050919050565b7f45524332303a2064656372656173656420616c6c6f77616e63652062656c6f7760008201527f207a65726f000000000000000000000000000000000000000000000000000000602082015250565b60006143d1602583613b5d565b91506143dc82614375565b604082019050919050565b60006020820190508181036000830152614400816143c4565b9050919050565b7f4e6577205261746520546f6f204c617267650000000000000000000000000000600082015250565b600061443d601283613b5d565b915061444882614407565b602082019050919050565b6000602082019050818103600083015261446c81614430565b9050919050565b7f4e6577205261746520546f6f20536d616c6c0000000000000000000000000000600082015250565b60006144a9601283613b5d565b91506144b482614473565b602082019050919050565b600060208201905081810360008301526144d88161449c565b9050919050565b600081905092915050565b7f416363657373436f6e74726f6c3a206163636f756e7420000000000000000000600082015250565b60006145206017836144df565b915061452b826144ea565b601782019050919050565b600061454182613b52565b61454b81856144df565b935061455b818560208601613b6e565b80840191505092915050565b7f206973206d697373696e6720726f6c6520000000000000000000000000000000600082015250565b600061459d6011836144df565b91506145a882614567565b601182019050919050565b60006145be82614513565b91506145ca8285614536565b91506145d582614590565b91506145e18284614536565b91508190509392505050565b7f45524332303a206d696e7420746f20746865207a65726f206164647265737300600082015250565b6000614623601f83613b5d565b915061462e826145ed565b602082019050919050565b6000602082019050818103600083015261465281614616565b9050919050565b7f45524332303a206275726e2066726f6d20746865207a65726f2061646472657360008201527f7300000000000000000000000000000000000000000000000000000000000000602082015250565b60006146b5602183613b5d565b91506146c082614659565b604082019050919050565b600060208201905081810360008301526146e4816146a8565b9050919050565b7f45524332303a206275726e20616d6f756e7420657863656564732062616c616e60008201527f6365000000000000000000000000000000000000000000000000000000000000602082015250565b6000614747602283613b5d565b9150614752826146eb565b604082019050919050565b600060208201905081810360008301526147768161473a565b9050919050565b7f45524332303a20617070726f76652066726f6d20746865207a65726f2061646460008201527f7265737300000000000000000000000000000000000000000000000000000000602082015250565b60006147d9602483613b5d565b91506147e48261477d565b604082019050919050565b60006020820190508181036000830152614808816147cc565b9050919050565b7f45524332303a20617070726f766520746f20746865207a65726f20616464726560008201527f7373000000000000000000000000000000000000000000000000000000000000602082015250565b600061486b602283613b5d565b91506148768261480f565b604082019050919050565b6000602082019050818103600083015261489a8161485e565b9050919050565b7f45524332303a207472616e736665722066726f6d20746865207a65726f20616460008201527f6472657373000000000000000000000000000000000000000000000000000000602082015250565b60006148fd602583613b5d565b9150614908826148a1565b604082019050919050565b6000602082019050818103600083015261492c816148f0565b9050919050565b7f45524332303a207472616e7366657220746f20746865207a65726f206164647260008201527f6573730000000000000000000000000000000000000000000000000000000000602082015250565b600061498f602383613b5d565b915061499a82614933565b604082019050919050565b600060208201905081810360008301526149be81614982565b9050919050565b7f45524332303a207472616e7366657220616d6f756e742065786365656473206260008201527f616c616e63650000000000000000000000000000000000000000000000000000602082015250565b6000614a21602683613b5d565b9150614a2c826149c5565b604082019050919050565b60006020820190508181036000830152614a5081614a14565b9050919050565b7f5061757361626c653a206e6f7420706175736564000000000000000000000000600082015250565b6000614a8d601483613b5d565b9150614a9882614a57565b602082019050919050565b60006020820190508181036000830152614abc81614a80565b9050919050565b7f5061757361626c653a2070617573656400000000000000000000000000000000600082015250565b6000614af9601083613b5d565b9150614b0482614ac3565b602082019050919050565b60006020820190508181036000830152614b2881614aec565b9050919050565b7f4e487b7100000000000000000000000000000000000000000000000000000000600052604160045260246000fd5b7f4e487b7100000000000000000000000000000000000000000000000000000000600052603260045260246000fd5b6000614b9882613c0d565b91506000821415614bac57614bab613f08565b5b600182039050919050565b7f537472696e67733a20686578206c656e67746820696e73756666696369656e74600082015250565b6000614bed602083613b5d565b9150614bf882614bb7565b602082019050919050565b60006020820190508181036000830152614c1c81614be0565b9050919050565b7f53656e6465722069732063757272656e746c792066726f7a656e2e0000000000600082015250565b6000614c59601b83613b5d565b9150614c6482614c23565b602082019050919050565b60006020820190508181036000830152614c8881614c4c565b9050919050565b7f526563697069656e742069732063757272656e746c792066726f7a656e2e0000600082015250565b6000614cc5601e83613b5d565b9150614cd082614c8f565b602082019050919050565b60006020820190508181036000830152614cf481614cb8565b9050919050565b7f416363657373436f6e74726f6c3a2063616e206f6e6c792072656e6f756e636560008201527f20726f6c657320666f722073656c660000000000000000000000000000000000602082015250565b6000614d57602f83613b5d565b9150614d6282614cfb565b604082019050919050565b60006020820190508181036000830152614d8681614d4a565b9050919050565b7f4e487b7100000000000000000000000000000000000000000000000000000000600052603160045260246000fdfea2646970667358221220f76412ebd7842e713ef8852ed61d23382b4cbeecb551d29cb73603ce7e5d8efa64736f6c634300080b0033",
  "linkReferences": {},
  "deployedLinkReferences": {}
}