{
  "_format": "hh-sol-artifact-1",
  "contractName": "METLV3",
  "sourceName": "contracts/METLV3.sol",
  "abi": [
    {
      "anonymous": false,
      "inputs": [
        {
          "indexed": true,
          "internalType": "address",
          "name": "owner",
          "type": "address"
        },
        {
          "indexed": true,
          "internalType": "address",
          "name": "spender",
          "type": "address"
        },
        {
          "indexed": false,
          "internalType": "uint256",
          "name": "value",
          "type": "uint256"
        }
      ],
      "name": "Approval",
      "type": "event"
    },
    {
      "anonymous": false,
      "inputs": [
        {
          "indexed": true,
          "internalType": "address",
          "name": "feeCollector",
          "type": "address"
        },
        {
          "indexed": true,
          "internalType": "uint256",
          "name": "fee",
          "type": "uint256"
        },
        {
          "indexed": true,
          "internalType": "bytes32",
          "name": "actionId",
          "type": "bytes32"
        }
      ],
      "name": "BurnFee",
      "type": "event"
    },
    {
      "anonymous": false,
      "inputs": [
        {
          "indexed": true,
          "internalType": "address",
          "name": "recipient",
          "type": "address"
        },
        {
          "indexed": true,
          "internalType": "uint256",
          "name": "amount",
          "type": "uint256"
        },
        {
          "indexed": true,
          "internalType": "bytes32",
          "name": "transferId",
          "type": "bytes32"
        },
        {
          "indexed": false,
          "internalType": "uint256",
          "name": "mintUnlockTime",
          "type": "uint256"
        },
        {
          "indexed": false,
          "internalType": "uint256",
          "name": "commitUnlockTime",
          "type": "uint256"
        },
        {
          "indexed": false,
          "internalType": "address",
          "name": "limitedMinter",
          "type": "address"
        }
      ],
      "name": "Commit",
      "type": "event"
    },
    {
      "anonymous": false,
      "inputs": [
        {
          "indexed": true,
          "internalType": "address",
          "name": "feeCollector",
          "type": "address"
        },
        {
          "indexed": true,
          "internalType": "uint256",
          "name": "fee",
          "type": "uint256"
        },
        {
          "indexed": true,
          "internalType": "bytes32",
          "name": "transferId",
          "type": "bytes32"
        }
      ],
      "name": "MintFee",
      "type": "event"
    },
    {
      "anonymous": false,
      "inputs": [
        {
          "indexed": false,
          "internalType": "address",
          "name": "account",
          "type": "address"
        }
      ],
      "name": "Paused",
      "type": "event"
    },
    {
      "anonymous": false,
      "inputs": [
        {
          "indexed": true,
          "internalType": "address",
          "name": "recipient",
          "type": "address"
        },
        {
          "indexed": true,
          "internalType": "uint256",
          "name": "amount",
          "type": "uint256"
        },
        {
          "indexed": true,
          "internalType": "bytes32",
          "name": "actionId",
          "type": "bytes32"
        }
      ],
      "name": "ReceivedBurn",
      "type": "event"
    },
    {
      "anonymous": false,
      "inputs": [
        {
          "indexed": true,
          "internalType": "address",
          "name": "recipient",
          "type": "address"
        },
        {
          "indexed": true,
          "internalType": "uint256",
          "name": "amount",
          "type": "uint256"
        },
        {
          "indexed": true,
          "internalType": "bytes32",
          "name": "transferId",
          "type": "bytes32"
        }
      ],
      "name": "ReceivedMint",
      "type": "event"
    },
    {
      "anonymous": false,
      "inputs": [
        {
          "indexed": true,
          "internalType": "bytes32",
          "name": "role",
          "type": "bytes32"
        },
        {
          "indexed": true,
          "internalType": "bytes32",
          "name": "previousAdminRole",
          "type": "bytes32"
        },
        {
          "indexed": true,
          "internalType": "bytes32",
          "name": "newAdminRole",
          "type": "bytes32"
        }
      ],
      "name": "RoleAdminChanged",
      "type": "event"
    },
    {
      "anonymous": false,
      "inputs": [
        {
          "indexed": true,
          "internalType": "bytes32",
          "name": "role",
          "type": "bytes32"
        },
        {
          "indexed": true,
          "internalType": "address",
          "name": "account",
          "type": "address"
        },
        {
          "indexed": true,
          "internalType": "address",
          "name": "sender",
          "type": "address"
        }
      ],
      "name": "RoleGranted",
      "type": "event"
    },
    {
      "anonymous": false,
      "inputs": [
        {
          "indexed": true,
          "internalType": "bytes32",
          "name": "role",
          "type": "bytes32"
        },
        {
          "indexed": true,
          "internalType": "address",
          "name": "account",
          "type": "address"
        },
        {
          "indexed": true,
          "internalType": "address",
          "name": "sender",
          "type": "address"
        }
      ],
      "name": "RoleRevoked",
      "type": "event"
    },
    {
      "anonymous": false,
      "inputs": [
        {
          "indexed": true,
          "internalType": "address",
          "name": "from",
          "type": "address"
        },
        {
          "indexed": true,
          "internalType": "address",
          "name": "to",
          "type": "address"
        },
        {
          "indexed": false,
          "internalType": "uint256",
          "name": "value",
          "type": "uint256"
        }
      ],
      "name": "Transfer",
      "type": "event"
    },
    {
      "anonymous": false,
      "inputs": [
        {
          "indexed": false,
          "internalType": "address",
          "name": "account",
          "type": "address"
        }
      ],
      "name": "Unpaused",
      "type": "event"
    },
    {
      "inputs": [],
      "name": "BASIS_RATE",
      "outputs": [
        {
          "internalType": "uint256",
          "name": "",
          "type": "uint256"
        }
      ],
      "stateMutability": "view",
      "type": "function"
    },
    {
      "inputs": [],
      "name": "BURNER_ROLE",
      "outputs": [
        {
          "internalType": "bytes32",
          "name": "",
          "type": "bytes32"
        }
      ],
      "stateMutability": "view",
      "type": "function"
    },
    {
      "inputs": [],
      "name": "DEFAULT_ADMIN_ROLE",
      "outputs": [
        {
          "internalType": "bytes32",
          "name": "",
          "type": "bytes32"
        }
      ],
      "stateMutability": "view",
      "type": "function"
    },
    {
      "inputs": [],
      "name": "FEE_CONTROLLER",
      "outputs": [
        {
          "internalType": "bytes32",
          "name": "",
          "type": "bytes32"
        }
      ],
      "stateMutability": "view",
      "type": "function"
    },
    {
      "inputs": [],
      "name": "FREEZER_ROLE",
      "outputs": [
        {
          "internalType": "bytes32",
          "name": "",
          "type": "bytes32"
        }
      ],
      "stateMutability": "view",
      "type": "function"
    },
    {
      "inputs": [],
      "name": "FROZEN_USER",
      "outputs": [
        {
          "internalType": "bytes32",
          "name": "",
          "type": "bytes32"
        }
      ],
      "stateMutability": "view",
      "type": "function"
    },
    {
      "inputs": [],
      "name": "LIMITED_MINTER",
      "outputs": [
        {
          "internalType": "bytes32",
          "name": "",
          "type": "bytes32"
        }
      ],
      "stateMutability": "view",
      "type": "function"
    },
    {
      "inputs": [],
      "name": "MINTER_ROLE",
      "outputs": [
        {
          "internalType": "bytes32",
          "name": "",
          "type": "bytes32"
        }
      ],
      "stateMutability": "view",
      "type": "function"
    },
    {
      "inputs": [],
      "name": "PAUSER_ROLE",
      "outputs": [
        {
          "internalType": "bytes32",
          "name": "",
          "type": "bytes32"
        }
      ],
      "stateMutability": "view",
      "type": "function"
    },
    {
      "inputs": [],
      "name": "WHITELIST_USER",
      "outputs": [
        {
          "internalType": "bytes32",
          "name": "",
          "type": "bytes32"
        }
      ],
      "stateMutability": "view",
      "type": "function"
    },
    {
      "inputs": [
        {
          "internalType": "address",
          "name": "owner",
          "type": "address"
        },
        {
          "internalType": "address",
          "name": "spender",
          "type": "address"
        }
      ],
      "name": "allowance",
      "outputs": [
        {
          "internalType": "uint256",
          "name": "",
          "type": "uint256"
        }
      ],
      "stateMutability": "view",
      "type": "function"
    },
    {
      "inputs": [
        {
          "internalType": "address",
          "name": "spender",
          "type": "address"
        },
        {
          "internalType": "uint256",
          "name": "amount",
          "type": "uint256"
        }
      ],
      "name": "approve",
      "outputs": [
        {
          "internalType": "bool",
          "name": "",
          "type": "bool"
        }
      ],
      "stateMutability": "nonpayable",
      "type": "function"
    },
    {
      "inputs": [
        {
          "internalType": "address",
          "name": "account",
          "type": "address"
        }
      ],
      "name": "balanceOf",
      "outputs": [
        {
          "internalType": "uint256",
          "name": "",
          "type": "uint256"
        }
      ],
      "stateMutability": "view",
      "type": "function"
    },
    {
      "inputs": [
        {
          "internalType": "address",
          "name": "target",
          "type": "address"
        },
        {
          "internalType": "uint256",
          "name": "amount",
          "type": "uint256"
        },
        {
          "internalType": "bytes32",
          "name": "actionId",
          "type": "bytes32"
        }
      ],
      "name": "burn",
      "outputs": [],
      "stateMutability": "nonpayable",
      "type": "function"
    },
    {
      "inputs": [
        {
          "internalType": "uint256",
          "name": "amount",
          "type": "uint256"
        }
      ],
      "name": "burn",
      "outputs": [],
      "stateMutability": "nonpayable",
      "type": "function"
    },
    {
      "inputs": [
        {
          "internalType": "address",
          "name": "account",
          "type": "address"
        },
        {
          "internalType": "uint256",
          "name": "amount",
          "type": "uint256"
        }
      ],
      "name": "burnFrom",
      "outputs": [],
      "stateMutability": "nonpayable",
      "type": "function"
    },
    {
      "inputs": [],
      "name": "commitCooldown",
      "outputs": [
        {
          "internalType": "uint256",
          "name": "",
          "type": "uint256"
        }
      ],
      "stateMutability": "view",
      "type": "function"
    },
    {
      "inputs": [
        {
          "internalType": "address",
          "name": "recipient",
          "type": "address"
        },
        {
          "internalType": "uint256",
          "name": "amount",
          "type": "uint256"
        },
        {
          "internalType": "bytes32",
          "name": "transferId",
          "type": "bytes32"
        }
      ],
      "name": "commitMint",
      "outputs": [],
      "stateMutability": "nonpayable",
      "type": "function"
    },
    {
      "inputs": [
        {
          "internalType": "address",
          "name": "",
          "type": "address"
        }
      ],
      "name": "commitUnlock",
      "outputs": [
        {
          "internalType": "uint256",
          "name": "",
          "type": "uint256"
        }
      ],
      "stateMutability": "view",
      "type": "function"
    },
    {
      "inputs": [],
      "name": "cooldownMultiplier",
      "outputs": [
        {
          "internalType": "uint256",
          "name": "",
          "type": "uint256"
        }
      ],
      "stateMutability": "view",
      "type": "function"
    },
    {
      "inputs": [],
      "name": "currentFeeCollector",
      "outputs": [
        {
          "internalType": "address",
          "name": "",
          "type": "address"
        }
      ],
      "stateMutability": "view",
      "type": "function"
    },
    {
      "inputs": [],
      "name": "decimals",
      "outputs": [
        {
          "internalType": "uint8",
          "name": "",
          "type": "uint8"
        }
      ],
      "stateMutability": "view",
      "type": "function"
    },
    {
      "inputs": [
        {
          "internalType": "address",
          "name": "spender",
          "type": "address"
        },
        {
          "internalType": "uint256",
          "name": "subtractedValue",
          "type": "uint256"
        }
      ],
      "name": "decreaseAllowance",
      "outputs": [
        {
          "internalType": "bool",
          "name": "",
          "type": "bool"
        }
      ],
      "stateMutability": "nonpayable",
      "type": "function"
    },
    {
      "inputs": [],
      "name": "freeBurning",
      "outputs": [
        {
          "internalType": "bool",
          "name": "",
          "type": "bool"
        }
      ],
      "stateMutability": "view",
      "type": "function"
    },
    {
      "inputs": [],
      "name": "freeMinting",
      "outputs": [
        {
          "internalType": "bool",
          "name": "",
          "type": "bool"
        }
      ],
      "stateMutability": "view",
      "type": "function"
    },
    {
      "inputs": [
        {
          "internalType": "bytes32",
          "name": "role",
          "type": "bytes32"
        }
      ],
      "name": "getRoleAdmin",
      "outputs": [
        {
          "internalType": "bytes32",
          "name": "",
          "type": "bytes32"
        }
      ],
      "stateMutability": "view",
      "type": "function"
    },
    {
      "inputs": [
        {
          "internalType": "bytes32",
          "name": "role",
          "type": "bytes32"
        },
        {
          "internalType": "uint256",
          "name": "index",
          "type": "uint256"
        }
      ],
      "name": "getRoleMember",
      "outputs": [
        {
          "internalType": "address",
          "name": "",
          "type": "address"
        }
      ],
      "stateMutability": "view",
      "type": "function"
    },
    {
      "inputs": [
        {
          "internalType": "bytes32",
          "name": "role",
          "type": "bytes32"
        }
      ],
      "name": "getRoleMemberCount",
      "outputs": [
        {
          "internalType": "uint256",
          "name": "",
          "type": "uint256"
        }
      ],
      "stateMutability": "view",
      "type": "function"
    },
    {
      "inputs": [
        {
          "internalType": "bytes32",
          "name": "role",
          "type": "bytes32"
        },
        {
          "internalType": "address",
          "name": "account",
          "type": "address"
        }
      ],
      "name": "grantRole",
      "outputs": [],
      "stateMutability": "nonpayable",
      "type": "function"
    },
    {
      "inputs": [
        {
          "internalType": "bytes32",
          "name": "role",
          "type": "bytes32"
        },
        {
          "internalType": "address",
          "name": "account",
          "type": "address"
        }
      ],
      "name": "hasRole",
      "outputs": [
        {
          "internalType": "bool",
          "name": "",
          "type": "bool"
        }
      ],
      "stateMutability": "view",
      "type": "function"
    },
    {
      "inputs": [
        {
          "internalType": "address",
          "name": "spender",
          "type": "address"
        },
        {
          "internalType": "uint256",
          "name": "addedValue",
          "type": "uint256"
        }
      ],
      "name": "increaseAllowance",
      "outputs": [
        {
          "internalType": "bool",
          "name": "",
          "type": "bool"
        }
      ],
      "stateMutability": "nonpayable",
      "type": "function"
    },
    {
      "inputs": [],
      "name": "initialize",
      "outputs": [],
      "stateMutability": "nonpayable",
      "type": "function"
    },
    {
      "inputs": [
        {
          "internalType": "address",
          "name": "recipient",
          "type": "address"
        },
        {
          "internalType": "uint256",
          "name": "amount",
          "type": "uint256"
        },
        {
          "internalType": "bytes32",
          "name": "transferId",
          "type": "bytes32"
        }
      ],
      "name": "limitedMint",
      "outputs": [],
      "stateMutability": "nonpayable",
      "type": "function"
    },
    {
      "inputs": [
        {
          "internalType": "address",
          "name": "recipient",
          "type": "address"
        },
        {
          "internalType": "uint256",
          "name": "amount",
          "type": "uint256"
        },
        {
          "internalType": "bytes32",
          "name": "transferId",
          "type": "bytes32"
        }
      ],
      "name": "mint",
      "outputs": [],
      "stateMutability": "nonpayable",
      "type": "function"
    },
    {
      "inputs": [],
      "name": "name",
      "outputs": [
        {
          "internalType": "string",
          "name": "",
          "type": "string"
        }
      ],
      "stateMutability": "view",
      "type": "function"
    },
    {
      "inputs": [],
      "name": "pause",
      "outputs": [],
      "stateMutability": "nonpayable",
      "type": "function"
    },
    {
      "inputs": [],
      "name": "paused",
      "outputs": [
        {
          "internalType": "bool",
          "name": "",
          "type": "bool"
        }
      ],
      "stateMutability": "view",
      "type": "function"
    },
    {
      "inputs": [
        {
          "internalType": "bytes32",
          "name": "role",
          "type": "bytes32"
        },
        {
          "internalType": "address",
          "name": "account",
          "type": "address"
        }
      ],
      "name": "renounceRole",
      "outputs": [],
      "stateMutability": "nonpayable",
      "type": "function"
    },
    {
      "inputs": [
        {
          "internalType": "bytes32",
          "name": "role",
          "type": "bytes32"
        },
        {
          "internalType": "address",
          "name": "account",
          "type": "address"
        }
      ],
      "name": "revokeRole",
      "outputs": [],
      "stateMutability": "nonpayable",
      "type": "function"
    },
    {
      "inputs": [],
      "name": "setBurnFeeStatus",
      "outputs": [],
      "stateMutability": "nonpayable",
      "type": "function"
    },
    {
      "inputs": [
        {
          "internalType": "bool",
          "name": "newFreeBurning",
          "type": "bool"
        },
        {
          "internalType": "bool",
          "name": "newFreeMinting",
          "type": "bool"
        },
        {
          "internalType": "uint256",
          "name": "newCommitCooldown",
          "type": "uint256"
        },
        {
          "internalType": "uint256",
          "name": "newCooldownMultiplier",
          "type": "uint256"
        }
      ],
      "name": "setControls",
      "outputs": [],
      "stateMutability": "nonpayable",
      "type": "function"
    },
    {
      "inputs": [
        {
          "internalType": "address",
          "name": "feeCollector",
          "type": "address"
        }
      ],
      "name": "setFeeCollector",
      "outputs": [],
      "stateMutability": "nonpayable",
      "type": "function"
    },
    {
      "inputs": [],
      "name": "setMintFeeStatus",
      "outputs": [],
      "stateMutability": "nonpayable",
      "type": "function"
    },
    {
      "inputs": [
        {
          "internalType": "bytes4",
          "name": "interfaceId",
          "type": "bytes4"
        }
      ],
      "name": "supportsInterface",
      "outputs": [
        {
          "internalType": "bool",
          "name": "",
          "type": "bool"
        }
      ],
      "stateMutability": "view",
      "type": "function"
    },
    {
      "inputs": [],
      "name": "symbol",
      "outputs": [
        {
          "internalType": "string",
          "name": "",
          "type": "string"
        }
      ],
      "stateMutability": "view",
      "type": "function"
    },
    {
      "inputs": [],
      "name": "totalSupply",
      "outputs": [
        {
          "internalType": "uint256",
          "name": "",
          "type": "uint256"
        }
      ],
      "stateMutability": "view",
      "type": "function"
    },
    {
      "inputs": [
        {
          "internalType": "address",
          "name": "to",
          "type": "address"
        },
        {
          "internalType": "uint256",
          "name": "amount",
          "type": "uint256"
        }
      ],
      "name": "transfer",
      "outputs": [
        {
          "internalType": "bool",
          "name": "",
          "type": "bool"
        }
      ],
      "stateMutability": "nonpayable",
      "type": "function"
    },
    {
      "inputs": [
        {
          "internalType": "address",
          "name": "from",
          "type": "address"
        },
        {
          "internalType": "address",
          "name": "to",
          "type": "address"
        },
        {
          "internalType": "uint256",
          "name": "amount",
          "type": "uint256"
        }
      ],
      "name": "transferFrom",
      "outputs": [
        {
          "internalType": "bool",
          "name": "",
          "type": "bool"
        }
      ],
      "stateMutability": "nonpayable",
      "type": "function"
    },
    {
      "inputs": [],
      "name": "unpause",
      "outputs": [],
      "stateMutability": "nonpayable",
      "type": "function"
    },
    {
      "inputs": [
        {
          "internalType": "uint256",
          "name": "newRate",
          "type": "uint256"
        }
      ],
      "name": "updateVariableRate",
      "outputs": [],
      "stateMutability": "nonpayable",
      "type": "function"
    },
    {
      "inputs": [],
      "name": "variableRate",
      "outputs": [
        {
          "internalType": "uint256",
          "name": "",
          "type": "uint256"
        }
      ],
      "stateMutability": "view",
      "type": "function"
    }
  ],
  "bytecode": "0x608060405234801561001057600080fd5b50614ec2806100206000396000f3fe608060405234801561001057600080fd5b50600436106102f15760003560e01c806379cc67901161019d578063aac41dac116100e9578063d547741f116100a2578063dd62ed3e1161007c578063dd62ed3e146108d4578063e63ab1e914610904578063f34b307914610922578063fc5c69ba14610940576102f1565b8063d547741f1461087c578063d911e39b14610898578063dc59e8c7146108b6576102f1565b8063aac41dac146107bc578063afe45f87146107d8578063bd254d4c146107f6578063ca15c87314610812578063cc5907e114610842578063d53913931461085e576102f1565b806395d89b4111610156578063a457c2d711610130578063a457c2d714610734578063a583567014610764578063a80da81c14610782578063a9059cbb1461078c576102f1565b806395d89b41146106dc578063a217fddf146106fa578063a42dce8014610718576102f1565b806379cc67901461062e5780638129fc1c1461064a5780638456cb5914610654578063866006a61461065e5780639010d07c1461067c57806391d14854146106ac576102f1565b80632f2ff15d1161025c5780633f4ba83a116102155780635502f287116101ef5780635502f287146105a45780635c975abb146105c25780636cea8372146105e057806370a08231146105fe576102f1565b80633f4ba83a1461056257806342966c681461056c5780634670bb6c14610588576102f1565b80632f2ff15d1461048e5780632fe94def146104aa578063313ce567146104c85780633606ef3c146104e657806336568abe146105165780633950935114610532576102f1565b80631e458bee116102ae5780631e458bee146103cc57806323b872dd146103e8578063248a9ca31461041857806324e0d460146104485780632811531f14610466578063282c51f314610470576102f1565b806301ffc9a7146102f657806306a85f0f1461032657806306fdde0314610344578063095ea7b314610362578063158a1cc31461039257806318160ddd146103ae575b600080fd5b610310600480360381019061030b9190613739565b61095e565b60405161031d9190613781565b60405180910390f35b61032e6109d8565b60405161033b91906137b5565b60405180910390f35b61034c6109fc565b6040516103599190613869565b60405180910390f35b61037c6004803603810190610377919061391f565b610a8e565b6040516103899190613781565b60405180910390f35b6103ac60048036038101906103a7919061398b565b610ab1565b005b6103b6610c02565b6040516103c391906139ed565b60405180910390f35b6103e660048036038101906103e1919061398b565b610c0c565b005b61040260048036038101906103fd9190613a08565b610dd7565b60405161040f9190613781565b60405180910390f35b610432600480360381019061042d9190613a5b565b610e06565b60405161043f91906137b5565b60405180910390f35b610450610e26565b60405161045d91906139ed565b60405180910390f35b61046e610e2d565b005b610478610e71565b60405161048591906137b5565b60405180910390f35b6104a860048036038101906104a39190613a88565b610e95565b005b6104b2610ebe565b6040516104bf91906137b5565b60405180910390f35b6104d0610ee2565b6040516104dd9190613ae4565b60405180910390f35b61050060048036038101906104fb9190613aff565b610eeb565b60405161050d91906139ed565b60405180910390f35b610530600480360381019061052b9190613a88565b610f04565b005b61054c6004803603810190610547919061391f565b610ffb565b6040516105599190613781565b60405180910390f35b61056a6110a5565b005b61058660048036038101906105819190613b2c565b6110e2565b005b6105a2600480360381019061059d919061398b565b6110e7565b005b6105ac61136a565b6040516105b991906137b5565b60405180910390f35b6105ca61138e565b6040516105d79190613781565b60405180910390f35b6105e86113a5565b6040516105f591906139ed565b60405180910390f35b61061860048036038101906106139190613aff565b6113ac565b60405161062591906139ed565b60405180910390f35b6106486004803603810190610643919061391f565b6113f5565b005b6106526113fa565b005b61065c611604565b005b610666611641565b60405161067391906139ed565b60405180910390f35b61069660048036038101906106919190613b59565b611649565b6040516106a39190613ba8565b60405180910390f35b6106c660048036038101906106c19190613a88565b611679565b6040516106d39190613781565b60405180910390f35b6106e46116e4565b6040516106f19190613869565b60405180910390f35b610702611776565b60405161070f91906137b5565b60405180910390f35b610732600480360381019061072d9190613aff565b61177d565b005b61074e6004803603810190610749919061391f565b6117f5565b60405161075b9190613781565b60405180910390f35b61076c6118df565b6040516107799190613781565b60405180910390f35b61078a6118f3565b005b6107a660048036038101906107a1919061391f565b611937565b6040516107b39190613781565b60405180910390f35b6107d660048036038101906107d1919061398b565b61195a565b005b6107e0611ba4565b6040516107ed9190613ba8565b60405180910390f35b610810600480360381019061080b9190613b2c565b611bcb565b005b61082c60048036038101906108279190613a5b565b611ce7565b60405161083991906139ed565b60405180910390f35b61085c60048036038101906108579190613bef565b611d0c565b005b610866611d6e565b60405161087391906137b5565b60405180910390f35b61089660048036038101906108919190613a88565b611d92565b005b6108a0611df7565b6040516108ad91906139ed565b60405180910390f35b6108be611dfe565b6040516108cb91906137b5565b60405180910390f35b6108ee60048036038101906108e99190613c56565b611e22565b6040516108fb91906139ed565b60405180910390f35b61090c611ea9565b60405161091991906137b5565b60405180910390f35b61092a611ecd565b60405161093791906137b5565b60405180910390f35b610948611ef1565b6040516109559190613781565b60405180910390f35b60007f5a05180f000000000000000000000000000000000000000000000000000000007bffffffffffffffffffffffffffffffffffffffffffffffffffffffff1916827bffffffffffffffffffffffffffffffffffffffffffffffffffffffff191614806109d157506109d082611f05565b5b9050919050565b7f92de27771f92d6942691d73358b3a4673e4880de8356f8f2cf452be87e02d36381565b606060368054610a0b90613cc5565b80601f0160208091040260200160405190810160405280929190818152602001828054610a3790613cc5565b8015610a845780601f10610a5957610100808354040283529160200191610a84565b820191906000526020600020905b815481529060010190602001808311610a6757829003601f168201915b5050505050905090565b600080610a99611f7f565b9050610aa6818585611f87565b600191505092915050565b7f3c11d16cbaffd01df69ce1c404f6340ee057498f5f00246190ea54220576a848610ae381610ade611f7f565b612152565b60006001151561016060159054906101000a900460ff16151514610b0d57610b0a846121ef565b90505b6000811115610b4457610b4361016060009054906101000a900473ffffffffffffffffffffffffffffffffffffffff168261226a565b5b82848673ffffffffffffffffffffffffffffffffffffffff167f06a5cc13c9f93b7a2af752bb0bda4958deb252b326ded3266f786ca78456002560405160405180910390a4828161016060009054906101000a900473ffffffffffffffffffffffffffffffffffffffff1673ffffffffffffffffffffffffffffffffffffffff167fb90103c5976493d20060202415867ddf1081e70322c45b6f19bfdbe384b14f5160405160405180910390a4610bfb85856123cb565b5050505050565b6000603554905090565b7f9f2df0fed2c77648de5860a4cc508cd0818c85b8b8a1ab4ceeef8d981c8956a6610c3e81610c39611f7f565b612152565b610c687faee674c6ada01c6d4ee4067d160ffdacc9cc9aba7ca34516f8c9ff75fdc8d72385611679565b610ca7576040517f08c379a0000000000000000000000000000000000000000000000000000000008152600401610c9e90613d43565b60405180910390fd5b60006001151561016060149054906101000a900460ff16151514610cd157610cce846121ef565b90505b60008185610cdf9190613d92565b905083818773ffffffffffffffffffffffffffffffffffffffff167fb279743e0218314d88b387012a6b7e94ff79b811c536ab5e40d6527ea265ff2c60405160405180910390a4838261016060009054906101000a900473ffffffffffffffffffffffffffffffffffffffff1673ffffffffffffffffffffffffffffffffffffffff167f1f8174bdbec9563f21f6aa0ab97118362e35fd5b104b486a0fa2d754cad41e5160405160405180910390a46000821115610dc557610dc461016060009054906101000a900473ffffffffffffffffffffffffffffffffffffffff168361226a565b5b610dcf868261226a565b505050505050565b600080610de2611f7f565b9050610def8582856125a4565b610dfa858585612630565b60019150509392505050565b600060fb6000838152602001908152602001600020600101549050919050565b61015f5481565b6000801b610e4281610e3d611f7f565b612152565b61016060149054906101000a900460ff161561016060146101000a81548160ff02191690831515021790555050565b7f3c11d16cbaffd01df69ce1c404f6340ee057498f5f00246190ea54220576a84881565b610e9e82610e06565b610eaf81610eaa611f7f565b612152565b610eb983836128b4565b505050565b7f8a639721758084b2ff869ed05cee658aab46e6bdc69bca1b006bae9f55613c5981565b60006012905090565b6101646020528060005260406000206000915090505481565b7f5edc4fd0544f0b4b53f14f295fb04bbd6fdbc1bea1fd8edf5851b385aee145d5821415610f9657610f567f92de27771f92d6942691d73358b3a4673e4880de8356f8f2cf452be87e02d36333611679565b610f95576040517f08c379a0000000000000000000000000000000000000000000000000000000008152600401610f8c90613e12565b60405180910390fd5b5b6000801b821415610fed576001610fac83611ce7565b11610fec576040517f08c379a0000000000000000000000000000000000000000000000000000000008152600401610fe390613e7e565b60405180910390fd5b5b610ff782826128e9565b5050565b600080611006611f7f565b905061109a818585603460008673ffffffffffffffffffffffffffffffffffffffff1673ffffffffffffffffffffffffffffffffffffffff16815260200190815260200160002060008973ffffffffffffffffffffffffffffffffffffffff1673ffffffffffffffffffffffffffffffffffffffff168152602001908152602001600020546110959190613e9e565b611f87565b600191505092915050565b7f65d7a28e3265b37a6474929f336521b332c1681b933f6cb9f3376673440d862a6110d7816110d2611f7f565b612152565b6110df61296c565b50565b600080fd5b7f4b8072d94804aa443f85286056c4cb9fda8b35e0a826d9959c80aa89382b0f2661111981611114611f7f565b612152565b6111437faee674c6ada01c6d4ee4067d160ffdacc9cc9aba7ca34516f8c9ff75fdc8d72385611679565b611182576040517f08c379a000000000000000000000000000000000000000000000000000000000815260040161117990613d43565b60405180910390fd5b4261016460003373ffffffffffffffffffffffffffffffffffffffff1673ffffffffffffffffffffffffffffffffffffffff168152602001908152602001600020541015611205576040517f08c379a00000000000000000000000000000000000000000000000000000000081526004016111fc90613f40565b60405180910390fd5b6000611212858585612a0e565b905060006101636000838152602001908152602001600020541461126b576040517f08c379a000000000000000000000000000000000000000000000000000000000815260040161126290613fac565b60405180910390fd5b6000670de0b6b3a7640000856112819190613ffb565b6101615461128f919061402c565b4261129a9190613e9e565b905080610163600084815260200190815260200160002081905550600061016254426112c69190613e9e565b90508061016460003373ffffffffffffffffffffffffffffffffffffffff1673ffffffffffffffffffffffffffffffffffffffff1681526020019081526020016000208190555084868873ffffffffffffffffffffffffffffffffffffffff167fb744a5eb3cafe36dae33c716833d91c7acd6bfa94ce3c0f4cc6ec42de387552385853360405161135993929190614086565b60405180910390a450505050505050565b7f5edc4fd0544f0b4b53f14f295fb04bbd6fdbc1bea1fd8edf5851b385aee145d581565b6000609760009054906101000a900460ff16905090565b6101615481565b6000603360008373ffffffffffffffffffffffffffffffffffffffff1673ffffffffffffffffffffffffffffffffffffffff168152602001908152602001600020549050919050565b600080fd5b600060019054906101000a900460ff166114225760008054906101000a900460ff161561142b565b61142a612a44565b5b61146a576040517f08c379a00000000000000000000000000000000000000000000000000000000081526004016114619061412f565b60405180910390fd5b60008060019054906101000a900460ff1615905080156114ba576001600060016101000a81548160ff02191690831515021790555060016000806101000a81548160ff0219169083151502179055505b61152e6040518060400160405280600b81526020017f55534420526563656970740000000000000000000000000000000000000000008152506040518060400160405280600481526020017f5553445200000000000000000000000000000000000000000000000000000000815250612a55565b611536612ab2565b61153e612b03565b611546612b5c565b6115536000801b33612bad565b61159d7f5edc4fd0544f0b4b53f14f295fb04bbd6fdbc1bea1fd8edf5851b385aee145d57f92de27771f92d6942691d73358b3a4673e4880de8356f8f2cf452be87e02d363612bbb565b62e4e1c061015f81905550600161016060146101000a81548160ff021916908315150217905550600161016060156101000a81548160ff02191690831515021790555080156116015760008060016101000a81548160ff0219169083151502179055505b50565b7f65d7a28e3265b37a6474929f336521b332c1681b933f6cb9f3376673440d862a61163681611631611f7f565b612152565b61163e612c17565b50565b633b9aca0081565b60006116718261012d6000868152602001908152602001600020612cba90919063ffffffff16565b905092915050565b600060fb600084815260200190815260200160002060000160008373ffffffffffffffffffffffffffffffffffffffff1673ffffffffffffffffffffffffffffffffffffffff16815260200190815260200160002060009054906101000a900460ff16905092915050565b6060603780546116f390613cc5565b80601f016020809104026020016040519081016040528092919081815260200182805461171f90613cc5565b801561176c5780601f106117415761010080835404028352916020019161176c565b820191906000526020600020905b81548152906001019060200180831161174f57829003601f168201915b5050505050905090565b6000801b81565b7f8a639721758084b2ff869ed05cee658aab46e6bdc69bca1b006bae9f55613c596117af816117aa611f7f565b612152565b8161016060006101000a81548173ffffffffffffffffffffffffffffffffffffffff021916908373ffffffffffffffffffffffffffffffffffffffff1602179055505050565b600080611800611f7f565b90506000603460008373ffffffffffffffffffffffffffffffffffffffff1673ffffffffffffffffffffffffffffffffffffffff16815260200190815260200160002060008673ffffffffffffffffffffffffffffffffffffffff1673ffffffffffffffffffffffffffffffffffffffff168152602001908152602001600020549050838110156118c6576040517f08c379a00000000000000000000000000000000000000000000000000000000081526004016118bd906141c1565b60405180910390fd5b6118d38286868403611f87565b60019250505092915050565b61016060149054906101000a900460ff1681565b6000801b61190881611903611f7f565b612152565b61016060159054906101000a900460ff161561016060156101000a81548160ff02191690831515021790555050565b600080611942611f7f565b905061194f818585612630565b600191505092915050565b7f4b8072d94804aa443f85286056c4cb9fda8b35e0a826d9959c80aa89382b0f2661198c81611987611f7f565b612152565b6119b67faee674c6ada01c6d4ee4067d160ffdacc9cc9aba7ca34516f8c9ff75fdc8d72385611679565b6119f5576040517f08c379a00000000000000000000000000000000000000000000000000000000081526004016119ec90613d43565b60405180910390fd5b6000611a02858585612a0e565b9050426101636000838152602001908152602001600020541015611a5b576040517f08c379a0000000000000000000000000000000000000000000000000000000008152600401611a529061422d565b60405180910390fd5b60006001151561016060149054906101000a900460ff16151514611a8557611a82856121ef565b90505b60008186611a939190613d92565b905084818873ffffffffffffffffffffffffffffffffffffffff167fb279743e0218314d88b387012a6b7e94ff79b811c536ab5e40d6527ea265ff2c60405160405180910390a4848261016060009054906101000a900473ffffffffffffffffffffffffffffffffffffffff1673ffffffffffffffffffffffffffffffffffffffff167f1f8174bdbec9563f21f6aa0ab97118362e35fd5b104b486a0fa2d754cad41e5160405160405180910390a46000821115611b7957611b7861016060009054906101000a900473ffffffffffffffffffffffffffffffffffffffff168361226a565b5b611b83878261226a565b61016360008481526020019081526020016000206000905550505050505050565b61016060009054906101000a900473ffffffffffffffffffffffffffffffffffffffff1681565b7f8a639721758084b2ff869ed05cee658aab46e6bdc69bca1b006bae9f55613c59611bfd81611bf8611f7f565b612152565b6000620f424083611c0e919061424d565b14611c4e576040517f08c379a0000000000000000000000000000000000000000000000000000000008152600401611c45906142f0565b60405180910390fd5b6305f5e100821115611c95576040517f08c379a0000000000000000000000000000000000000000000000000000000008152600401611c8c9061435c565b60405180910390fd5b620f4240821015611cdb576040517f08c379a0000000000000000000000000000000000000000000000000000000008152600401611cd2906143c8565b60405180910390fd5b8161015f819055505050565b6000611d0561012d6000848152602001908152602001600020612cd4565b9050919050565b6000801b611d2181611d1c611f7f565b612152565b8461016060156101000a81548160ff0219169083151502179055508361016060146101000a81548160ff021916908315150217905550826101628190555081610161819055505050505050565b7f9f2df0fed2c77648de5860a4cc508cd0818c85b8b8a1ab4ceeef8d981c8956a681565b6000801b821415611de9576001611da883611ce7565b11611de8576040517f08c379a0000000000000000000000000000000000000000000000000000000008152600401611ddf90613e7e565b60405180910390fd5b5b611df38282612ce9565b5050565b6101625481565b7f4b8072d94804aa443f85286056c4cb9fda8b35e0a826d9959c80aa89382b0f2681565b6000603460008473ffffffffffffffffffffffffffffffffffffffff1673ffffffffffffffffffffffffffffffffffffffff16815260200190815260200160002060008373ffffffffffffffffffffffffffffffffffffffff1673ffffffffffffffffffffffffffffffffffffffff16815260200190815260200160002054905092915050565b7f65d7a28e3265b37a6474929f336521b332c1681b933f6cb9f3376673440d862a81565b7faee674c6ada01c6d4ee4067d160ffdacc9cc9aba7ca34516f8c9ff75fdc8d72381565b61016060159054906101000a900460ff1681565b60007f7965db0b000000000000000000000000000000000000000000000000000000007bffffffffffffffffffffffffffffffffffffffffffffffffffffffff1916827bffffffffffffffffffffffffffffffffffffffffffffffffffffffff19161480611f785750611f7782612d12565b5b9050919050565b600033905090565b600073ffffffffffffffffffffffffffffffffffffffff168373ffffffffffffffffffffffffffffffffffffffff161415611ff7576040517f08c379a0000000000000000000000000000000000000000000000000000000008152600401611fee9061445a565b60405180910390fd5b600073ffffffffffffffffffffffffffffffffffffffff168273ffffffffffffffffffffffffffffffffffffffff161415612067576040517f08c379a000000000000000000000000000000000000000000000000000000000815260040161205e906144ec565b60405180910390fd5b80603460008573ffffffffffffffffffffffffffffffffffffffff1673ffffffffffffffffffffffffffffffffffffffff16815260200190815260200160002060008473ffffffffffffffffffffffffffffffffffffffff1673ffffffffffffffffffffffffffffffffffffffff168152602001908152602001600020819055508173ffffffffffffffffffffffffffffffffffffffff168373ffffffffffffffffffffffffffffffffffffffff167f8c5be1e5ebec7d5bd14f71427d1e84f3dd0314c0f7b2291e5b200ac8c7c3b9258360405161214591906139ed565b60405180910390a3505050565b61215c8282611679565b6121eb576121818173ffffffffffffffffffffffffffffffffffffffff166014612d7c565b61218f8360001c6020612d7c565b6040516020016121a09291906145e0565b6040516020818303038152906040526040517f08c379a00000000000000000000000000000000000000000000000000000000081526004016121e29190613869565b60405180910390fd5b5050565b600080633b9aca0083612202919061424d565b14612242576040517f08c379a00000000000000000000000000000000000000000000000000000000081526004016122399061468c565b60405180910390fd5b600061015f54633b9aca00846122589190613ffb565b612262919061402c565b905050919050565b600073ffffffffffffffffffffffffffffffffffffffff168273ffffffffffffffffffffffffffffffffffffffff1614156122da576040517f08c379a00000000000000000000000000000000000000000000000000000000081526004016122d1906146f8565b60405180910390fd5b6122e660008383612fb8565b80603560008282546122f89190613e9e565b9250508190555080603360008473ffffffffffffffffffffffffffffffffffffffff1673ffffffffffffffffffffffffffffffffffffffff168152602001908152602001600020600082825461234e9190613e9e565b925050819055508173ffffffffffffffffffffffffffffffffffffffff16600073ffffffffffffffffffffffffffffffffffffffff167fddf252ad1be2c89b69c2b068fc378daa952ba7f163c4a11628f55a4df523b3ef836040516123b391906139ed565b60405180910390a36123c7600083836130e4565b5050565b600073ffffffffffffffffffffffffffffffffffffffff168273ffffffffffffffffffffffffffffffffffffffff16141561243b576040517f08c379a00000000000000000000000000000000000000000000000000000000081526004016124329061478a565b60405180910390fd5b61244782600083612fb8565b6000603360008473ffffffffffffffffffffffffffffffffffffffff1673ffffffffffffffffffffffffffffffffffffffff168152602001908152602001600020549050818110156124ce576040517f08c379a00000000000000000000000000000000000000000000000000000000081526004016124c59061481c565b60405180910390fd5b818103603360008573ffffffffffffffffffffffffffffffffffffffff1673ffffffffffffffffffffffffffffffffffffffff1681526020019081526020016000208190555081603560008282546125269190613d92565b92505081905550600073ffffffffffffffffffffffffffffffffffffffff168373ffffffffffffffffffffffffffffffffffffffff167fddf252ad1be2c89b69c2b068fc378daa952ba7f163c4a11628f55a4df523b3ef8460405161258b91906139ed565b60405180910390a361259f836000846130e4565b505050565b60006125b08484611e22565b90507fffffffffffffffffffffffffffffffffffffffffffffffffffffffffffffffff811461262a578181101561261c576040517f08c379a000000000000000000000000000000000000000000000000000000000815260040161261390614888565b60405180910390fd5b6126298484848403611f87565b5b50505050565b600073ffffffffffffffffffffffffffffffffffffffff168373ffffffffffffffffffffffffffffffffffffffff1614156126a0576040517f08c379a00000000000000000000000000000000000000000000000000000000081526004016126979061491a565b60405180910390fd5b600073ffffffffffffffffffffffffffffffffffffffff168273ffffffffffffffffffffffffffffffffffffffff161415612710576040517f08c379a0000000000000000000000000000000000000000000000000000000008152600401612707906149ac565b60405180910390fd5b61271b838383612fb8565b6000603360008573ffffffffffffffffffffffffffffffffffffffff1673ffffffffffffffffffffffffffffffffffffffff168152602001908152602001600020549050818110156127a2576040517f08c379a000000000000000000000000000000000000000000000000000000000815260040161279990614a3e565b60405180910390fd5b818103603360008673ffffffffffffffffffffffffffffffffffffffff1673ffffffffffffffffffffffffffffffffffffffff1681526020019081526020016000208190555081603360008573ffffffffffffffffffffffffffffffffffffffff1673ffffffffffffffffffffffffffffffffffffffff16815260200190815260200160002060008282546128379190613e9e565b925050819055508273ffffffffffffffffffffffffffffffffffffffff168473ffffffffffffffffffffffffffffffffffffffff167fddf252ad1be2c89b69c2b068fc378daa952ba7f163c4a11628f55a4df523b3ef8460405161289b91906139ed565b60405180910390a36128ae8484846130e4565b50505050565b6128be82826130e9565b6128e48161012d60008581526020019081526020016000206131ca90919063ffffffff16565b505050565b6128f1611f7f565b73ffffffffffffffffffffffffffffffffffffffff168173ffffffffffffffffffffffffffffffffffffffff161461295e576040517f08c379a000000000000000000000000000000000000000000000000000000000815260040161295590614ad0565b60405180910390fd5b61296882826131fa565b5050565b61297461138e565b6129b3576040517f08c379a00000000000000000000000000000000000000000000000000000000081526004016129aa90614b3c565b60405180910390fd5b6000609760006101000a81548160ff0219169083151502179055507f5db9ee0a495bf2e6ff9c91a7834c1ba4fdd244a5e8aa4e537bd38aeae4b073aa6129f7611f7f565b604051612a049190613ba8565b60405180910390a1565b6000838383604051602001612a2593929190614b5c565b6040516020818303038152906040528051906020012090509392505050565b6000612a4f3061322f565b15905090565b600060019054906101000a900460ff16612aa4576040517f08c379a0000000000000000000000000000000000000000000000000000000008152600401612a9b90614c05565b60405180910390fd5b612aae8282613252565b5050565b600060019054906101000a900460ff16612b01576040517f08c379a0000000000000000000000000000000000000000000000000000000008152600401612af890614c05565b60405180910390fd5b565b600060019054906101000a900460ff16612b52576040517f08c379a0000000000000000000000000000000000000000000000000000000008152600401612b4990614c05565b60405180910390fd5b612b5a6132d3565b565b600060019054906101000a900460ff16612bab576040517f08c379a0000000000000000000000000000000000000000000000000000000008152600401612ba290614c05565b60405180910390fd5b565b612bb782826128b4565b5050565b6000612bc683610e06565b90508160fb6000858152602001908152602001600020600101819055508181847fbd79b86ffe0ab8e8776151514217cd7cacd52c909f66475c3af44e129f0b00ff60405160405180910390a4505050565b612c1f61138e565b15612c5f576040517f08c379a0000000000000000000000000000000000000000000000000000000008152600401612c5690614c71565b60405180910390fd5b6001609760006101000a81548160ff0219169083151502179055507f62e78cea01bee320cd4e420270b5ea74000d11b0c9f74754ebdbfc544b05a258612ca3611f7f565b604051612cb09190613ba8565b60405180910390a1565b6000612cc9836000018361333f565b60001c905092915050565b6000612ce28260000161336a565b9050919050565b612cf282610e06565b612d0381612cfe611f7f565b612152565b612d0d83836131fa565b505050565b60007f01ffc9a7000000000000000000000000000000000000000000000000000000007bffffffffffffffffffffffffffffffffffffffffffffffffffffffff1916827bffffffffffffffffffffffffffffffffffffffffffffffffffffffff1916149050919050565b606060006002836002612d8f919061402c565b612d999190613e9e565b67ffffffffffffffff811115612db257612db1614c91565b5b6040519080825280601f01601f191660200182016040528015612de45781602001600182028036833780820191505090505b5090507f300000000000000000000000000000000000000000000000000000000000000081600081518110612e1c57612e1b614cc0565b5b60200101907effffffffffffffffffffffffffffffffffffffffffffffffffffffffffffff1916908160001a9053507f780000000000000000000000000000000000000000000000000000000000000081600181518110612e8057612e7f614cc0565b5b60200101907effffffffffffffffffffffffffffffffffffffffffffffffffffffffffffff1916908160001a90535060006001846002612ec0919061402c565b612eca9190613e9e565b90505b6001811115612f6a577f3031323334353637383961626364656600000000000000000000000000000000600f861660108110612f0c57612f0b614cc0565b5b1a60f81b828281518110612f2357612f22614cc0565b5b60200101907effffffffffffffffffffffffffffffffffffffffffffffffffffffffffffff1916908160001a905350600485901c945080612f6390614cef565b9050612ecd565b5060008414612fae576040517f08c379a0000000000000000000000000000000000000000000000000000000008152600401612fa590614d65565b60405180910390fd5b8091505092915050565b612fc061138e565b15613000576040517f08c379a0000000000000000000000000000000000000000000000000000000008152600401612ff790614c71565b60405180910390fd5b61302a7f5edc4fd0544f0b4b53f14f295fb04bbd6fdbc1bea1fd8edf5851b385aee145d584611679565b1561306a576040517f08c379a000000000000000000000000000000000000000000000000000000000815260040161306190614dd1565b60405180910390fd5b6130947f5edc4fd0544f0b4b53f14f295fb04bbd6fdbc1bea1fd8edf5851b385aee145d583611679565b156130d4576040517f08c379a00000000000000000000000000000000000000000000000000000000081526004016130cb90614e3d565b60405180910390fd5b6130df83838361337b565b505050565b505050565b6130f38282611679565b6131c657600160fb600084815260200190815260200160002060000160008373ffffffffffffffffffffffffffffffffffffffff1673ffffffffffffffffffffffffffffffffffffffff16815260200190815260200160002060006101000a81548160ff02191690831515021790555061316b611f7f565b73ffffffffffffffffffffffffffffffffffffffff168173ffffffffffffffffffffffffffffffffffffffff16837f2f8788117e7eff1d82e926ec794901d17c78024a50270940304540a733656f0d60405160405180910390a45b5050565b60006131f2836000018373ffffffffffffffffffffffffffffffffffffffff1660001b613380565b905092915050565b61320482826133f0565b61322a8161012d60008581526020019081526020016000206134d290919063ffffffff16565b505050565b6000808273ffffffffffffffffffffffffffffffffffffffff163b119050919050565b600060019054906101000a900460ff166132a1576040517f08c379a000000000000000000000000000000000000000000000000000000000815260040161329890614c05565b60405180910390fd5b81603690805190602001906132b7929190613639565b5080603790805190602001906132ce929190613639565b505050565b600060019054906101000a900460ff16613322576040517f08c379a000000000000000000000000000000000000000000000000000000000815260040161331990614c05565b60405180910390fd5b6000609760006101000a81548160ff021916908315150217905550565b600082600001828154811061335757613356614cc0565b5b9060005260206000200154905092915050565b600081600001805490509050919050565b505050565b600061338c8383613502565b6133e55782600001829080600181540180825580915050600190039060005260206000200160009091909190915055826000018054905083600101600084815260200190815260200160002081905550600190506133ea565b600090505b92915050565b6133fa8282611679565b156134ce57600060fb600084815260200190815260200160002060000160008373ffffffffffffffffffffffffffffffffffffffff1673ffffffffffffffffffffffffffffffffffffffff16815260200190815260200160002060006101000a81548160ff021916908315150217905550613473611f7f565b73ffffffffffffffffffffffffffffffffffffffff168173ffffffffffffffffffffffffffffffffffffffff16837ff6391f5c32d9c69d2a47ea670b442974b53935d1edc7fd64eb21e047a839171b60405160405180910390a45b5050565b60006134fa836000018373ffffffffffffffffffffffffffffffffffffffff1660001b613525565b905092915050565b600080836001016000848152602001908152602001600020541415905092915050565b6000808360010160008481526020019081526020016000205490506000811461362d5760006001826135579190613d92565b905060006001866000018054905061356f9190613d92565b90508181146135de5760008660000182815481106135905761358f614cc0565b5b90600052602060002001549050808760000184815481106135b4576135b3614cc0565b5b90600052602060002001819055508387600101600083815260200190815260200160002081905550505b856000018054806135f2576135f1614e5d565b5b600190038181906000526020600020016000905590558560010160008681526020019081526020016000206000905560019350505050613633565b60009150505b92915050565b82805461364590613cc5565b90600052602060002090601f01602090048101928261366757600085556136ae565b82601f1061368057805160ff19168380011785556136ae565b828001600101855582156136ae579182015b828111156136ad578251825591602001919060010190613692565b5b5090506136bb91906136bf565b5090565b5b808211156136d85760008160009055506001016136c0565b5090565b600080fd5b60007fffffffff0000000000000000000000000000000000000000000000000000000082169050919050565b613716816136e1565b811461372157600080fd5b50565b6000813590506137338161370d565b92915050565b60006020828403121561374f5761374e6136dc565b5b600061375d84828501613724565b91505092915050565b60008115159050919050565b61377b81613766565b82525050565b60006020820190506137966000830184613772565b92915050565b6000819050919050565b6137af8161379c565b82525050565b60006020820190506137ca60008301846137a6565b92915050565b600081519050919050565b600082825260208201905092915050565b60005b8381101561380a5780820151818401526020810190506137ef565b83811115613819576000848401525b50505050565b6000601f19601f8301169050919050565b600061383b826137d0565b61384581856137db565b93506138558185602086016137ec565b61385e8161381f565b840191505092915050565b600060208201905081810360008301526138838184613830565b905092915050565b600073ffffffffffffffffffffffffffffffffffffffff82169050919050565b60006138b68261388b565b9050919050565b6138c6816138ab565b81146138d157600080fd5b50565b6000813590506138e3816138bd565b92915050565b6000819050919050565b6138fc816138e9565b811461390757600080fd5b50565b600081359050613919816138f3565b92915050565b60008060408385031215613936576139356136dc565b5b6000613944858286016138d4565b92505060206139558582860161390a565b9150509250929050565b6139688161379c565b811461397357600080fd5b50565b6000813590506139858161395f565b92915050565b6000806000606084860312156139a4576139a36136dc565b5b60006139b2868287016138d4565b93505060206139c38682870161390a565b92505060406139d486828701613976565b9150509250925092565b6139e7816138e9565b82525050565b6000602082019050613a0260008301846139de565b92915050565b600080600060608486031215613a2157613a206136dc565b5b6000613a2f868287016138d4565b9350506020613a40868287016138d4565b9250506040613a518682870161390a565b9150509250925092565b600060208284031215613a7157613a706136dc565b5b6000613a7f84828501613976565b91505092915050565b60008060408385031215613a9f57613a9e6136dc565b5b6000613aad85828601613976565b9250506020613abe858286016138d4565b9150509250929050565b600060ff82169050919050565b613ade81613ac8565b82525050565b6000602082019050613af96000830184613ad5565b92915050565b600060208284031215613b1557613b146136dc565b5b6000613b23848285016138d4565b91505092915050565b600060208284031215613b4257613b416136dc565b5b6000613b508482850161390a565b91505092915050565b60008060408385031215613b7057613b6f6136dc565b5b6000613b7e85828601613976565b9250506020613b8f8582860161390a565b9150509250929050565b613ba2816138ab565b82525050565b6000602082019050613bbd6000830184613b99565b92915050565b613bcc81613766565b8114613bd757600080fd5b50565b600081359050613be981613bc3565b92915050565b60008060008060808587031215613c0957613c086136dc565b5b6000613c1787828801613bda565b9450506020613c2887828801613bda565b9350506040613c398782880161390a565b9250506060613c4a8782880161390a565b91505092959194509250565b60008060408385031215613c6d57613c6c6136dc565b5b6000613c7b858286016138d4565b9250506020613c8c858286016138d4565b9150509250929050565b7f4e487b7100000000000000000000000000000000000000000000000000000000600052602260045260246000fd5b60006002820490506001821680613cdd57607f821691505b60208210811415613cf157613cf0613c96565b5b50919050565b7f526563697069656e74206d7573742062652077686974656c69737465642e0000600082015250565b6000613d2d601e836137db565b9150613d3882613cf7565b602082019050919050565b60006020820190508181036000830152613d5c81613d20565b9050919050565b7f4e487b7100000000000000000000000000000000000000000000000000000000600052601160045260246000fd5b6000613d9d826138e9565b9150613da8836138e9565b925082821015613dbb57613dba613d63565b5b828203905092915050565b7f4f6e6c7920726f6c652061646d696e2063616e207265766f6b65000000000000600082015250565b6000613dfc601a836137db565b9150613e0782613dc6565b602082019050919050565b60006020820190508181036000830152613e2b81613def565b9050919050565b7f436f6e7472616374207265717569726573206f6e652061646d696e0000000000600082015250565b6000613e68601b836137db565b9150613e7382613e32565b602082019050919050565b60006020820190508181036000830152613e9781613e5b565b9050919050565b6000613ea9826138e9565b9150613eb4836138e9565b9250827fffffffffffffffffffffffffffffffffffffffffffffffffffffffffffffffff03821115613ee957613ee8613d63565b5b828201905092915050565b7f436f6d6d69746d656e7420636f6f6c646f776e00000000000000000000000000600082015250565b6000613f2a6013836137db565b9150613f3582613ef4565b602082019050919050565b60006020820190508181036000830152613f5981613f1d565b9050919050565b7f5472616e73616374696f6e20616c726561647920717565756564000000000000600082015250565b6000613f96601a836137db565b9150613fa182613f60565b602082019050919050565b60006020820190508181036000830152613fc581613f89565b9050919050565b7f4e487b7100000000000000000000000000000000000000000000000000000000600052601260045260246000fd5b6000614006826138e9565b9150614011836138e9565b92508261402157614020613fcc565b5b828204905092915050565b6000614037826138e9565b9150614042836138e9565b9250817fffffffffffffffffffffffffffffffffffffffffffffffffffffffffffffffff048311821515161561407b5761407a613d63565b5b828202905092915050565b600060608201905061409b60008301866139de565b6140a860208301856139de565b6140b56040830184613b99565b949350505050565b7f496e697469616c697a61626c653a20636f6e747261637420697320616c72656160008201527f647920696e697469616c697a6564000000000000000000000000000000000000602082015250565b6000614119602e836137db565b9150614124826140bd565b604082019050919050565b600060208201905081810360008301526141488161410c565b9050919050565b7f45524332303a2064656372656173656420616c6c6f77616e63652062656c6f7760008201527f207a65726f000000000000000000000000000000000000000000000000000000602082015250565b60006141ab6025836137db565b91506141b68261414f565b604082019050919050565b600060208201905081810360008301526141da8161419e565b9050919050565b7f436f6f6c646f776e20686173206e6f742079657420656c617073656400000000600082015250565b6000614217601c836137db565b9150614222826141e1565b602082019050919050565b600060208201905081810360008301526142468161420a565b9050919050565b6000614258826138e9565b9150614263836138e9565b92508261427357614272613fcc565b5b828206905092915050565b7f5661726961626c652072617465206d75737420626520696e20696e6372656d6560008201527f6e7473206f6620302e3125210000000000000000000000000000000000000000602082015250565b60006142da602c836137db565b91506142e58261427e565b604082019050919050565b60006020820190508181036000830152614309816142cd565b9050919050565b7f4e6577205261746520546f6f204c617267650000000000000000000000000000600082015250565b60006143466012836137db565b915061435182614310565b602082019050919050565b6000602082019050818103600083015261437581614339565b9050919050565b7f4e6577205261746520546f6f20536d616c6c0000000000000000000000000000600082015250565b60006143b26012836137db565b91506143bd8261437c565b602082019050919050565b600060208201905081810360008301526143e1816143a5565b9050919050565b7f45524332303a20617070726f76652066726f6d20746865207a65726f2061646460008201527f7265737300000000000000000000000000000000000000000000000000000000602082015250565b60006144446024836137db565b915061444f826143e8565b604082019050919050565b6000602082019050818103600083015261447381614437565b9050919050565b7f45524332303a20617070726f766520746f20746865207a65726f20616464726560008201527f7373000000000000000000000000000000000000000000000000000000000000602082015250565b60006144d66022836137db565b91506144e18261447a565b604082019050919050565b60006020820190508181036000830152614505816144c9565b9050919050565b600081905092915050565b7f416363657373436f6e74726f6c3a206163636f756e7420000000000000000000600082015250565b600061454d60178361450c565b915061455882614517565b601782019050919050565b600061456e826137d0565b614578818561450c565b93506145888185602086016137ec565b80840191505092915050565b7f206973206d697373696e6720726f6c6520000000000000000000000000000000600082015250565b60006145ca60118361450c565b91506145d582614594565b601182019050919050565b60006145eb82614540565b91506145f78285614563565b9150614602826145bd565b915061460e8284614563565b91508190509392505050565b7f416d6f756e742063616e2774206265206d6f726520707265636973652074686160008201527f6e203920646563696d616c20706c616365732100000000000000000000000000602082015250565b60006146766033836137db565b91506146818261461a565b604082019050919050565b600060208201905081810360008301526146a581614669565b9050919050565b7f45524332303a206d696e7420746f20746865207a65726f206164647265737300600082015250565b60006146e2601f836137db565b91506146ed826146ac565b602082019050919050565b60006020820190508181036000830152614711816146d5565b9050919050565b7f45524332303a206275726e2066726f6d20746865207a65726f2061646472657360008201527f7300000000000000000000000000000000000000000000000000000000000000602082015250565b60006147746021836137db565b915061477f82614718565b604082019050919050565b600060208201905081810360008301526147a381614767565b9050919050565b7f45524332303a206275726e20616d6f756e7420657863656564732062616c616e60008201527f6365000000000000000000000000000000000000000000000000000000000000602082015250565b60006148066022836137db565b9150614811826147aa565b604082019050919050565b60006020820190508181036000830152614835816147f9565b9050919050565b7f45524332303a20696e73756666696369656e7420616c6c6f77616e6365000000600082015250565b6000614872601d836137db565b915061487d8261483c565b602082019050919050565b600060208201905081810360008301526148a181614865565b9050919050565b7f45524332303a207472616e736665722066726f6d20746865207a65726f20616460008201527f6472657373000000000000000000000000000000000000000000000000000000602082015250565b60006149046025836137db565b915061490f826148a8565b604082019050919050565b60006020820190508181036000830152614933816148f7565b9050919050565b7f45524332303a207472616e7366657220746f20746865207a65726f206164647260008201527f6573730000000000000000000000000000000000000000000000000000000000602082015250565b60006149966023836137db565b91506149a18261493a565b604082019050919050565b600060208201905081810360008301526149c581614989565b9050919050565b7f45524332303a207472616e7366657220616d6f756e742065786365656473206260008201527f616c616e63650000000000000000000000000000000000000000000000000000602082015250565b6000614a286026836137db565b9150614a33826149cc565b604082019050919050565b60006020820190508181036000830152614a5781614a1b565b9050919050565b7f416363657373436f6e74726f6c3a2063616e206f6e6c792072656e6f756e636560008201527f20726f6c657320666f722073656c660000000000000000000000000000000000602082015250565b6000614aba602f836137db565b9150614ac582614a5e565b604082019050919050565b60006020820190508181036000830152614ae981614aad565b9050919050565b7f5061757361626c653a206e6f7420706175736564000000000000000000000000600082015250565b6000614b266014836137db565b9150614b3182614af0565b602082019050919050565b60006020820190508181036000830152614b5581614b19565b9050919050565b6000606082019050614b716000830186613b99565b614b7e60208301856139de565b614b8b60408301846137a6565b949350505050565b7f496e697469616c697a61626c653a20636f6e7472616374206973206e6f74206960008201527f6e697469616c697a696e67000000000000000000000000000000000000000000602082015250565b6000614bef602b836137db565b9150614bfa82614b93565b604082019050919050565b60006020820190508181036000830152614c1e81614be2565b9050919050565b7f5061757361626c653a2070617573656400000000000000000000000000000000600082015250565b6000614c5b6010836137db565b9150614c6682614c25565b602082019050919050565b60006020820190508181036000830152614c8a81614c4e565b9050919050565b7f4e487b7100000000000000000000000000000000000000000000000000000000600052604160045260246000fd5b7f4e487b7100000000000000000000000000000000000000000000000000000000600052603260045260246000fd5b6000614cfa826138e9565b91506000821415614d0e57614d0d613d63565b5b600182039050919050565b7f537472696e67733a20686578206c656e67746820696e73756666696369656e74600082015250565b6000614d4f6020836137db565b9150614d5a82614d19565b602082019050919050565b60006020820190508181036000830152614d7e81614d42565b9050919050565b7f53656e6465722069732063757272656e746c792066726f7a656e2e0000000000600082015250565b6000614dbb601b836137db565b9150614dc682614d85565b602082019050919050565b60006020820190508181036000830152614dea81614dae565b9050919050565b7f526563697069656e742069732063757272656e746c792066726f7a656e2e0000600082015250565b6000614e27601e836137db565b9150614e3282614df1565b602082019050919050565b60006020820190508181036000830152614e5681614e1a565b9050919050565b7f4e487b7100000000000000000000000000000000000000000000000000000000600052603160045260246000fdfea2646970667358221220c55e7eb845dec23c0478b4ac54ea11397e92667d9efe5c81146382c42dc8e4dc64736f6c634300080b0033",
  "linkReferences": {},
  "deployedLinkReferences": {}
}