{
  "_format": "hh-sol-artifact-1",
  "contractName": "METLV3",
  "sourceName": "contracts/METLV3.sol",
  "abi": [
    {
      "anonymous": false,
      "inputs": [
        {
          "indexed": true,
          "internalType": "address",
          "name": "owner",
          "type": "address"
        },
        {
          "indexed": true,
          "internalType": "address",
          "name": "spender",
          "type": "address"
        },
        {
          "indexed": false,
          "internalType": "uint256",
          "name": "value",
          "type": "uint256"
        }
      ],
      "name": "Approval",
      "type": "event"
    },
    {
      "anonymous": false,
      "inputs": [
        {
          "indexed": true,
          "internalType": "address",
          "name": "feeCollector",
          "type": "address"
        },
        {
          "indexed": true,
          "internalType": "uint256",
          "name": "fee",
          "type": "uint256"
        },
        {
          "indexed": true,
          "internalType": "bytes32",
          "name": "actionId",
          "type": "bytes32"
        }
      ],
      "name": "BurnFee",
      "type": "event"
    },
    {
      "anonymous": false,
      "inputs": [
        {
          "indexed": true,
          "internalType": "address",
          "name": "recipient",
          "type": "address"
        },
        {
          "indexed": true,
          "internalType": "uint256",
          "name": "amount",
          "type": "uint256"
        },
        {
          "indexed": true,
          "internalType": "bytes32",
          "name": "transferId",
          "type": "bytes32"
        },
        {
          "indexed": false,
          "internalType": "uint256",
          "name": "mintUnlockTime",
          "type": "uint256"
        },
        {
          "indexed": false,
          "internalType": "uint256",
          "name": "commitUnlockTime",
          "type": "uint256"
        },
        {
          "indexed": false,
          "internalType": "address",
          "name": "limitedMinter",
          "type": "address"
        }
      ],
      "name": "Commit",
      "type": "event"
    },
    {
      "anonymous": false,
      "inputs": [
        {
          "indexed": true,
          "internalType": "address",
          "name": "feeCollector",
          "type": "address"
        },
        {
          "indexed": true,
          "internalType": "uint256",
          "name": "fee",
          "type": "uint256"
        },
        {
          "indexed": true,
          "internalType": "bytes32",
          "name": "transferId",
          "type": "bytes32"
        }
      ],
      "name": "MintFee",
      "type": "event"
    },
    {
      "anonymous": false,
      "inputs": [
        {
          "indexed": true,
          "internalType": "address",
          "name": "recipient",
          "type": "address"
        },
        {
          "indexed": true,
          "internalType": "uint256",
          "name": "amount",
          "type": "uint256"
        },
        {
          "indexed": true,
          "internalType": "bytes32",
          "name": "transferId",
          "type": "bytes32"
        }
      ],
      "name": "MintVetoed",
      "type": "event"
    },
    {
      "anonymous": false,
      "inputs": [
        {
          "indexed": false,
          "internalType": "address",
          "name": "account",
          "type": "address"
        }
      ],
      "name": "Paused",
      "type": "event"
    },
    {
      "anonymous": false,
      "inputs": [
        {
          "indexed": true,
          "internalType": "address",
          "name": "recipient",
          "type": "address"
        },
        {
          "indexed": true,
          "internalType": "uint256",
          "name": "amount",
          "type": "uint256"
        },
        {
          "indexed": true,
          "internalType": "bytes32",
          "name": "actionId",
          "type": "bytes32"
        }
      ],
      "name": "ReceivedBurn",
      "type": "event"
    },
    {
      "anonymous": false,
      "inputs": [
        {
          "indexed": true,
          "internalType": "address",
          "name": "recipient",
          "type": "address"
        },
        {
          "indexed": true,
          "internalType": "uint256",
          "name": "amount",
          "type": "uint256"
        },
        {
          "indexed": true,
          "internalType": "bytes32",
          "name": "transferId",
          "type": "bytes32"
        }
      ],
      "name": "ReceivedMint",
      "type": "event"
    },
    {
      "anonymous": false,
      "inputs": [
        {
          "indexed": true,
          "internalType": "bytes32",
          "name": "role",
          "type": "bytes32"
        },
        {
          "indexed": true,
          "internalType": "bytes32",
          "name": "previousAdminRole",
          "type": "bytes32"
        },
        {
          "indexed": true,
          "internalType": "bytes32",
          "name": "newAdminRole",
          "type": "bytes32"
        }
      ],
      "name": "RoleAdminChanged",
      "type": "event"
    },
    {
      "anonymous": false,
      "inputs": [
        {
          "indexed": true,
          "internalType": "bytes32",
          "name": "role",
          "type": "bytes32"
        },
        {
          "indexed": true,
          "internalType": "address",
          "name": "account",
          "type": "address"
        },
        {
          "indexed": true,
          "internalType": "address",
          "name": "sender",
          "type": "address"
        }
      ],
      "name": "RoleGranted",
      "type": "event"
    },
    {
      "anonymous": false,
      "inputs": [
        {
          "indexed": true,
          "internalType": "bytes32",
          "name": "role",
          "type": "bytes32"
        },
        {
          "indexed": true,
          "internalType": "address",
          "name": "account",
          "type": "address"
        },
        {
          "indexed": true,
          "internalType": "address",
          "name": "sender",
          "type": "address"
        }
      ],
      "name": "RoleRevoked",
      "type": "event"
    },
    {
      "anonymous": false,
      "inputs": [
        {
          "indexed": true,
          "internalType": "address",
          "name": "from",
          "type": "address"
        },
        {
          "indexed": true,
          "internalType": "address",
          "name": "to",
          "type": "address"
        },
        {
          "indexed": false,
          "internalType": "uint256",
          "name": "value",
          "type": "uint256"
        }
      ],
      "name": "Transfer",
      "type": "event"
    },
    {
      "anonymous": false,
      "inputs": [
        {
          "indexed": false,
          "internalType": "address",
          "name": "account",
          "type": "address"
        }
      ],
      "name": "Unpaused",
      "type": "event"
    },
    {
      "inputs": [],
      "name": "BASIS_RATE",
      "outputs": [
        {
          "internalType": "uint256",
          "name": "",
          "type": "uint256"
        }
      ],
      "stateMutability": "view",
      "type": "function"
    },
    {
      "inputs": [],
      "name": "BURNER_ROLE",
      "outputs": [
        {
          "internalType": "bytes32",
          "name": "",
          "type": "bytes32"
        }
      ],
      "stateMutability": "view",
      "type": "function"
    },
    {
      "inputs": [],
      "name": "DEFAULT_ADMIN_ROLE",
      "outputs": [
        {
          "internalType": "bytes32",
          "name": "",
          "type": "bytes32"
        }
      ],
      "stateMutability": "view",
      "type": "function"
    },
    {
      "inputs": [],
      "name": "FEE_CONTROLLER",
      "outputs": [
        {
          "internalType": "bytes32",
          "name": "",
          "type": "bytes32"
        }
      ],
      "stateMutability": "view",
      "type": "function"
    },
    {
      "inputs": [],
      "name": "FREEZER_ROLE",
      "outputs": [
        {
          "internalType": "bytes32",
          "name": "",
          "type": "bytes32"
        }
      ],
      "stateMutability": "view",
      "type": "function"
    },
    {
      "inputs": [],
      "name": "FROZEN_USER",
      "outputs": [
        {
          "internalType": "bytes32",
          "name": "",
          "type": "bytes32"
        }
      ],
      "stateMutability": "view",
      "type": "function"
    },
    {
      "inputs": [],
      "name": "LIMITED_MINTER",
      "outputs": [
        {
          "internalType": "bytes32",
          "name": "",
          "type": "bytes32"
        }
      ],
      "stateMutability": "view",
      "type": "function"
    },
    {
      "inputs": [],
      "name": "MINTER_ROLE",
      "outputs": [
        {
          "internalType": "bytes32",
          "name": "",
          "type": "bytes32"
        }
      ],
      "stateMutability": "view",
      "type": "function"
    },
    {
      "inputs": [],
      "name": "PAUSER_ROLE",
      "outputs": [
        {
          "internalType": "bytes32",
          "name": "",
          "type": "bytes32"
        }
      ],
      "stateMutability": "view",
      "type": "function"
    },
    {
      "inputs": [],
      "name": "WHITELIST_USER",
      "outputs": [
        {
          "internalType": "bytes32",
          "name": "",
          "type": "bytes32"
        }
      ],
      "stateMutability": "view",
      "type": "function"
    },
    {
      "inputs": [
        {
          "internalType": "address",
          "name": "owner",
          "type": "address"
        },
        {
          "internalType": "address",
          "name": "spender",
          "type": "address"
        }
      ],
      "name": "allowance",
      "outputs": [
        {
          "internalType": "uint256",
          "name": "",
          "type": "uint256"
        }
      ],
      "stateMutability": "view",
      "type": "function"
    },
    {
      "inputs": [
        {
          "internalType": "address",
          "name": "spender",
          "type": "address"
        },
        {
          "internalType": "uint256",
          "name": "amount",
          "type": "uint256"
        }
      ],
      "name": "approve",
      "outputs": [
        {
          "internalType": "bool",
          "name": "",
          "type": "bool"
        }
      ],
      "stateMutability": "nonpayable",
      "type": "function"
    },
    {
      "inputs": [
        {
          "internalType": "address",
          "name": "account",
          "type": "address"
        }
      ],
      "name": "balanceOf",
      "outputs": [
        {
          "internalType": "uint256",
          "name": "",
          "type": "uint256"
        }
      ],
      "stateMutability": "view",
      "type": "function"
    },
    {
      "inputs": [
        {
          "internalType": "address",
          "name": "target",
          "type": "address"
        },
        {
          "internalType": "uint256",
          "name": "amount",
          "type": "uint256"
        },
        {
          "internalType": "bytes32",
          "name": "actionId",
          "type": "bytes32"
        }
      ],
      "name": "burn",
      "outputs": [],
      "stateMutability": "nonpayable",
      "type": "function"
    },
    {
      "inputs": [
        {
          "internalType": "uint256",
          "name": "amount",
          "type": "uint256"
        }
      ],
      "name": "burn",
      "outputs": [],
      "stateMutability": "nonpayable",
      "type": "function"
    },
    {
      "inputs": [
        {
          "internalType": "address",
          "name": "account",
          "type": "address"
        },
        {
          "internalType": "uint256",
          "name": "amount",
          "type": "uint256"
        }
      ],
      "name": "burnFrom",
      "outputs": [],
      "stateMutability": "nonpayable",
      "type": "function"
    },
    {
      "inputs": [],
      "name": "commitCooldown",
      "outputs": [
        {
          "internalType": "uint256",
          "name": "",
          "type": "uint256"
        }
      ],
      "stateMutability": "view",
      "type": "function"
    },
    {
      "inputs": [
        {
          "internalType": "address",
          "name": "recipient",
          "type": "address"
        },
        {
          "internalType": "uint256",
          "name": "amount",
          "type": "uint256"
        },
        {
          "internalType": "bytes32",
          "name": "transferId",
          "type": "bytes32"
        }
      ],
      "name": "commitMint",
      "outputs": [],
      "stateMutability": "nonpayable",
      "type": "function"
    },
    {
      "inputs": [
        {
          "internalType": "address",
          "name": "",
          "type": "address"
        }
      ],
      "name": "commitUnlock",
      "outputs": [
        {
          "internalType": "uint256",
          "name": "",
          "type": "uint256"
        }
      ],
      "stateMutability": "view",
      "type": "function"
    },
    {
      "inputs": [],
      "name": "cooldownMultiplier",
      "outputs": [
        {
          "internalType": "uint256",
          "name": "",
          "type": "uint256"
        }
      ],
      "stateMutability": "view",
      "type": "function"
    },
    {
      "inputs": [],
      "name": "currentFeeCollector",
      "outputs": [
        {
          "internalType": "address",
          "name": "",
          "type": "address"
        }
      ],
      "stateMutability": "view",
      "type": "function"
    },
    {
      "inputs": [],
      "name": "decimals",
      "outputs": [
        {
          "internalType": "uint8",
          "name": "",
          "type": "uint8"
        }
      ],
      "stateMutability": "view",
      "type": "function"
    },
    {
      "inputs": [
        {
          "internalType": "address",
          "name": "spender",
          "type": "address"
        },
        {
          "internalType": "uint256",
          "name": "subtractedValue",
          "type": "uint256"
        }
      ],
      "name": "decreaseAllowance",
      "outputs": [
        {
          "internalType": "bool",
          "name": "",
          "type": "bool"
        }
      ],
      "stateMutability": "nonpayable",
      "type": "function"
    },
    {
      "inputs": [],
      "name": "freeBurning",
      "outputs": [
        {
          "internalType": "bool",
          "name": "",
          "type": "bool"
        }
      ],
      "stateMutability": "view",
      "type": "function"
    },
    {
      "inputs": [],
      "name": "freeMinting",
      "outputs": [
        {
          "internalType": "bool",
          "name": "",
          "type": "bool"
        }
      ],
      "stateMutability": "view",
      "type": "function"
    },
    {
      "inputs": [
        {
          "internalType": "bytes32",
          "name": "role",
          "type": "bytes32"
        }
      ],
      "name": "getRoleAdmin",
      "outputs": [
        {
          "internalType": "bytes32",
          "name": "",
          "type": "bytes32"
        }
      ],
      "stateMutability": "view",
      "type": "function"
    },
    {
      "inputs": [
        {
          "internalType": "bytes32",
          "name": "role",
          "type": "bytes32"
        },
        {
          "internalType": "uint256",
          "name": "index",
          "type": "uint256"
        }
      ],
      "name": "getRoleMember",
      "outputs": [
        {
          "internalType": "address",
          "name": "",
          "type": "address"
        }
      ],
      "stateMutability": "view",
      "type": "function"
    },
    {
      "inputs": [
        {
          "internalType": "bytes32",
          "name": "role",
          "type": "bytes32"
        }
      ],
      "name": "getRoleMemberCount",
      "outputs": [
        {
          "internalType": "uint256",
          "name": "",
          "type": "uint256"
        }
      ],
      "stateMutability": "view",
      "type": "function"
    },
    {
      "inputs": [
        {
          "internalType": "bytes32",
          "name": "role",
          "type": "bytes32"
        },
        {
          "internalType": "address",
          "name": "account",
          "type": "address"
        }
      ],
      "name": "grantRole",
      "outputs": [],
      "stateMutability": "nonpayable",
      "type": "function"
    },
    {
      "inputs": [
        {
          "internalType": "bytes32",
          "name": "role",
          "type": "bytes32"
        },
        {
          "internalType": "address",
          "name": "account",
          "type": "address"
        }
      ],
      "name": "hasRole",
      "outputs": [
        {
          "internalType": "bool",
          "name": "",
          "type": "bool"
        }
      ],
      "stateMutability": "view",
      "type": "function"
    },
    {
      "inputs": [
        {
          "internalType": "address",
          "name": "spender",
          "type": "address"
        },
        {
          "internalType": "uint256",
          "name": "addedValue",
          "type": "uint256"
        }
      ],
      "name": "increaseAllowance",
      "outputs": [
        {
          "internalType": "bool",
          "name": "",
          "type": "bool"
        }
      ],
      "stateMutability": "nonpayable",
      "type": "function"
    },
    {
      "inputs": [],
      "name": "initialize",
      "outputs": [],
      "stateMutability": "nonpayable",
      "type": "function"
    },
    {
      "inputs": [
        {
          "internalType": "address",
          "name": "recipient",
          "type": "address"
        },
        {
          "internalType": "uint256",
          "name": "amount",
          "type": "uint256"
        },
        {
          "internalType": "bytes32",
          "name": "transferId",
          "type": "bytes32"
        }
      ],
      "name": "limitedMint",
      "outputs": [],
      "stateMutability": "nonpayable",
      "type": "function"
    },
    {
      "inputs": [
        {
          "internalType": "address",
          "name": "recipient",
          "type": "address"
        },
        {
          "internalType": "uint256",
          "name": "amount",
          "type": "uint256"
        },
        {
          "internalType": "bytes32",
          "name": "transferId",
          "type": "bytes32"
        }
      ],
      "name": "mint",
      "outputs": [],
      "stateMutability": "nonpayable",
      "type": "function"
    },
    {
      "inputs": [],
      "name": "name",
      "outputs": [
        {
          "internalType": "string",
          "name": "",
          "type": "string"
        }
      ],
      "stateMutability": "view",
      "type": "function"
    },
    {
      "inputs": [],
      "name": "pause",
      "outputs": [],
      "stateMutability": "nonpayable",
      "type": "function"
    },
    {
      "inputs": [],
      "name": "paused",
      "outputs": [
        {
          "internalType": "bool",
          "name": "",
          "type": "bool"
        }
      ],
      "stateMutability": "view",
      "type": "function"
    },
    {
      "inputs": [
        {
          "internalType": "bytes32",
          "name": "role",
          "type": "bytes32"
        },
        {
          "internalType": "address",
          "name": "account",
          "type": "address"
        }
      ],
      "name": "renounceRole",
      "outputs": [],
      "stateMutability": "nonpayable",
      "type": "function"
    },
    {
      "inputs": [
        {
          "internalType": "bytes32",
          "name": "role",
          "type": "bytes32"
        },
        {
          "internalType": "address",
          "name": "account",
          "type": "address"
        }
      ],
      "name": "revokeRole",
      "outputs": [],
      "stateMutability": "nonpayable",
      "type": "function"
    },
    {
      "inputs": [],
      "name": "setBurnFeeStatus",
      "outputs": [],
      "stateMutability": "nonpayable",
      "type": "function"
    },
    {
      "inputs": [
        {
          "internalType": "bool",
          "name": "newFreeBurning",
          "type": "bool"
        },
        {
          "internalType": "bool",
          "name": "newFreeMinting",
          "type": "bool"
        },
        {
          "internalType": "uint256",
          "name": "newCommitCooldown",
          "type": "uint256"
        },
        {
          "internalType": "uint256",
          "name": "newCooldownMultiplier",
          "type": "uint256"
        }
      ],
      "name": "setControls",
      "outputs": [],
      "stateMutability": "nonpayable",
      "type": "function"
    },
    {
      "inputs": [
        {
          "internalType": "address",
          "name": "feeCollector",
          "type": "address"
        }
      ],
      "name": "setFeeCollector",
      "outputs": [],
      "stateMutability": "nonpayable",
      "type": "function"
    },
    {
      "inputs": [],
      "name": "setMintFeeStatus",
      "outputs": [],
      "stateMutability": "nonpayable",
      "type": "function"
    },
    {
      "inputs": [
        {
          "internalType": "bytes4",
          "name": "interfaceId",
          "type": "bytes4"
        }
      ],
      "name": "supportsInterface",
      "outputs": [
        {
          "internalType": "bool",
          "name": "",
          "type": "bool"
        }
      ],
      "stateMutability": "view",
      "type": "function"
    },
    {
      "inputs": [],
      "name": "symbol",
      "outputs": [
        {
          "internalType": "string",
          "name": "",
          "type": "string"
        }
      ],
      "stateMutability": "view",
      "type": "function"
    },
    {
      "inputs": [],
      "name": "totalSupply",
      "outputs": [
        {
          "internalType": "uint256",
          "name": "",
          "type": "uint256"
        }
      ],
      "stateMutability": "view",
      "type": "function"
    },
    {
      "inputs": [
        {
          "internalType": "address",
          "name": "to",
          "type": "address"
        },
        {
          "internalType": "uint256",
          "name": "amount",
          "type": "uint256"
        }
      ],
      "name": "transfer",
      "outputs": [
        {
          "internalType": "bool",
          "name": "",
          "type": "bool"
        }
      ],
      "stateMutability": "nonpayable",
      "type": "function"
    },
    {
      "inputs": [
        {
          "internalType": "address",
          "name": "from",
          "type": "address"
        },
        {
          "internalType": "address",
          "name": "to",
          "type": "address"
        },
        {
          "internalType": "uint256",
          "name": "amount",
          "type": "uint256"
        }
      ],
      "name": "transferFrom",
      "outputs": [
        {
          "internalType": "bool",
          "name": "",
          "type": "bool"
        }
      ],
      "stateMutability": "nonpayable",
      "type": "function"
    },
    {
      "inputs": [],
      "name": "unpause",
      "outputs": [],
      "stateMutability": "nonpayable",
      "type": "function"
    },
    {
      "inputs": [
        {
          "internalType": "uint256",
          "name": "newRate",
          "type": "uint256"
        }
      ],
      "name": "updateVariableRate",
      "outputs": [],
      "stateMutability": "nonpayable",
      "type": "function"
    },
    {
      "inputs": [],
      "name": "variableRate",
      "outputs": [
        {
          "internalType": "uint256",
          "name": "",
          "type": "uint256"
        }
      ],
      "stateMutability": "view",
      "type": "function"
    },
    {
      "inputs": [
        {
          "internalType": "address",
          "name": "recipient",
          "type": "address"
        },
        {
          "internalType": "uint256",
          "name": "amount",
          "type": "uint256"
        },
        {
          "internalType": "bytes32",
          "name": "transferId",
          "type": "bytes32"
        }
      ],
      "name": "vetoMint",
      "outputs": [],
      "stateMutability": "nonpayable",
      "type": "function"
    }
  ],
  "bytecode": "0x608060405234801561001057600080fd5b50614ff2806100206000396000f3fe608060405234801561001057600080fd5b506004361061030c5760003560e01c806379cc67901161019d578063aac41dac116100e9578063d547741f116100a2578063dd62ed3e1161007c578063dd62ed3e1461090b578063e63ab1e91461093b578063f34b307914610959578063fc5c69ba146109775761030c565b8063d547741f146108b3578063d911e39b146108cf578063dc59e8c7146108ed5761030c565b8063aac41dac146107f3578063afe45f871461080f578063bd254d4c1461082d578063ca15c87314610849578063cc5907e114610879578063d5391393146108955761030c565b806395d89b4111610156578063a457c2d711610130578063a457c2d71461076b578063a58356701461079b578063a80da81c146107b9578063a9059cbb146107c35761030c565b806395d89b4114610713578063a217fddf14610731578063a42dce801461074f5761030c565b806379cc6790146106655780638129fc1c146106815780638456cb591461068b578063866006a6146106955780639010d07c146106b357806391d14854146106e35761030c565b80632fe94def1161025c57806342966c68116102155780635c975abb116101ef5780635c975abb146105dd5780636c6b65de146105fb5780636cea83721461061757806370a08231146106355761030c565b806342966c68146105875780634670bb6c146105a35780635502f287146105bf5761030c565b80632fe94def146104c5578063313ce567146104e35780633606ef3c1461050157806336568abe14610531578063395093511461054d5780633f4ba83a1461057d5761030c565b80631e458bee116102c957806324e0d460116102a357806324e0d460146104635780632811531f14610481578063282c51f31461048b5780632f2ff15d146104a95761030c565b80631e458bee146103e757806323b872dd14610403578063248a9ca3146104335761030c565b806301ffc9a71461031157806306a85f0f1461034157806306fdde031461035f578063095ea7b31461037d578063158a1cc3146103ad57806318160ddd146103c9575b600080fd5b61032b60048036038101906103269190613869565b610995565b60405161033891906138b1565b60405180910390f35b610349610a0f565b60405161035691906138e5565b60405180910390f35b610367610a33565b6040516103749190613999565b60405180910390f35b61039760048036038101906103929190613a4f565b610ac5565b6040516103a491906138b1565b60405180910390f35b6103c760048036038101906103c29190613abb565b610ae8565b005b6103d1610c39565b6040516103de9190613b1d565b60405180910390f35b61040160048036038101906103fc9190613abb565b610c43565b005b61041d60048036038101906104189190613b38565b610e53565b60405161042a91906138b1565b60405180910390f35b61044d60048036038101906104489190613b8b565b610e82565b60405161045a91906138e5565b60405180910390f35b61046b610ea2565b6040516104789190613b1d565b60405180910390f35b610489610ea9565b005b610493610eed565b6040516104a091906138e5565b60405180910390f35b6104c360048036038101906104be9190613bb8565b610f11565b005b6104cd610f3a565b6040516104da91906138e5565b60405180910390f35b6104eb610f5e565b6040516104f89190613c14565b60405180910390f35b61051b60048036038101906105169190613c2f565b610f67565b6040516105289190613b1d565b60405180910390f35b61054b60048036038101906105469190613bb8565b610f80565b005b61056760048036038101906105629190613a4f565b611077565b60405161057491906138b1565b60405180910390f35b610585611121565b005b6105a1600480360381019061059c9190613c5c565b61115e565b005b6105bd60048036038101906105b89190613abb565b611163565b005b6105c76113e6565b6040516105d491906138e5565b60405180910390f35b6105e561140a565b6040516105f291906138b1565b60405180910390f35b61061560048036038101906106109190613abb565b611421565b005b61061f6114c6565b60405161062c9190613b1d565b60405180910390f35b61064f600480360381019061064a9190613c2f565b6114cd565b60405161065c9190613b1d565b60405180910390f35b61067f600480360381019061067a9190613a4f565b611516565b005b61068961151b565b005b610693611737565b005b61069d611774565b6040516106aa9190613b1d565b60405180910390f35b6106cd60048036038101906106c89190613c89565b61177c565b6040516106da9190613cd8565b60405180910390f35b6106fd60048036038101906106f89190613bb8565b6117ac565b60405161070a91906138b1565b60405180910390f35b61071b611817565b6040516107289190613999565b60405180910390f35b6107396118a9565b60405161074691906138e5565b60405180910390f35b61076960048036038101906107649190613c2f565b6118b0565b005b61078560048036038101906107809190613a4f565b611928565b60405161079291906138b1565b60405180910390f35b6107a3611a12565b6040516107b091906138b1565b60405180910390f35b6107c1611a26565b005b6107dd60048036038101906107d89190613a4f565b611a6a565b6040516107ea91906138b1565b60405180910390f35b61080d60048036038101906108089190613abb565b611a8d565b005b610817611cd7565b6040516108249190613cd8565b60405180910390f35b61084760048036038101906108429190613c5c565b611cfe565b005b610863600480360381019061085e9190613b8b565b611e1a565b6040516108709190613b1d565b60405180910390f35b610893600480360381019061088e9190613d1f565b611e3f565b005b61089d611ea1565b6040516108aa91906138e5565b60405180910390f35b6108cd60048036038101906108c89190613bb8565b611ec5565b005b6108d7611f2a565b6040516108e49190613b1d565b60405180910390f35b6108f5611f31565b60405161090291906138e5565b60405180910390f35b61092560048036038101906109209190613d86565b611f55565b6040516109329190613b1d565b60405180910390f35b610943611fdc565b60405161095091906138e5565b60405180910390f35b610961612000565b60405161096e91906138e5565b60405180910390f35b61097f612024565b60405161098c91906138b1565b60405180910390f35b60007f5a05180f000000000000000000000000000000000000000000000000000000007bffffffffffffffffffffffffffffffffffffffffffffffffffffffff1916827bffffffffffffffffffffffffffffffffffffffffffffffffffffffff19161480610a085750610a0782612038565b5b9050919050565b7f92de27771f92d6942691d73358b3a4673e4880de8356f8f2cf452be87e02d36381565b606060368054610a4290613df5565b80601f0160208091040260200160405190810160405280929190818152602001828054610a6e90613df5565b8015610abb5780601f10610a9057610100808354040283529160200191610abb565b820191906000526020600020905b815481529060010190602001808311610a9e57829003601f168201915b5050505050905090565b600080610ad06120b2565b9050610add8185856120ba565b600191505092915050565b7f3c11d16cbaffd01df69ce1c404f6340ee057498f5f00246190ea54220576a848610b1a81610b156120b2565b612285565b60006001151561016060159054906101000a900460ff16151514610b4457610b4184612322565b90505b6000811115610b7b57610b7a61016060009054906101000a900473ffffffffffffffffffffffffffffffffffffffff168261239a565b5b82848673ffffffffffffffffffffffffffffffffffffffff167f06a5cc13c9f93b7a2af752bb0bda4958deb252b326ded3266f786ca78456002560405160405180910390a4828161016060009054906101000a900473ffffffffffffffffffffffffffffffffffffffff1673ffffffffffffffffffffffffffffffffffffffff167fb90103c5976493d20060202415867ddf1081e70322c45b6f19bfdbe384b14f5160405160405180910390a4610c3285856124fb565b5050505050565b6000603554905090565b7f9f2df0fed2c77648de5860a4cc508cd0818c85b8b8a1ab4ceeef8d981c8956a6610c7581610c706120b2565b612285565b610c9f7faee674c6ada01c6d4ee4067d160ffdacc9cc9aba7ca34516f8c9ff75fdc8d723856117ac565b610cde576040517f08c379a0000000000000000000000000000000000000000000000000000000008152600401610cd590613e73565b60405180910390fd5b60006001151561016060149054906101000a900460ff16151514610d0857610d0584612322565b90505b60008185610d169190613ec2565b905083818773ffffffffffffffffffffffffffffffffffffffff167fb279743e0218314d88b387012a6b7e94ff79b811c536ab5e40d6527ea265ff2c60405160405180910390a4838261016060009054906101000a900473ffffffffffffffffffffffffffffffffffffffff1673ffffffffffffffffffffffffffffffffffffffff167f1f8174bdbec9563f21f6aa0ab97118362e35fd5b104b486a0fa2d754cad41e5160405160405180910390a46000821115610dfc57610dfb61016060009054906101000a900473ffffffffffffffffffffffffffffffffffffffff168361239a565b5b6000610e098787876126d4565b9050600061016360008381526020019081526020016000205414610e40576101636000828152602001908152602001600020600090555b610e4a878361239a565b50505050505050565b600080610e5e6120b2565b9050610e6b85828561270a565b610e76858585612796565b60019150509392505050565b600060fb6000838152602001908152602001600020600101549050919050565b61015f5481565b6000801b610ebe81610eb96120b2565b612285565b61016060149054906101000a900460ff161561016060146101000a81548160ff02191690831515021790555050565b7f3c11d16cbaffd01df69ce1c404f6340ee057498f5f00246190ea54220576a84881565b610f1a82610e82565b610f2b81610f266120b2565b612285565b610f358383612a1a565b505050565b7f8a639721758084b2ff869ed05cee658aab46e6bdc69bca1b006bae9f55613c5981565b60006012905090565b6101646020528060005260406000206000915090505481565b7f5edc4fd0544f0b4b53f14f295fb04bbd6fdbc1bea1fd8edf5851b385aee145d582141561101257610fd27f92de27771f92d6942691d73358b3a4673e4880de8356f8f2cf452be87e02d363336117ac565b611011576040517f08c379a000000000000000000000000000000000000000000000000000000000815260040161100890613f42565b60405180910390fd5b5b6000801b82141561106957600161102883611e1a565b11611068576040517f08c379a000000000000000000000000000000000000000000000000000000000815260040161105f90613fae565b60405180910390fd5b5b6110738282612a4f565b5050565b6000806110826120b2565b9050611116818585603460008673ffffffffffffffffffffffffffffffffffffffff1673ffffffffffffffffffffffffffffffffffffffff16815260200190815260200160002060008973ffffffffffffffffffffffffffffffffffffffff1673ffffffffffffffffffffffffffffffffffffffff168152602001908152602001600020546111119190613fce565b6120ba565b600191505092915050565b7f65d7a28e3265b37a6474929f336521b332c1681b933f6cb9f3376673440d862a6111538161114e6120b2565b612285565b61115b612ad2565b50565b600080fd5b7f4b8072d94804aa443f85286056c4cb9fda8b35e0a826d9959c80aa89382b0f26611195816111906120b2565b612285565b6111bf7faee674c6ada01c6d4ee4067d160ffdacc9cc9aba7ca34516f8c9ff75fdc8d723856117ac565b6111fe576040517f08c379a00000000000000000000000000000000000000000000000000000000081526004016111f590613e73565b60405180910390fd5b4261016460003373ffffffffffffffffffffffffffffffffffffffff1673ffffffffffffffffffffffffffffffffffffffff168152602001908152602001600020541015611281576040517f08c379a000000000000000000000000000000000000000000000000000000000815260040161127890614070565b60405180910390fd5b600061128e8585856126d4565b90506000610163600083815260200190815260200160002054146112e7576040517f08c379a00000000000000000000000000000000000000000000000000000000081526004016112de906140dc565b60405180910390fd5b6000670de0b6b3a7640000856112fd919061412b565b6101615461130b919061415c565b426113169190613fce565b905080610163600084815260200190815260200160002081905550600061016254426113429190613fce565b90508061016460003373ffffffffffffffffffffffffffffffffffffffff1673ffffffffffffffffffffffffffffffffffffffff1681526020019081526020016000208190555084868873ffffffffffffffffffffffffffffffffffffffff167fb744a5eb3cafe36dae33c716833d91c7acd6bfa94ce3c0f4cc6ec42de38755238585336040516113d5939291906141b6565b60405180910390a450505050505050565b7f5edc4fd0544f0b4b53f14f295fb04bbd6fdbc1bea1fd8edf5851b385aee145d581565b6000609760009054906101000a900460ff16905090565b7f92de27771f92d6942691d73358b3a4673e4880de8356f8f2cf452be87e02d3636114538161144e6120b2565b612285565b60006114608585856126d4565b905061016360008281526020019081526020016000206000905582848673ffffffffffffffffffffffffffffffffffffffff167fcc16942b6232b79202fa3d65654a598a75b1a3e812d4179dc04a7a32c097ceba60405160405180910390a45050505050565b6101615481565b6000603360008373ffffffffffffffffffffffffffffffffffffffff1673ffffffffffffffffffffffffffffffffffffffff168152602001908152602001600020549050919050565b600080fd5b600060019054906101000a900460ff166115435760008054906101000a900460ff161561154c565b61154b612b74565b5b61158b576040517f08c379a00000000000000000000000000000000000000000000000000000000081526004016115829061425f565b60405180910390fd5b60008060019054906101000a900460ff1615905080156115db576001600060016101000a81548160ff02191690831515021790555060016000806101000a81548160ff0219169083151502179055505b61164f6040518060400160405280600b81526020017f55534420526563656970740000000000000000000000000000000000000000008152506040518060400160405280600481526020017f5553445200000000000000000000000000000000000000000000000000000000815250612b85565b611657612be2565b61165f612c33565b611667612c8c565b6116746000801b33612cdd565b6116be7f5edc4fd0544f0b4b53f14f295fb04bbd6fdbc1bea1fd8edf5851b385aee145d57f92de27771f92d6942691d73358b3a4673e4880de8356f8f2cf452be87e02d363612ceb565b62e4e1c061015f81905550600161016060146101000a81548160ff021916908315150217905550600161016060156101000a81548160ff02191690831515021790555060096101618190555060006101628190555080156117345760008060016101000a81548160ff0219169083151502179055505b50565b7f65d7a28e3265b37a6474929f336521b332c1681b933f6cb9f3376673440d862a611769816117646120b2565b612285565b611771612d47565b50565b633b9aca0081565b60006117a48261012d6000868152602001908152602001600020612dea90919063ffffffff16565b905092915050565b600060fb600084815260200190815260200160002060000160008373ffffffffffffffffffffffffffffffffffffffff1673ffffffffffffffffffffffffffffffffffffffff16815260200190815260200160002060009054906101000a900460ff16905092915050565b60606037805461182690613df5565b80601f016020809104026020016040519081016040528092919081815260200182805461185290613df5565b801561189f5780601f106118745761010080835404028352916020019161189f565b820191906000526020600020905b81548152906001019060200180831161188257829003601f168201915b5050505050905090565b6000801b81565b7f8a639721758084b2ff869ed05cee658aab46e6bdc69bca1b006bae9f55613c596118e2816118dd6120b2565b612285565b8161016060006101000a81548173ffffffffffffffffffffffffffffffffffffffff021916908373ffffffffffffffffffffffffffffffffffffffff1602179055505050565b6000806119336120b2565b90506000603460008373ffffffffffffffffffffffffffffffffffffffff1673ffffffffffffffffffffffffffffffffffffffff16815260200190815260200160002060008673ffffffffffffffffffffffffffffffffffffffff1673ffffffffffffffffffffffffffffffffffffffff168152602001908152602001600020549050838110156119f9576040517f08c379a00000000000000000000000000000000000000000000000000000000081526004016119f0906142f1565b60405180910390fd5b611a0682868684036120ba565b60019250505092915050565b61016060149054906101000a900460ff1681565b6000801b611a3b81611a366120b2565b612285565b61016060159054906101000a900460ff161561016060156101000a81548160ff02191690831515021790555050565b600080611a756120b2565b9050611a82818585612796565b600191505092915050565b7f4b8072d94804aa443f85286056c4cb9fda8b35e0a826d9959c80aa89382b0f26611abf81611aba6120b2565b612285565b611ae97faee674c6ada01c6d4ee4067d160ffdacc9cc9aba7ca34516f8c9ff75fdc8d723856117ac565b611b28576040517f08c379a0000000000000000000000000000000000000000000000000000000008152600401611b1f90613e73565b60405180910390fd5b6000611b358585856126d4565b9050426101636000838152602001908152602001600020541015611b8e576040517f08c379a0000000000000000000000000000000000000000000000000000000008152600401611b859061435d565b60405180910390fd5b60006001151561016060149054906101000a900460ff16151514611bb857611bb585612322565b90505b60008186611bc69190613ec2565b905084818873ffffffffffffffffffffffffffffffffffffffff167fb279743e0218314d88b387012a6b7e94ff79b811c536ab5e40d6527ea265ff2c60405160405180910390a4848261016060009054906101000a900473ffffffffffffffffffffffffffffffffffffffff1673ffffffffffffffffffffffffffffffffffffffff167f1f8174bdbec9563f21f6aa0ab97118362e35fd5b104b486a0fa2d754cad41e5160405160405180910390a46000821115611cac57611cab61016060009054906101000a900473ffffffffffffffffffffffffffffffffffffffff168361239a565b5b611cb6878261239a565b61016360008481526020019081526020016000206000905550505050505050565b61016060009054906101000a900473ffffffffffffffffffffffffffffffffffffffff1681565b7f8a639721758084b2ff869ed05cee658aab46e6bdc69bca1b006bae9f55613c59611d3081611d2b6120b2565b612285565b6000620f424083611d41919061437d565b14611d81576040517f08c379a0000000000000000000000000000000000000000000000000000000008152600401611d7890614420565b60405180910390fd5b6305f5e100821115611dc8576040517f08c379a0000000000000000000000000000000000000000000000000000000008152600401611dbf9061448c565b60405180910390fd5b620f4240821015611e0e576040517f08c379a0000000000000000000000000000000000000000000000000000000008152600401611e05906144f8565b60405180910390fd5b8161015f819055505050565b6000611e3861012d6000848152602001908152602001600020612e04565b9050919050565b6000801b611e5481611e4f6120b2565b612285565b8461016060156101000a81548160ff0219169083151502179055508361016060146101000a81548160ff021916908315150217905550826101628190555081610161819055505050505050565b7f9f2df0fed2c77648de5860a4cc508cd0818c85b8b8a1ab4ceeef8d981c8956a681565b6000801b821415611f1c576001611edb83611e1a565b11611f1b576040517f08c379a0000000000000000000000000000000000000000000000000000000008152600401611f1290613fae565b60405180910390fd5b5b611f268282612e19565b5050565b6101625481565b7f4b8072d94804aa443f85286056c4cb9fda8b35e0a826d9959c80aa89382b0f2681565b6000603460008473ffffffffffffffffffffffffffffffffffffffff1673ffffffffffffffffffffffffffffffffffffffff16815260200190815260200160002060008373ffffffffffffffffffffffffffffffffffffffff1673ffffffffffffffffffffffffffffffffffffffff16815260200190815260200160002054905092915050565b7f65d7a28e3265b37a6474929f336521b332c1681b933f6cb9f3376673440d862a81565b7faee674c6ada01c6d4ee4067d160ffdacc9cc9aba7ca34516f8c9ff75fdc8d72381565b61016060159054906101000a900460ff1681565b60007f7965db0b000000000000000000000000000000000000000000000000000000007bffffffffffffffffffffffffffffffffffffffffffffffffffffffff1916827bffffffffffffffffffffffffffffffffffffffffffffffffffffffff191614806120ab57506120aa82612e42565b5b9050919050565b600033905090565b600073ffffffffffffffffffffffffffffffffffffffff168373ffffffffffffffffffffffffffffffffffffffff16141561212a576040517f08c379a00000000000000000000000000000000000000000000000000000000081526004016121219061458a565b60405180910390fd5b600073ffffffffffffffffffffffffffffffffffffffff168273ffffffffffffffffffffffffffffffffffffffff16141561219a576040517f08c379a00000000000000000000000000000000000000000000000000000000081526004016121919061461c565b60405180910390fd5b80603460008573ffffffffffffffffffffffffffffffffffffffff1673ffffffffffffffffffffffffffffffffffffffff16815260200190815260200160002060008473ffffffffffffffffffffffffffffffffffffffff1673ffffffffffffffffffffffffffffffffffffffff168152602001908152602001600020819055508173ffffffffffffffffffffffffffffffffffffffff168373ffffffffffffffffffffffffffffffffffffffff167f8c5be1e5ebec7d5bd14f71427d1e84f3dd0314c0f7b2291e5b200ac8c7c3b925836040516122789190613b1d565b60405180910390a3505050565b61228f82826117ac565b61231e576122b48173ffffffffffffffffffffffffffffffffffffffff166014612eac565b6122c28360001c6020612eac565b6040516020016122d3929190614710565b6040516020818303038152906040526040517f08c379a00000000000000000000000000000000000000000000000000000000081526004016123159190613999565b60405180910390fd5b5050565b600080633b9aca0083612335919061437d565b14612375576040517f08c379a000000000000000000000000000000000000000000000000000000000815260040161236c906147bc565b60405180910390fd5b61015f54633b9aca0083612389919061412b565b612393919061415c565b9050919050565b600073ffffffffffffffffffffffffffffffffffffffff168273ffffffffffffffffffffffffffffffffffffffff16141561240a576040517f08c379a000000000000000000000000000000000000000000000000000000000815260040161240190614828565b60405180910390fd5b612416600083836130e8565b80603560008282546124289190613fce565b9250508190555080603360008473ffffffffffffffffffffffffffffffffffffffff1673ffffffffffffffffffffffffffffffffffffffff168152602001908152602001600020600082825461247e9190613fce565b925050819055508173ffffffffffffffffffffffffffffffffffffffff16600073ffffffffffffffffffffffffffffffffffffffff167fddf252ad1be2c89b69c2b068fc378daa952ba7f163c4a11628f55a4df523b3ef836040516124e39190613b1d565b60405180910390a36124f760008383613214565b5050565b600073ffffffffffffffffffffffffffffffffffffffff168273ffffffffffffffffffffffffffffffffffffffff16141561256b576040517f08c379a0000000000000000000000000000000000000000000000000000000008152600401612562906148ba565b60405180910390fd5b612577826000836130e8565b6000603360008473ffffffffffffffffffffffffffffffffffffffff1673ffffffffffffffffffffffffffffffffffffffff168152602001908152602001600020549050818110156125fe576040517f08c379a00000000000000000000000000000000000000000000000000000000081526004016125f59061494c565b60405180910390fd5b818103603360008573ffffffffffffffffffffffffffffffffffffffff1673ffffffffffffffffffffffffffffffffffffffff1681526020019081526020016000208190555081603560008282546126569190613ec2565b92505081905550600073ffffffffffffffffffffffffffffffffffffffff168373ffffffffffffffffffffffffffffffffffffffff167fddf252ad1be2c89b69c2b068fc378daa952ba7f163c4a11628f55a4df523b3ef846040516126bb9190613b1d565b60405180910390a36126cf83600084613214565b505050565b60008383836040516020016126eb9392919061496c565b6040516020818303038152906040528051906020012090509392505050565b60006127168484611f55565b90507fffffffffffffffffffffffffffffffffffffffffffffffffffffffffffffffff81146127905781811015612782576040517f08c379a0000000000000000000000000000000000000000000000000000000008152600401612779906149ef565b60405180910390fd5b61278f84848484036120ba565b5b50505050565b600073ffffffffffffffffffffffffffffffffffffffff168373ffffffffffffffffffffffffffffffffffffffff161415612806576040517f08c379a00000000000000000000000000000000000000000000000000000000081526004016127fd90614a81565b60405180910390fd5b600073ffffffffffffffffffffffffffffffffffffffff168273ffffffffffffffffffffffffffffffffffffffff161415612876576040517f08c379a000000000000000000000000000000000000000000000000000000000815260040161286d90614b13565b60405180910390fd5b6128818383836130e8565b6000603360008573ffffffffffffffffffffffffffffffffffffffff1673ffffffffffffffffffffffffffffffffffffffff16815260200190815260200160002054905081811015612908576040517f08c379a00000000000000000000000000000000000000000000000000000000081526004016128ff90614ba5565b60405180910390fd5b818103603360008673ffffffffffffffffffffffffffffffffffffffff1673ffffffffffffffffffffffffffffffffffffffff1681526020019081526020016000208190555081603360008573ffffffffffffffffffffffffffffffffffffffff1673ffffffffffffffffffffffffffffffffffffffff168152602001908152602001600020600082825461299d9190613fce565b925050819055508273ffffffffffffffffffffffffffffffffffffffff168473ffffffffffffffffffffffffffffffffffffffff167fddf252ad1be2c89b69c2b068fc378daa952ba7f163c4a11628f55a4df523b3ef84604051612a019190613b1d565b60405180910390a3612a14848484613214565b50505050565b612a248282613219565b612a4a8161012d60008581526020019081526020016000206132fa90919063ffffffff16565b505050565b612a576120b2565b73ffffffffffffffffffffffffffffffffffffffff168173ffffffffffffffffffffffffffffffffffffffff1614612ac4576040517f08c379a0000000000000000000000000000000000000000000000000000000008152600401612abb90614c37565b60405180910390fd5b612ace828261332a565b5050565b612ada61140a565b612b19576040517f08c379a0000000000000000000000000000000000000000000000000000000008152600401612b1090614ca3565b60405180910390fd5b6000609760006101000a81548160ff0219169083151502179055507f5db9ee0a495bf2e6ff9c91a7834c1ba4fdd244a5e8aa4e537bd38aeae4b073aa612b5d6120b2565b604051612b6a9190613cd8565b60405180910390a1565b6000612b7f3061335f565b15905090565b600060019054906101000a900460ff16612bd4576040517f08c379a0000000000000000000000000000000000000000000000000000000008152600401612bcb90614d35565b60405180910390fd5b612bde8282613382565b5050565b600060019054906101000a900460ff16612c31576040517f08c379a0000000000000000000000000000000000000000000000000000000008152600401612c2890614d35565b60405180910390fd5b565b600060019054906101000a900460ff16612c82576040517f08c379a0000000000000000000000000000000000000000000000000000000008152600401612c7990614d35565b60405180910390fd5b612c8a613403565b565b600060019054906101000a900460ff16612cdb576040517f08c379a0000000000000000000000000000000000000000000000000000000008152600401612cd290614d35565b60405180910390fd5b565b612ce78282612a1a565b5050565b6000612cf683610e82565b90508160fb6000858152602001908152602001600020600101819055508181847fbd79b86ffe0ab8e8776151514217cd7cacd52c909f66475c3af44e129f0b00ff60405160405180910390a4505050565b612d4f61140a565b15612d8f576040517f08c379a0000000000000000000000000000000000000000000000000000000008152600401612d8690614da1565b60405180910390fd5b6001609760006101000a81548160ff0219169083151502179055507f62e78cea01bee320cd4e420270b5ea74000d11b0c9f74754ebdbfc544b05a258612dd36120b2565b604051612de09190613cd8565b60405180910390a1565b6000612df9836000018361346f565b60001c905092915050565b6000612e128260000161349a565b9050919050565b612e2282610e82565b612e3381612e2e6120b2565b612285565b612e3d838361332a565b505050565b60007f01ffc9a7000000000000000000000000000000000000000000000000000000007bffffffffffffffffffffffffffffffffffffffffffffffffffffffff1916827bffffffffffffffffffffffffffffffffffffffffffffffffffffffff1916149050919050565b606060006002836002612ebf919061415c565b612ec99190613fce565b67ffffffffffffffff811115612ee257612ee1614dc1565b5b6040519080825280601f01601f191660200182016040528015612f145781602001600182028036833780820191505090505b5090507f300000000000000000000000000000000000000000000000000000000000000081600081518110612f4c57612f4b614df0565b5b60200101907effffffffffffffffffffffffffffffffffffffffffffffffffffffffffffff1916908160001a9053507f780000000000000000000000000000000000000000000000000000000000000081600181518110612fb057612faf614df0565b5b60200101907effffffffffffffffffffffffffffffffffffffffffffffffffffffffffffff1916908160001a90535060006001846002612ff0919061415c565b612ffa9190613fce565b90505b600181111561309a577f3031323334353637383961626364656600000000000000000000000000000000600f86166010811061303c5761303b614df0565b5b1a60f81b82828151811061305357613052614df0565b5b60200101907effffffffffffffffffffffffffffffffffffffffffffffffffffffffffffff1916908160001a905350600485901c94508061309390614e1f565b9050612ffd565b50600084146130de576040517f08c379a00000000000000000000000000000000000000000000000000000000081526004016130d590614e95565b60405180910390fd5b8091505092915050565b6130f061140a565b15613130576040517f08c379a000000000000000000000000000000000000000000000000000000000815260040161312790614da1565b60405180910390fd5b61315a7f5edc4fd0544f0b4b53f14f295fb04bbd6fdbc1bea1fd8edf5851b385aee145d5846117ac565b1561319a576040517f08c379a000000000000000000000000000000000000000000000000000000000815260040161319190614f01565b60405180910390fd5b6131c47f5edc4fd0544f0b4b53f14f295fb04bbd6fdbc1bea1fd8edf5851b385aee145d5836117ac565b15613204576040517f08c379a00000000000000000000000000000000000000000000000000000000081526004016131fb90614f6d565b60405180910390fd5b61320f8383836134ab565b505050565b505050565b61322382826117ac565b6132f657600160fb600084815260200190815260200160002060000160008373ffffffffffffffffffffffffffffffffffffffff1673ffffffffffffffffffffffffffffffffffffffff16815260200190815260200160002060006101000a81548160ff02191690831515021790555061329b6120b2565b73ffffffffffffffffffffffffffffffffffffffff168173ffffffffffffffffffffffffffffffffffffffff16837f2f8788117e7eff1d82e926ec794901d17c78024a50270940304540a733656f0d60405160405180910390a45b5050565b6000613322836000018373ffffffffffffffffffffffffffffffffffffffff1660001b6134b0565b905092915050565b6133348282613520565b61335a8161012d600085815260200190815260200160002061360290919063ffffffff16565b505050565b6000808273ffffffffffffffffffffffffffffffffffffffff163b119050919050565b600060019054906101000a900460ff166133d1576040517f08c379a00000000000000000000000000000000000000000000000000000000081526004016133c890614d35565b60405180910390fd5b81603690805190602001906133e7929190613769565b5080603790805190602001906133fe929190613769565b505050565b600060019054906101000a900460ff16613452576040517f08c379a000000000000000000000000000000000000000000000000000000000815260040161344990614d35565b60405180910390fd5b6000609760006101000a81548160ff021916908315150217905550565b600082600001828154811061348757613486614df0565b5b9060005260206000200154905092915050565b600081600001805490509050919050565b505050565b60006134bc8383613632565b61351557826000018290806001815401808255809150506001900390600052602060002001600090919091909150558260000180549050836001016000848152602001908152602001600020819055506001905061351a565b600090505b92915050565b61352a82826117ac565b156135fe57600060fb600084815260200190815260200160002060000160008373ffffffffffffffffffffffffffffffffffffffff1673ffffffffffffffffffffffffffffffffffffffff16815260200190815260200160002060006101000a81548160ff0219169083151502179055506135a36120b2565b73ffffffffffffffffffffffffffffffffffffffff168173ffffffffffffffffffffffffffffffffffffffff16837ff6391f5c32d9c69d2a47ea670b442974b53935d1edc7fd64eb21e047a839171b60405160405180910390a45b5050565b600061362a836000018373ffffffffffffffffffffffffffffffffffffffff1660001b613655565b905092915050565b600080836001016000848152602001908152602001600020541415905092915050565b6000808360010160008481526020019081526020016000205490506000811461375d5760006001826136879190613ec2565b905060006001866000018054905061369f9190613ec2565b905081811461370e5760008660000182815481106136c0576136bf614df0565b5b90600052602060002001549050808760000184815481106136e4576136e3614df0565b5b90600052602060002001819055508387600101600083815260200190815260200160002081905550505b8560000180548061372257613721614f8d565b5b600190038181906000526020600020016000905590558560010160008681526020019081526020016000206000905560019350505050613763565b60009150505b92915050565b82805461377590613df5565b90600052602060002090601f01602090048101928261379757600085556137de565b82601f106137b057805160ff19168380011785556137de565b828001600101855582156137de579182015b828111156137dd5782518255916020019190600101906137c2565b5b5090506137eb91906137ef565b5090565b5b808211156138085760008160009055506001016137f0565b5090565b600080fd5b60007fffffffff0000000000000000000000000000000000000000000000000000000082169050919050565b61384681613811565b811461385157600080fd5b50565b6000813590506138638161383d565b92915050565b60006020828403121561387f5761387e61380c565b5b600061388d84828501613854565b91505092915050565b60008115159050919050565b6138ab81613896565b82525050565b60006020820190506138c660008301846138a2565b92915050565b6000819050919050565b6138df816138cc565b82525050565b60006020820190506138fa60008301846138d6565b92915050565b600081519050919050565b600082825260208201905092915050565b60005b8381101561393a57808201518184015260208101905061391f565b83811115613949576000848401525b50505050565b6000601f19601f8301169050919050565b600061396b82613900565b613975818561390b565b935061398581856020860161391c565b61398e8161394f565b840191505092915050565b600060208201905081810360008301526139b38184613960565b905092915050565b600073ffffffffffffffffffffffffffffffffffffffff82169050919050565b60006139e6826139bb565b9050919050565b6139f6816139db565b8114613a0157600080fd5b50565b600081359050613a13816139ed565b92915050565b6000819050919050565b613a2c81613a19565b8114613a3757600080fd5b50565b600081359050613a4981613a23565b92915050565b60008060408385031215613a6657613a6561380c565b5b6000613a7485828601613a04565b9250506020613a8585828601613a3a565b9150509250929050565b613a98816138cc565b8114613aa357600080fd5b50565b600081359050613ab581613a8f565b92915050565b600080600060608486031215613ad457613ad361380c565b5b6000613ae286828701613a04565b9350506020613af386828701613a3a565b9250506040613b0486828701613aa6565b9150509250925092565b613b1781613a19565b82525050565b6000602082019050613b326000830184613b0e565b92915050565b600080600060608486031215613b5157613b5061380c565b5b6000613b5f86828701613a04565b9350506020613b7086828701613a04565b9250506040613b8186828701613a3a565b9150509250925092565b600060208284031215613ba157613ba061380c565b5b6000613baf84828501613aa6565b91505092915050565b60008060408385031215613bcf57613bce61380c565b5b6000613bdd85828601613aa6565b9250506020613bee85828601613a04565b9150509250929050565b600060ff82169050919050565b613c0e81613bf8565b82525050565b6000602082019050613c296000830184613c05565b92915050565b600060208284031215613c4557613c4461380c565b5b6000613c5384828501613a04565b91505092915050565b600060208284031215613c7257613c7161380c565b5b6000613c8084828501613a3a565b91505092915050565b60008060408385031215613ca057613c9f61380c565b5b6000613cae85828601613aa6565b9250506020613cbf85828601613a3a565b9150509250929050565b613cd2816139db565b82525050565b6000602082019050613ced6000830184613cc9565b92915050565b613cfc81613896565b8114613d0757600080fd5b50565b600081359050613d1981613cf3565b92915050565b60008060008060808587031215613d3957613d3861380c565b5b6000613d4787828801613d0a565b9450506020613d5887828801613d0a565b9350506040613d6987828801613a3a565b9250506060613d7a87828801613a3a565b91505092959194509250565b60008060408385031215613d9d57613d9c61380c565b5b6000613dab85828601613a04565b9250506020613dbc85828601613a04565b9150509250929050565b7f4e487b7100000000000000000000000000000000000000000000000000000000600052602260045260246000fd5b60006002820490506001821680613e0d57607f821691505b60208210811415613e2157613e20613dc6565b5b50919050565b7f526563697069656e74206d7573742062652077686974656c69737465642e0000600082015250565b6000613e5d601e8361390b565b9150613e6882613e27565b602082019050919050565b60006020820190508181036000830152613e8c81613e50565b9050919050565b7f4e487b7100000000000000000000000000000000000000000000000000000000600052601160045260246000fd5b6000613ecd82613a19565b9150613ed883613a19565b925082821015613eeb57613eea613e93565b5b828203905092915050565b7f4f6e6c7920726f6c652061646d696e2063616e207265766f6b65000000000000600082015250565b6000613f2c601a8361390b565b9150613f3782613ef6565b602082019050919050565b60006020820190508181036000830152613f5b81613f1f565b9050919050565b7f436f6e7472616374207265717569726573206f6e652061646d696e0000000000600082015250565b6000613f98601b8361390b565b9150613fa382613f62565b602082019050919050565b60006020820190508181036000830152613fc781613f8b565b9050919050565b6000613fd982613a19565b9150613fe483613a19565b9250827fffffffffffffffffffffffffffffffffffffffffffffffffffffffffffffffff0382111561401957614018613e93565b5b828201905092915050565b7f436f6d6d69746d656e7420636f6f6c646f776e00000000000000000000000000600082015250565b600061405a60138361390b565b915061406582614024565b602082019050919050565b600060208201905081810360008301526140898161404d565b9050919050565b7f5472616e73616374696f6e20616c726561647920717565756564000000000000600082015250565b60006140c6601a8361390b565b91506140d182614090565b602082019050919050565b600060208201905081810360008301526140f5816140b9565b9050919050565b7f4e487b7100000000000000000000000000000000000000000000000000000000600052601260045260246000fd5b600061413682613a19565b915061414183613a19565b925082614151576141506140fc565b5b828204905092915050565b600061416782613a19565b915061417283613a19565b9250817fffffffffffffffffffffffffffffffffffffffffffffffffffffffffffffffff04831182151516156141ab576141aa613e93565b5b828202905092915050565b60006060820190506141cb6000830186613b0e565b6141d86020830185613b0e565b6141e56040830184613cc9565b949350505050565b7f496e697469616c697a61626c653a20636f6e747261637420697320616c72656160008201527f647920696e697469616c697a6564000000000000000000000000000000000000602082015250565b6000614249602e8361390b565b9150614254826141ed565b604082019050919050565b600060208201905081810360008301526142788161423c565b9050919050565b7f45524332303a2064656372656173656420616c6c6f77616e63652062656c6f7760008201527f207a65726f000000000000000000000000000000000000000000000000000000602082015250565b60006142db60258361390b565b91506142e68261427f565b604082019050919050565b6000602082019050818103600083015261430a816142ce565b9050919050565b7f436f6f6c646f776e20686173206e6f742079657420656c617073656400000000600082015250565b6000614347601c8361390b565b915061435282614311565b602082019050919050565b600060208201905081810360008301526143768161433a565b9050919050565b600061438882613a19565b915061439383613a19565b9250826143a3576143a26140fc565b5b828206905092915050565b7f5661726961626c652072617465206d75737420626520696e20696e6372656d6560008201527f6e7473206f6620302e3125210000000000000000000000000000000000000000602082015250565b600061440a602c8361390b565b9150614415826143ae565b604082019050919050565b60006020820190508181036000830152614439816143fd565b9050919050565b7f4e6577205261746520546f6f204c617267650000000000000000000000000000600082015250565b600061447660128361390b565b915061448182614440565b602082019050919050565b600060208201905081810360008301526144a581614469565b9050919050565b7f4e6577205261746520546f6f20536d616c6c0000000000000000000000000000600082015250565b60006144e260128361390b565b91506144ed826144ac565b602082019050919050565b60006020820190508181036000830152614511816144d5565b9050919050565b7f45524332303a20617070726f76652066726f6d20746865207a65726f2061646460008201527f7265737300000000000000000000000000000000000000000000000000000000602082015250565b600061457460248361390b565b915061457f82614518565b604082019050919050565b600060208201905081810360008301526145a381614567565b9050919050565b7f45524332303a20617070726f766520746f20746865207a65726f20616464726560008201527f7373000000000000000000000000000000000000000000000000000000000000602082015250565b600061460660228361390b565b9150614611826145aa565b604082019050919050565b60006020820190508181036000830152614635816145f9565b9050919050565b600081905092915050565b7f416363657373436f6e74726f6c3a206163636f756e7420000000000000000000600082015250565b600061467d60178361463c565b915061468882614647565b601782019050919050565b600061469e82613900565b6146a8818561463c565b93506146b881856020860161391c565b80840191505092915050565b7f206973206d697373696e6720726f6c6520000000000000000000000000000000600082015250565b60006146fa60118361463c565b9150614705826146c4565b601182019050919050565b600061471b82614670565b91506147278285614693565b9150614732826146ed565b915061473e8284614693565b91508190509392505050565b7f416d6f756e742063616e2774206265206d6f726520707265636973652074686160008201527f6e203920646563696d616c20706c616365732100000000000000000000000000602082015250565b60006147a660338361390b565b91506147b18261474a565b604082019050919050565b600060208201905081810360008301526147d581614799565b9050919050565b7f45524332303a206d696e7420746f20746865207a65726f206164647265737300600082015250565b6000614812601f8361390b565b915061481d826147dc565b602082019050919050565b6000602082019050818103600083015261484181614805565b9050919050565b7f45524332303a206275726e2066726f6d20746865207a65726f2061646472657360008201527f7300000000000000000000000000000000000000000000000000000000000000602082015250565b60006148a460218361390b565b91506148af82614848565b604082019050919050565b600060208201905081810360008301526148d381614897565b9050919050565b7f45524332303a206275726e20616d6f756e7420657863656564732062616c616e60008201527f6365000000000000000000000000000000000000000000000000000000000000602082015250565b600061493660228361390b565b9150614941826148da565b604082019050919050565b6000602082019050818103600083015261496581614929565b9050919050565b60006060820190506149816000830186613cc9565b61498e6020830185613b0e565b61499b60408301846138d6565b949350505050565b7f45524332303a20696e73756666696369656e7420616c6c6f77616e6365000000600082015250565b60006149d9601d8361390b565b91506149e4826149a3565b602082019050919050565b60006020820190508181036000830152614a08816149cc565b9050919050565b7f45524332303a207472616e736665722066726f6d20746865207a65726f20616460008201527f6472657373000000000000000000000000000000000000000000000000000000602082015250565b6000614a6b60258361390b565b9150614a7682614a0f565b604082019050919050565b60006020820190508181036000830152614a9a81614a5e565b9050919050565b7f45524332303a207472616e7366657220746f20746865207a65726f206164647260008201527f6573730000000000000000000000000000000000000000000000000000000000602082015250565b6000614afd60238361390b565b9150614b0882614aa1565b604082019050919050565b60006020820190508181036000830152614b2c81614af0565b9050919050565b7f45524332303a207472616e7366657220616d6f756e742065786365656473206260008201527f616c616e63650000000000000000000000000000000000000000000000000000602082015250565b6000614b8f60268361390b565b9150614b9a82614b33565b604082019050919050565b60006020820190508181036000830152614bbe81614b82565b9050919050565b7f416363657373436f6e74726f6c3a2063616e206f6e6c792072656e6f756e636560008201527f20726f6c657320666f722073656c660000000000000000000000000000000000602082015250565b6000614c21602f8361390b565b9150614c2c82614bc5565b604082019050919050565b60006020820190508181036000830152614c5081614c14565b9050919050565b7f5061757361626c653a206e6f7420706175736564000000000000000000000000600082015250565b6000614c8d60148361390b565b9150614c9882614c57565b602082019050919050565b60006020820190508181036000830152614cbc81614c80565b9050919050565b7f496e697469616c697a61626c653a20636f6e7472616374206973206e6f74206960008201527f6e697469616c697a696e67000000000000000000000000000000000000000000602082015250565b6000614d1f602b8361390b565b9150614d2a82614cc3565b604082019050919050565b60006020820190508181036000830152614d4e81614d12565b9050919050565b7f5061757361626c653a2070617573656400000000000000000000000000000000600082015250565b6000614d8b60108361390b565b9150614d9682614d55565b602082019050919050565b60006020820190508181036000830152614dba81614d7e565b9050919050565b7f4e487b7100000000000000000000000000000000000000000000000000000000600052604160045260246000fd5b7f4e487b7100000000000000000000000000000000000000000000000000000000600052603260045260246000fd5b6000614e2a82613a19565b91506000821415614e3e57614e3d613e93565b5b600182039050919050565b7f537472696e67733a20686578206c656e67746820696e73756666696369656e74600082015250565b6000614e7f60208361390b565b9150614e8a82614e49565b602082019050919050565b60006020820190508181036000830152614eae81614e72565b9050919050565b7f53656e6465722069732063757272656e746c792066726f7a656e2e0000000000600082015250565b6000614eeb601b8361390b565b9150614ef682614eb5565b602082019050919050565b60006020820190508181036000830152614f1a81614ede565b9050919050565b7f526563697069656e742069732063757272656e746c792066726f7a656e2e0000600082015250565b6000614f57601e8361390b565b9150614f6282614f21565b602082019050919050565b60006020820190508181036000830152614f8681614f4a565b9050919050565b7f4e487b7100000000000000000000000000000000000000000000000000000000600052603160045260246000fdfea2646970667358221220e36feb1969abf7b8433527d256e21f1befd63d5fd120459707572f573f506e6264736f6c634300080b0033",
  "linkReferences": {},
  "deployedLinkReferences": {}
}