{
  "_format": "hh-sol-artifact-1",
  "contractName": "METLV3",
  "sourceName": "contracts/METLV3.sol",
  "abi": [
    {
      "anonymous": false,
      "inputs": [
        {
          "indexed": true,
          "internalType": "address",
          "name": "owner",
          "type": "address"
        },
        {
          "indexed": true,
          "internalType": "address",
          "name": "spender",
          "type": "address"
        },
        {
          "indexed": false,
          "internalType": "uint256",
          "name": "value",
          "type": "uint256"
        }
      ],
      "name": "Approval",
      "type": "event"
    },
    {
      "anonymous": false,
      "inputs": [
        {
          "indexed": true,
          "internalType": "address",
          "name": "feeCollector",
          "type": "address"
        },
        {
          "indexed": true,
          "internalType": "uint256",
          "name": "fee",
          "type": "uint256"
        },
        {
          "indexed": true,
          "internalType": "bytes32",
          "name": "actionId",
          "type": "bytes32"
        }
      ],
      "name": "BurnFee",
      "type": "event"
    },
    {
      "anonymous": false,
      "inputs": [
        {
          "indexed": true,
          "internalType": "address",
          "name": "recipient",
          "type": "address"
        },
        {
          "indexed": true,
          "internalType": "uint256",
          "name": "amount",
          "type": "uint256"
        },
        {
          "indexed": true,
          "internalType": "bytes32",
          "name": "transferId",
          "type": "bytes32"
        },
        {
          "indexed": false,
          "internalType": "uint256",
          "name": "mintUnlockTime",
          "type": "uint256"
        },
        {
          "indexed": false,
          "internalType": "uint256",
          "name": "commitUnlockTime",
          "type": "uint256"
        },
        {
          "indexed": false,
          "internalType": "address",
          "name": "limitedMinter",
          "type": "address"
        }
      ],
      "name": "Commit",
      "type": "event"
    },
    {
      "anonymous": false,
      "inputs": [
        {
          "indexed": true,
          "internalType": "address",
          "name": "feeCollector",
          "type": "address"
        },
        {
          "indexed": true,
          "internalType": "uint256",
          "name": "fee",
          "type": "uint256"
        },
        {
          "indexed": true,
          "internalType": "bytes32",
          "name": "transferId",
          "type": "bytes32"
        }
      ],
      "name": "MintFee",
      "type": "event"
    },
    {
      "anonymous": false,
      "inputs": [
        {
          "indexed": true,
          "internalType": "address",
          "name": "recipient",
          "type": "address"
        },
        {
          "indexed": true,
          "internalType": "uint256",
          "name": "amount",
          "type": "uint256"
        },
        {
          "indexed": true,
          "internalType": "bytes32",
          "name": "transferId",
          "type": "bytes32"
        }
      ],
      "name": "MintVetoed",
      "type": "event"
    },
    {
      "anonymous": false,
      "inputs": [
        {
          "indexed": false,
          "internalType": "address",
          "name": "account",
          "type": "address"
        }
      ],
      "name": "Paused",
      "type": "event"
    },
    {
      "anonymous": false,
      "inputs": [
        {
          "indexed": true,
          "internalType": "address",
          "name": "recipient",
          "type": "address"
        },
        {
          "indexed": true,
          "internalType": "uint256",
          "name": "amount",
          "type": "uint256"
        },
        {
          "indexed": true,
          "internalType": "bytes32",
          "name": "actionId",
          "type": "bytes32"
        }
      ],
      "name": "ReceivedBurn",
      "type": "event"
    },
    {
      "anonymous": false,
      "inputs": [
        {
          "indexed": true,
          "internalType": "address",
          "name": "recipient",
          "type": "address"
        },
        {
          "indexed": true,
          "internalType": "uint256",
          "name": "amount",
          "type": "uint256"
        },
        {
          "indexed": true,
          "internalType": "bytes32",
          "name": "transferId",
          "type": "bytes32"
        }
      ],
      "name": "ReceivedMint",
      "type": "event"
    },
    {
      "anonymous": false,
      "inputs": [
        {
          "indexed": true,
          "internalType": "bytes32",
          "name": "role",
          "type": "bytes32"
        },
        {
          "indexed": true,
          "internalType": "bytes32",
          "name": "previousAdminRole",
          "type": "bytes32"
        },
        {
          "indexed": true,
          "internalType": "bytes32",
          "name": "newAdminRole",
          "type": "bytes32"
        }
      ],
      "name": "RoleAdminChanged",
      "type": "event"
    },
    {
      "anonymous": false,
      "inputs": [
        {
          "indexed": true,
          "internalType": "bytes32",
          "name": "role",
          "type": "bytes32"
        },
        {
          "indexed": true,
          "internalType": "address",
          "name": "account",
          "type": "address"
        },
        {
          "indexed": true,
          "internalType": "address",
          "name": "sender",
          "type": "address"
        }
      ],
      "name": "RoleGranted",
      "type": "event"
    },
    {
      "anonymous": false,
      "inputs": [
        {
          "indexed": true,
          "internalType": "bytes32",
          "name": "role",
          "type": "bytes32"
        },
        {
          "indexed": true,
          "internalType": "address",
          "name": "account",
          "type": "address"
        },
        {
          "indexed": true,
          "internalType": "address",
          "name": "sender",
          "type": "address"
        }
      ],
      "name": "RoleRevoked",
      "type": "event"
    },
    {
      "anonymous": false,
      "inputs": [
        {
          "indexed": true,
          "internalType": "address",
          "name": "from",
          "type": "address"
        },
        {
          "indexed": true,
          "internalType": "address",
          "name": "to",
          "type": "address"
        },
        {
          "indexed": false,
          "internalType": "uint256",
          "name": "value",
          "type": "uint256"
        }
      ],
      "name": "Transfer",
      "type": "event"
    },
    {
      "anonymous": false,
      "inputs": [
        {
          "indexed": false,
          "internalType": "address",
          "name": "account",
          "type": "address"
        }
      ],
      "name": "Unpaused",
      "type": "event"
    },
    {
      "inputs": [],
      "name": "BASIS_RATE",
      "outputs": [
        {
          "internalType": "uint256",
          "name": "",
          "type": "uint256"
        }
      ],
      "stateMutability": "view",
      "type": "function"
    },
    {
      "inputs": [],
      "name": "BURNER_ROLE",
      "outputs": [
        {
          "internalType": "bytes32",
          "name": "",
          "type": "bytes32"
        }
      ],
      "stateMutability": "view",
      "type": "function"
    },
    {
      "inputs": [],
      "name": "DEFAULT_ADMIN_ROLE",
      "outputs": [
        {
          "internalType": "bytes32",
          "name": "",
          "type": "bytes32"
        }
      ],
      "stateMutability": "view",
      "type": "function"
    },
    {
      "inputs": [],
      "name": "FEE_CONTROLLER",
      "outputs": [
        {
          "internalType": "bytes32",
          "name": "",
          "type": "bytes32"
        }
      ],
      "stateMutability": "view",
      "type": "function"
    },
    {
      "inputs": [],
      "name": "FREEZER_ROLE",
      "outputs": [
        {
          "internalType": "bytes32",
          "name": "",
          "type": "bytes32"
        }
      ],
      "stateMutability": "view",
      "type": "function"
    },
    {
      "inputs": [],
      "name": "FROZEN_USER",
      "outputs": [
        {
          "internalType": "bytes32",
          "name": "",
          "type": "bytes32"
        }
      ],
      "stateMutability": "view",
      "type": "function"
    },
    {
      "inputs": [],
      "name": "LIMITED_MINTER",
      "outputs": [
        {
          "internalType": "bytes32",
          "name": "",
          "type": "bytes32"
        }
      ],
      "stateMutability": "view",
      "type": "function"
    },
    {
      "inputs": [],
      "name": "MINTER_ROLE",
      "outputs": [
        {
          "internalType": "bytes32",
          "name": "",
          "type": "bytes32"
        }
      ],
      "stateMutability": "view",
      "type": "function"
    },
    {
      "inputs": [],
      "name": "PAUSER_ROLE",
      "outputs": [
        {
          "internalType": "bytes32",
          "name": "",
          "type": "bytes32"
        }
      ],
      "stateMutability": "view",
      "type": "function"
    },
    {
      "inputs": [],
      "name": "WHITELIST_USER",
      "outputs": [
        {
          "internalType": "bytes32",
          "name": "",
          "type": "bytes32"
        }
      ],
      "stateMutability": "view",
      "type": "function"
    },
    {
      "inputs": [
        {
          "internalType": "address",
          "name": "owner",
          "type": "address"
        },
        {
          "internalType": "address",
          "name": "spender",
          "type": "address"
        }
      ],
      "name": "allowance",
      "outputs": [
        {
          "internalType": "uint256",
          "name": "",
          "type": "uint256"
        }
      ],
      "stateMutability": "view",
      "type": "function"
    },
    {
      "inputs": [
        {
          "internalType": "address",
          "name": "spender",
          "type": "address"
        },
        {
          "internalType": "uint256",
          "name": "amount",
          "type": "uint256"
        }
      ],
      "name": "approve",
      "outputs": [
        {
          "internalType": "bool",
          "name": "",
          "type": "bool"
        }
      ],
      "stateMutability": "nonpayable",
      "type": "function"
    },
    {
      "inputs": [
        {
          "internalType": "address",
          "name": "account",
          "type": "address"
        }
      ],
      "name": "balanceOf",
      "outputs": [
        {
          "internalType": "uint256",
          "name": "",
          "type": "uint256"
        }
      ],
      "stateMutability": "view",
      "type": "function"
    },
    {
      "inputs": [
        {
          "internalType": "address",
          "name": "target",
          "type": "address"
        },
        {
          "internalType": "uint256",
          "name": "amount",
          "type": "uint256"
        },
        {
          "internalType": "bytes32",
          "name": "actionId",
          "type": "bytes32"
        }
      ],
      "name": "bankBurn",
      "outputs": [],
      "stateMutability": "nonpayable",
      "type": "function"
    },
    {
      "inputs": [
        {
          "internalType": "uint256",
          "name": "amount",
          "type": "uint256"
        }
      ],
      "name": "burn",
      "outputs": [],
      "stateMutability": "nonpayable",
      "type": "function"
    },
    {
      "inputs": [
        {
          "internalType": "address",
          "name": "account",
          "type": "address"
        },
        {
          "internalType": "uint256",
          "name": "amount",
          "type": "uint256"
        }
      ],
      "name": "burnFrom",
      "outputs": [],
      "stateMutability": "nonpayable",
      "type": "function"
    },
    {
      "inputs": [],
      "name": "commitCooldown",
      "outputs": [
        {
          "internalType": "uint256",
          "name": "",
          "type": "uint256"
        }
      ],
      "stateMutability": "view",
      "type": "function"
    },
    {
      "inputs": [
        {
          "internalType": "address",
          "name": "recipient",
          "type": "address"
        },
        {
          "internalType": "uint256",
          "name": "amount",
          "type": "uint256"
        },
        {
          "internalType": "bytes32",
          "name": "transferId",
          "type": "bytes32"
        }
      ],
      "name": "commitMint",
      "outputs": [],
      "stateMutability": "nonpayable",
      "type": "function"
    },
    {
      "inputs": [
        {
          "internalType": "address",
          "name": "",
          "type": "address"
        }
      ],
      "name": "commitUnlock",
      "outputs": [
        {
          "internalType": "uint256",
          "name": "",
          "type": "uint256"
        }
      ],
      "stateMutability": "view",
      "type": "function"
    },
    {
      "inputs": [],
      "name": "cooldownMultiplier",
      "outputs": [
        {
          "internalType": "uint256",
          "name": "",
          "type": "uint256"
        }
      ],
      "stateMutability": "view",
      "type": "function"
    },
    {
      "inputs": [],
      "name": "currentFeeCollector",
      "outputs": [
        {
          "internalType": "address",
          "name": "",
          "type": "address"
        }
      ],
      "stateMutability": "view",
      "type": "function"
    },
    {
      "inputs": [],
      "name": "decimals",
      "outputs": [
        {
          "internalType": "uint8",
          "name": "",
          "type": "uint8"
        }
      ],
      "stateMutability": "view",
      "type": "function"
    },
    {
      "inputs": [
        {
          "internalType": "address",
          "name": "spender",
          "type": "address"
        },
        {
          "internalType": "uint256",
          "name": "subtractedValue",
          "type": "uint256"
        }
      ],
      "name": "decreaseAllowance",
      "outputs": [
        {
          "internalType": "bool",
          "name": "",
          "type": "bool"
        }
      ],
      "stateMutability": "nonpayable",
      "type": "function"
    },
    {
      "inputs": [],
      "name": "freeBurning",
      "outputs": [
        {
          "internalType": "bool",
          "name": "",
          "type": "bool"
        }
      ],
      "stateMutability": "view",
      "type": "function"
    },
    {
      "inputs": [],
      "name": "freeMinting",
      "outputs": [
        {
          "internalType": "bool",
          "name": "",
          "type": "bool"
        }
      ],
      "stateMutability": "view",
      "type": "function"
    },
    {
      "inputs": [
        {
          "internalType": "address",
          "name": "recipient",
          "type": "address"
        },
        {
          "internalType": "uint256",
          "name": "amount",
          "type": "uint256"
        },
        {
          "internalType": "bytes32",
          "name": "transferId",
          "type": "bytes32"
        }
      ],
      "name": "getMintHash",
      "outputs": [
        {
          "internalType": "bytes32",
          "name": "mintHash",
          "type": "bytes32"
        }
      ],
      "stateMutability": "pure",
      "type": "function"
    },
    {
      "inputs": [
        {
          "internalType": "bytes32",
          "name": "role",
          "type": "bytes32"
        }
      ],
      "name": "getRoleAdmin",
      "outputs": [
        {
          "internalType": "bytes32",
          "name": "",
          "type": "bytes32"
        }
      ],
      "stateMutability": "view",
      "type": "function"
    },
    {
      "inputs": [
        {
          "internalType": "bytes32",
          "name": "role",
          "type": "bytes32"
        },
        {
          "internalType": "uint256",
          "name": "index",
          "type": "uint256"
        }
      ],
      "name": "getRoleMember",
      "outputs": [
        {
          "internalType": "address",
          "name": "",
          "type": "address"
        }
      ],
      "stateMutability": "view",
      "type": "function"
    },
    {
      "inputs": [
        {
          "internalType": "bytes32",
          "name": "role",
          "type": "bytes32"
        }
      ],
      "name": "getRoleMemberCount",
      "outputs": [
        {
          "internalType": "uint256",
          "name": "",
          "type": "uint256"
        }
      ],
      "stateMutability": "view",
      "type": "function"
    },
    {
      "inputs": [
        {
          "internalType": "bytes32",
          "name": "role",
          "type": "bytes32"
        },
        {
          "internalType": "address",
          "name": "account",
          "type": "address"
        }
      ],
      "name": "grantRole",
      "outputs": [],
      "stateMutability": "nonpayable",
      "type": "function"
    },
    {
      "inputs": [
        {
          "internalType": "bytes32",
          "name": "role",
          "type": "bytes32"
        },
        {
          "internalType": "address",
          "name": "account",
          "type": "address"
        }
      ],
      "name": "hasRole",
      "outputs": [
        {
          "internalType": "bool",
          "name": "",
          "type": "bool"
        }
      ],
      "stateMutability": "view",
      "type": "function"
    },
    {
      "inputs": [
        {
          "internalType": "address",
          "name": "spender",
          "type": "address"
        },
        {
          "internalType": "uint256",
          "name": "addedValue",
          "type": "uint256"
        }
      ],
      "name": "increaseAllowance",
      "outputs": [
        {
          "internalType": "bool",
          "name": "",
          "type": "bool"
        }
      ],
      "stateMutability": "nonpayable",
      "type": "function"
    },
    {
      "inputs": [],
      "name": "initialize",
      "outputs": [],
      "stateMutability": "nonpayable",
      "type": "function"
    },
    {
      "inputs": [
        {
          "internalType": "address",
          "name": "recipient",
          "type": "address"
        },
        {
          "internalType": "uint256",
          "name": "amount",
          "type": "uint256"
        },
        {
          "internalType": "bytes32",
          "name": "transferId",
          "type": "bytes32"
        }
      ],
      "name": "limitedMint",
      "outputs": [],
      "stateMutability": "nonpayable",
      "type": "function"
    },
    {
      "inputs": [
        {
          "internalType": "address",
          "name": "recipient",
          "type": "address"
        },
        {
          "internalType": "uint256",
          "name": "amount",
          "type": "uint256"
        },
        {
          "internalType": "bytes32",
          "name": "transferId",
          "type": "bytes32"
        }
      ],
      "name": "mint",
      "outputs": [],
      "stateMutability": "nonpayable",
      "type": "function"
    },
    {
      "inputs": [
        {
          "internalType": "bytes32",
          "name": "",
          "type": "bytes32"
        }
      ],
      "name": "mintUnlock",
      "outputs": [
        {
          "internalType": "uint256",
          "name": "",
          "type": "uint256"
        }
      ],
      "stateMutability": "view",
      "type": "function"
    },
    {
      "inputs": [],
      "name": "name",
      "outputs": [
        {
          "internalType": "string",
          "name": "",
          "type": "string"
        }
      ],
      "stateMutability": "view",
      "type": "function"
    },
    {
      "inputs": [],
      "name": "pause",
      "outputs": [],
      "stateMutability": "nonpayable",
      "type": "function"
    },
    {
      "inputs": [],
      "name": "paused",
      "outputs": [
        {
          "internalType": "bool",
          "name": "",
          "type": "bool"
        }
      ],
      "stateMutability": "view",
      "type": "function"
    },
    {
      "inputs": [
        {
          "internalType": "bytes32",
          "name": "role",
          "type": "bytes32"
        },
        {
          "internalType": "address",
          "name": "account",
          "type": "address"
        }
      ],
      "name": "renounceRole",
      "outputs": [],
      "stateMutability": "nonpayable",
      "type": "function"
    },
    {
      "inputs": [
        {
          "internalType": "bytes32",
          "name": "role",
          "type": "bytes32"
        },
        {
          "internalType": "address",
          "name": "account",
          "type": "address"
        }
      ],
      "name": "revokeRole",
      "outputs": [],
      "stateMutability": "nonpayable",
      "type": "function"
    },
    {
      "inputs": [
        {
          "internalType": "bool",
          "name": "newFreeBurning",
          "type": "bool"
        },
        {
          "internalType": "bool",
          "name": "newFreeMinting",
          "type": "bool"
        },
        {
          "internalType": "uint256",
          "name": "newCommitCooldown",
          "type": "uint256"
        },
        {
          "internalType": "uint256",
          "name": "newCooldownMultiplier",
          "type": "uint256"
        }
      ],
      "name": "setControls",
      "outputs": [],
      "stateMutability": "nonpayable",
      "type": "function"
    },
    {
      "inputs": [
        {
          "internalType": "address",
          "name": "feeCollector",
          "type": "address"
        }
      ],
      "name": "setFeeCollector",
      "outputs": [],
      "stateMutability": "nonpayable",
      "type": "function"
    },
    {
      "inputs": [
        {
          "internalType": "bytes4",
          "name": "interfaceId",
          "type": "bytes4"
        }
      ],
      "name": "supportsInterface",
      "outputs": [
        {
          "internalType": "bool",
          "name": "",
          "type": "bool"
        }
      ],
      "stateMutability": "view",
      "type": "function"
    },
    {
      "inputs": [],
      "name": "symbol",
      "outputs": [
        {
          "internalType": "string",
          "name": "",
          "type": "string"
        }
      ],
      "stateMutability": "view",
      "type": "function"
    },
    {
      "inputs": [],
      "name": "totalSupply",
      "outputs": [
        {
          "internalType": "uint256",
          "name": "",
          "type": "uint256"
        }
      ],
      "stateMutability": "view",
      "type": "function"
    },
    {
      "inputs": [
        {
          "internalType": "address",
          "name": "recipient",
          "type": "address"
        },
        {
          "internalType": "uint256",
          "name": "amount",
          "type": "uint256"
        }
      ],
      "name": "transfer",
      "outputs": [
        {
          "internalType": "bool",
          "name": "",
          "type": "bool"
        }
      ],
      "stateMutability": "nonpayable",
      "type": "function"
    },
    {
      "inputs": [
        {
          "internalType": "address",
          "name": "sender",
          "type": "address"
        },
        {
          "internalType": "address",
          "name": "recipient",
          "type": "address"
        },
        {
          "internalType": "uint256",
          "name": "amount",
          "type": "uint256"
        }
      ],
      "name": "transferFrom",
      "outputs": [
        {
          "internalType": "bool",
          "name": "",
          "type": "bool"
        }
      ],
      "stateMutability": "nonpayable",
      "type": "function"
    },
    {
      "inputs": [],
      "name": "unpause",
      "outputs": [],
      "stateMutability": "nonpayable",
      "type": "function"
    },
    {
      "inputs": [
        {
          "internalType": "uint256",
          "name": "newRate",
          "type": "uint256"
        }
      ],
      "name": "updateVariableRate",
      "outputs": [],
      "stateMutability": "nonpayable",
      "type": "function"
    },
    {
      "inputs": [],
      "name": "variableRate",
      "outputs": [
        {
          "internalType": "uint256",
          "name": "",
          "type": "uint256"
        }
      ],
      "stateMutability": "view",
      "type": "function"
    },
    {
      "inputs": [
        {
          "internalType": "address",
          "name": "recipient",
          "type": "address"
        },
        {
          "internalType": "uint256",
          "name": "amount",
          "type": "uint256"
        },
        {
          "internalType": "bytes32",
          "name": "transferId",
          "type": "bytes32"
        }
      ],
      "name": "vetoMint",
      "outputs": [],
      "stateMutability": "nonpayable",
      "type": "function"
    }
  ],
  "bytecode": "0x608060405234801561001057600080fd5b5061578180620000216000396000f3fe608060405234801561001057600080fd5b506004361061030c5760003560e01c806379cc67901161019d578063aac41dac116100e9578063d547741f116100a2578063dd62ed3e1161007c578063dd62ed3e14610957578063e63ab1e914610987578063f34b3079146109a5578063fc5c69ba146109c35761030c565b8063d547741f146108ff578063d911e39b1461091b578063dc59e8c7146109395761030c565b8063aac41dac1461083f578063afe45f871461085b578063bd254d4c14610879578063ca15c87314610895578063cc5907e1146108c5578063d5391393146108e15761030c565b806395d89b4111610156578063a457c2d711610130578063a457c2d7146107a5578063a5835670146107d5578063a9059cbb146107f3578063a9eebdb1146108235761030c565b806395d89b411461074d578063a217fddf1461076b578063a42dce80146107895761030c565b806379cc67901461069f5780638129fc1c146106bb5780638456cb59146106c5578063866006a6146106cf5780639010d07c146106ed57806391d148541461071d5761030c565b80633606ef3c1161025c57806354edc8f5116102155780635c975abb116101ef5780635c975abb146106175780636c6b65de146106355780636cea83721461065157806370a082311461066f5761030c565b806354edc8f5146105995780635502f287146105c9578063571cc1aa146105e75761030c565b80633606ef3c146104db57806336568abe1461050b57806339509351146105275780633f4ba83a1461055757806342966c68146105615780634670bb6c1461057d5761030c565b806323b872dd116102c9578063282c51f3116102a3578063282c51f3146104655780632f2ff15d146104835780632fe94def1461049f578063313ce567146104bd5761030c565b806323b872dd146103e7578063248a9ca31461041757806324e0d460146104475761030c565b806301ffc9a71461031157806306a85f0f1461034157806306fdde031461035f578063095ea7b31461037d57806318160ddd146103ad5780631e458bee146103cb575b600080fd5b61032b60048036038101906103269190613fd4565b6109e1565b604051610338919061401c565b60405180910390f35b610349610a5b565b6040516103569190614050565b60405180910390f35b610367610a7f565b6040516103749190614104565b60405180910390f35b610397600480360381019061039291906141ba565b610b11565b6040516103a4919061401c565b60405180910390f35b6103b5610b2f565b6040516103c29190614209565b60405180910390f35b6103e560048036038101906103e09190614250565b610b39565b005b61040160048036038101906103fc91906142a3565b610d49565b60405161040e919061401c565b60405180910390f35b610431600480360381019061042c91906142f6565b610e41565b60405161043e9190614050565b60405180910390f35b61044f610e61565b60405161045c9190614209565b60405180910390f35b61046d610e68565b60405161047a9190614050565b60405180910390f35b61049d60048036038101906104989190614323565b610e8c565b005b6104a7610ec1565b6040516104b49190614050565b60405180910390f35b6104c5610ee5565b6040516104d2919061437f565b60405180910390f35b6104f560048036038101906104f0919061439a565b610eee565b6040516105029190614209565b60405180910390f35b61052560048036038101906105209190614323565b610f07565b005b610541600480360381019061053c91906141ba565b610ffe565b60405161054e919061401c565b60405180910390f35b61055f6110aa565b005b61057b600480360381019061057691906143c7565b6110e7565b005b61059760048036038101906105929190614250565b6110ec565b005b6105b360048036038101906105ae91906142f6565b6113ba565b6040516105c09190614209565b60405180910390f35b6105d16113d3565b6040516105de9190614050565b60405180910390f35b61060160048036038101906105fc9190614250565b6113f7565b60405161060e9190614050565b60405180910390f35b61061f61140d565b60405161062c919061401c565b60405180910390f35b61064f600480360381019061064a9190614250565b611424565b005b6106596114c9565b6040516106669190614209565b60405180910390f35b6106896004803603810190610684919061439a565b6114d0565b6040516106969190614209565b60405180910390f35b6106b960048036038101906106b491906141ba565b611519565b005b6106c361151e565b005b6106cd61172f565b005b6106d761176c565b6040516106e49190614209565b60405180910390f35b610707600480360381019061070291906143f4565b611774565b6040516107149190614443565b60405180910390f35b61073760048036038101906107329190614323565b6117a4565b604051610744919061401c565b60405180910390f35b61075561180f565b6040516107629190614104565b60405180910390f35b6107736118a1565b6040516107809190614050565b60405180910390f35b6107a3600480360381019061079e919061439a565b6118a8565b005b6107bf60048036038101906107ba91906141ba565b611920565b6040516107cc919061401c565b60405180910390f35b6107dd611a0b565b6040516107ea919061401c565b60405180910390f35b61080d600480360381019061080891906141ba565b611a1f565b60405161081a919061401c565b60405180910390f35b61083d60048036038101906108389190614250565b611a3d565b005b61085960048036038101906108549190614250565b611b8e565b005b610863611dd8565b6040516108709190614443565b60405180910390f35b610893600480360381019061088e91906143c7565b611dff565b005b6108af60048036038101906108aa91906142f6565b611f1b565b6040516108bc9190614209565b60405180910390f35b6108df60048036038101906108da919061448a565b611f40565b005b6108e9611fa2565b6040516108f69190614050565b60405180910390f35b61091960048036038101906109149190614323565b611fc6565b005b61092361202b565b6040516109309190614209565b60405180910390f35b610941612032565b60405161094e9190614050565b60405180910390f35b610971600480360381019061096c91906144f1565b612056565b60405161097e9190614209565b60405180910390f35b61098f6120dd565b60405161099c9190614050565b60405180910390f35b6109ad612101565b6040516109ba9190614050565b60405180910390f35b6109cb612125565b6040516109d8919061401c565b60405180910390f35b60007f5a05180f000000000000000000000000000000000000000000000000000000007bffffffffffffffffffffffffffffffffffffffffffffffffffffffff1916827bffffffffffffffffffffffffffffffffffffffffffffffffffffffff19161480610a545750610a5382612139565b5b9050919050565b7f92de27771f92d6942691d73358b3a4673e4880de8356f8f2cf452be87e02d36381565b606060368054610a8e90614560565b80601f0160208091040260200160405190810160405280929190818152602001828054610aba90614560565b8015610b075780601f10610adc57610100808354040283529160200191610b07565b820191906000526020600020905b815481529060010190602001808311610aea57829003601f168201915b5050505050905090565b6000610b25610b1e6121b3565b84846121bb565b6001905092915050565b6000603554905090565b7f9f2df0fed2c77648de5860a4cc508cd0818c85b8b8a1ab4ceeef8d981c8956a6610b6b81610b666121b3565b612386565b610b957faee674c6ada01c6d4ee4067d160ffdacc9cc9aba7ca34516f8c9ff75fdc8d723856117a4565b610bd4576040517f08c379a0000000000000000000000000000000000000000000000000000000008152600401610bcb906145de565b60405180910390fd5b60006001151561016060149054906101000a900460ff16151514610bfe57610bfb84612423565b90505b60008185610c0c919061462d565b905083818773ffffffffffffffffffffffffffffffffffffffff167fb279743e0218314d88b387012a6b7e94ff79b811c536ab5e40d6527ea265ff2c60405160405180910390a4838261016060009054906101000a900473ffffffffffffffffffffffffffffffffffffffff1673ffffffffffffffffffffffffffffffffffffffff167f1f8174bdbec9563f21f6aa0ab97118362e35fd5b104b486a0fa2d754cad41e5160405160405180910390a46000821115610cf257610cf161016060009054906101000a900473ffffffffffffffffffffffffffffffffffffffff168361249b565b5b6000610cff8787876125fc565b9050600061016360008381526020019081526020016000205414610d36576101636000828152602001908152602001600020600090555b610d40878361249b565b50505050505050565b6000610d56848484612632565b6000603460008673ffffffffffffffffffffffffffffffffffffffff1673ffffffffffffffffffffffffffffffffffffffff1681526020019081526020016000206000610da16121b3565b73ffffffffffffffffffffffffffffffffffffffff1673ffffffffffffffffffffffffffffffffffffffff16815260200190815260200160002054905082811015610e21576040517f08c379a0000000000000000000000000000000000000000000000000000000008152600401610e18906146d3565b60405180910390fd5b610e3585610e2d6121b3565b8584036121bb565b60019150509392505050565b600060fb6000838152602001908152602001600020600101549050919050565b61015f5481565b7f3c11d16cbaffd01df69ce1c404f6340ee057498f5f00246190ea54220576a84881565b610e9682826128b6565b610ebc8161012d60008581526020019081526020016000206128df90919063ffffffff16565b505050565b7f8a639721758084b2ff869ed05cee658aab46e6bdc69bca1b006bae9f55613c5981565b60006012905090565b6101646020528060005260406000206000915090505481565b7f5edc4fd0544f0b4b53f14f295fb04bbd6fdbc1bea1fd8edf5851b385aee145d5821415610f9957610f597f92de27771f92d6942691d73358b3a4673e4880de8356f8f2cf452be87e02d363336117a4565b610f98576040517f08c379a0000000000000000000000000000000000000000000000000000000008152600401610f8f9061473f565b60405180910390fd5b5b6000801b821415610ff0576001610faf83611f1b565b11610fef576040517f08c379a0000000000000000000000000000000000000000000000000000000008152600401610fe6906147ab565b60405180910390fd5b5b610ffa828261290f565b5050565b60006110a061100b6121b3565b8484603460006110196121b3565b73ffffffffffffffffffffffffffffffffffffffff1673ffffffffffffffffffffffffffffffffffffffff16815260200190815260200160002060008873ffffffffffffffffffffffffffffffffffffffff1673ffffffffffffffffffffffffffffffffffffffff1681526020019081526020016000205461109b91906147cb565b6121bb565b6001905092915050565b7f65d7a28e3265b37a6474929f336521b332c1681b933f6cb9f3376673440d862a6110dc816110d76121b3565b612386565b6110e4612944565b50565b600080fd5b7f4b8072d94804aa443f85286056c4cb9fda8b35e0a826d9959c80aa89382b0f2661111e816111196121b3565b612386565b6111487faee674c6ada01c6d4ee4067d160ffdacc9cc9aba7ca34516f8c9ff75fdc8d723856117a4565b611187576040517f08c379a000000000000000000000000000000000000000000000000000000000815260040161117e906145de565b60405180910390fd5b4261016460003373ffffffffffffffffffffffffffffffffffffffff1673ffffffffffffffffffffffffffffffffffffffff168152602001908152602001600020541115806112165750600061016460003373ffffffffffffffffffffffffffffffffffffffff1673ffffffffffffffffffffffffffffffffffffffff16815260200190815260200160002054145b611255576040517f08c379a000000000000000000000000000000000000000000000000000000000815260040161124c9061486d565b60405180910390fd5b60006112628585856125fc565b90506000610163600083815260200190815260200160002054146112bb576040517f08c379a00000000000000000000000000000000000000000000000000000000081526004016112b2906148d9565b60405180910390fd5b6000670de0b6b3a7640000856112d19190614928565b610161546112df9190614959565b426112ea91906147cb565b9050806101636000848152602001908152602001600020819055506000610162544261131691906147cb565b90508061016460003373ffffffffffffffffffffffffffffffffffffffff1673ffffffffffffffffffffffffffffffffffffffff1681526020019081526020016000208190555084868873ffffffffffffffffffffffffffffffffffffffff167fb744a5eb3cafe36dae33c716833d91c7acd6bfa94ce3c0f4cc6ec42de38755238585336040516113a9939291906149b3565b60405180910390a450505050505050565b6101636020528060005260406000206000915090505481565b7f5edc4fd0544f0b4b53f14f295fb04bbd6fdbc1bea1fd8edf5851b385aee145d581565b60006114048484846125fc565b90509392505050565b6000609760009054906101000a900460ff16905090565b7f92de27771f92d6942691d73358b3a4673e4880de8356f8f2cf452be87e02d363611456816114516121b3565b612386565b60006114638585856125fc565b905061016360008281526020019081526020016000206000905582848673ffffffffffffffffffffffffffffffffffffffff167fcc16942b6232b79202fa3d65654a598a75b1a3e812d4179dc04a7a32c097ceba60405160405180910390a45050505050565b6101615481565b6000603360008373ffffffffffffffffffffffffffffffffffffffff1673ffffffffffffffffffffffffffffffffffffffff168152602001908152602001600020549050919050565b600080fd5b600060019054906101000a900460ff1680611544575060008054906101000a900460ff16155b611583576040517f08c379a000000000000000000000000000000000000000000000000000000000815260040161157a90614a5c565b60405180910390fd5b60008060019054906101000a900460ff1615905080156115d3576001600060016101000a81548160ff02191690831515021790555060016000806101000a81548160ff0219169083151502179055505b6116476040518060400160405280600b81526020017f55534420526563656970740000000000000000000000000000000000000000008152506040518060400160405280600481526020017f55534452000000000000000000000000000000000000000000000000000000008152506129e6565b61164f612ad3565b611657612bbc565b61165f612ca5565b61166c6000801b33612d96565b6116b67f5edc4fd0544f0b4b53f14f295fb04bbd6fdbc1bea1fd8edf5851b385aee145d57f92de27771f92d6942691d73358b3a4673e4880de8356f8f2cf452be87e02d363612dcb565b62e4e1c061015f81905550600161016060146101000a81548160ff021916908315150217905550600161016060156101000a81548160ff02191690831515021790555060096101618190555060b461016281905550801561172c5760008060016101000a81548160ff0219169083151502179055505b50565b7f65d7a28e3265b37a6474929f336521b332c1681b933f6cb9f3376673440d862a6117618161175c6121b3565b612386565b611769612e27565b50565b633b9aca0081565b600061179c8261012d6000868152602001908152602001600020612eca90919063ffffffff16565b905092915050565b600060fb600084815260200190815260200160002060000160008373ffffffffffffffffffffffffffffffffffffffff1673ffffffffffffffffffffffffffffffffffffffff16815260200190815260200160002060009054906101000a900460ff16905092915050565b60606037805461181e90614560565b80601f016020809104026020016040519081016040528092919081815260200182805461184a90614560565b80156118975780601f1061186c57610100808354040283529160200191611897565b820191906000526020600020905b81548152906001019060200180831161187a57829003601f168201915b5050505050905090565b6000801b81565b7f8a639721758084b2ff869ed05cee658aab46e6bdc69bca1b006bae9f55613c596118da816118d56121b3565b612386565b8161016060006101000a81548173ffffffffffffffffffffffffffffffffffffffff021916908373ffffffffffffffffffffffffffffffffffffffff1602179055505050565b6000806034600061192f6121b3565b73ffffffffffffffffffffffffffffffffffffffff1673ffffffffffffffffffffffffffffffffffffffff16815260200190815260200160002060008573ffffffffffffffffffffffffffffffffffffffff1673ffffffffffffffffffffffffffffffffffffffff168152602001908152602001600020549050828110156119ec576040517f08c379a00000000000000000000000000000000000000000000000000000000081526004016119e390614aee565b60405180910390fd5b611a006119f76121b3565b858584036121bb565b600191505092915050565b61016060149054906101000a900460ff1681565b6000611a33611a2c6121b3565b8484612632565b6001905092915050565b7f3c11d16cbaffd01df69ce1c404f6340ee057498f5f00246190ea54220576a848611a6f81611a6a6121b3565b612386565b60006001151561016060159054906101000a900460ff16151514611a9957611a9684612423565b90505b6000811115611ad057611acf61016060009054906101000a900473ffffffffffffffffffffffffffffffffffffffff168261249b565b5b82848673ffffffffffffffffffffffffffffffffffffffff167f06a5cc13c9f93b7a2af752bb0bda4958deb252b326ded3266f786ca78456002560405160405180910390a4828161016060009054906101000a900473ffffffffffffffffffffffffffffffffffffffff1673ffffffffffffffffffffffffffffffffffffffff167fb90103c5976493d20060202415867ddf1081e70322c45b6f19bfdbe384b14f5160405160405180910390a4611b878585612ee4565b5050505050565b7f4b8072d94804aa443f85286056c4cb9fda8b35e0a826d9959c80aa89382b0f26611bc081611bbb6121b3565b612386565b611bea7faee674c6ada01c6d4ee4067d160ffdacc9cc9aba7ca34516f8c9ff75fdc8d723856117a4565b611c29576040517f08c379a0000000000000000000000000000000000000000000000000000000008152600401611c20906145de565b60405180910390fd5b6000611c368585856125fc565b9050426101636000838152602001908152602001600020541115611c8f576040517f08c379a0000000000000000000000000000000000000000000000000000000008152600401611c8690614b5a565b60405180910390fd5b60006001151561016060149054906101000a900460ff16151514611cb957611cb685612423565b90505b60008186611cc7919061462d565b905084818873ffffffffffffffffffffffffffffffffffffffff167fb279743e0218314d88b387012a6b7e94ff79b811c536ab5e40d6527ea265ff2c60405160405180910390a4848261016060009054906101000a900473ffffffffffffffffffffffffffffffffffffffff1673ffffffffffffffffffffffffffffffffffffffff167f1f8174bdbec9563f21f6aa0ab97118362e35fd5b104b486a0fa2d754cad41e5160405160405180910390a46000821115611dad57611dac61016060009054906101000a900473ffffffffffffffffffffffffffffffffffffffff168361249b565b5b611db7878261249b565b61016360008481526020019081526020016000206000905550505050505050565b61016060009054906101000a900473ffffffffffffffffffffffffffffffffffffffff1681565b7f8a639721758084b2ff869ed05cee658aab46e6bdc69bca1b006bae9f55613c59611e3181611e2c6121b3565b612386565b6000620f424083611e429190614b7a565b14611e82576040517f08c379a0000000000000000000000000000000000000000000000000000000008152600401611e7990614c1d565b60405180910390fd5b6305f5e100821115611ec9576040517f08c379a0000000000000000000000000000000000000000000000000000000008152600401611ec090614c89565b60405180910390fd5b620f4240821015611f0f576040517f08c379a0000000000000000000000000000000000000000000000000000000008152600401611f0690614cf5565b60405180910390fd5b8161015f819055505050565b6000611f3961012d60008481526020019081526020016000206130bd565b9050919050565b6000801b611f5581611f506121b3565b612386565b8461016060156101000a81548160ff0219169083151502179055508361016060146101000a81548160ff021916908315150217905550826101628190555081610161819055505050505050565b7f9f2df0fed2c77648de5860a4cc508cd0818c85b8b8a1ab4ceeef8d981c8956a681565b6000801b82141561201d576001611fdc83611f1b565b1161201c576040517f08c379a0000000000000000000000000000000000000000000000000000000008152600401612013906147ab565b60405180910390fd5b5b61202782826130d2565b5050565b6101625481565b7f4b8072d94804aa443f85286056c4cb9fda8b35e0a826d9959c80aa89382b0f2681565b6000603460008473ffffffffffffffffffffffffffffffffffffffff1673ffffffffffffffffffffffffffffffffffffffff16815260200190815260200160002060008373ffffffffffffffffffffffffffffffffffffffff1673ffffffffffffffffffffffffffffffffffffffff16815260200190815260200160002054905092915050565b7f65d7a28e3265b37a6474929f336521b332c1681b933f6cb9f3376673440d862a81565b7faee674c6ada01c6d4ee4067d160ffdacc9cc9aba7ca34516f8c9ff75fdc8d72381565b61016060159054906101000a900460ff1681565b60007f7965db0b000000000000000000000000000000000000000000000000000000007bffffffffffffffffffffffffffffffffffffffffffffffffffffffff1916827bffffffffffffffffffffffffffffffffffffffffffffffffffffffff191614806121ac57506121ab82613107565b5b9050919050565b600033905090565b600073ffffffffffffffffffffffffffffffffffffffff168373ffffffffffffffffffffffffffffffffffffffff16141561222b576040517f08c379a000000000000000000000000000000000000000000000000000000000815260040161222290614d87565b60405180910390fd5b600073ffffffffffffffffffffffffffffffffffffffff168273ffffffffffffffffffffffffffffffffffffffff16141561229b576040517f08c379a000000000000000000000000000000000000000000000000000000000815260040161229290614e19565b60405180910390fd5b80603460008573ffffffffffffffffffffffffffffffffffffffff1673ffffffffffffffffffffffffffffffffffffffff16815260200190815260200160002060008473ffffffffffffffffffffffffffffffffffffffff1673ffffffffffffffffffffffffffffffffffffffff168152602001908152602001600020819055508173ffffffffffffffffffffffffffffffffffffffff168373ffffffffffffffffffffffffffffffffffffffff167f8c5be1e5ebec7d5bd14f71427d1e84f3dd0314c0f7b2291e5b200ac8c7c3b925836040516123799190614209565b60405180910390a3505050565b61239082826117a4565b61241f576123b58173ffffffffffffffffffffffffffffffffffffffff166014613171565b6123c38360001c6020613171565b6040516020016123d4929190614f0d565b6040516020818303038152906040526040517f08c379a00000000000000000000000000000000000000000000000000000000081526004016124169190614104565b60405180910390fd5b5050565b600080633b9aca00836124369190614b7a565b14612476576040517f08c379a000000000000000000000000000000000000000000000000000000000815260040161246d90614fb9565b60405180910390fd5b61015f54633b9aca008361248a9190614928565b6124949190614959565b9050919050565b600073ffffffffffffffffffffffffffffffffffffffff168273ffffffffffffffffffffffffffffffffffffffff16141561250b576040517f08c379a000000000000000000000000000000000000000000000000000000000815260040161250290615025565b60405180910390fd5b612517600083836133ad565b806035600082825461252991906147cb565b9250508190555080603360008473ffffffffffffffffffffffffffffffffffffffff1673ffffffffffffffffffffffffffffffffffffffff168152602001908152602001600020600082825461257f91906147cb565b925050819055508173ffffffffffffffffffffffffffffffffffffffff16600073ffffffffffffffffffffffffffffffffffffffff167fddf252ad1be2c89b69c2b068fc378daa952ba7f163c4a11628f55a4df523b3ef836040516125e49190614209565b60405180910390a36125f8600083836134d9565b5050565b6000838383604051602001612613939291906150cf565b6040516020818303038152906040528051906020012090509392505050565b600073ffffffffffffffffffffffffffffffffffffffff168373ffffffffffffffffffffffffffffffffffffffff1614156126a2576040517f08c379a00000000000000000000000000000000000000000000000000000000081526004016126999061517e565b60405180910390fd5b600073ffffffffffffffffffffffffffffffffffffffff168273ffffffffffffffffffffffffffffffffffffffff161415612712576040517f08c379a000000000000000000000000000000000000000000000000000000000815260040161270990615210565b60405180910390fd5b61271d8383836133ad565b6000603360008573ffffffffffffffffffffffffffffffffffffffff1673ffffffffffffffffffffffffffffffffffffffff168152602001908152602001600020549050818110156127a4576040517f08c379a000000000000000000000000000000000000000000000000000000000815260040161279b906152a2565b60405180910390fd5b818103603360008673ffffffffffffffffffffffffffffffffffffffff1673ffffffffffffffffffffffffffffffffffffffff1681526020019081526020016000208190555081603360008573ffffffffffffffffffffffffffffffffffffffff1673ffffffffffffffffffffffffffffffffffffffff168152602001908152602001600020600082825461283991906147cb565b925050819055508273ffffffffffffffffffffffffffffffffffffffff168473ffffffffffffffffffffffffffffffffffffffff167fddf252ad1be2c89b69c2b068fc378daa952ba7f163c4a11628f55a4df523b3ef8460405161289d9190614209565b60405180910390a36128b08484846134d9565b50505050565b6128bf82610e41565b6128d0816128cb6121b3565b612386565b6128da83836134de565b505050565b6000612907836000018373ffffffffffffffffffffffffffffffffffffffff1660001b6135bf565b905092915050565b612919828261362f565b61293f8161012d60008581526020019081526020016000206136b290919063ffffffff16565b505050565b61294c61140d565b61298b576040517f08c379a00000000000000000000000000000000000000000000000000000000081526004016129829061530e565b60405180910390fd5b6000609760006101000a81548160ff0219169083151502179055507f5db9ee0a495bf2e6ff9c91a7834c1ba4fdd244a5e8aa4e537bd38aeae4b073aa6129cf6121b3565b6040516129dc9190614443565b60405180910390a1565b600060019054906101000a900460ff1680612a0c575060008054906101000a900460ff16155b612a4b576040517f08c379a0000000000000000000000000000000000000000000000000000000008152600401612a4290614a5c565b60405180910390fd5b60008060019054906101000a900460ff161590508015612a9b576001600060016101000a81548160ff02191690831515021790555060016000806101000a81548160ff0219169083151502179055505b612aa36136e2565b612aad83836137bb565b8015612ace5760008060016101000a81548160ff0219169083151502179055505b505050565b600060019054906101000a900460ff1680612af9575060008054906101000a900460ff16155b612b38576040517f08c379a0000000000000000000000000000000000000000000000000000000008152600401612b2f90614a5c565b60405180910390fd5b60008060019054906101000a900460ff161590508015612b88576001600060016101000a81548160ff02191690831515021790555060016000806101000a81548160ff0219169083151502179055505b612b906136e2565b612b986138c4565b8015612bb95760008060016101000a81548160ff0219169083151502179055505b50565b600060019054906101000a900460ff1680612be2575060008054906101000a900460ff16155b612c21576040517f08c379a0000000000000000000000000000000000000000000000000000000008152600401612c1890614a5c565b60405180910390fd5b60008060019054906101000a900460ff161590508015612c71576001600060016101000a81548160ff02191690831515021790555060016000806101000a81548160ff0219169083151502179055505b612c796136e2565b612c8161399d565b8015612ca25760008060016101000a81548160ff0219169083151502179055505b50565b600060019054906101000a900460ff1680612ccb575060008054906101000a900460ff16155b612d0a576040517f08c379a0000000000000000000000000000000000000000000000000000000008152600401612d0190614a5c565b60405180910390fd5b60008060019054906101000a900460ff161590508015612d5a576001600060016101000a81548160ff02191690831515021790555060016000806101000a81548160ff0219169083151502179055505b612d626136e2565b612d6a613a91565b612d72613b6a565b8015612d935760008060016101000a81548160ff0219169083151502179055505b50565b612da08282613c43565b612dc68161012d60008581526020019081526020016000206128df90919063ffffffff16565b505050565b6000612dd683610e41565b90508160fb6000858152602001908152602001600020600101819055508181847fbd79b86ffe0ab8e8776151514217cd7cacd52c909f66475c3af44e129f0b00ff60405160405180910390a4505050565b612e2f61140d565b15612e6f576040517f08c379a0000000000000000000000000000000000000000000000000000000008152600401612e669061537a565b60405180910390fd5b6001609760006101000a81548160ff0219169083151502179055507f62e78cea01bee320cd4e420270b5ea74000d11b0c9f74754ebdbfc544b05a258612eb36121b3565b604051612ec09190614443565b60405180910390a1565b6000612ed98360000183613c51565b60001c905092915050565b600073ffffffffffffffffffffffffffffffffffffffff168273ffffffffffffffffffffffffffffffffffffffff161415612f54576040517f08c379a0000000000000000000000000000000000000000000000000000000008152600401612f4b9061540c565b60405180910390fd5b612f60826000836133ad565b6000603360008473ffffffffffffffffffffffffffffffffffffffff1673ffffffffffffffffffffffffffffffffffffffff16815260200190815260200160002054905081811015612fe7576040517f08c379a0000000000000000000000000000000000000000000000000000000008152600401612fde9061549e565b60405180910390fd5b818103603360008573ffffffffffffffffffffffffffffffffffffffff1673ffffffffffffffffffffffffffffffffffffffff16815260200190815260200160002081905550816035600082825461303f919061462d565b92505081905550600073ffffffffffffffffffffffffffffffffffffffff168373ffffffffffffffffffffffffffffffffffffffff167fddf252ad1be2c89b69c2b068fc378daa952ba7f163c4a11628f55a4df523b3ef846040516130a49190614209565b60405180910390a36130b8836000846134d9565b505050565b60006130cb82600001613c7c565b9050919050565b6130dc8282613c8d565b6131028161012d60008581526020019081526020016000206136b290919063ffffffff16565b505050565b60007f01ffc9a7000000000000000000000000000000000000000000000000000000007bffffffffffffffffffffffffffffffffffffffffffffffffffffffff1916827bffffffffffffffffffffffffffffffffffffffffffffffffffffffff1916149050919050565b6060600060028360026131849190614959565b61318e91906147cb565b67ffffffffffffffff8111156131a7576131a66154be565b5b6040519080825280601f01601f1916602001820160405280156131d95781602001600182028036833780820191505090505b5090507f300000000000000000000000000000000000000000000000000000000000000081600081518110613211576132106154ed565b5b60200101907effffffffffffffffffffffffffffffffffffffffffffffffffffffffffffff1916908160001a9053507f780000000000000000000000000000000000000000000000000000000000000081600181518110613275576132746154ed565b5b60200101907effffffffffffffffffffffffffffffffffffffffffffffffffffffffffffff1916908160001a905350600060018460026132b59190614959565b6132bf91906147cb565b90505b600181111561335f577f3031323334353637383961626364656600000000000000000000000000000000600f861660108110613301576133006154ed565b5b1a60f81b828281518110613318576133176154ed565b5b60200101907effffffffffffffffffffffffffffffffffffffffffffffffffffffffffffff1916908160001a905350600485901c9450806133589061551c565b90506132c2565b50600084146133a3576040517f08c379a000000000000000000000000000000000000000000000000000000000815260040161339a90615592565b60405180910390fd5b8091505092915050565b6133b561140d565b156133f5576040517f08c379a00000000000000000000000000000000000000000000000000000000081526004016133ec9061537a565b60405180910390fd5b61341f7f5edc4fd0544f0b4b53f14f295fb04bbd6fdbc1bea1fd8edf5851b385aee145d5846117a4565b1561345f576040517f08c379a0000000000000000000000000000000000000000000000000000000008152600401613456906155fe565b60405180910390fd5b6134897f5edc4fd0544f0b4b53f14f295fb04bbd6fdbc1bea1fd8edf5851b385aee145d5836117a4565b156134c9576040517f08c379a00000000000000000000000000000000000000000000000000000000081526004016134c09061566a565b60405180910390fd5b6134d4838383613cb6565b505050565b505050565b6134e882826117a4565b6135bb57600160fb600084815260200190815260200160002060000160008373ffffffffffffffffffffffffffffffffffffffff1673ffffffffffffffffffffffffffffffffffffffff16815260200190815260200160002060006101000a81548160ff0219169083151502179055506135606121b3565b73ffffffffffffffffffffffffffffffffffffffff168173ffffffffffffffffffffffffffffffffffffffff16837f2f8788117e7eff1d82e926ec794901d17c78024a50270940304540a733656f0d60405160405180910390a45b5050565b60006135cb8383613cbb565b613624578260000182908060018154018082558091505060019003906000526020600020016000909190919091505582600001805490508360010160008481526020019081526020016000208190555060019050613629565b600090505b92915050565b6136376121b3565b73ffffffffffffffffffffffffffffffffffffffff168173ffffffffffffffffffffffffffffffffffffffff16146136a4576040517f08c379a000000000000000000000000000000000000000000000000000000000815260040161369b906156fc565b60405180910390fd5b6136ae8282613cde565b5050565b60006136da836000018373ffffffffffffffffffffffffffffffffffffffff1660001b613dc0565b905092915050565b600060019054906101000a900460ff1680613708575060008054906101000a900460ff16155b613747576040517f08c379a000000000000000000000000000000000000000000000000000000000815260040161373e90614a5c565b60405180910390fd5b60008060019054906101000a900460ff161590508015613797576001600060016101000a81548160ff02191690831515021790555060016000806101000a81548160ff0219169083151502179055505b80156137b85760008060016101000a81548160ff0219169083151502179055505b50565b600060019054906101000a900460ff16806137e1575060008054906101000a900460ff16155b613820576040517f08c379a000000000000000000000000000000000000000000000000000000000815260040161381790614a5c565b60405180910390fd5b60008060019054906101000a900460ff161590508015613870576001600060016101000a81548160ff02191690831515021790555060016000806101000a81548160ff0219169083151502179055505b8260369080519060200190613886929190613ed4565b50816037908051906020019061389d929190613ed4565b5080156138bf5760008060016101000a81548160ff0219169083151502179055505b505050565b600060019054906101000a900460ff16806138ea575060008054906101000a900460ff16155b613929576040517f08c379a000000000000000000000000000000000000000000000000000000000815260040161392090614a5c565b60405180910390fd5b60008060019054906101000a900460ff161590508015613979576001600060016101000a81548160ff02191690831515021790555060016000806101000a81548160ff0219169083151502179055505b801561399a5760008060016101000a81548160ff0219169083151502179055505b50565b600060019054906101000a900460ff16806139c3575060008054906101000a900460ff16155b613a02576040517f08c379a00000000000000000000000000000000000000000000000000000000081526004016139f990614a5c565b60405180910390fd5b60008060019054906101000a900460ff161590508015613a52576001600060016101000a81548160ff02191690831515021790555060016000806101000a81548160ff0219169083151502179055505b6000609760006101000a81548160ff0219169083151502179055508015613a8e5760008060016101000a81548160ff0219169083151502179055505b50565b600060019054906101000a900460ff1680613ab7575060008054906101000a900460ff16155b613af6576040517f08c379a0000000000000000000000000000000000000000000000000000000008152600401613aed90614a5c565b60405180910390fd5b60008060019054906101000a900460ff161590508015613b46576001600060016101000a81548160ff02191690831515021790555060016000806101000a81548160ff0219169083151502179055505b8015613b675760008060016101000a81548160ff0219169083151502179055505b50565b600060019054906101000a900460ff1680613b90575060008054906101000a900460ff16155b613bcf576040517f08c379a0000000000000000000000000000000000000000000000000000000008152600401613bc690614a5c565b60405180910390fd5b60008060019054906101000a900460ff161590508015613c1f576001600060016101000a81548160ff02191690831515021790555060016000806101000a81548160ff0219169083151502179055505b8015613c405760008060016101000a81548160ff0219169083151502179055505b50565b613c4d82826134de565b5050565b6000826000018281548110613c6957613c686154ed565b5b9060005260206000200154905092915050565b600081600001805490509050919050565b613c9682610e41565b613ca781613ca26121b3565b612386565b613cb18383613cde565b505050565b505050565b600080836001016000848152602001908152602001600020541415905092915050565b613ce882826117a4565b15613dbc57600060fb600084815260200190815260200160002060000160008373ffffffffffffffffffffffffffffffffffffffff1673ffffffffffffffffffffffffffffffffffffffff16815260200190815260200160002060006101000a81548160ff021916908315150217905550613d616121b3565b73ffffffffffffffffffffffffffffffffffffffff168173ffffffffffffffffffffffffffffffffffffffff16837ff6391f5c32d9c69d2a47ea670b442974b53935d1edc7fd64eb21e047a839171b60405160405180910390a45b5050565b60008083600101600084815260200190815260200160002054905060008114613ec8576000600182613df2919061462d565b9050600060018660000180549050613e0a919061462d565b9050818114613e79576000866000018281548110613e2b57613e2a6154ed565b5b9060005260206000200154905080876000018481548110613e4f57613e4e6154ed565b5b90600052602060002001819055508387600101600083815260200190815260200160002081905550505b85600001805480613e8d57613e8c61571c565b5b600190038181906000526020600020016000905590558560010160008681526020019081526020016000206000905560019350505050613ece565b60009150505b92915050565b828054613ee090614560565b90600052602060002090601f016020900481019282613f025760008555613f49565b82601f10613f1b57805160ff1916838001178555613f49565b82800160010185558215613f49579182015b82811115613f48578251825591602001919060010190613f2d565b5b509050613f569190613f5a565b5090565b5b80821115613f73576000816000905550600101613f5b565b5090565b600080fd5b60007fffffffff0000000000000000000000000000000000000000000000000000000082169050919050565b613fb181613f7c565b8114613fbc57600080fd5b50565b600081359050613fce81613fa8565b92915050565b600060208284031215613fea57613fe9613f77565b5b6000613ff884828501613fbf565b91505092915050565b60008115159050919050565b61401681614001565b82525050565b6000602082019050614031600083018461400d565b92915050565b6000819050919050565b61404a81614037565b82525050565b60006020820190506140656000830184614041565b92915050565b600081519050919050565b600082825260208201905092915050565b60005b838110156140a557808201518184015260208101905061408a565b838111156140b4576000848401525b50505050565b6000601f19601f8301169050919050565b60006140d68261406b565b6140e08185614076565b93506140f0818560208601614087565b6140f9816140ba565b840191505092915050565b6000602082019050818103600083015261411e81846140cb565b905092915050565b600073ffffffffffffffffffffffffffffffffffffffff82169050919050565b600061415182614126565b9050919050565b61416181614146565b811461416c57600080fd5b50565b60008135905061417e81614158565b92915050565b6000819050919050565b61419781614184565b81146141a257600080fd5b50565b6000813590506141b48161418e565b92915050565b600080604083850312156141d1576141d0613f77565b5b60006141df8582860161416f565b92505060206141f0858286016141a5565b9150509250929050565b61420381614184565b82525050565b600060208201905061421e60008301846141fa565b92915050565b61422d81614037565b811461423857600080fd5b50565b60008135905061424a81614224565b92915050565b60008060006060848603121561426957614268613f77565b5b60006142778682870161416f565b9350506020614288868287016141a5565b92505060406142998682870161423b565b9150509250925092565b6000806000606084860312156142bc576142bb613f77565b5b60006142ca8682870161416f565b93505060206142db8682870161416f565b92505060406142ec868287016141a5565b9150509250925092565b60006020828403121561430c5761430b613f77565b5b600061431a8482850161423b565b91505092915050565b6000806040838503121561433a57614339613f77565b5b60006143488582860161423b565b92505060206143598582860161416f565b9150509250929050565b600060ff82169050919050565b61437981614363565b82525050565b60006020820190506143946000830184614370565b92915050565b6000602082840312156143b0576143af613f77565b5b60006143be8482850161416f565b91505092915050565b6000602082840312156143dd576143dc613f77565b5b60006143eb848285016141a5565b91505092915050565b6000806040838503121561440b5761440a613f77565b5b60006144198582860161423b565b925050602061442a858286016141a5565b9150509250929050565b61443d81614146565b82525050565b60006020820190506144586000830184614434565b92915050565b61446781614001565b811461447257600080fd5b50565b6000813590506144848161445e565b92915050565b600080600080608085870312156144a4576144a3613f77565b5b60006144b287828801614475565b94505060206144c387828801614475565b93505060406144d4878288016141a5565b92505060606144e5878288016141a5565b91505092959194509250565b6000806040838503121561450857614507613f77565b5b60006145168582860161416f565b92505060206145278582860161416f565b9150509250929050565b7f4e487b7100000000000000000000000000000000000000000000000000000000600052602260045260246000fd5b6000600282049050600182168061457857607f821691505b6020821081141561458c5761458b614531565b5b50919050565b7f526563697069656e74206d7573742062652077686974656c69737465642e0000600082015250565b60006145c8601e83614076565b91506145d382614592565b602082019050919050565b600060208201905081810360008301526145f7816145bb565b9050919050565b7f4e487b7100000000000000000000000000000000000000000000000000000000600052601160045260246000fd5b600061463882614184565b915061464383614184565b925082821015614656576146556145fe565b5b828203905092915050565b7f45524332303a207472616e7366657220616d6f756e742065786365656473206160008201527f6c6c6f77616e6365000000000000000000000000000000000000000000000000602082015250565b60006146bd602883614076565b91506146c882614661565b604082019050919050565b600060208201905081810360008301526146ec816146b0565b9050919050565b7f4f6e6c7920726f6c652061646d696e2063616e207265766f6b65000000000000600082015250565b6000614729601a83614076565b9150614734826146f3565b602082019050919050565b600060208201905081810360008301526147588161471c565b9050919050565b7f436f6e7472616374207265717569726573206f6e652061646d696e0000000000600082015250565b6000614795601b83614076565b91506147a08261475f565b602082019050919050565b600060208201905081810360008301526147c481614788565b9050919050565b60006147d682614184565b91506147e183614184565b9250827fffffffffffffffffffffffffffffffffffffffffffffffffffffffffffffffff03821115614816576148156145fe565b5b828201905092915050565b7f436f6d6d69746d656e7420636f6f6c646f776e00000000000000000000000000600082015250565b6000614857601383614076565b915061486282614821565b602082019050919050565b600060208201905081810360008301526148868161484a565b9050919050565b7f5472616e73616374696f6e20616c726561647920717565756564000000000000600082015250565b60006148c3601a83614076565b91506148ce8261488d565b602082019050919050565b600060208201905081810360008301526148f2816148b6565b9050919050565b7f4e487b7100000000000000000000000000000000000000000000000000000000600052601260045260246000fd5b600061493382614184565b915061493e83614184565b92508261494e5761494d6148f9565b5b828204905092915050565b600061496482614184565b915061496f83614184565b9250817fffffffffffffffffffffffffffffffffffffffffffffffffffffffffffffffff04831182151516156149a8576149a76145fe565b5b828202905092915050565b60006060820190506149c860008301866141fa565b6149d560208301856141fa565b6149e26040830184614434565b949350505050565b7f496e697469616c697a61626c653a20636f6e747261637420697320616c72656160008201527f647920696e697469616c697a6564000000000000000000000000000000000000602082015250565b6000614a46602e83614076565b9150614a51826149ea565b604082019050919050565b60006020820190508181036000830152614a7581614a39565b9050919050565b7f45524332303a2064656372656173656420616c6c6f77616e63652062656c6f7760008201527f207a65726f000000000000000000000000000000000000000000000000000000602082015250565b6000614ad8602583614076565b9150614ae382614a7c565b604082019050919050565b60006020820190508181036000830152614b0781614acb565b9050919050565b7f436f6f6c646f776e20686173206e6f742079657420656c617073656400000000600082015250565b6000614b44601c83614076565b9150614b4f82614b0e565b602082019050919050565b60006020820190508181036000830152614b7381614b37565b9050919050565b6000614b8582614184565b9150614b9083614184565b925082614ba057614b9f6148f9565b5b828206905092915050565b7f5661726961626c652072617465206d75737420626520696e20696e6372656d6560008201527f6e7473206f6620302e3125210000000000000000000000000000000000000000602082015250565b6000614c07602c83614076565b9150614c1282614bab565b604082019050919050565b60006020820190508181036000830152614c3681614bfa565b9050919050565b7f4e6577205261746520546f6f204c617267650000000000000000000000000000600082015250565b6000614c73601283614076565b9150614c7e82614c3d565b602082019050919050565b60006020820190508181036000830152614ca281614c66565b9050919050565b7f4e6577205261746520546f6f20536d616c6c0000000000000000000000000000600082015250565b6000614cdf601283614076565b9150614cea82614ca9565b602082019050919050565b60006020820190508181036000830152614d0e81614cd2565b9050919050565b7f45524332303a20617070726f76652066726f6d20746865207a65726f2061646460008201527f7265737300000000000000000000000000000000000000000000000000000000602082015250565b6000614d71602483614076565b9150614d7c82614d15565b604082019050919050565b60006020820190508181036000830152614da081614d64565b9050919050565b7f45524332303a20617070726f766520746f20746865207a65726f20616464726560008201527f7373000000000000000000000000000000000000000000000000000000000000602082015250565b6000614e03602283614076565b9150614e0e82614da7565b604082019050919050565b60006020820190508181036000830152614e3281614df6565b9050919050565b600081905092915050565b7f416363657373436f6e74726f6c3a206163636f756e7420000000000000000000600082015250565b6000614e7a601783614e39565b9150614e8582614e44565b601782019050919050565b6000614e9b8261406b565b614ea58185614e39565b9350614eb5818560208601614087565b80840191505092915050565b7f206973206d697373696e6720726f6c6520000000000000000000000000000000600082015250565b6000614ef7601183614e39565b9150614f0282614ec1565b601182019050919050565b6000614f1882614e6d565b9150614f248285614e90565b9150614f2f82614eea565b9150614f3b8284614e90565b91508190509392505050565b7f416d6f756e742063616e2774206265206d6f726520707265636973652074686160008201527f6e203920646563696d616c20706c616365732100000000000000000000000000602082015250565b6000614fa3603383614076565b9150614fae82614f47565b604082019050919050565b60006020820190508181036000830152614fd281614f96565b9050919050565b7f45524332303a206d696e7420746f20746865207a65726f206164647265737300600082015250565b600061500f601f83614076565b915061501a82614fd9565b602082019050919050565b6000602082019050818103600083015261503e81615002565b9050919050565b60008160601b9050919050565b600061505d82615045565b9050919050565b600061506f82615052565b9050919050565b61508761508282614146565b615064565b82525050565b6000819050919050565b6150a86150a382614184565b61508d565b82525050565b6000819050919050565b6150c96150c482614037565b6150ae565b82525050565b60006150db8286615076565b6014820191506150eb8285615097565b6020820191506150fb82846150b8565b602082019150819050949350505050565b7f45524332303a207472616e736665722066726f6d20746865207a65726f20616460008201527f6472657373000000000000000000000000000000000000000000000000000000602082015250565b6000615168602583614076565b91506151738261510c565b604082019050919050565b600060208201905081810360008301526151978161515b565b9050919050565b7f45524332303a207472616e7366657220746f20746865207a65726f206164647260008201527f6573730000000000000000000000000000000000000000000000000000000000602082015250565b60006151fa602383614076565b91506152058261519e565b604082019050919050565b60006020820190508181036000830152615229816151ed565b9050919050565b7f45524332303a207472616e7366657220616d6f756e742065786365656473206260008201527f616c616e63650000000000000000000000000000000000000000000000000000602082015250565b600061528c602683614076565b915061529782615230565b604082019050919050565b600060208201905081810360008301526152bb8161527f565b9050919050565b7f5061757361626c653a206e6f7420706175736564000000000000000000000000600082015250565b60006152f8601483614076565b9150615303826152c2565b602082019050919050565b60006020820190508181036000830152615327816152eb565b9050919050565b7f5061757361626c653a2070617573656400000000000000000000000000000000600082015250565b6000615364601083614076565b915061536f8261532e565b602082019050919050565b6000602082019050818103600083015261539381615357565b9050919050565b7f45524332303a206275726e2066726f6d20746865207a65726f2061646472657360008201527f7300000000000000000000000000000000000000000000000000000000000000602082015250565b60006153f6602183614076565b91506154018261539a565b604082019050919050565b60006020820190508181036000830152615425816153e9565b9050919050565b7f45524332303a206275726e20616d6f756e7420657863656564732062616c616e60008201527f6365000000000000000000000000000000000000000000000000000000000000602082015250565b6000615488602283614076565b91506154938261542c565b604082019050919050565b600060208201905081810360008301526154b78161547b565b9050919050565b7f4e487b7100000000000000000000000000000000000000000000000000000000600052604160045260246000fd5b7f4e487b7100000000000000000000000000000000000000000000000000000000600052603260045260246000fd5b600061552782614184565b9150600082141561553b5761553a6145fe565b5b600182039050919050565b7f537472696e67733a20686578206c656e67746820696e73756666696369656e74600082015250565b600061557c602083614076565b915061558782615546565b602082019050919050565b600060208201905081810360008301526155ab8161556f565b9050919050565b7f53656e6465722069732063757272656e746c792066726f7a656e2e0000000000600082015250565b60006155e8601b83614076565b91506155f3826155b2565b602082019050919050565b60006020820190508181036000830152615617816155db565b9050919050565b7f526563697069656e742069732063757272656e746c792066726f7a656e2e0000600082015250565b6000615654601e83614076565b915061565f8261561e565b602082019050919050565b6000602082019050818103600083015261568381615647565b9050919050565b7f416363657373436f6e74726f6c3a2063616e206f6e6c792072656e6f756e636560008201527f20726f6c657320666f722073656c660000000000000000000000000000000000602082015250565b60006156e6602f83614076565b91506156f18261568a565b604082019050919050565b60006020820190508181036000830152615715816156d9565b9050919050565b7f4e487b7100000000000000000000000000000000000000000000000000000000600052603160045260246000fdfea26469706673582212200495ac14b5f16e137bd901bcfcdb25e117135b6f576999c1f76bb57da1971c5b64736f6c634300080b0033",
  "linkReferences": {},
  "deployedLinkReferences": {}
}