{
  "_format": "hh-sol-artifact-1",
  "contractName": "METLV3",
  "sourceName": "contracts/METLV3.sol",
  "abi": [
    {
      "anonymous": false,
      "inputs": [
        {
          "indexed": true,
          "internalType": "address",
          "name": "owner",
          "type": "address"
        },
        {
          "indexed": true,
          "internalType": "address",
          "name": "spender",
          "type": "address"
        },
        {
          "indexed": false,
          "internalType": "uint256",
          "name": "value",
          "type": "uint256"
        }
      ],
      "name": "Approval",
      "type": "event"
    },
    {
      "anonymous": false,
      "inputs": [
        {
          "indexed": true,
          "internalType": "address",
          "name": "feeCollector",
          "type": "address"
        },
        {
          "indexed": true,
          "internalType": "uint256",
          "name": "fee",
          "type": "uint256"
        },
        {
          "indexed": true,
          "internalType": "bytes32",
          "name": "actionId",
          "type": "bytes32"
        }
      ],
      "name": "BurnFee",
      "type": "event"
    },
    {
      "anonymous": false,
      "inputs": [
        {
          "indexed": true,
          "internalType": "address",
          "name": "recipient",
          "type": "address"
        },
        {
          "indexed": true,
          "internalType": "uint256",
          "name": "amount",
          "type": "uint256"
        },
        {
          "indexed": true,
          "internalType": "bytes32",
          "name": "transferId",
          "type": "bytes32"
        },
        {
          "indexed": false,
          "internalType": "uint256",
          "name": "mintUnlockTime",
          "type": "uint256"
        },
        {
          "indexed": false,
          "internalType": "uint256",
          "name": "commitUnlockTime",
          "type": "uint256"
        },
        {
          "indexed": false,
          "internalType": "address",
          "name": "limitedMinter",
          "type": "address"
        }
      ],
      "name": "Commit",
      "type": "event"
    },
    {
      "anonymous": false,
      "inputs": [
        {
          "indexed": true,
          "internalType": "address",
          "name": "feeCollector",
          "type": "address"
        },
        {
          "indexed": true,
          "internalType": "uint256",
          "name": "fee",
          "type": "uint256"
        },
        {
          "indexed": true,
          "internalType": "bytes32",
          "name": "transferId",
          "type": "bytes32"
        }
      ],
      "name": "MintFee",
      "type": "event"
    },
    {
      "anonymous": false,
      "inputs": [
        {
          "indexed": true,
          "internalType": "address",
          "name": "recipient",
          "type": "address"
        },
        {
          "indexed": true,
          "internalType": "uint256",
          "name": "amount",
          "type": "uint256"
        },
        {
          "indexed": true,
          "internalType": "bytes32",
          "name": "transferId",
          "type": "bytes32"
        }
      ],
      "name": "MintVetoed",
      "type": "event"
    },
    {
      "anonymous": false,
      "inputs": [
        {
          "indexed": false,
          "internalType": "address",
          "name": "account",
          "type": "address"
        }
      ],
      "name": "Paused",
      "type": "event"
    },
    {
      "anonymous": false,
      "inputs": [
        {
          "indexed": true,
          "internalType": "address",
          "name": "recipient",
          "type": "address"
        },
        {
          "indexed": true,
          "internalType": "uint256",
          "name": "amount",
          "type": "uint256"
        },
        {
          "indexed": true,
          "internalType": "bytes32",
          "name": "actionId",
          "type": "bytes32"
        }
      ],
      "name": "ReceivedBurn",
      "type": "event"
    },
    {
      "anonymous": false,
      "inputs": [
        {
          "indexed": true,
          "internalType": "address",
          "name": "recipient",
          "type": "address"
        },
        {
          "indexed": true,
          "internalType": "uint256",
          "name": "amount",
          "type": "uint256"
        },
        {
          "indexed": true,
          "internalType": "bytes32",
          "name": "transferId",
          "type": "bytes32"
        }
      ],
      "name": "ReceivedMint",
      "type": "event"
    },
    {
      "anonymous": false,
      "inputs": [
        {
          "indexed": true,
          "internalType": "bytes32",
          "name": "role",
          "type": "bytes32"
        },
        {
          "indexed": true,
          "internalType": "bytes32",
          "name": "previousAdminRole",
          "type": "bytes32"
        },
        {
          "indexed": true,
          "internalType": "bytes32",
          "name": "newAdminRole",
          "type": "bytes32"
        }
      ],
      "name": "RoleAdminChanged",
      "type": "event"
    },
    {
      "anonymous": false,
      "inputs": [
        {
          "indexed": true,
          "internalType": "bytes32",
          "name": "role",
          "type": "bytes32"
        },
        {
          "indexed": true,
          "internalType": "address",
          "name": "account",
          "type": "address"
        },
        {
          "indexed": true,
          "internalType": "address",
          "name": "sender",
          "type": "address"
        }
      ],
      "name": "RoleGranted",
      "type": "event"
    },
    {
      "anonymous": false,
      "inputs": [
        {
          "indexed": true,
          "internalType": "bytes32",
          "name": "role",
          "type": "bytes32"
        },
        {
          "indexed": true,
          "internalType": "address",
          "name": "account",
          "type": "address"
        },
        {
          "indexed": true,
          "internalType": "address",
          "name": "sender",
          "type": "address"
        }
      ],
      "name": "RoleRevoked",
      "type": "event"
    },
    {
      "anonymous": false,
      "inputs": [
        {
          "indexed": true,
          "internalType": "address",
          "name": "from",
          "type": "address"
        },
        {
          "indexed": true,
          "internalType": "address",
          "name": "to",
          "type": "address"
        },
        {
          "indexed": false,
          "internalType": "uint256",
          "name": "value",
          "type": "uint256"
        }
      ],
      "name": "Transfer",
      "type": "event"
    },
    {
      "anonymous": false,
      "inputs": [
        {
          "indexed": false,
          "internalType": "address",
          "name": "account",
          "type": "address"
        }
      ],
      "name": "Unpaused",
      "type": "event"
    },
    {
      "inputs": [],
      "name": "BASIS_RATE",
      "outputs": [
        {
          "internalType": "uint256",
          "name": "",
          "type": "uint256"
        }
      ],
      "stateMutability": "view",
      "type": "function"
    },
    {
      "inputs": [],
      "name": "BURNER_ROLE",
      "outputs": [
        {
          "internalType": "bytes32",
          "name": "",
          "type": "bytes32"
        }
      ],
      "stateMutability": "view",
      "type": "function"
    },
    {
      "inputs": [],
      "name": "DEFAULT_ADMIN_ROLE",
      "outputs": [
        {
          "internalType": "bytes32",
          "name": "",
          "type": "bytes32"
        }
      ],
      "stateMutability": "view",
      "type": "function"
    },
    {
      "inputs": [],
      "name": "FEE_CONTROLLER",
      "outputs": [
        {
          "internalType": "bytes32",
          "name": "",
          "type": "bytes32"
        }
      ],
      "stateMutability": "view",
      "type": "function"
    },
    {
      "inputs": [],
      "name": "FREEZER_ROLE",
      "outputs": [
        {
          "internalType": "bytes32",
          "name": "",
          "type": "bytes32"
        }
      ],
      "stateMutability": "view",
      "type": "function"
    },
    {
      "inputs": [],
      "name": "FROZEN_USER",
      "outputs": [
        {
          "internalType": "bytes32",
          "name": "",
          "type": "bytes32"
        }
      ],
      "stateMutability": "view",
      "type": "function"
    },
    {
      "inputs": [],
      "name": "LIMITED_MINTER",
      "outputs": [
        {
          "internalType": "bytes32",
          "name": "",
          "type": "bytes32"
        }
      ],
      "stateMutability": "view",
      "type": "function"
    },
    {
      "inputs": [],
      "name": "MINTER_ROLE",
      "outputs": [
        {
          "internalType": "bytes32",
          "name": "",
          "type": "bytes32"
        }
      ],
      "stateMutability": "view",
      "type": "function"
    },
    {
      "inputs": [],
      "name": "PAUSER_ROLE",
      "outputs": [
        {
          "internalType": "bytes32",
          "name": "",
          "type": "bytes32"
        }
      ],
      "stateMutability": "view",
      "type": "function"
    },
    {
      "inputs": [],
      "name": "WHITELIST_USER",
      "outputs": [
        {
          "internalType": "bytes32",
          "name": "",
          "type": "bytes32"
        }
      ],
      "stateMutability": "view",
      "type": "function"
    },
    {
      "inputs": [
        {
          "internalType": "address",
          "name": "owner",
          "type": "address"
        },
        {
          "internalType": "address",
          "name": "spender",
          "type": "address"
        }
      ],
      "name": "allowance",
      "outputs": [
        {
          "internalType": "uint256",
          "name": "",
          "type": "uint256"
        }
      ],
      "stateMutability": "view",
      "type": "function"
    },
    {
      "inputs": [
        {
          "internalType": "address",
          "name": "spender",
          "type": "address"
        },
        {
          "internalType": "uint256",
          "name": "amount",
          "type": "uint256"
        }
      ],
      "name": "approve",
      "outputs": [
        {
          "internalType": "bool",
          "name": "",
          "type": "bool"
        }
      ],
      "stateMutability": "nonpayable",
      "type": "function"
    },
    {
      "inputs": [
        {
          "internalType": "address",
          "name": "account",
          "type": "address"
        }
      ],
      "name": "balanceOf",
      "outputs": [
        {
          "internalType": "uint256",
          "name": "",
          "type": "uint256"
        }
      ],
      "stateMutability": "view",
      "type": "function"
    },
    {
      "inputs": [
        {
          "internalType": "address",
          "name": "target",
          "type": "address"
        },
        {
          "internalType": "uint256",
          "name": "amount",
          "type": "uint256"
        },
        {
          "internalType": "bytes32",
          "name": "actionId",
          "type": "bytes32"
        }
      ],
      "name": "bankBurn",
      "outputs": [],
      "stateMutability": "nonpayable",
      "type": "function"
    },
    {
      "inputs": [
        {
          "internalType": "uint256",
          "name": "amount",
          "type": "uint256"
        }
      ],
      "name": "burn",
      "outputs": [],
      "stateMutability": "nonpayable",
      "type": "function"
    },
    {
      "inputs": [
        {
          "internalType": "address",
          "name": "account",
          "type": "address"
        },
        {
          "internalType": "uint256",
          "name": "amount",
          "type": "uint256"
        }
      ],
      "name": "burnFrom",
      "outputs": [],
      "stateMutability": "nonpayable",
      "type": "function"
    },
    {
      "inputs": [],
      "name": "commitCooldown",
      "outputs": [
        {
          "internalType": "uint256",
          "name": "",
          "type": "uint256"
        }
      ],
      "stateMutability": "view",
      "type": "function"
    },
    {
      "inputs": [
        {
          "internalType": "address",
          "name": "recipient",
          "type": "address"
        },
        {
          "internalType": "uint256",
          "name": "amount",
          "type": "uint256"
        },
        {
          "internalType": "bytes32",
          "name": "transferId",
          "type": "bytes32"
        }
      ],
      "name": "commitMint",
      "outputs": [],
      "stateMutability": "nonpayable",
      "type": "function"
    },
    {
      "inputs": [
        {
          "internalType": "address",
          "name": "",
          "type": "address"
        }
      ],
      "name": "commitUnlock",
      "outputs": [
        {
          "internalType": "uint256",
          "name": "",
          "type": "uint256"
        }
      ],
      "stateMutability": "view",
      "type": "function"
    },
    {
      "inputs": [],
      "name": "cooldownMultiplier",
      "outputs": [
        {
          "internalType": "uint256",
          "name": "",
          "type": "uint256"
        }
      ],
      "stateMutability": "view",
      "type": "function"
    },
    {
      "inputs": [],
      "name": "currentFeeCollector",
      "outputs": [
        {
          "internalType": "address",
          "name": "",
          "type": "address"
        }
      ],
      "stateMutability": "view",
      "type": "function"
    },
    {
      "inputs": [],
      "name": "decimals",
      "outputs": [
        {
          "internalType": "uint8",
          "name": "",
          "type": "uint8"
        }
      ],
      "stateMutability": "view",
      "type": "function"
    },
    {
      "inputs": [
        {
          "internalType": "address",
          "name": "spender",
          "type": "address"
        },
        {
          "internalType": "uint256",
          "name": "subtractedValue",
          "type": "uint256"
        }
      ],
      "name": "decreaseAllowance",
      "outputs": [
        {
          "internalType": "bool",
          "name": "",
          "type": "bool"
        }
      ],
      "stateMutability": "nonpayable",
      "type": "function"
    },
    {
      "inputs": [],
      "name": "freeBurning",
      "outputs": [
        {
          "internalType": "bool",
          "name": "",
          "type": "bool"
        }
      ],
      "stateMutability": "view",
      "type": "function"
    },
    {
      "inputs": [],
      "name": "freeMinting",
      "outputs": [
        {
          "internalType": "bool",
          "name": "",
          "type": "bool"
        }
      ],
      "stateMutability": "view",
      "type": "function"
    },
    {
      "inputs": [
        {
          "internalType": "bytes32",
          "name": "role",
          "type": "bytes32"
        }
      ],
      "name": "getRoleAdmin",
      "outputs": [
        {
          "internalType": "bytes32",
          "name": "",
          "type": "bytes32"
        }
      ],
      "stateMutability": "view",
      "type": "function"
    },
    {
      "inputs": [
        {
          "internalType": "bytes32",
          "name": "role",
          "type": "bytes32"
        },
        {
          "internalType": "uint256",
          "name": "index",
          "type": "uint256"
        }
      ],
      "name": "getRoleMember",
      "outputs": [
        {
          "internalType": "address",
          "name": "",
          "type": "address"
        }
      ],
      "stateMutability": "view",
      "type": "function"
    },
    {
      "inputs": [
        {
          "internalType": "bytes32",
          "name": "role",
          "type": "bytes32"
        }
      ],
      "name": "getRoleMemberCount",
      "outputs": [
        {
          "internalType": "uint256",
          "name": "",
          "type": "uint256"
        }
      ],
      "stateMutability": "view",
      "type": "function"
    },
    {
      "inputs": [
        {
          "internalType": "bytes32",
          "name": "role",
          "type": "bytes32"
        },
        {
          "internalType": "address",
          "name": "account",
          "type": "address"
        }
      ],
      "name": "grantRole",
      "outputs": [],
      "stateMutability": "nonpayable",
      "type": "function"
    },
    {
      "inputs": [
        {
          "internalType": "bytes32",
          "name": "role",
          "type": "bytes32"
        },
        {
          "internalType": "address",
          "name": "account",
          "type": "address"
        }
      ],
      "name": "hasRole",
      "outputs": [
        {
          "internalType": "bool",
          "name": "",
          "type": "bool"
        }
      ],
      "stateMutability": "view",
      "type": "function"
    },
    {
      "inputs": [
        {
          "internalType": "address",
          "name": "spender",
          "type": "address"
        },
        {
          "internalType": "uint256",
          "name": "addedValue",
          "type": "uint256"
        }
      ],
      "name": "increaseAllowance",
      "outputs": [
        {
          "internalType": "bool",
          "name": "",
          "type": "bool"
        }
      ],
      "stateMutability": "nonpayable",
      "type": "function"
    },
    {
      "inputs": [],
      "name": "initialize",
      "outputs": [],
      "stateMutability": "nonpayable",
      "type": "function"
    },
    {
      "inputs": [
        {
          "internalType": "address",
          "name": "recipient",
          "type": "address"
        },
        {
          "internalType": "uint256",
          "name": "amount",
          "type": "uint256"
        },
        {
          "internalType": "bytes32",
          "name": "transferId",
          "type": "bytes32"
        }
      ],
      "name": "limitedMint",
      "outputs": [],
      "stateMutability": "nonpayable",
      "type": "function"
    },
    {
      "inputs": [
        {
          "internalType": "address",
          "name": "recipient",
          "type": "address"
        },
        {
          "internalType": "uint256",
          "name": "amount",
          "type": "uint256"
        },
        {
          "internalType": "bytes32",
          "name": "transferId",
          "type": "bytes32"
        }
      ],
      "name": "mint",
      "outputs": [],
      "stateMutability": "nonpayable",
      "type": "function"
    },
    {
      "inputs": [],
      "name": "name",
      "outputs": [
        {
          "internalType": "string",
          "name": "",
          "type": "string"
        }
      ],
      "stateMutability": "view",
      "type": "function"
    },
    {
      "inputs": [],
      "name": "pause",
      "outputs": [],
      "stateMutability": "nonpayable",
      "type": "function"
    },
    {
      "inputs": [],
      "name": "paused",
      "outputs": [
        {
          "internalType": "bool",
          "name": "",
          "type": "bool"
        }
      ],
      "stateMutability": "view",
      "type": "function"
    },
    {
      "inputs": [
        {
          "internalType": "bytes32",
          "name": "role",
          "type": "bytes32"
        },
        {
          "internalType": "address",
          "name": "account",
          "type": "address"
        }
      ],
      "name": "renounceRole",
      "outputs": [],
      "stateMutability": "nonpayable",
      "type": "function"
    },
    {
      "inputs": [
        {
          "internalType": "bytes32",
          "name": "role",
          "type": "bytes32"
        },
        {
          "internalType": "address",
          "name": "account",
          "type": "address"
        }
      ],
      "name": "revokeRole",
      "outputs": [],
      "stateMutability": "nonpayable",
      "type": "function"
    },
    {
      "inputs": [
        {
          "internalType": "bool",
          "name": "newFreeBurning",
          "type": "bool"
        },
        {
          "internalType": "bool",
          "name": "newFreeMinting",
          "type": "bool"
        },
        {
          "internalType": "uint256",
          "name": "newCommitCooldown",
          "type": "uint256"
        },
        {
          "internalType": "uint256",
          "name": "newCooldownMultiplier",
          "type": "uint256"
        }
      ],
      "name": "setControls",
      "outputs": [],
      "stateMutability": "nonpayable",
      "type": "function"
    },
    {
      "inputs": [
        {
          "internalType": "address",
          "name": "feeCollector",
          "type": "address"
        }
      ],
      "name": "setFeeCollector",
      "outputs": [],
      "stateMutability": "nonpayable",
      "type": "function"
    },
    {
      "inputs": [
        {
          "internalType": "bytes4",
          "name": "interfaceId",
          "type": "bytes4"
        }
      ],
      "name": "supportsInterface",
      "outputs": [
        {
          "internalType": "bool",
          "name": "",
          "type": "bool"
        }
      ],
      "stateMutability": "view",
      "type": "function"
    },
    {
      "inputs": [],
      "name": "symbol",
      "outputs": [
        {
          "internalType": "string",
          "name": "",
          "type": "string"
        }
      ],
      "stateMutability": "view",
      "type": "function"
    },
    {
      "inputs": [],
      "name": "totalSupply",
      "outputs": [
        {
          "internalType": "uint256",
          "name": "",
          "type": "uint256"
        }
      ],
      "stateMutability": "view",
      "type": "function"
    },
    {
      "inputs": [
        {
          "internalType": "address",
          "name": "to",
          "type": "address"
        },
        {
          "internalType": "uint256",
          "name": "amount",
          "type": "uint256"
        }
      ],
      "name": "transfer",
      "outputs": [
        {
          "internalType": "bool",
          "name": "",
          "type": "bool"
        }
      ],
      "stateMutability": "nonpayable",
      "type": "function"
    },
    {
      "inputs": [
        {
          "internalType": "address",
          "name": "from",
          "type": "address"
        },
        {
          "internalType": "address",
          "name": "to",
          "type": "address"
        },
        {
          "internalType": "uint256",
          "name": "amount",
          "type": "uint256"
        }
      ],
      "name": "transferFrom",
      "outputs": [
        {
          "internalType": "bool",
          "name": "",
          "type": "bool"
        }
      ],
      "stateMutability": "nonpayable",
      "type": "function"
    },
    {
      "inputs": [],
      "name": "unpause",
      "outputs": [],
      "stateMutability": "nonpayable",
      "type": "function"
    },
    {
      "inputs": [
        {
          "internalType": "uint256",
          "name": "newRate",
          "type": "uint256"
        }
      ],
      "name": "updateVariableRate",
      "outputs": [],
      "stateMutability": "nonpayable",
      "type": "function"
    },
    {
      "inputs": [],
      "name": "variableRate",
      "outputs": [
        {
          "internalType": "uint256",
          "name": "",
          "type": "uint256"
        }
      ],
      "stateMutability": "view",
      "type": "function"
    },
    {
      "inputs": [
        {
          "internalType": "address",
          "name": "recipient",
          "type": "address"
        },
        {
          "internalType": "uint256",
          "name": "amount",
          "type": "uint256"
        },
        {
          "internalType": "bytes32",
          "name": "transferId",
          "type": "bytes32"
        }
      ],
      "name": "vetoMint",
      "outputs": [],
      "stateMutability": "nonpayable",
      "type": "function"
    }
  ],
  "bytecode": "0x608060405234801561001057600080fd5b50614f20806100206000396000f3fe608060405234801561001057600080fd5b50600436106102d65760003560e01c80638129fc1c11610182578063aac41dac116100e9578063d547741f116100a2578063dd62ed3e1161007c578063dd62ed3e146108c1578063e63ab1e9146108f1578063f34b30791461090f578063fc5c69ba1461092d576102d6565b8063d547741f14610869578063d911e39b14610885578063dc59e8c7146108a3576102d6565b8063aac41dac146107a9578063afe45f87146107c5578063bd254d4c146107e3578063ca15c873146107ff578063cc5907e11461082f578063d53913931461084b576102d6565b8063a217fddf1161013b578063a217fddf146106d5578063a42dce80146106f3578063a457c2d71461070f578063a58356701461073f578063a9059cbb1461075d578063a9eebdb11461078d576102d6565b80638129fc1c146106255780638456cb591461062f578063866006a6146106395780639010d07c1461065757806391d148541461068757806395d89b41146106b7576102d6565b8063313ce567116102415780634670bb6c116101fa5780636c6b65de116101d45780636c6b65de1461059f5780636cea8372146105bb57806370a08231146105d957806379cc679014610609576102d6565b80634670bb6c146105475780635502f287146105635780635c975abb14610581576102d6565b8063313ce567146104875780633606ef3c146104a557806336568abe146104d557806339509351146104f15780633f4ba83a1461052157806342966c681461052b576102d6565b806323b872dd1161029357806323b872dd146103b1578063248a9ca3146103e157806324e0d46014610411578063282c51f31461042f5780632f2ff15d1461044d5780632fe94def14610469576102d6565b806301ffc9a7146102db57806306a85f0f1461030b57806306fdde0314610329578063095ea7b31461034757806318160ddd146103775780631e458bee14610395575b600080fd5b6102f560048036038101906102f09190613797565b61094b565b60405161030291906137df565b60405180910390f35b6103136109c5565b6040516103209190613813565b60405180910390f35b6103316109e9565b60405161033e91906138c7565b60405180910390f35b610361600480360381019061035c919061397d565b610a7b565b60405161036e91906137df565b60405180910390f35b61037f610a9e565b60405161038c91906139cc565b60405180910390f35b6103af60048036038101906103aa9190613a13565b610aa8565b005b6103cb60048036038101906103c69190613a66565b610cb8565b6040516103d891906137df565b60405180910390f35b6103fb60048036038101906103f69190613ab9565b610ce7565b6040516104089190613813565b60405180910390f35b610419610d07565b60405161042691906139cc565b60405180910390f35b610437610d0e565b6040516104449190613813565b60405180910390f35b61046760048036038101906104629190613ae6565b610d32565b005b610471610d5b565b60405161047e9190613813565b60405180910390f35b61048f610d7f565b60405161049c9190613b42565b60405180910390f35b6104bf60048036038101906104ba9190613b5d565b610d88565b6040516104cc91906139cc565b60405180910390f35b6104ef60048036038101906104ea9190613ae6565b610da1565b005b61050b6004803603810190610506919061397d565b610e98565b60405161051891906137df565b60405180910390f35b610529610f42565b005b61054560048036038101906105409190613b8a565b610f7f565b005b610561600480360381019061055c9190613a13565b610f84565b005b61056b611207565b6040516105789190613813565b60405180910390f35b61058961122b565b60405161059691906137df565b60405180910390f35b6105b960048036038101906105b49190613a13565b611242565b005b6105c36112e7565b6040516105d091906139cc565b60405180910390f35b6105f360048036038101906105ee9190613b5d565b6112ee565b60405161060091906139cc565b60405180910390f35b610623600480360381019061061e919061397d565b611337565b005b61062d61133c565b005b610637611558565b005b610641611595565b60405161064e91906139cc565b60405180910390f35b610671600480360381019061066c9190613bb7565b61159d565b60405161067e9190613c06565b60405180910390f35b6106a1600480360381019061069c9190613ae6565b6115cd565b6040516106ae91906137df565b60405180910390f35b6106bf611638565b6040516106cc91906138c7565b60405180910390f35b6106dd6116ca565b6040516106ea9190613813565b60405180910390f35b61070d60048036038101906107089190613b5d565b6116d1565b005b6107296004803603810190610724919061397d565b611749565b60405161073691906137df565b60405180910390f35b610747611833565b60405161075491906137df565b60405180910390f35b6107776004803603810190610772919061397d565b611847565b60405161078491906137df565b60405180910390f35b6107a760048036038101906107a29190613a13565b61186a565b005b6107c360048036038101906107be9190613a13565b6119bb565b005b6107cd611c05565b6040516107da9190613c06565b60405180910390f35b6107fd60048036038101906107f89190613b8a565b611c2c565b005b61081960048036038101906108149190613ab9565b611d48565b60405161082691906139cc565b60405180910390f35b61084960048036038101906108449190613c4d565b611d6d565b005b610853611dcf565b6040516108609190613813565b60405180910390f35b610883600480360381019061087e9190613ae6565b611df3565b005b61088d611e58565b60405161089a91906139cc565b60405180910390f35b6108ab611e5f565b6040516108b89190613813565b60405180910390f35b6108db60048036038101906108d69190613cb4565b611e83565b6040516108e891906139cc565b60405180910390f35b6108f9611f0a565b6040516109069190613813565b60405180910390f35b610917611f2e565b6040516109249190613813565b60405180910390f35b610935611f52565b60405161094291906137df565b60405180910390f35b60007f5a05180f000000000000000000000000000000000000000000000000000000007bffffffffffffffffffffffffffffffffffffffffffffffffffffffff1916827bffffffffffffffffffffffffffffffffffffffffffffffffffffffff191614806109be57506109bd82611f66565b5b9050919050565b7f92de27771f92d6942691d73358b3a4673e4880de8356f8f2cf452be87e02d36381565b6060603680546109f890613d23565b80601f0160208091040260200160405190810160405280929190818152602001828054610a2490613d23565b8015610a715780601f10610a4657610100808354040283529160200191610a71565b820191906000526020600020905b815481529060010190602001808311610a5457829003601f168201915b5050505050905090565b600080610a86611fe0565b9050610a93818585611fe8565b600191505092915050565b6000603554905090565b7f9f2df0fed2c77648de5860a4cc508cd0818c85b8b8a1ab4ceeef8d981c8956a6610ada81610ad5611fe0565b6121b3565b610b047faee674c6ada01c6d4ee4067d160ffdacc9cc9aba7ca34516f8c9ff75fdc8d723856115cd565b610b43576040517f08c379a0000000000000000000000000000000000000000000000000000000008152600401610b3a90613da1565b60405180910390fd5b60006001151561016060149054906101000a900460ff16151514610b6d57610b6a84612250565b90505b60008185610b7b9190613df0565b905083818773ffffffffffffffffffffffffffffffffffffffff167fb279743e0218314d88b387012a6b7e94ff79b811c536ab5e40d6527ea265ff2c60405160405180910390a4838261016060009054906101000a900473ffffffffffffffffffffffffffffffffffffffff1673ffffffffffffffffffffffffffffffffffffffff167f1f8174bdbec9563f21f6aa0ab97118362e35fd5b104b486a0fa2d754cad41e5160405160405180910390a46000821115610c6157610c6061016060009054906101000a900473ffffffffffffffffffffffffffffffffffffffff16836122c8565b5b6000610c6e878787612429565b9050600061016360008381526020019081526020016000205414610ca5576101636000828152602001908152602001600020600090555b610caf87836122c8565b50505050505050565b600080610cc3611fe0565b9050610cd085828561245f565b610cdb8585856124eb565b60019150509392505050565b600060fb6000838152602001908152602001600020600101549050919050565b61015f5481565b7f3c11d16cbaffd01df69ce1c404f6340ee057498f5f00246190ea54220576a84881565b610d3b82610ce7565b610d4c81610d47611fe0565b6121b3565b610d56838361276f565b505050565b7f8a639721758084b2ff869ed05cee658aab46e6bdc69bca1b006bae9f55613c5981565b60006012905090565b6101646020528060005260406000206000915090505481565b7f5edc4fd0544f0b4b53f14f295fb04bbd6fdbc1bea1fd8edf5851b385aee145d5821415610e3357610df37f92de27771f92d6942691d73358b3a4673e4880de8356f8f2cf452be87e02d363336115cd565b610e32576040517f08c379a0000000000000000000000000000000000000000000000000000000008152600401610e2990613e70565b60405180910390fd5b5b6000801b821415610e8a576001610e4983611d48565b11610e89576040517f08c379a0000000000000000000000000000000000000000000000000000000008152600401610e8090613edc565b60405180910390fd5b5b610e9482826127a4565b5050565b600080610ea3611fe0565b9050610f37818585603460008673ffffffffffffffffffffffffffffffffffffffff1673ffffffffffffffffffffffffffffffffffffffff16815260200190815260200160002060008973ffffffffffffffffffffffffffffffffffffffff1673ffffffffffffffffffffffffffffffffffffffff16815260200190815260200160002054610f329190613efc565b611fe8565b600191505092915050565b7f65d7a28e3265b37a6474929f336521b332c1681b933f6cb9f3376673440d862a610f7481610f6f611fe0565b6121b3565b610f7c612827565b50565b600080fd5b7f4b8072d94804aa443f85286056c4cb9fda8b35e0a826d9959c80aa89382b0f26610fb681610fb1611fe0565b6121b3565b610fe07faee674c6ada01c6d4ee4067d160ffdacc9cc9aba7ca34516f8c9ff75fdc8d723856115cd565b61101f576040517f08c379a000000000000000000000000000000000000000000000000000000000815260040161101690613da1565b60405180910390fd5b4261016460003373ffffffffffffffffffffffffffffffffffffffff1673ffffffffffffffffffffffffffffffffffffffff1681526020019081526020016000205410156110a2576040517f08c379a000000000000000000000000000000000000000000000000000000000815260040161109990613f9e565b60405180910390fd5b60006110af858585612429565b9050600061016360008381526020019081526020016000205414611108576040517f08c379a00000000000000000000000000000000000000000000000000000000081526004016110ff9061400a565b60405180910390fd5b6000670de0b6b3a76400008561111e9190614059565b6101615461112c919061408a565b426111379190613efc565b905080610163600084815260200190815260200160002081905550600061016254426111639190613efc565b90508061016460003373ffffffffffffffffffffffffffffffffffffffff1673ffffffffffffffffffffffffffffffffffffffff1681526020019081526020016000208190555084868873ffffffffffffffffffffffffffffffffffffffff167fb744a5eb3cafe36dae33c716833d91c7acd6bfa94ce3c0f4cc6ec42de38755238585336040516111f6939291906140e4565b60405180910390a450505050505050565b7f5edc4fd0544f0b4b53f14f295fb04bbd6fdbc1bea1fd8edf5851b385aee145d581565b6000609760009054906101000a900460ff16905090565b7f92de27771f92d6942691d73358b3a4673e4880de8356f8f2cf452be87e02d3636112748161126f611fe0565b6121b3565b6000611281858585612429565b905061016360008281526020019081526020016000206000905582848673ffffffffffffffffffffffffffffffffffffffff167fcc16942b6232b79202fa3d65654a598a75b1a3e812d4179dc04a7a32c097ceba60405160405180910390a45050505050565b6101615481565b6000603360008373ffffffffffffffffffffffffffffffffffffffff1673ffffffffffffffffffffffffffffffffffffffff168152602001908152602001600020549050919050565b600080fd5b600060019054906101000a900460ff166113645760008054906101000a900460ff161561136d565b61136c6128c9565b5b6113ac576040517f08c379a00000000000000000000000000000000000000000000000000000000081526004016113a39061418d565b60405180910390fd5b60008060019054906101000a900460ff1615905080156113fc576001600060016101000a81548160ff02191690831515021790555060016000806101000a81548160ff0219169083151502179055505b6114706040518060400160405280600b81526020017f55534420526563656970740000000000000000000000000000000000000000008152506040518060400160405280600481526020017f55534452000000000000000000000000000000000000000000000000000000008152506128da565b611478612937565b611480612988565b6114886129e1565b6114956000801b33612a32565b6114df7f5edc4fd0544f0b4b53f14f295fb04bbd6fdbc1bea1fd8edf5851b385aee145d57f92de27771f92d6942691d73358b3a4673e4880de8356f8f2cf452be87e02d363612a40565b62e4e1c061015f81905550600161016060146101000a81548160ff021916908315150217905550600161016060156101000a81548160ff02191690831515021790555060096101618190555060006101628190555080156115555760008060016101000a81548160ff0219169083151502179055505b50565b7f65d7a28e3265b37a6474929f336521b332c1681b933f6cb9f3376673440d862a61158a81611585611fe0565b6121b3565b611592612a9c565b50565b633b9aca0081565b60006115c58261012d6000868152602001908152602001600020612b3f90919063ffffffff16565b905092915050565b600060fb600084815260200190815260200160002060000160008373ffffffffffffffffffffffffffffffffffffffff1673ffffffffffffffffffffffffffffffffffffffff16815260200190815260200160002060009054906101000a900460ff16905092915050565b60606037805461164790613d23565b80601f016020809104026020016040519081016040528092919081815260200182805461167390613d23565b80156116c05780601f10611695576101008083540402835291602001916116c0565b820191906000526020600020905b8154815290600101906020018083116116a357829003601f168201915b5050505050905090565b6000801b81565b7f8a639721758084b2ff869ed05cee658aab46e6bdc69bca1b006bae9f55613c59611703816116fe611fe0565b6121b3565b8161016060006101000a81548173ffffffffffffffffffffffffffffffffffffffff021916908373ffffffffffffffffffffffffffffffffffffffff1602179055505050565b600080611754611fe0565b90506000603460008373ffffffffffffffffffffffffffffffffffffffff1673ffffffffffffffffffffffffffffffffffffffff16815260200190815260200160002060008673ffffffffffffffffffffffffffffffffffffffff1673ffffffffffffffffffffffffffffffffffffffff1681526020019081526020016000205490508381101561181a576040517f08c379a00000000000000000000000000000000000000000000000000000000081526004016118119061421f565b60405180910390fd5b6118278286868403611fe8565b60019250505092915050565b61016060149054906101000a900460ff1681565b600080611852611fe0565b905061185f8185856124eb565b600191505092915050565b7f3c11d16cbaffd01df69ce1c404f6340ee057498f5f00246190ea54220576a84861189c81611897611fe0565b6121b3565b60006001151561016060159054906101000a900460ff161515146118c6576118c384612250565b90505b60008111156118fd576118fc61016060009054906101000a900473ffffffffffffffffffffffffffffffffffffffff16826122c8565b5b82848673ffffffffffffffffffffffffffffffffffffffff167f06a5cc13c9f93b7a2af752bb0bda4958deb252b326ded3266f786ca78456002560405160405180910390a4828161016060009054906101000a900473ffffffffffffffffffffffffffffffffffffffff1673ffffffffffffffffffffffffffffffffffffffff167fb90103c5976493d20060202415867ddf1081e70322c45b6f19bfdbe384b14f5160405160405180910390a46119b48585612b59565b5050505050565b7f4b8072d94804aa443f85286056c4cb9fda8b35e0a826d9959c80aa89382b0f266119ed816119e8611fe0565b6121b3565b611a177faee674c6ada01c6d4ee4067d160ffdacc9cc9aba7ca34516f8c9ff75fdc8d723856115cd565b611a56576040517f08c379a0000000000000000000000000000000000000000000000000000000008152600401611a4d90613da1565b60405180910390fd5b6000611a63858585612429565b9050426101636000838152602001908152602001600020541015611abc576040517f08c379a0000000000000000000000000000000000000000000000000000000008152600401611ab39061428b565b60405180910390fd5b60006001151561016060149054906101000a900460ff16151514611ae657611ae385612250565b90505b60008186611af49190613df0565b905084818873ffffffffffffffffffffffffffffffffffffffff167fb279743e0218314d88b387012a6b7e94ff79b811c536ab5e40d6527ea265ff2c60405160405180910390a4848261016060009054906101000a900473ffffffffffffffffffffffffffffffffffffffff1673ffffffffffffffffffffffffffffffffffffffff167f1f8174bdbec9563f21f6aa0ab97118362e35fd5b104b486a0fa2d754cad41e5160405160405180910390a46000821115611bda57611bd961016060009054906101000a900473ffffffffffffffffffffffffffffffffffffffff16836122c8565b5b611be487826122c8565b61016360008481526020019081526020016000206000905550505050505050565b61016060009054906101000a900473ffffffffffffffffffffffffffffffffffffffff1681565b7f8a639721758084b2ff869ed05cee658aab46e6bdc69bca1b006bae9f55613c59611c5e81611c59611fe0565b6121b3565b6000620f424083611c6f91906142ab565b14611caf576040517f08c379a0000000000000000000000000000000000000000000000000000000008152600401611ca69061434e565b60405180910390fd5b6305f5e100821115611cf6576040517f08c379a0000000000000000000000000000000000000000000000000000000008152600401611ced906143ba565b60405180910390fd5b620f4240821015611d3c576040517f08c379a0000000000000000000000000000000000000000000000000000000008152600401611d3390614426565b60405180910390fd5b8161015f819055505050565b6000611d6661012d6000848152602001908152602001600020612d32565b9050919050565b6000801b611d8281611d7d611fe0565b6121b3565b8461016060156101000a81548160ff0219169083151502179055508361016060146101000a81548160ff021916908315150217905550826101628190555081610161819055505050505050565b7f9f2df0fed2c77648de5860a4cc508cd0818c85b8b8a1ab4ceeef8d981c8956a681565b6000801b821415611e4a576001611e0983611d48565b11611e49576040517f08c379a0000000000000000000000000000000000000000000000000000000008152600401611e4090613edc565b60405180910390fd5b5b611e548282612d47565b5050565b6101625481565b7f4b8072d94804aa443f85286056c4cb9fda8b35e0a826d9959c80aa89382b0f2681565b6000603460008473ffffffffffffffffffffffffffffffffffffffff1673ffffffffffffffffffffffffffffffffffffffff16815260200190815260200160002060008373ffffffffffffffffffffffffffffffffffffffff1673ffffffffffffffffffffffffffffffffffffffff16815260200190815260200160002054905092915050565b7f65d7a28e3265b37a6474929f336521b332c1681b933f6cb9f3376673440d862a81565b7faee674c6ada01c6d4ee4067d160ffdacc9cc9aba7ca34516f8c9ff75fdc8d72381565b61016060159054906101000a900460ff1681565b60007f7965db0b000000000000000000000000000000000000000000000000000000007bffffffffffffffffffffffffffffffffffffffffffffffffffffffff1916827bffffffffffffffffffffffffffffffffffffffffffffffffffffffff19161480611fd95750611fd882612d70565b5b9050919050565b600033905090565b600073ffffffffffffffffffffffffffffffffffffffff168373ffffffffffffffffffffffffffffffffffffffff161415612058576040517f08c379a000000000000000000000000000000000000000000000000000000000815260040161204f906144b8565b60405180910390fd5b600073ffffffffffffffffffffffffffffffffffffffff168273ffffffffffffffffffffffffffffffffffffffff1614156120c8576040517f08c379a00000000000000000000000000000000000000000000000000000000081526004016120bf9061454a565b60405180910390fd5b80603460008573ffffffffffffffffffffffffffffffffffffffff1673ffffffffffffffffffffffffffffffffffffffff16815260200190815260200160002060008473ffffffffffffffffffffffffffffffffffffffff1673ffffffffffffffffffffffffffffffffffffffff168152602001908152602001600020819055508173ffffffffffffffffffffffffffffffffffffffff168373ffffffffffffffffffffffffffffffffffffffff167f8c5be1e5ebec7d5bd14f71427d1e84f3dd0314c0f7b2291e5b200ac8c7c3b925836040516121a691906139cc565b60405180910390a3505050565b6121bd82826115cd565b61224c576121e28173ffffffffffffffffffffffffffffffffffffffff166014612dda565b6121f08360001c6020612dda565b60405160200161220192919061463e565b6040516020818303038152906040526040517f08c379a000000000000000000000000000000000000000000000000000000000815260040161224391906138c7565b60405180910390fd5b5050565b600080633b9aca008361226391906142ab565b146122a3576040517f08c379a000000000000000000000000000000000000000000000000000000000815260040161229a906146ea565b60405180910390fd5b61015f54633b9aca00836122b79190614059565b6122c1919061408a565b9050919050565b600073ffffffffffffffffffffffffffffffffffffffff168273ffffffffffffffffffffffffffffffffffffffff161415612338576040517f08c379a000000000000000000000000000000000000000000000000000000000815260040161232f90614756565b60405180910390fd5b61234460008383613016565b80603560008282546123569190613efc565b9250508190555080603360008473ffffffffffffffffffffffffffffffffffffffff1673ffffffffffffffffffffffffffffffffffffffff16815260200190815260200160002060008282546123ac9190613efc565b925050819055508173ffffffffffffffffffffffffffffffffffffffff16600073ffffffffffffffffffffffffffffffffffffffff167fddf252ad1be2c89b69c2b068fc378daa952ba7f163c4a11628f55a4df523b3ef8360405161241191906139cc565b60405180910390a361242560008383613142565b5050565b600083838360405160200161244093929190614776565b6040516020818303038152906040528051906020012090509392505050565b600061246b8484611e83565b90507fffffffffffffffffffffffffffffffffffffffffffffffffffffffffffffffff81146124e557818110156124d7576040517f08c379a00000000000000000000000000000000000000000000000000000000081526004016124ce906147f9565b60405180910390fd5b6124e48484848403611fe8565b5b50505050565b600073ffffffffffffffffffffffffffffffffffffffff168373ffffffffffffffffffffffffffffffffffffffff16141561255b576040517f08c379a00000000000000000000000000000000000000000000000000000000081526004016125529061488b565b60405180910390fd5b600073ffffffffffffffffffffffffffffffffffffffff168273ffffffffffffffffffffffffffffffffffffffff1614156125cb576040517f08c379a00000000000000000000000000000000000000000000000000000000081526004016125c29061491d565b60405180910390fd5b6125d6838383613016565b6000603360008573ffffffffffffffffffffffffffffffffffffffff1673ffffffffffffffffffffffffffffffffffffffff1681526020019081526020016000205490508181101561265d576040517f08c379a0000000000000000000000000000000000000000000000000000000008152600401612654906149af565b60405180910390fd5b818103603360008673ffffffffffffffffffffffffffffffffffffffff1673ffffffffffffffffffffffffffffffffffffffff1681526020019081526020016000208190555081603360008573ffffffffffffffffffffffffffffffffffffffff1673ffffffffffffffffffffffffffffffffffffffff16815260200190815260200160002060008282546126f29190613efc565b925050819055508273ffffffffffffffffffffffffffffffffffffffff168473ffffffffffffffffffffffffffffffffffffffff167fddf252ad1be2c89b69c2b068fc378daa952ba7f163c4a11628f55a4df523b3ef8460405161275691906139cc565b60405180910390a3612769848484613142565b50505050565b6127798282613147565b61279f8161012d600085815260200190815260200160002061322890919063ffffffff16565b505050565b6127ac611fe0565b73ffffffffffffffffffffffffffffffffffffffff168173ffffffffffffffffffffffffffffffffffffffff1614612819576040517f08c379a000000000000000000000000000000000000000000000000000000000815260040161281090614a41565b60405180910390fd5b6128238282613258565b5050565b61282f61122b565b61286e576040517f08c379a000000000000000000000000000000000000000000000000000000000815260040161286590614aad565b60405180910390fd5b6000609760006101000a81548160ff0219169083151502179055507f5db9ee0a495bf2e6ff9c91a7834c1ba4fdd244a5e8aa4e537bd38aeae4b073aa6128b2611fe0565b6040516128bf9190613c06565b60405180910390a1565b60006128d43061328d565b15905090565b600060019054906101000a900460ff16612929576040517f08c379a000000000000000000000000000000000000000000000000000000000815260040161292090614b3f565b60405180910390fd5b61293382826132b0565b5050565b600060019054906101000a900460ff16612986576040517f08c379a000000000000000000000000000000000000000000000000000000000815260040161297d90614b3f565b60405180910390fd5b565b600060019054906101000a900460ff166129d7576040517f08c379a00000000000000000000000000000000000000000000000000000000081526004016129ce90614b3f565b60405180910390fd5b6129df613331565b565b600060019054906101000a900460ff16612a30576040517f08c379a0000000000000000000000000000000000000000000000000000000008152600401612a2790614b3f565b60405180910390fd5b565b612a3c828261276f565b5050565b6000612a4b83610ce7565b90508160fb6000858152602001908152602001600020600101819055508181847fbd79b86ffe0ab8e8776151514217cd7cacd52c909f66475c3af44e129f0b00ff60405160405180910390a4505050565b612aa461122b565b15612ae4576040517f08c379a0000000000000000000000000000000000000000000000000000000008152600401612adb90614bab565b60405180910390fd5b6001609760006101000a81548160ff0219169083151502179055507f62e78cea01bee320cd4e420270b5ea74000d11b0c9f74754ebdbfc544b05a258612b28611fe0565b604051612b359190613c06565b60405180910390a1565b6000612b4e836000018361339d565b60001c905092915050565b600073ffffffffffffffffffffffffffffffffffffffff168273ffffffffffffffffffffffffffffffffffffffff161415612bc9576040517f08c379a0000000000000000000000000000000000000000000000000000000008152600401612bc090614c3d565b60405180910390fd5b612bd582600083613016565b6000603360008473ffffffffffffffffffffffffffffffffffffffff1673ffffffffffffffffffffffffffffffffffffffff16815260200190815260200160002054905081811015612c5c576040517f08c379a0000000000000000000000000000000000000000000000000000000008152600401612c5390614ccf565b60405180910390fd5b818103603360008573ffffffffffffffffffffffffffffffffffffffff1673ffffffffffffffffffffffffffffffffffffffff168152602001908152602001600020819055508160356000828254612cb49190613df0565b92505081905550600073ffffffffffffffffffffffffffffffffffffffff168373ffffffffffffffffffffffffffffffffffffffff167fddf252ad1be2c89b69c2b068fc378daa952ba7f163c4a11628f55a4df523b3ef84604051612d1991906139cc565b60405180910390a3612d2d83600084613142565b505050565b6000612d40826000016133c8565b9050919050565b612d5082610ce7565b612d6181612d5c611fe0565b6121b3565b612d6b8383613258565b505050565b60007f01ffc9a7000000000000000000000000000000000000000000000000000000007bffffffffffffffffffffffffffffffffffffffffffffffffffffffff1916827bffffffffffffffffffffffffffffffffffffffffffffffffffffffff1916149050919050565b606060006002836002612ded919061408a565b612df79190613efc565b67ffffffffffffffff811115612e1057612e0f614cef565b5b6040519080825280601f01601f191660200182016040528015612e425781602001600182028036833780820191505090505b5090507f300000000000000000000000000000000000000000000000000000000000000081600081518110612e7a57612e79614d1e565b5b60200101907effffffffffffffffffffffffffffffffffffffffffffffffffffffffffffff1916908160001a9053507f780000000000000000000000000000000000000000000000000000000000000081600181518110612ede57612edd614d1e565b5b60200101907effffffffffffffffffffffffffffffffffffffffffffffffffffffffffffff1916908160001a90535060006001846002612f1e919061408a565b612f289190613efc565b90505b6001811115612fc8577f3031323334353637383961626364656600000000000000000000000000000000600f861660108110612f6a57612f69614d1e565b5b1a60f81b828281518110612f8157612f80614d1e565b5b60200101907effffffffffffffffffffffffffffffffffffffffffffffffffffffffffffff1916908160001a905350600485901c945080612fc190614d4d565b9050612f2b565b506000841461300c576040517f08c379a000000000000000000000000000000000000000000000000000000000815260040161300390614dc3565b60405180910390fd5b8091505092915050565b61301e61122b565b1561305e576040517f08c379a000000000000000000000000000000000000000000000000000000000815260040161305590614bab565b60405180910390fd5b6130887f5edc4fd0544f0b4b53f14f295fb04bbd6fdbc1bea1fd8edf5851b385aee145d5846115cd565b156130c8576040517f08c379a00000000000000000000000000000000000000000000000000000000081526004016130bf90614e2f565b60405180910390fd5b6130f27f5edc4fd0544f0b4b53f14f295fb04bbd6fdbc1bea1fd8edf5851b385aee145d5836115cd565b15613132576040517f08c379a000000000000000000000000000000000000000000000000000000000815260040161312990614e9b565b60405180910390fd5b61313d8383836133d9565b505050565b505050565b61315182826115cd565b61322457600160fb600084815260200190815260200160002060000160008373ffffffffffffffffffffffffffffffffffffffff1673ffffffffffffffffffffffffffffffffffffffff16815260200190815260200160002060006101000a81548160ff0219169083151502179055506131c9611fe0565b73ffffffffffffffffffffffffffffffffffffffff168173ffffffffffffffffffffffffffffffffffffffff16837f2f8788117e7eff1d82e926ec794901d17c78024a50270940304540a733656f0d60405160405180910390a45b5050565b6000613250836000018373ffffffffffffffffffffffffffffffffffffffff1660001b6133de565b905092915050565b613262828261344e565b6132888161012d600085815260200190815260200160002061353090919063ffffffff16565b505050565b6000808273ffffffffffffffffffffffffffffffffffffffff163b119050919050565b600060019054906101000a900460ff166132ff576040517f08c379a00000000000000000000000000000000000000000000000000000000081526004016132f690614b3f565b60405180910390fd5b8160369080519060200190613315929190613697565b50806037908051906020019061332c929190613697565b505050565b600060019054906101000a900460ff16613380576040517f08c379a000000000000000000000000000000000000000000000000000000000815260040161337790614b3f565b60405180910390fd5b6000609760006101000a81548160ff021916908315150217905550565b60008260000182815481106133b5576133b4614d1e565b5b9060005260206000200154905092915050565b600081600001805490509050919050565b505050565b60006133ea8383613560565b613443578260000182908060018154018082558091505060019003906000526020600020016000909190919091505582600001805490508360010160008481526020019081526020016000208190555060019050613448565b600090505b92915050565b61345882826115cd565b1561352c57600060fb600084815260200190815260200160002060000160008373ffffffffffffffffffffffffffffffffffffffff1673ffffffffffffffffffffffffffffffffffffffff16815260200190815260200160002060006101000a81548160ff0219169083151502179055506134d1611fe0565b73ffffffffffffffffffffffffffffffffffffffff168173ffffffffffffffffffffffffffffffffffffffff16837ff6391f5c32d9c69d2a47ea670b442974b53935d1edc7fd64eb21e047a839171b60405160405180910390a45b5050565b6000613558836000018373ffffffffffffffffffffffffffffffffffffffff1660001b613583565b905092915050565b600080836001016000848152602001908152602001600020541415905092915050565b6000808360010160008481526020019081526020016000205490506000811461368b5760006001826135b59190613df0565b90506000600186600001805490506135cd9190613df0565b905081811461363c5760008660000182815481106135ee576135ed614d1e565b5b906000526020600020015490508087600001848154811061361257613611614d1e565b5b90600052602060002001819055508387600101600083815260200190815260200160002081905550505b856000018054806136505761364f614ebb565b5b600190038181906000526020600020016000905590558560010160008681526020019081526020016000206000905560019350505050613691565b60009150505b92915050565b8280546136a390613d23565b90600052602060002090601f0160209004810192826136c5576000855561370c565b82601f106136de57805160ff191683800117855561370c565b8280016001018555821561370c579182015b8281111561370b5782518255916020019190600101906136f0565b5b509050613719919061371d565b5090565b5b8082111561373657600081600090555060010161371e565b5090565b600080fd5b60007fffffffff0000000000000000000000000000000000000000000000000000000082169050919050565b6137748161373f565b811461377f57600080fd5b50565b6000813590506137918161376b565b92915050565b6000602082840312156137ad576137ac61373a565b5b60006137bb84828501613782565b91505092915050565b60008115159050919050565b6137d9816137c4565b82525050565b60006020820190506137f460008301846137d0565b92915050565b6000819050919050565b61380d816137fa565b82525050565b60006020820190506138286000830184613804565b92915050565b600081519050919050565b600082825260208201905092915050565b60005b8381101561386857808201518184015260208101905061384d565b83811115613877576000848401525b50505050565b6000601f19601f8301169050919050565b60006138998261382e565b6138a38185613839565b93506138b381856020860161384a565b6138bc8161387d565b840191505092915050565b600060208201905081810360008301526138e1818461388e565b905092915050565b600073ffffffffffffffffffffffffffffffffffffffff82169050919050565b6000613914826138e9565b9050919050565b61392481613909565b811461392f57600080fd5b50565b6000813590506139418161391b565b92915050565b6000819050919050565b61395a81613947565b811461396557600080fd5b50565b60008135905061397781613951565b92915050565b600080604083850312156139945761399361373a565b5b60006139a285828601613932565b92505060206139b385828601613968565b9150509250929050565b6139c681613947565b82525050565b60006020820190506139e160008301846139bd565b92915050565b6139f0816137fa565b81146139fb57600080fd5b50565b600081359050613a0d816139e7565b92915050565b600080600060608486031215613a2c57613a2b61373a565b5b6000613a3a86828701613932565b9350506020613a4b86828701613968565b9250506040613a5c868287016139fe565b9150509250925092565b600080600060608486031215613a7f57613a7e61373a565b5b6000613a8d86828701613932565b9350506020613a9e86828701613932565b9250506040613aaf86828701613968565b9150509250925092565b600060208284031215613acf57613ace61373a565b5b6000613add848285016139fe565b91505092915050565b60008060408385031215613afd57613afc61373a565b5b6000613b0b858286016139fe565b9250506020613b1c85828601613932565b9150509250929050565b600060ff82169050919050565b613b3c81613b26565b82525050565b6000602082019050613b576000830184613b33565b92915050565b600060208284031215613b7357613b7261373a565b5b6000613b8184828501613932565b91505092915050565b600060208284031215613ba057613b9f61373a565b5b6000613bae84828501613968565b91505092915050565b60008060408385031215613bce57613bcd61373a565b5b6000613bdc858286016139fe565b9250506020613bed85828601613968565b9150509250929050565b613c0081613909565b82525050565b6000602082019050613c1b6000830184613bf7565b92915050565b613c2a816137c4565b8114613c3557600080fd5b50565b600081359050613c4781613c21565b92915050565b60008060008060808587031215613c6757613c6661373a565b5b6000613c7587828801613c38565b9450506020613c8687828801613c38565b9350506040613c9787828801613968565b9250506060613ca887828801613968565b91505092959194509250565b60008060408385031215613ccb57613cca61373a565b5b6000613cd985828601613932565b9250506020613cea85828601613932565b9150509250929050565b7f4e487b7100000000000000000000000000000000000000000000000000000000600052602260045260246000fd5b60006002820490506001821680613d3b57607f821691505b60208210811415613d4f57613d4e613cf4565b5b50919050565b7f526563697069656e74206d7573742062652077686974656c69737465642e0000600082015250565b6000613d8b601e83613839565b9150613d9682613d55565b602082019050919050565b60006020820190508181036000830152613dba81613d7e565b9050919050565b7f4e487b7100000000000000000000000000000000000000000000000000000000600052601160045260246000fd5b6000613dfb82613947565b9150613e0683613947565b925082821015613e1957613e18613dc1565b5b828203905092915050565b7f4f6e6c7920726f6c652061646d696e2063616e207265766f6b65000000000000600082015250565b6000613e5a601a83613839565b9150613e6582613e24565b602082019050919050565b60006020820190508181036000830152613e8981613e4d565b9050919050565b7f436f6e7472616374207265717569726573206f6e652061646d696e0000000000600082015250565b6000613ec6601b83613839565b9150613ed182613e90565b602082019050919050565b60006020820190508181036000830152613ef581613eb9565b9050919050565b6000613f0782613947565b9150613f1283613947565b9250827fffffffffffffffffffffffffffffffffffffffffffffffffffffffffffffffff03821115613f4757613f46613dc1565b5b828201905092915050565b7f436f6d6d69746d656e7420636f6f6c646f776e00000000000000000000000000600082015250565b6000613f88601383613839565b9150613f9382613f52565b602082019050919050565b60006020820190508181036000830152613fb781613f7b565b9050919050565b7f5472616e73616374696f6e20616c726561647920717565756564000000000000600082015250565b6000613ff4601a83613839565b9150613fff82613fbe565b602082019050919050565b6000602082019050818103600083015261402381613fe7565b9050919050565b7f4e487b7100000000000000000000000000000000000000000000000000000000600052601260045260246000fd5b600061406482613947565b915061406f83613947565b92508261407f5761407e61402a565b5b828204905092915050565b600061409582613947565b91506140a083613947565b9250817fffffffffffffffffffffffffffffffffffffffffffffffffffffffffffffffff04831182151516156140d9576140d8613dc1565b5b828202905092915050565b60006060820190506140f960008301866139bd565b61410660208301856139bd565b6141136040830184613bf7565b949350505050565b7f496e697469616c697a61626c653a20636f6e747261637420697320616c72656160008201527f647920696e697469616c697a6564000000000000000000000000000000000000602082015250565b6000614177602e83613839565b91506141828261411b565b604082019050919050565b600060208201905081810360008301526141a68161416a565b9050919050565b7f45524332303a2064656372656173656420616c6c6f77616e63652062656c6f7760008201527f207a65726f000000000000000000000000000000000000000000000000000000602082015250565b6000614209602583613839565b9150614214826141ad565b604082019050919050565b60006020820190508181036000830152614238816141fc565b9050919050565b7f436f6f6c646f776e20686173206e6f742079657420656c617073656400000000600082015250565b6000614275601c83613839565b91506142808261423f565b602082019050919050565b600060208201905081810360008301526142a481614268565b9050919050565b60006142b682613947565b91506142c183613947565b9250826142d1576142d061402a565b5b828206905092915050565b7f5661726961626c652072617465206d75737420626520696e20696e6372656d6560008201527f6e7473206f6620302e3125210000000000000000000000000000000000000000602082015250565b6000614338602c83613839565b9150614343826142dc565b604082019050919050565b600060208201905081810360008301526143678161432b565b9050919050565b7f4e6577205261746520546f6f204c617267650000000000000000000000000000600082015250565b60006143a4601283613839565b91506143af8261436e565b602082019050919050565b600060208201905081810360008301526143d381614397565b9050919050565b7f4e6577205261746520546f6f20536d616c6c0000000000000000000000000000600082015250565b6000614410601283613839565b915061441b826143da565b602082019050919050565b6000602082019050818103600083015261443f81614403565b9050919050565b7f45524332303a20617070726f76652066726f6d20746865207a65726f2061646460008201527f7265737300000000000000000000000000000000000000000000000000000000602082015250565b60006144a2602483613839565b91506144ad82614446565b604082019050919050565b600060208201905081810360008301526144d181614495565b9050919050565b7f45524332303a20617070726f766520746f20746865207a65726f20616464726560008201527f7373000000000000000000000000000000000000000000000000000000000000602082015250565b6000614534602283613839565b915061453f826144d8565b604082019050919050565b6000602082019050818103600083015261456381614527565b9050919050565b600081905092915050565b7f416363657373436f6e74726f6c3a206163636f756e7420000000000000000000600082015250565b60006145ab60178361456a565b91506145b682614575565b601782019050919050565b60006145cc8261382e565b6145d6818561456a565b93506145e681856020860161384a565b80840191505092915050565b7f206973206d697373696e6720726f6c6520000000000000000000000000000000600082015250565b600061462860118361456a565b9150614633826145f2565b601182019050919050565b60006146498261459e565b915061465582856145c1565b91506146608261461b565b915061466c82846145c1565b91508190509392505050565b7f416d6f756e742063616e2774206265206d6f726520707265636973652074686160008201527f6e203920646563696d616c20706c616365732100000000000000000000000000602082015250565b60006146d4603383613839565b91506146df82614678565b604082019050919050565b60006020820190508181036000830152614703816146c7565b9050919050565b7f45524332303a206d696e7420746f20746865207a65726f206164647265737300600082015250565b6000614740601f83613839565b915061474b8261470a565b602082019050919050565b6000602082019050818103600083015261476f81614733565b9050919050565b600060608201905061478b6000830186613bf7565b61479860208301856139bd565b6147a56040830184613804565b949350505050565b7f45524332303a20696e73756666696369656e7420616c6c6f77616e6365000000600082015250565b60006147e3601d83613839565b91506147ee826147ad565b602082019050919050565b60006020820190508181036000830152614812816147d6565b9050919050565b7f45524332303a207472616e736665722066726f6d20746865207a65726f20616460008201527f6472657373000000000000000000000000000000000000000000000000000000602082015250565b6000614875602583613839565b915061488082614819565b604082019050919050565b600060208201905081810360008301526148a481614868565b9050919050565b7f45524332303a207472616e7366657220746f20746865207a65726f206164647260008201527f6573730000000000000000000000000000000000000000000000000000000000602082015250565b6000614907602383613839565b9150614912826148ab565b604082019050919050565b60006020820190508181036000830152614936816148fa565b9050919050565b7f45524332303a207472616e7366657220616d6f756e742065786365656473206260008201527f616c616e63650000000000000000000000000000000000000000000000000000602082015250565b6000614999602683613839565b91506149a48261493d565b604082019050919050565b600060208201905081810360008301526149c88161498c565b9050919050565b7f416363657373436f6e74726f6c3a2063616e206f6e6c792072656e6f756e636560008201527f20726f6c657320666f722073656c660000000000000000000000000000000000602082015250565b6000614a2b602f83613839565b9150614a36826149cf565b604082019050919050565b60006020820190508181036000830152614a5a81614a1e565b9050919050565b7f5061757361626c653a206e6f7420706175736564000000000000000000000000600082015250565b6000614a97601483613839565b9150614aa282614a61565b602082019050919050565b60006020820190508181036000830152614ac681614a8a565b9050919050565b7f496e697469616c697a61626c653a20636f6e7472616374206973206e6f74206960008201527f6e697469616c697a696e67000000000000000000000000000000000000000000602082015250565b6000614b29602b83613839565b9150614b3482614acd565b604082019050919050565b60006020820190508181036000830152614b5881614b1c565b9050919050565b7f5061757361626c653a2070617573656400000000000000000000000000000000600082015250565b6000614b95601083613839565b9150614ba082614b5f565b602082019050919050565b60006020820190508181036000830152614bc481614b88565b9050919050565b7f45524332303a206275726e2066726f6d20746865207a65726f2061646472657360008201527f7300000000000000000000000000000000000000000000000000000000000000602082015250565b6000614c27602183613839565b9150614c3282614bcb565b604082019050919050565b60006020820190508181036000830152614c5681614c1a565b9050919050565b7f45524332303a206275726e20616d6f756e7420657863656564732062616c616e60008201527f6365000000000000000000000000000000000000000000000000000000000000602082015250565b6000614cb9602283613839565b9150614cc482614c5d565b604082019050919050565b60006020820190508181036000830152614ce881614cac565b9050919050565b7f4e487b7100000000000000000000000000000000000000000000000000000000600052604160045260246000fd5b7f4e487b7100000000000000000000000000000000000000000000000000000000600052603260045260246000fd5b6000614d5882613947565b91506000821415614d6c57614d6b613dc1565b5b600182039050919050565b7f537472696e67733a20686578206c656e67746820696e73756666696369656e74600082015250565b6000614dad602083613839565b9150614db882614d77565b602082019050919050565b60006020820190508181036000830152614ddc81614da0565b9050919050565b7f53656e6465722069732063757272656e746c792066726f7a656e2e0000000000600082015250565b6000614e19601b83613839565b9150614e2482614de3565b602082019050919050565b60006020820190508181036000830152614e4881614e0c565b9050919050565b7f526563697069656e742069732063757272656e746c792066726f7a656e2e0000600082015250565b6000614e85601e83613839565b9150614e9082614e4f565b602082019050919050565b60006020820190508181036000830152614eb481614e78565b9050919050565b7f4e487b7100000000000000000000000000000000000000000000000000000000600052603160045260246000fdfea2646970667358221220a2fd29e9f763f0d6eb26d9cc56db6b73fc2b7f001b63615ff6be5c6ae37550f564736f6c634300080b0033",
  "linkReferences": {},
  "deployedLinkReferences": {}
}