{
  "_format": "hh-sol-artifact-1",
  "contractName": "METLV3",
  "sourceName": "contracts/METLV3.sol",
  "abi": [
    {
      "anonymous": false,
      "inputs": [
        {
          "indexed": true,
          "internalType": "address",
          "name": "owner",
          "type": "address"
        },
        {
          "indexed": true,
          "internalType": "address",
          "name": "spender",
          "type": "address"
        },
        {
          "indexed": false,
          "internalType": "uint256",
          "name": "value",
          "type": "uint256"
        }
      ],
      "name": "Approval",
      "type": "event"
    },
    {
      "anonymous": false,
      "inputs": [
        {
          "indexed": true,
          "internalType": "address",
          "name": "feeCollector",
          "type": "address"
        },
        {
          "indexed": true,
          "internalType": "uint256",
          "name": "fee",
          "type": "uint256"
        },
        {
          "indexed": true,
          "internalType": "bytes32",
          "name": "actionId",
          "type": "bytes32"
        }
      ],
      "name": "BurnFee",
      "type": "event"
    },
    {
      "anonymous": false,
      "inputs": [
        {
          "indexed": true,
          "internalType": "address",
          "name": "feeCollector",
          "type": "address"
        },
        {
          "indexed": true,
          "internalType": "uint256",
          "name": "fee",
          "type": "uint256"
        },
        {
          "indexed": true,
          "internalType": "bytes32",
          "name": "transferId",
          "type": "bytes32"
        }
      ],
      "name": "MintFee",
      "type": "event"
    },
    {
      "anonymous": false,
      "inputs": [
        {
          "indexed": false,
          "internalType": "address",
          "name": "account",
          "type": "address"
        }
      ],
      "name": "Paused",
      "type": "event"
    },
    {
      "anonymous": false,
      "inputs": [
        {
          "indexed": true,
          "internalType": "address",
          "name": "recipient",
          "type": "address"
        },
        {
          "indexed": true,
          "internalType": "uint256",
          "name": "amount",
          "type": "uint256"
        },
        {
          "indexed": true,
          "internalType": "bytes32",
          "name": "actionId",
          "type": "bytes32"
        }
      ],
      "name": "ReceivedBurn",
      "type": "event"
    },
    {
      "anonymous": false,
      "inputs": [
        {
          "indexed": true,
          "internalType": "address",
          "name": "recipient",
          "type": "address"
        },
        {
          "indexed": true,
          "internalType": "uint256",
          "name": "amount",
          "type": "uint256"
        },
        {
          "indexed": true,
          "internalType": "bytes32",
          "name": "transferId",
          "type": "bytes32"
        }
      ],
      "name": "ReceivedMint",
      "type": "event"
    },
    {
      "anonymous": false,
      "inputs": [
        {
          "indexed": true,
          "internalType": "bytes32",
          "name": "role",
          "type": "bytes32"
        },
        {
          "indexed": true,
          "internalType": "bytes32",
          "name": "previousAdminRole",
          "type": "bytes32"
        },
        {
          "indexed": true,
          "internalType": "bytes32",
          "name": "newAdminRole",
          "type": "bytes32"
        }
      ],
      "name": "RoleAdminChanged",
      "type": "event"
    },
    {
      "anonymous": false,
      "inputs": [
        {
          "indexed": true,
          "internalType": "bytes32",
          "name": "role",
          "type": "bytes32"
        },
        {
          "indexed": true,
          "internalType": "address",
          "name": "account",
          "type": "address"
        },
        {
          "indexed": true,
          "internalType": "address",
          "name": "sender",
          "type": "address"
        }
      ],
      "name": "RoleGranted",
      "type": "event"
    },
    {
      "anonymous": false,
      "inputs": [
        {
          "indexed": true,
          "internalType": "bytes32",
          "name": "role",
          "type": "bytes32"
        },
        {
          "indexed": true,
          "internalType": "address",
          "name": "account",
          "type": "address"
        },
        {
          "indexed": true,
          "internalType": "address",
          "name": "sender",
          "type": "address"
        }
      ],
      "name": "RoleRevoked",
      "type": "event"
    },
    {
      "anonymous": false,
      "inputs": [
        {
          "indexed": true,
          "internalType": "address",
          "name": "from",
          "type": "address"
        },
        {
          "indexed": true,
          "internalType": "address",
          "name": "to",
          "type": "address"
        },
        {
          "indexed": false,
          "internalType": "uint256",
          "name": "value",
          "type": "uint256"
        }
      ],
      "name": "Transfer",
      "type": "event"
    },
    {
      "anonymous": false,
      "inputs": [
        {
          "indexed": false,
          "internalType": "address",
          "name": "account",
          "type": "address"
        }
      ],
      "name": "Unpaused",
      "type": "event"
    },
    {
      "inputs": [],
      "name": "BASIS_RATE",
      "outputs": [
        {
          "internalType": "uint256",
          "name": "",
          "type": "uint256"
        }
      ],
      "stateMutability": "view",
      "type": "function"
    },
    {
      "inputs": [],
      "name": "BURNER_ROLE",
      "outputs": [
        {
          "internalType": "bytes32",
          "name": "",
          "type": "bytes32"
        }
      ],
      "stateMutability": "view",
      "type": "function"
    },
    {
      "inputs": [],
      "name": "DEFAULT_ADMIN_ROLE",
      "outputs": [
        {
          "internalType": "bytes32",
          "name": "",
          "type": "bytes32"
        }
      ],
      "stateMutability": "view",
      "type": "function"
    },
    {
      "inputs": [],
      "name": "FEE_CONTROLLER",
      "outputs": [
        {
          "internalType": "bytes32",
          "name": "",
          "type": "bytes32"
        }
      ],
      "stateMutability": "view",
      "type": "function"
    },
    {
      "inputs": [],
      "name": "FREEZER_ROLE",
      "outputs": [
        {
          "internalType": "bytes32",
          "name": "",
          "type": "bytes32"
        }
      ],
      "stateMutability": "view",
      "type": "function"
    },
    {
      "inputs": [],
      "name": "FREE_BURNER",
      "outputs": [
        {
          "internalType": "bytes32",
          "name": "",
          "type": "bytes32"
        }
      ],
      "stateMutability": "view",
      "type": "function"
    },
    {
      "inputs": [],
      "name": "FREE_MINTER",
      "outputs": [
        {
          "internalType": "bytes32",
          "name": "",
          "type": "bytes32"
        }
      ],
      "stateMutability": "view",
      "type": "function"
    },
    {
      "inputs": [],
      "name": "FROZEN_USER",
      "outputs": [
        {
          "internalType": "bytes32",
          "name": "",
          "type": "bytes32"
        }
      ],
      "stateMutability": "view",
      "type": "function"
    },
    {
      "inputs": [],
      "name": "MINTER_ROLE",
      "outputs": [
        {
          "internalType": "bytes32",
          "name": "",
          "type": "bytes32"
        }
      ],
      "stateMutability": "view",
      "type": "function"
    },
    {
      "inputs": [],
      "name": "PAUSER_ROLE",
      "outputs": [
        {
          "internalType": "bytes32",
          "name": "",
          "type": "bytes32"
        }
      ],
      "stateMutability": "view",
      "type": "function"
    },
    {
      "inputs": [],
      "name": "WHITELIST_USER",
      "outputs": [
        {
          "internalType": "bytes32",
          "name": "",
          "type": "bytes32"
        }
      ],
      "stateMutability": "view",
      "type": "function"
    },
    {
      "inputs": [
        {
          "internalType": "address",
          "name": "owner",
          "type": "address"
        },
        {
          "internalType": "address",
          "name": "spender",
          "type": "address"
        }
      ],
      "name": "allowance",
      "outputs": [
        {
          "internalType": "uint256",
          "name": "",
          "type": "uint256"
        }
      ],
      "stateMutability": "view",
      "type": "function"
    },
    {
      "inputs": [
        {
          "internalType": "address",
          "name": "spender",
          "type": "address"
        },
        {
          "internalType": "uint256",
          "name": "amount",
          "type": "uint256"
        }
      ],
      "name": "approve",
      "outputs": [
        {
          "internalType": "bool",
          "name": "",
          "type": "bool"
        }
      ],
      "stateMutability": "nonpayable",
      "type": "function"
    },
    {
      "inputs": [
        {
          "internalType": "address",
          "name": "account",
          "type": "address"
        }
      ],
      "name": "balanceOf",
      "outputs": [
        {
          "internalType": "uint256",
          "name": "",
          "type": "uint256"
        }
      ],
      "stateMutability": "view",
      "type": "function"
    },
    {
      "inputs": [
        {
          "internalType": "address",
          "name": "target",
          "type": "address"
        },
        {
          "internalType": "uint256",
          "name": "amount",
          "type": "uint256"
        },
        {
          "internalType": "bytes32",
          "name": "actionId",
          "type": "bytes32"
        }
      ],
      "name": "bankBurn",
      "outputs": [],
      "stateMutability": "nonpayable",
      "type": "function"
    },
    {
      "inputs": [
        {
          "internalType": "address",
          "name": "recipient",
          "type": "address"
        },
        {
          "internalType": "uint256",
          "name": "amount",
          "type": "uint256"
        },
        {
          "internalType": "bytes32",
          "name": "transferId",
          "type": "bytes32"
        }
      ],
      "name": "bankMint",
      "outputs": [],
      "stateMutability": "nonpayable",
      "type": "function"
    },
    {
      "inputs": [
        {
          "internalType": "uint256",
          "name": "amount",
          "type": "uint256"
        }
      ],
      "name": "burn",
      "outputs": [],
      "stateMutability": "nonpayable",
      "type": "function"
    },
    {
      "inputs": [
        {
          "internalType": "address",
          "name": "account",
          "type": "address"
        },
        {
          "internalType": "uint256",
          "name": "amount",
          "type": "uint256"
        }
      ],
      "name": "burnFrom",
      "outputs": [],
      "stateMutability": "nonpayable",
      "type": "function"
    },
    {
      "inputs": [],
      "name": "currentFeeCollector",
      "outputs": [
        {
          "internalType": "address",
          "name": "",
          "type": "address"
        }
      ],
      "stateMutability": "view",
      "type": "function"
    },
    {
      "inputs": [],
      "name": "decimals",
      "outputs": [
        {
          "internalType": "uint8",
          "name": "",
          "type": "uint8"
        }
      ],
      "stateMutability": "view",
      "type": "function"
    },
    {
      "inputs": [
        {
          "internalType": "address",
          "name": "spender",
          "type": "address"
        },
        {
          "internalType": "uint256",
          "name": "subtractedValue",
          "type": "uint256"
        }
      ],
      "name": "decreaseAllowance",
      "outputs": [
        {
          "internalType": "bool",
          "name": "",
          "type": "bool"
        }
      ],
      "stateMutability": "nonpayable",
      "type": "function"
    },
    {
      "inputs": [
        {
          "internalType": "address",
          "name": "target",
          "type": "address"
        },
        {
          "internalType": "uint256",
          "name": "amount",
          "type": "uint256"
        },
        {
          "internalType": "bytes32",
          "name": "actionId",
          "type": "bytes32"
        }
      ],
      "name": "feeBankBurn",
      "outputs": [],
      "stateMutability": "nonpayable",
      "type": "function"
    },
    {
      "inputs": [
        {
          "internalType": "address",
          "name": "recipient",
          "type": "address"
        },
        {
          "internalType": "uint256",
          "name": "amount",
          "type": "uint256"
        },
        {
          "internalType": "bytes32",
          "name": "transferId",
          "type": "bytes32"
        }
      ],
      "name": "feeBankMint",
      "outputs": [],
      "stateMutability": "nonpayable",
      "type": "function"
    },
    {
      "inputs": [],
      "name": "freeBurning",
      "outputs": [
        {
          "internalType": "bool",
          "name": "",
          "type": "bool"
        }
      ],
      "stateMutability": "view",
      "type": "function"
    },
    {
      "inputs": [],
      "name": "freeMinting",
      "outputs": [
        {
          "internalType": "bool",
          "name": "",
          "type": "bool"
        }
      ],
      "stateMutability": "view",
      "type": "function"
    },
    {
      "inputs": [
        {
          "internalType": "bytes32",
          "name": "role",
          "type": "bytes32"
        }
      ],
      "name": "getRoleAdmin",
      "outputs": [
        {
          "internalType": "bytes32",
          "name": "",
          "type": "bytes32"
        }
      ],
      "stateMutability": "view",
      "type": "function"
    },
    {
      "inputs": [
        {
          "internalType": "bytes32",
          "name": "role",
          "type": "bytes32"
        },
        {
          "internalType": "uint256",
          "name": "index",
          "type": "uint256"
        }
      ],
      "name": "getRoleMember",
      "outputs": [
        {
          "internalType": "address",
          "name": "",
          "type": "address"
        }
      ],
      "stateMutability": "view",
      "type": "function"
    },
    {
      "inputs": [
        {
          "internalType": "bytes32",
          "name": "role",
          "type": "bytes32"
        }
      ],
      "name": "getRoleMemberCount",
      "outputs": [
        {
          "internalType": "uint256",
          "name": "",
          "type": "uint256"
        }
      ],
      "stateMutability": "view",
      "type": "function"
    },
    {
      "inputs": [
        {
          "internalType": "bytes32",
          "name": "role",
          "type": "bytes32"
        },
        {
          "internalType": "address",
          "name": "account",
          "type": "address"
        }
      ],
      "name": "grantRole",
      "outputs": [],
      "stateMutability": "nonpayable",
      "type": "function"
    },
    {
      "inputs": [
        {
          "internalType": "bytes32",
          "name": "role",
          "type": "bytes32"
        },
        {
          "internalType": "address",
          "name": "account",
          "type": "address"
        }
      ],
      "name": "hasRole",
      "outputs": [
        {
          "internalType": "bool",
          "name": "",
          "type": "bool"
        }
      ],
      "stateMutability": "view",
      "type": "function"
    },
    {
      "inputs": [
        {
          "internalType": "address",
          "name": "spender",
          "type": "address"
        },
        {
          "internalType": "uint256",
          "name": "addedValue",
          "type": "uint256"
        }
      ],
      "name": "increaseAllowance",
      "outputs": [
        {
          "internalType": "bool",
          "name": "",
          "type": "bool"
        }
      ],
      "stateMutability": "nonpayable",
      "type": "function"
    },
    {
      "inputs": [],
      "name": "initialize",
      "outputs": [],
      "stateMutability": "nonpayable",
      "type": "function"
    },
    {
      "inputs": [],
      "name": "name",
      "outputs": [
        {
          "internalType": "string",
          "name": "",
          "type": "string"
        }
      ],
      "stateMutability": "view",
      "type": "function"
    },
    {
      "inputs": [],
      "name": "pause",
      "outputs": [],
      "stateMutability": "nonpayable",
      "type": "function"
    },
    {
      "inputs": [],
      "name": "paused",
      "outputs": [
        {
          "internalType": "bool",
          "name": "",
          "type": "bool"
        }
      ],
      "stateMutability": "view",
      "type": "function"
    },
    {
      "inputs": [
        {
          "internalType": "bytes32",
          "name": "role",
          "type": "bytes32"
        },
        {
          "internalType": "address",
          "name": "account",
          "type": "address"
        }
      ],
      "name": "renounceRole",
      "outputs": [],
      "stateMutability": "nonpayable",
      "type": "function"
    },
    {
      "inputs": [
        {
          "internalType": "bytes32",
          "name": "role",
          "type": "bytes32"
        },
        {
          "internalType": "address",
          "name": "account",
          "type": "address"
        }
      ],
      "name": "revokeRole",
      "outputs": [],
      "stateMutability": "nonpayable",
      "type": "function"
    },
    {
      "inputs": [],
      "name": "setBurnFeeStatus",
      "outputs": [],
      "stateMutability": "nonpayable",
      "type": "function"
    },
    {
      "inputs": [
        {
          "internalType": "address",
          "name": "feeCollector",
          "type": "address"
        }
      ],
      "name": "setFeeCollector",
      "outputs": [],
      "stateMutability": "nonpayable",
      "type": "function"
    },
    {
      "inputs": [],
      "name": "setMintFeeStatus",
      "outputs": [],
      "stateMutability": "nonpayable",
      "type": "function"
    },
    {
      "inputs": [
        {
          "internalType": "bytes4",
          "name": "interfaceId",
          "type": "bytes4"
        }
      ],
      "name": "supportsInterface",
      "outputs": [
        {
          "internalType": "bool",
          "name": "",
          "type": "bool"
        }
      ],
      "stateMutability": "view",
      "type": "function"
    },
    {
      "inputs": [],
      "name": "symbol",
      "outputs": [
        {
          "internalType": "string",
          "name": "",
          "type": "string"
        }
      ],
      "stateMutability": "view",
      "type": "function"
    },
    {
      "inputs": [],
      "name": "totalSupply",
      "outputs": [
        {
          "internalType": "uint256",
          "name": "",
          "type": "uint256"
        }
      ],
      "stateMutability": "view",
      "type": "function"
    },
    {
      "inputs": [
        {
          "internalType": "address",
          "name": "to",
          "type": "address"
        },
        {
          "internalType": "uint256",
          "name": "amount",
          "type": "uint256"
        }
      ],
      "name": "transfer",
      "outputs": [
        {
          "internalType": "bool",
          "name": "",
          "type": "bool"
        }
      ],
      "stateMutability": "nonpayable",
      "type": "function"
    },
    {
      "inputs": [
        {
          "internalType": "address",
          "name": "from",
          "type": "address"
        },
        {
          "internalType": "address",
          "name": "to",
          "type": "address"
        },
        {
          "internalType": "uint256",
          "name": "amount",
          "type": "uint256"
        }
      ],
      "name": "transferFrom",
      "outputs": [
        {
          "internalType": "bool",
          "name": "",
          "type": "bool"
        }
      ],
      "stateMutability": "nonpayable",
      "type": "function"
    },
    {
      "inputs": [],
      "name": "unpause",
      "outputs": [],
      "stateMutability": "nonpayable",
      "type": "function"
    },
    {
      "inputs": [
        {
          "internalType": "uint256",
          "name": "newRate",
          "type": "uint256"
        }
      ],
      "name": "updateVariableRate",
      "outputs": [],
      "stateMutability": "nonpayable",
      "type": "function"
    },
    {
      "inputs": [],
      "name": "variableRate",
      "outputs": [
        {
          "internalType": "uint256",
          "name": "",
          "type": "uint256"
        }
      ],
      "stateMutability": "view",
      "type": "function"
    }
  ],
  "bytecode": "0x608060405234801561001057600080fd5b5061495c806100206000396000f3fe608060405234801561001057600080fd5b50600436106102a05760003560e01c80637bd451fb11610167578063a9059cbb116100ce578063d547741f11610087578063d547741f146107e1578063dd62ed3e146107fd578063e63ab1e91461082d578063ec122e481461084b578063f34b307914610867578063fc5c69ba14610885576102a0565b8063a9059cbb1461070d578063a9eebdb11461073d578063afe45f8714610759578063bd254d4c14610777578063ca15c87314610793578063d5391393146107c3576102a0565b806395d89b411161012057806395d89b411461065d578063a217fddf1461067b578063a42dce8014610699578063a457c2d7146106b5578063a5835670146106e5578063a80da81c14610703576102a0565b80637bd451fb146105af5780638129fc1c146105cb5780638456cb59146105d5578063866006a6146105df5780639010d07c146105fd57806391d148541461062d576102a0565b8063313ce5671161020b5780635502f287116101c45780635502f287146104ed578063552698b61461050b5780635807a8f4146105295780635c975abb1461054557806370a082311461056357806379cc679014610593576102a0565b8063313ce5671461043f57806336568abe1461045d57806339509351146104795780633f4ba83a146104a957806342966c68146104b35780634d5a3337146104cf576102a0565b8063248a9ca31161025d578063248a9ca31461038f57806324e0d460146103bf5780632811531f146103dd578063282c51f3146103e75780632f2ff15d146104055780632fe94def14610421576102a0565b806301ffc9a7146102a557806306a85f0f146102d557806306fdde03146102f3578063095ea7b31461031157806318160ddd1461034157806323b872dd1461035f575b600080fd5b6102bf60048036038101906102ba9190613340565b6108a3565b6040516102cc9190613388565b60405180910390f35b6102dd61091d565b6040516102ea91906133bc565b60405180910390f35b6102fb610941565b6040516103089190613470565b60405180910390f35b61032b60048036038101906103269190613526565b6109d3565b6040516103389190613388565b60405180910390f35b6103496109f6565b6040516103569190613575565b60405180910390f35b61037960048036038101906103749190613590565b610a00565b6040516103869190613388565b60405180910390f35b6103a960048036038101906103a4919061360f565b610a2f565b6040516103b691906133bc565b60405180910390f35b6103c7610a4f565b6040516103d49190613575565b60405180910390f35b6103e5610a56565b005b6103ef610a9a565b6040516103fc91906133bc565b60405180910390f35b61041f600480360381019061041a919061363c565b610abe565b005b610429610ae7565b60405161043691906133bc565b60405180910390f35b610447610b0b565b6040516104549190613698565b60405180910390f35b6104776004803603810190610472919061363c565b610b14565b005b610493600480360381019061048e9190613526565b610c0b565b6040516104a09190613388565b60405180910390f35b6104b1610cb5565b005b6104cd60048036038101906104c891906136b3565b610cf2565b005b6104d7610cf7565b6040516104e491906133bc565b60405180910390f35b6104f5610d1b565b60405161050291906133bc565b60405180910390f35b610513610d3f565b60405161052091906133bc565b60405180910390f35b610543600480360381019061053e91906136e0565b610d63565b005b61054d610ef4565b60405161055a9190613388565b60405180910390f35b61057d60048036038101906105789190613733565b610f0b565b60405161058a9190613575565b60405180910390f35b6105ad60048036038101906105a89190613526565b610f54565b005b6105c960048036038101906105c491906136e0565b610f59565b005b6105d3611164565b005b6105dd61136e565b005b6105e76113ab565b6040516105f49190613575565b60405180910390f35b61061760048036038101906106129190613760565b6113b3565b60405161062491906137af565b60405180910390f35b6106476004803603810190610642919061363c565b6113e3565b6040516106549190613388565b60405180910390f35b61066561144e565b6040516106729190613470565b60405180910390f35b6106836114e0565b60405161069091906133bc565b60405180910390f35b6106b360048036038101906106ae9190613733565b6114e7565b005b6106cf60048036038101906106ca9190613526565b61155f565b6040516106dc9190613388565b60405180910390f35b6106ed611649565b6040516106fa9190613388565b60405180910390f35b61070b61165d565b005b61072760048036038101906107229190613526565b6116a1565b6040516107349190613388565b60405180910390f35b610757600480360381019061075291906136e0565b6116c4565b005b6107616117a2565b60405161076e91906137af565b60405180910390f35b610791600480360381019061078c91906136b3565b6117c9565b005b6107ad60048036038101906107a8919061360f565b6118e5565b6040516107ba9190613575565b60405180910390f35b6107cb61190a565b6040516107d891906133bc565b60405180910390f35b6107fb60048036038101906107f6919061363c565b61192e565b005b610817600480360381019061081291906137ca565b611993565b6040516108249190613575565b60405180910390f35b610835611a1a565b60405161084291906133bc565b60405180910390f35b610865600480360381019061086091906136e0565b611a3e565b005b61086f611b85565b60405161087c91906133bc565b60405180910390f35b61088d611ba9565b60405161089a9190613388565b60405180910390f35b60007f5a05180f000000000000000000000000000000000000000000000000000000007bffffffffffffffffffffffffffffffffffffffffffffffffffffffff1916827bffffffffffffffffffffffffffffffffffffffffffffffffffffffff19161480610916575061091582611bbd565b5b9050919050565b7f92de27771f92d6942691d73358b3a4673e4880de8356f8f2cf452be87e02d36381565b60606036805461095090613839565b80601f016020809104026020016040519081016040528092919081815260200182805461097c90613839565b80156109c95780601f1061099e576101008083540402835291602001916109c9565b820191906000526020600020905b8154815290600101906020018083116109ac57829003601f168201915b5050505050905090565b6000806109de611c37565b90506109eb818585611c3f565b600191505092915050565b6000603554905090565b600080610a0b611c37565b9050610a18858285611e0a565b610a23858585611e96565b60019150509392505050565b600060fb6000838152602001908152602001600020600101549050919050565b61015f5481565b6000801b610a6b81610a66611c37565b61211a565b61016060149054906101000a900460ff161561016060146101000a81548160ff02191690831515021790555050565b7f3c11d16cbaffd01df69ce1c404f6340ee057498f5f00246190ea54220576a84881565b610ac782610a2f565b610ad881610ad3611c37565b61211a565b610ae283836121b7565b505050565b7f8a639721758084b2ff869ed05cee658aab46e6bdc69bca1b006bae9f55613c5981565b60006012905090565b7f5edc4fd0544f0b4b53f14f295fb04bbd6fdbc1bea1fd8edf5851b385aee145d5821415610ba657610b667f92de27771f92d6942691d73358b3a4673e4880de8356f8f2cf452be87e02d363336113e3565b610ba5576040517f08c379a0000000000000000000000000000000000000000000000000000000008152600401610b9c906138b7565b60405180910390fd5b5b6000801b821415610bfd576001610bbc836118e5565b11610bfc576040517f08c379a0000000000000000000000000000000000000000000000000000000008152600401610bf390613923565b60405180910390fd5b5b610c0782826121ec565b5050565b600080610c16611c37565b9050610caa818585603460008673ffffffffffffffffffffffffffffffffffffffff1673ffffffffffffffffffffffffffffffffffffffff16815260200190815260200160002060008973ffffffffffffffffffffffffffffffffffffffff1673ffffffffffffffffffffffffffffffffffffffff16815260200190815260200160002054610ca59190613972565b611c3f565b600191505092915050565b7f65d7a28e3265b37a6474929f336521b332c1681b933f6cb9f3376673440d862a610ce781610ce2611c37565b61211a565b610cef61226f565b50565b600080fd5b7f49712e84bee36eb0b8d1a742ae9b8c1dbd913c0ff2d6f29ab9a46fbc58d2899c81565b7f5edc4fd0544f0b4b53f14f295fb04bbd6fdbc1bea1fd8edf5851b385aee145d581565b7fbad16bf5e789a686a5ccdca140698639e6ab3fc325950c67f5e9c6821f6ea87881565b7f3c11d16cbaffd01df69ce1c404f6340ee057498f5f00246190ea54220576a848610d9581610d90611c37565b61211a565b6000633b9aca0084610da791906139f7565b14610de7576040517f08c379a0000000000000000000000000000000000000000000000000000000008152600401610dde90613a9a565b60405180910390fd5b600061015f54633b9aca0085610dfd9190613aba565b610e079190613aeb565b9050610e3661016060009054906101000a900473ffffffffffffffffffffffffffffffffffffffff1682612311565b82848673ffffffffffffffffffffffffffffffffffffffff167f06a5cc13c9f93b7a2af752bb0bda4958deb252b326ded3266f786ca78456002560405160405180910390a4828161016060009054906101000a900473ffffffffffffffffffffffffffffffffffffffff1673ffffffffffffffffffffffffffffffffffffffff167fb90103c5976493d20060202415867ddf1081e70322c45b6f19bfdbe384b14f5160405160405180910390a4610eed8585612472565b5050505050565b6000609760009054906101000a900460ff16905090565b6000603360008373ffffffffffffffffffffffffffffffffffffffff1673ffffffffffffffffffffffffffffffffffffffff168152602001908152602001600020549050919050565b600080fd5b7f9f2df0fed2c77648de5860a4cc508cd0818c85b8b8a1ab4ceeef8d981c8956a6610f8b81610f86611c37565b61211a565b610fb57faee674c6ada01c6d4ee4067d160ffdacc9cc9aba7ca34516f8c9ff75fdc8d723856113e3565b610ff4576040517f08c379a0000000000000000000000000000000000000000000000000000000008152600401610feb90613b91565b60405180910390fd5b6000633b9aca008461100691906139f7565b14611046576040517f08c379a000000000000000000000000000000000000000000000000000000000815260040161103d90613a9a565b60405180910390fd5b600061015f54633b9aca008561105c9190613aba565b6110669190613aeb565b9050600081856110769190613bb1565b905083818773ffffffffffffffffffffffffffffffffffffffff167fb279743e0218314d88b387012a6b7e94ff79b811c536ab5e40d6527ea265ff2c60405160405180910390a4838261016060009054906101000a900473ffffffffffffffffffffffffffffffffffffffff1673ffffffffffffffffffffffffffffffffffffffff167f1f8174bdbec9563f21f6aa0ab97118362e35fd5b104b486a0fa2d754cad41e5160405160405180910390a461115261016060009054906101000a900473ffffffffffffffffffffffffffffffffffffffff1683612311565b61115c8682612311565b505050505050565b600060019054906101000a900460ff1661118c5760008054906101000a900460ff1615611195565b61119461264b565b5b6111d4576040517f08c379a00000000000000000000000000000000000000000000000000000000081526004016111cb90613c57565b60405180910390fd5b60008060019054906101000a900460ff161590508015611224576001600060016101000a81548160ff02191690831515021790555060016000806101000a81548160ff0219169083151502179055505b6112986040518060400160405280600b81526020017f55534420526563656970740000000000000000000000000000000000000000008152506040518060400160405280600481526020017f555344520000000000000000000000000000000000000000000000000000000081525061265c565b6112a06126b9565b6112a861270a565b6112b0612763565b6112bd6000801b336127b4565b6113077f5edc4fd0544f0b4b53f14f295fb04bbd6fdbc1bea1fd8edf5851b385aee145d57f92de27771f92d6942691d73358b3a4673e4880de8356f8f2cf452be87e02d3636127c2565b62e4e1c061015f81905550600161016060146101000a81548160ff021916908315150217905550600161016060156101000a81548160ff021916908315150217905550801561136b5760008060016101000a81548160ff0219169083151502179055505b50565b7f65d7a28e3265b37a6474929f336521b332c1681b933f6cb9f3376673440d862a6113a08161139b611c37565b61211a565b6113a861281e565b50565b633b9aca0081565b60006113db8261012d60008681526020019081526020016000206128c190919063ffffffff16565b905092915050565b600060fb600084815260200190815260200160002060000160008373ffffffffffffffffffffffffffffffffffffffff1673ffffffffffffffffffffffffffffffffffffffff16815260200190815260200160002060009054906101000a900460ff16905092915050565b60606037805461145d90613839565b80601f016020809104026020016040519081016040528092919081815260200182805461148990613839565b80156114d65780601f106114ab576101008083540402835291602001916114d6565b820191906000526020600020905b8154815290600101906020018083116114b957829003601f168201915b5050505050905090565b6000801b81565b7f8a639721758084b2ff869ed05cee658aab46e6bdc69bca1b006bae9f55613c5961151981611514611c37565b61211a565b8161016060006101000a81548173ffffffffffffffffffffffffffffffffffffffff021916908373ffffffffffffffffffffffffffffffffffffffff1602179055505050565b60008061156a611c37565b90506000603460008373ffffffffffffffffffffffffffffffffffffffff1673ffffffffffffffffffffffffffffffffffffffff16815260200190815260200160002060008673ffffffffffffffffffffffffffffffffffffffff1673ffffffffffffffffffffffffffffffffffffffff16815260200190815260200160002054905083811015611630576040517f08c379a000000000000000000000000000000000000000000000000000000000815260040161162790613ce9565b60405180910390fd5b61163d8286868403611c3f565b60019250505092915050565b61016060149054906101000a900460ff1681565b6000801b6116728161166d611c37565b61211a565b61016060159054906101000a900460ff161561016060156101000a81548160ff02191690831515021790555050565b6000806116ac611c37565b90506116b9818585611e96565b600191505092915050565b7f49712e84bee36eb0b8d1a742ae9b8c1dbd913c0ff2d6f29ab9a46fbc58d2899c6116f6816116f1611c37565b61211a565b6001151561016060159054906101000a900460ff1615151461174d576040517f08c379a000000000000000000000000000000000000000000000000000000000815260040161174490613d55565b60405180910390fd5b81838573ffffffffffffffffffffffffffffffffffffffff167f06a5cc13c9f93b7a2af752bb0bda4958deb252b326ded3266f786ca78456002560405160405180910390a461179c8484612472565b50505050565b61016060009054906101000a900473ffffffffffffffffffffffffffffffffffffffff1681565b7f8a639721758084b2ff869ed05cee658aab46e6bdc69bca1b006bae9f55613c596117fb816117f6611c37565b61211a565b6000620f42408361180c91906139f7565b1461184c576040517f08c379a000000000000000000000000000000000000000000000000000000000815260040161184390613de7565b60405180910390fd5b6305f5e100821115611893576040517f08c379a000000000000000000000000000000000000000000000000000000000815260040161188a90613e53565b60405180910390fd5b620f42408210156118d9576040517f08c379a00000000000000000000000000000000000000000000000000000000081526004016118d090613ebf565b60405180910390fd5b8161015f819055505050565b600061190361012d60008481526020019081526020016000206128db565b9050919050565b7f9f2df0fed2c77648de5860a4cc508cd0818c85b8b8a1ab4ceeef8d981c8956a681565b6000801b821415611985576001611944836118e5565b11611984576040517f08c379a000000000000000000000000000000000000000000000000000000000815260040161197b90613923565b60405180910390fd5b5b61198f82826128f0565b5050565b6000603460008473ffffffffffffffffffffffffffffffffffffffff1673ffffffffffffffffffffffffffffffffffffffff16815260200190815260200160002060008373ffffffffffffffffffffffffffffffffffffffff1673ffffffffffffffffffffffffffffffffffffffff16815260200190815260200160002054905092915050565b7f65d7a28e3265b37a6474929f336521b332c1681b933f6cb9f3376673440d862a81565b7fbad16bf5e789a686a5ccdca140698639e6ab3fc325950c67f5e9c6821f6ea878611a7081611a6b611c37565b61211a565b611a9a7faee674c6ada01c6d4ee4067d160ffdacc9cc9aba7ca34516f8c9ff75fdc8d723856113e3565b611ad9576040517f08c379a0000000000000000000000000000000000000000000000000000000008152600401611ad090613b91565b60405180910390fd5b6001151561016060149054906101000a900460ff16151514611b30576040517f08c379a0000000000000000000000000000000000000000000000000000000008152600401611b2790613f2b565b60405180910390fd5b81838573ffffffffffffffffffffffffffffffffffffffff167fb279743e0218314d88b387012a6b7e94ff79b811c536ab5e40d6527ea265ff2c60405160405180910390a4611b7f8484612311565b50505050565b7faee674c6ada01c6d4ee4067d160ffdacc9cc9aba7ca34516f8c9ff75fdc8d72381565b61016060159054906101000a900460ff1681565b60007f7965db0b000000000000000000000000000000000000000000000000000000007bffffffffffffffffffffffffffffffffffffffffffffffffffffffff1916827bffffffffffffffffffffffffffffffffffffffffffffffffffffffff19161480611c305750611c2f82612919565b5b9050919050565b600033905090565b600073ffffffffffffffffffffffffffffffffffffffff168373ffffffffffffffffffffffffffffffffffffffff161415611caf576040517f08c379a0000000000000000000000000000000000000000000000000000000008152600401611ca690613fbd565b60405180910390fd5b600073ffffffffffffffffffffffffffffffffffffffff168273ffffffffffffffffffffffffffffffffffffffff161415611d1f576040517f08c379a0000000000000000000000000000000000000000000000000000000008152600401611d169061404f565b60405180910390fd5b80603460008573ffffffffffffffffffffffffffffffffffffffff1673ffffffffffffffffffffffffffffffffffffffff16815260200190815260200160002060008473ffffffffffffffffffffffffffffffffffffffff1673ffffffffffffffffffffffffffffffffffffffff168152602001908152602001600020819055508173ffffffffffffffffffffffffffffffffffffffff168373ffffffffffffffffffffffffffffffffffffffff167f8c5be1e5ebec7d5bd14f71427d1e84f3dd0314c0f7b2291e5b200ac8c7c3b92583604051611dfd9190613575565b60405180910390a3505050565b6000611e168484611993565b90507fffffffffffffffffffffffffffffffffffffffffffffffffffffffffffffffff8114611e905781811015611e82576040517f08c379a0000000000000000000000000000000000000000000000000000000008152600401611e79906140bb565b60405180910390fd5b611e8f8484848403611c3f565b5b50505050565b600073ffffffffffffffffffffffffffffffffffffffff168373ffffffffffffffffffffffffffffffffffffffff161415611f06576040517f08c379a0000000000000000000000000000000000000000000000000000000008152600401611efd9061414d565b60405180910390fd5b600073ffffffffffffffffffffffffffffffffffffffff168273ffffffffffffffffffffffffffffffffffffffff161415611f76576040517f08c379a0000000000000000000000000000000000000000000000000000000008152600401611f6d906141df565b60405180910390fd5b611f81838383612983565b6000603360008573ffffffffffffffffffffffffffffffffffffffff1673ffffffffffffffffffffffffffffffffffffffff16815260200190815260200160002054905081811015612008576040517f08c379a0000000000000000000000000000000000000000000000000000000008152600401611fff90614271565b60405180910390fd5b818103603360008673ffffffffffffffffffffffffffffffffffffffff1673ffffffffffffffffffffffffffffffffffffffff1681526020019081526020016000208190555081603360008573ffffffffffffffffffffffffffffffffffffffff1673ffffffffffffffffffffffffffffffffffffffff168152602001908152602001600020600082825461209d9190613972565b925050819055508273ffffffffffffffffffffffffffffffffffffffff168473ffffffffffffffffffffffffffffffffffffffff167fddf252ad1be2c89b69c2b068fc378daa952ba7f163c4a11628f55a4df523b3ef846040516121019190613575565b60405180910390a3612114848484612aaf565b50505050565b61212482826113e3565b6121b3576121498173ffffffffffffffffffffffffffffffffffffffff166014612ab4565b6121578360001c6020612ab4565b604051602001612168929190614365565b6040516020818303038152906040526040517f08c379a00000000000000000000000000000000000000000000000000000000081526004016121aa9190613470565b60405180910390fd5b5050565b6121c18282612cf0565b6121e78161012d6000858152602001908152602001600020612dd190919063ffffffff16565b505050565b6121f4611c37565b73ffffffffffffffffffffffffffffffffffffffff168173ffffffffffffffffffffffffffffffffffffffff1614612261576040517f08c379a000000000000000000000000000000000000000000000000000000000815260040161225890614411565b60405180910390fd5b61226b8282612e01565b5050565b612277610ef4565b6122b6576040517f08c379a00000000000000000000000000000000000000000000000000000000081526004016122ad9061447d565b60405180910390fd5b6000609760006101000a81548160ff0219169083151502179055507f5db9ee0a495bf2e6ff9c91a7834c1ba4fdd244a5e8aa4e537bd38aeae4b073aa6122fa611c37565b60405161230791906137af565b60405180910390a1565b600073ffffffffffffffffffffffffffffffffffffffff168273ffffffffffffffffffffffffffffffffffffffff161415612381576040517f08c379a0000000000000000000000000000000000000000000000000000000008152600401612378906144e9565b60405180910390fd5b61238d60008383612983565b806035600082825461239f9190613972565b9250508190555080603360008473ffffffffffffffffffffffffffffffffffffffff1673ffffffffffffffffffffffffffffffffffffffff16815260200190815260200160002060008282546123f59190613972565b925050819055508173ffffffffffffffffffffffffffffffffffffffff16600073ffffffffffffffffffffffffffffffffffffffff167fddf252ad1be2c89b69c2b068fc378daa952ba7f163c4a11628f55a4df523b3ef8360405161245a9190613575565b60405180910390a361246e60008383612aaf565b5050565b600073ffffffffffffffffffffffffffffffffffffffff168273ffffffffffffffffffffffffffffffffffffffff1614156124e2576040517f08c379a00000000000000000000000000000000000000000000000000000000081526004016124d99061457b565b60405180910390fd5b6124ee82600083612983565b6000603360008473ffffffffffffffffffffffffffffffffffffffff1673ffffffffffffffffffffffffffffffffffffffff16815260200190815260200160002054905081811015612575576040517f08c379a000000000000000000000000000000000000000000000000000000000815260040161256c9061460d565b60405180910390fd5b818103603360008573ffffffffffffffffffffffffffffffffffffffff1673ffffffffffffffffffffffffffffffffffffffff1681526020019081526020016000208190555081603560008282546125cd9190613bb1565b92505081905550600073ffffffffffffffffffffffffffffffffffffffff168373ffffffffffffffffffffffffffffffffffffffff167fddf252ad1be2c89b69c2b068fc378daa952ba7f163c4a11628f55a4df523b3ef846040516126329190613575565b60405180910390a361264683600084612aaf565b505050565b600061265630612e36565b15905090565b600060019054906101000a900460ff166126ab576040517f08c379a00000000000000000000000000000000000000000000000000000000081526004016126a29061469f565b60405180910390fd5b6126b58282612e59565b5050565b600060019054906101000a900460ff16612708576040517f08c379a00000000000000000000000000000000000000000000000000000000081526004016126ff9061469f565b60405180910390fd5b565b600060019054906101000a900460ff16612759576040517f08c379a00000000000000000000000000000000000000000000000000000000081526004016127509061469f565b60405180910390fd5b612761612eda565b565b600060019054906101000a900460ff166127b2576040517f08c379a00000000000000000000000000000000000000000000000000000000081526004016127a99061469f565b60405180910390fd5b565b6127be82826121b7565b5050565b60006127cd83610a2f565b90508160fb6000858152602001908152602001600020600101819055508181847fbd79b86ffe0ab8e8776151514217cd7cacd52c909f66475c3af44e129f0b00ff60405160405180910390a4505050565b612826610ef4565b15612866576040517f08c379a000000000000000000000000000000000000000000000000000000000815260040161285d9061470b565b60405180910390fd5b6001609760006101000a81548160ff0219169083151502179055507f62e78cea01bee320cd4e420270b5ea74000d11b0c9f74754ebdbfc544b05a2586128aa611c37565b6040516128b791906137af565b60405180910390a1565b60006128d08360000183612f46565b60001c905092915050565b60006128e982600001612f71565b9050919050565b6128f982610a2f565b61290a81612905611c37565b61211a565b6129148383612e01565b505050565b60007f01ffc9a7000000000000000000000000000000000000000000000000000000007bffffffffffffffffffffffffffffffffffffffffffffffffffffffff1916827bffffffffffffffffffffffffffffffffffffffffffffffffffffffff1916149050919050565b61298b610ef4565b156129cb576040517f08c379a00000000000000000000000000000000000000000000000000000000081526004016129c29061470b565b60405180910390fd5b6129f57f5edc4fd0544f0b4b53f14f295fb04bbd6fdbc1bea1fd8edf5851b385aee145d5846113e3565b15612a35576040517f08c379a0000000000000000000000000000000000000000000000000000000008152600401612a2c90614777565b60405180910390fd5b612a5f7f5edc4fd0544f0b4b53f14f295fb04bbd6fdbc1bea1fd8edf5851b385aee145d5836113e3565b15612a9f576040517f08c379a0000000000000000000000000000000000000000000000000000000008152600401612a96906147e3565b60405180910390fd5b612aaa838383612f82565b505050565b505050565b606060006002836002612ac79190613aeb565b612ad19190613972565b67ffffffffffffffff811115612aea57612ae9614803565b5b6040519080825280601f01601f191660200182016040528015612b1c5781602001600182028036833780820191505090505b5090507f300000000000000000000000000000000000000000000000000000000000000081600081518110612b5457612b53614832565b5b60200101907effffffffffffffffffffffffffffffffffffffffffffffffffffffffffffff1916908160001a9053507f780000000000000000000000000000000000000000000000000000000000000081600181518110612bb857612bb7614832565b5b60200101907effffffffffffffffffffffffffffffffffffffffffffffffffffffffffffff1916908160001a90535060006001846002612bf89190613aeb565b612c029190613972565b90505b6001811115612ca2577f3031323334353637383961626364656600000000000000000000000000000000600f861660108110612c4457612c43614832565b5b1a60f81b828281518110612c5b57612c5a614832565b5b60200101907effffffffffffffffffffffffffffffffffffffffffffffffffffffffffffff1916908160001a905350600485901c945080612c9b90614861565b9050612c05565b5060008414612ce6576040517f08c379a0000000000000000000000000000000000000000000000000000000008152600401612cdd906148d7565b60405180910390fd5b8091505092915050565b612cfa82826113e3565b612dcd57600160fb600084815260200190815260200160002060000160008373ffffffffffffffffffffffffffffffffffffffff1673ffffffffffffffffffffffffffffffffffffffff16815260200190815260200160002060006101000a81548160ff021916908315150217905550612d72611c37565b73ffffffffffffffffffffffffffffffffffffffff168173ffffffffffffffffffffffffffffffffffffffff16837f2f8788117e7eff1d82e926ec794901d17c78024a50270940304540a733656f0d60405160405180910390a45b5050565b6000612df9836000018373ffffffffffffffffffffffffffffffffffffffff1660001b612f87565b905092915050565b612e0b8282612ff7565b612e318161012d60008581526020019081526020016000206130d990919063ffffffff16565b505050565b6000808273ffffffffffffffffffffffffffffffffffffffff163b119050919050565b600060019054906101000a900460ff16612ea8576040517f08c379a0000000000000000000000000000000000000000000000000000000008152600401612e9f9061469f565b60405180910390fd5b8160369080519060200190612ebe929190613240565b508060379080519060200190612ed5929190613240565b505050565b600060019054906101000a900460ff16612f29576040517f08c379a0000000000000000000000000000000000000000000000000000000008152600401612f209061469f565b60405180910390fd5b6000609760006101000a81548160ff021916908315150217905550565b6000826000018281548110612f5e57612f5d614832565b5b9060005260206000200154905092915050565b600081600001805490509050919050565b505050565b6000612f938383613109565b612fec578260000182908060018154018082558091505060019003906000526020600020016000909190919091505582600001805490508360010160008481526020019081526020016000208190555060019050612ff1565b600090505b92915050565b61300182826113e3565b156130d557600060fb600084815260200190815260200160002060000160008373ffffffffffffffffffffffffffffffffffffffff1673ffffffffffffffffffffffffffffffffffffffff16815260200190815260200160002060006101000a81548160ff02191690831515021790555061307a611c37565b73ffffffffffffffffffffffffffffffffffffffff168173ffffffffffffffffffffffffffffffffffffffff16837ff6391f5c32d9c69d2a47ea670b442974b53935d1edc7fd64eb21e047a839171b60405160405180910390a45b5050565b6000613101836000018373ffffffffffffffffffffffffffffffffffffffff1660001b61312c565b905092915050565b600080836001016000848152602001908152602001600020541415905092915050565b6000808360010160008481526020019081526020016000205490506000811461323457600060018261315e9190613bb1565b90506000600186600001805490506131769190613bb1565b90508181146131e557600086600001828154811061319757613196614832565b5b90600052602060002001549050808760000184815481106131bb576131ba614832565b5b90600052602060002001819055508387600101600083815260200190815260200160002081905550505b856000018054806131f9576131f86148f7565b5b60019003818190600052602060002001600090559055856001016000868152602001908152602001600020600090556001935050505061323a565b60009150505b92915050565b82805461324c90613839565b90600052602060002090601f01602090048101928261326e57600085556132b5565b82601f1061328757805160ff19168380011785556132b5565b828001600101855582156132b5579182015b828111156132b4578251825591602001919060010190613299565b5b5090506132c291906132c6565b5090565b5b808211156132df5760008160009055506001016132c7565b5090565b600080fd5b60007fffffffff0000000000000000000000000000000000000000000000000000000082169050919050565b61331d816132e8565b811461332857600080fd5b50565b60008135905061333a81613314565b92915050565b600060208284031215613356576133556132e3565b5b60006133648482850161332b565b91505092915050565b60008115159050919050565b6133828161336d565b82525050565b600060208201905061339d6000830184613379565b92915050565b6000819050919050565b6133b6816133a3565b82525050565b60006020820190506133d160008301846133ad565b92915050565b600081519050919050565b600082825260208201905092915050565b60005b838110156134115780820151818401526020810190506133f6565b83811115613420576000848401525b50505050565b6000601f19601f8301169050919050565b6000613442826133d7565b61344c81856133e2565b935061345c8185602086016133f3565b61346581613426565b840191505092915050565b6000602082019050818103600083015261348a8184613437565b905092915050565b600073ffffffffffffffffffffffffffffffffffffffff82169050919050565b60006134bd82613492565b9050919050565b6134cd816134b2565b81146134d857600080fd5b50565b6000813590506134ea816134c4565b92915050565b6000819050919050565b613503816134f0565b811461350e57600080fd5b50565b600081359050613520816134fa565b92915050565b6000806040838503121561353d5761353c6132e3565b5b600061354b858286016134db565b925050602061355c85828601613511565b9150509250929050565b61356f816134f0565b82525050565b600060208201905061358a6000830184613566565b92915050565b6000806000606084860312156135a9576135a86132e3565b5b60006135b7868287016134db565b93505060206135c8868287016134db565b92505060406135d986828701613511565b9150509250925092565b6135ec816133a3565b81146135f757600080fd5b50565b600081359050613609816135e3565b92915050565b600060208284031215613625576136246132e3565b5b6000613633848285016135fa565b91505092915050565b60008060408385031215613653576136526132e3565b5b6000613661858286016135fa565b9250506020613672858286016134db565b9150509250929050565b600060ff82169050919050565b6136928161367c565b82525050565b60006020820190506136ad6000830184613689565b92915050565b6000602082840312156136c9576136c86132e3565b5b60006136d784828501613511565b91505092915050565b6000806000606084860312156136f9576136f86132e3565b5b6000613707868287016134db565b935050602061371886828701613511565b9250506040613729868287016135fa565b9150509250925092565b600060208284031215613749576137486132e3565b5b6000613757848285016134db565b91505092915050565b60008060408385031215613777576137766132e3565b5b6000613785858286016135fa565b925050602061379685828601613511565b9150509250929050565b6137a9816134b2565b82525050565b60006020820190506137c460008301846137a0565b92915050565b600080604083850312156137e1576137e06132e3565b5b60006137ef858286016134db565b9250506020613800858286016134db565b9150509250929050565b7f4e487b7100000000000000000000000000000000000000000000000000000000600052602260045260246000fd5b6000600282049050600182168061385157607f821691505b602082108114156138655761386461380a565b5b50919050565b7f4f6e6c7920726f6c652061646d696e2063616e207265766f6b65000000000000600082015250565b60006138a1601a836133e2565b91506138ac8261386b565b602082019050919050565b600060208201905081810360008301526138d081613894565b9050919050565b7f436f6e7472616374207265717569726573206f6e652061646d696e0000000000600082015250565b600061390d601b836133e2565b9150613918826138d7565b602082019050919050565b6000602082019050818103600083015261393c81613900565b9050919050565b7f4e487b7100000000000000000000000000000000000000000000000000000000600052601160045260246000fd5b600061397d826134f0565b9150613988836134f0565b9250827fffffffffffffffffffffffffffffffffffffffffffffffffffffffffffffffff038211156139bd576139bc613943565b5b828201905092915050565b7f4e487b7100000000000000000000000000000000000000000000000000000000600052601260045260246000fd5b6000613a02826134f0565b9150613a0d836134f0565b925082613a1d57613a1c6139c8565b5b828206905092915050565b7f416d6f756e742063616e2774206265206d6f726520707265636973652074686160008201527f6e203920646563696d616c20706c616365732100000000000000000000000000602082015250565b6000613a846033836133e2565b9150613a8f82613a28565b604082019050919050565b60006020820190508181036000830152613ab381613a77565b9050919050565b6000613ac5826134f0565b9150613ad0836134f0565b925082613ae057613adf6139c8565b5b828204905092915050565b6000613af6826134f0565b9150613b01836134f0565b9250817fffffffffffffffffffffffffffffffffffffffffffffffffffffffffffffffff0483118215151615613b3a57613b39613943565b5b828202905092915050565b7f526563697069656e74206d7573742062652077686974656c69737465642e0000600082015250565b6000613b7b601e836133e2565b9150613b8682613b45565b602082019050919050565b60006020820190508181036000830152613baa81613b6e565b9050919050565b6000613bbc826134f0565b9150613bc7836134f0565b925082821015613bda57613bd9613943565b5b828203905092915050565b7f496e697469616c697a61626c653a20636f6e747261637420697320616c72656160008201527f647920696e697469616c697a6564000000000000000000000000000000000000602082015250565b6000613c41602e836133e2565b9150613c4c82613be5565b604082019050919050565b60006020820190508181036000830152613c7081613c34565b9050919050565b7f45524332303a2064656372656173656420616c6c6f77616e63652062656c6f7760008201527f207a65726f000000000000000000000000000000000000000000000000000000602082015250565b6000613cd36025836133e2565b9150613cde82613c77565b604082019050919050565b60006020820190508181036000830152613d0281613cc6565b9050919050565b7f46726565206275726e696e672069732070726f68696269746564210000000000600082015250565b6000613d3f601b836133e2565b9150613d4a82613d09565b602082019050919050565b60006020820190508181036000830152613d6e81613d32565b9050919050565b7f5661726961626c652072617465206d75737420626520696e20696e6372656d6560008201527f6e7473206f6620302e3125210000000000000000000000000000000000000000602082015250565b6000613dd1602c836133e2565b9150613ddc82613d75565b604082019050919050565b60006020820190508181036000830152613e0081613dc4565b9050919050565b7f4e6577205261746520546f6f204c617267650000000000000000000000000000600082015250565b6000613e3d6012836133e2565b9150613e4882613e07565b602082019050919050565b60006020820190508181036000830152613e6c81613e30565b9050919050565b7f4e6577205261746520546f6f20536d616c6c0000000000000000000000000000600082015250565b6000613ea96012836133e2565b9150613eb482613e73565b602082019050919050565b60006020820190508181036000830152613ed881613e9c565b9050919050565b7f46726565206d696e74696e672069732070726f68696269746564210000000000600082015250565b6000613f15601b836133e2565b9150613f2082613edf565b602082019050919050565b60006020820190508181036000830152613f4481613f08565b9050919050565b7f45524332303a20617070726f76652066726f6d20746865207a65726f2061646460008201527f7265737300000000000000000000000000000000000000000000000000000000602082015250565b6000613fa76024836133e2565b9150613fb282613f4b565b604082019050919050565b60006020820190508181036000830152613fd681613f9a565b9050919050565b7f45524332303a20617070726f766520746f20746865207a65726f20616464726560008201527f7373000000000000000000000000000000000000000000000000000000000000602082015250565b60006140396022836133e2565b915061404482613fdd565b604082019050919050565b600060208201905081810360008301526140688161402c565b9050919050565b7f45524332303a20696e73756666696369656e7420616c6c6f77616e6365000000600082015250565b60006140a5601d836133e2565b91506140b08261406f565b602082019050919050565b600060208201905081810360008301526140d481614098565b9050919050565b7f45524332303a207472616e736665722066726f6d20746865207a65726f20616460008201527f6472657373000000000000000000000000000000000000000000000000000000602082015250565b60006141376025836133e2565b9150614142826140db565b604082019050919050565b600060208201905081810360008301526141668161412a565b9050919050565b7f45524332303a207472616e7366657220746f20746865207a65726f206164647260008201527f6573730000000000000000000000000000000000000000000000000000000000602082015250565b60006141c96023836133e2565b91506141d48261416d565b604082019050919050565b600060208201905081810360008301526141f8816141bc565b9050919050565b7f45524332303a207472616e7366657220616d6f756e742065786365656473206260008201527f616c616e63650000000000000000000000000000000000000000000000000000602082015250565b600061425b6026836133e2565b9150614266826141ff565b604082019050919050565b6000602082019050818103600083015261428a8161424e565b9050919050565b600081905092915050565b7f416363657373436f6e74726f6c3a206163636f756e7420000000000000000000600082015250565b60006142d2601783614291565b91506142dd8261429c565b601782019050919050565b60006142f3826133d7565b6142fd8185614291565b935061430d8185602086016133f3565b80840191505092915050565b7f206973206d697373696e6720726f6c6520000000000000000000000000000000600082015250565b600061434f601183614291565b915061435a82614319565b601182019050919050565b6000614370826142c5565b915061437c82856142e8565b915061438782614342565b915061439382846142e8565b91508190509392505050565b7f416363657373436f6e74726f6c3a2063616e206f6e6c792072656e6f756e636560008201527f20726f6c657320666f722073656c660000000000000000000000000000000000602082015250565b60006143fb602f836133e2565b91506144068261439f565b604082019050919050565b6000602082019050818103600083015261442a816143ee565b9050919050565b7f5061757361626c653a206e6f7420706175736564000000000000000000000000600082015250565b60006144676014836133e2565b915061447282614431565b602082019050919050565b600060208201905081810360008301526144968161445a565b9050919050565b7f45524332303a206d696e7420746f20746865207a65726f206164647265737300600082015250565b60006144d3601f836133e2565b91506144de8261449d565b602082019050919050565b60006020820190508181036000830152614502816144c6565b9050919050565b7f45524332303a206275726e2066726f6d20746865207a65726f2061646472657360008201527f7300000000000000000000000000000000000000000000000000000000000000602082015250565b60006145656021836133e2565b915061457082614509565b604082019050919050565b6000602082019050818103600083015261459481614558565b9050919050565b7f45524332303a206275726e20616d6f756e7420657863656564732062616c616e60008201527f6365000000000000000000000000000000000000000000000000000000000000602082015250565b60006145f76022836133e2565b91506146028261459b565b604082019050919050565b60006020820190508181036000830152614626816145ea565b9050919050565b7f496e697469616c697a61626c653a20636f6e7472616374206973206e6f74206960008201527f6e697469616c697a696e67000000000000000000000000000000000000000000602082015250565b6000614689602b836133e2565b91506146948261462d565b604082019050919050565b600060208201905081810360008301526146b88161467c565b9050919050565b7f5061757361626c653a2070617573656400000000000000000000000000000000600082015250565b60006146f56010836133e2565b9150614700826146bf565b602082019050919050565b60006020820190508181036000830152614724816146e8565b9050919050565b7f53656e6465722069732063757272656e746c792066726f7a656e2e0000000000600082015250565b6000614761601b836133e2565b915061476c8261472b565b602082019050919050565b6000602082019050818103600083015261479081614754565b9050919050565b7f526563697069656e742069732063757272656e746c792066726f7a656e2e0000600082015250565b60006147cd601e836133e2565b91506147d882614797565b602082019050919050565b600060208201905081810360008301526147fc816147c0565b9050919050565b7f4e487b7100000000000000000000000000000000000000000000000000000000600052604160045260246000fd5b7f4e487b7100000000000000000000000000000000000000000000000000000000600052603260045260246000fd5b600061486c826134f0565b915060008214156148805761487f613943565b5b600182039050919050565b7f537472696e67733a20686578206c656e67746820696e73756666696369656e74600082015250565b60006148c16020836133e2565b91506148cc8261488b565b602082019050919050565b600060208201905081810360008301526148f0816148b4565b9050919050565b7f4e487b7100000000000000000000000000000000000000000000000000000000600052603160045260246000fdfea26469706673582212209f32db693c54996d2494dbd42571fddd4abaa5341ef9e6f2eec26fa9b2a64b9a64736f6c634300080b0033",
  "linkReferences": {},
  "deployedLinkReferences": {}
}